{
	"contracts/Market.sol": {
		"Market": {
			"abi": [
				{
					"inputs": [
						{
							"internalType": "address",
							"name": "_owner",
							"type": "address"
						},
						{
							"internalType": "address",
							"name": "_controller",
							"type": "address"
						},
						{
							"internalType": "address",
							"name": "_token",
							"type": "address"
						}
					],
					"stateMutability": "nonpayable",
					"type": "constructor"
				},
				{
					"anonymous": false,
					"inputs": [
						{
							"indexed": true,
							"internalType": "bytes",
							"name": "pid",
							"type": "bytes"
						},
						{
							"indexed": true,
							"internalType": "address",
							"name": "buyer",
							"type": "address"
						},
						{
							"indexed": false,
							"internalType": "uint256",
							"name": "core",
							"type": "uint256"
						},
						{
							"indexed": false,
							"internalType": "uint256",
							"name": "day",
							"type": "uint256"
						},
						{
							"indexed": false,
							"internalType": "uint256",
							"name": "cost",
							"type": "uint256"
						}
					],
					"name": "USDTReceive",
					"type": "event"
				},
				{
					"inputs": [
						{
							"internalType": "uint256",
							"name": "_core",
							"type": "uint256"
						},
						{
							"internalType": "uint256",
							"name": "_days",
							"type": "uint256"
						}
					],
					"name": "calculate",
					"outputs": [
						{
							"internalType": "uint256",
							"name": "",
							"type": "uint256"
						}
					],
					"stateMutability": "pure",
					"type": "function"
				},
				{
					"inputs": [],
					"name": "getDecimals",
					"outputs": [
						{
							"internalType": "uint8",
							"name": "",
							"type": "uint8"
						}
					],
					"stateMutability": "view",
					"type": "function"
				},
				{
					"inputs": [],
					"name": "getOwner",
					"outputs": [
						{
							"internalType": "address",
							"name": "",
							"type": "address"
						}
					],
					"stateMutability": "view",
					"type": "function"
				},
				{
					"inputs": [],
					"name": "getSendSwitch",
					"outputs": [
						{
							"internalType": "bool",
							"name": "",
							"type": "bool"
						}
					],
					"stateMutability": "view",
					"type": "function"
				},
				{
					"inputs": [],
					"name": "sendSwitch",
					"outputs": [],
					"stateMutability": "nonpayable",
					"type": "function"
				},
				{
					"inputs": [
						{
							"internalType": "address",
							"name": "_newController",
							"type": "address"
						}
					],
					"name": "setController",
					"outputs": [],
					"stateMutability": "nonpayable",
					"type": "function"
				},
				{
					"inputs": [
						{
							"internalType": "address",
							"name": "_newOwner",
							"type": "address"
						}
					],
					"name": "setOwner",
					"outputs": [],
					"stateMutability": "nonpayable",
					"type": "function"
				},
				{
					"inputs": [
						{
							"internalType": "bytes",
							"name": "_pid",
							"type": "bytes"
						},
						{
							"internalType": "uint256",
							"name": "_core",
							"type": "uint256"
						},
						{
							"internalType": "uint256",
							"name": "_days",
							"type": "uint256"
						}
					],
					"name": "usdtReceive",
					"outputs": [],
					"stateMutability": "nonpayable",
					"type": "function"
				},
				{
					"inputs": [],
					"name": "usdtWithdraw",
					"outputs": [],
					"stateMutability": "nonpayable",
					"type": "function"
				}
			],
			"devdoc": {
				"kind": "dev",
				"methods": {},
				"version": 1
			},
			"evm": {
				"assembly": "    /* \"contracts/Market.sol\":472:3919  contract Market{... */\n  mstore(0x40, 0x80)\n    /* \"contracts/Market.sol\":897:902  false */\n  0x00\n    /* \"contracts/Market.sol\":870:902  bool private sendToOwner = false */\n  0x00\n  exp(0x0100, 0x00)\n  dup2\n  sload\n  dup2\n  0xff\n  mul\n  not\n  and\n  swap1\n  dup4\n  iszero\n  iszero\n  mul\n  or\n  swap1\n  sstore\n  pop\n    /* \"contracts/Market.sol\":1104:1348  constructor(address _owner, address _controller, address _token) {... */\n  callvalue\n  dup1\n  iszero\n  tag_1\n  jumpi\n  revert(0x00, 0x00)\ntag_1:\n  pop\n  mload(0x40)\n  sub(codesize, bytecodeSize)\n  dup1\n  bytecodeSize\n  dup4\n  codecopy\n  dup2\n  dup2\n  add\n  0x40\n  mstore\n  dup2\n  add\n  swap1\n  tag_2\n  swap2\n  swap1\n  tag_3\n  jump\t// in\ntag_2:\n    /* \"contracts/Market.sol\":1187:1193  _owner */\n  dup3\n    /* \"contracts/Market.sol\":1179:1184  owner */\n  0x00\n  0x01\n    /* \"contracts/Market.sol\":1179:1193  owner = _owner */\n  0x0100\n  exp\n  dup2\n  sload\n  dup2\n  0xffffffffffffffffffffffffffffffffffffffff\n  mul\n  not\n  and\n  swap1\n  dup4\n  0xffffffffffffffffffffffffffffffffffffffff\n  and\n  mul\n  or\n  swap1\n  sstore\n  pop\n    /* \"contracts/Market.sol\":1221:1225  true */\n  0x01\n    /* \"contracts/Market.sol\":1203:1210  isOwner */\n  0x02\n    /* \"contracts/Market.sol\":1203:1218  isOwner[_owner] */\n  0x00\n    /* \"contracts/Market.sol\":1211:1217  _owner */\n  dup6\n    /* \"contracts/Market.sol\":1203:1218  isOwner[_owner] */\n  0xffffffffffffffffffffffffffffffffffffffff\n  and\n  0xffffffffffffffffffffffffffffffffffffffff\n  and\n  dup2\n  mstore\n  0x20\n  add\n  swap1\n  dup2\n  mstore\n  0x20\n  add\n  0x00\n  keccak256\n  0x00\n    /* \"contracts/Market.sol\":1203:1225  isOwner[_owner] = true */\n  0x0100\n  exp\n  dup2\n  sload\n  dup2\n  0xff\n  mul\n  not\n  and\n  swap1\n  dup4\n  iszero\n  iszero\n  mul\n  or\n  swap1\n  sstore\n  pop\n    /* \"contracts/Market.sol\":1249:1260  _controller */\n  dup2\n    /* \"contracts/Market.sol\":1236:1246  controller */\n  0x01\n  0x00\n    /* \"contracts/Market.sol\":1236:1260  controller = _controller */\n  0x0100\n  exp\n  dup2\n  sload\n  dup2\n  0xffffffffffffffffffffffffffffffffffffffff\n  mul\n  not\n  and\n  swap1\n  dup4\n  0xffffffffffffffffffffffffffffffffffffffff\n  and\n  mul\n  or\n  swap1\n  sstore\n  pop\n    /* \"contracts/Market.sol\":1298:1302  true */\n  0x01\n    /* \"contracts/Market.sol\":1270:1282  isController */\n  0x03\n    /* \"contracts/Market.sol\":1270:1295  isController[_controller] */\n  0x00\n    /* \"contracts/Market.sol\":1283:1294  _controller */\n  dup5\n    /* \"contracts/Market.sol\":1270:1295  isController[_controller] */\n  0xffffffffffffffffffffffffffffffffffffffff\n  and\n  0xffffffffffffffffffffffffffffffffffffffff\n  and\n  dup2\n  mstore\n  0x20\n  add\n  swap1\n  dup2\n  mstore\n  0x20\n  add\n  0x00\n  keccak256\n  0x00\n    /* \"contracts/Market.sol\":1270:1302  isController[_controller] = true */\n  0x0100\n  exp\n  dup2\n  sload\n  dup2\n  0xff\n  mul\n  not\n  and\n  swap1\n  dup4\n  iszero\n  iszero\n  mul\n  or\n  swap1\n  sstore\n  pop\n    /* \"contracts/Market.sol\":1334:1340  _token */\n  dup1\n    /* \"contracts/Market.sol\":1313:1324  stableToken */\n  0x04\n  0x00\n    /* \"contracts/Market.sol\":1313:1341  stableToken = IERC20(_token) */\n  0x0100\n  exp\n  dup2\n  sload\n  dup2\n  0xffffffffffffffffffffffffffffffffffffffff\n  mul\n  not\n  and\n  swap1\n  dup4\n  0xffffffffffffffffffffffffffffffffffffffff\n  and\n  mul\n  or\n  swap1\n  sstore\n  pop\n    /* \"contracts/Market.sol\":1104:1348  constructor(address _owner, address _controller, address _token) {... */\n  pop\n  pop\n  pop\n    /* \"contracts/Market.sol\":472:3919  contract Market{... */\n  jump(tag_6)\n    /* \"#utility.yul\":88:205   */\ntag_8:\n    /* \"#utility.yul\":197:198   */\n  0x00\n    /* \"#utility.yul\":194:195   */\n  0x00\n    /* \"#utility.yul\":187:199   */\n  revert\n    /* \"#utility.yul\":334:460   */\ntag_10:\n    /* \"#utility.yul\":371:378   */\n  0x00\n    /* \"#utility.yul\":411:453   */\n  0xffffffffffffffffffffffffffffffffffffffff\n    /* \"#utility.yul\":404:409   */\n  dup3\n    /* \"#utility.yul\":400:454   */\n  and\n    /* \"#utility.yul\":389:454   */\n  swap1\n  pop\n    /* \"#utility.yul\":334:460   */\n  swap2\n  swap1\n  pop\n  jump\t// out\n    /* \"#utility.yul\":466:562   */\ntag_11:\n    /* \"#utility.yul\":503:510   */\n  0x00\n    /* \"#utility.yul\":532:556   */\n  tag_20\n    /* \"#utility.yul\":550:555   */\n  dup3\n    /* \"#utility.yul\":532:556   */\n  tag_10\n  jump\t// in\ntag_20:\n    /* \"#utility.yul\":521:556   */\n  swap1\n  pop\n    /* \"#utility.yul\":466:562   */\n  swap2\n  swap1\n  pop\n  jump\t// out\n    /* \"#utility.yul\":568:690   */\ntag_12:\n    /* \"#utility.yul\":641:665   */\n  tag_22\n    /* \"#utility.yul\":659:664   */\n  dup2\n    /* \"#utility.yul\":641:665   */\n  tag_11\n  jump\t// in\ntag_22:\n    /* \"#utility.yul\":634:639   */\n  dup2\n    /* \"#utility.yul\":631:666   */\n  eq\n    /* \"#utility.yul\":621:684   */\n  tag_23\n  jumpi\n    /* \"#utility.yul\":680:681   */\n  0x00\n    /* \"#utility.yul\":677:678   */\n  0x00\n    /* \"#utility.yul\":670:682   */\n  revert\n    /* \"#utility.yul\":621:684   */\ntag_23:\n    /* \"#utility.yul\":568:690   */\n  pop\n  jump\t// out\n    /* \"#utility.yul\":696:839   */\ntag_13:\n    /* \"#utility.yul\":753:758   */\n  0x00\n    /* \"#utility.yul\":784:790   */\n  dup2\n    /* \"#utility.yul\":778:791   */\n  mload\n    /* \"#utility.yul\":769:791   */\n  swap1\n  pop\n    /* \"#utility.yul\":800:833   */\n  tag_25\n    /* \"#utility.yul\":827:832   */\n  dup2\n    /* \"#utility.yul\":800:833   */\n  tag_12\n  jump\t// in\ntag_25:\n    /* \"#utility.yul\":696:839   */\n  swap3\n  swap2\n  pop\n  pop\n  jump\t// out\n    /* \"#utility.yul\":845:1508   */\ntag_3:\n    /* \"#utility.yul\":933:939   */\n  0x00\n    /* \"#utility.yul\":941:947   */\n  0x00\n    /* \"#utility.yul\":949:955   */\n  0x00\n    /* \"#utility.yul\":998:1000   */\n  0x60\n    /* \"#utility.yul\":986:995   */\n  dup5\n    /* \"#utility.yul\":977:984   */\n  dup7\n    /* \"#utility.yul\":973:996   */\n  sub\n    /* \"#utility.yul\":969:1001   */\n  slt\n    /* \"#utility.yul\":966:1085   */\n  iszero\n  tag_27\n  jumpi\n    /* \"#utility.yul\":1004:1083   */\n  tag_28\n  tag_8\n  jump\t// in\ntag_28:\n    /* \"#utility.yul\":966:1085   */\ntag_27:\n    /* \"#utility.yul\":1124:1125   */\n  0x00\n    /* \"#utility.yul\":1149:1213   */\n  tag_29\n    /* \"#utility.yul\":1205:1212   */\n  dup7\n    /* \"#utility.yul\":1196:1202   */\n  dup3\n    /* \"#utility.yul\":1185:1194   */\n  dup8\n    /* \"#utility.yul\":1181:1203   */\n  add\n    /* \"#utility.yul\":1149:1213   */\n  tag_13\n  jump\t// in\ntag_29:\n    /* \"#utility.yul\":1139:1213   */\n  swap4\n  pop\n    /* \"#utility.yul\":1095:1223   */\n  pop\n    /* \"#utility.yul\":1262:1264   */\n  0x20\n    /* \"#utility.yul\":1288:1352   */\n  tag_30\n    /* \"#utility.yul\":1344:1351   */\n  dup7\n    /* \"#utility.yul\":1335:1341   */\n  dup3\n    /* \"#utility.yul\":1324:1333   */\n  dup8\n    /* \"#utility.yul\":1320:1342   */\n  add\n    /* \"#utility.yul\":1288:1352   */\n  tag_13\n  jump\t// in\ntag_30:\n    /* \"#utility.yul\":1278:1352   */\n  swap3\n  pop\n    /* \"#utility.yul\":1233:1362   */\n  pop\n    /* \"#utility.yul\":1401:1403   */\n  0x40\n    /* \"#utility.yul\":1427:1491   */\n  tag_31\n    /* \"#utility.yul\":1483:1490   */\n  dup7\n    /* \"#utility.yul\":1474:1480   */\n  dup3\n    /* \"#utility.yul\":1463:1472   */\n  dup8\n    /* \"#utility.yul\":1459:1481   */\n  add\n    /* \"#utility.yul\":1427:1491   */\n  tag_13\n  jump\t// in\ntag_31:\n    /* \"#utility.yul\":1417:1491   */\n  swap2\n  pop\n    /* \"#utility.yul\":1372:1501   */\n  pop\n    /* \"#utility.yul\":845:1508   */\n  swap3\n  pop\n  swap3\n  pop\n  swap3\n  jump\t// out\n    /* \"contracts/Market.sol\":472:3919  contract Market{... */\ntag_6:\n  dataSize(sub_0)\n  dup1\n  dataOffset(sub_0)\n  0x00\n  codecopy\n  0x00\n  return\nstop\n\nsub_0: assembly {\n        /* \"contracts/Market.sol\":472:3919  contract Market{... */\n      mstore(0x40, 0x80)\n      callvalue\n      dup1\n      iszero\n      tag_1\n      jumpi\n      revert(0x00, 0x00)\n    tag_1:\n      pop\n      jumpi(tag_2, lt(calldatasize, 0x04))\n      shr(0xe0, calldataload(0x00))\n      dup1\n      0x92eefe9b\n      gt\n      tag_12\n      jumpi\n      dup1\n      0x92eefe9b\n      eq\n      tag_7\n      jumpi\n      dup1\n      0xa75e1ecf\n      eq\n      tag_8\n      jumpi\n      dup1\n      0xaad0e6eb\n      eq\n      tag_9\n      jumpi\n      dup1\n      0xee2102fa\n      eq\n      tag_10\n      jumpi\n      dup1\n      0xf0141d84\n      eq\n      tag_11\n      jumpi\n      jump(tag_2)\n    tag_12:\n      dup1\n      0x13af4035\n      eq\n      tag_3\n      jumpi\n      dup1\n      0x84c02ba9\n      eq\n      tag_4\n      jumpi\n      dup1\n      0x893d20e8\n      eq\n      tag_5\n      jumpi\n      dup1\n      0x8dfa4363\n      eq\n      tag_6\n      jumpi\n    tag_2:\n      revert(0x00, 0x00)\n        /* \"contracts/Market.sol\":2963:3191  function setOwner(address _newOwner) external OnlyController {... */\n    tag_3:\n      tag_13\n      0x04\n      dup1\n      calldatasize\n      sub\n      dup2\n      add\n      swap1\n      tag_14\n      swap2\n      swap1\n      tag_15\n      jump\t// in\n    tag_14:\n      tag_16\n      jump\t// in\n    tag_13:\n      stop\n        /* \"contracts/Market.sol\":3647:3731  function sendSwitch() external OnlyOwner {... */\n    tag_4:\n      tag_17\n      tag_18\n      jump\t// in\n    tag_17:\n      stop\n        /* \"contracts/Market.sol\":2832:2913  function getOwner() external view returns (address) {... */\n    tag_5:\n      tag_19\n      tag_20\n      jump\t// in\n    tag_19:\n      mload(0x40)\n      tag_21\n      swap2\n      swap1\n      tag_22\n      jump\t// in\n    tag_21:\n      mload(0x40)\n      dup1\n      swap2\n      sub\n      swap1\n      return\n        /* \"contracts/Market.sol\":1374:1839  function calculate(uint _core, uint _days) public pure returns (uint) {... */\n    tag_6:\n      tag_23\n      0x04\n      dup1\n      calldatasize\n      sub\n      dup2\n      add\n      swap1\n      tag_24\n      swap2\n      swap1\n      tag_25\n      jump\t// in\n    tag_24:\n      tag_26\n      jump\t// in\n    tag_23:\n      mload(0x40)\n      tag_27\n      swap2\n      swap1\n      tag_28\n      jump\t// in\n    tag_27:\n      mload(0x40)\n      dup1\n      swap2\n      sub\n      swap1\n      return\n        /* \"contracts/Market.sol\":3223:3506  function setController(address _newController) external OnlyController {... */\n    tag_7:\n      tag_29\n      0x04\n      dup1\n      calldatasize\n      sub\n      dup2\n      add\n      swap1\n      tag_30\n      swap2\n      swap1\n      tag_15\n      jump\t// in\n    tag_30:\n      tag_31\n      jump\t// in\n    tag_29:\n      stop\n        /* \"contracts/Market.sol\":3512:3601  function getSendSwitch() external view returns (bool) {... */\n    tag_8:\n      tag_32\n      tag_33\n      jump\t// in\n    tag_32:\n      mload(0x40)\n      tag_34\n      swap2\n      swap1\n      tag_35\n      jump\t// in\n    tag_34:\n      mload(0x40)\n      dup1\n      swap2\n      sub\n      swap1\n      return\n        /* \"contracts/Market.sol\":3757:3917  function usdtWithdraw() external OnlyOwner {... */\n    tag_9:\n      tag_36\n      tag_37\n      jump\t// in\n    tag_36:\n      stop\n        /* \"contracts/Market.sol\":2337:2826  function usdtReceive(bytes memory _pid, uint _core, uint _days) external {... */\n    tag_10:\n      tag_38\n      0x04\n      dup1\n      calldatasize\n      sub\n      dup2\n      add\n      swap1\n      tag_39\n      swap2\n      swap1\n      tag_40\n      jump\t// in\n    tag_39:\n      tag_41\n      jump\t// in\n    tag_38:\n      stop\n        /* \"contracts/Market.sol\":1845:1979  function getDecimals() external view returns (uint8) {... */\n    tag_11:\n      tag_42\n      tag_43\n      jump\t// in\n    tag_42:\n      mload(0x40)\n      tag_44\n      swap2\n      swap1\n      tag_45\n      jump\t// in\n    tag_44:\n      mload(0x40)\n      dup1\n      swap2\n      sub\n      swap1\n      return\n        /* \"contracts/Market.sol\":2963:3191  function setOwner(address _newOwner) external OnlyController {... */\n    tag_16:\n        /* \"contracts/Market.sol\":681:693  isController */\n      0x03\n        /* \"contracts/Market.sol\":681:705  isController[msg.sender] */\n      0x00\n        /* \"contracts/Market.sol\":694:704  msg.sender */\n      caller\n        /* \"contracts/Market.sol\":681:705  isController[msg.sender] */\n      0xffffffffffffffffffffffffffffffffffffffff\n      and\n      0xffffffffffffffffffffffffffffffffffffffff\n      and\n      dup2\n      mstore\n      0x20\n      add\n      swap1\n      dup2\n      mstore\n      0x20\n      add\n      0x00\n      keccak256\n      0x00\n      swap1\n      sload\n      swap1\n      0x0100\n      exp\n      swap1\n      div\n      0xff\n      and\n        /* \"contracts/Market.sol\":673:737  require(isController[msg.sender], \"Only the controller can use\") */\n      tag_47\n      jumpi\n      mload(0x40)\n      0x08c379a000000000000000000000000000000000000000000000000000000000\n      dup2\n      mstore\n      0x04\n      add\n      tag_48\n      swap1\n      tag_49\n      jump\t// in\n    tag_48:\n      mload(0x40)\n      dup1\n      swap2\n      sub\n      swap1\n      revert\n    tag_47:\n        /* \"contracts/Market.sol\":3056:3061  owner */\n      0x00\n      0x01\n      swap1\n      sload\n      swap1\n      0x0100\n      exp\n      swap1\n      div\n      0xffffffffffffffffffffffffffffffffffffffff\n      and\n        /* \"contracts/Market.sol\":3043:3061  _newOwner != owner */\n      0xffffffffffffffffffffffffffffffffffffffff\n      and\n        /* \"contracts/Market.sol\":3043:3052  _newOwner */\n      dup2\n        /* \"contracts/Market.sol\":3043:3061  _newOwner != owner */\n      0xffffffffffffffffffffffffffffffffffffffff\n      and\n      sub\n        /* \"contracts/Market.sol\":3034:3090  require((_newOwner != owner), \"Please set a new owner.\") */\n      tag_51\n      jumpi\n      mload(0x40)\n      0x08c379a000000000000000000000000000000000000000000000000000000000\n      dup2\n      mstore\n      0x04\n      add\n      tag_52\n      swap1\n      tag_53\n      jump\t// in\n    tag_52:\n      mload(0x40)\n      dup1\n      swap2\n      sub\n      swap1\n      revert\n    tag_51:\n        /* \"contracts/Market.sol\":3117:3122  false */\n      0x00\n        /* \"contracts/Market.sol\":3100:3107  isOwner */\n      0x02\n        /* \"contracts/Market.sol\":3100:3114  isOwner[owner] */\n      0x00\n        /* \"contracts/Market.sol\":3108:3113  owner */\n      0x00\n      0x01\n      swap1\n      sload\n      swap1\n      0x0100\n      exp\n      swap1\n      div\n      0xffffffffffffffffffffffffffffffffffffffff\n      and\n        /* \"contracts/Market.sol\":3100:3114  isOwner[owner] */\n      0xffffffffffffffffffffffffffffffffffffffff\n      and\n      0xffffffffffffffffffffffffffffffffffffffff\n      and\n      dup2\n      mstore\n      0x20\n      add\n      swap1\n      dup2\n      mstore\n      0x20\n      add\n      0x00\n      keccak256\n      0x00\n        /* \"contracts/Market.sol\":3100:3122  isOwner[owner] = false */\n      0x0100\n      exp\n      dup2\n      sload\n      dup2\n      0xff\n      mul\n      not\n      and\n      swap1\n      dup4\n      iszero\n      iszero\n      mul\n      or\n      swap1\n      sstore\n      pop\n        /* \"contracts/Market.sol\":3140:3149  _newOwner */\n      dup1\n        /* \"contracts/Market.sol\":3132:3137  owner */\n      0x00\n      0x01\n        /* \"contracts/Market.sol\":3132:3149  owner = _newOwner */\n      0x0100\n      exp\n      dup2\n      sload\n      dup2\n      0xffffffffffffffffffffffffffffffffffffffff\n      mul\n      not\n      and\n      swap1\n      dup4\n      0xffffffffffffffffffffffffffffffffffffffff\n      and\n      mul\n      or\n      swap1\n      sstore\n      pop\n        /* \"contracts/Market.sol\":3180:3184  true */\n      0x01\n        /* \"contracts/Market.sol\":3159:3166  isOwner */\n      0x02\n        /* \"contracts/Market.sol\":3159:3177  isOwner[_newOwner] */\n      0x00\n        /* \"contracts/Market.sol\":3167:3176  _newOwner */\n      dup4\n        /* \"contracts/Market.sol\":3159:3177  isOwner[_newOwner] */\n      0xffffffffffffffffffffffffffffffffffffffff\n      and\n      0xffffffffffffffffffffffffffffffffffffffff\n      and\n      dup2\n      mstore\n      0x20\n      add\n      swap1\n      dup2\n      mstore\n      0x20\n      add\n      0x00\n      keccak256\n      0x00\n        /* \"contracts/Market.sol\":3159:3184  isOwner[_newOwner] = true */\n      0x0100\n      exp\n      dup2\n      sload\n      dup2\n      0xff\n      mul\n      not\n      and\n      swap1\n      dup4\n      iszero\n      iszero\n      mul\n      or\n      swap1\n      sstore\n      pop\n        /* \"contracts/Market.sol\":2963:3191  function setOwner(address _newOwner) external OnlyController {... */\n      pop\n      jump\t// out\n        /* \"contracts/Market.sol\":3647:3731  function sendSwitch() external OnlyOwner {... */\n    tag_18:\n        /* \"contracts/Market.sol\":800:807  isOwner */\n      0x02\n        /* \"contracts/Market.sol\":800:819  isOwner[msg.sender] */\n      0x00\n        /* \"contracts/Market.sol\":808:818  msg.sender */\n      caller\n        /* \"contracts/Market.sol\":800:819  isOwner[msg.sender] */\n      0xffffffffffffffffffffffffffffffffffffffff\n      and\n      0xffffffffffffffffffffffffffffffffffffffff\n      and\n      dup2\n      mstore\n      0x20\n      add\n      swap1\n      dup2\n      mstore\n      0x20\n      add\n      0x00\n      keccak256\n      0x00\n      swap1\n      sload\n      swap1\n      0x0100\n      exp\n      swap1\n      div\n      0xff\n      and\n        /* \"contracts/Market.sol\":792:846  require(isOwner[msg.sender], \"Only the owner can use\") */\n      tag_55\n      jumpi\n      mload(0x40)\n      0x08c379a000000000000000000000000000000000000000000000000000000000\n      dup2\n      mstore\n      0x04\n      add\n      tag_56\n      swap1\n      tag_57\n      jump\t// in\n    tag_56:\n      mload(0x40)\n      dup1\n      swap2\n      sub\n      swap1\n      revert\n    tag_55:\n        /* \"contracts/Market.sol\":3713:3724  sendToOwner */\n      0x00\n      0x00\n      swap1\n      sload\n      swap1\n      0x0100\n      exp\n      swap1\n      div\n      0xff\n      and\n        /* \"contracts/Market.sol\":3712:3724  !sendToOwner */\n      iszero\n        /* \"contracts/Market.sol\":3698:3709  sendToOwner */\n      0x00\n      0x00\n        /* \"contracts/Market.sol\":3698:3724  sendToOwner = !sendToOwner */\n      0x0100\n      exp\n      dup2\n      sload\n      dup2\n      0xff\n      mul\n      not\n      and\n      swap1\n      dup4\n      iszero\n      iszero\n      mul\n      or\n      swap1\n      sstore\n      pop\n        /* \"contracts/Market.sol\":3647:3731  function sendSwitch() external OnlyOwner {... */\n      jump\t// out\n        /* \"contracts/Market.sol\":2832:2913  function getOwner() external view returns (address) {... */\n    tag_20:\n        /* \"contracts/Market.sol\":2875:2882  address */\n      0x00\n        /* \"contracts/Market.sol\":2901:2906  owner */\n      0x00\n      0x01\n      swap1\n      sload\n      swap1\n      0x0100\n      exp\n      swap1\n      div\n      0xffffffffffffffffffffffffffffffffffffffff\n      and\n        /* \"contracts/Market.sol\":2894:2906  return owner */\n      swap1\n      pop\n        /* \"contracts/Market.sol\":2832:2913  function getOwner() external view returns (address) {... */\n      swap1\n      jump\t// out\n        /* \"contracts/Market.sol\":1374:1839  function calculate(uint _core, uint _days) public pure returns (uint) {... */\n    tag_26:\n        /* \"contracts/Market.sol\":1438:1442  uint */\n      0x00\n        /* \"contracts/Market.sol\":1454:1463  uint cost */\n      0x00\n        /* \"contracts/Market.sol\":1486:1488  30 */\n      0x1e\n        /* \"contracts/Market.sol\":1477:1482  _days */\n      dup4\n        /* \"contracts/Market.sol\":1477:1488  _days == 30 */\n      sub\n        /* \"contracts/Market.sol\":1473:1812  if (_days == 30) {... */\n      tag_61\n      jumpi\n        /* \"contracts/Market.sol\":1536:1543  10 ** 3 */\n      0x03e8\n        /* \"contracts/Market.sol\":1531:1533  15 */\n      0x0f\n        /* \"contracts/Market.sol\":1527:1528  6 */\n      0x06\n        /* \"contracts/Market.sol\":1519:1524  _days */\n      dup6\n        /* \"contracts/Market.sol\":1511:1516  _core */\n      dup8\n        /* \"contracts/Market.sol\":1511:1524  _core * _days */\n      tag_62\n      swap2\n      swap1\n      tag_63\n      jump\t// in\n    tag_62:\n        /* \"contracts/Market.sol\":1511:1528  _core * _days * 6 */\n      tag_64\n      swap2\n      swap1\n      tag_63\n      jump\t// in\n    tag_64:\n        /* \"contracts/Market.sol\":1511:1533  _core * _days * 6 * 15 */\n      tag_65\n      swap2\n      swap1\n      tag_63\n      jump\t// in\n    tag_65:\n        /* \"contracts/Market.sol\":1511:1543  _core * _days * 6 * 15 * 10 ** 3 */\n      tag_66\n      swap2\n      swap1\n      tag_63\n      jump\t// in\n    tag_66:\n        /* \"contracts/Market.sol\":1504:1543  cost = _core * _days * 6 * 15 * 10 ** 3 */\n      swap1\n      pop\n        /* \"contracts/Market.sol\":1473:1812  if (_days == 30) {... */\n      jump(tag_67)\n    tag_61:\n        /* \"contracts/Market.sol\":1573:1575  60 */\n      0x3c\n        /* \"contracts/Market.sol\":1564:1569  _days */\n      dup4\n        /* \"contracts/Market.sol\":1564:1575  _days == 60 */\n      sub\n        /* \"contracts/Market.sol\":1560:1812  if (_days == 60) {... */\n      tag_68\n      jumpi\n        /* \"contracts/Market.sol\":1623:1630  10 ** 3 */\n      0x03e8\n        /* \"contracts/Market.sol\":1618:1620  13 */\n      0x0d\n        /* \"contracts/Market.sol\":1614:1615  6 */\n      0x06\n        /* \"contracts/Market.sol\":1606:1611  _days */\n      dup6\n        /* \"contracts/Market.sol\":1598:1603  _core */\n      dup8\n        /* \"contracts/Market.sol\":1598:1611  _core * _days */\n      tag_69\n      swap2\n      swap1\n      tag_63\n      jump\t// in\n    tag_69:\n        /* \"contracts/Market.sol\":1598:1615  _core * _days * 6 */\n      tag_70\n      swap2\n      swap1\n      tag_63\n      jump\t// in\n    tag_70:\n        /* \"contracts/Market.sol\":1598:1620  _core * _days * 6 * 13 */\n      tag_71\n      swap2\n      swap1\n      tag_63\n      jump\t// in\n    tag_71:\n        /* \"contracts/Market.sol\":1598:1630  _core * _days * 6 * 13 * 10 ** 3 */\n      tag_72\n      swap2\n      swap1\n      tag_63\n      jump\t// in\n    tag_72:\n        /* \"contracts/Market.sol\":1591:1630  cost = _core * _days * 6 * 13 * 10 ** 3 */\n      swap1\n      pop\n        /* \"contracts/Market.sol\":1560:1812  if (_days == 60) {... */\n      jump(tag_73)\n    tag_68:\n        /* \"contracts/Market.sol\":1660:1662  90 */\n      0x5a\n        /* \"contracts/Market.sol\":1651:1656  _days */\n      dup4\n        /* \"contracts/Market.sol\":1651:1662  _days == 90 */\n      sub\n        /* \"contracts/Market.sol\":1647:1812  if (_days == 90) {... */\n      tag_74\n      jumpi\n        /* \"contracts/Market.sol\":1711:1718  10 ** 2 */\n      0x64\n        /* \"contracts/Market.sol\":1705:1708  125 */\n      0x7d\n        /* \"contracts/Market.sol\":1701:1702  6 */\n      0x06\n        /* \"contracts/Market.sol\":1693:1698  _days */\n      dup6\n        /* \"contracts/Market.sol\":1685:1690  _core */\n      dup8\n        /* \"contracts/Market.sol\":1685:1698  _core * _days */\n      tag_75\n      swap2\n      swap1\n      tag_63\n      jump\t// in\n    tag_75:\n        /* \"contracts/Market.sol\":1685:1702  _core * _days * 6 */\n      tag_76\n      swap2\n      swap1\n      tag_63\n      jump\t// in\n    tag_76:\n        /* \"contracts/Market.sol\":1685:1708  _core * _days * 6 * 125 */\n      tag_77\n      swap2\n      swap1\n      tag_63\n      jump\t// in\n    tag_77:\n        /* \"contracts/Market.sol\":1685:1718  _core * _days * 6 * 125 * 10 ** 2 */\n      tag_78\n      swap2\n      swap1\n      tag_63\n      jump\t// in\n    tag_78:\n        /* \"contracts/Market.sol\":1678:1718  cost = _core * _days * 6 * 125 * 10 ** 2 */\n      swap1\n      pop\n        /* \"contracts/Market.sol\":1647:1812  if (_days == 90) {... */\n      jump(tag_79)\n    tag_74:\n        /* \"contracts/Market.sol\":1757:1762  false */\n      0x00\n        /* \"contracts/Market.sol\":1749:1801  require(false, \"Invalid days, must be 30, 60 or 90\") */\n      tag_80\n      jumpi\n      mload(0x40)\n      0x08c379a000000000000000000000000000000000000000000000000000000000\n      dup2\n      mstore\n      0x04\n      add\n      tag_81\n      swap1\n      tag_82\n      jump\t// in\n    tag_81:\n      mload(0x40)\n      dup1\n      swap2\n      sub\n      swap1\n      revert\n    tag_80:\n        /* \"contracts/Market.sol\":1647:1812  if (_days == 90) {... */\n    tag_79:\n        /* \"contracts/Market.sol\":1560:1812  if (_days == 60) {... */\n    tag_73:\n        /* \"contracts/Market.sol\":1473:1812  if (_days == 30) {... */\n    tag_67:\n        /* \"contracts/Market.sol\":1828:1832  cost */\n      dup1\n        /* \"contracts/Market.sol\":1821:1832  return cost */\n      swap2\n      pop\n      pop\n        /* \"contracts/Market.sol\":1374:1839  function calculate(uint _core, uint _days) public pure returns (uint) {... */\n      swap3\n      swap2\n      pop\n      pop\n      jump\t// out\n        /* \"contracts/Market.sol\":3223:3506  function setController(address _newController) external OnlyController {... */\n    tag_31:\n        /* \"contracts/Market.sol\":681:693  isController */\n      0x03\n        /* \"contracts/Market.sol\":681:705  isController[msg.sender] */\n      0x00\n        /* \"contracts/Market.sol\":694:704  msg.sender */\n      caller\n        /* \"contracts/Market.sol\":681:705  isController[msg.sender] */\n      0xffffffffffffffffffffffffffffffffffffffff\n      and\n      0xffffffffffffffffffffffffffffffffffffffff\n      and\n      dup2\n      mstore\n      0x20\n      add\n      swap1\n      dup2\n      mstore\n      0x20\n      add\n      0x00\n      keccak256\n      0x00\n      swap1\n      sload\n      swap1\n      0x0100\n      exp\n      swap1\n      div\n      0xff\n      and\n        /* \"contracts/Market.sol\":673:737  require(isController[msg.sender], \"Only the controller can use\") */\n      tag_84\n      jumpi\n      mload(0x40)\n      0x08c379a000000000000000000000000000000000000000000000000000000000\n      dup2\n      mstore\n      0x04\n      add\n      tag_85\n      swap1\n      tag_49\n      jump\t// in\n    tag_85:\n      mload(0x40)\n      dup1\n      swap2\n      sub\n      swap1\n      revert\n    tag_84:\n        /* \"contracts/Market.sol\":3331:3341  controller */\n      0x01\n      0x00\n      swap1\n      sload\n      swap1\n      0x0100\n      exp\n      swap1\n      div\n      0xffffffffffffffffffffffffffffffffffffffff\n      and\n        /* \"contracts/Market.sol\":3313:3341  _newController != controller */\n      0xffffffffffffffffffffffffffffffffffffffff\n      and\n        /* \"contracts/Market.sol\":3313:3327  _newController */\n      dup2\n        /* \"contracts/Market.sol\":3313:3341  _newController != controller */\n      0xffffffffffffffffffffffffffffffffffffffff\n      and\n      sub\n        /* \"contracts/Market.sol\":3304:3375  require((_newController != controller), \"Please set a new controller.\") */\n      tag_87\n      jumpi\n      mload(0x40)\n      0x08c379a000000000000000000000000000000000000000000000000000000000\n      dup2\n      mstore\n      0x04\n      add\n      tag_88\n      swap1\n      tag_89\n      jump\t// in\n    tag_88:\n      mload(0x40)\n      dup1\n      swap2\n      sub\n      swap1\n      revert\n    tag_87:\n        /* \"contracts/Market.sol\":3412:3417  false */\n      0x00\n        /* \"contracts/Market.sol\":3385:3397  isController */\n      0x03\n        /* \"contracts/Market.sol\":3385:3409  isController[controller] */\n      0x00\n        /* \"contracts/Market.sol\":3398:3408  controller */\n      0x01\n      0x00\n      swap1\n      sload\n      swap1\n      0x0100\n      exp\n      swap1\n      div\n      0xffffffffffffffffffffffffffffffffffffffff\n      and\n        /* \"contracts/Market.sol\":3385:3409  isController[controller] */\n      0xffffffffffffffffffffffffffffffffffffffff\n      and\n      0xffffffffffffffffffffffffffffffffffffffff\n      and\n      dup2\n      mstore\n      0x20\n      add\n      swap1\n      dup2\n      mstore\n      0x20\n      add\n      0x00\n      keccak256\n      0x00\n        /* \"contracts/Market.sol\":3385:3417  isController[controller] = false */\n      0x0100\n      exp\n      dup2\n      sload\n      dup2\n      0xff\n      mul\n      not\n      and\n      swap1\n      dup4\n      iszero\n      iszero\n      mul\n      or\n      swap1\n      sstore\n      pop\n        /* \"contracts/Market.sol\":3440:3454  _newController */\n      dup1\n        /* \"contracts/Market.sol\":3427:3437  controller */\n      0x01\n      0x00\n        /* \"contracts/Market.sol\":3427:3454  controller = _newController */\n      0x0100\n      exp\n      dup2\n      sload\n      dup2\n      0xffffffffffffffffffffffffffffffffffffffff\n      mul\n      not\n      and\n      swap1\n      dup4\n      0xffffffffffffffffffffffffffffffffffffffff\n      and\n      mul\n      or\n      swap1\n      sstore\n      pop\n        /* \"contracts/Market.sol\":3495:3499  true */\n      0x01\n        /* \"contracts/Market.sol\":3464:3476  isController */\n      0x03\n        /* \"contracts/Market.sol\":3464:3492  isController[_newController] */\n      0x00\n        /* \"contracts/Market.sol\":3477:3491  _newController */\n      dup4\n        /* \"contracts/Market.sol\":3464:3492  isController[_newController] */\n      0xffffffffffffffffffffffffffffffffffffffff\n      and\n      0xffffffffffffffffffffffffffffffffffffffff\n      and\n      dup2\n      mstore\n      0x20\n      add\n      swap1\n      dup2\n      mstore\n      0x20\n      add\n      0x00\n      keccak256\n      0x00\n        /* \"contracts/Market.sol\":3464:3499  isController[_newController] = true */\n      0x0100\n      exp\n      dup2\n      sload\n      dup2\n      0xff\n      mul\n      not\n      and\n      swap1\n      dup4\n      iszero\n      iszero\n      mul\n      or\n      swap1\n      sstore\n      pop\n        /* \"contracts/Market.sol\":3223:3506  function setController(address _newController) external OnlyController {... */\n      pop\n      jump\t// out\n        /* \"contracts/Market.sol\":3512:3601  function getSendSwitch() external view returns (bool) {... */\n    tag_33:\n        /* \"contracts/Market.sol\":3560:3564  bool */\n      0x00\n        /* \"contracts/Market.sol\":3583:3594  sendToOwner */\n      0x00\n      0x00\n      swap1\n      sload\n      swap1\n      0x0100\n      exp\n      swap1\n      div\n      0xff\n      and\n        /* \"contracts/Market.sol\":3576:3594  return sendToOwner */\n      swap1\n      pop\n        /* \"contracts/Market.sol\":3512:3601  function getSendSwitch() external view returns (bool) {... */\n      swap1\n      jump\t// out\n        /* \"contracts/Market.sol\":3757:3917  function usdtWithdraw() external OnlyOwner {... */\n    tag_37:\n        /* \"contracts/Market.sol\":800:807  isOwner */\n      0x02\n        /* \"contracts/Market.sol\":800:819  isOwner[msg.sender] */\n      0x00\n        /* \"contracts/Market.sol\":808:818  msg.sender */\n      caller\n        /* \"contracts/Market.sol\":800:819  isOwner[msg.sender] */\n      0xffffffffffffffffffffffffffffffffffffffff\n      and\n      0xffffffffffffffffffffffffffffffffffffffff\n      and\n      dup2\n      mstore\n      0x20\n      add\n      swap1\n      dup2\n      mstore\n      0x20\n      add\n      0x00\n      keccak256\n      0x00\n      swap1\n      sload\n      swap1\n      0x0100\n      exp\n      swap1\n      div\n      0xff\n      and\n        /* \"contracts/Market.sol\":792:846  require(isOwner[msg.sender], \"Only the owner can use\") */\n      tag_92\n      jumpi\n      mload(0x40)\n      0x08c379a000000000000000000000000000000000000000000000000000000000\n      dup2\n      mstore\n      0x04\n      add\n      tag_93\n      swap1\n      tag_57\n      jump\t// in\n    tag_93:\n      mload(0x40)\n      dup1\n      swap2\n      sub\n      swap1\n      revert\n    tag_92:\n        /* \"contracts/Market.sol\":3810:3825  uint256 balance */\n      0x00\n        /* \"contracts/Market.sol\":3828:3839  stableToken */\n      0x04\n      0x00\n      swap1\n      sload\n      swap1\n      0x0100\n      exp\n      swap1\n      div\n      0xffffffffffffffffffffffffffffffffffffffff\n      and\n        /* \"contracts/Market.sol\":3828:3849  stableToken.balanceOf */\n      0xffffffffffffffffffffffffffffffffffffffff\n      and\n      0x70a08231\n        /* \"contracts/Market.sol\":3858:3862  this */\n      address\n        /* \"contracts/Market.sol\":3828:3864  stableToken.balanceOf(address(this)) */\n      mload(0x40)\n      dup3\n      0xffffffff\n      and\n      0xe0\n      shl\n      dup2\n      mstore\n      0x04\n      add\n      tag_95\n      swap2\n      swap1\n      tag_22\n      jump\t// in\n    tag_95:\n      0x20\n      mload(0x40)\n      dup1\n      dup4\n      sub\n      dup2\n      dup7\n      gas\n      staticcall\n      iszero\n      dup1\n      iszero\n      tag_97\n      jumpi\n      returndatacopy(0x00, 0x00, returndatasize)\n      revert(0x00, returndatasize)\n    tag_97:\n      pop\n      pop\n      pop\n      pop\n      mload(0x40)\n      returndatasize\n      not(0x1f)\n      0x1f\n      dup3\n      add\n      and\n      dup3\n      add\n      dup1\n      0x40\n      mstore\n      pop\n      dup2\n      add\n      swap1\n      tag_98\n      swap2\n      swap1\n      tag_99\n      jump\t// in\n    tag_98:\n        /* \"contracts/Market.sol\":3810:3864  uint256 balance = stableToken.balanceOf(address(this)) */\n      swap1\n      pop\n        /* \"contracts/Market.sol\":3874:3885  stableToken */\n      0x04\n      0x00\n      swap1\n      sload\n      swap1\n      0x0100\n      exp\n      swap1\n      div\n      0xffffffffffffffffffffffffffffffffffffffff\n      and\n        /* \"contracts/Market.sol\":3874:3894  stableToken.transfer */\n      0xffffffffffffffffffffffffffffffffffffffff\n      and\n      0xa9059cbb\n        /* \"contracts/Market.sol\":3895:3900  owner */\n      0x00\n      0x01\n      swap1\n      sload\n      swap1\n      0x0100\n      exp\n      swap1\n      div\n      0xffffffffffffffffffffffffffffffffffffffff\n      and\n        /* \"contracts/Market.sol\":3902:3909  balance */\n      dup4\n        /* \"contracts/Market.sol\":3874:3910  stableToken.transfer(owner, balance) */\n      mload(0x40)\n      dup4\n      0xffffffff\n      and\n      0xe0\n      shl\n      dup2\n      mstore\n      0x04\n      add\n      tag_100\n      swap3\n      swap2\n      swap1\n      tag_101\n      jump\t// in\n    tag_100:\n      0x20\n      mload(0x40)\n      dup1\n      dup4\n      sub\n      dup2\n      0x00\n      dup8\n      gas\n      call\n      iszero\n      dup1\n      iszero\n      tag_103\n      jumpi\n      returndatacopy(0x00, 0x00, returndatasize)\n      revert(0x00, returndatasize)\n    tag_103:\n      pop\n      pop\n      pop\n      pop\n      mload(0x40)\n      returndatasize\n      not(0x1f)\n      0x1f\n      dup3\n      add\n      and\n      dup3\n      add\n      dup1\n      0x40\n      mstore\n      pop\n      dup2\n      add\n      swap1\n      tag_104\n      swap2\n      swap1\n      tag_105\n      jump\t// in\n    tag_104:\n      pop\n        /* \"contracts/Market.sol\":3800:3917  {... */\n      pop\n        /* \"contracts/Market.sol\":3757:3917  function usdtWithdraw() external OnlyOwner {... */\n      jump\t// out\n        /* \"contracts/Market.sol\":2337:2826  function usdtReceive(bytes memory _pid, uint _core, uint _days) external {... */\n    tag_41:\n        /* \"contracts/Market.sol\":2420:2429  uint cost */\n      0x00\n        /* \"contracts/Market.sol\":2432:2457  usdtApprove(_core, _days) */\n      tag_107\n        /* \"contracts/Market.sol\":2444:2449  _core */\n      dup4\n        /* \"contracts/Market.sol\":2451:2456  _days */\n      dup4\n        /* \"contracts/Market.sol\":2432:2443  usdtApprove */\n      tag_108\n        /* \"contracts/Market.sol\":2432:2457  usdtApprove(_core, _days) */\n      jump\t// in\n    tag_107:\n        /* \"contracts/Market.sol\":2420:2457  uint cost = usdtApprove(_core, _days) */\n      swap1\n      pop\n        /* \"contracts/Market.sol\":2491:2504  bool transfer */\n      0x00\n        /* \"contracts/Market.sol\":2507:2518  stableToken */\n      0x04\n      0x00\n      swap1\n      sload\n      swap1\n      0x0100\n      exp\n      swap1\n      div\n      0xffffffffffffffffffffffffffffffffffffffff\n      and\n        /* \"contracts/Market.sol\":2507:2531  stableToken.transferFrom */\n      0xffffffffffffffffffffffffffffffffffffffff\n      and\n      0x23b872dd\n        /* \"contracts/Market.sol\":2532:2542  msg.sender */\n      caller\n        /* \"contracts/Market.sol\":2552:2556  this */\n      address\n        /* \"contracts/Market.sol\":2559:2563  cost */\n      dup6\n        /* \"contracts/Market.sol\":2507:2564  stableToken.transferFrom(msg.sender, address(this), cost) */\n      mload(0x40)\n      dup5\n      0xffffffff\n      and\n      0xe0\n      shl\n      dup2\n      mstore\n      0x04\n      add\n      tag_109\n      swap4\n      swap3\n      swap2\n      swap1\n      tag_110\n      jump\t// in\n    tag_109:\n      0x20\n      mload(0x40)\n      dup1\n      dup4\n      sub\n      dup2\n      0x00\n      dup8\n      gas\n      call\n      iszero\n      dup1\n      iszero\n      tag_112\n      jumpi\n      returndatacopy(0x00, 0x00, returndatasize)\n      revert(0x00, returndatasize)\n    tag_112:\n      pop\n      pop\n      pop\n      pop\n      mload(0x40)\n      returndatasize\n      not(0x1f)\n      0x1f\n      dup3\n      add\n      and\n      dup3\n      add\n      dup1\n      0x40\n      mstore\n      pop\n      dup2\n      add\n      swap1\n      tag_113\n      swap2\n      swap1\n      tag_105\n      jump\t// in\n    tag_113:\n        /* \"contracts/Market.sol\":2491:2564  bool transfer = stableToken.transferFrom(msg.sender, address(this), cost) */\n      swap1\n      pop\n        /* \"contracts/Market.sol\":2582:2590  transfer */\n      dup1\n        /* \"contracts/Market.sol\":2574:2615  require(transfer, \"USDT transfer failed\") */\n      tag_114\n      jumpi\n      mload(0x40)\n      0x08c379a000000000000000000000000000000000000000000000000000000000\n      dup2\n      mstore\n      0x04\n      add\n      tag_115\n      swap1\n      tag_116\n      jump\t// in\n    tag_115:\n      mload(0x40)\n      dup1\n      swap2\n      sub\n      swap1\n      revert\n    tag_114:\n        /* \"contracts/Market.sol\":2684:2695  sendToOwner */\n      0x00\n      0x00\n      swap1\n      sload\n      swap1\n      0x0100\n      exp\n      swap1\n      div\n      0xff\n      and\n        /* \"contracts/Market.sol\":2680:2755  if (sendToOwner) {... */\n      iszero\n      tag_117\n      jumpi\n        /* \"contracts/Market.sol\":2711:2722  stableToken */\n      0x04\n      0x00\n      swap1\n      sload\n      swap1\n      0x0100\n      exp\n      swap1\n      div\n      0xffffffffffffffffffffffffffffffffffffffff\n      and\n        /* \"contracts/Market.sol\":2711:2731  stableToken.transfer */\n      0xffffffffffffffffffffffffffffffffffffffff\n      and\n      0xa9059cbb\n        /* \"contracts/Market.sol\":2732:2737  owner */\n      0x00\n      0x01\n      swap1\n      sload\n      swap1\n      0x0100\n      exp\n      swap1\n      div\n      0xffffffffffffffffffffffffffffffffffffffff\n      and\n        /* \"contracts/Market.sol\":2739:2743  cost */\n      dup5\n        /* \"contracts/Market.sol\":2711:2744  stableToken.transfer(owner, cost) */\n      mload(0x40)\n      dup4\n      0xffffffff\n      and\n      0xe0\n      shl\n      dup2\n      mstore\n      0x04\n      add\n      tag_118\n      swap3\n      swap2\n      swap1\n      tag_101\n      jump\t// in\n    tag_118:\n      0x20\n      mload(0x40)\n      dup1\n      dup4\n      sub\n      dup2\n      0x00\n      dup8\n      gas\n      call\n      iszero\n      dup1\n      iszero\n      tag_120\n      jumpi\n      returndatacopy(0x00, 0x00, returndatasize)\n      revert(0x00, returndatasize)\n    tag_120:\n      pop\n      pop\n      pop\n      pop\n      mload(0x40)\n      returndatasize\n      not(0x1f)\n      0x1f\n      dup3\n      add\n      and\n      dup3\n      add\n      dup1\n      0x40\n      mstore\n      pop\n      dup2\n      add\n      swap1\n      tag_121\n      swap2\n      swap1\n      tag_105\n      jump\t// in\n    tag_121:\n      pop\n        /* \"contracts/Market.sol\":2680:2755  if (sendToOwner) {... */\n    tag_117:\n        /* \"contracts/Market.sol\":2788:2798  msg.sender */\n      caller\n        /* \"contracts/Market.sol\":2770:2819  USDTReceive(_pid, msg.sender, _core, _days, cost) */\n      0xffffffffffffffffffffffffffffffffffffffff\n      and\n        /* \"contracts/Market.sol\":2782:2786  _pid */\n      dup6\n        /* \"contracts/Market.sol\":2770:2819  USDTReceive(_pid, msg.sender, _core, _days, cost) */\n      mload(0x40)\n      tag_122\n      swap2\n      swap1\n      tag_123\n      jump\t// in\n    tag_122:\n      mload(0x40)\n      dup1\n      swap2\n      sub\n      swap1\n      keccak256\n      0x777245fe086e9196d417837d8b9203aa8d04849e4a0d310a7c52eaead4d4ecd2\n        /* \"contracts/Market.sol\":2800:2805  _core */\n      dup7\n        /* \"contracts/Market.sol\":2807:2812  _days */\n      dup7\n        /* \"contracts/Market.sol\":2814:2818  cost */\n      dup7\n        /* \"contracts/Market.sol\":2770:2819  USDTReceive(_pid, msg.sender, _core, _days, cost) */\n      mload(0x40)\n      tag_124\n      swap4\n      swap3\n      swap2\n      swap1\n      tag_125\n      jump\t// in\n    tag_124:\n      mload(0x40)\n      dup1\n      swap2\n      sub\n      swap1\n      log3\n        /* \"contracts/Market.sol\":2410:2826  {... */\n      pop\n      pop\n        /* \"contracts/Market.sol\":2337:2826  function usdtReceive(bytes memory _pid, uint _core, uint _days) external {... */\n      pop\n      pop\n      pop\n      jump\t// out\n        /* \"contracts/Market.sol\":1845:1979  function getDecimals() external view returns (uint8) {... */\n    tag_43:\n        /* \"contracts/Market.sol\":1891:1896  uint8 */\n      0x00\n        /* \"contracts/Market.sol\":1908:1922  uint8 decimals */\n      0x00\n        /* \"contracts/Market.sol\":1925:1936  stableToken */\n      0x04\n      0x00\n      swap1\n      sload\n      swap1\n      0x0100\n      exp\n      swap1\n      div\n      0xffffffffffffffffffffffffffffffffffffffff\n      and\n        /* \"contracts/Market.sol\":1925:1945  stableToken.decimals */\n      0xffffffffffffffffffffffffffffffffffffffff\n      and\n      0x313ce567\n        /* \"contracts/Market.sol\":1925:1947  stableToken.decimals() */\n      mload(0x40)\n      dup2\n      0xffffffff\n      and\n      0xe0\n      shl\n      dup2\n      mstore\n      0x04\n      add\n      0x20\n      mload(0x40)\n      dup1\n      dup4\n      sub\n      dup2\n      dup7\n      gas\n      staticcall\n      iszero\n      dup1\n      iszero\n      tag_128\n      jumpi\n      returndatacopy(0x00, 0x00, returndatasize)\n      revert(0x00, returndatasize)\n    tag_128:\n      pop\n      pop\n      pop\n      pop\n      mload(0x40)\n      returndatasize\n      not(0x1f)\n      0x1f\n      dup3\n      add\n      and\n      dup3\n      add\n      dup1\n      0x40\n      mstore\n      pop\n      dup2\n      add\n      swap1\n      tag_129\n      swap2\n      swap1\n      tag_130\n      jump\t// in\n    tag_129:\n        /* \"contracts/Market.sol\":1908:1947  uint8 decimals = stableToken.decimals() */\n      swap1\n      pop\n        /* \"contracts/Market.sol\":1964:1972  decimals */\n      dup1\n        /* \"contracts/Market.sol\":1957:1972  return decimals */\n      swap2\n      pop\n      pop\n        /* \"contracts/Market.sol\":1845:1979  function getDecimals() external view returns (uint8) {... */\n      swap1\n      jump\t// out\n        /* \"contracts/Market.sol\":1985:2286  function usdtApprove(uint _core, uint _days) internal returns (uint) {... */\n    tag_108:\n        /* \"contracts/Market.sol\":2048:2052  uint */\n      0x00\n        /* \"contracts/Market.sol\":2088:2097  uint cost */\n      0x00\n        /* \"contracts/Market.sol\":2100:2123  calculate(_core, _days) */\n      tag_132\n        /* \"contracts/Market.sol\":2110:2115  _core */\n      dup5\n        /* \"contracts/Market.sol\":2117:2122  _days */\n      dup5\n        /* \"contracts/Market.sol\":2100:2109  calculate */\n      tag_26\n        /* \"contracts/Market.sol\":2100:2123  calculate(_core, _days) */\n      jump\t// in\n    tag_132:\n        /* \"contracts/Market.sol\":2088:2123  uint cost = calculate(_core, _days) */\n      swap1\n      pop\n        /* \"contracts/Market.sol\":2157:2169  bool success */\n      0x00\n        /* \"contracts/Market.sol\":2172:2183  stableToken */\n      0x04\n      0x00\n      swap1\n      sload\n      swap1\n      0x0100\n      exp\n      swap1\n      div\n      0xffffffffffffffffffffffffffffffffffffffff\n      and\n        /* \"contracts/Market.sol\":2172:2191  stableToken.approve */\n      0xffffffffffffffffffffffffffffffffffffffff\n      and\n      0x095ea7b3\n        /* \"contracts/Market.sol\":2192:2202  msg.sender */\n      caller\n        /* \"contracts/Market.sol\":2204:2208  cost */\n      dup5\n        /* \"contracts/Market.sol\":2172:2209  stableToken.approve(msg.sender, cost) */\n      mload(0x40)\n      dup4\n      0xffffffff\n      and\n      0xe0\n      shl\n      dup2\n      mstore\n      0x04\n      add\n      tag_133\n      swap3\n      swap2\n      swap1\n      tag_101\n      jump\t// in\n    tag_133:\n      0x20\n      mload(0x40)\n      dup1\n      dup4\n      sub\n      dup2\n      0x00\n      dup8\n      gas\n      call\n      iszero\n      dup1\n      iszero\n      tag_135\n      jumpi\n      returndatacopy(0x00, 0x00, returndatasize)\n      revert(0x00, returndatasize)\n    tag_135:\n      pop\n      pop\n      pop\n      pop\n      mload(0x40)\n      returndatasize\n      not(0x1f)\n      0x1f\n      dup3\n      add\n      and\n      dup3\n      add\n      dup1\n      0x40\n      mstore\n      pop\n      dup2\n      add\n      swap1\n      tag_136\n      swap2\n      swap1\n      tag_105\n      jump\t// in\n    tag_136:\n        /* \"contracts/Market.sol\":2157:2209  bool success = stableToken.approve(msg.sender, cost) */\n      swap1\n      pop\n        /* \"contracts/Market.sol\":2227:2234  success */\n      dup1\n        /* \"contracts/Market.sol\":2219:2258  require(success, \"USDT approve failed\") */\n      tag_137\n      jumpi\n      mload(0x40)\n      0x08c379a000000000000000000000000000000000000000000000000000000000\n      dup2\n      mstore\n      0x04\n      add\n      tag_138\n      swap1\n      tag_139\n      jump\t// in\n    tag_138:\n      mload(0x40)\n      dup1\n      swap2\n      sub\n      swap1\n      revert\n    tag_137:\n        /* \"contracts/Market.sol\":2275:2279  cost */\n      dup2\n        /* \"contracts/Market.sol\":2268:2279  return cost */\n      swap3\n      pop\n      pop\n      pop\n        /* \"contracts/Market.sol\":1985:2286  function usdtApprove(uint _core, uint _days) internal returns (uint) {... */\n      swap3\n      swap2\n      pop\n      pop\n      jump\t// out\n        /* \"#utility.yul\":7:82   */\n    tag_140:\n        /* \"#utility.yul\":40:46   */\n      0x00\n        /* \"#utility.yul\":73:75   */\n      0x40\n        /* \"#utility.yul\":67:76   */\n      mload\n        /* \"#utility.yul\":57:76   */\n      swap1\n      pop\n        /* \"#utility.yul\":7:82   */\n      swap1\n      jump\t// out\n        /* \"#utility.yul\":88:205   */\n    tag_141:\n        /* \"#utility.yul\":197:198   */\n      0x00\n        /* \"#utility.yul\":194:195   */\n      0x00\n        /* \"#utility.yul\":187:199   */\n      revert\n        /* \"#utility.yul\":211:328   */\n    tag_142:\n        /* \"#utility.yul\":320:321   */\n      0x00\n        /* \"#utility.yul\":317:318   */\n      0x00\n        /* \"#utility.yul\":310:322   */\n      revert\n        /* \"#utility.yul\":334:460   */\n    tag_143:\n        /* \"#utility.yul\":371:378   */\n      0x00\n        /* \"#utility.yul\":411:453   */\n      0xffffffffffffffffffffffffffffffffffffffff\n        /* \"#utility.yul\":404:409   */\n      dup3\n        /* \"#utility.yul\":400:454   */\n      and\n        /* \"#utility.yul\":389:454   */\n      swap1\n      pop\n        /* \"#utility.yul\":334:460   */\n      swap2\n      swap1\n      pop\n      jump\t// out\n        /* \"#utility.yul\":466:562   */\n    tag_144:\n        /* \"#utility.yul\":503:510   */\n      0x00\n        /* \"#utility.yul\":532:556   */\n      tag_197\n        /* \"#utility.yul\":550:555   */\n      dup3\n        /* \"#utility.yul\":532:556   */\n      tag_143\n      jump\t// in\n    tag_197:\n        /* \"#utility.yul\":521:556   */\n      swap1\n      pop\n        /* \"#utility.yul\":466:562   */\n      swap2\n      swap1\n      pop\n      jump\t// out\n        /* \"#utility.yul\":568:690   */\n    tag_145:\n        /* \"#utility.yul\":641:665   */\n      tag_199\n        /* \"#utility.yul\":659:664   */\n      dup2\n        /* \"#utility.yul\":641:665   */\n      tag_144\n      jump\t// in\n    tag_199:\n        /* \"#utility.yul\":634:639   */\n      dup2\n        /* \"#utility.yul\":631:666   */\n      eq\n        /* \"#utility.yul\":621:684   */\n      tag_200\n      jumpi\n        /* \"#utility.yul\":680:681   */\n      0x00\n        /* \"#utility.yul\":677:678   */\n      0x00\n        /* \"#utility.yul\":670:682   */\n      revert\n        /* \"#utility.yul\":621:684   */\n    tag_200:\n        /* \"#utility.yul\":568:690   */\n      pop\n      jump\t// out\n        /* \"#utility.yul\":696:835   */\n    tag_146:\n        /* \"#utility.yul\":742:747   */\n      0x00\n        /* \"#utility.yul\":780:786   */\n      dup2\n        /* \"#utility.yul\":767:787   */\n      calldataload\n        /* \"#utility.yul\":758:787   */\n      swap1\n      pop\n        /* \"#utility.yul\":796:829   */\n      tag_202\n        /* \"#utility.yul\":823:828   */\n      dup2\n        /* \"#utility.yul\":796:829   */\n      tag_145\n      jump\t// in\n    tag_202:\n        /* \"#utility.yul\":696:835   */\n      swap3\n      swap2\n      pop\n      pop\n      jump\t// out\n        /* \"#utility.yul\":841:1170   */\n    tag_15:\n        /* \"#utility.yul\":900:906   */\n      0x00\n        /* \"#utility.yul\":949:951   */\n      0x20\n        /* \"#utility.yul\":937:946   */\n      dup3\n        /* \"#utility.yul\":928:935   */\n      dup5\n        /* \"#utility.yul\":924:947   */\n      sub\n        /* \"#utility.yul\":920:952   */\n      slt\n        /* \"#utility.yul\":917:1036   */\n      iszero\n      tag_204\n      jumpi\n        /* \"#utility.yul\":955:1034   */\n      tag_205\n      tag_141\n      jump\t// in\n    tag_205:\n        /* \"#utility.yul\":917:1036   */\n    tag_204:\n        /* \"#utility.yul\":1075:1076   */\n      0x00\n        /* \"#utility.yul\":1100:1153   */\n      tag_206\n        /* \"#utility.yul\":1145:1152   */\n      dup5\n        /* \"#utility.yul\":1136:1142   */\n      dup3\n        /* \"#utility.yul\":1125:1134   */\n      dup6\n        /* \"#utility.yul\":1121:1143   */\n      add\n        /* \"#utility.yul\":1100:1153   */\n      tag_146\n      jump\t// in\n    tag_206:\n        /* \"#utility.yul\":1090:1153   */\n      swap2\n      pop\n        /* \"#utility.yul\":1046:1163   */\n      pop\n        /* \"#utility.yul\":841:1170   */\n      swap3\n      swap2\n      pop\n      pop\n      jump\t// out\n        /* \"#utility.yul\":1176:1294   */\n    tag_147:\n        /* \"#utility.yul\":1263:1287   */\n      tag_208\n        /* \"#utility.yul\":1281:1286   */\n      dup2\n        /* \"#utility.yul\":1263:1287   */\n      tag_144\n      jump\t// in\n    tag_208:\n        /* \"#utility.yul\":1258:1261   */\n      dup3\n        /* \"#utility.yul\":1251:1288   */\n      mstore\n        /* \"#utility.yul\":1176:1294   */\n      pop\n      pop\n      jump\t// out\n        /* \"#utility.yul\":1300:1522   */\n    tag_22:\n        /* \"#utility.yul\":1393:1397   */\n      0x00\n        /* \"#utility.yul\":1431:1433   */\n      0x20\n        /* \"#utility.yul\":1420:1429   */\n      dup3\n        /* \"#utility.yul\":1416:1434   */\n      add\n        /* \"#utility.yul\":1408:1434   */\n      swap1\n      pop\n        /* \"#utility.yul\":1444:1515   */\n      tag_210\n        /* \"#utility.yul\":1512:1513   */\n      0x00\n        /* \"#utility.yul\":1501:1510   */\n      dup4\n        /* \"#utility.yul\":1497:1514   */\n      add\n        /* \"#utility.yul\":1488:1494   */\n      dup5\n        /* \"#utility.yul\":1444:1515   */\n      tag_147\n      jump\t// in\n    tag_210:\n        /* \"#utility.yul\":1300:1522   */\n      swap3\n      swap2\n      pop\n      pop\n      jump\t// out\n        /* \"#utility.yul\":1528:1605   */\n    tag_148:\n        /* \"#utility.yul\":1565:1572   */\n      0x00\n        /* \"#utility.yul\":1594:1599   */\n      dup2\n        /* \"#utility.yul\":1583:1599   */\n      swap1\n      pop\n        /* \"#utility.yul\":1528:1605   */\n      swap2\n      swap1\n      pop\n      jump\t// out\n        /* \"#utility.yul\":1611:1733   */\n    tag_149:\n        /* \"#utility.yul\":1684:1708   */\n      tag_213\n        /* \"#utility.yul\":1702:1707   */\n      dup2\n        /* \"#utility.yul\":1684:1708   */\n      tag_148\n      jump\t// in\n    tag_213:\n        /* \"#utility.yul\":1677:1682   */\n      dup2\n        /* \"#utility.yul\":1674:1709   */\n      eq\n        /* \"#utility.yul\":1664:1727   */\n      tag_214\n      jumpi\n        /* \"#utility.yul\":1723:1724   */\n      0x00\n        /* \"#utility.yul\":1720:1721   */\n      0x00\n        /* \"#utility.yul\":1713:1725   */\n      revert\n        /* \"#utility.yul\":1664:1727   */\n    tag_214:\n        /* \"#utility.yul\":1611:1733   */\n      pop\n      jump\t// out\n        /* \"#utility.yul\":1739:1878   */\n    tag_150:\n        /* \"#utility.yul\":1785:1790   */\n      0x00\n        /* \"#utility.yul\":1823:1829   */\n      dup2\n        /* \"#utility.yul\":1810:1830   */\n      calldataload\n        /* \"#utility.yul\":1801:1830   */\n      swap1\n      pop\n        /* \"#utility.yul\":1839:1872   */\n      tag_216\n        /* \"#utility.yul\":1866:1871   */\n      dup2\n        /* \"#utility.yul\":1839:1872   */\n      tag_149\n      jump\t// in\n    tag_216:\n        /* \"#utility.yul\":1739:1878   */\n      swap3\n      swap2\n      pop\n      pop\n      jump\t// out\n        /* \"#utility.yul\":1884:2358   */\n    tag_25:\n        /* \"#utility.yul\":1952:1958   */\n      0x00\n        /* \"#utility.yul\":1960:1966   */\n      0x00\n        /* \"#utility.yul\":2009:2011   */\n      0x40\n        /* \"#utility.yul\":1997:2006   */\n      dup4\n        /* \"#utility.yul\":1988:1995   */\n      dup6\n        /* \"#utility.yul\":1984:2007   */\n      sub\n        /* \"#utility.yul\":1980:2012   */\n      slt\n        /* \"#utility.yul\":1977:2096   */\n      iszero\n      tag_218\n      jumpi\n        /* \"#utility.yul\":2015:2094   */\n      tag_219\n      tag_141\n      jump\t// in\n    tag_219:\n        /* \"#utility.yul\":1977:2096   */\n    tag_218:\n        /* \"#utility.yul\":2135:2136   */\n      0x00\n        /* \"#utility.yul\":2160:2213   */\n      tag_220\n        /* \"#utility.yul\":2205:2212   */\n      dup6\n        /* \"#utility.yul\":2196:2202   */\n      dup3\n        /* \"#utility.yul\":2185:2194   */\n      dup7\n        /* \"#utility.yul\":2181:2203   */\n      add\n        /* \"#utility.yul\":2160:2213   */\n      tag_150\n      jump\t// in\n    tag_220:\n        /* \"#utility.yul\":2150:2213   */\n      swap3\n      pop\n        /* \"#utility.yul\":2106:2223   */\n      pop\n        /* \"#utility.yul\":2262:2264   */\n      0x20\n        /* \"#utility.yul\":2288:2341   */\n      tag_221\n        /* \"#utility.yul\":2333:2340   */\n      dup6\n        /* \"#utility.yul\":2324:2330   */\n      dup3\n        /* \"#utility.yul\":2313:2322   */\n      dup7\n        /* \"#utility.yul\":2309:2331   */\n      add\n        /* \"#utility.yul\":2288:2341   */\n      tag_150\n      jump\t// in\n    tag_221:\n        /* \"#utility.yul\":2278:2341   */\n      swap2\n      pop\n        /* \"#utility.yul\":2233:2351   */\n      pop\n        /* \"#utility.yul\":1884:2358   */\n      swap3\n      pop\n      swap3\n      swap1\n      pop\n      jump\t// out\n        /* \"#utility.yul\":2364:2482   */\n    tag_151:\n        /* \"#utility.yul\":2451:2475   */\n      tag_223\n        /* \"#utility.yul\":2469:2474   */\n      dup2\n        /* \"#utility.yul\":2451:2475   */\n      tag_148\n      jump\t// in\n    tag_223:\n        /* \"#utility.yul\":2446:2449   */\n      dup3\n        /* \"#utility.yul\":2439:2476   */\n      mstore\n        /* \"#utility.yul\":2364:2482   */\n      pop\n      pop\n      jump\t// out\n        /* \"#utility.yul\":2488:2710   */\n    tag_28:\n        /* \"#utility.yul\":2581:2585   */\n      0x00\n        /* \"#utility.yul\":2619:2621   */\n      0x20\n        /* \"#utility.yul\":2608:2617   */\n      dup3\n        /* \"#utility.yul\":2604:2622   */\n      add\n        /* \"#utility.yul\":2596:2622   */\n      swap1\n      pop\n        /* \"#utility.yul\":2632:2703   */\n      tag_225\n        /* \"#utility.yul\":2700:2701   */\n      0x00\n        /* \"#utility.yul\":2689:2698   */\n      dup4\n        /* \"#utility.yul\":2685:2702   */\n      add\n        /* \"#utility.yul\":2676:2682   */\n      dup5\n        /* \"#utility.yul\":2632:2703   */\n      tag_151\n      jump\t// in\n    tag_225:\n        /* \"#utility.yul\":2488:2710   */\n      swap3\n      swap2\n      pop\n      pop\n      jump\t// out\n        /* \"#utility.yul\":2716:2806   */\n    tag_152:\n        /* \"#utility.yul\":2750:2757   */\n      0x00\n        /* \"#utility.yul\":2793:2798   */\n      dup2\n        /* \"#utility.yul\":2786:2799   */\n      iszero\n        /* \"#utility.yul\":2779:2800   */\n      iszero\n        /* \"#utility.yul\":2768:2800   */\n      swap1\n      pop\n        /* \"#utility.yul\":2716:2806   */\n      swap2\n      swap1\n      pop\n      jump\t// out\n        /* \"#utility.yul\":2812:2921   */\n    tag_153:\n        /* \"#utility.yul\":2893:2914   */\n      tag_228\n        /* \"#utility.yul\":2908:2913   */\n      dup2\n        /* \"#utility.yul\":2893:2914   */\n      tag_152\n      jump\t// in\n    tag_228:\n        /* \"#utility.yul\":2888:2891   */\n      dup3\n        /* \"#utility.yul\":2881:2915   */\n      mstore\n        /* \"#utility.yul\":2812:2921   */\n      pop\n      pop\n      jump\t// out\n        /* \"#utility.yul\":2927:3137   */\n    tag_35:\n        /* \"#utility.yul\":3014:3018   */\n      0x00\n        /* \"#utility.yul\":3052:3054   */\n      0x20\n        /* \"#utility.yul\":3041:3050   */\n      dup3\n        /* \"#utility.yul\":3037:3055   */\n      add\n        /* \"#utility.yul\":3029:3055   */\n      swap1\n      pop\n        /* \"#utility.yul\":3065:3130   */\n      tag_230\n        /* \"#utility.yul\":3127:3128   */\n      0x00\n        /* \"#utility.yul\":3116:3125   */\n      dup4\n        /* \"#utility.yul\":3112:3129   */\n      add\n        /* \"#utility.yul\":3103:3109   */\n      dup5\n        /* \"#utility.yul\":3065:3130   */\n      tag_153\n      jump\t// in\n    tag_230:\n        /* \"#utility.yul\":2927:3137   */\n      swap3\n      swap2\n      pop\n      pop\n      jump\t// out\n        /* \"#utility.yul\":3143:3260   */\n    tag_154:\n        /* \"#utility.yul\":3252:3253   */\n      0x00\n        /* \"#utility.yul\":3249:3250   */\n      0x00\n        /* \"#utility.yul\":3242:3254   */\n      revert\n        /* \"#utility.yul\":3266:3383   */\n    tag_155:\n        /* \"#utility.yul\":3375:3376   */\n      0x00\n        /* \"#utility.yul\":3372:3373   */\n      0x00\n        /* \"#utility.yul\":3365:3377   */\n      revert\n        /* \"#utility.yul\":3389:3491   */\n    tag_156:\n        /* \"#utility.yul\":3430:3436   */\n      0x00\n        /* \"#utility.yul\":3481:3483   */\n      0x1f\n        /* \"#utility.yul\":3477:3484   */\n      not\n        /* \"#utility.yul\":3472:3474   */\n      0x1f\n        /* \"#utility.yul\":3465:3470   */\n      dup4\n        /* \"#utility.yul\":3461:3475   */\n      add\n        /* \"#utility.yul\":3457:3485   */\n      and\n        /* \"#utility.yul\":3447:3485   */\n      swap1\n      pop\n        /* \"#utility.yul\":3389:3491   */\n      swap2\n      swap1\n      pop\n      jump\t// out\n        /* \"#utility.yul\":3497:3677   */\n    tag_157:\n        /* \"#utility.yul\":3545:3622   */\n      0x4e487b7100000000000000000000000000000000000000000000000000000000\n        /* \"#utility.yul\":3542:3543   */\n      0x00\n        /* \"#utility.yul\":3535:3623   */\n      mstore\n        /* \"#utility.yul\":3642:3646   */\n      0x41\n        /* \"#utility.yul\":3639:3640   */\n      0x04\n        /* \"#utility.yul\":3632:3647   */\n      mstore\n        /* \"#utility.yul\":3666:3670   */\n      0x24\n        /* \"#utility.yul\":3663:3664   */\n      0x00\n        /* \"#utility.yul\":3656:3671   */\n      revert\n        /* \"#utility.yul\":3683:3964   */\n    tag_158:\n        /* \"#utility.yul\":3766:3793   */\n      tag_236\n        /* \"#utility.yul\":3788:3792   */\n      dup3\n        /* \"#utility.yul\":3766:3793   */\n      tag_156\n      jump\t// in\n    tag_236:\n        /* \"#utility.yul\":3758:3764   */\n      dup2\n        /* \"#utility.yul\":3754:3794   */\n      add\n        /* \"#utility.yul\":3896:3902   */\n      dup2\n        /* \"#utility.yul\":3884:3894   */\n      dup2\n        /* \"#utility.yul\":3881:3903   */\n      lt\n        /* \"#utility.yul\":3860:3878   */\n      0xffffffffffffffff\n        /* \"#utility.yul\":3848:3858   */\n      dup3\n        /* \"#utility.yul\":3845:3879   */\n      gt\n        /* \"#utility.yul\":3842:3904   */\n      or\n        /* \"#utility.yul\":3839:3927   */\n      iszero\n      tag_237\n      jumpi\n        /* \"#utility.yul\":3907:3925   */\n      tag_238\n      tag_157\n      jump\t// in\n    tag_238:\n        /* \"#utility.yul\":3839:3927   */\n    tag_237:\n        /* \"#utility.yul\":3947:3957   */\n      dup1\n        /* \"#utility.yul\":3943:3945   */\n      0x40\n        /* \"#utility.yul\":3936:3958   */\n      mstore\n        /* \"#utility.yul\":3726:3964   */\n      pop\n        /* \"#utility.yul\":3683:3964   */\n      pop\n      pop\n      jump\t// out\n        /* \"#utility.yul\":3970:4099   */\n    tag_159:\n        /* \"#utility.yul\":4004:4010   */\n      0x00\n        /* \"#utility.yul\":4031:4051   */\n      tag_240\n      tag_140\n      jump\t// in\n    tag_240:\n        /* \"#utility.yul\":4021:4051   */\n      swap1\n      pop\n        /* \"#utility.yul\":4060:4093   */\n      tag_241\n        /* \"#utility.yul\":4088:4092   */\n      dup3\n        /* \"#utility.yul\":4080:4086   */\n      dup3\n        /* \"#utility.yul\":4060:4093   */\n      tag_158\n      jump\t// in\n    tag_241:\n        /* \"#utility.yul\":3970:4099   */\n      swap2\n      swap1\n      pop\n      jump\t// out\n        /* \"#utility.yul\":4105:4412   */\n    tag_160:\n        /* \"#utility.yul\":4166:4170   */\n      0x00\n        /* \"#utility.yul\":4256:4274   */\n      0xffffffffffffffff\n        /* \"#utility.yul\":4248:4254   */\n      dup3\n        /* \"#utility.yul\":4245:4275   */\n      gt\n        /* \"#utility.yul\":4242:4298   */\n      iszero\n      tag_243\n      jumpi\n        /* \"#utility.yul\":4278:4296   */\n      tag_244\n      tag_157\n      jump\t// in\n    tag_244:\n        /* \"#utility.yul\":4242:4298   */\n    tag_243:\n        /* \"#utility.yul\":4316:4345   */\n      tag_245\n        /* \"#utility.yul\":4338:4344   */\n      dup3\n        /* \"#utility.yul\":4316:4345   */\n      tag_156\n      jump\t// in\n    tag_245:\n        /* \"#utility.yul\":4308:4345   */\n      swap1\n      pop\n        /* \"#utility.yul\":4400:4404   */\n      0x20\n        /* \"#utility.yul\":4394:4398   */\n      dup2\n        /* \"#utility.yul\":4390:4405   */\n      add\n        /* \"#utility.yul\":4382:4405   */\n      swap1\n      pop\n        /* \"#utility.yul\":4105:4412   */\n      swap2\n      swap1\n      pop\n      jump\t// out\n        /* \"#utility.yul\":4418:4566   */\n    tag_161:\n        /* \"#utility.yul\":4516:4522   */\n      dup3\n        /* \"#utility.yul\":4511:4514   */\n      dup2\n        /* \"#utility.yul\":4506:4509   */\n      dup4\n        /* \"#utility.yul\":4493:4523   */\n      calldatacopy\n        /* \"#utility.yul\":4557:4558   */\n      0x00\n        /* \"#utility.yul\":4548:4554   */\n      dup4\n        /* \"#utility.yul\":4543:4546   */\n      dup4\n        /* \"#utility.yul\":4539:4555   */\n      add\n        /* \"#utility.yul\":4532:4559   */\n      mstore\n        /* \"#utility.yul\":4418:4566   */\n      pop\n      pop\n      pop\n      jump\t// out\n        /* \"#utility.yul\":4572:4995   */\n    tag_162:\n        /* \"#utility.yul\":4649:4654   */\n      0x00\n        /* \"#utility.yul\":4674:4739   */\n      tag_248\n        /* \"#utility.yul\":4690:4738   */\n      tag_249\n        /* \"#utility.yul\":4731:4737   */\n      dup5\n        /* \"#utility.yul\":4690:4738   */\n      tag_160\n      jump\t// in\n    tag_249:\n        /* \"#utility.yul\":4674:4739   */\n      tag_159\n      jump\t// in\n    tag_248:\n        /* \"#utility.yul\":4665:4739   */\n      swap1\n      pop\n        /* \"#utility.yul\":4762:4768   */\n      dup3\n        /* \"#utility.yul\":4755:4760   */\n      dup2\n        /* \"#utility.yul\":4748:4769   */\n      mstore\n        /* \"#utility.yul\":4800:4804   */\n      0x20\n        /* \"#utility.yul\":4793:4798   */\n      dup2\n        /* \"#utility.yul\":4789:4805   */\n      add\n        /* \"#utility.yul\":4838:4841   */\n      dup5\n        /* \"#utility.yul\":4829:4835   */\n      dup5\n        /* \"#utility.yul\":4824:4827   */\n      dup5\n        /* \"#utility.yul\":4820:4836   */\n      add\n        /* \"#utility.yul\":4817:4842   */\n      gt\n        /* \"#utility.yul\":4814:4926   */\n      iszero\n      tag_250\n      jumpi\n        /* \"#utility.yul\":4845:4924   */\n      tag_251\n      tag_155\n      jump\t// in\n    tag_251:\n        /* \"#utility.yul\":4814:4926   */\n    tag_250:\n        /* \"#utility.yul\":4935:4989   */\n      tag_252\n        /* \"#utility.yul\":4982:4988   */\n      dup5\n        /* \"#utility.yul\":4977:4980   */\n      dup3\n        /* \"#utility.yul\":4972:4975   */\n      dup6\n        /* \"#utility.yul\":4935:4989   */\n      tag_161\n      jump\t// in\n    tag_252:\n        /* \"#utility.yul\":4655:4995   */\n      pop\n        /* \"#utility.yul\":4572:4995   */\n      swap4\n      swap3\n      pop\n      pop\n      pop\n      jump\t// out\n        /* \"#utility.yul\":5014:5352   */\n    tag_163:\n        /* \"#utility.yul\":5069:5074   */\n      0x00\n        /* \"#utility.yul\":5118:5121   */\n      dup3\n        /* \"#utility.yul\":5111:5115   */\n      0x1f\n        /* \"#utility.yul\":5103:5109   */\n      dup4\n        /* \"#utility.yul\":5099:5116   */\n      add\n        /* \"#utility.yul\":5095:5122   */\n      slt\n        /* \"#utility.yul\":5085:5207   */\n      tag_254\n      jumpi\n        /* \"#utility.yul\":5126:5205   */\n      tag_255\n      tag_154\n      jump\t// in\n    tag_255:\n        /* \"#utility.yul\":5085:5207   */\n    tag_254:\n        /* \"#utility.yul\":5243:5249   */\n      dup2\n        /* \"#utility.yul\":5230:5250   */\n      calldataload\n        /* \"#utility.yul\":5268:5346   */\n      tag_256\n        /* \"#utility.yul\":5342:5345   */\n      dup5\n        /* \"#utility.yul\":5334:5340   */\n      dup3\n        /* \"#utility.yul\":5327:5331   */\n      0x20\n        /* \"#utility.yul\":5319:5325   */\n      dup7\n        /* \"#utility.yul\":5315:5332   */\n      add\n        /* \"#utility.yul\":5268:5346   */\n      tag_162\n      jump\t// in\n    tag_256:\n        /* \"#utility.yul\":5259:5346   */\n      swap2\n      pop\n        /* \"#utility.yul\":5075:5352   */\n      pop\n        /* \"#utility.yul\":5014:5352   */\n      swap3\n      swap2\n      pop\n      pop\n      jump\t// out\n        /* \"#utility.yul\":5358:6155   */\n    tag_40:\n        /* \"#utility.yul\":5444:5450   */\n      0x00\n        /* \"#utility.yul\":5452:5458   */\n      0x00\n        /* \"#utility.yul\":5460:5466   */\n      0x00\n        /* \"#utility.yul\":5509:5511   */\n      0x60\n        /* \"#utility.yul\":5497:5506   */\n      dup5\n        /* \"#utility.yul\":5488:5495   */\n      dup7\n        /* \"#utility.yul\":5484:5507   */\n      sub\n        /* \"#utility.yul\":5480:5512   */\n      slt\n        /* \"#utility.yul\":5477:5596   */\n      iszero\n      tag_258\n      jumpi\n        /* \"#utility.yul\":5515:5594   */\n      tag_259\n      tag_141\n      jump\t// in\n    tag_259:\n        /* \"#utility.yul\":5477:5596   */\n    tag_258:\n        /* \"#utility.yul\":5663:5664   */\n      0x00\n        /* \"#utility.yul\":5652:5661   */\n      dup5\n        /* \"#utility.yul\":5648:5665   */\n      add\n        /* \"#utility.yul\":5635:5666   */\n      calldataload\n        /* \"#utility.yul\":5693:5711   */\n      0xffffffffffffffff\n        /* \"#utility.yul\":5685:5691   */\n      dup2\n        /* \"#utility.yul\":5682:5712   */\n      gt\n        /* \"#utility.yul\":5679:5796   */\n      iszero\n      tag_260\n      jumpi\n        /* \"#utility.yul\":5715:5794   */\n      tag_261\n      tag_142\n      jump\t// in\n    tag_261:\n        /* \"#utility.yul\":5679:5796   */\n    tag_260:\n        /* \"#utility.yul\":5820:5882   */\n      tag_262\n        /* \"#utility.yul\":5874:5881   */\n      dup7\n        /* \"#utility.yul\":5865:5871   */\n      dup3\n        /* \"#utility.yul\":5854:5863   */\n      dup8\n        /* \"#utility.yul\":5850:5872   */\n      add\n        /* \"#utility.yul\":5820:5882   */\n      tag_163\n      jump\t// in\n    tag_262:\n        /* \"#utility.yul\":5810:5882   */\n      swap4\n      pop\n        /* \"#utility.yul\":5606:5892   */\n      pop\n        /* \"#utility.yul\":5931:5933   */\n      0x20\n        /* \"#utility.yul\":5957:6010   */\n      tag_263\n        /* \"#utility.yul\":6002:6009   */\n      dup7\n        /* \"#utility.yul\":5993:5999   */\n      dup3\n        /* \"#utility.yul\":5982:5991   */\n      dup8\n        /* \"#utility.yul\":5978:6000   */\n      add\n        /* \"#utility.yul\":5957:6010   */\n      tag_150\n      jump\t// in\n    tag_263:\n        /* \"#utility.yul\":5947:6010   */\n      swap3\n      pop\n        /* \"#utility.yul\":5902:6020   */\n      pop\n        /* \"#utility.yul\":6059:6061   */\n      0x40\n        /* \"#utility.yul\":6085:6138   */\n      tag_264\n        /* \"#utility.yul\":6130:6137   */\n      dup7\n        /* \"#utility.yul\":6121:6127   */\n      dup3\n        /* \"#utility.yul\":6110:6119   */\n      dup8\n        /* \"#utility.yul\":6106:6128   */\n      add\n        /* \"#utility.yul\":6085:6138   */\n      tag_150\n      jump\t// in\n    tag_264:\n        /* \"#utility.yul\":6075:6138   */\n      swap2\n      pop\n        /* \"#utility.yul\":6030:6148   */\n      pop\n        /* \"#utility.yul\":5358:6155   */\n      swap3\n      pop\n      swap3\n      pop\n      swap3\n      jump\t// out\n        /* \"#utility.yul\":6161:6247   */\n    tag_164:\n        /* \"#utility.yul\":6196:6203   */\n      0x00\n        /* \"#utility.yul\":6236:6240   */\n      0xff\n        /* \"#utility.yul\":6229:6234   */\n      dup3\n        /* \"#utility.yul\":6225:6241   */\n      and\n        /* \"#utility.yul\":6214:6241   */\n      swap1\n      pop\n        /* \"#utility.yul\":6161:6247   */\n      swap2\n      swap1\n      pop\n      jump\t// out\n        /* \"#utility.yul\":6253:6365   */\n    tag_165:\n        /* \"#utility.yul\":6336:6358   */\n      tag_267\n        /* \"#utility.yul\":6352:6357   */\n      dup2\n        /* \"#utility.yul\":6336:6358   */\n      tag_164\n      jump\t// in\n    tag_267:\n        /* \"#utility.yul\":6331:6334   */\n      dup3\n        /* \"#utility.yul\":6324:6359   */\n      mstore\n        /* \"#utility.yul\":6253:6365   */\n      pop\n      pop\n      jump\t// out\n        /* \"#utility.yul\":6371:6585   */\n    tag_45:\n        /* \"#utility.yul\":6460:6464   */\n      0x00\n        /* \"#utility.yul\":6498:6500   */\n      0x20\n        /* \"#utility.yul\":6487:6496   */\n      dup3\n        /* \"#utility.yul\":6483:6501   */\n      add\n        /* \"#utility.yul\":6475:6501   */\n      swap1\n      pop\n        /* \"#utility.yul\":6511:6578   */\n      tag_269\n        /* \"#utility.yul\":6575:6576   */\n      0x00\n        /* \"#utility.yul\":6564:6573   */\n      dup4\n        /* \"#utility.yul\":6560:6577   */\n      add\n        /* \"#utility.yul\":6551:6557   */\n      dup5\n        /* \"#utility.yul\":6511:6578   */\n      tag_165\n      jump\t// in\n    tag_269:\n        /* \"#utility.yul\":6371:6585   */\n      swap3\n      swap2\n      pop\n      pop\n      jump\t// out\n        /* \"#utility.yul\":6591:6760   */\n    tag_166:\n        /* \"#utility.yul\":6675:6686   */\n      0x00\n        /* \"#utility.yul\":6709:6715   */\n      dup3\n        /* \"#utility.yul\":6704:6707   */\n      dup3\n        /* \"#utility.yul\":6697:6716   */\n      mstore\n        /* \"#utility.yul\":6749:6753   */\n      0x20\n        /* \"#utility.yul\":6744:6747   */\n      dup3\n        /* \"#utility.yul\":6740:6754   */\n      add\n        /* \"#utility.yul\":6725:6754   */\n      swap1\n      pop\n        /* \"#utility.yul\":6591:6760   */\n      swap3\n      swap2\n      pop\n      pop\n      jump\t// out\n        /* \"#utility.yul\":6766:6943   */\n    tag_167:\n        /* \"#utility.yul\":6906:6935   */\n      0x4f6e6c792074686520636f6e74726f6c6c65722063616e207573650000000000\n        /* \"#utility.yul\":6902:6903   */\n      0x00\n        /* \"#utility.yul\":6894:6900   */\n      dup3\n        /* \"#utility.yul\":6890:6904   */\n      add\n        /* \"#utility.yul\":6883:6936   */\n      mstore\n        /* \"#utility.yul\":6766:6943   */\n      pop\n      jump\t// out\n        /* \"#utility.yul\":6949:7315   */\n    tag_168:\n        /* \"#utility.yul\":7091:7094   */\n      0x00\n        /* \"#utility.yul\":7112:7179   */\n      tag_273\n        /* \"#utility.yul\":7176:7178   */\n      0x1b\n        /* \"#utility.yul\":7171:7174   */\n      dup4\n        /* \"#utility.yul\":7112:7179   */\n      tag_166\n      jump\t// in\n    tag_273:\n        /* \"#utility.yul\":7105:7179   */\n      swap2\n      pop\n        /* \"#utility.yul\":7188:7281   */\n      tag_274\n        /* \"#utility.yul\":7277:7280   */\n      dup3\n        /* \"#utility.yul\":7188:7281   */\n      tag_167\n      jump\t// in\n    tag_274:\n        /* \"#utility.yul\":7306:7308   */\n      0x20\n        /* \"#utility.yul\":7301:7304   */\n      dup3\n        /* \"#utility.yul\":7297:7309   */\n      add\n        /* \"#utility.yul\":7290:7309   */\n      swap1\n      pop\n        /* \"#utility.yul\":6949:7315   */\n      swap2\n      swap1\n      pop\n      jump\t// out\n        /* \"#utility.yul\":7321:7740   */\n    tag_49:\n        /* \"#utility.yul\":7487:7491   */\n      0x00\n        /* \"#utility.yul\":7525:7527   */\n      0x20\n        /* \"#utility.yul\":7514:7523   */\n      dup3\n        /* \"#utility.yul\":7510:7528   */\n      add\n        /* \"#utility.yul\":7502:7528   */\n      swap1\n      pop\n        /* \"#utility.yul\":7574:7583   */\n      dup2\n        /* \"#utility.yul\":7568:7572   */\n      dup2\n        /* \"#utility.yul\":7564:7584   */\n      sub\n        /* \"#utility.yul\":7560:7561   */\n      0x00\n        /* \"#utility.yul\":7549:7558   */\n      dup4\n        /* \"#utility.yul\":7545:7562   */\n      add\n        /* \"#utility.yul\":7538:7585   */\n      mstore\n        /* \"#utility.yul\":7602:7733   */\n      tag_276\n        /* \"#utility.yul\":7728:7732   */\n      dup2\n        /* \"#utility.yul\":7602:7733   */\n      tag_168\n      jump\t// in\n    tag_276:\n        /* \"#utility.yul\":7594:7733   */\n      swap1\n      pop\n        /* \"#utility.yul\":7321:7740   */\n      swap2\n      swap1\n      pop\n      jump\t// out\n        /* \"#utility.yul\":7746:7919   */\n    tag_169:\n        /* \"#utility.yul\":7886:7911   */\n      0x506c65617365207365742061206e6577206f776e65722e000000000000000000\n        /* \"#utility.yul\":7882:7883   */\n      0x00\n        /* \"#utility.yul\":7874:7880   */\n      dup3\n        /* \"#utility.yul\":7870:7884   */\n      add\n        /* \"#utility.yul\":7863:7912   */\n      mstore\n        /* \"#utility.yul\":7746:7919   */\n      pop\n      jump\t// out\n        /* \"#utility.yul\":7925:8291   */\n    tag_170:\n        /* \"#utility.yul\":8067:8070   */\n      0x00\n        /* \"#utility.yul\":8088:8155   */\n      tag_279\n        /* \"#utility.yul\":8152:8154   */\n      0x17\n        /* \"#utility.yul\":8147:8150   */\n      dup4\n        /* \"#utility.yul\":8088:8155   */\n      tag_166\n      jump\t// in\n    tag_279:\n        /* \"#utility.yul\":8081:8155   */\n      swap2\n      pop\n        /* \"#utility.yul\":8164:8257   */\n      tag_280\n        /* \"#utility.yul\":8253:8256   */\n      dup3\n        /* \"#utility.yul\":8164:8257   */\n      tag_169\n      jump\t// in\n    tag_280:\n        /* \"#utility.yul\":8282:8284   */\n      0x20\n        /* \"#utility.yul\":8277:8280   */\n      dup3\n        /* \"#utility.yul\":8273:8285   */\n      add\n        /* \"#utility.yul\":8266:8285   */\n      swap1\n      pop\n        /* \"#utility.yul\":7925:8291   */\n      swap2\n      swap1\n      pop\n      jump\t// out\n        /* \"#utility.yul\":8297:8716   */\n    tag_53:\n        /* \"#utility.yul\":8463:8467   */\n      0x00\n        /* \"#utility.yul\":8501:8503   */\n      0x20\n        /* \"#utility.yul\":8490:8499   */\n      dup3\n        /* \"#utility.yul\":8486:8504   */\n      add\n        /* \"#utility.yul\":8478:8504   */\n      swap1\n      pop\n        /* \"#utility.yul\":8550:8559   */\n      dup2\n        /* \"#utility.yul\":8544:8548   */\n      dup2\n        /* \"#utility.yul\":8540:8560   */\n      sub\n        /* \"#utility.yul\":8536:8537   */\n      0x00\n        /* \"#utility.yul\":8525:8534   */\n      dup4\n        /* \"#utility.yul\":8521:8538   */\n      add\n        /* \"#utility.yul\":8514:8561   */\n      mstore\n        /* \"#utility.yul\":8578:8709   */\n      tag_282\n        /* \"#utility.yul\":8704:8708   */\n      dup2\n        /* \"#utility.yul\":8578:8709   */\n      tag_170\n      jump\t// in\n    tag_282:\n        /* \"#utility.yul\":8570:8709   */\n      swap1\n      pop\n        /* \"#utility.yul\":8297:8716   */\n      swap2\n      swap1\n      pop\n      jump\t// out\n        /* \"#utility.yul\":8722:8894   */\n    tag_171:\n        /* \"#utility.yul\":8862:8886   */\n      0x4f6e6c7920746865206f776e65722063616e2075736500000000000000000000\n        /* \"#utility.yul\":8858:8859   */\n      0x00\n        /* \"#utility.yul\":8850:8856   */\n      dup3\n        /* \"#utility.yul\":8846:8860   */\n      add\n        /* \"#utility.yul\":8839:8887   */\n      mstore\n        /* \"#utility.yul\":8722:8894   */\n      pop\n      jump\t// out\n        /* \"#utility.yul\":8900:9266   */\n    tag_172:\n        /* \"#utility.yul\":9042:9045   */\n      0x00\n        /* \"#utility.yul\":9063:9130   */\n      tag_285\n        /* \"#utility.yul\":9127:9129   */\n      0x16\n        /* \"#utility.yul\":9122:9125   */\n      dup4\n        /* \"#utility.yul\":9063:9130   */\n      tag_166\n      jump\t// in\n    tag_285:\n        /* \"#utility.yul\":9056:9130   */\n      swap2\n      pop\n        /* \"#utility.yul\":9139:9232   */\n      tag_286\n        /* \"#utility.yul\":9228:9231   */\n      dup3\n        /* \"#utility.yul\":9139:9232   */\n      tag_171\n      jump\t// in\n    tag_286:\n        /* \"#utility.yul\":9257:9259   */\n      0x20\n        /* \"#utility.yul\":9252:9255   */\n      dup3\n        /* \"#utility.yul\":9248:9260   */\n      add\n        /* \"#utility.yul\":9241:9260   */\n      swap1\n      pop\n        /* \"#utility.yul\":8900:9266   */\n      swap2\n      swap1\n      pop\n      jump\t// out\n        /* \"#utility.yul\":9272:9691   */\n    tag_57:\n        /* \"#utility.yul\":9438:9442   */\n      0x00\n        /* \"#utility.yul\":9476:9478   */\n      0x20\n        /* \"#utility.yul\":9465:9474   */\n      dup3\n        /* \"#utility.yul\":9461:9479   */\n      add\n        /* \"#utility.yul\":9453:9479   */\n      swap1\n      pop\n        /* \"#utility.yul\":9525:9534   */\n      dup2\n        /* \"#utility.yul\":9519:9523   */\n      dup2\n        /* \"#utility.yul\":9515:9535   */\n      sub\n        /* \"#utility.yul\":9511:9512   */\n      0x00\n        /* \"#utility.yul\":9500:9509   */\n      dup4\n        /* \"#utility.yul\":9496:9513   */\n      add\n        /* \"#utility.yul\":9489:9536   */\n      mstore\n        /* \"#utility.yul\":9553:9684   */\n      tag_288\n        /* \"#utility.yul\":9679:9683   */\n      dup2\n        /* \"#utility.yul\":9553:9684   */\n      tag_172\n      jump\t// in\n    tag_288:\n        /* \"#utility.yul\":9545:9684   */\n      swap1\n      pop\n        /* \"#utility.yul\":9272:9691   */\n      swap2\n      swap1\n      pop\n      jump\t// out\n        /* \"#utility.yul\":9697:9877   */\n    tag_173:\n        /* \"#utility.yul\":9745:9822   */\n      0x4e487b7100000000000000000000000000000000000000000000000000000000\n        /* \"#utility.yul\":9742:9743   */\n      0x00\n        /* \"#utility.yul\":9735:9823   */\n      mstore\n        /* \"#utility.yul\":9842:9846   */\n      0x11\n        /* \"#utility.yul\":9839:9840   */\n      0x04\n        /* \"#utility.yul\":9832:9847   */\n      mstore\n        /* \"#utility.yul\":9866:9870   */\n      0x24\n        /* \"#utility.yul\":9863:9864   */\n      0x00\n        /* \"#utility.yul\":9856:9871   */\n      revert\n        /* \"#utility.yul\":9883:10293   */\n    tag_63:\n        /* \"#utility.yul\":9923:9930   */\n      0x00\n        /* \"#utility.yul\":9946:9966   */\n      tag_291\n        /* \"#utility.yul\":9964:9965   */\n      dup3\n        /* \"#utility.yul\":9946:9966   */\n      tag_148\n      jump\t// in\n    tag_291:\n        /* \"#utility.yul\":9941:9966   */\n      swap2\n      pop\n        /* \"#utility.yul\":9980:10000   */\n      tag_292\n        /* \"#utility.yul\":9998:9999   */\n      dup4\n        /* \"#utility.yul\":9980:10000   */\n      tag_148\n      jump\t// in\n    tag_292:\n        /* \"#utility.yul\":9975:10000   */\n      swap3\n      pop\n        /* \"#utility.yul\":10035:10036   */\n      dup3\n        /* \"#utility.yul\":10032:10033   */\n      dup3\n        /* \"#utility.yul\":10028:10037   */\n      mul\n        /* \"#utility.yul\":10057:10087   */\n      tag_293\n        /* \"#utility.yul\":10075:10086   */\n      dup2\n        /* \"#utility.yul\":10057:10087   */\n      tag_148\n      jump\t// in\n    tag_293:\n        /* \"#utility.yul\":10046:10087   */\n      swap2\n      pop\n        /* \"#utility.yul\":10236:10237   */\n      dup3\n        /* \"#utility.yul\":10227:10234   */\n      dup3\n        /* \"#utility.yul\":10223:10238   */\n      div\n        /* \"#utility.yul\":10220:10221   */\n      dup5\n        /* \"#utility.yul\":10217:10239   */\n      eq\n        /* \"#utility.yul\":10197:10198   */\n      dup4\n        /* \"#utility.yul\":10190:10199   */\n      iszero\n        /* \"#utility.yul\":10170:10253   */\n      or\n        /* \"#utility.yul\":10147:10286   */\n      tag_294\n      jumpi\n        /* \"#utility.yul\":10266:10284   */\n      tag_295\n      tag_173\n      jump\t// in\n    tag_295:\n        /* \"#utility.yul\":10147:10286   */\n    tag_294:\n        /* \"#utility.yul\":9931:10293   */\n      pop\n        /* \"#utility.yul\":9883:10293   */\n      swap3\n      swap2\n      pop\n      pop\n      jump\t// out\n        /* \"#utility.yul\":10299:10520   */\n    tag_174:\n        /* \"#utility.yul\":10439:10473   */\n      0x496e76616c696420646179732c206d7573742062652033302c203630206f7220\n        /* \"#utility.yul\":10435:10436   */\n      0x00\n        /* \"#utility.yul\":10427:10433   */\n      dup3\n        /* \"#utility.yul\":10423:10437   */\n      add\n        /* \"#utility.yul\":10416:10474   */\n      mstore\n        /* \"#utility.yul\":10508:10512   */\n      0x3930000000000000000000000000000000000000000000000000000000000000\n        /* \"#utility.yul\":10503:10505   */\n      0x20\n        /* \"#utility.yul\":10495:10501   */\n      dup3\n        /* \"#utility.yul\":10491:10506   */\n      add\n        /* \"#utility.yul\":10484:10513   */\n      mstore\n        /* \"#utility.yul\":10299:10520   */\n      pop\n      jump\t// out\n        /* \"#utility.yul\":10526:10892   */\n    tag_175:\n        /* \"#utility.yul\":10668:10671   */\n      0x00\n        /* \"#utility.yul\":10689:10756   */\n      tag_298\n        /* \"#utility.yul\":10753:10755   */\n      0x22\n        /* \"#utility.yul\":10748:10751   */\n      dup4\n        /* \"#utility.yul\":10689:10756   */\n      tag_166\n      jump\t// in\n    tag_298:\n        /* \"#utility.yul\":10682:10756   */\n      swap2\n      pop\n        /* \"#utility.yul\":10765:10858   */\n      tag_299\n        /* \"#utility.yul\":10854:10857   */\n      dup3\n        /* \"#utility.yul\":10765:10858   */\n      tag_174\n      jump\t// in\n    tag_299:\n        /* \"#utility.yul\":10883:10885   */\n      0x40\n        /* \"#utility.yul\":10878:10881   */\n      dup3\n        /* \"#utility.yul\":10874:10886   */\n      add\n        /* \"#utility.yul\":10867:10886   */\n      swap1\n      pop\n        /* \"#utility.yul\":10526:10892   */\n      swap2\n      swap1\n      pop\n      jump\t// out\n        /* \"#utility.yul\":10898:11317   */\n    tag_82:\n        /* \"#utility.yul\":11064:11068   */\n      0x00\n        /* \"#utility.yul\":11102:11104   */\n      0x20\n        /* \"#utility.yul\":11091:11100   */\n      dup3\n        /* \"#utility.yul\":11087:11105   */\n      add\n        /* \"#utility.yul\":11079:11105   */\n      swap1\n      pop\n        /* \"#utility.yul\":11151:11160   */\n      dup2\n        /* \"#utility.yul\":11145:11149   */\n      dup2\n        /* \"#utility.yul\":11141:11161   */\n      sub\n        /* \"#utility.yul\":11137:11138   */\n      0x00\n        /* \"#utility.yul\":11126:11135   */\n      dup4\n        /* \"#utility.yul\":11122:11139   */\n      add\n        /* \"#utility.yul\":11115:11162   */\n      mstore\n        /* \"#utility.yul\":11179:11310   */\n      tag_301\n        /* \"#utility.yul\":11305:11309   */\n      dup2\n        /* \"#utility.yul\":11179:11310   */\n      tag_175\n      jump\t// in\n    tag_301:\n        /* \"#utility.yul\":11171:11310   */\n      swap1\n      pop\n        /* \"#utility.yul\":10898:11317   */\n      swap2\n      swap1\n      pop\n      jump\t// out\n        /* \"#utility.yul\":11323:11501   */\n    tag_176:\n        /* \"#utility.yul\":11463:11493   */\n      0x506c65617365207365742061206e657720636f6e74726f6c6c65722e00000000\n        /* \"#utility.yul\":11459:11460   */\n      0x00\n        /* \"#utility.yul\":11451:11457   */\n      dup3\n        /* \"#utility.yul\":11447:11461   */\n      add\n        /* \"#utility.yul\":11440:11494   */\n      mstore\n        /* \"#utility.yul\":11323:11501   */\n      pop\n      jump\t// out\n        /* \"#utility.yul\":11507:11873   */\n    tag_177:\n        /* \"#utility.yul\":11649:11652   */\n      0x00\n        /* \"#utility.yul\":11670:11737   */\n      tag_304\n        /* \"#utility.yul\":11734:11736   */\n      0x1c\n        /* \"#utility.yul\":11729:11732   */\n      dup4\n        /* \"#utility.yul\":11670:11737   */\n      tag_166\n      jump\t// in\n    tag_304:\n        /* \"#utility.yul\":11663:11737   */\n      swap2\n      pop\n        /* \"#utility.yul\":11746:11839   */\n      tag_305\n        /* \"#utility.yul\":11835:11838   */\n      dup3\n        /* \"#utility.yul\":11746:11839   */\n      tag_176\n      jump\t// in\n    tag_305:\n        /* \"#utility.yul\":11864:11866   */\n      0x20\n        /* \"#utility.yul\":11859:11862   */\n      dup3\n        /* \"#utility.yul\":11855:11867   */\n      add\n        /* \"#utility.yul\":11848:11867   */\n      swap1\n      pop\n        /* \"#utility.yul\":11507:11873   */\n      swap2\n      swap1\n      pop\n      jump\t// out\n        /* \"#utility.yul\":11879:12298   */\n    tag_89:\n        /* \"#utility.yul\":12045:12049   */\n      0x00\n        /* \"#utility.yul\":12083:12085   */\n      0x20\n        /* \"#utility.yul\":12072:12081   */\n      dup3\n        /* \"#utility.yul\":12068:12086   */\n      add\n        /* \"#utility.yul\":12060:12086   */\n      swap1\n      pop\n        /* \"#utility.yul\":12132:12141   */\n      dup2\n        /* \"#utility.yul\":12126:12130   */\n      dup2\n        /* \"#utility.yul\":12122:12142   */\n      sub\n        /* \"#utility.yul\":12118:12119   */\n      0x00\n        /* \"#utility.yul\":12107:12116   */\n      dup4\n        /* \"#utility.yul\":12103:12120   */\n      add\n        /* \"#utility.yul\":12096:12143   */\n      mstore\n        /* \"#utility.yul\":12160:12291   */\n      tag_307\n        /* \"#utility.yul\":12286:12290   */\n      dup2\n        /* \"#utility.yul\":12160:12291   */\n      tag_177\n      jump\t// in\n    tag_307:\n        /* \"#utility.yul\":12152:12291   */\n      swap1\n      pop\n        /* \"#utility.yul\":11879:12298   */\n      swap2\n      swap1\n      pop\n      jump\t// out\n        /* \"#utility.yul\":12304:12447   */\n    tag_178:\n        /* \"#utility.yul\":12361:12366   */\n      0x00\n        /* \"#utility.yul\":12392:12398   */\n      dup2\n        /* \"#utility.yul\":12386:12399   */\n      mload\n        /* \"#utility.yul\":12377:12399   */\n      swap1\n      pop\n        /* \"#utility.yul\":12408:12441   */\n      tag_309\n        /* \"#utility.yul\":12435:12440   */\n      dup2\n        /* \"#utility.yul\":12408:12441   */\n      tag_149\n      jump\t// in\n    tag_309:\n        /* \"#utility.yul\":12304:12447   */\n      swap3\n      swap2\n      pop\n      pop\n      jump\t// out\n        /* \"#utility.yul\":12453:12804   */\n    tag_99:\n        /* \"#utility.yul\":12523:12529   */\n      0x00\n        /* \"#utility.yul\":12572:12574   */\n      0x20\n        /* \"#utility.yul\":12560:12569   */\n      dup3\n        /* \"#utility.yul\":12551:12558   */\n      dup5\n        /* \"#utility.yul\":12547:12570   */\n      sub\n        /* \"#utility.yul\":12543:12575   */\n      slt\n        /* \"#utility.yul\":12540:12659   */\n      iszero\n      tag_311\n      jumpi\n        /* \"#utility.yul\":12578:12657   */\n      tag_312\n      tag_141\n      jump\t// in\n    tag_312:\n        /* \"#utility.yul\":12540:12659   */\n    tag_311:\n        /* \"#utility.yul\":12698:12699   */\n      0x00\n        /* \"#utility.yul\":12723:12787   */\n      tag_313\n        /* \"#utility.yul\":12779:12786   */\n      dup5\n        /* \"#utility.yul\":12770:12776   */\n      dup3\n        /* \"#utility.yul\":12759:12768   */\n      dup6\n        /* \"#utility.yul\":12755:12777   */\n      add\n        /* \"#utility.yul\":12723:12787   */\n      tag_178\n      jump\t// in\n    tag_313:\n        /* \"#utility.yul\":12713:12787   */\n      swap2\n      pop\n        /* \"#utility.yul\":12669:12797   */\n      pop\n        /* \"#utility.yul\":12453:12804   */\n      swap3\n      swap2\n      pop\n      pop\n      jump\t// out\n        /* \"#utility.yul\":12810:13142   */\n    tag_101:\n        /* \"#utility.yul\":12931:12935   */\n      0x00\n        /* \"#utility.yul\":12969:12971   */\n      0x40\n        /* \"#utility.yul\":12958:12967   */\n      dup3\n        /* \"#utility.yul\":12954:12972   */\n      add\n        /* \"#utility.yul\":12946:12972   */\n      swap1\n      pop\n        /* \"#utility.yul\":12982:13053   */\n      tag_315\n        /* \"#utility.yul\":13050:13051   */\n      0x00\n        /* \"#utility.yul\":13039:13048   */\n      dup4\n        /* \"#utility.yul\":13035:13052   */\n      add\n        /* \"#utility.yul\":13026:13032   */\n      dup6\n        /* \"#utility.yul\":12982:13053   */\n      tag_147\n      jump\t// in\n    tag_315:\n        /* \"#utility.yul\":13063:13135   */\n      tag_316\n        /* \"#utility.yul\":13131:13133   */\n      0x20\n        /* \"#utility.yul\":13120:13129   */\n      dup4\n        /* \"#utility.yul\":13116:13134   */\n      add\n        /* \"#utility.yul\":13107:13113   */\n      dup5\n        /* \"#utility.yul\":13063:13135   */\n      tag_151\n      jump\t// in\n    tag_316:\n        /* \"#utility.yul\":12810:13142   */\n      swap4\n      swap3\n      pop\n      pop\n      pop\n      jump\t// out\n        /* \"#utility.yul\":13148:13264   */\n    tag_179:\n        /* \"#utility.yul\":13218:13239   */\n      tag_318\n        /* \"#utility.yul\":13233:13238   */\n      dup2\n        /* \"#utility.yul\":13218:13239   */\n      tag_152\n      jump\t// in\n    tag_318:\n        /* \"#utility.yul\":13211:13216   */\n      dup2\n        /* \"#utility.yul\":13208:13240   */\n      eq\n        /* \"#utility.yul\":13198:13258   */\n      tag_319\n      jumpi\n        /* \"#utility.yul\":13254:13255   */\n      0x00\n        /* \"#utility.yul\":13251:13252   */\n      0x00\n        /* \"#utility.yul\":13244:13256   */\n      revert\n        /* \"#utility.yul\":13198:13258   */\n    tag_319:\n        /* \"#utility.yul\":13148:13264   */\n      pop\n      jump\t// out\n        /* \"#utility.yul\":13270:13407   */\n    tag_180:\n        /* \"#utility.yul\":13324:13329   */\n      0x00\n        /* \"#utility.yul\":13355:13361   */\n      dup2\n        /* \"#utility.yul\":13349:13362   */\n      mload\n        /* \"#utility.yul\":13340:13362   */\n      swap1\n      pop\n        /* \"#utility.yul\":13371:13401   */\n      tag_321\n        /* \"#utility.yul\":13395:13400   */\n      dup2\n        /* \"#utility.yul\":13371:13401   */\n      tag_179\n      jump\t// in\n    tag_321:\n        /* \"#utility.yul\":13270:13407   */\n      swap3\n      swap2\n      pop\n      pop\n      jump\t// out\n        /* \"#utility.yul\":13413:13758   */\n    tag_105:\n        /* \"#utility.yul\":13480:13486   */\n      0x00\n        /* \"#utility.yul\":13529:13531   */\n      0x20\n        /* \"#utility.yul\":13517:13526   */\n      dup3\n        /* \"#utility.yul\":13508:13515   */\n      dup5\n        /* \"#utility.yul\":13504:13527   */\n      sub\n        /* \"#utility.yul\":13500:13532   */\n      slt\n        /* \"#utility.yul\":13497:13616   */\n      iszero\n      tag_323\n      jumpi\n        /* \"#utility.yul\":13535:13614   */\n      tag_324\n      tag_141\n      jump\t// in\n    tag_324:\n        /* \"#utility.yul\":13497:13616   */\n    tag_323:\n        /* \"#utility.yul\":13655:13656   */\n      0x00\n        /* \"#utility.yul\":13680:13741   */\n      tag_325\n        /* \"#utility.yul\":13733:13740   */\n      dup5\n        /* \"#utility.yul\":13724:13730   */\n      dup3\n        /* \"#utility.yul\":13713:13722   */\n      dup6\n        /* \"#utility.yul\":13709:13731   */\n      add\n        /* \"#utility.yul\":13680:13741   */\n      tag_180\n      jump\t// in\n    tag_325:\n        /* \"#utility.yul\":13670:13741   */\n      swap2\n      pop\n        /* \"#utility.yul\":13626:13751   */\n      pop\n        /* \"#utility.yul\":13413:13758   */\n      swap3\n      swap2\n      pop\n      pop\n      jump\t// out\n        /* \"#utility.yul\":13764:14206   */\n    tag_110:\n        /* \"#utility.yul\":13913:13917   */\n      0x00\n        /* \"#utility.yul\":13951:13953   */\n      0x60\n        /* \"#utility.yul\":13940:13949   */\n      dup3\n        /* \"#utility.yul\":13936:13954   */\n      add\n        /* \"#utility.yul\":13928:13954   */\n      swap1\n      pop\n        /* \"#utility.yul\":13964:14035   */\n      tag_327\n        /* \"#utility.yul\":14032:14033   */\n      0x00\n        /* \"#utility.yul\":14021:14030   */\n      dup4\n        /* \"#utility.yul\":14017:14034   */\n      add\n        /* \"#utility.yul\":14008:14014   */\n      dup7\n        /* \"#utility.yul\":13964:14035   */\n      tag_147\n      jump\t// in\n    tag_327:\n        /* \"#utility.yul\":14045:14117   */\n      tag_328\n        /* \"#utility.yul\":14113:14115   */\n      0x20\n        /* \"#utility.yul\":14102:14111   */\n      dup4\n        /* \"#utility.yul\":14098:14116   */\n      add\n        /* \"#utility.yul\":14089:14095   */\n      dup6\n        /* \"#utility.yul\":14045:14117   */\n      tag_147\n      jump\t// in\n    tag_328:\n        /* \"#utility.yul\":14127:14199   */\n      tag_329\n        /* \"#utility.yul\":14195:14197   */\n      0x40\n        /* \"#utility.yul\":14184:14193   */\n      dup4\n        /* \"#utility.yul\":14180:14198   */\n      add\n        /* \"#utility.yul\":14171:14177   */\n      dup5\n        /* \"#utility.yul\":14127:14199   */\n      tag_151\n      jump\t// in\n    tag_329:\n        /* \"#utility.yul\":13764:14206   */\n      swap5\n      swap4\n      pop\n      pop\n      pop\n      pop\n      jump\t// out\n        /* \"#utility.yul\":14212:14382   */\n    tag_181:\n        /* \"#utility.yul\":14352:14374   */\n      0x55534454207472616e73666572206661696c6564000000000000000000000000\n        /* \"#utility.yul\":14348:14349   */\n      0x00\n        /* \"#utility.yul\":14340:14346   */\n      dup3\n        /* \"#utility.yul\":14336:14350   */\n      add\n        /* \"#utility.yul\":14329:14375   */\n      mstore\n        /* \"#utility.yul\":14212:14382   */\n      pop\n      jump\t// out\n        /* \"#utility.yul\":14388:14754   */\n    tag_182:\n        /* \"#utility.yul\":14530:14533   */\n      0x00\n        /* \"#utility.yul\":14551:14618   */\n      tag_332\n        /* \"#utility.yul\":14615:14617   */\n      0x14\n        /* \"#utility.yul\":14610:14613   */\n      dup4\n        /* \"#utility.yul\":14551:14618   */\n      tag_166\n      jump\t// in\n    tag_332:\n        /* \"#utility.yul\":14544:14618   */\n      swap2\n      pop\n        /* \"#utility.yul\":14627:14720   */\n      tag_333\n        /* \"#utility.yul\":14716:14719   */\n      dup3\n        /* \"#utility.yul\":14627:14720   */\n      tag_181\n      jump\t// in\n    tag_333:\n        /* \"#utility.yul\":14745:14747   */\n      0x20\n        /* \"#utility.yul\":14740:14743   */\n      dup3\n        /* \"#utility.yul\":14736:14748   */\n      add\n        /* \"#utility.yul\":14729:14748   */\n      swap1\n      pop\n        /* \"#utility.yul\":14388:14754   */\n      swap2\n      swap1\n      pop\n      jump\t// out\n        /* \"#utility.yul\":14760:15179   */\n    tag_116:\n        /* \"#utility.yul\":14926:14930   */\n      0x00\n        /* \"#utility.yul\":14964:14966   */\n      0x20\n        /* \"#utility.yul\":14953:14962   */\n      dup3\n        /* \"#utility.yul\":14949:14967   */\n      add\n        /* \"#utility.yul\":14941:14967   */\n      swap1\n      pop\n        /* \"#utility.yul\":15013:15022   */\n      dup2\n        /* \"#utility.yul\":15007:15011   */\n      dup2\n        /* \"#utility.yul\":15003:15023   */\n      sub\n        /* \"#utility.yul\":14999:15000   */\n      0x00\n        /* \"#utility.yul\":14988:14997   */\n      dup4\n        /* \"#utility.yul\":14984:15001   */\n      add\n        /* \"#utility.yul\":14977:15024   */\n      mstore\n        /* \"#utility.yul\":15041:15172   */\n      tag_335\n        /* \"#utility.yul\":15167:15171   */\n      dup2\n        /* \"#utility.yul\":15041:15172   */\n      tag_182\n      jump\t// in\n    tag_335:\n        /* \"#utility.yul\":15033:15172   */\n      swap1\n      pop\n        /* \"#utility.yul\":14760:15179   */\n      swap2\n      swap1\n      pop\n      jump\t// out\n        /* \"#utility.yul\":15185:15283   */\n    tag_183:\n        /* \"#utility.yul\":15236:15242   */\n      0x00\n        /* \"#utility.yul\":15270:15275   */\n      dup2\n        /* \"#utility.yul\":15264:15276   */\n      mload\n        /* \"#utility.yul\":15254:15276   */\n      swap1\n      pop\n        /* \"#utility.yul\":15185:15283   */\n      swap2\n      swap1\n      pop\n      jump\t// out\n        /* \"#utility.yul\":15289:15436   */\n    tag_184:\n        /* \"#utility.yul\":15390:15401   */\n      0x00\n        /* \"#utility.yul\":15427:15430   */\n      dup2\n        /* \"#utility.yul\":15412:15430   */\n      swap1\n      pop\n        /* \"#utility.yul\":15289:15436   */\n      swap3\n      swap2\n      pop\n      pop\n      jump\t// out\n        /* \"#utility.yul\":15442:15581   */\n    tag_185:\n        /* \"#utility.yul\":15531:15537   */\n      dup3\n        /* \"#utility.yul\":15526:15529   */\n      dup2\n        /* \"#utility.yul\":15521:15524   */\n      dup4\n        /* \"#utility.yul\":15515:15538   */\n      mcopy\n        /* \"#utility.yul\":15572:15573   */\n      0x00\n        /* \"#utility.yul\":15563:15569   */\n      dup4\n        /* \"#utility.yul\":15558:15561   */\n      dup4\n        /* \"#utility.yul\":15554:15570   */\n      add\n        /* \"#utility.yul\":15547:15574   */\n      mstore\n        /* \"#utility.yul\":15442:15581   */\n      pop\n      pop\n      pop\n      jump\t// out\n        /* \"#utility.yul\":15587:15973   */\n    tag_186:\n        /* \"#utility.yul\":15691:15694   */\n      0x00\n        /* \"#utility.yul\":15719:15757   */\n      tag_340\n        /* \"#utility.yul\":15751:15756   */\n      dup3\n        /* \"#utility.yul\":15719:15757   */\n      tag_183\n      jump\t// in\n    tag_340:\n        /* \"#utility.yul\":15773:15861   */\n      tag_341\n        /* \"#utility.yul\":15854:15860   */\n      dup2\n        /* \"#utility.yul\":15849:15852   */\n      dup6\n        /* \"#utility.yul\":15773:15861   */\n      tag_184\n      jump\t// in\n    tag_341:\n        /* \"#utility.yul\":15766:15861   */\n      swap4\n      pop\n        /* \"#utility.yul\":15870:15935   */\n      tag_342\n        /* \"#utility.yul\":15928:15934   */\n      dup2\n        /* \"#utility.yul\":15923:15926   */\n      dup6\n        /* \"#utility.yul\":15916:15920   */\n      0x20\n        /* \"#utility.yul\":15909:15914   */\n      dup7\n        /* \"#utility.yul\":15905:15921   */\n      add\n        /* \"#utility.yul\":15870:15935   */\n      tag_185\n      jump\t// in\n    tag_342:\n        /* \"#utility.yul\":15960:15966   */\n      dup1\n        /* \"#utility.yul\":15955:15958   */\n      dup5\n        /* \"#utility.yul\":15951:15967   */\n      add\n        /* \"#utility.yul\":15944:15967   */\n      swap2\n      pop\n        /* \"#utility.yul\":15695:15973   */\n      pop\n        /* \"#utility.yul\":15587:15973   */\n      swap3\n      swap2\n      pop\n      pop\n      jump\t// out\n        /* \"#utility.yul\":15979:16250   */\n    tag_123:\n        /* \"#utility.yul\":16109:16112   */\n      0x00\n        /* \"#utility.yul\":16131:16224   */\n      tag_344\n        /* \"#utility.yul\":16220:16223   */\n      dup3\n        /* \"#utility.yul\":16211:16217   */\n      dup5\n        /* \"#utility.yul\":16131:16224   */\n      tag_186\n      jump\t// in\n    tag_344:\n        /* \"#utility.yul\":16124:16224   */\n      swap2\n      pop\n        /* \"#utility.yul\":16241:16244   */\n      dup2\n        /* \"#utility.yul\":16234:16244   */\n      swap1\n      pop\n        /* \"#utility.yul\":15979:16250   */\n      swap3\n      swap2\n      pop\n      pop\n      jump\t// out\n        /* \"#utility.yul\":16256:16698   */\n    tag_125:\n        /* \"#utility.yul\":16405:16409   */\n      0x00\n        /* \"#utility.yul\":16443:16445   */\n      0x60\n        /* \"#utility.yul\":16432:16441   */\n      dup3\n        /* \"#utility.yul\":16428:16446   */\n      add\n        /* \"#utility.yul\":16420:16446   */\n      swap1\n      pop\n        /* \"#utility.yul\":16456:16527   */\n      tag_346\n        /* \"#utility.yul\":16524:16525   */\n      0x00\n        /* \"#utility.yul\":16513:16522   */\n      dup4\n        /* \"#utility.yul\":16509:16526   */\n      add\n        /* \"#utility.yul\":16500:16506   */\n      dup7\n        /* \"#utility.yul\":16456:16527   */\n      tag_151\n      jump\t// in\n    tag_346:\n        /* \"#utility.yul\":16537:16609   */\n      tag_347\n        /* \"#utility.yul\":16605:16607   */\n      0x20\n        /* \"#utility.yul\":16594:16603   */\n      dup4\n        /* \"#utility.yul\":16590:16608   */\n      add\n        /* \"#utility.yul\":16581:16587   */\n      dup6\n        /* \"#utility.yul\":16537:16609   */\n      tag_151\n      jump\t// in\n    tag_347:\n        /* \"#utility.yul\":16619:16691   */\n      tag_348\n        /* \"#utility.yul\":16687:16689   */\n      0x40\n        /* \"#utility.yul\":16676:16685   */\n      dup4\n        /* \"#utility.yul\":16672:16690   */\n      add\n        /* \"#utility.yul\":16663:16669   */\n      dup5\n        /* \"#utility.yul\":16619:16691   */\n      tag_151\n      jump\t// in\n    tag_348:\n        /* \"#utility.yul\":16256:16698   */\n      swap5\n      swap4\n      pop\n      pop\n      pop\n      pop\n      jump\t// out\n        /* \"#utility.yul\":16704:16822   */\n    tag_187:\n        /* \"#utility.yul\":16775:16797   */\n      tag_350\n        /* \"#utility.yul\":16791:16796   */\n      dup2\n        /* \"#utility.yul\":16775:16797   */\n      tag_164\n      jump\t// in\n    tag_350:\n        /* \"#utility.yul\":16768:16773   */\n      dup2\n        /* \"#utility.yul\":16765:16798   */\n      eq\n        /* \"#utility.yul\":16755:16816   */\n      tag_351\n      jumpi\n        /* \"#utility.yul\":16812:16813   */\n      0x00\n        /* \"#utility.yul\":16809:16810   */\n      0x00\n        /* \"#utility.yul\":16802:16814   */\n      revert\n        /* \"#utility.yul\":16755:16816   */\n    tag_351:\n        /* \"#utility.yul\":16704:16822   */\n      pop\n      jump\t// out\n        /* \"#utility.yul\":16828:16967   */\n    tag_188:\n        /* \"#utility.yul\":16883:16888   */\n      0x00\n        /* \"#utility.yul\":16914:16920   */\n      dup2\n        /* \"#utility.yul\":16908:16921   */\n      mload\n        /* \"#utility.yul\":16899:16921   */\n      swap1\n      pop\n        /* \"#utility.yul\":16930:16961   */\n      tag_353\n        /* \"#utility.yul\":16955:16960   */\n      dup2\n        /* \"#utility.yul\":16930:16961   */\n      tag_187\n      jump\t// in\n    tag_353:\n        /* \"#utility.yul\":16828:16967   */\n      swap3\n      swap2\n      pop\n      pop\n      jump\t// out\n        /* \"#utility.yul\":16973:17320   */\n    tag_130:\n        /* \"#utility.yul\":17041:17047   */\n      0x00\n        /* \"#utility.yul\":17090:17092   */\n      0x20\n        /* \"#utility.yul\":17078:17087   */\n      dup3\n        /* \"#utility.yul\":17069:17076   */\n      dup5\n        /* \"#utility.yul\":17065:17088   */\n      sub\n        /* \"#utility.yul\":17061:17093   */\n      slt\n        /* \"#utility.yul\":17058:17177   */\n      iszero\n      tag_355\n      jumpi\n        /* \"#utility.yul\":17096:17175   */\n      tag_356\n      tag_141\n      jump\t// in\n    tag_356:\n        /* \"#utility.yul\":17058:17177   */\n    tag_355:\n        /* \"#utility.yul\":17216:17217   */\n      0x00\n        /* \"#utility.yul\":17241:17303   */\n      tag_357\n        /* \"#utility.yul\":17295:17302   */\n      dup5\n        /* \"#utility.yul\":17286:17292   */\n      dup3\n        /* \"#utility.yul\":17275:17284   */\n      dup6\n        /* \"#utility.yul\":17271:17293   */\n      add\n        /* \"#utility.yul\":17241:17303   */\n      tag_188\n      jump\t// in\n    tag_357:\n        /* \"#utility.yul\":17231:17303   */\n      swap2\n      pop\n        /* \"#utility.yul\":17187:17313   */\n      pop\n        /* \"#utility.yul\":16973:17320   */\n      swap3\n      swap2\n      pop\n      pop\n      jump\t// out\n        /* \"#utility.yul\":17326:17495   */\n    tag_189:\n        /* \"#utility.yul\":17466:17487   */\n      0x5553445420617070726f7665206661696c656400000000000000000000000000\n        /* \"#utility.yul\":17462:17463   */\n      0x00\n        /* \"#utility.yul\":17454:17460   */\n      dup3\n        /* \"#utility.yul\":17450:17464   */\n      add\n        /* \"#utility.yul\":17443:17488   */\n      mstore\n        /* \"#utility.yul\":17326:17495   */\n      pop\n      jump\t// out\n        /* \"#utility.yul\":17501:17867   */\n    tag_190:\n        /* \"#utility.yul\":17643:17646   */\n      0x00\n        /* \"#utility.yul\":17664:17731   */\n      tag_360\n        /* \"#utility.yul\":17728:17730   */\n      0x13\n        /* \"#utility.yul\":17723:17726   */\n      dup4\n        /* \"#utility.yul\":17664:17731   */\n      tag_166\n      jump\t// in\n    tag_360:\n        /* \"#utility.yul\":17657:17731   */\n      swap2\n      pop\n        /* \"#utility.yul\":17740:17833   */\n      tag_361\n        /* \"#utility.yul\":17829:17832   */\n      dup3\n        /* \"#utility.yul\":17740:17833   */\n      tag_189\n      jump\t// in\n    tag_361:\n        /* \"#utility.yul\":17858:17860   */\n      0x20\n        /* \"#utility.yul\":17853:17856   */\n      dup3\n        /* \"#utility.yul\":17849:17861   */\n      add\n        /* \"#utility.yul\":17842:17861   */\n      swap1\n      pop\n        /* \"#utility.yul\":17501:17867   */\n      swap2\n      swap1\n      pop\n      jump\t// out\n        /* \"#utility.yul\":17873:18292   */\n    tag_139:\n        /* \"#utility.yul\":18039:18043   */\n      0x00\n        /* \"#utility.yul\":18077:18079   */\n      0x20\n        /* \"#utility.yul\":18066:18075   */\n      dup3\n        /* \"#utility.yul\":18062:18080   */\n      add\n        /* \"#utility.yul\":18054:18080   */\n      swap1\n      pop\n        /* \"#utility.yul\":18126:18135   */\n      dup2\n        /* \"#utility.yul\":18120:18124   */\n      dup2\n        /* \"#utility.yul\":18116:18136   */\n      sub\n        /* \"#utility.yul\":18112:18113   */\n      0x00\n        /* \"#utility.yul\":18101:18110   */\n      dup4\n        /* \"#utility.yul\":18097:18114   */\n      add\n        /* \"#utility.yul\":18090:18137   */\n      mstore\n        /* \"#utility.yul\":18154:18285   */\n      tag_363\n        /* \"#utility.yul\":18280:18284   */\n      dup2\n        /* \"#utility.yul\":18154:18285   */\n      tag_190\n      jump\t// in\n    tag_363:\n        /* \"#utility.yul\":18146:18285   */\n      swap1\n      pop\n        /* \"#utility.yul\":17873:18292   */\n      swap2\n      swap1\n      pop\n      jump\t// out\n\n    auxdata: 0xa2646970667358221220b4e39fa96dac1995179bb2da7edb0238c2fbf134affdfc57832e8f9098d24bc864736f6c634300081b0033\n}\n",
				"bytecode": {
					"linkReferences": {},
					"object": "60806040525f5f5f6101000a81548160ff021916908315150217905550348015610027575f5ffd5b506040516118e23803806118e283398181016040528101906100499190610219565b825f60016101000a81548173ffffffffffffffffffffffffffffffffffffffff021916908373ffffffffffffffffffffffffffffffffffffffff160217905550600160025f8573ffffffffffffffffffffffffffffffffffffffff1673ffffffffffffffffffffffffffffffffffffffff1681526020019081526020015f205f6101000a81548160ff0219169083151502179055508160015f6101000a81548173ffffffffffffffffffffffffffffffffffffffff021916908373ffffffffffffffffffffffffffffffffffffffff160217905550600160035f8473ffffffffffffffffffffffffffffffffffffffff1673ffffffffffffffffffffffffffffffffffffffff1681526020019081526020015f205f6101000a81548160ff0219169083151502179055508060045f6101000a81548173ffffffffffffffffffffffffffffffffffffffff021916908373ffffffffffffffffffffffffffffffffffffffff160217905550505050610269565b5f5ffd5b5f73ffffffffffffffffffffffffffffffffffffffff82169050919050565b5f6101e8826101bf565b9050919050565b6101f8816101de565b8114610202575f5ffd5b50565b5f81519050610213816101ef565b92915050565b5f5f5f606084860312156102305761022f6101bb565b5b5f61023d86828701610205565b935050602061024e86828701610205565b925050604061025f86828701610205565b9150509250925092565b61166c806102765f395ff3fe608060405234801561000f575f5ffd5b5060043610610091575f3560e01c806392eefe9b1161006457806392eefe9b14610109578063a75e1ecf14610125578063aad0e6eb14610143578063ee2102fa1461014d578063f0141d841461016957610091565b806313af40351461009557806384c02ba9146100b1578063893d20e8146100bb5780638dfa4363146100d9575b5f5ffd5b6100af60048036038101906100aa9190610ddd565b610187565b005b6100b96103ac565b005b6100c361045d565b6040516100d09190610e17565b60405180910390f35b6100f360048036038101906100ee9190610e63565b610485565b6040516101009190610eb0565b60405180910390f35b610123600480360381019061011e9190610ddd565b610593565b005b61012d6107b8565b60405161013a9190610ee3565b60405180910390f35b61014b6107cc565b005b61016760048036038101906101629190611038565b6109b2565b005b610171610be1565b60405161017e91906110bf565b60405180910390f35b60035f3373ffffffffffffffffffffffffffffffffffffffff1673ffffffffffffffffffffffffffffffffffffffff1681526020019081526020015f205f9054906101000a900460ff16610210576040517f08c379a000000000000000000000000000000000000000000000000000000000815260040161020790611132565b60405180910390fd5b5f60019054906101000a900473ffffffffffffffffffffffffffffffffffffffff1673ffffffffffffffffffffffffffffffffffffffff168173ffffffffffffffffffffffffffffffffffffffff160361029f576040517f08c379a00000000000000000000000000000000000000000000000000000000081526004016102969061119a565b60405180910390fd5b5f60025f5f60019054906101000a900473ffffffffffffffffffffffffffffffffffffffff1673ffffffffffffffffffffffffffffffffffffffff1673ffffffffffffffffffffffffffffffffffffffff1681526020019081526020015f205f6101000a81548160ff021916908315150217905550805f60016101000a81548173ffffffffffffffffffffffffffffffffffffffff021916908373ffffffffffffffffffffffffffffffffffffffff160217905550600160025f8373ffffffffffffffffffffffffffffffffffffffff1673ffffffffffffffffffffffffffffffffffffffff1681526020019081526020015f205f6101000a81548160ff02191690831515021790555050565b60025f3373ffffffffffffffffffffffffffffffffffffffff1673ffffffffffffffffffffffffffffffffffffffff1681526020019081526020015f205f9054906101000a900460ff16610435576040517f08c379a000000000000000000000000000000000000000000000000000000000815260040161042c90611202565b60405180910390fd5b5f5f9054906101000a900460ff16155f5f6101000a81548160ff021916908315150217905550565b5f5f60019054906101000a900473ffffffffffffffffffffffffffffffffffffffff16905090565b5f5f601e83036104c7576103e8600f600685876104a2919061124d565b6104ac919061124d565b6104b6919061124d565b6104c0919061124d565b9050610589565b603c8303610507576103e8600d600685876104e2919061124d565b6104ec919061124d565b6104f6919061124d565b610500919061124d565b9050610588565b605a8303610546576064607d60068587610521919061124d565b61052b919061124d565b610535919061124d565b61053f919061124d565b9050610587565b5f610586576040517f08c379a000000000000000000000000000000000000000000000000000000000815260040161057d906112fe565b60405180910390fd5b5b5b5b8091505092915050565b60035f3373ffffffffffffffffffffffffffffffffffffffff1673ffffffffffffffffffffffffffffffffffffffff1681526020019081526020015f205f9054906101000a900460ff1661061c576040517f08c379a000000000000000000000000000000000000000000000000000000000815260040161061390611132565b60405180910390fd5b60015f9054906101000a900473ffffffffffffffffffffffffffffffffffffffff1673ffffffffffffffffffffffffffffffffffffffff168173ffffffffffffffffffffffffffffffffffffffff16036106ab576040517f08c379a00000000000000000000000000000000000000000000000000000000081526004016106a290611366565b60405180910390fd5b5f60035f60015f9054906101000a900473ffffffffffffffffffffffffffffffffffffffff1673ffffffffffffffffffffffffffffffffffffffff1673ffffffffffffffffffffffffffffffffffffffff1681526020019081526020015f205f6101000a81548160ff0219169083151502179055508060015f6101000a81548173ffffffffffffffffffffffffffffffffffffffff021916908373ffffffffffffffffffffffffffffffffffffffff160217905550600160035f8373ffffffffffffffffffffffffffffffffffffffff1673ffffffffffffffffffffffffffffffffffffffff1681526020019081526020015f205f6101000a81548160ff02191690831515021790555050565b5f5f5f9054906101000a900460ff16905090565b60025f3373ffffffffffffffffffffffffffffffffffffffff1673ffffffffffffffffffffffffffffffffffffffff1681526020019081526020015f205f9054906101000a900460ff16610855576040517f08c379a000000000000000000000000000000000000000000000000000000000815260040161084c90611202565b60405180910390fd5b5f60045f9054906101000a900473ffffffffffffffffffffffffffffffffffffffff1673ffffffffffffffffffffffffffffffffffffffff166370a08231306040518263ffffffff1660e01b81526004016108b09190610e17565b602060405180830381865afa1580156108cb573d5f5f3e3d5ffd5b505050506040513d601f19601f820116820180604052508101906108ef9190611398565b905060045f9054906101000a900473ffffffffffffffffffffffffffffffffffffffff1673ffffffffffffffffffffffffffffffffffffffff1663a9059cbb5f60019054906101000a900473ffffffffffffffffffffffffffffffffffffffff16836040518363ffffffff1660e01b815260040161096e9291906113c3565b6020604051808303815f875af115801561098a573d5f5f3e3d5ffd5b505050506040513d601f19601f820116820180604052508101906109ae9190611414565b5050565b5f6109bd8383610c7a565b90505f60045f9054906101000a900473ffffffffffffffffffffffffffffffffffffffff1673ffffffffffffffffffffffffffffffffffffffff166323b872dd3330856040518463ffffffff1660e01b8152600401610a1e9392919061143f565b6020604051808303815f875af1158015610a3a573d5f5f3e3d5ffd5b505050506040513d601f19601f82011682018060405250810190610a5e9190611414565b905080610aa0576040517f08c379a0000000000000000000000000000000000000000000000000000000008152600401610a97906114be565b60405180910390fd5b5f5f9054906101000a900460ff1615610b725760045f9054906101000a900473ffffffffffffffffffffffffffffffffffffffff1673ffffffffffffffffffffffffffffffffffffffff1663a9059cbb5f60019054906101000a900473ffffffffffffffffffffffffffffffffffffffff16846040518363ffffffff1660e01b8152600401610b309291906113c3565b6020604051808303815f875af1158015610b4c573d5f5f3e3d5ffd5b505050506040513d601f19601f82011682018060405250810190610b709190611414565b505b3373ffffffffffffffffffffffffffffffffffffffff1685604051610b97919061152e565b60405180910390207f777245fe086e9196d417837d8b9203aa8d04849e4a0d310a7c52eaead4d4ecd2868686604051610bd293929190611544565b60405180910390a35050505050565b5f5f60045f9054906101000a900473ffffffffffffffffffffffffffffffffffffffff1673ffffffffffffffffffffffffffffffffffffffff1663313ce5676040518163ffffffff1660e01b8152600401602060405180830381865afa158015610c4d573d5f5f3e3d5ffd5b505050506040513d601f19601f82011682018060405250810190610c7191906115a3565b90508091505090565b5f5f610c868484610485565b90505f60045f9054906101000a900473ffffffffffffffffffffffffffffffffffffffff1673ffffffffffffffffffffffffffffffffffffffff1663095ea7b333846040518363ffffffff1660e01b8152600401610ce59291906113c3565b6020604051808303815f875af1158015610d01573d5f5f3e3d5ffd5b505050506040513d601f19601f82011682018060405250810190610d259190611414565b905080610d67576040517f08c379a0000000000000000000000000000000000000000000000000000000008152600401610d5e90611618565b60405180910390fd5b819250505092915050565b5f604051905090565b5f5ffd5b5f5ffd5b5f73ffffffffffffffffffffffffffffffffffffffff82169050919050565b5f610dac82610d83565b9050919050565b610dbc81610da2565b8114610dc6575f5ffd5b50565b5f81359050610dd781610db3565b92915050565b5f60208284031215610df257610df1610d7b565b5b5f610dff84828501610dc9565b91505092915050565b610e1181610da2565b82525050565b5f602082019050610e2a5f830184610e08565b92915050565b5f819050919050565b610e4281610e30565b8114610e4c575f5ffd5b50565b5f81359050610e5d81610e39565b92915050565b5f5f60408385031215610e7957610e78610d7b565b5b5f610e8685828601610e4f565b9250506020610e9785828601610e4f565b9150509250929050565b610eaa81610e30565b82525050565b5f602082019050610ec35f830184610ea1565b92915050565b5f8115159050919050565b610edd81610ec9565b82525050565b5f602082019050610ef65f830184610ed4565b92915050565b5f5ffd5b5f5ffd5b5f601f19601f8301169050919050565b7f4e487b71000000000000000000000000000000000000000000000000000000005f52604160045260245ffd5b610f4a82610f04565b810181811067ffffffffffffffff82111715610f6957610f68610f14565b5b80604052505050565b5f610f7b610d72565b9050610f878282610f41565b919050565b5f67ffffffffffffffff821115610fa657610fa5610f14565b5b610faf82610f04565b9050602081019050919050565b828183375f83830152505050565b5f610fdc610fd784610f8c565b610f72565b905082815260208101848484011115610ff857610ff7610f00565b5b611003848285610fbc565b509392505050565b5f82601f83011261101f5761101e610efc565b5b813561102f848260208601610fca565b91505092915050565b5f5f5f6060848603121561104f5761104e610d7b565b5b5f84013567ffffffffffffffff81111561106c5761106b610d7f565b5b6110788682870161100b565b935050602061108986828701610e4f565b925050604061109a86828701610e4f565b9150509250925092565b5f60ff82169050919050565b6110b9816110a4565b82525050565b5f6020820190506110d25f8301846110b0565b92915050565b5f82825260208201905092915050565b7f4f6e6c792074686520636f6e74726f6c6c65722063616e2075736500000000005f82015250565b5f61111c601b836110d8565b9150611127826110e8565b602082019050919050565b5f6020820190508181035f83015261114981611110565b9050919050565b7f506c65617365207365742061206e6577206f776e65722e0000000000000000005f82015250565b5f6111846017836110d8565b915061118f82611150565b602082019050919050565b5f6020820190508181035f8301526111b181611178565b9050919050565b7f4f6e6c7920746865206f776e65722063616e20757365000000000000000000005f82015250565b5f6111ec6016836110d8565b91506111f7826111b8565b602082019050919050565b5f6020820190508181035f830152611219816111e0565b9050919050565b7f4e487b71000000000000000000000000000000000000000000000000000000005f52601160045260245ffd5b5f61125782610e30565b915061126283610e30565b925082820261127081610e30565b9150828204841483151761128757611286611220565b5b5092915050565b7f496e76616c696420646179732c206d7573742062652033302c203630206f72205f8201527f3930000000000000000000000000000000000000000000000000000000000000602082015250565b5f6112e86022836110d8565b91506112f38261128e565b604082019050919050565b5f6020820190508181035f830152611315816112dc565b9050919050565b7f506c65617365207365742061206e657720636f6e74726f6c6c65722e000000005f82015250565b5f611350601c836110d8565b915061135b8261131c565b602082019050919050565b5f6020820190508181035f83015261137d81611344565b9050919050565b5f8151905061139281610e39565b92915050565b5f602082840312156113ad576113ac610d7b565b5b5f6113ba84828501611384565b91505092915050565b5f6040820190506113d65f830185610e08565b6113e36020830184610ea1565b9392505050565b6113f381610ec9565b81146113fd575f5ffd5b50565b5f8151905061140e816113ea565b92915050565b5f6020828403121561142957611428610d7b565b5b5f61143684828501611400565b91505092915050565b5f6060820190506114525f830186610e08565b61145f6020830185610e08565b61146c6040830184610ea1565b949350505050565b7f55534454207472616e73666572206661696c65640000000000000000000000005f82015250565b5f6114a86014836110d8565b91506114b382611474565b602082019050919050565b5f6020820190508181035f8301526114d58161149c565b9050919050565b5f81519050919050565b5f81905092915050565b8281835e5f83830152505050565b5f611508826114dc565b61151281856114e6565b93506115228185602086016114f0565b80840191505092915050565b5f61153982846114fe565b915081905092915050565b5f6060820190506115575f830186610ea1565b6115646020830185610ea1565b6115716040830184610ea1565b949350505050565b611582816110a4565b811461158c575f5ffd5b50565b5f8151905061159d81611579565b92915050565b5f602082840312156115b8576115b7610d7b565b5b5f6115c58482850161158f565b91505092915050565b7f5553445420617070726f7665206661696c6564000000000000000000000000005f82015250565b5f6116026013836110d8565b915061160d826115ce565b602082019050919050565b5f6020820190508181035f83015261162f816115f6565b905091905056fea2646970667358221220b4e39fa96dac1995179bb2da7edb0238c2fbf134affdfc57832e8f9098d24bc864736f6c634300081b0033",
					"opcodes": "PUSH1 0x80 PUSH1 0x40 MSTORE PUSH0 PUSH0 PUSH0 PUSH2 0x100 EXP DUP2 SLOAD DUP2 PUSH1 0xFF MUL NOT AND SWAP1 DUP4 ISZERO ISZERO MUL OR SWAP1 SSTORE POP CALLVALUE DUP1 ISZERO PUSH2 0x27 JUMPI PUSH0 PUSH0 REVERT JUMPDEST POP PUSH1 0x40 MLOAD PUSH2 0x18E2 CODESIZE SUB DUP1 PUSH2 0x18E2 DUP4 CODECOPY DUP2 DUP2 ADD PUSH1 0x40 MSTORE DUP2 ADD SWAP1 PUSH2 0x49 SWAP2 SWAP1 PUSH2 0x219 JUMP JUMPDEST DUP3 PUSH0 PUSH1 0x1 PUSH2 0x100 EXP DUP2 SLOAD DUP2 PUSH20 0xFFFFFFFFFFFFFFFFFFFFFFFFFFFFFFFFFFFFFFFF MUL NOT AND SWAP1 DUP4 PUSH20 0xFFFFFFFFFFFFFFFFFFFFFFFFFFFFFFFFFFFFFFFF AND MUL OR SWAP1 SSTORE POP PUSH1 0x1 PUSH1 0x2 PUSH0 DUP6 PUSH20 0xFFFFFFFFFFFFFFFFFFFFFFFFFFFFFFFFFFFFFFFF AND PUSH20 0xFFFFFFFFFFFFFFFFFFFFFFFFFFFFFFFFFFFFFFFF AND DUP2 MSTORE PUSH1 0x20 ADD SWAP1 DUP2 MSTORE PUSH1 0x20 ADD PUSH0 KECCAK256 PUSH0 PUSH2 0x100 EXP DUP2 SLOAD DUP2 PUSH1 0xFF MUL NOT AND SWAP1 DUP4 ISZERO ISZERO MUL OR SWAP1 SSTORE POP DUP2 PUSH1 0x1 PUSH0 PUSH2 0x100 EXP DUP2 SLOAD DUP2 PUSH20 0xFFFFFFFFFFFFFFFFFFFFFFFFFFFFFFFFFFFFFFFF MUL NOT AND SWAP1 DUP4 PUSH20 0xFFFFFFFFFFFFFFFFFFFFFFFFFFFFFFFFFFFFFFFF AND MUL OR SWAP1 SSTORE POP PUSH1 0x1 PUSH1 0x3 PUSH0 DUP5 PUSH20 0xFFFFFFFFFFFFFFFFFFFFFFFFFFFFFFFFFFFFFFFF AND PUSH20 0xFFFFFFFFFFFFFFFFFFFFFFFFFFFFFFFFFFFFFFFF AND DUP2 MSTORE PUSH1 0x20 ADD SWAP1 DUP2 MSTORE PUSH1 0x20 ADD PUSH0 KECCAK256 PUSH0 PUSH2 0x100 EXP DUP2 SLOAD DUP2 PUSH1 0xFF MUL NOT AND SWAP1 DUP4 ISZERO ISZERO MUL OR SWAP1 SSTORE POP DUP1 PUSH1 0x4 PUSH0 PUSH2 0x100 EXP DUP2 SLOAD DUP2 PUSH20 0xFFFFFFFFFFFFFFFFFFFFFFFFFFFFFFFFFFFFFFFF MUL NOT AND SWAP1 DUP4 PUSH20 0xFFFFFFFFFFFFFFFFFFFFFFFFFFFFFFFFFFFFFFFF AND MUL OR SWAP1 SSTORE POP POP POP POP PUSH2 0x269 JUMP JUMPDEST PUSH0 PUSH0 REVERT JUMPDEST PUSH0 PUSH20 0xFFFFFFFFFFFFFFFFFFFFFFFFFFFFFFFFFFFFFFFF DUP3 AND SWAP1 POP SWAP2 SWAP1 POP JUMP JUMPDEST PUSH0 PUSH2 0x1E8 DUP3 PUSH2 0x1BF JUMP JUMPDEST SWAP1 POP SWAP2 SWAP1 POP JUMP JUMPDEST PUSH2 0x1F8 DUP2 PUSH2 0x1DE JUMP JUMPDEST DUP2 EQ PUSH2 0x202 JUMPI PUSH0 PUSH0 REVERT JUMPDEST POP JUMP JUMPDEST PUSH0 DUP2 MLOAD SWAP1 POP PUSH2 0x213 DUP2 PUSH2 0x1EF JUMP JUMPDEST SWAP3 SWAP2 POP POP JUMP JUMPDEST PUSH0 PUSH0 PUSH0 PUSH1 0x60 DUP5 DUP7 SUB SLT ISZERO PUSH2 0x230 JUMPI PUSH2 0x22F PUSH2 0x1BB JUMP JUMPDEST JUMPDEST PUSH0 PUSH2 0x23D DUP7 DUP3 DUP8 ADD PUSH2 0x205 JUMP JUMPDEST SWAP4 POP POP PUSH1 0x20 PUSH2 0x24E DUP7 DUP3 DUP8 ADD PUSH2 0x205 JUMP JUMPDEST SWAP3 POP POP PUSH1 0x40 PUSH2 0x25F DUP7 DUP3 DUP8 ADD PUSH2 0x205 JUMP JUMPDEST SWAP2 POP POP SWAP3 POP SWAP3 POP SWAP3 JUMP JUMPDEST PUSH2 0x166C DUP1 PUSH2 0x276 PUSH0 CODECOPY PUSH0 RETURN INVALID PUSH1 0x80 PUSH1 0x40 MSTORE CALLVALUE DUP1 ISZERO PUSH2 0xF JUMPI PUSH0 PUSH0 REVERT JUMPDEST POP PUSH1 0x4 CALLDATASIZE LT PUSH2 0x91 JUMPI PUSH0 CALLDATALOAD PUSH1 0xE0 SHR DUP1 PUSH4 0x92EEFE9B GT PUSH2 0x64 JUMPI DUP1 PUSH4 0x92EEFE9B EQ PUSH2 0x109 JUMPI DUP1 PUSH4 0xA75E1ECF EQ PUSH2 0x125 JUMPI DUP1 PUSH4 0xAAD0E6EB EQ PUSH2 0x143 JUMPI DUP1 PUSH4 0xEE2102FA EQ PUSH2 0x14D JUMPI DUP1 PUSH4 0xF0141D84 EQ PUSH2 0x169 JUMPI PUSH2 0x91 JUMP JUMPDEST DUP1 PUSH4 0x13AF4035 EQ PUSH2 0x95 JUMPI DUP1 PUSH4 0x84C02BA9 EQ PUSH2 0xB1 JUMPI DUP1 PUSH4 0x893D20E8 EQ PUSH2 0xBB JUMPI DUP1 PUSH4 0x8DFA4363 EQ PUSH2 0xD9 JUMPI JUMPDEST PUSH0 PUSH0 REVERT JUMPDEST PUSH2 0xAF PUSH1 0x4 DUP1 CALLDATASIZE SUB DUP2 ADD SWAP1 PUSH2 0xAA SWAP2 SWAP1 PUSH2 0xDDD JUMP JUMPDEST PUSH2 0x187 JUMP JUMPDEST STOP JUMPDEST PUSH2 0xB9 PUSH2 0x3AC JUMP JUMPDEST STOP JUMPDEST PUSH2 0xC3 PUSH2 0x45D JUMP JUMPDEST PUSH1 0x40 MLOAD PUSH2 0xD0 SWAP2 SWAP1 PUSH2 0xE17 JUMP JUMPDEST PUSH1 0x40 MLOAD DUP1 SWAP2 SUB SWAP1 RETURN JUMPDEST PUSH2 0xF3 PUSH1 0x4 DUP1 CALLDATASIZE SUB DUP2 ADD SWAP1 PUSH2 0xEE SWAP2 SWAP1 PUSH2 0xE63 JUMP JUMPDEST PUSH2 0x485 JUMP JUMPDEST PUSH1 0x40 MLOAD PUSH2 0x100 SWAP2 SWAP1 PUSH2 0xEB0 JUMP JUMPDEST PUSH1 0x40 MLOAD DUP1 SWAP2 SUB SWAP1 RETURN JUMPDEST PUSH2 0x123 PUSH1 0x4 DUP1 CALLDATASIZE SUB DUP2 ADD SWAP1 PUSH2 0x11E SWAP2 SWAP1 PUSH2 0xDDD JUMP JUMPDEST PUSH2 0x593 JUMP JUMPDEST STOP JUMPDEST PUSH2 0x12D PUSH2 0x7B8 JUMP JUMPDEST PUSH1 0x40 MLOAD PUSH2 0x13A SWAP2 SWAP1 PUSH2 0xEE3 JUMP JUMPDEST PUSH1 0x40 MLOAD DUP1 SWAP2 SUB SWAP1 RETURN JUMPDEST PUSH2 0x14B PUSH2 0x7CC JUMP JUMPDEST STOP JUMPDEST PUSH2 0x167 PUSH1 0x4 DUP1 CALLDATASIZE SUB DUP2 ADD SWAP1 PUSH2 0x162 SWAP2 SWAP1 PUSH2 0x1038 JUMP JUMPDEST PUSH2 0x9B2 JUMP JUMPDEST STOP JUMPDEST PUSH2 0x171 PUSH2 0xBE1 JUMP JUMPDEST PUSH1 0x40 MLOAD PUSH2 0x17E SWAP2 SWAP1 PUSH2 0x10BF JUMP JUMPDEST PUSH1 0x40 MLOAD DUP1 SWAP2 SUB SWAP1 RETURN JUMPDEST PUSH1 0x3 PUSH0 CALLER PUSH20 0xFFFFFFFFFFFFFFFFFFFFFFFFFFFFFFFFFFFFFFFF AND PUSH20 0xFFFFFFFFFFFFFFFFFFFFFFFFFFFFFFFFFFFFFFFF AND DUP2 MSTORE PUSH1 0x20 ADD SWAP1 DUP2 MSTORE PUSH1 0x20 ADD PUSH0 KECCAK256 PUSH0 SWAP1 SLOAD SWAP1 PUSH2 0x100 EXP SWAP1 DIV PUSH1 0xFF AND PUSH2 0x210 JUMPI PUSH1 0x40 MLOAD PUSH32 0x8C379A000000000000000000000000000000000000000000000000000000000 DUP2 MSTORE PUSH1 0x4 ADD PUSH2 0x207 SWAP1 PUSH2 0x1132 JUMP JUMPDEST PUSH1 0x40 MLOAD DUP1 SWAP2 SUB SWAP1 REVERT JUMPDEST PUSH0 PUSH1 0x1 SWAP1 SLOAD SWAP1 PUSH2 0x100 EXP SWAP1 DIV PUSH20 0xFFFFFFFFFFFFFFFFFFFFFFFFFFFFFFFFFFFFFFFF AND PUSH20 0xFFFFFFFFFFFFFFFFFFFFFFFFFFFFFFFFFFFFFFFF AND DUP2 PUSH20 0xFFFFFFFFFFFFFFFFFFFFFFFFFFFFFFFFFFFFFFFF AND SUB PUSH2 0x29F JUMPI PUSH1 0x40 MLOAD PUSH32 0x8C379A000000000000000000000000000000000000000000000000000000000 DUP2 MSTORE PUSH1 0x4 ADD PUSH2 0x296 SWAP1 PUSH2 0x119A JUMP JUMPDEST PUSH1 0x40 MLOAD DUP1 SWAP2 SUB SWAP1 REVERT JUMPDEST PUSH0 PUSH1 0x2 PUSH0 PUSH0 PUSH1 0x1 SWAP1 SLOAD SWAP1 PUSH2 0x100 EXP SWAP1 DIV PUSH20 0xFFFFFFFFFFFFFFFFFFFFFFFFFFFFFFFFFFFFFFFF AND PUSH20 0xFFFFFFFFFFFFFFFFFFFFFFFFFFFFFFFFFFFFFFFF AND PUSH20 0xFFFFFFFFFFFFFFFFFFFFFFFFFFFFFFFFFFFFFFFF AND DUP2 MSTORE PUSH1 0x20 ADD SWAP1 DUP2 MSTORE PUSH1 0x20 ADD PUSH0 KECCAK256 PUSH0 PUSH2 0x100 EXP DUP2 SLOAD DUP2 PUSH1 0xFF MUL NOT AND SWAP1 DUP4 ISZERO ISZERO MUL OR SWAP1 SSTORE POP DUP1 PUSH0 PUSH1 0x1 PUSH2 0x100 EXP DUP2 SLOAD DUP2 PUSH20 0xFFFFFFFFFFFFFFFFFFFFFFFFFFFFFFFFFFFFFFFF MUL NOT AND SWAP1 DUP4 PUSH20 0xFFFFFFFFFFFFFFFFFFFFFFFFFFFFFFFFFFFFFFFF AND MUL OR SWAP1 SSTORE POP PUSH1 0x1 PUSH1 0x2 PUSH0 DUP4 PUSH20 0xFFFFFFFFFFFFFFFFFFFFFFFFFFFFFFFFFFFFFFFF AND PUSH20 0xFFFFFFFFFFFFFFFFFFFFFFFFFFFFFFFFFFFFFFFF AND DUP2 MSTORE PUSH1 0x20 ADD SWAP1 DUP2 MSTORE PUSH1 0x20 ADD PUSH0 KECCAK256 PUSH0 PUSH2 0x100 EXP DUP2 SLOAD DUP2 PUSH1 0xFF MUL NOT AND SWAP1 DUP4 ISZERO ISZERO MUL OR SWAP1 SSTORE POP POP JUMP JUMPDEST PUSH1 0x2 PUSH0 CALLER PUSH20 0xFFFFFFFFFFFFFFFFFFFFFFFFFFFFFFFFFFFFFFFF AND PUSH20 0xFFFFFFFFFFFFFFFFFFFFFFFFFFFFFFFFFFFFFFFF AND DUP2 MSTORE PUSH1 0x20 ADD SWAP1 DUP2 MSTORE PUSH1 0x20 ADD PUSH0 KECCAK256 PUSH0 SWAP1 SLOAD SWAP1 PUSH2 0x100 EXP SWAP1 DIV PUSH1 0xFF AND PUSH2 0x435 JUMPI PUSH1 0x40 MLOAD PUSH32 0x8C379A000000000000000000000000000000000000000000000000000000000 DUP2 MSTORE PUSH1 0x4 ADD PUSH2 0x42C SWAP1 PUSH2 0x1202 JUMP JUMPDEST PUSH1 0x40 MLOAD DUP1 SWAP2 SUB SWAP1 REVERT JUMPDEST PUSH0 PUSH0 SWAP1 SLOAD SWAP1 PUSH2 0x100 EXP SWAP1 DIV PUSH1 0xFF AND ISZERO PUSH0 PUSH0 PUSH2 0x100 EXP DUP2 SLOAD DUP2 PUSH1 0xFF MUL NOT AND SWAP1 DUP4 ISZERO ISZERO MUL OR SWAP1 SSTORE POP JUMP JUMPDEST PUSH0 PUSH0 PUSH1 0x1 SWAP1 SLOAD SWAP1 PUSH2 0x100 EXP SWAP1 DIV PUSH20 0xFFFFFFFFFFFFFFFFFFFFFFFFFFFFFFFFFFFFFFFF AND SWAP1 POP SWAP1 JUMP JUMPDEST PUSH0 PUSH0 PUSH1 0x1E DUP4 SUB PUSH2 0x4C7 JUMPI PUSH2 0x3E8 PUSH1 0xF PUSH1 0x6 DUP6 DUP8 PUSH2 0x4A2 SWAP2 SWAP1 PUSH2 0x124D JUMP JUMPDEST PUSH2 0x4AC SWAP2 SWAP1 PUSH2 0x124D JUMP JUMPDEST PUSH2 0x4B6 SWAP2 SWAP1 PUSH2 0x124D JUMP JUMPDEST PUSH2 0x4C0 SWAP2 SWAP1 PUSH2 0x124D JUMP JUMPDEST SWAP1 POP PUSH2 0x589 JUMP JUMPDEST PUSH1 0x3C DUP4 SUB PUSH2 0x507 JUMPI PUSH2 0x3E8 PUSH1 0xD PUSH1 0x6 DUP6 DUP8 PUSH2 0x4E2 SWAP2 SWAP1 PUSH2 0x124D JUMP JUMPDEST PUSH2 0x4EC SWAP2 SWAP1 PUSH2 0x124D JUMP JUMPDEST PUSH2 0x4F6 SWAP2 SWAP1 PUSH2 0x124D JUMP JUMPDEST PUSH2 0x500 SWAP2 SWAP1 PUSH2 0x124D JUMP JUMPDEST SWAP1 POP PUSH2 0x588 JUMP JUMPDEST PUSH1 0x5A DUP4 SUB PUSH2 0x546 JUMPI PUSH1 0x64 PUSH1 0x7D PUSH1 0x6 DUP6 DUP8 PUSH2 0x521 SWAP2 SWAP1 PUSH2 0x124D JUMP JUMPDEST PUSH2 0x52B SWAP2 SWAP1 PUSH2 0x124D JUMP JUMPDEST PUSH2 0x535 SWAP2 SWAP1 PUSH2 0x124D JUMP JUMPDEST PUSH2 0x53F SWAP2 SWAP1 PUSH2 0x124D JUMP JUMPDEST SWAP1 POP PUSH2 0x587 JUMP JUMPDEST PUSH0 PUSH2 0x586 JUMPI PUSH1 0x40 MLOAD PUSH32 0x8C379A000000000000000000000000000000000000000000000000000000000 DUP2 MSTORE PUSH1 0x4 ADD PUSH2 0x57D SWAP1 PUSH2 0x12FE JUMP JUMPDEST PUSH1 0x40 MLOAD DUP1 SWAP2 SUB SWAP1 REVERT JUMPDEST JUMPDEST JUMPDEST JUMPDEST DUP1 SWAP2 POP POP SWAP3 SWAP2 POP POP JUMP JUMPDEST PUSH1 0x3 PUSH0 CALLER PUSH20 0xFFFFFFFFFFFFFFFFFFFFFFFFFFFFFFFFFFFFFFFF AND PUSH20 0xFFFFFFFFFFFFFFFFFFFFFFFFFFFFFFFFFFFFFFFF AND DUP2 MSTORE PUSH1 0x20 ADD SWAP1 DUP2 MSTORE PUSH1 0x20 ADD PUSH0 KECCAK256 PUSH0 SWAP1 SLOAD SWAP1 PUSH2 0x100 EXP SWAP1 DIV PUSH1 0xFF AND PUSH2 0x61C JUMPI PUSH1 0x40 MLOAD PUSH32 0x8C379A000000000000000000000000000000000000000000000000000000000 DUP2 MSTORE PUSH1 0x4 ADD PUSH2 0x613 SWAP1 PUSH2 0x1132 JUMP JUMPDEST PUSH1 0x40 MLOAD DUP1 SWAP2 SUB SWAP1 REVERT JUMPDEST PUSH1 0x1 PUSH0 SWAP1 SLOAD SWAP1 PUSH2 0x100 EXP SWAP1 DIV PUSH20 0xFFFFFFFFFFFFFFFFFFFFFFFFFFFFFFFFFFFFFFFF AND PUSH20 0xFFFFFFFFFFFFFFFFFFFFFFFFFFFFFFFFFFFFFFFF AND DUP2 PUSH20 0xFFFFFFFFFFFFFFFFFFFFFFFFFFFFFFFFFFFFFFFF AND SUB PUSH2 0x6AB JUMPI PUSH1 0x40 MLOAD PUSH32 0x8C379A000000000000000000000000000000000000000000000000000000000 DUP2 MSTORE PUSH1 0x4 ADD PUSH2 0x6A2 SWAP1 PUSH2 0x1366 JUMP JUMPDEST PUSH1 0x40 MLOAD DUP1 SWAP2 SUB SWAP1 REVERT JUMPDEST PUSH0 PUSH1 0x3 PUSH0 PUSH1 0x1 PUSH0 SWAP1 SLOAD SWAP1 PUSH2 0x100 EXP SWAP1 DIV PUSH20 0xFFFFFFFFFFFFFFFFFFFFFFFFFFFFFFFFFFFFFFFF AND PUSH20 0xFFFFFFFFFFFFFFFFFFFFFFFFFFFFFFFFFFFFFFFF AND PUSH20 0xFFFFFFFFFFFFFFFFFFFFFFFFFFFFFFFFFFFFFFFF AND DUP2 MSTORE PUSH1 0x20 ADD SWAP1 DUP2 MSTORE PUSH1 0x20 ADD PUSH0 KECCAK256 PUSH0 PUSH2 0x100 EXP DUP2 SLOAD DUP2 PUSH1 0xFF MUL NOT AND SWAP1 DUP4 ISZERO ISZERO MUL OR SWAP1 SSTORE POP DUP1 PUSH1 0x1 PUSH0 PUSH2 0x100 EXP DUP2 SLOAD DUP2 PUSH20 0xFFFFFFFFFFFFFFFFFFFFFFFFFFFFFFFFFFFFFFFF MUL NOT AND SWAP1 DUP4 PUSH20 0xFFFFFFFFFFFFFFFFFFFFFFFFFFFFFFFFFFFFFFFF AND MUL OR SWAP1 SSTORE POP PUSH1 0x1 PUSH1 0x3 PUSH0 DUP4 PUSH20 0xFFFFFFFFFFFFFFFFFFFFFFFFFFFFFFFFFFFFFFFF AND PUSH20 0xFFFFFFFFFFFFFFFFFFFFFFFFFFFFFFFFFFFFFFFF AND DUP2 MSTORE PUSH1 0x20 ADD SWAP1 DUP2 MSTORE PUSH1 0x20 ADD PUSH0 KECCAK256 PUSH0 PUSH2 0x100 EXP DUP2 SLOAD DUP2 PUSH1 0xFF MUL NOT AND SWAP1 DUP4 ISZERO ISZERO MUL OR SWAP1 SSTORE POP POP JUMP JUMPDEST PUSH0 PUSH0 PUSH0 SWAP1 SLOAD SWAP1 PUSH2 0x100 EXP SWAP1 DIV PUSH1 0xFF AND SWAP1 POP SWAP1 JUMP JUMPDEST PUSH1 0x2 PUSH0 CALLER PUSH20 0xFFFFFFFFFFFFFFFFFFFFFFFFFFFFFFFFFFFFFFFF AND PUSH20 0xFFFFFFFFFFFFFFFFFFFFFFFFFFFFFFFFFFFFFFFF AND DUP2 MSTORE PUSH1 0x20 ADD SWAP1 DUP2 MSTORE PUSH1 0x20 ADD PUSH0 KECCAK256 PUSH0 SWAP1 SLOAD SWAP1 PUSH2 0x100 EXP SWAP1 DIV PUSH1 0xFF AND PUSH2 0x855 JUMPI PUSH1 0x40 MLOAD PUSH32 0x8C379A000000000000000000000000000000000000000000000000000000000 DUP2 MSTORE PUSH1 0x4 ADD PUSH2 0x84C SWAP1 PUSH2 0x1202 JUMP JUMPDEST PUSH1 0x40 MLOAD DUP1 SWAP2 SUB SWAP1 REVERT JUMPDEST PUSH0 PUSH1 0x4 PUSH0 SWAP1 SLOAD SWAP1 PUSH2 0x100 EXP SWAP1 DIV PUSH20 0xFFFFFFFFFFFFFFFFFFFFFFFFFFFFFFFFFFFFFFFF AND PUSH20 0xFFFFFFFFFFFFFFFFFFFFFFFFFFFFFFFFFFFFFFFF AND PUSH4 0x70A08231 ADDRESS PUSH1 0x40 MLOAD DUP3 PUSH4 0xFFFFFFFF AND PUSH1 0xE0 SHL DUP2 MSTORE PUSH1 0x4 ADD PUSH2 0x8B0 SWAP2 SWAP1 PUSH2 0xE17 JUMP JUMPDEST PUSH1 0x20 PUSH1 0x40 MLOAD DUP1 DUP4 SUB DUP2 DUP7 GAS STATICCALL ISZERO DUP1 ISZERO PUSH2 0x8CB JUMPI RETURNDATASIZE PUSH0 PUSH0 RETURNDATACOPY RETURNDATASIZE PUSH0 REVERT JUMPDEST POP POP POP POP PUSH1 0x40 MLOAD RETURNDATASIZE PUSH1 0x1F NOT PUSH1 0x1F DUP3 ADD AND DUP3 ADD DUP1 PUSH1 0x40 MSTORE POP DUP2 ADD SWAP1 PUSH2 0x8EF SWAP2 SWAP1 PUSH2 0x1398 JUMP JUMPDEST SWAP1 POP PUSH1 0x4 PUSH0 SWAP1 SLOAD SWAP1 PUSH2 0x100 EXP SWAP1 DIV PUSH20 0xFFFFFFFFFFFFFFFFFFFFFFFFFFFFFFFFFFFFFFFF AND PUSH20 0xFFFFFFFFFFFFFFFFFFFFFFFFFFFFFFFFFFFFFFFF AND PUSH4 0xA9059CBB PUSH0 PUSH1 0x1 SWAP1 SLOAD SWAP1 PUSH2 0x100 EXP SWAP1 DIV PUSH20 0xFFFFFFFFFFFFFFFFFFFFFFFFFFFFFFFFFFFFFFFF AND DUP4 PUSH1 0x40 MLOAD DUP4 PUSH4 0xFFFFFFFF AND PUSH1 0xE0 SHL DUP2 MSTORE PUSH1 0x4 ADD PUSH2 0x96E SWAP3 SWAP2 SWAP1 PUSH2 0x13C3 JUMP JUMPDEST PUSH1 0x20 PUSH1 0x40 MLOAD DUP1 DUP4 SUB DUP2 PUSH0 DUP8 GAS CALL ISZERO DUP1 ISZERO PUSH2 0x98A JUMPI RETURNDATASIZE PUSH0 PUSH0 RETURNDATACOPY RETURNDATASIZE PUSH0 REVERT JUMPDEST POP POP POP POP PUSH1 0x40 MLOAD RETURNDATASIZE PUSH1 0x1F NOT PUSH1 0x1F DUP3 ADD AND DUP3 ADD DUP1 PUSH1 0x40 MSTORE POP DUP2 ADD SWAP1 PUSH2 0x9AE SWAP2 SWAP1 PUSH2 0x1414 JUMP JUMPDEST POP POP JUMP JUMPDEST PUSH0 PUSH2 0x9BD DUP4 DUP4 PUSH2 0xC7A JUMP JUMPDEST SWAP1 POP PUSH0 PUSH1 0x4 PUSH0 SWAP1 SLOAD SWAP1 PUSH2 0x100 EXP SWAP1 DIV PUSH20 0xFFFFFFFFFFFFFFFFFFFFFFFFFFFFFFFFFFFFFFFF AND PUSH20 0xFFFFFFFFFFFFFFFFFFFFFFFFFFFFFFFFFFFFFFFF AND PUSH4 0x23B872DD CALLER ADDRESS DUP6 PUSH1 0x40 MLOAD DUP5 PUSH4 0xFFFFFFFF AND PUSH1 0xE0 SHL DUP2 MSTORE PUSH1 0x4 ADD PUSH2 0xA1E SWAP4 SWAP3 SWAP2 SWAP1 PUSH2 0x143F JUMP JUMPDEST PUSH1 0x20 PUSH1 0x40 MLOAD DUP1 DUP4 SUB DUP2 PUSH0 DUP8 GAS CALL ISZERO DUP1 ISZERO PUSH2 0xA3A JUMPI RETURNDATASIZE PUSH0 PUSH0 RETURNDATACOPY RETURNDATASIZE PUSH0 REVERT JUMPDEST POP POP POP POP PUSH1 0x40 MLOAD RETURNDATASIZE PUSH1 0x1F NOT PUSH1 0x1F DUP3 ADD AND DUP3 ADD DUP1 PUSH1 0x40 MSTORE POP DUP2 ADD SWAP1 PUSH2 0xA5E SWAP2 SWAP1 PUSH2 0x1414 JUMP JUMPDEST SWAP1 POP DUP1 PUSH2 0xAA0 JUMPI PUSH1 0x40 MLOAD PUSH32 0x8C379A000000000000000000000000000000000000000000000000000000000 DUP2 MSTORE PUSH1 0x4 ADD PUSH2 0xA97 SWAP1 PUSH2 0x14BE JUMP JUMPDEST PUSH1 0x40 MLOAD DUP1 SWAP2 SUB SWAP1 REVERT JUMPDEST PUSH0 PUSH0 SWAP1 SLOAD SWAP1 PUSH2 0x100 EXP SWAP1 DIV PUSH1 0xFF AND ISZERO PUSH2 0xB72 JUMPI PUSH1 0x4 PUSH0 SWAP1 SLOAD SWAP1 PUSH2 0x100 EXP SWAP1 DIV PUSH20 0xFFFFFFFFFFFFFFFFFFFFFFFFFFFFFFFFFFFFFFFF AND PUSH20 0xFFFFFFFFFFFFFFFFFFFFFFFFFFFFFFFFFFFFFFFF AND PUSH4 0xA9059CBB PUSH0 PUSH1 0x1 SWAP1 SLOAD SWAP1 PUSH2 0x100 EXP SWAP1 DIV PUSH20 0xFFFFFFFFFFFFFFFFFFFFFFFFFFFFFFFFFFFFFFFF AND DUP5 PUSH1 0x40 MLOAD DUP4 PUSH4 0xFFFFFFFF AND PUSH1 0xE0 SHL DUP2 MSTORE PUSH1 0x4 ADD PUSH2 0xB30 SWAP3 SWAP2 SWAP1 PUSH2 0x13C3 JUMP JUMPDEST PUSH1 0x20 PUSH1 0x40 MLOAD DUP1 DUP4 SUB DUP2 PUSH0 DUP8 GAS CALL ISZERO DUP1 ISZERO PUSH2 0xB4C JUMPI RETURNDATASIZE PUSH0 PUSH0 RETURNDATACOPY RETURNDATASIZE PUSH0 REVERT JUMPDEST POP POP POP POP PUSH1 0x40 MLOAD RETURNDATASIZE PUSH1 0x1F NOT PUSH1 0x1F DUP3 ADD AND DUP3 ADD DUP1 PUSH1 0x40 MSTORE POP DUP2 ADD SWAP1 PUSH2 0xB70 SWAP2 SWAP1 PUSH2 0x1414 JUMP JUMPDEST POP JUMPDEST CALLER PUSH20 0xFFFFFFFFFFFFFFFFFFFFFFFFFFFFFFFFFFFFFFFF AND DUP6 PUSH1 0x40 MLOAD PUSH2 0xB97 SWAP2 SWAP1 PUSH2 0x152E JUMP JUMPDEST PUSH1 0x40 MLOAD DUP1 SWAP2 SUB SWAP1 KECCAK256 PUSH32 0x777245FE086E9196D417837D8B9203AA8D04849E4A0D310A7C52EAEAD4D4ECD2 DUP7 DUP7 DUP7 PUSH1 0x40 MLOAD PUSH2 0xBD2 SWAP4 SWAP3 SWAP2 SWAP1 PUSH2 0x1544 JUMP JUMPDEST PUSH1 0x40 MLOAD DUP1 SWAP2 SUB SWAP1 LOG3 POP POP POP POP POP JUMP JUMPDEST PUSH0 PUSH0 PUSH1 0x4 PUSH0 SWAP1 SLOAD SWAP1 PUSH2 0x100 EXP SWAP1 DIV PUSH20 0xFFFFFFFFFFFFFFFFFFFFFFFFFFFFFFFFFFFFFFFF AND PUSH20 0xFFFFFFFFFFFFFFFFFFFFFFFFFFFFFFFFFFFFFFFF AND PUSH4 0x313CE567 PUSH1 0x40 MLOAD DUP2 PUSH4 0xFFFFFFFF AND PUSH1 0xE0 SHL DUP2 MSTORE PUSH1 0x4 ADD PUSH1 0x20 PUSH1 0x40 MLOAD DUP1 DUP4 SUB DUP2 DUP7 GAS STATICCALL ISZERO DUP1 ISZERO PUSH2 0xC4D JUMPI RETURNDATASIZE PUSH0 PUSH0 RETURNDATACOPY RETURNDATASIZE PUSH0 REVERT JUMPDEST POP POP POP POP PUSH1 0x40 MLOAD RETURNDATASIZE PUSH1 0x1F NOT PUSH1 0x1F DUP3 ADD AND DUP3 ADD DUP1 PUSH1 0x40 MSTORE POP DUP2 ADD SWAP1 PUSH2 0xC71 SWAP2 SWAP1 PUSH2 0x15A3 JUMP JUMPDEST SWAP1 POP DUP1 SWAP2 POP POP SWAP1 JUMP JUMPDEST PUSH0 PUSH0 PUSH2 0xC86 DUP5 DUP5 PUSH2 0x485 JUMP JUMPDEST SWAP1 POP PUSH0 PUSH1 0x4 PUSH0 SWAP1 SLOAD SWAP1 PUSH2 0x100 EXP SWAP1 DIV PUSH20 0xFFFFFFFFFFFFFFFFFFFFFFFFFFFFFFFFFFFFFFFF AND PUSH20 0xFFFFFFFFFFFFFFFFFFFFFFFFFFFFFFFFFFFFFFFF AND PUSH4 0x95EA7B3 CALLER DUP5 PUSH1 0x40 MLOAD DUP4 PUSH4 0xFFFFFFFF AND PUSH1 0xE0 SHL DUP2 MSTORE PUSH1 0x4 ADD PUSH2 0xCE5 SWAP3 SWAP2 SWAP1 PUSH2 0x13C3 JUMP JUMPDEST PUSH1 0x20 PUSH1 0x40 MLOAD DUP1 DUP4 SUB DUP2 PUSH0 DUP8 GAS CALL ISZERO DUP1 ISZERO PUSH2 0xD01 JUMPI RETURNDATASIZE PUSH0 PUSH0 RETURNDATACOPY RETURNDATASIZE PUSH0 REVERT JUMPDEST POP POP POP POP PUSH1 0x40 MLOAD RETURNDATASIZE PUSH1 0x1F NOT PUSH1 0x1F DUP3 ADD AND DUP3 ADD DUP1 PUSH1 0x40 MSTORE POP DUP2 ADD SWAP1 PUSH2 0xD25 SWAP2 SWAP1 PUSH2 0x1414 JUMP JUMPDEST SWAP1 POP DUP1 PUSH2 0xD67 JUMPI PUSH1 0x40 MLOAD PUSH32 0x8C379A000000000000000000000000000000000000000000000000000000000 DUP2 MSTORE PUSH1 0x4 ADD PUSH2 0xD5E SWAP1 PUSH2 0x1618 JUMP JUMPDEST PUSH1 0x40 MLOAD DUP1 SWAP2 SUB SWAP1 REVERT JUMPDEST DUP2 SWAP3 POP POP POP SWAP3 SWAP2 POP POP JUMP JUMPDEST PUSH0 PUSH1 0x40 MLOAD SWAP1 POP SWAP1 JUMP JUMPDEST PUSH0 PUSH0 REVERT JUMPDEST PUSH0 PUSH0 REVERT JUMPDEST PUSH0 PUSH20 0xFFFFFFFFFFFFFFFFFFFFFFFFFFFFFFFFFFFFFFFF DUP3 AND SWAP1 POP SWAP2 SWAP1 POP JUMP JUMPDEST PUSH0 PUSH2 0xDAC DUP3 PUSH2 0xD83 JUMP JUMPDEST SWAP1 POP SWAP2 SWAP1 POP JUMP JUMPDEST PUSH2 0xDBC DUP2 PUSH2 0xDA2 JUMP JUMPDEST DUP2 EQ PUSH2 0xDC6 JUMPI PUSH0 PUSH0 REVERT JUMPDEST POP JUMP JUMPDEST PUSH0 DUP2 CALLDATALOAD SWAP1 POP PUSH2 0xDD7 DUP2 PUSH2 0xDB3 JUMP JUMPDEST SWAP3 SWAP2 POP POP JUMP JUMPDEST PUSH0 PUSH1 0x20 DUP3 DUP5 SUB SLT ISZERO PUSH2 0xDF2 JUMPI PUSH2 0xDF1 PUSH2 0xD7B JUMP JUMPDEST JUMPDEST PUSH0 PUSH2 0xDFF DUP5 DUP3 DUP6 ADD PUSH2 0xDC9 JUMP JUMPDEST SWAP2 POP POP SWAP3 SWAP2 POP POP JUMP JUMPDEST PUSH2 0xE11 DUP2 PUSH2 0xDA2 JUMP JUMPDEST DUP3 MSTORE POP POP JUMP JUMPDEST PUSH0 PUSH1 0x20 DUP3 ADD SWAP1 POP PUSH2 0xE2A PUSH0 DUP4 ADD DUP5 PUSH2 0xE08 JUMP JUMPDEST SWAP3 SWAP2 POP POP JUMP JUMPDEST PUSH0 DUP2 SWAP1 POP SWAP2 SWAP1 POP JUMP JUMPDEST PUSH2 0xE42 DUP2 PUSH2 0xE30 JUMP JUMPDEST DUP2 EQ PUSH2 0xE4C JUMPI PUSH0 PUSH0 REVERT JUMPDEST POP JUMP JUMPDEST PUSH0 DUP2 CALLDATALOAD SWAP1 POP PUSH2 0xE5D DUP2 PUSH2 0xE39 JUMP JUMPDEST SWAP3 SWAP2 POP POP JUMP JUMPDEST PUSH0 PUSH0 PUSH1 0x40 DUP4 DUP6 SUB SLT ISZERO PUSH2 0xE79 JUMPI PUSH2 0xE78 PUSH2 0xD7B JUMP JUMPDEST JUMPDEST PUSH0 PUSH2 0xE86 DUP6 DUP3 DUP7 ADD PUSH2 0xE4F JUMP JUMPDEST SWAP3 POP POP PUSH1 0x20 PUSH2 0xE97 DUP6 DUP3 DUP7 ADD PUSH2 0xE4F JUMP JUMPDEST SWAP2 POP POP SWAP3 POP SWAP3 SWAP1 POP JUMP JUMPDEST PUSH2 0xEAA DUP2 PUSH2 0xE30 JUMP JUMPDEST DUP3 MSTORE POP POP JUMP JUMPDEST PUSH0 PUSH1 0x20 DUP3 ADD SWAP1 POP PUSH2 0xEC3 PUSH0 DUP4 ADD DUP5 PUSH2 0xEA1 JUMP JUMPDEST SWAP3 SWAP2 POP POP JUMP JUMPDEST PUSH0 DUP2 ISZERO ISZERO SWAP1 POP SWAP2 SWAP1 POP JUMP JUMPDEST PUSH2 0xEDD DUP2 PUSH2 0xEC9 JUMP JUMPDEST DUP3 MSTORE POP POP JUMP JUMPDEST PUSH0 PUSH1 0x20 DUP3 ADD SWAP1 POP PUSH2 0xEF6 PUSH0 DUP4 ADD DUP5 PUSH2 0xED4 JUMP JUMPDEST SWAP3 SWAP2 POP POP JUMP JUMPDEST PUSH0 PUSH0 REVERT JUMPDEST PUSH0 PUSH0 REVERT JUMPDEST PUSH0 PUSH1 0x1F NOT PUSH1 0x1F DUP4 ADD AND SWAP1 POP SWAP2 SWAP1 POP JUMP JUMPDEST PUSH32 0x4E487B7100000000000000000000000000000000000000000000000000000000 PUSH0 MSTORE PUSH1 0x41 PUSH1 0x4 MSTORE PUSH1 0x24 PUSH0 REVERT JUMPDEST PUSH2 0xF4A DUP3 PUSH2 0xF04 JUMP JUMPDEST DUP2 ADD DUP2 DUP2 LT PUSH8 0xFFFFFFFFFFFFFFFF DUP3 GT OR ISZERO PUSH2 0xF69 JUMPI PUSH2 0xF68 PUSH2 0xF14 JUMP JUMPDEST JUMPDEST DUP1 PUSH1 0x40 MSTORE POP POP POP JUMP JUMPDEST PUSH0 PUSH2 0xF7B PUSH2 0xD72 JUMP JUMPDEST SWAP1 POP PUSH2 0xF87 DUP3 DUP3 PUSH2 0xF41 JUMP JUMPDEST SWAP2 SWAP1 POP JUMP JUMPDEST PUSH0 PUSH8 0xFFFFFFFFFFFFFFFF DUP3 GT ISZERO PUSH2 0xFA6 JUMPI PUSH2 0xFA5 PUSH2 0xF14 JUMP JUMPDEST JUMPDEST PUSH2 0xFAF DUP3 PUSH2 0xF04 JUMP JUMPDEST SWAP1 POP PUSH1 0x20 DUP2 ADD SWAP1 POP SWAP2 SWAP1 POP JUMP JUMPDEST DUP3 DUP2 DUP4 CALLDATACOPY PUSH0 DUP4 DUP4 ADD MSTORE POP POP POP JUMP JUMPDEST PUSH0 PUSH2 0xFDC PUSH2 0xFD7 DUP5 PUSH2 0xF8C JUMP JUMPDEST PUSH2 0xF72 JUMP JUMPDEST SWAP1 POP DUP3 DUP2 MSTORE PUSH1 0x20 DUP2 ADD DUP5 DUP5 DUP5 ADD GT ISZERO PUSH2 0xFF8 JUMPI PUSH2 0xFF7 PUSH2 0xF00 JUMP JUMPDEST JUMPDEST PUSH2 0x1003 DUP5 DUP3 DUP6 PUSH2 0xFBC JUMP JUMPDEST POP SWAP4 SWAP3 POP POP POP JUMP JUMPDEST PUSH0 DUP3 PUSH1 0x1F DUP4 ADD SLT PUSH2 0x101F JUMPI PUSH2 0x101E PUSH2 0xEFC JUMP JUMPDEST JUMPDEST DUP2 CALLDATALOAD PUSH2 0x102F DUP5 DUP3 PUSH1 0x20 DUP7 ADD PUSH2 0xFCA JUMP JUMPDEST SWAP2 POP POP SWAP3 SWAP2 POP POP JUMP JUMPDEST PUSH0 PUSH0 PUSH0 PUSH1 0x60 DUP5 DUP7 SUB SLT ISZERO PUSH2 0x104F JUMPI PUSH2 0x104E PUSH2 0xD7B JUMP JUMPDEST JUMPDEST PUSH0 DUP5 ADD CALLDATALOAD PUSH8 0xFFFFFFFFFFFFFFFF DUP2 GT ISZERO PUSH2 0x106C JUMPI PUSH2 0x106B PUSH2 0xD7F JUMP JUMPDEST JUMPDEST PUSH2 0x1078 DUP7 DUP3 DUP8 ADD PUSH2 0x100B JUMP JUMPDEST SWAP4 POP POP PUSH1 0x20 PUSH2 0x1089 DUP7 DUP3 DUP8 ADD PUSH2 0xE4F JUMP JUMPDEST SWAP3 POP POP PUSH1 0x40 PUSH2 0x109A DUP7 DUP3 DUP8 ADD PUSH2 0xE4F JUMP JUMPDEST SWAP2 POP POP SWAP3 POP SWAP3 POP SWAP3 JUMP JUMPDEST PUSH0 PUSH1 0xFF DUP3 AND SWAP1 POP SWAP2 SWAP1 POP JUMP JUMPDEST PUSH2 0x10B9 DUP2 PUSH2 0x10A4 JUMP JUMPDEST DUP3 MSTORE POP POP JUMP JUMPDEST PUSH0 PUSH1 0x20 DUP3 ADD SWAP1 POP PUSH2 0x10D2 PUSH0 DUP4 ADD DUP5 PUSH2 0x10B0 JUMP JUMPDEST SWAP3 SWAP2 POP POP JUMP JUMPDEST PUSH0 DUP3 DUP3 MSTORE PUSH1 0x20 DUP3 ADD SWAP1 POP SWAP3 SWAP2 POP POP JUMP JUMPDEST PUSH32 0x4F6E6C792074686520636F6E74726F6C6C65722063616E207573650000000000 PUSH0 DUP3 ADD MSTORE POP JUMP JUMPDEST PUSH0 PUSH2 0x111C PUSH1 0x1B DUP4 PUSH2 0x10D8 JUMP JUMPDEST SWAP2 POP PUSH2 0x1127 DUP3 PUSH2 0x10E8 JUMP JUMPDEST PUSH1 0x20 DUP3 ADD SWAP1 POP SWAP2 SWAP1 POP JUMP JUMPDEST PUSH0 PUSH1 0x20 DUP3 ADD SWAP1 POP DUP2 DUP2 SUB PUSH0 DUP4 ADD MSTORE PUSH2 0x1149 DUP2 PUSH2 0x1110 JUMP JUMPDEST SWAP1 POP SWAP2 SWAP1 POP JUMP JUMPDEST PUSH32 0x506C65617365207365742061206E6577206F776E65722E000000000000000000 PUSH0 DUP3 ADD MSTORE POP JUMP JUMPDEST PUSH0 PUSH2 0x1184 PUSH1 0x17 DUP4 PUSH2 0x10D8 JUMP JUMPDEST SWAP2 POP PUSH2 0x118F DUP3 PUSH2 0x1150 JUMP JUMPDEST PUSH1 0x20 DUP3 ADD SWAP1 POP SWAP2 SWAP1 POP JUMP JUMPDEST PUSH0 PUSH1 0x20 DUP3 ADD SWAP1 POP DUP2 DUP2 SUB PUSH0 DUP4 ADD MSTORE PUSH2 0x11B1 DUP2 PUSH2 0x1178 JUMP JUMPDEST SWAP1 POP SWAP2 SWAP1 POP JUMP JUMPDEST PUSH32 0x4F6E6C7920746865206F776E65722063616E2075736500000000000000000000 PUSH0 DUP3 ADD MSTORE POP JUMP JUMPDEST PUSH0 PUSH2 0x11EC PUSH1 0x16 DUP4 PUSH2 0x10D8 JUMP JUMPDEST SWAP2 POP PUSH2 0x11F7 DUP3 PUSH2 0x11B8 JUMP JUMPDEST PUSH1 0x20 DUP3 ADD SWAP1 POP SWAP2 SWAP1 POP JUMP JUMPDEST PUSH0 PUSH1 0x20 DUP3 ADD SWAP1 POP DUP2 DUP2 SUB PUSH0 DUP4 ADD MSTORE PUSH2 0x1219 DUP2 PUSH2 0x11E0 JUMP JUMPDEST SWAP1 POP SWAP2 SWAP1 POP JUMP JUMPDEST PUSH32 0x4E487B7100000000000000000000000000000000000000000000000000000000 PUSH0 MSTORE PUSH1 0x11 PUSH1 0x4 MSTORE PUSH1 0x24 PUSH0 REVERT JUMPDEST PUSH0 PUSH2 0x1257 DUP3 PUSH2 0xE30 JUMP JUMPDEST SWAP2 POP PUSH2 0x1262 DUP4 PUSH2 0xE30 JUMP JUMPDEST SWAP3 POP DUP3 DUP3 MUL PUSH2 0x1270 DUP2 PUSH2 0xE30 JUMP JUMPDEST SWAP2 POP DUP3 DUP3 DIV DUP5 EQ DUP4 ISZERO OR PUSH2 0x1287 JUMPI PUSH2 0x1286 PUSH2 0x1220 JUMP JUMPDEST JUMPDEST POP SWAP3 SWAP2 POP POP JUMP JUMPDEST PUSH32 0x496E76616C696420646179732C206D7573742062652033302C203630206F7220 PUSH0 DUP3 ADD MSTORE PUSH32 0x3930000000000000000000000000000000000000000000000000000000000000 PUSH1 0x20 DUP3 ADD MSTORE POP JUMP JUMPDEST PUSH0 PUSH2 0x12E8 PUSH1 0x22 DUP4 PUSH2 0x10D8 JUMP JUMPDEST SWAP2 POP PUSH2 0x12F3 DUP3 PUSH2 0x128E JUMP JUMPDEST PUSH1 0x40 DUP3 ADD SWAP1 POP SWAP2 SWAP1 POP JUMP JUMPDEST PUSH0 PUSH1 0x20 DUP3 ADD SWAP1 POP DUP2 DUP2 SUB PUSH0 DUP4 ADD MSTORE PUSH2 0x1315 DUP2 PUSH2 0x12DC JUMP JUMPDEST SWAP1 POP SWAP2 SWAP1 POP JUMP JUMPDEST PUSH32 0x506C65617365207365742061206E657720636F6E74726F6C6C65722E00000000 PUSH0 DUP3 ADD MSTORE POP JUMP JUMPDEST PUSH0 PUSH2 0x1350 PUSH1 0x1C DUP4 PUSH2 0x10D8 JUMP JUMPDEST SWAP2 POP PUSH2 0x135B DUP3 PUSH2 0x131C JUMP JUMPDEST PUSH1 0x20 DUP3 ADD SWAP1 POP SWAP2 SWAP1 POP JUMP JUMPDEST PUSH0 PUSH1 0x20 DUP3 ADD SWAP1 POP DUP2 DUP2 SUB PUSH0 DUP4 ADD MSTORE PUSH2 0x137D DUP2 PUSH2 0x1344 JUMP JUMPDEST SWAP1 POP SWAP2 SWAP1 POP JUMP JUMPDEST PUSH0 DUP2 MLOAD SWAP1 POP PUSH2 0x1392 DUP2 PUSH2 0xE39 JUMP JUMPDEST SWAP3 SWAP2 POP POP JUMP JUMPDEST PUSH0 PUSH1 0x20 DUP3 DUP5 SUB SLT ISZERO PUSH2 0x13AD JUMPI PUSH2 0x13AC PUSH2 0xD7B JUMP JUMPDEST JUMPDEST PUSH0 PUSH2 0x13BA DUP5 DUP3 DUP6 ADD PUSH2 0x1384 JUMP JUMPDEST SWAP2 POP POP SWAP3 SWAP2 POP POP JUMP JUMPDEST PUSH0 PUSH1 0x40 DUP3 ADD SWAP1 POP PUSH2 0x13D6 PUSH0 DUP4 ADD DUP6 PUSH2 0xE08 JUMP JUMPDEST PUSH2 0x13E3 PUSH1 0x20 DUP4 ADD DUP5 PUSH2 0xEA1 JUMP JUMPDEST SWAP4 SWAP3 POP POP POP JUMP JUMPDEST PUSH2 0x13F3 DUP2 PUSH2 0xEC9 JUMP JUMPDEST DUP2 EQ PUSH2 0x13FD JUMPI PUSH0 PUSH0 REVERT JUMPDEST POP JUMP JUMPDEST PUSH0 DUP2 MLOAD SWAP1 POP PUSH2 0x140E DUP2 PUSH2 0x13EA JUMP JUMPDEST SWAP3 SWAP2 POP POP JUMP JUMPDEST PUSH0 PUSH1 0x20 DUP3 DUP5 SUB SLT ISZERO PUSH2 0x1429 JUMPI PUSH2 0x1428 PUSH2 0xD7B JUMP JUMPDEST JUMPDEST PUSH0 PUSH2 0x1436 DUP5 DUP3 DUP6 ADD PUSH2 0x1400 JUMP JUMPDEST SWAP2 POP POP SWAP3 SWAP2 POP POP JUMP JUMPDEST PUSH0 PUSH1 0x60 DUP3 ADD SWAP1 POP PUSH2 0x1452 PUSH0 DUP4 ADD DUP7 PUSH2 0xE08 JUMP JUMPDEST PUSH2 0x145F PUSH1 0x20 DUP4 ADD DUP6 PUSH2 0xE08 JUMP JUMPDEST PUSH2 0x146C PUSH1 0x40 DUP4 ADD DUP5 PUSH2 0xEA1 JUMP JUMPDEST SWAP5 SWAP4 POP POP POP POP JUMP JUMPDEST PUSH32 0x55534454207472616E73666572206661696C6564000000000000000000000000 PUSH0 DUP3 ADD MSTORE POP JUMP JUMPDEST PUSH0 PUSH2 0x14A8 PUSH1 0x14 DUP4 PUSH2 0x10D8 JUMP JUMPDEST SWAP2 POP PUSH2 0x14B3 DUP3 PUSH2 0x1474 JUMP JUMPDEST PUSH1 0x20 DUP3 ADD SWAP1 POP SWAP2 SWAP1 POP JUMP JUMPDEST PUSH0 PUSH1 0x20 DUP3 ADD SWAP1 POP DUP2 DUP2 SUB PUSH0 DUP4 ADD MSTORE PUSH2 0x14D5 DUP2 PUSH2 0x149C JUMP JUMPDEST SWAP1 POP SWAP2 SWAP1 POP JUMP JUMPDEST PUSH0 DUP2 MLOAD SWAP1 POP SWAP2 SWAP1 POP JUMP JUMPDEST PUSH0 DUP2 SWAP1 POP SWAP3 SWAP2 POP POP JUMP JUMPDEST DUP3 DUP2 DUP4 MCOPY PUSH0 DUP4 DUP4 ADD MSTORE POP POP POP JUMP JUMPDEST PUSH0 PUSH2 0x1508 DUP3 PUSH2 0x14DC JUMP JUMPDEST PUSH2 0x1512 DUP2 DUP6 PUSH2 0x14E6 JUMP JUMPDEST SWAP4 POP PUSH2 0x1522 DUP2 DUP6 PUSH1 0x20 DUP7 ADD PUSH2 0x14F0 JUMP JUMPDEST DUP1 DUP5 ADD SWAP2 POP POP SWAP3 SWAP2 POP POP JUMP JUMPDEST PUSH0 PUSH2 0x1539 DUP3 DUP5 PUSH2 0x14FE JUMP JUMPDEST SWAP2 POP DUP2 SWAP1 POP SWAP3 SWAP2 POP POP JUMP JUMPDEST PUSH0 PUSH1 0x60 DUP3 ADD SWAP1 POP PUSH2 0x1557 PUSH0 DUP4 ADD DUP7 PUSH2 0xEA1 JUMP JUMPDEST PUSH2 0x1564 PUSH1 0x20 DUP4 ADD DUP6 PUSH2 0xEA1 JUMP JUMPDEST PUSH2 0x1571 PUSH1 0x40 DUP4 ADD DUP5 PUSH2 0xEA1 JUMP JUMPDEST SWAP5 SWAP4 POP POP POP POP JUMP JUMPDEST PUSH2 0x1582 DUP2 PUSH2 0x10A4 JUMP JUMPDEST DUP2 EQ PUSH2 0x158C JUMPI PUSH0 PUSH0 REVERT JUMPDEST POP JUMP JUMPDEST PUSH0 DUP2 MLOAD SWAP1 POP PUSH2 0x159D DUP2 PUSH2 0x1579 JUMP JUMPDEST SWAP3 SWAP2 POP POP JUMP JUMPDEST PUSH0 PUSH1 0x20 DUP3 DUP5 SUB SLT ISZERO PUSH2 0x15B8 JUMPI PUSH2 0x15B7 PUSH2 0xD7B JUMP JUMPDEST JUMPDEST PUSH0 PUSH2 0x15C5 DUP5 DUP3 DUP6 ADD PUSH2 0x158F JUMP JUMPDEST SWAP2 POP POP SWAP3 SWAP2 POP POP JUMP JUMPDEST PUSH32 0x5553445420617070726F7665206661696C656400000000000000000000000000 PUSH0 DUP3 ADD MSTORE POP JUMP JUMPDEST PUSH0 PUSH2 0x1602 PUSH1 0x13 DUP4 PUSH2 0x10D8 JUMP JUMPDEST SWAP2 POP PUSH2 0x160D DUP3 PUSH2 0x15CE JUMP JUMPDEST PUSH1 0x20 DUP3 ADD SWAP1 POP SWAP2 SWAP1 POP JUMP JUMPDEST PUSH0 PUSH1 0x20 DUP3 ADD SWAP1 POP DUP2 DUP2 SUB PUSH0 DUP4 ADD MSTORE PUSH2 0x162F DUP2 PUSH2 0x15F6 JUMP JUMPDEST SWAP1 POP SWAP2 SWAP1 POP JUMP INVALID LOG2 PUSH5 0x6970667358 0x22 SLT KECCAK256 0xB4 0xE3 SWAP16 0xA9 PUSH14 0xAC1995179BB2DA7EDB0238C2FBF1 CALLVALUE 0xAF REVERT 0xFC JUMPI DUP4 0x2E DUP16 SWAP1 SWAP9 0xD2 0x4B 0xC8 PUSH5 0x736F6C6343 STOP ADDMOD SHL STOP CALLER "
				},
				"gasEstimates": {
					"creation": {
						"codeDepositCost": "1148000",
						"executionCost": "infinite",
						"totalCost": "infinite"
					},
					"external": {
						"calculate(uint256,uint256)": "infinite",
						"getDecimals()": "infinite",
						"getOwner()": "2610",
						"getSendSwitch()": "2494",
						"sendSwitch()": "28807",
						"setController(address)": "79966",
						"setOwner(address)": "80117",
						"usdtReceive(bytes,uint256,uint256)": "infinite",
						"usdtWithdraw()": "infinite"
					},
					"internal": {
						"usdtApprove(uint256,uint256)": "infinite"
					}
				},
				"methodIdentifiers": {
					"calculate(uint256,uint256)": "8dfa4363",
					"getDecimals()": "f0141d84",
					"getOwner()": "893d20e8",
					"getSendSwitch()": "a75e1ecf",
					"sendSwitch()": "84c02ba9",
					"setController(address)": "92eefe9b",
					"setOwner(address)": "13af4035",
					"usdtReceive(bytes,uint256,uint256)": "ee2102fa",
					"usdtWithdraw()": "aad0e6eb"
				}
			},
			"storageLayout": {
				"storage": [
					{
						"astId": 82,
						"contract": "contracts/Market.sol:Market",
						"label": "sendToOwner",
						"offset": 0,
						"slot": "0",
						"type": "t_bool"
					},
					{
						"astId": 84,
						"contract": "contracts/Market.sol:Market",
						"label": "owner",
						"offset": 1,
						"slot": "0",
						"type": "t_address"
					},
					{
						"astId": 86,
						"contract": "contracts/Market.sol:Market",
						"label": "controller",
						"offset": 0,
						"slot": "1",
						"type": "t_address"
					},
					{
						"astId": 90,
						"contract": "contracts/Market.sol:Market",
						"label": "isOwner",
						"offset": 0,
						"slot": "2",
						"type": "t_mapping(t_address,t_bool)"
					},
					{
						"astId": 94,
						"contract": "contracts/Market.sol:Market",
						"label": "isController",
						"offset": 0,
						"slot": "3",
						"type": "t_mapping(t_address,t_bool)"
					},
					{
						"astId": 97,
						"contract": "contracts/Market.sol:Market",
						"label": "stableToken",
						"offset": 0,
						"slot": "4",
						"type": "t_contract(IERC20)43"
					}
				],
				"types": {
					"t_address": {
						"encoding": "inplace",
						"label": "address",
						"numberOfBytes": "20"
					},
					"t_bool": {
						"encoding": "inplace",
						"label": "bool",
						"numberOfBytes": "1"
					},
					"t_contract(IERC20)43": {
						"encoding": "inplace",
						"label": "contract IERC20",
						"numberOfBytes": "20"
					},
					"t_mapping(t_address,t_bool)": {
						"encoding": "mapping",
						"key": "t_address",
						"label": "mapping(address => bool)",
						"numberOfBytes": "32",
						"value": "t_bool"
					}
				}
			},
			"userdoc": {
				"kind": "user",
				"methods": {},
				"version": 1
			}
		}
	}
}