{
	"contracts/Controller.sol": {
		"Controller": {
			"abi": [
				{
					"inputs": [
						{
							"internalType": "address",
							"name": "_market",
							"type": "address"
						},
						{
							"internalType": "address[]",
							"name": "_admin",
							"type": "address[]"
						}
					],
					"stateMutability": "nonpayable",
					"type": "constructor"
				},
				{
					"anonymous": false,
					"inputs": [
						{
							"indexed": true,
							"internalType": "address",
							"name": "owner",
							"type": "address"
						},
						{
							"indexed": true,
							"internalType": "uint256",
							"name": "txIndex",
							"type": "uint256"
						}
					],
					"name": "ConfirmTransaction",
					"type": "event"
				},
				{
					"anonymous": false,
					"inputs": [
						{
							"indexed": true,
							"internalType": "address",
							"name": "owner",
							"type": "address"
						},
						{
							"indexed": true,
							"internalType": "uint256",
							"name": "txIndex",
							"type": "uint256"
						}
					],
					"name": "ExecuteTransaction",
					"type": "event"
				},
				{
					"anonymous": false,
					"inputs": [
						{
							"indexed": true,
							"internalType": "address",
							"name": "owner",
							"type": "address"
						},
						{
							"indexed": true,
							"internalType": "uint256",
							"name": "txIndex",
							"type": "uint256"
						}
					],
					"name": "RevokeConfirmation",
					"type": "event"
				},
				{
					"anonymous": false,
					"inputs": [
						{
							"indexed": true,
							"internalType": "address",
							"name": "owner",
							"type": "address"
						},
						{
							"indexed": true,
							"internalType": "uint256",
							"name": "txIndex",
							"type": "uint256"
						},
						{
							"indexed": false,
							"internalType": "bytes",
							"name": "data",
							"type": "bytes"
						}
					],
					"name": "SubmitTransaction",
					"type": "event"
				},
				{
					"inputs": [
						{
							"internalType": "address",
							"name": "_newOwner",
							"type": "address"
						}
					],
					"name": "commitSetOwner",
					"outputs": [
						{
							"internalType": "uint256",
							"name": "",
							"type": "uint256"
						}
					],
					"stateMutability": "nonpayable",
					"type": "function"
				},
				{
					"inputs": [
						{
							"internalType": "uint256",
							"name": "_txIndex",
							"type": "uint256"
						}
					],
					"name": "confirmTransaction",
					"outputs": [],
					"stateMutability": "nonpayable",
					"type": "function"
				},
				{
					"inputs": [],
					"name": "getTransactions",
					"outputs": [
						{
							"components": [
								{
									"internalType": "bytes",
									"name": "data",
									"type": "bytes"
								},
								{
									"internalType": "address",
									"name": "to",
									"type": "address"
								},
								{
									"internalType": "bool",
									"name": "executed",
									"type": "bool"
								},
								{
									"internalType": "bool",
									"name": "multi",
									"type": "bool"
								}
							],
							"internalType": "struct MultiSig.Transaction[]",
							"name": "",
							"type": "tuple[]"
						}
					],
					"stateMutability": "view",
					"type": "function"
				},
				{
					"inputs": [
						{
							"internalType": "uint256",
							"name": "_txIndex",
							"type": "uint256"
						}
					],
					"name": "revokeConfirmation",
					"outputs": [],
					"stateMutability": "nonpayable",
					"type": "function"
				},
				{
					"inputs": [
						{
							"internalType": "address[]",
							"name": "_admin",
							"type": "address[]"
						}
					],
					"name": "setAdministrators",
					"outputs": [],
					"stateMutability": "nonpayable",
					"type": "function"
				},
				{
					"inputs": [
						{
							"internalType": "uint256",
							"name": "_value",
							"type": "uint256"
						}
					],
					"name": "setConfirmationsRequired",
					"outputs": [],
					"stateMutability": "nonpayable",
					"type": "function"
				}
			],
			"devdoc": {
				"kind": "dev",
				"methods": {},
				"version": 1
			},
			"evm": {
				"assembly": "    /* \"contracts/Controller.sol\":103:2987  contract Controller {... */\n  mstore(0x40, 0x80)\n    /* \"contracts/Controller.sol\":762:1103  constructor(address _market, address[] memory _admin) {... */\n  callvalue\n  dup1\n  iszero\n  tag_1\n  jumpi\n  revert(0x00, 0x00)\ntag_1:\n  pop\n  mload(0x40)\n  sub(codesize, bytecodeSize)\n  dup1\n  bytecodeSize\n  dup4\n  codecopy\n  dup2\n  dup2\n  add\n  0x40\n  mstore\n  dup2\n  add\n  swap1\n  tag_2\n  swap2\n  swap1\n  tag_3\n  jump\t// in\ntag_2:\n    /* \"contracts/Controller.sol\":842:849  _market */\n  dup2\n    /* \"contracts/Controller.sol\":826:839  marketAddress */\n  0x01\n  0x00\n    /* \"contracts/Controller.sol\":826:849  marketAddress = _market */\n  0x0100\n  exp\n  dup2\n  sload\n  dup2\n  0xffffffffffffffffffffffffffffffffffffffff\n  mul\n  not\n  and\n  swap1\n  dup4\n  0xffffffffffffffffffffffffffffffffffffffff\n  and\n  mul\n  or\n  swap1\n  sstore\n  pop\n    /* \"contracts/Controller.sol\":865:876  uint8 index */\n  0x00\n    /* \"contracts/Controller.sol\":879:880  0 */\n  0x00\n    /* \"contracts/Controller.sol\":865:880  uint8 index = 0 */\n  swap1\n  pop\n    /* \"contracts/Controller.sol\":860:1097  for (uint8 index = 0; index < _admin.length; index++) {... */\ntag_6:\n    /* \"contracts/Controller.sol\":890:896  _admin */\n  dup2\n    /* \"contracts/Controller.sol\":890:903  _admin.length */\n  mload\n    /* \"contracts/Controller.sol\":882:887  index */\n  dup2\n    /* \"contracts/Controller.sol\":882:903  index < _admin.length */\n  0xff\n  and\n  lt\n    /* \"contracts/Controller.sol\":860:1097  for (uint8 index = 0; index < _admin.length; index++) {... */\n  iszero\n  tag_7\n  jumpi\n    /* \"contracts/Controller.sol\":933:948  isAdministrator */\n  0x05\n    /* \"contracts/Controller.sol\":933:963  isAdministrator[_admin[index]] */\n  0x00\n    /* \"contracts/Controller.sol\":949:955  _admin */\n  dup4\n    /* \"contracts/Controller.sol\":956:961  index */\n  dup4\n    /* \"contracts/Controller.sol\":949:962  _admin[index] */\n  0xff\n  and\n  dup2\n  mload\n  dup2\n  lt\n  tag_9\n  jumpi\n  tag_10\n  tag_11\n  jump\t// in\ntag_10:\ntag_9:\n  0x20\n  mul\n  0x20\n  add\n  add\n  mload\n    /* \"contracts/Controller.sol\":933:963  isAdministrator[_admin[index]] */\n  0xffffffffffffffffffffffffffffffffffffffff\n  and\n  0xffffffffffffffffffffffffffffffffffffffff\n  and\n  dup2\n  mstore\n  0x20\n  add\n  swap1\n  dup2\n  mstore\n  0x20\n  add\n  0x00\n  keccak256\n  0x00\n  swap1\n  sload\n  swap1\n  0x0100\n  exp\n  swap1\n  div\n  0xff\n  and\n    /* \"contracts/Controller.sol\":928:1087  if (!isAdministrator[_admin[index]]) {... */\n  tag_12\n  jumpi\n    /* \"contracts/Controller.sol\":983:997  administrators */\n  0x02\n    /* \"contracts/Controller.sol\":1003:1009  _admin */\n  dup3\n    /* \"contracts/Controller.sol\":1010:1015  index */\n  dup3\n    /* \"contracts/Controller.sol\":1003:1016  _admin[index] */\n  0xff\n  and\n  dup2\n  mload\n  dup2\n  lt\n  tag_13\n  jumpi\n  tag_14\n  tag_11\n  jump\t// in\ntag_14:\ntag_13:\n  0x20\n  mul\n  0x20\n  add\n  add\n  mload\n    /* \"contracts/Controller.sol\":983:1017  administrators.push(_admin[index]) */\n  swap1\n  dup1\n  0x01\n  dup2\n  sload\n  add\n  dup1\n  dup3\n  sstore\n  dup1\n  swap2\n  pop\n  pop\n  0x01\n  swap1\n  sub\n  swap1\n  0x00\n  mstore\n  keccak256(0x00, 0x20)\n  add\n  0x00\n  swap1\n  swap2\n  swap1\n  swap2\n  swap1\n  swap2\n  0x0100\n  exp\n  dup2\n  sload\n  dup2\n  0xffffffffffffffffffffffffffffffffffffffff\n  mul\n  not\n  and\n  swap1\n  dup4\n  0xffffffffffffffffffffffffffffffffffffffff\n  and\n  mul\n  or\n  swap1\n  sstore\n  pop\n    /* \"contracts/Controller.sol\":1068:1072  true */\n  0x01\n    /* \"contracts/Controller.sol\":1035:1050  isAdministrator */\n  0x05\n    /* \"contracts/Controller.sol\":1035:1065  isAdministrator[_admin[index]] */\n  0x00\n    /* \"contracts/Controller.sol\":1051:1057  _admin */\n  dup5\n    /* \"contracts/Controller.sol\":1058:1063  index */\n  dup5\n    /* \"contracts/Controller.sol\":1051:1064  _admin[index] */\n  0xff\n  and\n  dup2\n  mload\n  dup2\n  lt\n  tag_16\n  jumpi\n  tag_17\n  tag_11\n  jump\t// in\ntag_17:\ntag_16:\n  0x20\n  mul\n  0x20\n  add\n  add\n  mload\n    /* \"contracts/Controller.sol\":1035:1065  isAdministrator[_admin[index]] */\n  0xffffffffffffffffffffffffffffffffffffffff\n  and\n  0xffffffffffffffffffffffffffffffffffffffff\n  and\n  dup2\n  mstore\n  0x20\n  add\n  swap1\n  dup2\n  mstore\n  0x20\n  add\n  0x00\n  keccak256\n  0x00\n    /* \"contracts/Controller.sol\":1035:1072  isAdministrator[_admin[index]] = true */\n  0x0100\n  exp\n  dup2\n  sload\n  dup2\n  0xff\n  mul\n  not\n  and\n  swap1\n  dup4\n  iszero\n  iszero\n  mul\n  or\n  swap1\n  sstore\n  pop\n    /* \"contracts/Controller.sol\":928:1087  if (!isAdministrator[_admin[index]]) {... */\ntag_12:\n    /* \"contracts/Controller.sol\":905:912  index++ */\n  dup1\n  dup1\n  tag_18\n  swap1\n  tag_19\n  jump\t// in\ntag_18:\n  swap2\n  pop\n  pop\n    /* \"contracts/Controller.sol\":860:1097  for (uint8 index = 0; index < _admin.length; index++) {... */\n  jump(tag_6)\ntag_7:\n  pop\n    /* \"contracts/Controller.sol\":762:1103  constructor(address _market, address[] memory _admin) {... */\n  pop\n  pop\n    /* \"contracts/Controller.sol\":103:2987  contract Controller {... */\n  jump(tag_20)\n    /* \"#utility.yul\":7:82   */\ntag_21:\n    /* \"#utility.yul\":40:46   */\n  0x00\n    /* \"#utility.yul\":73:75   */\n  0x40\n    /* \"#utility.yul\":67:76   */\n  mload\n    /* \"#utility.yul\":57:76   */\n  swap1\n  pop\n    /* \"#utility.yul\":7:82   */\n  swap1\n  jump\t// out\n    /* \"#utility.yul\":88:205   */\ntag_22:\n    /* \"#utility.yul\":197:198   */\n  0x00\n    /* \"#utility.yul\":194:195   */\n  0x00\n    /* \"#utility.yul\":187:199   */\n  revert\n    /* \"#utility.yul\":211:328   */\ntag_23:\n    /* \"#utility.yul\":320:321   */\n  0x00\n    /* \"#utility.yul\":317:318   */\n  0x00\n    /* \"#utility.yul\":310:322   */\n  revert\n    /* \"#utility.yul\":334:460   */\ntag_24:\n    /* \"#utility.yul\":371:378   */\n  0x00\n    /* \"#utility.yul\":411:453   */\n  0xffffffffffffffffffffffffffffffffffffffff\n    /* \"#utility.yul\":404:409   */\n  dup3\n    /* \"#utility.yul\":400:454   */\n  and\n    /* \"#utility.yul\":389:454   */\n  swap1\n  pop\n    /* \"#utility.yul\":334:460   */\n  swap2\n  swap1\n  pop\n  jump\t// out\n    /* \"#utility.yul\":466:562   */\ntag_25:\n    /* \"#utility.yul\":503:510   */\n  0x00\n    /* \"#utility.yul\":532:556   */\n  tag_45\n    /* \"#utility.yul\":550:555   */\n  dup3\n    /* \"#utility.yul\":532:556   */\n  tag_24\n  jump\t// in\ntag_45:\n    /* \"#utility.yul\":521:556   */\n  swap1\n  pop\n    /* \"#utility.yul\":466:562   */\n  swap2\n  swap1\n  pop\n  jump\t// out\n    /* \"#utility.yul\":568:690   */\ntag_26:\n    /* \"#utility.yul\":641:665   */\n  tag_47\n    /* \"#utility.yul\":659:664   */\n  dup2\n    /* \"#utility.yul\":641:665   */\n  tag_25\n  jump\t// in\ntag_47:\n    /* \"#utility.yul\":634:639   */\n  dup2\n    /* \"#utility.yul\":631:666   */\n  eq\n    /* \"#utility.yul\":621:684   */\n  tag_48\n  jumpi\n    /* \"#utility.yul\":680:681   */\n  0x00\n    /* \"#utility.yul\":677:678   */\n  0x00\n    /* \"#utility.yul\":670:682   */\n  revert\n    /* \"#utility.yul\":621:684   */\ntag_48:\n    /* \"#utility.yul\":568:690   */\n  pop\n  jump\t// out\n    /* \"#utility.yul\":696:839   */\ntag_27:\n    /* \"#utility.yul\":753:758   */\n  0x00\n    /* \"#utility.yul\":784:790   */\n  dup2\n    /* \"#utility.yul\":778:791   */\n  mload\n    /* \"#utility.yul\":769:791   */\n  swap1\n  pop\n    /* \"#utility.yul\":800:833   */\n  tag_50\n    /* \"#utility.yul\":827:832   */\n  dup2\n    /* \"#utility.yul\":800:833   */\n  tag_26\n  jump\t// in\ntag_50:\n    /* \"#utility.yul\":696:839   */\n  swap3\n  swap2\n  pop\n  pop\n  jump\t// out\n    /* \"#utility.yul\":845:962   */\ntag_28:\n    /* \"#utility.yul\":954:955   */\n  0x00\n    /* \"#utility.yul\":951:952   */\n  0x00\n    /* \"#utility.yul\":944:956   */\n  revert\n    /* \"#utility.yul\":968:1070   */\ntag_29:\n    /* \"#utility.yul\":1009:1015   */\n  0x00\n    /* \"#utility.yul\":1060:1062   */\n  0x1f\n    /* \"#utility.yul\":1056:1063   */\n  not\n    /* \"#utility.yul\":1051:1053   */\n  0x1f\n    /* \"#utility.yul\":1044:1049   */\n  dup4\n    /* \"#utility.yul\":1040:1054   */\n  add\n    /* \"#utility.yul\":1036:1064   */\n  and\n    /* \"#utility.yul\":1026:1064   */\n  swap1\n  pop\n    /* \"#utility.yul\":968:1070   */\n  swap2\n  swap1\n  pop\n  jump\t// out\n    /* \"#utility.yul\":1076:1256   */\ntag_30:\n    /* \"#utility.yul\":1124:1201   */\n  0x4e487b7100000000000000000000000000000000000000000000000000000000\n    /* \"#utility.yul\":1121:1122   */\n  0x00\n    /* \"#utility.yul\":1114:1202   */\n  mstore\n    /* \"#utility.yul\":1221:1225   */\n  0x41\n    /* \"#utility.yul\":1218:1219   */\n  0x04\n    /* \"#utility.yul\":1211:1226   */\n  mstore\n    /* \"#utility.yul\":1245:1249   */\n  0x24\n    /* \"#utility.yul\":1242:1243   */\n  0x00\n    /* \"#utility.yul\":1235:1250   */\n  revert\n    /* \"#utility.yul\":1262:1543   */\ntag_31:\n    /* \"#utility.yul\":1345:1372   */\n  tag_55\n    /* \"#utility.yul\":1367:1371   */\n  dup3\n    /* \"#utility.yul\":1345:1372   */\n  tag_29\n  jump\t// in\ntag_55:\n    /* \"#utility.yul\":1337:1343   */\n  dup2\n    /* \"#utility.yul\":1333:1373   */\n  add\n    /* \"#utility.yul\":1475:1481   */\n  dup2\n    /* \"#utility.yul\":1463:1473   */\n  dup2\n    /* \"#utility.yul\":1460:1482   */\n  lt\n    /* \"#utility.yul\":1439:1457   */\n  0xffffffffffffffff\n    /* \"#utility.yul\":1427:1437   */\n  dup3\n    /* \"#utility.yul\":1424:1458   */\n  gt\n    /* \"#utility.yul\":1421:1483   */\n  or\n    /* \"#utility.yul\":1418:1506   */\n  iszero\n  tag_56\n  jumpi\n    /* \"#utility.yul\":1486:1504   */\n  tag_57\n  tag_30\n  jump\t// in\ntag_57:\n    /* \"#utility.yul\":1418:1506   */\ntag_56:\n    /* \"#utility.yul\":1526:1536   */\n  dup1\n    /* \"#utility.yul\":1522:1524   */\n  0x40\n    /* \"#utility.yul\":1515:1537   */\n  mstore\n    /* \"#utility.yul\":1305:1543   */\n  pop\n    /* \"#utility.yul\":1262:1543   */\n  pop\n  pop\n  jump\t// out\n    /* \"#utility.yul\":1549:1678   */\ntag_32:\n    /* \"#utility.yul\":1583:1589   */\n  0x00\n    /* \"#utility.yul\":1610:1630   */\n  tag_59\n  tag_21\n  jump\t// in\ntag_59:\n    /* \"#utility.yul\":1600:1630   */\n  swap1\n  pop\n    /* \"#utility.yul\":1639:1672   */\n  tag_60\n    /* \"#utility.yul\":1667:1671   */\n  dup3\n    /* \"#utility.yul\":1659:1665   */\n  dup3\n    /* \"#utility.yul\":1639:1672   */\n  tag_31\n  jump\t// in\ntag_60:\n    /* \"#utility.yul\":1549:1678   */\n  swap2\n  swap1\n  pop\n  jump\t// out\n    /* \"#utility.yul\":1684:1995   */\ntag_33:\n    /* \"#utility.yul\":1761:1765   */\n  0x00\n    /* \"#utility.yul\":1851:1869   */\n  0xffffffffffffffff\n    /* \"#utility.yul\":1843:1849   */\n  dup3\n    /* \"#utility.yul\":1840:1870   */\n  gt\n    /* \"#utility.yul\":1837:1893   */\n  iszero\n  tag_62\n  jumpi\n    /* \"#utility.yul\":1873:1891   */\n  tag_63\n  tag_30\n  jump\t// in\ntag_63:\n    /* \"#utility.yul\":1837:1893   */\ntag_62:\n    /* \"#utility.yul\":1923:1927   */\n  0x20\n    /* \"#utility.yul\":1915:1921   */\n  dup3\n    /* \"#utility.yul\":1911:1928   */\n  mul\n    /* \"#utility.yul\":1903:1928   */\n  swap1\n  pop\n    /* \"#utility.yul\":1983:1987   */\n  0x20\n    /* \"#utility.yul\":1977:1981   */\n  dup2\n    /* \"#utility.yul\":1973:1988   */\n  add\n    /* \"#utility.yul\":1965:1988   */\n  swap1\n  pop\n    /* \"#utility.yul\":1684:1995   */\n  swap2\n  swap1\n  pop\n  jump\t// out\n    /* \"#utility.yul\":2001:2118   */\ntag_34:\n    /* \"#utility.yul\":2110:2111   */\n  0x00\n    /* \"#utility.yul\":2107:2108   */\n  0x00\n    /* \"#utility.yul\":2100:2112   */\n  revert\n    /* \"#utility.yul\":2141:2873   */\ntag_35:\n    /* \"#utility.yul\":2248:2253   */\n  0x00\n    /* \"#utility.yul\":2273:2354   */\n  tag_66\n    /* \"#utility.yul\":2289:2353   */\n  tag_67\n    /* \"#utility.yul\":2346:2352   */\n  dup5\n    /* \"#utility.yul\":2289:2353   */\n  tag_33\n  jump\t// in\ntag_67:\n    /* \"#utility.yul\":2273:2354   */\n  tag_32\n  jump\t// in\ntag_66:\n    /* \"#utility.yul\":2264:2354   */\n  swap1\n  pop\n    /* \"#utility.yul\":2374:2379   */\n  dup1\n    /* \"#utility.yul\":2403:2409   */\n  dup4\n    /* \"#utility.yul\":2396:2401   */\n  dup3\n    /* \"#utility.yul\":2389:2410   */\n  mstore\n    /* \"#utility.yul\":2437:2441   */\n  0x20\n    /* \"#utility.yul\":2430:2435   */\n  dup3\n    /* \"#utility.yul\":2426:2442   */\n  add\n    /* \"#utility.yul\":2419:2442   */\n  swap1\n  pop\n    /* \"#utility.yul\":2490:2494   */\n  0x20\n    /* \"#utility.yul\":2482:2488   */\n  dup5\n    /* \"#utility.yul\":2478:2495   */\n  mul\n    /* \"#utility.yul\":2470:2476   */\n  dup4\n    /* \"#utility.yul\":2466:2496   */\n  add\n    /* \"#utility.yul\":2519:2522   */\n  dup6\n    /* \"#utility.yul\":2511:2517   */\n  dup2\n    /* \"#utility.yul\":2508:2523   */\n  gt\n    /* \"#utility.yul\":2505:2627   */\n  iszero\n  tag_68\n  jumpi\n    /* \"#utility.yul\":2538:2617   */\n  tag_69\n  tag_34\n  jump\t// in\ntag_69:\n    /* \"#utility.yul\":2505:2627   */\ntag_68:\n    /* \"#utility.yul\":2653:2659   */\n  dup4\n    /* \"#utility.yul\":2636:2867   */\ntag_70:\n    /* \"#utility.yul\":2670:2676   */\n  dup2\n    /* \"#utility.yul\":2665:2668   */\n  dup2\n    /* \"#utility.yul\":2662:2677   */\n  lt\n    /* \"#utility.yul\":2636:2867   */\n  iszero\n  tag_72\n  jumpi\n    /* \"#utility.yul\":2745:2748   */\n  dup1\n    /* \"#utility.yul\":2774:2822   */\n  tag_73\n    /* \"#utility.yul\":2818:2821   */\n  dup9\n    /* \"#utility.yul\":2806:2816   */\n  dup3\n    /* \"#utility.yul\":2774:2822   */\n  tag_27\n  jump\t// in\ntag_73:\n    /* \"#utility.yul\":2769:2772   */\n  dup5\n    /* \"#utility.yul\":2762:2823   */\n  mstore\n    /* \"#utility.yul\":2852:2856   */\n  0x20\n    /* \"#utility.yul\":2847:2850   */\n  dup5\n    /* \"#utility.yul\":2843:2857   */\n  add\n    /* \"#utility.yul\":2836:2857   */\n  swap4\n  pop\n    /* \"#utility.yul\":2712:2867   */\n  pop\n    /* \"#utility.yul\":2696:2700   */\n  0x20\n    /* \"#utility.yul\":2691:2694   */\n  dup2\n    /* \"#utility.yul\":2687:2701   */\n  add\n    /* \"#utility.yul\":2680:2701   */\n  swap1\n  pop\n    /* \"#utility.yul\":2636:2867   */\n  jump(tag_70)\ntag_72:\n    /* \"#utility.yul\":2640:2661   */\n  pop\n    /* \"#utility.yul\":2254:2873   */\n  pop\n  pop\n    /* \"#utility.yul\":2141:2873   */\n  swap4\n  swap3\n  pop\n  pop\n  pop\n  jump\t// out\n    /* \"#utility.yul\":2896:3281   */\ntag_36:\n    /* \"#utility.yul\":2978:2983   */\n  0x00\n    /* \"#utility.yul\":3027:3030   */\n  dup3\n    /* \"#utility.yul\":3020:3024   */\n  0x1f\n    /* \"#utility.yul\":3012:3018   */\n  dup4\n    /* \"#utility.yul\":3008:3025   */\n  add\n    /* \"#utility.yul\":3004:3031   */\n  slt\n    /* \"#utility.yul\":2994:3116   */\n  tag_75\n  jumpi\n    /* \"#utility.yul\":3035:3114   */\n  tag_76\n  tag_28\n  jump\t// in\ntag_76:\n    /* \"#utility.yul\":2994:3116   */\ntag_75:\n    /* \"#utility.yul\":3145:3151   */\n  dup2\n    /* \"#utility.yul\":3139:3152   */\n  mload\n    /* \"#utility.yul\":3170:3275   */\n  tag_77\n    /* \"#utility.yul\":3271:3274   */\n  dup5\n    /* \"#utility.yul\":3263:3269   */\n  dup3\n    /* \"#utility.yul\":3256:3260   */\n  0x20\n    /* \"#utility.yul\":3248:3254   */\n  dup7\n    /* \"#utility.yul\":3244:3261   */\n  add\n    /* \"#utility.yul\":3170:3275   */\n  tag_35\n  jump\t// in\ntag_77:\n    /* \"#utility.yul\":3161:3275   */\n  swap2\n  pop\n    /* \"#utility.yul\":2984:3281   */\n  pop\n    /* \"#utility.yul\":2896:3281   */\n  swap3\n  swap2\n  pop\n  pop\n  jump\t// out\n    /* \"#utility.yul\":3287:3997   */\ntag_3:\n    /* \"#utility.yul\":3391:3397   */\n  0x00\n    /* \"#utility.yul\":3399:3405   */\n  0x00\n    /* \"#utility.yul\":3448:3450   */\n  0x40\n    /* \"#utility.yul\":3436:3445   */\n  dup4\n    /* \"#utility.yul\":3427:3434   */\n  dup6\n    /* \"#utility.yul\":3423:3446   */\n  sub\n    /* \"#utility.yul\":3419:3451   */\n  slt\n    /* \"#utility.yul\":3416:3535   */\n  iszero\n  tag_79\n  jumpi\n    /* \"#utility.yul\":3454:3533   */\n  tag_80\n  tag_22\n  jump\t// in\ntag_80:\n    /* \"#utility.yul\":3416:3535   */\ntag_79:\n    /* \"#utility.yul\":3574:3575   */\n  0x00\n    /* \"#utility.yul\":3599:3663   */\n  tag_81\n    /* \"#utility.yul\":3655:3662   */\n  dup6\n    /* \"#utility.yul\":3646:3652   */\n  dup3\n    /* \"#utility.yul\":3635:3644   */\n  dup7\n    /* \"#utility.yul\":3631:3653   */\n  add\n    /* \"#utility.yul\":3599:3663   */\n  tag_27\n  jump\t// in\ntag_81:\n    /* \"#utility.yul\":3589:3663   */\n  swap3\n  pop\n    /* \"#utility.yul\":3545:3673   */\n  pop\n    /* \"#utility.yul\":3733:3735   */\n  0x20\n    /* \"#utility.yul\":3722:3731   */\n  dup4\n    /* \"#utility.yul\":3718:3736   */\n  add\n    /* \"#utility.yul\":3712:3737   */\n  mload\n    /* \"#utility.yul\":3764:3782   */\n  0xffffffffffffffff\n    /* \"#utility.yul\":3756:3762   */\n  dup2\n    /* \"#utility.yul\":3753:3783   */\n  gt\n    /* \"#utility.yul\":3750:3867   */\n  iszero\n  tag_82\n  jumpi\n    /* \"#utility.yul\":3786:3865   */\n  tag_83\n  tag_23\n  jump\t// in\ntag_83:\n    /* \"#utility.yul\":3750:3867   */\ntag_82:\n    /* \"#utility.yul\":3891:3980   */\n  tag_84\n    /* \"#utility.yul\":3972:3979   */\n  dup6\n    /* \"#utility.yul\":3963:3969   */\n  dup3\n    /* \"#utility.yul\":3952:3961   */\n  dup7\n    /* \"#utility.yul\":3948:3970   */\n  add\n    /* \"#utility.yul\":3891:3980   */\n  tag_36\n  jump\t// in\ntag_84:\n    /* \"#utility.yul\":3881:3980   */\n  swap2\n  pop\n    /* \"#utility.yul\":3683:3990   */\n  pop\n    /* \"#utility.yul\":3287:3997   */\n  swap3\n  pop\n  swap3\n  swap1\n  pop\n  jump\t// out\n    /* \"#utility.yul\":4003:4183   */\ntag_11:\n    /* \"#utility.yul\":4051:4128   */\n  0x4e487b7100000000000000000000000000000000000000000000000000000000\n    /* \"#utility.yul\":4048:4049   */\n  0x00\n    /* \"#utility.yul\":4041:4129   */\n  mstore\n    /* \"#utility.yul\":4148:4152   */\n  0x32\n    /* \"#utility.yul\":4145:4146   */\n  0x04\n    /* \"#utility.yul\":4138:4153   */\n  mstore\n    /* \"#utility.yul\":4172:4176   */\n  0x24\n    /* \"#utility.yul\":4169:4170   */\n  0x00\n    /* \"#utility.yul\":4162:4177   */\n  revert\n    /* \"#utility.yul\":4189:4369   */\ntag_37:\n    /* \"#utility.yul\":4237:4314   */\n  0x4e487b7100000000000000000000000000000000000000000000000000000000\n    /* \"#utility.yul\":4234:4235   */\n  0x00\n    /* \"#utility.yul\":4227:4315   */\n  mstore\n    /* \"#utility.yul\":4334:4338   */\n  0x11\n    /* \"#utility.yul\":4331:4332   */\n  0x04\n    /* \"#utility.yul\":4324:4339   */\n  mstore\n    /* \"#utility.yul\":4358:4362   */\n  0x24\n    /* \"#utility.yul\":4355:4356   */\n  0x00\n    /* \"#utility.yul\":4348:4363   */\n  revert\n    /* \"#utility.yul\":4375:4461   */\ntag_38:\n    /* \"#utility.yul\":4410:4417   */\n  0x00\n    /* \"#utility.yul\":4450:4454   */\n  0xff\n    /* \"#utility.yul\":4443:4448   */\n  dup3\n    /* \"#utility.yul\":4439:4455   */\n  and\n    /* \"#utility.yul\":4428:4455   */\n  swap1\n  pop\n    /* \"#utility.yul\":4375:4461   */\n  swap2\n  swap1\n  pop\n  jump\t// out\n    /* \"#utility.yul\":4467:4634   */\ntag_19:\n    /* \"#utility.yul\":4504:4507   */\n  0x00\n    /* \"#utility.yul\":4527:4549   */\n  tag_89\n    /* \"#utility.yul\":4543:4548   */\n  dup3\n    /* \"#utility.yul\":4527:4549   */\n  tag_38\n  jump\t// in\ntag_89:\n    /* \"#utility.yul\":4518:4549   */\n  swap2\n  pop\n    /* \"#utility.yul\":4571:4575   */\n  0xff\n    /* \"#utility.yul\":4564:4569   */\n  dup3\n    /* \"#utility.yul\":4561:4576   */\n  sub\n    /* \"#utility.yul\":4558:4599   */\n  tag_90\n  jumpi\n    /* \"#utility.yul\":4579:4597   */\n  tag_91\n  tag_37\n  jump\t// in\ntag_91:\n    /* \"#utility.yul\":4558:4599   */\ntag_90:\n    /* \"#utility.yul\":4626:4627   */\n  0x01\n    /* \"#utility.yul\":4619:4624   */\n  dup3\n    /* \"#utility.yul\":4615:4628   */\n  add\n    /* \"#utility.yul\":4608:4628   */\n  swap1\n  pop\n    /* \"#utility.yul\":4467:4634   */\n  swap2\n  swap1\n  pop\n  jump\t// out\n    /* \"contracts/Controller.sol\":103:2987  contract Controller {... */\ntag_20:\n  dataSize(sub_0)\n  dup1\n  dataOffset(sub_0)\n  0x00\n  codecopy\n  0x00\n  return\nstop\n\nsub_0: assembly {\n        /* \"contracts/Controller.sol\":103:2987  contract Controller {... */\n      mstore(0x40, 0x80)\n      callvalue\n      dup1\n      iszero\n      tag_1\n      jumpi\n      revert(0x00, 0x00)\n    tag_1:\n      pop\n      jumpi(tag_2, lt(calldatasize, 0x04))\n      shr(0xe0, calldataload(0x00))\n      dup1\n      0x0a57dfb8\n      eq\n      tag_3\n      jumpi\n      dup1\n      0x20ea8d86\n      eq\n      tag_4\n      jumpi\n      dup1\n      0x838cbe52\n      eq\n      tag_5\n      jumpi\n      dup1\n      0x83920e90\n      eq\n      tag_6\n      jumpi\n      dup1\n      0xb4ce7d45\n      eq\n      tag_7\n      jumpi\n      dup1\n      0xc01a8c84\n      eq\n      tag_8\n      jumpi\n    tag_2:\n      revert(0x00, 0x00)\n        /* \"contracts/Controller.sol\":1138:1380  function setConfirmationsRequired(uint256 _value) external OnlyOwner {... */\n    tag_3:\n      tag_9\n      0x04\n      dup1\n      calldatasize\n      sub\n      dup2\n      add\n      swap1\n      tag_10\n      swap2\n      swap1\n      tag_11\n      jump\t// in\n    tag_10:\n      tag_12\n      jump\t// in\n    tag_9:\n      stop\n        /* \"contracts/Controller.sol\":2755:2985  function revokeConfirmation(uint _txIndex) external OnlyAdministrator {... */\n    tag_4:\n      tag_13\n      0x04\n      dup1\n      calldatasize\n      sub\n      dup2\n      add\n      swap1\n      tag_14\n      swap2\n      swap1\n      tag_11\n      jump\t// in\n    tag_14:\n      tag_15\n      jump\t// in\n    tag_13:\n      stop\n        /* \"contracts/Controller.sol\":2121:2435  function commitSetOwner(address _newOwner) external OnlyAdministrator returns (uint) {... */\n    tag_5:\n      tag_16\n      0x04\n      dup1\n      calldatasize\n      sub\n      dup2\n      add\n      swap1\n      tag_17\n      swap2\n      swap1\n      tag_18\n      jump\t// in\n    tag_17:\n      tag_19\n      jump\t// in\n    tag_16:\n      mload(0x40)\n      tag_20\n      swap2\n      swap1\n      tag_21\n      jump\t// in\n    tag_20:\n      mload(0x40)\n      dup1\n      swap2\n      sub\n      swap1\n      return\n        /* \"contracts/Controller.sol\":1947:2080  function getTransactions() public OnlyAdministrator view returns (MultiSig.Transaction[] memory) {... */\n    tag_6:\n      tag_22\n      tag_23\n      jump\t// in\n    tag_22:\n      mload(0x40)\n      tag_24\n      swap2\n      swap1\n      tag_25\n      jump\t// in\n    tag_24:\n      mload(0x40)\n      dup1\n      swap2\n      sub\n      swap1\n      return\n        /* \"contracts/Controller.sol\":1420:1912  function setAdministrators(address[] memory _admin) external OnlyOwner {... */\n    tag_7:\n      tag_26\n      0x04\n      dup1\n      calldatasize\n      sub\n      dup2\n      add\n      swap1\n      tag_27\n      swap2\n      swap1\n      tag_28\n      jump\t// in\n    tag_27:\n      tag_29\n      jump\t// in\n    tag_26:\n      stop\n        /* \"contracts/Controller.sol\":2461:2729  function confirmTransaction(uint _txIndex) external OnlyAdministrator {... */\n    tag_8:\n      tag_30\n      0x04\n      dup1\n      calldatasize\n      sub\n      dup2\n      add\n      swap1\n      tag_31\n      swap2\n      swap1\n      tag_11\n      jump\t// in\n    tag_31:\n      tag_32\n      jump\t// in\n    tag_30:\n      stop\n        /* \"contracts/Controller.sol\":1138:1380  function setConfirmationsRequired(uint256 _value) external OnlyOwner {... */\n    tag_12:\n        /* \"contracts/Controller.sol\":301:308  isOwner */\n      0x04\n        /* \"contracts/Controller.sol\":301:320  isOwner[msg.sender] */\n      0x00\n        /* \"contracts/Controller.sol\":309:319  msg.sender */\n      caller\n        /* \"contracts/Controller.sol\":301:320  isOwner[msg.sender] */\n      0xffffffffffffffffffffffffffffffffffffffff\n      and\n      0xffffffffffffffffffffffffffffffffffffffff\n      and\n      dup2\n      mstore\n      0x20\n      add\n      swap1\n      dup2\n      mstore\n      0x20\n      add\n      0x00\n      keccak256\n      0x00\n      swap1\n      sload\n      swap1\n      0x0100\n      exp\n      swap1\n      div\n      0xff\n      and\n        /* \"contracts/Controller.sol\":293:347  require(isOwner[msg.sender], \"Only the owner can use\") */\n      tag_34\n      jumpi\n      mload(0x40)\n      0x08c379a000000000000000000000000000000000000000000000000000000000\n      dup2\n      mstore\n      0x04\n      add\n      tag_35\n      swap1\n      tag_36\n      jump\t// in\n    tag_35:\n      mload(0x40)\n      dup1\n      swap2\n      sub\n      swap1\n      revert\n    tag_34:\n        /* \"contracts/Controller.sol\":1237:1238  1 */\n      0x01\n        /* \"contracts/Controller.sol\":1227:1233  _value */\n      dup2\n        /* \"contracts/Controller.sol\":1227:1238  _value >= 1 */\n      lt\n      iszero\n        /* \"contracts/Controller.sol\":1226:1274  (_value >= 1)&&(_value <= administrators.length) */\n      dup1\n      iszero\n      tag_38\n      jumpi\n      pop\n        /* \"contracts/Controller.sol\":1252:1266  administrators */\n      0x02\n        /* \"contracts/Controller.sol\":1252:1273  administrators.length */\n      dup1\n      sload\n      swap1\n      pop\n        /* \"contracts/Controller.sol\":1242:1248  _value */\n      dup2\n        /* \"contracts/Controller.sol\":1242:1273  _value <= administrators.length */\n      gt\n      iszero\n        /* \"contracts/Controller.sol\":1226:1274  (_value >= 1)&&(_value <= administrators.length) */\n    tag_38:\n        /* \"contracts/Controller.sol\":1217:1330  require(((_value >= 1)&&(_value <= administrators.length)), \"required number must >= 1 or <= controller member.\") */\n      tag_39\n      jumpi\n      mload(0x40)\n      0x08c379a000000000000000000000000000000000000000000000000000000000\n      dup2\n      mstore\n      0x04\n      add\n      tag_40\n      swap1\n      tag_41\n      jump\t// in\n    tag_40:\n      mload(0x40)\n      dup1\n      swap2\n      sub\n      swap1\n      revert\n    tag_39:\n        /* \"contracts/Controller.sol\":1367:1373  _value */\n      dup1\n        /* \"contracts/Controller.sol\":1340:1364  numConfirmationsRequired */\n      0x00\n        /* \"contracts/Controller.sol\":1340:1373  numConfirmationsRequired = _value */\n      dup2\n      swap1\n      sstore\n      pop\n        /* \"contracts/Controller.sol\":1138:1380  function setConfirmationsRequired(uint256 _value) external OnlyOwner {... */\n      pop\n      jump\t// out\n        /* \"contracts/Controller.sol\":2755:2985  function revokeConfirmation(uint _txIndex) external OnlyAdministrator {... */\n    tag_15:\n        /* \"contracts/Controller.sol\":176:191  isAdministrator */\n      0x05\n        /* \"contracts/Controller.sol\":176:203  isAdministrator[msg.sender] */\n      0x00\n        /* \"contracts/Controller.sol\":192:202  msg.sender */\n      caller\n        /* \"contracts/Controller.sol\":176:203  isAdministrator[msg.sender] */\n      0xffffffffffffffffffffffffffffffffffffffff\n      and\n      0xffffffffffffffffffffffffffffffffffffffff\n      and\n      dup2\n      mstore\n      0x20\n      add\n      swap1\n      dup2\n      mstore\n      0x20\n      add\n      0x00\n      keccak256\n      0x00\n      swap1\n      sload\n      swap1\n      0x0100\n      exp\n      swap1\n      div\n      0xff\n      and\n        /* \"contracts/Controller.sol\":168:238  require(isAdministrator[msg.sender], \"Only the administrator can use\") */\n      tag_43\n      jumpi\n      mload(0x40)\n      0x08c379a000000000000000000000000000000000000000000000000000000000\n      dup2\n      mstore\n      0x04\n      add\n      tag_44\n      swap1\n      tag_45\n      jump\t// in\n    tag_44:\n      mload(0x40)\n      dup1\n      swap2\n      sub\n      swap1\n      revert\n    tag_43:\n        /* \"contracts/Controller.sol\":2835:2978  MultiSig.revokeConfirmation(... */\n      tag_47\n        /* \"contracts/Controller.sol\":2876:2888  transactions */\n      0x03\n        /* \"contracts/Controller.sol\":2903:2914  isConfirmed */\n      0x07\n        /* \"contracts/Controller.sol\":2929:2945  numConfirmations */\n      0x06\n        /* \"contracts/Controller.sol\":2960:2968  _txIndex */\n      dup5\n        /* \"contracts/Controller.sol\":2835:2862  MultiSig.revokeConfirmation */\n      tag_48\n        /* \"contracts/Controller.sol\":2835:2978  MultiSig.revokeConfirmation(... */\n      jump\t// in\n    tag_47:\n        /* \"contracts/Controller.sol\":2755:2985  function revokeConfirmation(uint _txIndex) external OnlyAdministrator {... */\n      pop\n      jump\t// out\n        /* \"contracts/Controller.sol\":2121:2435  function commitSetOwner(address _newOwner) external OnlyAdministrator returns (uint) {... */\n    tag_19:\n        /* \"contracts/Controller.sol\":2200:2204  uint */\n      0x00\n        /* \"contracts/Controller.sol\":176:191  isAdministrator */\n      0x05\n        /* \"contracts/Controller.sol\":176:203  isAdministrator[msg.sender] */\n      0x00\n        /* \"contracts/Controller.sol\":192:202  msg.sender */\n      caller\n        /* \"contracts/Controller.sol\":176:203  isAdministrator[msg.sender] */\n      0xffffffffffffffffffffffffffffffffffffffff\n      and\n      0xffffffffffffffffffffffffffffffffffffffff\n      and\n      dup2\n      mstore\n      0x20\n      add\n      swap1\n      dup2\n      mstore\n      0x20\n      add\n      0x00\n      keccak256\n      0x00\n      swap1\n      sload\n      swap1\n      0x0100\n      exp\n      swap1\n      div\n      0xff\n      and\n        /* \"contracts/Controller.sol\":168:238  require(isAdministrator[msg.sender], \"Only the administrator can use\") */\n      tag_50\n      jumpi\n      mload(0x40)\n      0x08c379a000000000000000000000000000000000000000000000000000000000\n      dup2\n      mstore\n      0x04\n      add\n      tag_51\n      swap1\n      tag_45\n      jump\t// in\n    tag_51:\n      mload(0x40)\n      dup1\n      swap2\n      sub\n      swap1\n      revert\n    tag_50:\n        /* \"contracts/Controller.sol\":2216:2392  MultiSig.submitTransaction(... */\n      tag_53\n        /* \"contracts/Controller.sol\":2256:2268  transactions */\n      0x03\n        /* \"contracts/Controller.sol\":2282:2295  marketAddress */\n      0x01\n      0x00\n      swap1\n      sload\n      swap1\n      0x0100\n      exp\n      swap1\n      div\n      0xffffffffffffffffffffffffffffffffffffffff\n      and\n        /* \"contracts/Controller.sol\":2354:2363  _newOwner */\n      dup5\n        /* \"contracts/Controller.sol\":2309:2364  abi.encodeWithSignature(\"setOwner(address)\", _newOwner) */\n      add(0x24, mload(0x40))\n      tag_54\n      swap2\n      swap1\n      tag_55\n      jump\t// in\n    tag_54:\n      mload(0x40)\n      0x20\n      dup2\n      dup4\n      sub\n      sub\n      dup2\n      mstore\n      swap1\n      0x40\n      mstore\n      and(not(0xffffffffffffffffffffffffffffffffffffffffffffffffffffffff), 0x13af403500000000000000000000000000000000000000000000000000000000)\n      0x20\n      dup3\n      add\n      dup1\n      mload\n      0xffffffffffffffffffffffffffffffffffffffffffffffffffffffff\n      dup4\n      dup2\n      dup4\n      and\n      or\n      dup4\n      mstore\n      pop\n      pop\n      pop\n      pop\n        /* \"contracts/Controller.sol\":2378:2382  true */\n      0x01\n        /* \"contracts/Controller.sol\":2216:2242  MultiSig.submitTransaction */\n      tag_56\n        /* \"contracts/Controller.sol\":2216:2392  MultiSig.submitTransaction(... */\n      jump\t// in\n    tag_53:\n        /* \"contracts/Controller.sol\":2409:2421  transactions */\n      0x03\n        /* \"contracts/Controller.sol\":2409:2428  transactions.length */\n      dup1\n      sload\n      swap1\n      pop\n        /* \"contracts/Controller.sol\":2402:2428  return transactions.length */\n      swap1\n      pop\n        /* \"contracts/Controller.sol\":2121:2435  function commitSetOwner(address _newOwner) external OnlyAdministrator returns (uint) {... */\n      swap2\n      swap1\n      pop\n      jump\t// out\n        /* \"contracts/Controller.sol\":1947:2080  function getTransactions() public OnlyAdministrator view returns (MultiSig.Transaction[] memory) {... */\n    tag_23:\n        /* \"contracts/Controller.sol\":2013:2042  MultiSig.Transaction[] memory */\n      0x60\n        /* \"contracts/Controller.sol\":176:191  isAdministrator */\n      0x05\n        /* \"contracts/Controller.sol\":176:203  isAdministrator[msg.sender] */\n      0x00\n        /* \"contracts/Controller.sol\":192:202  msg.sender */\n      caller\n        /* \"contracts/Controller.sol\":176:203  isAdministrator[msg.sender] */\n      0xffffffffffffffffffffffffffffffffffffffff\n      and\n      0xffffffffffffffffffffffffffffffffffffffff\n      and\n      dup2\n      mstore\n      0x20\n      add\n      swap1\n      dup2\n      mstore\n      0x20\n      add\n      0x00\n      keccak256\n      0x00\n      swap1\n      sload\n      swap1\n      0x0100\n      exp\n      swap1\n      div\n      0xff\n      and\n        /* \"contracts/Controller.sol\":168:238  require(isAdministrator[msg.sender], \"Only the administrator can use\") */\n      tag_58\n      jumpi\n      mload(0x40)\n      0x08c379a000000000000000000000000000000000000000000000000000000000\n      dup2\n      mstore\n      0x04\n      add\n      tag_59\n      swap1\n      tag_45\n      jump\t// in\n    tag_59:\n      mload(0x40)\n      dup1\n      swap2\n      sub\n      swap1\n      revert\n    tag_58:\n        /* \"contracts/Controller.sol\":2061:2073  transactions */\n      0x03\n        /* \"contracts/Controller.sol\":2054:2073  return transactions */\n      dup1\n      sload\n      dup1\n      0x20\n      mul\n      0x20\n      add\n      mload(0x40)\n      swap1\n      dup2\n      add\n      0x40\n      mstore\n      dup1\n      swap3\n      swap2\n      swap1\n      dup2\n      dup2\n      mstore\n      0x20\n      add\n      0x00\n      swap1\n    tag_61:\n      dup3\n      dup3\n      lt\n      iszero\n      tag_62\n      jumpi\n      dup4\n      dup3\n      swap1\n      0x00\n      mstore\n      keccak256(0x00, 0x20)\n      swap1\n      0x02\n      mul\n      add\n      mload(0x40)\n      dup1\n      0x80\n      add\n      0x40\n      mstore\n      swap1\n      dup2\n      0x00\n      dup3\n      add\n      dup1\n      sload\n      tag_64\n      swap1\n      tag_65\n      jump\t// in\n    tag_64:\n      dup1\n      0x1f\n      add\n      0x20\n      dup1\n      swap2\n      div\n      mul\n      0x20\n      add\n      mload(0x40)\n      swap1\n      dup2\n      add\n      0x40\n      mstore\n      dup1\n      swap3\n      swap2\n      swap1\n      dup2\n      dup2\n      mstore\n      0x20\n      add\n      dup3\n      dup1\n      sload\n      tag_66\n      swap1\n      tag_65\n      jump\t// in\n    tag_66:\n      dup1\n      iszero\n      tag_67\n      jumpi\n      dup1\n      0x1f\n      lt\n      tag_68\n      jumpi\n      0x0100\n      dup1\n      dup4\n      sload\n      div\n      mul\n      dup4\n      mstore\n      swap2\n      0x20\n      add\n      swap2\n      jump(tag_67)\n    tag_68:\n      dup3\n      add\n      swap2\n      swap1\n      0x00\n      mstore\n      keccak256(0x00, 0x20)\n      swap1\n    tag_69:\n      dup2\n      sload\n      dup2\n      mstore\n      swap1\n      0x01\n      add\n      swap1\n      0x20\n      add\n      dup1\n      dup4\n      gt\n      tag_69\n      jumpi\n      dup3\n      swap1\n      sub\n      0x1f\n      and\n      dup3\n      add\n      swap2\n    tag_67:\n      pop\n      pop\n      pop\n      pop\n      pop\n      dup2\n      mstore\n      0x20\n      add\n      0x01\n      dup3\n      add\n      0x00\n      swap1\n      sload\n      swap1\n      0x0100\n      exp\n      swap1\n      div\n      0xffffffffffffffffffffffffffffffffffffffff\n      and\n      0xffffffffffffffffffffffffffffffffffffffff\n      and\n      0xffffffffffffffffffffffffffffffffffffffff\n      and\n      dup2\n      mstore\n      0x20\n      add\n      0x01\n      dup3\n      add\n      0x14\n      swap1\n      sload\n      swap1\n      0x0100\n      exp\n      swap1\n      div\n      0xff\n      and\n      iszero\n      iszero\n      iszero\n      iszero\n      dup2\n      mstore\n      0x20\n      add\n      0x01\n      dup3\n      add\n      0x15\n      swap1\n      sload\n      swap1\n      0x0100\n      exp\n      swap1\n      div\n      0xff\n      and\n      iszero\n      iszero\n      iszero\n      iszero\n      dup2\n      mstore\n      pop\n      pop\n      dup2\n      mstore\n      0x20\n      add\n      swap1\n      0x01\n      add\n      swap1\n      jump(tag_61)\n    tag_62:\n      pop\n      pop\n      pop\n      pop\n      swap1\n      pop\n        /* \"contracts/Controller.sol\":1947:2080  function getTransactions() public OnlyAdministrator view returns (MultiSig.Transaction[] memory) {... */\n      swap1\n      jump\t// out\n        /* \"contracts/Controller.sol\":1420:1912  function setAdministrators(address[] memory _admin) external OnlyOwner {... */\n    tag_29:\n        /* \"contracts/Controller.sol\":301:308  isOwner */\n      0x04\n        /* \"contracts/Controller.sol\":301:320  isOwner[msg.sender] */\n      0x00\n        /* \"contracts/Controller.sol\":309:319  msg.sender */\n      caller\n        /* \"contracts/Controller.sol\":301:320  isOwner[msg.sender] */\n      0xffffffffffffffffffffffffffffffffffffffff\n      and\n      0xffffffffffffffffffffffffffffffffffffffff\n      and\n      dup2\n      mstore\n      0x20\n      add\n      swap1\n      dup2\n      mstore\n      0x20\n      add\n      0x00\n      keccak256\n      0x00\n      swap1\n      sload\n      swap1\n      0x0100\n      exp\n      swap1\n      div\n      0xff\n      and\n        /* \"contracts/Controller.sol\":293:347  require(isOwner[msg.sender], \"Only the owner can use\") */\n      tag_71\n      jumpi\n      mload(0x40)\n      0x08c379a000000000000000000000000000000000000000000000000000000000\n      dup2\n      mstore\n      0x04\n      add\n      tag_72\n      swap1\n      tag_36\n      jump\t// in\n    tag_72:\n      mload(0x40)\n      dup1\n      swap2\n      sub\n      swap1\n      revert\n    tag_71:\n        /* \"contracts/Controller.sol\":1501:1660  while ( 0 == administrators.length) {... */\n    tag_74:\n        /* \"contracts/Controller.sol\":1514:1528  administrators */\n      0x02\n        /* \"contracts/Controller.sol\":1514:1535  administrators.length */\n      dup1\n      sload\n      swap1\n      pop\n        /* \"contracts/Controller.sol\":1509:1510  0 */\n      0x00\n        /* \"contracts/Controller.sol\":1509:1535  0 == administrators.length */\n      sub\n        /* \"contracts/Controller.sol\":1501:1660  while ( 0 == administrators.length) {... */\n      tag_75\n      jumpi\n        /* \"contracts/Controller.sol\":1610:1615  false */\n      0x00\n        /* \"contracts/Controller.sol\":1551:1566  isAdministrator */\n      0x05\n        /* \"contracts/Controller.sol\":1551:1607  isAdministrator[administrators[administrators.length-1]] */\n      0x00\n        /* \"contracts/Controller.sol\":1567:1581  administrators */\n      0x02\n        /* \"contracts/Controller.sol\":1604:1605  1 */\n      0x01\n        /* \"contracts/Controller.sol\":1582:1596  administrators */\n      0x02\n        /* \"contracts/Controller.sol\":1582:1603  administrators.length */\n      dup1\n      sload\n      swap1\n      pop\n        /* \"contracts/Controller.sol\":1582:1605  administrators.length-1 */\n      tag_76\n      swap2\n      swap1\n      tag_77\n      jump\t// in\n    tag_76:\n        /* \"contracts/Controller.sol\":1567:1606  administrators[administrators.length-1] */\n      dup2\n      sload\n      dup2\n      lt\n      tag_78\n      jumpi\n      tag_79\n      tag_80\n      jump\t// in\n    tag_79:\n    tag_78:\n      swap1\n      0x00\n      mstore\n      keccak256(0x00, 0x20)\n      add\n      0x00\n      swap1\n      sload\n      swap1\n      0x0100\n      exp\n      swap1\n      div\n      0xffffffffffffffffffffffffffffffffffffffff\n      and\n        /* \"contracts/Controller.sol\":1551:1607  isAdministrator[administrators[administrators.length-1]] */\n      0xffffffffffffffffffffffffffffffffffffffff\n      and\n      0xffffffffffffffffffffffffffffffffffffffff\n      and\n      dup2\n      mstore\n      0x20\n      add\n      swap1\n      dup2\n      mstore\n      0x20\n      add\n      0x00\n      keccak256\n      0x00\n        /* \"contracts/Controller.sol\":1551:1615  isAdministrator[administrators[administrators.length-1]] = false */\n      0x0100\n      exp\n      dup2\n      sload\n      dup2\n      0xff\n      mul\n      not\n      and\n      swap1\n      dup4\n      iszero\n      iszero\n      mul\n      or\n      swap1\n      sstore\n      pop\n        /* \"contracts/Controller.sol\":1629:1643  administrators */\n      0x02\n        /* \"contracts/Controller.sol\":1629:1649  administrators.pop() */\n      dup1\n      sload\n      dup1\n      tag_82\n      jumpi\n      tag_83\n      tag_84\n      jump\t// in\n    tag_83:\n    tag_82:\n      0x01\n      swap1\n      sub\n      dup2\n      dup2\n      swap1\n      0x00\n      mstore\n      keccak256(0x00, 0x20)\n      add\n      exp(0x0100, 0x00)\n      dup2\n      sload\n      swap1\n      0xffffffffffffffffffffffffffffffffffffffff\n      mul\n      not\n      and\n      swap1\n      sstore\n      swap1\n      sstore\n        /* \"contracts/Controller.sol\":1501:1660  while ( 0 == administrators.length) {... */\n      jump(tag_74)\n    tag_75:\n        /* \"contracts/Controller.sol\":1674:1685  uint8 index */\n      0x00\n        /* \"contracts/Controller.sol\":1688:1689  0 */\n      0x00\n        /* \"contracts/Controller.sol\":1674:1689  uint8 index = 0 */\n      swap1\n      pop\n        /* \"contracts/Controller.sol\":1669:1906  for (uint8 index = 0; index < _admin.length; index++) {... */\n    tag_86:\n        /* \"contracts/Controller.sol\":1699:1705  _admin */\n      dup2\n        /* \"contracts/Controller.sol\":1699:1712  _admin.length */\n      mload\n        /* \"contracts/Controller.sol\":1691:1696  index */\n      dup2\n        /* \"contracts/Controller.sol\":1691:1712  index < _admin.length */\n      0xff\n      and\n      lt\n        /* \"contracts/Controller.sol\":1669:1906  for (uint8 index = 0; index < _admin.length; index++) {... */\n      iszero\n      tag_87\n      jumpi\n        /* \"contracts/Controller.sol\":1742:1757  isAdministrator */\n      0x05\n        /* \"contracts/Controller.sol\":1742:1772  isAdministrator[_admin[index]] */\n      0x00\n        /* \"contracts/Controller.sol\":1758:1764  _admin */\n      dup4\n        /* \"contracts/Controller.sol\":1765:1770  index */\n      dup4\n        /* \"contracts/Controller.sol\":1758:1771  _admin[index] */\n      0xff\n      and\n      dup2\n      mload\n      dup2\n      lt\n      tag_89\n      jumpi\n      tag_90\n      tag_80\n      jump\t// in\n    tag_90:\n    tag_89:\n      0x20\n      mul\n      0x20\n      add\n      add\n      mload\n        /* \"contracts/Controller.sol\":1742:1772  isAdministrator[_admin[index]] */\n      0xffffffffffffffffffffffffffffffffffffffff\n      and\n      0xffffffffffffffffffffffffffffffffffffffff\n      and\n      dup2\n      mstore\n      0x20\n      add\n      swap1\n      dup2\n      mstore\n      0x20\n      add\n      0x00\n      keccak256\n      0x00\n      swap1\n      sload\n      swap1\n      0x0100\n      exp\n      swap1\n      div\n      0xff\n      and\n        /* \"contracts/Controller.sol\":1737:1896  if (!isAdministrator[_admin[index]]) {... */\n      tag_91\n      jumpi\n        /* \"contracts/Controller.sol\":1792:1806  administrators */\n      0x02\n        /* \"contracts/Controller.sol\":1812:1818  _admin */\n      dup3\n        /* \"contracts/Controller.sol\":1819:1824  index */\n      dup3\n        /* \"contracts/Controller.sol\":1812:1825  _admin[index] */\n      0xff\n      and\n      dup2\n      mload\n      dup2\n      lt\n      tag_92\n      jumpi\n      tag_93\n      tag_80\n      jump\t// in\n    tag_93:\n    tag_92:\n      0x20\n      mul\n      0x20\n      add\n      add\n      mload\n        /* \"contracts/Controller.sol\":1792:1826  administrators.push(_admin[index]) */\n      swap1\n      dup1\n      0x01\n      dup2\n      sload\n      add\n      dup1\n      dup3\n      sstore\n      dup1\n      swap2\n      pop\n      pop\n      0x01\n      swap1\n      sub\n      swap1\n      0x00\n      mstore\n      keccak256(0x00, 0x20)\n      add\n      0x00\n      swap1\n      swap2\n      swap1\n      swap2\n      swap1\n      swap2\n      0x0100\n      exp\n      dup2\n      sload\n      dup2\n      0xffffffffffffffffffffffffffffffffffffffff\n      mul\n      not\n      and\n      swap1\n      dup4\n      0xffffffffffffffffffffffffffffffffffffffff\n      and\n      mul\n      or\n      swap1\n      sstore\n      pop\n        /* \"contracts/Controller.sol\":1877:1881  true */\n      0x01\n        /* \"contracts/Controller.sol\":1844:1859  isAdministrator */\n      0x05\n        /* \"contracts/Controller.sol\":1844:1874  isAdministrator[_admin[index]] */\n      0x00\n        /* \"contracts/Controller.sol\":1860:1866  _admin */\n      dup5\n        /* \"contracts/Controller.sol\":1867:1872  index */\n      dup5\n        /* \"contracts/Controller.sol\":1860:1873  _admin[index] */\n      0xff\n      and\n      dup2\n      mload\n      dup2\n      lt\n      tag_95\n      jumpi\n      tag_96\n      tag_80\n      jump\t// in\n    tag_96:\n    tag_95:\n      0x20\n      mul\n      0x20\n      add\n      add\n      mload\n        /* \"contracts/Controller.sol\":1844:1874  isAdministrator[_admin[index]] */\n      0xffffffffffffffffffffffffffffffffffffffff\n      and\n      0xffffffffffffffffffffffffffffffffffffffff\n      and\n      dup2\n      mstore\n      0x20\n      add\n      swap1\n      dup2\n      mstore\n      0x20\n      add\n      0x00\n      keccak256\n      0x00\n        /* \"contracts/Controller.sol\":1844:1881  isAdministrator[_admin[index]] = true */\n      0x0100\n      exp\n      dup2\n      sload\n      dup2\n      0xff\n      mul\n      not\n      and\n      swap1\n      dup4\n      iszero\n      iszero\n      mul\n      or\n      swap1\n      sstore\n      pop\n        /* \"contracts/Controller.sol\":1737:1896  if (!isAdministrator[_admin[index]]) {... */\n    tag_91:\n        /* \"contracts/Controller.sol\":1714:1721  index++ */\n      dup1\n      dup1\n      tag_97\n      swap1\n      tag_98\n      jump\t// in\n    tag_97:\n      swap2\n      pop\n      pop\n        /* \"contracts/Controller.sol\":1669:1906  for (uint8 index = 0; index < _admin.length; index++) {... */\n      jump(tag_86)\n    tag_87:\n      pop\n        /* \"contracts/Controller.sol\":1420:1912  function setAdministrators(address[] memory _admin) external OnlyOwner {... */\n      pop\n      jump\t// out\n        /* \"contracts/Controller.sol\":2461:2729  function confirmTransaction(uint _txIndex) external OnlyAdministrator {... */\n    tag_32:\n        /* \"contracts/Controller.sol\":176:191  isAdministrator */\n      0x05\n        /* \"contracts/Controller.sol\":176:203  isAdministrator[msg.sender] */\n      0x00\n        /* \"contracts/Controller.sol\":192:202  msg.sender */\n      caller\n        /* \"contracts/Controller.sol\":176:203  isAdministrator[msg.sender] */\n      0xffffffffffffffffffffffffffffffffffffffff\n      and\n      0xffffffffffffffffffffffffffffffffffffffff\n      and\n      dup2\n      mstore\n      0x20\n      add\n      swap1\n      dup2\n      mstore\n      0x20\n      add\n      0x00\n      keccak256\n      0x00\n      swap1\n      sload\n      swap1\n      0x0100\n      exp\n      swap1\n      div\n      0xff\n      and\n        /* \"contracts/Controller.sol\":168:238  require(isAdministrator[msg.sender], \"Only the administrator can use\") */\n      tag_100\n      jumpi\n      mload(0x40)\n      0x08c379a000000000000000000000000000000000000000000000000000000000\n      dup2\n      mstore\n      0x04\n      add\n      tag_101\n      swap1\n      tag_45\n      jump\t// in\n    tag_101:\n      mload(0x40)\n      dup1\n      swap2\n      sub\n      swap1\n      revert\n    tag_100:\n        /* \"contracts/Controller.sol\":2541:2722  MultiSig.confirmTransaction(... */\n      tag_103\n        /* \"contracts/Controller.sol\":2582:2594  transactions */\n      0x03\n        /* \"contracts/Controller.sol\":2609:2620  isConfirmed */\n      0x07\n        /* \"contracts/Controller.sol\":2635:2651  numConfirmations */\n      0x06\n        /* \"contracts/Controller.sol\":2666:2690  numConfirmationsRequired */\n      sload(0x00)\n        /* \"contracts/Controller.sol\":2704:2712  _txIndex */\n      dup6\n        /* \"contracts/Controller.sol\":2541:2568  MultiSig.confirmTransaction */\n      tag_104\n        /* \"contracts/Controller.sol\":2541:2722  MultiSig.confirmTransaction(... */\n      jump\t// in\n    tag_103:\n        /* \"contracts/Controller.sol\":2461:2729  function confirmTransaction(uint _txIndex) external OnlyAdministrator {... */\n      pop\n      jump\t// out\n        /* \"contracts/MultiSig.sol\":2213:2849  function revokeConfirmation(... */\n    tag_48:\n        /* \"contracts/MultiSig.sol\":2482:2495  _transactions */\n      dup4\n        /* \"contracts/MultiSig.sol\":2482:2502  _transactions.length */\n      dup1\n      sload\n      swap1\n      pop\n        /* \"contracts/MultiSig.sol\":2471:2479  _txIndex */\n      dup2\n        /* \"contracts/MultiSig.sol\":2471:2502  _txIndex < _transactions.length */\n      lt\n        /* \"contracts/MultiSig.sol\":2463:2532  require(_txIndex < _transactions.length, \"Invalid transaction index\") */\n      tag_106\n      jumpi\n      mload(0x40)\n      0x08c379a000000000000000000000000000000000000000000000000000000000\n      dup2\n      mstore\n      0x04\n      add\n      tag_107\n      swap1\n      tag_108\n      jump\t// in\n    tag_107:\n      mload(0x40)\n      dup1\n      swap2\n      sub\n      swap1\n      revert\n    tag_106:\n        /* \"contracts/MultiSig.sol\":2550:2563  _transactions */\n      dup4\n        /* \"contracts/MultiSig.sol\":2564:2572  _txIndex */\n      dup2\n        /* \"contracts/MultiSig.sol\":2550:2573  _transactions[_txIndex] */\n      dup2\n      sload\n      dup2\n      lt\n      tag_109\n      jumpi\n      tag_110\n      tag_80\n      jump\t// in\n    tag_110:\n    tag_109:\n      swap1\n      0x00\n      mstore\n      keccak256(0x00, 0x20)\n      swap1\n      0x02\n      mul\n      add\n        /* \"contracts/MultiSig.sol\":2550:2582  _transactions[_txIndex].executed */\n      0x01\n      add\n      0x14\n      swap1\n      sload\n      swap1\n      0x0100\n      exp\n      swap1\n      div\n      0xff\n      and\n        /* \"contracts/MultiSig.sol\":2542:2611  require(_transactions[_txIndex].executed, \"Transaction not executed\") */\n      tag_112\n      jumpi\n      mload(0x40)\n      0x08c379a000000000000000000000000000000000000000000000000000000000\n      dup2\n      mstore\n      0x04\n      add\n      tag_113\n      swap1\n      tag_114\n      jump\t// in\n    tag_113:\n      mload(0x40)\n      dup1\n      swap2\n      sub\n      swap1\n      revert\n    tag_112:\n        /* \"contracts/MultiSig.sol\":2630:2642  _isConfirmed */\n      dup3\n        /* \"contracts/MultiSig.sol\":2630:2652  _isConfirmed[_txIndex] */\n      0x00\n        /* \"contracts/MultiSig.sol\":2643:2651  _txIndex */\n      dup3\n        /* \"contracts/MultiSig.sol\":2630:2652  _isConfirmed[_txIndex] */\n      dup2\n      mstore\n      0x20\n      add\n      swap1\n      dup2\n      mstore\n      0x20\n      add\n      0x00\n      keccak256\n        /* \"contracts/MultiSig.sol\":2630:2664  _isConfirmed[_txIndex][msg.sender] */\n      0x00\n        /* \"contracts/MultiSig.sol\":2653:2663  msg.sender */\n      caller\n        /* \"contracts/MultiSig.sol\":2630:2664  _isConfirmed[_txIndex][msg.sender] */\n      0xffffffffffffffffffffffffffffffffffffffff\n      and\n      0xffffffffffffffffffffffffffffffffffffffff\n      and\n      dup2\n      mstore\n      0x20\n      add\n      swap1\n      dup2\n      mstore\n      0x20\n      add\n      0x00\n      keccak256\n      0x00\n      swap1\n      sload\n      swap1\n      0x0100\n      exp\n      swap1\n      div\n      0xff\n      and\n        /* \"contracts/MultiSig.sol\":2622:2694  require(_isConfirmed[_txIndex][msg.sender], \"Transaction not confirmed\") */\n      tag_115\n      jumpi\n      mload(0x40)\n      0x08c379a000000000000000000000000000000000000000000000000000000000\n      dup2\n      mstore\n      0x04\n      add\n      tag_116\n      swap1\n      tag_117\n      jump\t// in\n    tag_116:\n      mload(0x40)\n      dup1\n      swap2\n      sub\n      swap1\n      revert\n    tag_115:\n        /* \"contracts/MultiSig.sol\":2742:2747  false */\n      0x00\n        /* \"contracts/MultiSig.sol\":2705:2717  _isConfirmed */\n      dup4\n        /* \"contracts/MultiSig.sol\":2705:2727  _isConfirmed[_txIndex] */\n      0x00\n        /* \"contracts/MultiSig.sol\":2718:2726  _txIndex */\n      dup4\n        /* \"contracts/MultiSig.sol\":2705:2727  _isConfirmed[_txIndex] */\n      dup2\n      mstore\n      0x20\n      add\n      swap1\n      dup2\n      mstore\n      0x20\n      add\n      0x00\n      keccak256\n        /* \"contracts/MultiSig.sol\":2705:2739  _isConfirmed[_txIndex][msg.sender] */\n      0x00\n        /* \"contracts/MultiSig.sol\":2728:2738  msg.sender */\n      caller\n        /* \"contracts/MultiSig.sol\":2705:2739  _isConfirmed[_txIndex][msg.sender] */\n      0xffffffffffffffffffffffffffffffffffffffff\n      and\n      0xffffffffffffffffffffffffffffffffffffffff\n      and\n      dup2\n      mstore\n      0x20\n      add\n      swap1\n      dup2\n      mstore\n      0x20\n      add\n      0x00\n      keccak256\n      0x00\n        /* \"contracts/MultiSig.sol\":2705:2747  _isConfirmed[_txIndex][msg.sender] = false */\n      0x0100\n      exp\n      dup2\n      sload\n      dup2\n      0xff\n      mul\n      not\n      and\n      swap1\n      dup4\n      iszero\n      iszero\n      mul\n      or\n      swap1\n      sstore\n      pop\n        /* \"contracts/MultiSig.sol\":2757:2774  _numConfirmations */\n      dup2\n        /* \"contracts/MultiSig.sol\":2757:2784  _numConfirmations[_txIndex] */\n      0x00\n        /* \"contracts/MultiSig.sol\":2775:2783  _txIndex */\n      dup3\n        /* \"contracts/MultiSig.sol\":2757:2784  _numConfirmations[_txIndex] */\n      dup2\n      mstore\n      0x20\n      add\n      swap1\n      dup2\n      mstore\n      0x20\n      add\n      0x00\n      keccak256\n      0x00\n        /* \"contracts/MultiSig.sol\":2757:2786  _numConfirmations[_txIndex]-- */\n      dup2\n      sload\n      dup1\n      swap3\n      swap2\n      swap1\n      tag_118\n      swap1\n      tag_119\n      jump\t// in\n    tag_118:\n      swap2\n      swap1\n      pop\n      sstore\n      pop\n        /* \"contracts/MultiSig.sol\":2833:2841  _txIndex */\n      dup1\n        /* \"contracts/MultiSig.sol\":2821:2831  msg.sender */\n      caller\n        /* \"contracts/MultiSig.sol\":2802:2842  RevokeConfirmation(msg.sender, _txIndex) */\n      0xffffffffffffffffffffffffffffffffffffffff\n      and\n      0xf0dca620e2e81f7841d07bcc105e1704fb01475b278a9d4c236e1c62945edd55\n      mload(0x40)\n      mload(0x40)\n      dup1\n      swap2\n      sub\n      swap1\n      log3\n        /* \"contracts/MultiSig.sol\":2213:2849  function revokeConfirmation(... */\n      pop\n      pop\n      pop\n      pop\n      jump\t// out\n        /* \"contracts/MultiSig.sol\":575:930  function submitTransaction(Transaction[] storage _transactions, address _to, bytes memory _data, bool _multi) internal {... */\n    tag_56:\n        /* \"contracts/MultiSig.sol\":704:717  _transactions */\n      dup4\n        /* \"contracts/MultiSig.sol\":723:848  Transaction({... */\n      mload(0x40)\n      dup1\n      0x80\n      add\n      0x40\n      mstore\n      dup1\n        /* \"contracts/MultiSig.sol\":755:760  _data */\n      dup5\n        /* \"contracts/MultiSig.sol\":723:848  Transaction({... */\n      dup2\n      mstore\n      0x20\n      add\n        /* \"contracts/MultiSig.sol\":778:781  _to */\n      dup6\n        /* \"contracts/MultiSig.sol\":723:848  Transaction({... */\n      0xffffffffffffffffffffffffffffffffffffffff\n      and\n      dup2\n      mstore\n      0x20\n      add\n        /* \"contracts/MultiSig.sol\":805:810  false */\n      0x00\n        /* \"contracts/MultiSig.sol\":723:848  Transaction({... */\n      iszero\n      iszero\n      dup2\n      mstore\n      0x20\n      add\n        /* \"contracts/MultiSig.sol\":831:837  _multi */\n      dup4\n        /* \"contracts/MultiSig.sol\":723:848  Transaction({... */\n      iszero\n      iszero\n      dup2\n      mstore\n      pop\n        /* \"contracts/MultiSig.sol\":704:849  _transactions.push(Transaction({... */\n      swap1\n      dup1\n      0x01\n      dup2\n      sload\n      add\n      dup1\n      dup3\n      sstore\n      dup1\n      swap2\n      pop\n      pop\n      0x01\n      swap1\n      sub\n      swap1\n      0x00\n      mstore\n      keccak256(0x00, 0x20)\n      swap1\n      0x02\n      mul\n      add\n      0x00\n      swap1\n      swap2\n      swap1\n      swap2\n      swap1\n      swap2\n      pop\n      0x00\n      dup3\n      add\n      mload\n      dup2\n      0x00\n      add\n      swap1\n      dup2\n      tag_122\n      swap2\n      swap1\n      tag_123\n      jump\t// in\n    tag_122:\n      pop\n      0x20\n      dup3\n      add\n      mload\n      dup2\n      0x01\n      add\n      exp(0x0100, 0x00)\n      dup2\n      sload\n      dup2\n      0xffffffffffffffffffffffffffffffffffffffff\n      mul\n      not\n      and\n      swap1\n      dup4\n      0xffffffffffffffffffffffffffffffffffffffff\n      and\n      mul\n      or\n      swap1\n      sstore\n      pop\n      0x40\n      dup3\n      add\n      mload\n      dup2\n      0x01\n      add\n      exp(0x0100, 0x14)\n      dup2\n      sload\n      dup2\n      0xff\n      mul\n      not\n      and\n      swap1\n      dup4\n      iszero\n      iszero\n      mul\n      or\n      swap1\n      sstore\n      pop\n      0x60\n      dup3\n      add\n      mload\n      dup2\n      0x01\n      add\n      exp(0x0100, 0x15)\n      dup2\n      sload\n      dup2\n      0xff\n      mul\n      not\n      and\n      swap1\n      dup4\n      iszero\n      iszero\n      mul\n      or\n      swap1\n      sstore\n      pop\n      pop\n      pop\n        /* \"contracts/MultiSig.sol\":895:908  _transactions */\n      dup4\n        /* \"contracts/MultiSig.sol\":895:915  _transactions.length */\n      dup1\n      sload\n      swap1\n      pop\n        /* \"contracts/MultiSig.sol\":883:893  msg.sender */\n      caller\n        /* \"contracts/MultiSig.sol\":865:923  SubmitTransaction(msg.sender, _transactions.length, _data) */\n      0xffffffffffffffffffffffffffffffffffffffff\n      and\n      0xeb45f38ad35cf41b4f9be8cfcca269ef78ea04216dbc8b8a38f28491c84d005a\n        /* \"contracts/MultiSig.sol\":917:922  _data */\n      dup5\n        /* \"contracts/MultiSig.sol\":865:923  SubmitTransaction(msg.sender, _transactions.length, _data) */\n      mload(0x40)\n      tag_124\n      swap2\n      swap1\n      tag_125\n      jump\t// in\n    tag_124:\n      mload(0x40)\n      dup1\n      swap2\n      sub\n      swap1\n      log3\n        /* \"contracts/MultiSig.sol\":575:930  function submitTransaction(Transaction[] storage _transactions, address _to, bytes memory _data, bool _multi) internal {... */\n      pop\n      pop\n      pop\n      pop\n      jump\t// out\n        /* \"contracts/MultiSig.sol\":956:1617  function confirmTransaction(... */\n    tag_104:\n        /* \"contracts/MultiSig.sol\":1255:1267  _isConfirmed */\n      dup4\n        /* \"contracts/MultiSig.sol\":1255:1277  _isConfirmed[_txIndex] */\n      0x00\n        /* \"contracts/MultiSig.sol\":1268:1276  _txIndex */\n      dup3\n        /* \"contracts/MultiSig.sol\":1255:1277  _isConfirmed[_txIndex] */\n      dup2\n      mstore\n      0x20\n      add\n      swap1\n      dup2\n      mstore\n      0x20\n      add\n      0x00\n      keccak256\n        /* \"contracts/MultiSig.sol\":1255:1289  _isConfirmed[_txIndex][msg.sender] */\n      0x00\n        /* \"contracts/MultiSig.sol\":1278:1288  msg.sender */\n      caller\n        /* \"contracts/MultiSig.sol\":1255:1289  _isConfirmed[_txIndex][msg.sender] */\n      0xffffffffffffffffffffffffffffffffffffffff\n      and\n      0xffffffffffffffffffffffffffffffffffffffff\n      and\n      dup2\n      mstore\n      0x20\n      add\n      swap1\n      dup2\n      mstore\n      0x20\n      add\n      0x00\n      keccak256\n      0x00\n      swap1\n      sload\n      swap1\n      0x0100\n      exp\n      swap1\n      div\n      0xff\n      and\n        /* \"contracts/MultiSig.sol\":1254:1289  !_isConfirmed[_txIndex][msg.sender] */\n      iszero\n        /* \"contracts/MultiSig.sol\":1246:1323  require(!_isConfirmed[_txIndex][msg.sender], \"Transaction already confirmed\") */\n      tag_127\n      jumpi\n      mload(0x40)\n      0x08c379a000000000000000000000000000000000000000000000000000000000\n      dup2\n      mstore\n      0x04\n      add\n      tag_128\n      swap1\n      tag_129\n      jump\t// in\n    tag_128:\n      mload(0x40)\n      dup1\n      swap2\n      sub\n      swap1\n      revert\n    tag_127:\n        /* \"contracts/MultiSig.sol\":1371:1375  true */\n      0x01\n        /* \"contracts/MultiSig.sol\":1334:1346  _isConfirmed */\n      dup5\n        /* \"contracts/MultiSig.sol\":1334:1356  _isConfirmed[_txIndex] */\n      0x00\n        /* \"contracts/MultiSig.sol\":1347:1355  _txIndex */\n      dup4\n        /* \"contracts/MultiSig.sol\":1334:1356  _isConfirmed[_txIndex] */\n      dup2\n      mstore\n      0x20\n      add\n      swap1\n      dup2\n      mstore\n      0x20\n      add\n      0x00\n      keccak256\n        /* \"contracts/MultiSig.sol\":1334:1368  _isConfirmed[_txIndex][msg.sender] */\n      0x00\n        /* \"contracts/MultiSig.sol\":1357:1367  msg.sender */\n      caller\n        /* \"contracts/MultiSig.sol\":1334:1368  _isConfirmed[_txIndex][msg.sender] */\n      0xffffffffffffffffffffffffffffffffffffffff\n      and\n      0xffffffffffffffffffffffffffffffffffffffff\n      and\n      dup2\n      mstore\n      0x20\n      add\n      swap1\n      dup2\n      mstore\n      0x20\n      add\n      0x00\n      keccak256\n      0x00\n        /* \"contracts/MultiSig.sol\":1334:1375  _isConfirmed[_txIndex][msg.sender] = true */\n      0x0100\n      exp\n      dup2\n      sload\n      dup2\n      0xff\n      mul\n      not\n      and\n      swap1\n      dup4\n      iszero\n      iszero\n      mul\n      or\n      swap1\n      sstore\n      pop\n        /* \"contracts/MultiSig.sol\":1385:1402  _numConfirmations */\n      dup3\n        /* \"contracts/MultiSig.sol\":1385:1412  _numConfirmations[_txIndex] */\n      0x00\n        /* \"contracts/MultiSig.sol\":1403:1411  _txIndex */\n      dup3\n        /* \"contracts/MultiSig.sol\":1385:1412  _numConfirmations[_txIndex] */\n      dup2\n      mstore\n      0x20\n      add\n      swap1\n      dup2\n      mstore\n      0x20\n      add\n      0x00\n      keccak256\n      0x00\n        /* \"contracts/MultiSig.sol\":1385:1414  _numConfirmations[_txIndex]++ */\n      dup2\n      sload\n      dup1\n      swap3\n      swap2\n      swap1\n      tag_130\n      swap1\n      tag_131\n      jump\t// in\n    tag_130:\n      swap2\n      swap1\n      pop\n      sstore\n      pop\n        /* \"contracts/MultiSig.sol\":1461:1469  _txIndex */\n      dup1\n        /* \"contracts/MultiSig.sol\":1449:1459  msg.sender */\n      caller\n        /* \"contracts/MultiSig.sol\":1430:1470  ConfirmTransaction(msg.sender, _txIndex) */\n      0xffffffffffffffffffffffffffffffffffffffff\n      and\n      0x5cbe105e36805f7820e291f799d5794ff948af2a5f664e580382defb63390041\n      mload(0x40)\n      mload(0x40)\n      dup1\n      swap2\n      sub\n      swap1\n      log3\n        /* \"contracts/MultiSig.sol\":1516:1541  _numConfirmationsRequired */\n      dup2\n        /* \"contracts/MultiSig.sol\":1485:1502  _numConfirmations */\n      dup4\n        /* \"contracts/MultiSig.sol\":1485:1512  _numConfirmations[_txIndex] */\n      0x00\n        /* \"contracts/MultiSig.sol\":1503:1511  _txIndex */\n      dup4\n        /* \"contracts/MultiSig.sol\":1485:1512  _numConfirmations[_txIndex] */\n      dup2\n      mstore\n      0x20\n      add\n      swap1\n      dup2\n      mstore\n      0x20\n      add\n      0x00\n      keccak256\n      sload\n        /* \"contracts/MultiSig.sol\":1485:1541  _numConfirmations[_txIndex] >= _numConfirmationsRequired */\n      lt\n        /* \"contracts/MultiSig.sol\":1481:1611  if (_numConfirmations[_txIndex] >= _numConfirmationsRequired) {... */\n      tag_132\n      jumpi\n        /* \"contracts/MultiSig.sol\":1557:1600  executeTransaction(_transactions, _txIndex) */\n      tag_133\n        /* \"contracts/MultiSig.sol\":1576:1589  _transactions */\n      dup6\n        /* \"contracts/MultiSig.sol\":1591:1599  _txIndex */\n      dup3\n        /* \"contracts/MultiSig.sol\":1557:1575  executeTransaction */\n      tag_134\n        /* \"contracts/MultiSig.sol\":1557:1600  executeTransaction(_transactions, _txIndex) */\n      jump\t// in\n    tag_133:\n        /* \"contracts/MultiSig.sol\":1481:1611  if (_numConfirmations[_txIndex] >= _numConfirmationsRequired) {... */\n    tag_132:\n        /* \"contracts/MultiSig.sol\":956:1617  function confirmTransaction(... */\n      pop\n      pop\n      pop\n      pop\n      pop\n      jump\t// out\n        /* \"contracts/MultiSig.sol\":1643:2187  function executeTransaction(Transaction[] storage _transactions, uint _txIndex) internal {... */\n    tag_134:\n        /* \"contracts/MultiSig.sol\":1761:1774  _transactions */\n      dup2\n        /* \"contracts/MultiSig.sol\":1761:1781  _transactions.length */\n      dup1\n      sload\n      swap1\n      pop\n        /* \"contracts/MultiSig.sol\":1750:1758  _txIndex */\n      dup2\n        /* \"contracts/MultiSig.sol\":1750:1781  _txIndex < _transactions.length */\n      lt\n        /* \"contracts/MultiSig.sol\":1742:1811  require(_txIndex < _transactions.length, \"Invalid transaction index\") */\n      tag_136\n      jumpi\n      mload(0x40)\n      0x08c379a000000000000000000000000000000000000000000000000000000000\n      dup2\n      mstore\n      0x04\n      add\n      tag_137\n      swap1\n      tag_108\n      jump\t// in\n    tag_137:\n      mload(0x40)\n      dup1\n      swap2\n      sub\n      swap1\n      revert\n    tag_136:\n        /* \"contracts/MultiSig.sol\":1830:1843  _transactions */\n      dup2\n        /* \"contracts/MultiSig.sol\":1844:1852  _txIndex */\n      dup2\n        /* \"contracts/MultiSig.sol\":1830:1853  _transactions[_txIndex] */\n      dup2\n      sload\n      dup2\n      lt\n      tag_138\n      jumpi\n      tag_139\n      tag_80\n      jump\t// in\n    tag_139:\n    tag_138:\n      swap1\n      0x00\n      mstore\n      keccak256(0x00, 0x20)\n      swap1\n      0x02\n      mul\n      add\n        /* \"contracts/MultiSig.sol\":1830:1862  _transactions[_txIndex].executed */\n      0x01\n      add\n      0x14\n      swap1\n      sload\n      swap1\n      0x0100\n      exp\n      swap1\n      div\n      0xff\n      and\n        /* \"contracts/MultiSig.sol\":1829:1862  !_transactions[_txIndex].executed */\n      iszero\n        /* \"contracts/MultiSig.sol\":1821:1895  require(!_transactions[_txIndex].executed, \"Transaction already executed\") */\n      tag_141\n      jumpi\n      mload(0x40)\n      0x08c379a000000000000000000000000000000000000000000000000000000000\n      dup2\n      mstore\n      0x04\n      add\n      tag_142\n      swap1\n      tag_143\n      jump\t// in\n    tag_142:\n      mload(0x40)\n      dup1\n      swap2\n      sub\n      swap1\n      revert\n    tag_141:\n        /* \"contracts/MultiSig.sol\":1906:1937  Transaction storage transaction */\n      0x00\n        /* \"contracts/MultiSig.sol\":1940:1953  _transactions */\n      dup3\n        /* \"contracts/MultiSig.sol\":1954:1962  _txIndex */\n      dup3\n        /* \"contracts/MultiSig.sol\":1940:1963  _transactions[_txIndex] */\n      dup2\n      sload\n      dup2\n      lt\n      tag_144\n      jumpi\n      tag_145\n      tag_80\n      jump\t// in\n    tag_145:\n    tag_144:\n      swap1\n      0x00\n      mstore\n      keccak256(0x00, 0x20)\n      swap1\n      0x02\n      mul\n      add\n        /* \"contracts/MultiSig.sol\":1906:1963  Transaction storage transaction = _transactions[_txIndex] */\n      swap1\n      pop\n        /* \"contracts/MultiSig.sol\":1996:2000  true */\n      0x01\n        /* \"contracts/MultiSig.sol\":1973:1984  transaction */\n      dup2\n        /* \"contracts/MultiSig.sol\":1973:1993  transaction.executed */\n      0x01\n      add\n      0x14\n        /* \"contracts/MultiSig.sol\":1973:2000  transaction.executed = true */\n      0x0100\n      exp\n      dup2\n      sload\n      dup2\n      0xff\n      mul\n      not\n      and\n      swap1\n      dup4\n      iszero\n      iszero\n      mul\n      or\n      swap1\n      sstore\n      pop\n        /* \"contracts/MultiSig.sol\":2012:2024  bool success */\n      0x00\n        /* \"contracts/MultiSig.sol\":2030:2041  transaction */\n      dup2\n        /* \"contracts/MultiSig.sol\":2030:2044  transaction.to */\n      0x01\n      add\n      0x00\n      swap1\n      sload\n      swap1\n      0x0100\n      exp\n      swap1\n      div\n      0xffffffffffffffffffffffffffffffffffffffff\n      and\n        /* \"contracts/MultiSig.sol\":2030:2049  transaction.to.call */\n      0xffffffffffffffffffffffffffffffffffffffff\n      and\n        /* \"contracts/MultiSig.sol\":2050:2061  transaction */\n      dup3\n        /* \"contracts/MultiSig.sol\":2050:2066  transaction.data */\n      0x00\n      add\n        /* \"contracts/MultiSig.sol\":2030:2067  transaction.to.call(transaction.data) */\n      mload(0x40)\n      tag_147\n      swap2\n      swap1\n      tag_148\n      jump\t// in\n    tag_147:\n      0x00\n      mload(0x40)\n      dup1\n      dup4\n      sub\n      dup2\n      0x00\n      dup7\n      gas\n      call\n      swap2\n      pop\n      pop\n      returndatasize\n      dup1\n      0x00\n      dup2\n      eq\n      tag_151\n      jumpi\n      mload(0x40)\n      swap2\n      pop\n      and(add(returndatasize, 0x3f), not(0x1f))\n      dup3\n      add\n      0x40\n      mstore\n      returndatasize\n      dup3\n      mstore\n      returndatasize\n      0x00\n      0x20\n      dup5\n      add\n      returndatacopy\n      jump(tag_150)\n    tag_151:\n      0x60\n      swap2\n      pop\n    tag_150:\n      pop\n        /* \"contracts/MultiSig.sol\":2011:2067  (bool success, ) = transaction.to.call(transaction.data) */\n      pop\n      swap1\n      pop\n        /* \"contracts/MultiSig.sol\":2085:2092  success */\n      dup1\n        /* \"contracts/MultiSig.sol\":2077:2125  require(success, \"Transaction execution failed\") */\n      tag_152\n      jumpi\n      mload(0x40)\n      0x08c379a000000000000000000000000000000000000000000000000000000000\n      dup2\n      mstore\n      0x04\n      add\n      tag_153\n      swap1\n      tag_154\n      jump\t// in\n    tag_153:\n      mload(0x40)\n      dup1\n      swap2\n      sub\n      swap1\n      revert\n    tag_152:\n        /* \"contracts/MultiSig.sol\":2171:2179  _txIndex */\n      dup3\n        /* \"contracts/MultiSig.sol\":2159:2169  msg.sender */\n      caller\n        /* \"contracts/MultiSig.sol\":2140:2180  ExecuteTransaction(msg.sender, _txIndex) */\n      0xffffffffffffffffffffffffffffffffffffffff\n      and\n      0x5445f318f4f5fcfb66592e68e0cc5822aa15664039bd5f0ffde24c5a8142b1ac\n      mload(0x40)\n      mload(0x40)\n      dup1\n      swap2\n      sub\n      swap1\n      log3\n        /* \"contracts/MultiSig.sol\":1732:2187  {... */\n      pop\n      pop\n        /* \"contracts/MultiSig.sol\":1643:2187  function executeTransaction(Transaction[] storage _transactions, uint _txIndex) internal {... */\n      pop\n      pop\n      jump\t// out\n        /* \"#utility.yul\":7:82   */\n    tag_155:\n        /* \"#utility.yul\":40:46   */\n      0x00\n        /* \"#utility.yul\":73:75   */\n      0x40\n        /* \"#utility.yul\":67:76   */\n      mload\n        /* \"#utility.yul\":57:76   */\n      swap1\n      pop\n        /* \"#utility.yul\":7:82   */\n      swap1\n      jump\t// out\n        /* \"#utility.yul\":88:205   */\n    tag_156:\n        /* \"#utility.yul\":197:198   */\n      0x00\n        /* \"#utility.yul\":194:195   */\n      0x00\n        /* \"#utility.yul\":187:199   */\n      revert\n        /* \"#utility.yul\":211:328   */\n    tag_157:\n        /* \"#utility.yul\":320:321   */\n      0x00\n        /* \"#utility.yul\":317:318   */\n      0x00\n        /* \"#utility.yul\":310:322   */\n      revert\n        /* \"#utility.yul\":334:411   */\n    tag_158:\n        /* \"#utility.yul\":371:378   */\n      0x00\n        /* \"#utility.yul\":400:405   */\n      dup2\n        /* \"#utility.yul\":389:405   */\n      swap1\n      pop\n        /* \"#utility.yul\":334:411   */\n      swap2\n      swap1\n      pop\n      jump\t// out\n        /* \"#utility.yul\":417:539   */\n    tag_159:\n        /* \"#utility.yul\":490:514   */\n      tag_237\n        /* \"#utility.yul\":508:513   */\n      dup2\n        /* \"#utility.yul\":490:514   */\n      tag_158\n      jump\t// in\n    tag_237:\n        /* \"#utility.yul\":483:488   */\n      dup2\n        /* \"#utility.yul\":480:515   */\n      eq\n        /* \"#utility.yul\":470:533   */\n      tag_238\n      jumpi\n        /* \"#utility.yul\":529:530   */\n      0x00\n        /* \"#utility.yul\":526:527   */\n      0x00\n        /* \"#utility.yul\":519:531   */\n      revert\n        /* \"#utility.yul\":470:533   */\n    tag_238:\n        /* \"#utility.yul\":417:539   */\n      pop\n      jump\t// out\n        /* \"#utility.yul\":545:684   */\n    tag_160:\n        /* \"#utility.yul\":591:596   */\n      0x00\n        /* \"#utility.yul\":629:635   */\n      dup2\n        /* \"#utility.yul\":616:636   */\n      calldataload\n        /* \"#utility.yul\":607:636   */\n      swap1\n      pop\n        /* \"#utility.yul\":645:678   */\n      tag_240\n        /* \"#utility.yul\":672:677   */\n      dup2\n        /* \"#utility.yul\":645:678   */\n      tag_159\n      jump\t// in\n    tag_240:\n        /* \"#utility.yul\":545:684   */\n      swap3\n      swap2\n      pop\n      pop\n      jump\t// out\n        /* \"#utility.yul\":690:1019   */\n    tag_11:\n        /* \"#utility.yul\":749:755   */\n      0x00\n        /* \"#utility.yul\":798:800   */\n      0x20\n        /* \"#utility.yul\":786:795   */\n      dup3\n        /* \"#utility.yul\":777:784   */\n      dup5\n        /* \"#utility.yul\":773:796   */\n      sub\n        /* \"#utility.yul\":769:801   */\n      slt\n        /* \"#utility.yul\":766:885   */\n      iszero\n      tag_242\n      jumpi\n        /* \"#utility.yul\":804:883   */\n      tag_243\n      tag_156\n      jump\t// in\n    tag_243:\n        /* \"#utility.yul\":766:885   */\n    tag_242:\n        /* \"#utility.yul\":924:925   */\n      0x00\n        /* \"#utility.yul\":949:1002   */\n      tag_244\n        /* \"#utility.yul\":994:1001   */\n      dup5\n        /* \"#utility.yul\":985:991   */\n      dup3\n        /* \"#utility.yul\":974:983   */\n      dup6\n        /* \"#utility.yul\":970:992   */\n      add\n        /* \"#utility.yul\":949:1002   */\n      tag_160\n      jump\t// in\n    tag_244:\n        /* \"#utility.yul\":939:1002   */\n      swap2\n      pop\n        /* \"#utility.yul\":895:1012   */\n      pop\n        /* \"#utility.yul\":690:1019   */\n      swap3\n      swap2\n      pop\n      pop\n      jump\t// out\n        /* \"#utility.yul\":1025:1151   */\n    tag_161:\n        /* \"#utility.yul\":1062:1069   */\n      0x00\n        /* \"#utility.yul\":1102:1144   */\n      0xffffffffffffffffffffffffffffffffffffffff\n        /* \"#utility.yul\":1095:1100   */\n      dup3\n        /* \"#utility.yul\":1091:1145   */\n      and\n        /* \"#utility.yul\":1080:1145   */\n      swap1\n      pop\n        /* \"#utility.yul\":1025:1151   */\n      swap2\n      swap1\n      pop\n      jump\t// out\n        /* \"#utility.yul\":1157:1253   */\n    tag_162:\n        /* \"#utility.yul\":1194:1201   */\n      0x00\n        /* \"#utility.yul\":1223:1247   */\n      tag_247\n        /* \"#utility.yul\":1241:1246   */\n      dup3\n        /* \"#utility.yul\":1223:1247   */\n      tag_161\n      jump\t// in\n    tag_247:\n        /* \"#utility.yul\":1212:1247   */\n      swap1\n      pop\n        /* \"#utility.yul\":1157:1253   */\n      swap2\n      swap1\n      pop\n      jump\t// out\n        /* \"#utility.yul\":1259:1381   */\n    tag_163:\n        /* \"#utility.yul\":1332:1356   */\n      tag_249\n        /* \"#utility.yul\":1350:1355   */\n      dup2\n        /* \"#utility.yul\":1332:1356   */\n      tag_162\n      jump\t// in\n    tag_249:\n        /* \"#utility.yul\":1325:1330   */\n      dup2\n        /* \"#utility.yul\":1322:1357   */\n      eq\n        /* \"#utility.yul\":1312:1375   */\n      tag_250\n      jumpi\n        /* \"#utility.yul\":1371:1372   */\n      0x00\n        /* \"#utility.yul\":1368:1369   */\n      0x00\n        /* \"#utility.yul\":1361:1373   */\n      revert\n        /* \"#utility.yul\":1312:1375   */\n    tag_250:\n        /* \"#utility.yul\":1259:1381   */\n      pop\n      jump\t// out\n        /* \"#utility.yul\":1387:1526   */\n    tag_164:\n        /* \"#utility.yul\":1433:1438   */\n      0x00\n        /* \"#utility.yul\":1471:1477   */\n      dup2\n        /* \"#utility.yul\":1458:1478   */\n      calldataload\n        /* \"#utility.yul\":1449:1478   */\n      swap1\n      pop\n        /* \"#utility.yul\":1487:1520   */\n      tag_252\n        /* \"#utility.yul\":1514:1519   */\n      dup2\n        /* \"#utility.yul\":1487:1520   */\n      tag_163\n      jump\t// in\n    tag_252:\n        /* \"#utility.yul\":1387:1526   */\n      swap3\n      swap2\n      pop\n      pop\n      jump\t// out\n        /* \"#utility.yul\":1532:1861   */\n    tag_18:\n        /* \"#utility.yul\":1591:1597   */\n      0x00\n        /* \"#utility.yul\":1640:1642   */\n      0x20\n        /* \"#utility.yul\":1628:1637   */\n      dup3\n        /* \"#utility.yul\":1619:1626   */\n      dup5\n        /* \"#utility.yul\":1615:1638   */\n      sub\n        /* \"#utility.yul\":1611:1643   */\n      slt\n        /* \"#utility.yul\":1608:1727   */\n      iszero\n      tag_254\n      jumpi\n        /* \"#utility.yul\":1646:1725   */\n      tag_255\n      tag_156\n      jump\t// in\n    tag_255:\n        /* \"#utility.yul\":1608:1727   */\n    tag_254:\n        /* \"#utility.yul\":1766:1767   */\n      0x00\n        /* \"#utility.yul\":1791:1844   */\n      tag_256\n        /* \"#utility.yul\":1836:1843   */\n      dup5\n        /* \"#utility.yul\":1827:1833   */\n      dup3\n        /* \"#utility.yul\":1816:1825   */\n      dup6\n        /* \"#utility.yul\":1812:1834   */\n      add\n        /* \"#utility.yul\":1791:1844   */\n      tag_164\n      jump\t// in\n    tag_256:\n        /* \"#utility.yul\":1781:1844   */\n      swap2\n      pop\n        /* \"#utility.yul\":1737:1854   */\n      pop\n        /* \"#utility.yul\":1532:1861   */\n      swap3\n      swap2\n      pop\n      pop\n      jump\t// out\n        /* \"#utility.yul\":1867:1985   */\n    tag_165:\n        /* \"#utility.yul\":1954:1978   */\n      tag_258\n        /* \"#utility.yul\":1972:1977   */\n      dup2\n        /* \"#utility.yul\":1954:1978   */\n      tag_158\n      jump\t// in\n    tag_258:\n        /* \"#utility.yul\":1949:1952   */\n      dup3\n        /* \"#utility.yul\":1942:1979   */\n      mstore\n        /* \"#utility.yul\":1867:1985   */\n      pop\n      pop\n      jump\t// out\n        /* \"#utility.yul\":1991:2213   */\n    tag_21:\n        /* \"#utility.yul\":2084:2088   */\n      0x00\n        /* \"#utility.yul\":2122:2124   */\n      0x20\n        /* \"#utility.yul\":2111:2120   */\n      dup3\n        /* \"#utility.yul\":2107:2125   */\n      add\n        /* \"#utility.yul\":2099:2125   */\n      swap1\n      pop\n        /* \"#utility.yul\":2135:2206   */\n      tag_260\n        /* \"#utility.yul\":2203:2204   */\n      0x00\n        /* \"#utility.yul\":2192:2201   */\n      dup4\n        /* \"#utility.yul\":2188:2205   */\n      add\n        /* \"#utility.yul\":2179:2185   */\n      dup5\n        /* \"#utility.yul\":2135:2206   */\n      tag_165\n      jump\t// in\n    tag_260:\n        /* \"#utility.yul\":1991:2213   */\n      swap3\n      swap2\n      pop\n      pop\n      jump\t// out\n        /* \"#utility.yul\":2219:2361   */\n    tag_166:\n        /* \"#utility.yul\":2314:2320   */\n      0x00\n        /* \"#utility.yul\":2348:2353   */\n      dup2\n        /* \"#utility.yul\":2342:2354   */\n      mload\n        /* \"#utility.yul\":2332:2354   */\n      swap1\n      pop\n        /* \"#utility.yul\":2219:2361   */\n      swap2\n      swap1\n      pop\n      jump\t// out\n        /* \"#utility.yul\":2367:2579   */\n    tag_167:\n        /* \"#utility.yul\":2494:2505   */\n      0x00\n        /* \"#utility.yul\":2528:2534   */\n      dup3\n        /* \"#utility.yul\":2523:2526   */\n      dup3\n        /* \"#utility.yul\":2516:2535   */\n      mstore\n        /* \"#utility.yul\":2568:2572   */\n      0x20\n        /* \"#utility.yul\":2563:2566   */\n      dup3\n        /* \"#utility.yul\":2559:2573   */\n      add\n        /* \"#utility.yul\":2544:2573   */\n      swap1\n      pop\n        /* \"#utility.yul\":2367:2579   */\n      swap3\n      swap2\n      pop\n      pop\n      jump\t// out\n        /* \"#utility.yul\":2585:2745   */\n    tag_168:\n        /* \"#utility.yul\":2680:2684   */\n      0x00\n        /* \"#utility.yul\":2703:2706   */\n      dup2\n        /* \"#utility.yul\":2695:2706   */\n      swap1\n      pop\n        /* \"#utility.yul\":2733:2737   */\n      0x20\n        /* \"#utility.yul\":2728:2731   */\n      dup3\n        /* \"#utility.yul\":2724:2738   */\n      add\n        /* \"#utility.yul\":2716:2738   */\n      swap1\n      pop\n        /* \"#utility.yul\":2585:2745   */\n      swap2\n      swap1\n      pop\n      jump\t// out\n        /* \"#utility.yul\":2751:2849   */\n    tag_169:\n        /* \"#utility.yul\":2802:2808   */\n      0x00\n        /* \"#utility.yul\":2836:2841   */\n      dup2\n        /* \"#utility.yul\":2830:2842   */\n      mload\n        /* \"#utility.yul\":2820:2842   */\n      swap1\n      pop\n        /* \"#utility.yul\":2751:2849   */\n      swap2\n      swap1\n      pop\n      jump\t// out\n        /* \"#utility.yul\":2855:3013   */\n    tag_170:\n        /* \"#utility.yul\":2928:2939   */\n      0x00\n        /* \"#utility.yul\":2962:2968   */\n      dup3\n        /* \"#utility.yul\":2957:2960   */\n      dup3\n        /* \"#utility.yul\":2950:2969   */\n      mstore\n        /* \"#utility.yul\":3002:3006   */\n      0x20\n        /* \"#utility.yul\":2997:3000   */\n      dup3\n        /* \"#utility.yul\":2993:3007   */\n      add\n        /* \"#utility.yul\":2978:3007   */\n      swap1\n      pop\n        /* \"#utility.yul\":2855:3013   */\n      swap3\n      swap2\n      pop\n      pop\n      jump\t// out\n        /* \"#utility.yul\":3019:3158   */\n    tag_171:\n        /* \"#utility.yul\":3108:3114   */\n      dup3\n        /* \"#utility.yul\":3103:3106   */\n      dup2\n        /* \"#utility.yul\":3098:3101   */\n      dup4\n        /* \"#utility.yul\":3092:3115   */\n      mcopy\n        /* \"#utility.yul\":3149:3150   */\n      0x00\n        /* \"#utility.yul\":3140:3146   */\n      dup4\n        /* \"#utility.yul\":3135:3138   */\n      dup4\n        /* \"#utility.yul\":3131:3147   */\n      add\n        /* \"#utility.yul\":3124:3151   */\n      mstore\n        /* \"#utility.yul\":3019:3158   */\n      pop\n      pop\n      pop\n      jump\t// out\n        /* \"#utility.yul\":3164:3266   */\n    tag_172:\n        /* \"#utility.yul\":3205:3211   */\n      0x00\n        /* \"#utility.yul\":3256:3258   */\n      0x1f\n        /* \"#utility.yul\":3252:3259   */\n      not\n        /* \"#utility.yul\":3247:3249   */\n      0x1f\n        /* \"#utility.yul\":3240:3245   */\n      dup4\n        /* \"#utility.yul\":3236:3250   */\n      add\n        /* \"#utility.yul\":3232:3260   */\n      and\n        /* \"#utility.yul\":3222:3260   */\n      swap1\n      pop\n        /* \"#utility.yul\":3164:3266   */\n      swap2\n      swap1\n      pop\n      jump\t// out\n        /* \"#utility.yul\":3272:3625   */\n    tag_173:\n        /* \"#utility.yul\":3348:3351   */\n      0x00\n        /* \"#utility.yul\":3376:3414   */\n      tag_269\n        /* \"#utility.yul\":3408:3413   */\n      dup3\n        /* \"#utility.yul\":3376:3414   */\n      tag_169\n      jump\t// in\n    tag_269:\n        /* \"#utility.yul\":3430:3490   */\n      tag_270\n        /* \"#utility.yul\":3483:3489   */\n      dup2\n        /* \"#utility.yul\":3478:3481   */\n      dup6\n        /* \"#utility.yul\":3430:3490   */\n      tag_170\n      jump\t// in\n    tag_270:\n        /* \"#utility.yul\":3423:3490   */\n      swap4\n      pop\n        /* \"#utility.yul\":3499:3564   */\n      tag_271\n        /* \"#utility.yul\":3557:3563   */\n      dup2\n        /* \"#utility.yul\":3552:3555   */\n      dup6\n        /* \"#utility.yul\":3545:3549   */\n      0x20\n        /* \"#utility.yul\":3538:3543   */\n      dup7\n        /* \"#utility.yul\":3534:3550   */\n      add\n        /* \"#utility.yul\":3499:3564   */\n      tag_171\n      jump\t// in\n    tag_271:\n        /* \"#utility.yul\":3589:3618   */\n      tag_272\n        /* \"#utility.yul\":3611:3617   */\n      dup2\n        /* \"#utility.yul\":3589:3618   */\n      tag_172\n      jump\t// in\n    tag_272:\n        /* \"#utility.yul\":3584:3587   */\n      dup5\n        /* \"#utility.yul\":3580:3619   */\n      add\n        /* \"#utility.yul\":3573:3619   */\n      swap2\n      pop\n        /* \"#utility.yul\":3352:3625   */\n      pop\n        /* \"#utility.yul\":3272:3625   */\n      swap3\n      swap2\n      pop\n      pop\n      jump\t// out\n        /* \"#utility.yul\":3631:3739   */\n    tag_174:\n        /* \"#utility.yul\":3708:3732   */\n      tag_274\n        /* \"#utility.yul\":3726:3731   */\n      dup2\n        /* \"#utility.yul\":3708:3732   */\n      tag_162\n      jump\t// in\n    tag_274:\n        /* \"#utility.yul\":3703:3706   */\n      dup3\n        /* \"#utility.yul\":3696:3733   */\n      mstore\n        /* \"#utility.yul\":3631:3739   */\n      pop\n      pop\n      jump\t// out\n        /* \"#utility.yul\":3745:3835   */\n    tag_175:\n        /* \"#utility.yul\":3779:3786   */\n      0x00\n        /* \"#utility.yul\":3822:3827   */\n      dup2\n        /* \"#utility.yul\":3815:3828   */\n      iszero\n        /* \"#utility.yul\":3808:3829   */\n      iszero\n        /* \"#utility.yul\":3797:3829   */\n      swap1\n      pop\n        /* \"#utility.yul\":3745:3835   */\n      swap2\n      swap1\n      pop\n      jump\t// out\n        /* \"#utility.yul\":3841:3940   */\n    tag_176:\n        /* \"#utility.yul\":3912:3933   */\n      tag_277\n        /* \"#utility.yul\":3927:3932   */\n      dup2\n        /* \"#utility.yul\":3912:3933   */\n      tag_175\n      jump\t// in\n    tag_277:\n        /* \"#utility.yul\":3907:3910   */\n      dup3\n        /* \"#utility.yul\":3900:3934   */\n      mstore\n        /* \"#utility.yul\":3841:3940   */\n      pop\n      pop\n      jump\t// out\n        /* \"#utility.yul\":4012:4951   */\n    tag_177:\n        /* \"#utility.yul\":4127:4130   */\n      0x00\n        /* \"#utility.yul\":4163:4167   */\n      0x80\n        /* \"#utility.yul\":4158:4161   */\n      dup4\n        /* \"#utility.yul\":4154:4168   */\n      add\n        /* \"#utility.yul\":4250:4254   */\n      0x00\n        /* \"#utility.yul\":4243:4248   */\n      dup4\n        /* \"#utility.yul\":4239:4255   */\n      add\n        /* \"#utility.yul\":4233:4256   */\n      mload\n        /* \"#utility.yul\":4303:4306   */\n      dup5\n        /* \"#utility.yul\":4297:4301   */\n      dup3\n        /* \"#utility.yul\":4293:4307   */\n      sub\n        /* \"#utility.yul\":4286:4290   */\n      0x00\n        /* \"#utility.yul\":4281:4284   */\n      dup7\n        /* \"#utility.yul\":4277:4291   */\n      add\n        /* \"#utility.yul\":4270:4308   */\n      mstore\n        /* \"#utility.yul\":4329:4400   */\n      tag_279\n        /* \"#utility.yul\":4395:4399   */\n      dup3\n        /* \"#utility.yul\":4381:4393   */\n      dup3\n        /* \"#utility.yul\":4329:4400   */\n      tag_173\n      jump\t// in\n    tag_279:\n        /* \"#utility.yul\":4321:4400   */\n      swap2\n      pop\n        /* \"#utility.yul\":4178:4411   */\n      pop\n        /* \"#utility.yul\":4491:4495   */\n      0x20\n        /* \"#utility.yul\":4484:4489   */\n      dup4\n        /* \"#utility.yul\":4480:4496   */\n      add\n        /* \"#utility.yul\":4474:4497   */\n      mload\n        /* \"#utility.yul\":4510:4573   */\n      tag_280\n        /* \"#utility.yul\":4567:4571   */\n      0x20\n        /* \"#utility.yul\":4562:4565   */\n      dup7\n        /* \"#utility.yul\":4558:4572   */\n      add\n        /* \"#utility.yul\":4544:4556   */\n      dup3\n        /* \"#utility.yul\":4510:4573   */\n      tag_174\n      jump\t// in\n    tag_280:\n        /* \"#utility.yul\":4421:4583   */\n      pop\n        /* \"#utility.yul\":4669:4673   */\n      0x40\n        /* \"#utility.yul\":4662:4667   */\n      dup4\n        /* \"#utility.yul\":4658:4674   */\n      add\n        /* \"#utility.yul\":4652:4675   */\n      mload\n        /* \"#utility.yul\":4688:4745   */\n      tag_281\n        /* \"#utility.yul\":4739:4743   */\n      0x40\n        /* \"#utility.yul\":4734:4737   */\n      dup7\n        /* \"#utility.yul\":4730:4744   */\n      add\n        /* \"#utility.yul\":4716:4728   */\n      dup3\n        /* \"#utility.yul\":4688:4745   */\n      tag_176\n      jump\t// in\n    tag_281:\n        /* \"#utility.yul\":4593:4755   */\n      pop\n        /* \"#utility.yul\":4838:4842   */\n      0x60\n        /* \"#utility.yul\":4831:4836   */\n      dup4\n        /* \"#utility.yul\":4827:4843   */\n      add\n        /* \"#utility.yul\":4821:4844   */\n      mload\n        /* \"#utility.yul\":4857:4914   */\n      tag_282\n        /* \"#utility.yul\":4908:4912   */\n      0x60\n        /* \"#utility.yul\":4903:4906   */\n      dup7\n        /* \"#utility.yul\":4899:4913   */\n      add\n        /* \"#utility.yul\":4885:4897   */\n      dup3\n        /* \"#utility.yul\":4857:4914   */\n      tag_176\n      jump\t// in\n    tag_282:\n        /* \"#utility.yul\":4765:4924   */\n      pop\n        /* \"#utility.yul\":4941:4945   */\n      dup1\n        /* \"#utility.yul\":4934:4945   */\n      swap2\n      pop\n        /* \"#utility.yul\":4132:4951   */\n      pop\n        /* \"#utility.yul\":4012:4951   */\n      swap3\n      swap2\n      pop\n      pop\n      jump\t// out\n        /* \"#utility.yul\":4957:5225   */\n    tag_178:\n        /* \"#utility.yul\":5082:5092   */\n      0x00\n        /* \"#utility.yul\":5117:5219   */\n      tag_284\n        /* \"#utility.yul\":5215:5218   */\n      dup4\n        /* \"#utility.yul\":5207:5213   */\n      dup4\n        /* \"#utility.yul\":5117:5219   */\n      tag_177\n      jump\t// in\n    tag_284:\n        /* \"#utility.yul\":5103:5219   */\n      swap1\n      pop\n        /* \"#utility.yul\":4957:5225   */\n      swap3\n      swap2\n      pop\n      pop\n      jump\t// out\n        /* \"#utility.yul\":5231:5372   */\n    tag_179:\n        /* \"#utility.yul\":5329:5333   */\n      0x00\n        /* \"#utility.yul\":5361:5365   */\n      0x20\n        /* \"#utility.yul\":5356:5359   */\n      dup3\n        /* \"#utility.yul\":5352:5366   */\n      add\n        /* \"#utility.yul\":5344:5366   */\n      swap1\n      pop\n        /* \"#utility.yul\":5231:5372   */\n      swap2\n      swap1\n      pop\n      jump\t// out\n        /* \"#utility.yul\":5448:6583   */\n    tag_180:\n        /* \"#utility.yul\":5623:5626   */\n      0x00\n        /* \"#utility.yul\":5652:5734   */\n      tag_287\n        /* \"#utility.yul\":5728:5733   */\n      dup3\n        /* \"#utility.yul\":5652:5734   */\n      tag_166\n      jump\t// in\n    tag_287:\n        /* \"#utility.yul\":5750:5864   */\n      tag_288\n        /* \"#utility.yul\":5857:5863   */\n      dup2\n        /* \"#utility.yul\":5852:5855   */\n      dup6\n        /* \"#utility.yul\":5750:5864   */\n      tag_167\n      jump\t// in\n    tag_288:\n        /* \"#utility.yul\":5743:5864   */\n      swap4\n      pop\n        /* \"#utility.yul\":5890:5893   */\n      dup4\n        /* \"#utility.yul\":5935:5939   */\n      0x20\n        /* \"#utility.yul\":5927:5933   */\n      dup3\n        /* \"#utility.yul\":5923:5940   */\n      mul\n        /* \"#utility.yul\":5918:5921   */\n      dup6\n        /* \"#utility.yul\":5914:5941   */\n      add\n        /* \"#utility.yul\":5965:6049   */\n      tag_289\n        /* \"#utility.yul\":6043:6048   */\n      dup6\n        /* \"#utility.yul\":5965:6049   */\n      tag_168\n      jump\t// in\n    tag_289:\n        /* \"#utility.yul\":6072:6079   */\n      dup1\n        /* \"#utility.yul\":6103:6104   */\n      0x00\n        /* \"#utility.yul\":6088:6538   */\n    tag_290:\n        /* \"#utility.yul\":6113:6119   */\n      dup6\n        /* \"#utility.yul\":6110:6111   */\n      dup2\n        /* \"#utility.yul\":6107:6120   */\n      lt\n        /* \"#utility.yul\":6088:6538   */\n      iszero\n      tag_292\n      jumpi\n        /* \"#utility.yul\":6184:6193   */\n      dup5\n        /* \"#utility.yul\":6178:6182   */\n      dup5\n        /* \"#utility.yul\":6174:6194   */\n      sub\n        /* \"#utility.yul\":6169:6172   */\n      dup10\n        /* \"#utility.yul\":6162:6195   */\n      mstore\n        /* \"#utility.yul\":6235:6241   */\n      dup2\n        /* \"#utility.yul\":6229:6242   */\n      mload\n        /* \"#utility.yul\":6263:6383   */\n      tag_293\n        /* \"#utility.yul\":6378:6382   */\n      dup6\n        /* \"#utility.yul\":6363:6376   */\n      dup3\n        /* \"#utility.yul\":6263:6383   */\n      tag_178\n      jump\t// in\n    tag_293:\n        /* \"#utility.yul\":6255:6383   */\n      swap5\n      pop\n        /* \"#utility.yul\":6406:6494   */\n      tag_294\n        /* \"#utility.yul\":6487:6493   */\n      dup4\n        /* \"#utility.yul\":6406:6494   */\n      tag_179\n      jump\t// in\n    tag_294:\n        /* \"#utility.yul\":6396:6494   */\n      swap3\n      pop\n        /* \"#utility.yul\":6523:6527   */\n      0x20\n        /* \"#utility.yul\":6518:6521   */\n      dup11\n        /* \"#utility.yul\":6514:6528   */\n      add\n        /* \"#utility.yul\":6507:6528   */\n      swap10\n      pop\n        /* \"#utility.yul\":6148:6538   */\n      pop\n        /* \"#utility.yul\":6135:6136   */\n      0x01\n        /* \"#utility.yul\":6132:6133   */\n      dup2\n        /* \"#utility.yul\":6128:6137   */\n      add\n        /* \"#utility.yul\":6123:6137   */\n      swap1\n      pop\n        /* \"#utility.yul\":6088:6538   */\n      jump(tag_290)\n    tag_292:\n        /* \"#utility.yul\":6092:6106   */\n      pop\n        /* \"#utility.yul\":6554:6558   */\n      dup3\n        /* \"#utility.yul\":6547:6558   */\n      swap8\n      pop\n        /* \"#utility.yul\":6574:6577   */\n      dup8\n        /* \"#utility.yul\":6567:6577   */\n      swap6\n      pop\n        /* \"#utility.yul\":5628:6583   */\n      pop\n      pop\n      pop\n      pop\n      pop\n        /* \"#utility.yul\":5448:6583   */\n      swap3\n      swap2\n      pop\n      pop\n      jump\t// out\n        /* \"#utility.yul\":6589:7074   */\n    tag_25:\n        /* \"#utility.yul\":6788:6792   */\n      0x00\n        /* \"#utility.yul\":6826:6828   */\n      0x20\n        /* \"#utility.yul\":6815:6824   */\n      dup3\n        /* \"#utility.yul\":6811:6829   */\n      add\n        /* \"#utility.yul\":6803:6829   */\n      swap1\n      pop\n        /* \"#utility.yul\":6875:6884   */\n      dup2\n        /* \"#utility.yul\":6869:6873   */\n      dup2\n        /* \"#utility.yul\":6865:6885   */\n      sub\n        /* \"#utility.yul\":6861:6862   */\n      0x00\n        /* \"#utility.yul\":6850:6859   */\n      dup4\n        /* \"#utility.yul\":6846:6863   */\n      add\n        /* \"#utility.yul\":6839:6886   */\n      mstore\n        /* \"#utility.yul\":6903:7067   */\n      tag_296\n        /* \"#utility.yul\":7062:7066   */\n      dup2\n        /* \"#utility.yul\":7053:7059   */\n      dup5\n        /* \"#utility.yul\":6903:7067   */\n      tag_180\n      jump\t// in\n    tag_296:\n        /* \"#utility.yul\":6895:7067   */\n      swap1\n      pop\n        /* \"#utility.yul\":6589:7074   */\n      swap3\n      swap2\n      pop\n      pop\n      jump\t// out\n        /* \"#utility.yul\":7080:7197   */\n    tag_181:\n        /* \"#utility.yul\":7189:7190   */\n      0x00\n        /* \"#utility.yul\":7186:7187   */\n      0x00\n        /* \"#utility.yul\":7179:7191   */\n      revert\n        /* \"#utility.yul\":7203:7383   */\n    tag_182:\n        /* \"#utility.yul\":7251:7328   */\n      0x4e487b7100000000000000000000000000000000000000000000000000000000\n        /* \"#utility.yul\":7248:7249   */\n      0x00\n        /* \"#utility.yul\":7241:7329   */\n      mstore\n        /* \"#utility.yul\":7348:7352   */\n      0x41\n        /* \"#utility.yul\":7345:7346   */\n      0x04\n        /* \"#utility.yul\":7338:7353   */\n      mstore\n        /* \"#utility.yul\":7372:7376   */\n      0x24\n        /* \"#utility.yul\":7369:7370   */\n      0x00\n        /* \"#utility.yul\":7362:7377   */\n      revert\n        /* \"#utility.yul\":7389:7670   */\n    tag_183:\n        /* \"#utility.yul\":7472:7499   */\n      tag_300\n        /* \"#utility.yul\":7494:7498   */\n      dup3\n        /* \"#utility.yul\":7472:7499   */\n      tag_172\n      jump\t// in\n    tag_300:\n        /* \"#utility.yul\":7464:7470   */\n      dup2\n        /* \"#utility.yul\":7460:7500   */\n      add\n        /* \"#utility.yul\":7602:7608   */\n      dup2\n        /* \"#utility.yul\":7590:7600   */\n      dup2\n        /* \"#utility.yul\":7587:7609   */\n      lt\n        /* \"#utility.yul\":7566:7584   */\n      0xffffffffffffffff\n        /* \"#utility.yul\":7554:7564   */\n      dup3\n        /* \"#utility.yul\":7551:7585   */\n      gt\n        /* \"#utility.yul\":7548:7610   */\n      or\n        /* \"#utility.yul\":7545:7633   */\n      iszero\n      tag_301\n      jumpi\n        /* \"#utility.yul\":7613:7631   */\n      tag_302\n      tag_182\n      jump\t// in\n    tag_302:\n        /* \"#utility.yul\":7545:7633   */\n    tag_301:\n        /* \"#utility.yul\":7653:7663   */\n      dup1\n        /* \"#utility.yul\":7649:7651   */\n      0x40\n        /* \"#utility.yul\":7642:7664   */\n      mstore\n        /* \"#utility.yul\":7432:7670   */\n      pop\n        /* \"#utility.yul\":7389:7670   */\n      pop\n      pop\n      jump\t// out\n        /* \"#utility.yul\":7676:7805   */\n    tag_184:\n        /* \"#utility.yul\":7710:7716   */\n      0x00\n        /* \"#utility.yul\":7737:7757   */\n      tag_304\n      tag_155\n      jump\t// in\n    tag_304:\n        /* \"#utility.yul\":7727:7757   */\n      swap1\n      pop\n        /* \"#utility.yul\":7766:7799   */\n      tag_305\n        /* \"#utility.yul\":7794:7798   */\n      dup3\n        /* \"#utility.yul\":7786:7792   */\n      dup3\n        /* \"#utility.yul\":7766:7799   */\n      tag_183\n      jump\t// in\n    tag_305:\n        /* \"#utility.yul\":7676:7805   */\n      swap2\n      swap1\n      pop\n      jump\t// out\n        /* \"#utility.yul\":7811:8122   */\n    tag_185:\n        /* \"#utility.yul\":7888:7892   */\n      0x00\n        /* \"#utility.yul\":7978:7996   */\n      0xffffffffffffffff\n        /* \"#utility.yul\":7970:7976   */\n      dup3\n        /* \"#utility.yul\":7967:7997   */\n      gt\n        /* \"#utility.yul\":7964:8020   */\n      iszero\n      tag_307\n      jumpi\n        /* \"#utility.yul\":8000:8018   */\n      tag_308\n      tag_182\n      jump\t// in\n    tag_308:\n        /* \"#utility.yul\":7964:8020   */\n    tag_307:\n        /* \"#utility.yul\":8050:8054   */\n      0x20\n        /* \"#utility.yul\":8042:8048   */\n      dup3\n        /* \"#utility.yul\":8038:8055   */\n      mul\n        /* \"#utility.yul\":8030:8055   */\n      swap1\n      pop\n        /* \"#utility.yul\":8110:8114   */\n      0x20\n        /* \"#utility.yul\":8104:8108   */\n      dup2\n        /* \"#utility.yul\":8100:8115   */\n      add\n        /* \"#utility.yul\":8092:8115   */\n      swap1\n      pop\n        /* \"#utility.yul\":7811:8122   */\n      swap2\n      swap1\n      pop\n      jump\t// out\n        /* \"#utility.yul\":8128:8245   */\n    tag_186:\n        /* \"#utility.yul\":8237:8238   */\n      0x00\n        /* \"#utility.yul\":8234:8235   */\n      0x00\n        /* \"#utility.yul\":8227:8239   */\n      revert\n        /* \"#utility.yul\":8268:8978   */\n    tag_187:\n        /* \"#utility.yul\":8364:8369   */\n      0x00\n        /* \"#utility.yul\":8389:8470   */\n      tag_311\n        /* \"#utility.yul\":8405:8469   */\n      tag_312\n        /* \"#utility.yul\":8462:8468   */\n      dup5\n        /* \"#utility.yul\":8405:8469   */\n      tag_185\n      jump\t// in\n    tag_312:\n        /* \"#utility.yul\":8389:8470   */\n      tag_184\n      jump\t// in\n    tag_311:\n        /* \"#utility.yul\":8380:8470   */\n      swap1\n      pop\n        /* \"#utility.yul\":8490:8495   */\n      dup1\n        /* \"#utility.yul\":8519:8525   */\n      dup4\n        /* \"#utility.yul\":8512:8517   */\n      dup3\n        /* \"#utility.yul\":8505:8526   */\n      mstore\n        /* \"#utility.yul\":8553:8557   */\n      0x20\n        /* \"#utility.yul\":8546:8551   */\n      dup3\n        /* \"#utility.yul\":8542:8558   */\n      add\n        /* \"#utility.yul\":8535:8558   */\n      swap1\n      pop\n        /* \"#utility.yul\":8606:8610   */\n      0x20\n        /* \"#utility.yul\":8598:8604   */\n      dup5\n        /* \"#utility.yul\":8594:8611   */\n      mul\n        /* \"#utility.yul\":8586:8592   */\n      dup4\n        /* \"#utility.yul\":8582:8612   */\n      add\n        /* \"#utility.yul\":8635:8638   */\n      dup6\n        /* \"#utility.yul\":8627:8633   */\n      dup2\n        /* \"#utility.yul\":8624:8639   */\n      gt\n        /* \"#utility.yul\":8621:8743   */\n      iszero\n      tag_313\n      jumpi\n        /* \"#utility.yul\":8654:8733   */\n      tag_314\n      tag_186\n      jump\t// in\n    tag_314:\n        /* \"#utility.yul\":8621:8743   */\n    tag_313:\n        /* \"#utility.yul\":8769:8775   */\n      dup4\n        /* \"#utility.yul\":8752:8972   */\n    tag_315:\n        /* \"#utility.yul\":8786:8792   */\n      dup2\n        /* \"#utility.yul\":8781:8784   */\n      dup2\n        /* \"#utility.yul\":8778:8793   */\n      lt\n        /* \"#utility.yul\":8752:8972   */\n      iszero\n      tag_317\n      jumpi\n        /* \"#utility.yul\":8861:8864   */\n      dup1\n        /* \"#utility.yul\":8890:8927   */\n      tag_318\n        /* \"#utility.yul\":8923:8926   */\n      dup9\n        /* \"#utility.yul\":8911:8921   */\n      dup3\n        /* \"#utility.yul\":8890:8927   */\n      tag_164\n      jump\t// in\n    tag_318:\n        /* \"#utility.yul\":8885:8888   */\n      dup5\n        /* \"#utility.yul\":8878:8928   */\n      mstore\n        /* \"#utility.yul\":8957:8961   */\n      0x20\n        /* \"#utility.yul\":8952:8955   */\n      dup5\n        /* \"#utility.yul\":8948:8962   */\n      add\n        /* \"#utility.yul\":8941:8962   */\n      swap4\n      pop\n        /* \"#utility.yul\":8828:8972   */\n      pop\n        /* \"#utility.yul\":8812:8816   */\n      0x20\n        /* \"#utility.yul\":8807:8810   */\n      dup2\n        /* \"#utility.yul\":8803:8817   */\n      add\n        /* \"#utility.yul\":8796:8817   */\n      swap1\n      pop\n        /* \"#utility.yul\":8752:8972   */\n      jump(tag_315)\n    tag_317:\n        /* \"#utility.yul\":8756:8777   */\n      pop\n        /* \"#utility.yul\":8370:8978   */\n      pop\n      pop\n        /* \"#utility.yul\":8268:8978   */\n      swap4\n      swap3\n      pop\n      pop\n      pop\n      jump\t// out\n        /* \"#utility.yul\":9001:9371   */\n    tag_188:\n        /* \"#utility.yul\":9072:9077   */\n      0x00\n        /* \"#utility.yul\":9121:9124   */\n      dup3\n        /* \"#utility.yul\":9114:9118   */\n      0x1f\n        /* \"#utility.yul\":9106:9112   */\n      dup4\n        /* \"#utility.yul\":9102:9119   */\n      add\n        /* \"#utility.yul\":9098:9125   */\n      slt\n        /* \"#utility.yul\":9088:9210   */\n      tag_320\n      jumpi\n        /* \"#utility.yul\":9129:9208   */\n      tag_321\n      tag_181\n      jump\t// in\n    tag_321:\n        /* \"#utility.yul\":9088:9210   */\n    tag_320:\n        /* \"#utility.yul\":9246:9252   */\n      dup2\n        /* \"#utility.yul\":9233:9253   */\n      calldataload\n        /* \"#utility.yul\":9271:9365   */\n      tag_322\n        /* \"#utility.yul\":9361:9364   */\n      dup5\n        /* \"#utility.yul\":9353:9359   */\n      dup3\n        /* \"#utility.yul\":9346:9350   */\n      0x20\n        /* \"#utility.yul\":9338:9344   */\n      dup7\n        /* \"#utility.yul\":9334:9351   */\n      add\n        /* \"#utility.yul\":9271:9365   */\n      tag_187\n      jump\t// in\n    tag_322:\n        /* \"#utility.yul\":9262:9365   */\n      swap2\n      pop\n        /* \"#utility.yul\":9078:9371   */\n      pop\n        /* \"#utility.yul\":9001:9371   */\n      swap3\n      swap2\n      pop\n      pop\n      jump\t// out\n        /* \"#utility.yul\":9377:9916   */\n    tag_28:\n        /* \"#utility.yul\":9461:9467   */\n      0x00\n        /* \"#utility.yul\":9510:9512   */\n      0x20\n        /* \"#utility.yul\":9498:9507   */\n      dup3\n        /* \"#utility.yul\":9489:9496   */\n      dup5\n        /* \"#utility.yul\":9485:9508   */\n      sub\n        /* \"#utility.yul\":9481:9513   */\n      slt\n        /* \"#utility.yul\":9478:9597   */\n      iszero\n      tag_324\n      jumpi\n        /* \"#utility.yul\":9516:9595   */\n      tag_325\n      tag_156\n      jump\t// in\n    tag_325:\n        /* \"#utility.yul\":9478:9597   */\n    tag_324:\n        /* \"#utility.yul\":9664:9665   */\n      0x00\n        /* \"#utility.yul\":9653:9662   */\n      dup3\n        /* \"#utility.yul\":9649:9666   */\n      add\n        /* \"#utility.yul\":9636:9667   */\n      calldataload\n        /* \"#utility.yul\":9694:9712   */\n      0xffffffffffffffff\n        /* \"#utility.yul\":9686:9692   */\n      dup2\n        /* \"#utility.yul\":9683:9713   */\n      gt\n        /* \"#utility.yul\":9680:9797   */\n      iszero\n      tag_326\n      jumpi\n        /* \"#utility.yul\":9716:9795   */\n      tag_327\n      tag_157\n      jump\t// in\n    tag_327:\n        /* \"#utility.yul\":9680:9797   */\n    tag_326:\n        /* \"#utility.yul\":9821:9899   */\n      tag_328\n        /* \"#utility.yul\":9891:9898   */\n      dup5\n        /* \"#utility.yul\":9882:9888   */\n      dup3\n        /* \"#utility.yul\":9871:9880   */\n      dup6\n        /* \"#utility.yul\":9867:9889   */\n      add\n        /* \"#utility.yul\":9821:9899   */\n      tag_188\n      jump\t// in\n    tag_328:\n        /* \"#utility.yul\":9811:9899   */\n      swap2\n      pop\n        /* \"#utility.yul\":9607:9909   */\n      pop\n        /* \"#utility.yul\":9377:9916   */\n      swap3\n      swap2\n      pop\n      pop\n      jump\t// out\n        /* \"#utility.yul\":9922:10091   */\n    tag_189:\n        /* \"#utility.yul\":10006:10017   */\n      0x00\n        /* \"#utility.yul\":10040:10046   */\n      dup3\n        /* \"#utility.yul\":10035:10038   */\n      dup3\n        /* \"#utility.yul\":10028:10047   */\n      mstore\n        /* \"#utility.yul\":10080:10084   */\n      0x20\n        /* \"#utility.yul\":10075:10078   */\n      dup3\n        /* \"#utility.yul\":10071:10085   */\n      add\n        /* \"#utility.yul\":10056:10085   */\n      swap1\n      pop\n        /* \"#utility.yul\":9922:10091   */\n      swap3\n      swap2\n      pop\n      pop\n      jump\t// out\n        /* \"#utility.yul\":10097:10269   */\n    tag_190:\n        /* \"#utility.yul\":10237:10261   */\n      0x4f6e6c7920746865206f776e65722063616e2075736500000000000000000000\n        /* \"#utility.yul\":10233:10234   */\n      0x00\n        /* \"#utility.yul\":10225:10231   */\n      dup3\n        /* \"#utility.yul\":10221:10235   */\n      add\n        /* \"#utility.yul\":10214:10262   */\n      mstore\n        /* \"#utility.yul\":10097:10269   */\n      pop\n      jump\t// out\n        /* \"#utility.yul\":10275:10641   */\n    tag_191:\n        /* \"#utility.yul\":10417:10420   */\n      0x00\n        /* \"#utility.yul\":10438:10505   */\n      tag_332\n        /* \"#utility.yul\":10502:10504   */\n      0x16\n        /* \"#utility.yul\":10497:10500   */\n      dup4\n        /* \"#utility.yul\":10438:10505   */\n      tag_189\n      jump\t// in\n    tag_332:\n        /* \"#utility.yul\":10431:10505   */\n      swap2\n      pop\n        /* \"#utility.yul\":10514:10607   */\n      tag_333\n        /* \"#utility.yul\":10603:10606   */\n      dup3\n        /* \"#utility.yul\":10514:10607   */\n      tag_190\n      jump\t// in\n    tag_333:\n        /* \"#utility.yul\":10632:10634   */\n      0x20\n        /* \"#utility.yul\":10627:10630   */\n      dup3\n        /* \"#utility.yul\":10623:10635   */\n      add\n        /* \"#utility.yul\":10616:10635   */\n      swap1\n      pop\n        /* \"#utility.yul\":10275:10641   */\n      swap2\n      swap1\n      pop\n      jump\t// out\n        /* \"#utility.yul\":10647:11066   */\n    tag_36:\n        /* \"#utility.yul\":10813:10817   */\n      0x00\n        /* \"#utility.yul\":10851:10853   */\n      0x20\n        /* \"#utility.yul\":10840:10849   */\n      dup3\n        /* \"#utility.yul\":10836:10854   */\n      add\n        /* \"#utility.yul\":10828:10854   */\n      swap1\n      pop\n        /* \"#utility.yul\":10900:10909   */\n      dup2\n        /* \"#utility.yul\":10894:10898   */\n      dup2\n        /* \"#utility.yul\":10890:10910   */\n      sub\n        /* \"#utility.yul\":10886:10887   */\n      0x00\n        /* \"#utility.yul\":10875:10884   */\n      dup4\n        /* \"#utility.yul\":10871:10888   */\n      add\n        /* \"#utility.yul\":10864:10911   */\n      mstore\n        /* \"#utility.yul\":10928:11059   */\n      tag_335\n        /* \"#utility.yul\":11054:11058   */\n      dup2\n        /* \"#utility.yul\":10928:11059   */\n      tag_191\n      jump\t// in\n    tag_335:\n        /* \"#utility.yul\":10920:11059   */\n      swap1\n      pop\n        /* \"#utility.yul\":10647:11066   */\n      swap2\n      swap1\n      pop\n      jump\t// out\n        /* \"#utility.yul\":11072:11309   */\n    tag_192:\n        /* \"#utility.yul\":11212:11246   */\n      0x7265717569726564206e756d626572206d757374203e3d2031206f72203c3d20\n        /* \"#utility.yul\":11208:11209   */\n      0x00\n        /* \"#utility.yul\":11200:11206   */\n      dup3\n        /* \"#utility.yul\":11196:11210   */\n      add\n        /* \"#utility.yul\":11189:11247   */\n      mstore\n        /* \"#utility.yul\":11281:11301   */\n      0x636f6e74726f6c6c6572206d656d6265722e0000000000000000000000000000\n        /* \"#utility.yul\":11276:11278   */\n      0x20\n        /* \"#utility.yul\":11268:11274   */\n      dup3\n        /* \"#utility.yul\":11264:11279   */\n      add\n        /* \"#utility.yul\":11257:11302   */\n      mstore\n        /* \"#utility.yul\":11072:11309   */\n      pop\n      jump\t// out\n        /* \"#utility.yul\":11315:11681   */\n    tag_193:\n        /* \"#utility.yul\":11457:11460   */\n      0x00\n        /* \"#utility.yul\":11478:11545   */\n      tag_338\n        /* \"#utility.yul\":11542:11544   */\n      0x32\n        /* \"#utility.yul\":11537:11540   */\n      dup4\n        /* \"#utility.yul\":11478:11545   */\n      tag_189\n      jump\t// in\n    tag_338:\n        /* \"#utility.yul\":11471:11545   */\n      swap2\n      pop\n        /* \"#utility.yul\":11554:11647   */\n      tag_339\n        /* \"#utility.yul\":11643:11646   */\n      dup3\n        /* \"#utility.yul\":11554:11647   */\n      tag_192\n      jump\t// in\n    tag_339:\n        /* \"#utility.yul\":11672:11674   */\n      0x40\n        /* \"#utility.yul\":11667:11670   */\n      dup3\n        /* \"#utility.yul\":11663:11675   */\n      add\n        /* \"#utility.yul\":11656:11675   */\n      swap1\n      pop\n        /* \"#utility.yul\":11315:11681   */\n      swap2\n      swap1\n      pop\n      jump\t// out\n        /* \"#utility.yul\":11687:12106   */\n    tag_41:\n        /* \"#utility.yul\":11853:11857   */\n      0x00\n        /* \"#utility.yul\":11891:11893   */\n      0x20\n        /* \"#utility.yul\":11880:11889   */\n      dup3\n        /* \"#utility.yul\":11876:11894   */\n      add\n        /* \"#utility.yul\":11868:11894   */\n      swap1\n      pop\n        /* \"#utility.yul\":11940:11949   */\n      dup2\n        /* \"#utility.yul\":11934:11938   */\n      dup2\n        /* \"#utility.yul\":11930:11950   */\n      sub\n        /* \"#utility.yul\":11926:11927   */\n      0x00\n        /* \"#utility.yul\":11915:11924   */\n      dup4\n        /* \"#utility.yul\":11911:11928   */\n      add\n        /* \"#utility.yul\":11904:11951   */\n      mstore\n        /* \"#utility.yul\":11968:12099   */\n      tag_341\n        /* \"#utility.yul\":12094:12098   */\n      dup2\n        /* \"#utility.yul\":11968:12099   */\n      tag_193\n      jump\t// in\n    tag_341:\n        /* \"#utility.yul\":11960:12099   */\n      swap1\n      pop\n        /* \"#utility.yul\":11687:12106   */\n      swap2\n      swap1\n      pop\n      jump\t// out\n        /* \"#utility.yul\":12112:12292   */\n    tag_194:\n        /* \"#utility.yul\":12252:12284   */\n      0x4f6e6c79207468652061646d696e6973747261746f722063616e207573650000\n        /* \"#utility.yul\":12248:12249   */\n      0x00\n        /* \"#utility.yul\":12240:12246   */\n      dup3\n        /* \"#utility.yul\":12236:12250   */\n      add\n        /* \"#utility.yul\":12229:12285   */\n      mstore\n        /* \"#utility.yul\":12112:12292   */\n      pop\n      jump\t// out\n        /* \"#utility.yul\":12298:12664   */\n    tag_195:\n        /* \"#utility.yul\":12440:12443   */\n      0x00\n        /* \"#utility.yul\":12461:12528   */\n      tag_344\n        /* \"#utility.yul\":12525:12527   */\n      0x1e\n        /* \"#utility.yul\":12520:12523   */\n      dup4\n        /* \"#utility.yul\":12461:12528   */\n      tag_189\n      jump\t// in\n    tag_344:\n        /* \"#utility.yul\":12454:12528   */\n      swap2\n      pop\n        /* \"#utility.yul\":12537:12630   */\n      tag_345\n        /* \"#utility.yul\":12626:12629   */\n      dup3\n        /* \"#utility.yul\":12537:12630   */\n      tag_194\n      jump\t// in\n    tag_345:\n        /* \"#utility.yul\":12655:12657   */\n      0x20\n        /* \"#utility.yul\":12650:12653   */\n      dup3\n        /* \"#utility.yul\":12646:12658   */\n      add\n        /* \"#utility.yul\":12639:12658   */\n      swap1\n      pop\n        /* \"#utility.yul\":12298:12664   */\n      swap2\n      swap1\n      pop\n      jump\t// out\n        /* \"#utility.yul\":12670:13089   */\n    tag_45:\n        /* \"#utility.yul\":12836:12840   */\n      0x00\n        /* \"#utility.yul\":12874:12876   */\n      0x20\n        /* \"#utility.yul\":12863:12872   */\n      dup3\n        /* \"#utility.yul\":12859:12877   */\n      add\n        /* \"#utility.yul\":12851:12877   */\n      swap1\n      pop\n        /* \"#utility.yul\":12923:12932   */\n      dup2\n        /* \"#utility.yul\":12917:12921   */\n      dup2\n        /* \"#utility.yul\":12913:12933   */\n      sub\n        /* \"#utility.yul\":12909:12910   */\n      0x00\n        /* \"#utility.yul\":12898:12907   */\n      dup4\n        /* \"#utility.yul\":12894:12911   */\n      add\n        /* \"#utility.yul\":12887:12934   */\n      mstore\n        /* \"#utility.yul\":12951:13082   */\n      tag_347\n        /* \"#utility.yul\":13077:13081   */\n      dup2\n        /* \"#utility.yul\":12951:13082   */\n      tag_195\n      jump\t// in\n    tag_347:\n        /* \"#utility.yul\":12943:13082   */\n      swap1\n      pop\n        /* \"#utility.yul\":12670:13089   */\n      swap2\n      swap1\n      pop\n      jump\t// out\n        /* \"#utility.yul\":13095:13213   */\n    tag_196:\n        /* \"#utility.yul\":13182:13206   */\n      tag_349\n        /* \"#utility.yul\":13200:13205   */\n      dup2\n        /* \"#utility.yul\":13182:13206   */\n      tag_162\n      jump\t// in\n    tag_349:\n        /* \"#utility.yul\":13177:13180   */\n      dup3\n        /* \"#utility.yul\":13170:13207   */\n      mstore\n        /* \"#utility.yul\":13095:13213   */\n      pop\n      pop\n      jump\t// out\n        /* \"#utility.yul\":13219:13441   */\n    tag_55:\n        /* \"#utility.yul\":13312:13316   */\n      0x00\n        /* \"#utility.yul\":13350:13352   */\n      0x20\n        /* \"#utility.yul\":13339:13348   */\n      dup3\n        /* \"#utility.yul\":13335:13353   */\n      add\n        /* \"#utility.yul\":13327:13353   */\n      swap1\n      pop\n        /* \"#utility.yul\":13363:13434   */\n      tag_351\n        /* \"#utility.yul\":13431:13432   */\n      0x00\n        /* \"#utility.yul\":13420:13429   */\n      dup4\n        /* \"#utility.yul\":13416:13433   */\n      add\n        /* \"#utility.yul\":13407:13413   */\n      dup5\n        /* \"#utility.yul\":13363:13434   */\n      tag_196\n      jump\t// in\n    tag_351:\n        /* \"#utility.yul\":13219:13441   */\n      swap3\n      swap2\n      pop\n      pop\n      jump\t// out\n        /* \"#utility.yul\":13447:13627   */\n    tag_197:\n        /* \"#utility.yul\":13495:13572   */\n      0x4e487b7100000000000000000000000000000000000000000000000000000000\n        /* \"#utility.yul\":13492:13493   */\n      0x00\n        /* \"#utility.yul\":13485:13573   */\n      mstore\n        /* \"#utility.yul\":13592:13596   */\n      0x22\n        /* \"#utility.yul\":13589:13590   */\n      0x04\n        /* \"#utility.yul\":13582:13597   */\n      mstore\n        /* \"#utility.yul\":13616:13620   */\n      0x24\n        /* \"#utility.yul\":13613:13614   */\n      0x00\n        /* \"#utility.yul\":13606:13621   */\n      revert\n        /* \"#utility.yul\":13633:13953   */\n    tag_65:\n        /* \"#utility.yul\":13677:13683   */\n      0x00\n        /* \"#utility.yul\":13714:13715   */\n      0x02\n        /* \"#utility.yul\":13708:13712   */\n      dup3\n        /* \"#utility.yul\":13704:13716   */\n      div\n        /* \"#utility.yul\":13694:13716   */\n      swap1\n      pop\n        /* \"#utility.yul\":13761:13762   */\n      0x01\n        /* \"#utility.yul\":13755:13759   */\n      dup3\n        /* \"#utility.yul\":13751:13763   */\n      and\n        /* \"#utility.yul\":13782:13800   */\n      dup1\n        /* \"#utility.yul\":13772:13853   */\n      tag_354\n      jumpi\n        /* \"#utility.yul\":13838:13842   */\n      0x7f\n        /* \"#utility.yul\":13830:13836   */\n      dup3\n        /* \"#utility.yul\":13826:13843   */\n      and\n        /* \"#utility.yul\":13816:13843   */\n      swap2\n      pop\n        /* \"#utility.yul\":13772:13853   */\n    tag_354:\n        /* \"#utility.yul\":13900:13902   */\n      0x20\n        /* \"#utility.yul\":13892:13898   */\n      dup3\n        /* \"#utility.yul\":13889:13903   */\n      lt\n        /* \"#utility.yul\":13869:13887   */\n      dup2\n        /* \"#utility.yul\":13866:13904   */\n      sub\n        /* \"#utility.yul\":13863:13947   */\n      tag_355\n      jumpi\n        /* \"#utility.yul\":13919:13937   */\n      tag_356\n      tag_197\n      jump\t// in\n    tag_356:\n        /* \"#utility.yul\":13863:13947   */\n    tag_355:\n        /* \"#utility.yul\":13684:13953   */\n      pop\n        /* \"#utility.yul\":13633:13953   */\n      swap2\n      swap1\n      pop\n      jump\t// out\n        /* \"#utility.yul\":13959:14139   */\n    tag_198:\n        /* \"#utility.yul\":14007:14084   */\n      0x4e487b7100000000000000000000000000000000000000000000000000000000\n        /* \"#utility.yul\":14004:14005   */\n      0x00\n        /* \"#utility.yul\":13997:14085   */\n      mstore\n        /* \"#utility.yul\":14104:14108   */\n      0x11\n        /* \"#utility.yul\":14101:14102   */\n      0x04\n        /* \"#utility.yul\":14094:14109   */\n      mstore\n        /* \"#utility.yul\":14128:14132   */\n      0x24\n        /* \"#utility.yul\":14125:14126   */\n      0x00\n        /* \"#utility.yul\":14118:14133   */\n      revert\n        /* \"#utility.yul\":14145:14339   */\n    tag_77:\n        /* \"#utility.yul\":14185:14189   */\n      0x00\n        /* \"#utility.yul\":14205:14225   */\n      tag_359\n        /* \"#utility.yul\":14223:14224   */\n      dup3\n        /* \"#utility.yul\":14205:14225   */\n      tag_158\n      jump\t// in\n    tag_359:\n        /* \"#utility.yul\":14200:14225   */\n      swap2\n      pop\n        /* \"#utility.yul\":14239:14259   */\n      tag_360\n        /* \"#utility.yul\":14257:14258   */\n      dup4\n        /* \"#utility.yul\":14239:14259   */\n      tag_158\n      jump\t// in\n    tag_360:\n        /* \"#utility.yul\":14234:14259   */\n      swap3\n      pop\n        /* \"#utility.yul\":14283:14284   */\n      dup3\n        /* \"#utility.yul\":14280:14281   */\n      dup3\n        /* \"#utility.yul\":14276:14285   */\n      sub\n        /* \"#utility.yul\":14268:14285   */\n      swap1\n      pop\n        /* \"#utility.yul\":14307:14308   */\n      dup2\n        /* \"#utility.yul\":14301:14305   */\n      dup2\n        /* \"#utility.yul\":14298:14309   */\n      gt\n        /* \"#utility.yul\":14295:14332   */\n      iszero\n      tag_361\n      jumpi\n        /* \"#utility.yul\":14312:14330   */\n      tag_362\n      tag_198\n      jump\t// in\n    tag_362:\n        /* \"#utility.yul\":14295:14332   */\n    tag_361:\n        /* \"#utility.yul\":14145:14339   */\n      swap3\n      swap2\n      pop\n      pop\n      jump\t// out\n        /* \"#utility.yul\":14345:14525   */\n    tag_80:\n        /* \"#utility.yul\":14393:14470   */\n      0x4e487b7100000000000000000000000000000000000000000000000000000000\n        /* \"#utility.yul\":14390:14391   */\n      0x00\n        /* \"#utility.yul\":14383:14471   */\n      mstore\n        /* \"#utility.yul\":14490:14494   */\n      0x32\n        /* \"#utility.yul\":14487:14488   */\n      0x04\n        /* \"#utility.yul\":14480:14495   */\n      mstore\n        /* \"#utility.yul\":14514:14518   */\n      0x24\n        /* \"#utility.yul\":14511:14512   */\n      0x00\n        /* \"#utility.yul\":14504:14519   */\n      revert\n        /* \"#utility.yul\":14531:14711   */\n    tag_84:\n        /* \"#utility.yul\":14579:14656   */\n      0x4e487b7100000000000000000000000000000000000000000000000000000000\n        /* \"#utility.yul\":14576:14577   */\n      0x00\n        /* \"#utility.yul\":14569:14657   */\n      mstore\n        /* \"#utility.yul\":14676:14680   */\n      0x31\n        /* \"#utility.yul\":14673:14674   */\n      0x04\n        /* \"#utility.yul\":14666:14681   */\n      mstore\n        /* \"#utility.yul\":14700:14704   */\n      0x24\n        /* \"#utility.yul\":14697:14698   */\n      0x00\n        /* \"#utility.yul\":14690:14705   */\n      revert\n        /* \"#utility.yul\":14717:14803   */\n    tag_199:\n        /* \"#utility.yul\":14752:14759   */\n      0x00\n        /* \"#utility.yul\":14792:14796   */\n      0xff\n        /* \"#utility.yul\":14785:14790   */\n      dup3\n        /* \"#utility.yul\":14781:14797   */\n      and\n        /* \"#utility.yul\":14770:14797   */\n      swap1\n      pop\n        /* \"#utility.yul\":14717:14803   */\n      swap2\n      swap1\n      pop\n      jump\t// out\n        /* \"#utility.yul\":14809:14976   */\n    tag_98:\n        /* \"#utility.yul\":14846:14849   */\n      0x00\n        /* \"#utility.yul\":14869:14891   */\n      tag_367\n        /* \"#utility.yul\":14885:14890   */\n      dup3\n        /* \"#utility.yul\":14869:14891   */\n      tag_199\n      jump\t// in\n    tag_367:\n        /* \"#utility.yul\":14860:14891   */\n      swap2\n      pop\n        /* \"#utility.yul\":14913:14917   */\n      0xff\n        /* \"#utility.yul\":14906:14911   */\n      dup3\n        /* \"#utility.yul\":14903:14918   */\n      sub\n        /* \"#utility.yul\":14900:14941   */\n      tag_368\n      jumpi\n        /* \"#utility.yul\":14921:14939   */\n      tag_369\n      tag_198\n      jump\t// in\n    tag_369:\n        /* \"#utility.yul\":14900:14941   */\n    tag_368:\n        /* \"#utility.yul\":14968:14969   */\n      0x01\n        /* \"#utility.yul\":14961:14966   */\n      dup3\n        /* \"#utility.yul\":14957:14970   */\n      add\n        /* \"#utility.yul\":14950:14970   */\n      swap1\n      pop\n        /* \"#utility.yul\":14809:14976   */\n      swap2\n      swap1\n      pop\n      jump\t// out\n        /* \"#utility.yul\":14982:15157   */\n    tag_200:\n        /* \"#utility.yul\":15122:15149   */\n      0x496e76616c6964207472616e73616374696f6e20696e64657800000000000000\n        /* \"#utility.yul\":15118:15119   */\n      0x00\n        /* \"#utility.yul\":15110:15116   */\n      dup3\n        /* \"#utility.yul\":15106:15120   */\n      add\n        /* \"#utility.yul\":15099:15150   */\n      mstore\n        /* \"#utility.yul\":14982:15157   */\n      pop\n      jump\t// out\n        /* \"#utility.yul\":15163:15529   */\n    tag_201:\n        /* \"#utility.yul\":15305:15308   */\n      0x00\n        /* \"#utility.yul\":15326:15393   */\n      tag_372\n        /* \"#utility.yul\":15390:15392   */\n      0x19\n        /* \"#utility.yul\":15385:15388   */\n      dup4\n        /* \"#utility.yul\":15326:15393   */\n      tag_189\n      jump\t// in\n    tag_372:\n        /* \"#utility.yul\":15319:15393   */\n      swap2\n      pop\n        /* \"#utility.yul\":15402:15495   */\n      tag_373\n        /* \"#utility.yul\":15491:15494   */\n      dup3\n        /* \"#utility.yul\":15402:15495   */\n      tag_200\n      jump\t// in\n    tag_373:\n        /* \"#utility.yul\":15520:15522   */\n      0x20\n        /* \"#utility.yul\":15515:15518   */\n      dup3\n        /* \"#utility.yul\":15511:15523   */\n      add\n        /* \"#utility.yul\":15504:15523   */\n      swap1\n      pop\n        /* \"#utility.yul\":15163:15529   */\n      swap2\n      swap1\n      pop\n      jump\t// out\n        /* \"#utility.yul\":15535:15954   */\n    tag_108:\n        /* \"#utility.yul\":15701:15705   */\n      0x00\n        /* \"#utility.yul\":15739:15741   */\n      0x20\n        /* \"#utility.yul\":15728:15737   */\n      dup3\n        /* \"#utility.yul\":15724:15742   */\n      add\n        /* \"#utility.yul\":15716:15742   */\n      swap1\n      pop\n        /* \"#utility.yul\":15788:15797   */\n      dup2\n        /* \"#utility.yul\":15782:15786   */\n      dup2\n        /* \"#utility.yul\":15778:15798   */\n      sub\n        /* \"#utility.yul\":15774:15775   */\n      0x00\n        /* \"#utility.yul\":15763:15772   */\n      dup4\n        /* \"#utility.yul\":15759:15776   */\n      add\n        /* \"#utility.yul\":15752:15799   */\n      mstore\n        /* \"#utility.yul\":15816:15947   */\n      tag_375\n        /* \"#utility.yul\":15942:15946   */\n      dup2\n        /* \"#utility.yul\":15816:15947   */\n      tag_201\n      jump\t// in\n    tag_375:\n        /* \"#utility.yul\":15808:15947   */\n      swap1\n      pop\n        /* \"#utility.yul\":15535:15954   */\n      swap2\n      swap1\n      pop\n      jump\t// out\n        /* \"#utility.yul\":15960:16134   */\n    tag_202:\n        /* \"#utility.yul\":16100:16126   */\n      0x5472616e73616374696f6e206e6f742065786563757465640000000000000000\n        /* \"#utility.yul\":16096:16097   */\n      0x00\n        /* \"#utility.yul\":16088:16094   */\n      dup3\n        /* \"#utility.yul\":16084:16098   */\n      add\n        /* \"#utility.yul\":16077:16127   */\n      mstore\n        /* \"#utility.yul\":15960:16134   */\n      pop\n      jump\t// out\n        /* \"#utility.yul\":16140:16506   */\n    tag_203:\n        /* \"#utility.yul\":16282:16285   */\n      0x00\n        /* \"#utility.yul\":16303:16370   */\n      tag_378\n        /* \"#utility.yul\":16367:16369   */\n      0x18\n        /* \"#utility.yul\":16362:16365   */\n      dup4\n        /* \"#utility.yul\":16303:16370   */\n      tag_189\n      jump\t// in\n    tag_378:\n        /* \"#utility.yul\":16296:16370   */\n      swap2\n      pop\n        /* \"#utility.yul\":16379:16472   */\n      tag_379\n        /* \"#utility.yul\":16468:16471   */\n      dup3\n        /* \"#utility.yul\":16379:16472   */\n      tag_202\n      jump\t// in\n    tag_379:\n        /* \"#utility.yul\":16497:16499   */\n      0x20\n        /* \"#utility.yul\":16492:16495   */\n      dup3\n        /* \"#utility.yul\":16488:16500   */\n      add\n        /* \"#utility.yul\":16481:16500   */\n      swap1\n      pop\n        /* \"#utility.yul\":16140:16506   */\n      swap2\n      swap1\n      pop\n      jump\t// out\n        /* \"#utility.yul\":16512:16931   */\n    tag_114:\n        /* \"#utility.yul\":16678:16682   */\n      0x00\n        /* \"#utility.yul\":16716:16718   */\n      0x20\n        /* \"#utility.yul\":16705:16714   */\n      dup3\n        /* \"#utility.yul\":16701:16719   */\n      add\n        /* \"#utility.yul\":16693:16719   */\n      swap1\n      pop\n        /* \"#utility.yul\":16765:16774   */\n      dup2\n        /* \"#utility.yul\":16759:16763   */\n      dup2\n        /* \"#utility.yul\":16755:16775   */\n      sub\n        /* \"#utility.yul\":16751:16752   */\n      0x00\n        /* \"#utility.yul\":16740:16749   */\n      dup4\n        /* \"#utility.yul\":16736:16753   */\n      add\n        /* \"#utility.yul\":16729:16776   */\n      mstore\n        /* \"#utility.yul\":16793:16924   */\n      tag_381\n        /* \"#utility.yul\":16919:16923   */\n      dup2\n        /* \"#utility.yul\":16793:16924   */\n      tag_203\n      jump\t// in\n    tag_381:\n        /* \"#utility.yul\":16785:16924   */\n      swap1\n      pop\n        /* \"#utility.yul\":16512:16931   */\n      swap2\n      swap1\n      pop\n      jump\t// out\n        /* \"#utility.yul\":16937:17112   */\n    tag_204:\n        /* \"#utility.yul\":17077:17104   */\n      0x5472616e73616374696f6e206e6f7420636f6e6669726d656400000000000000\n        /* \"#utility.yul\":17073:17074   */\n      0x00\n        /* \"#utility.yul\":17065:17071   */\n      dup3\n        /* \"#utility.yul\":17061:17075   */\n      add\n        /* \"#utility.yul\":17054:17105   */\n      mstore\n        /* \"#utility.yul\":16937:17112   */\n      pop\n      jump\t// out\n        /* \"#utility.yul\":17118:17484   */\n    tag_205:\n        /* \"#utility.yul\":17260:17263   */\n      0x00\n        /* \"#utility.yul\":17281:17348   */\n      tag_384\n        /* \"#utility.yul\":17345:17347   */\n      0x19\n        /* \"#utility.yul\":17340:17343   */\n      dup4\n        /* \"#utility.yul\":17281:17348   */\n      tag_189\n      jump\t// in\n    tag_384:\n        /* \"#utility.yul\":17274:17348   */\n      swap2\n      pop\n        /* \"#utility.yul\":17357:17450   */\n      tag_385\n        /* \"#utility.yul\":17446:17449   */\n      dup3\n        /* \"#utility.yul\":17357:17450   */\n      tag_204\n      jump\t// in\n    tag_385:\n        /* \"#utility.yul\":17475:17477   */\n      0x20\n        /* \"#utility.yul\":17470:17473   */\n      dup3\n        /* \"#utility.yul\":17466:17478   */\n      add\n        /* \"#utility.yul\":17459:17478   */\n      swap1\n      pop\n        /* \"#utility.yul\":17118:17484   */\n      swap2\n      swap1\n      pop\n      jump\t// out\n        /* \"#utility.yul\":17490:17909   */\n    tag_117:\n        /* \"#utility.yul\":17656:17660   */\n      0x00\n        /* \"#utility.yul\":17694:17696   */\n      0x20\n        /* \"#utility.yul\":17683:17692   */\n      dup3\n        /* \"#utility.yul\":17679:17697   */\n      add\n        /* \"#utility.yul\":17671:17697   */\n      swap1\n      pop\n        /* \"#utility.yul\":17743:17752   */\n      dup2\n        /* \"#utility.yul\":17737:17741   */\n      dup2\n        /* \"#utility.yul\":17733:17753   */\n      sub\n        /* \"#utility.yul\":17729:17730   */\n      0x00\n        /* \"#utility.yul\":17718:17727   */\n      dup4\n        /* \"#utility.yul\":17714:17731   */\n      add\n        /* \"#utility.yul\":17707:17754   */\n      mstore\n        /* \"#utility.yul\":17771:17902   */\n      tag_387\n        /* \"#utility.yul\":17897:17901   */\n      dup2\n        /* \"#utility.yul\":17771:17902   */\n      tag_205\n      jump\t// in\n    tag_387:\n        /* \"#utility.yul\":17763:17902   */\n      swap1\n      pop\n        /* \"#utility.yul\":17490:17909   */\n      swap2\n      swap1\n      pop\n      jump\t// out\n        /* \"#utility.yul\":17915:18086   */\n    tag_119:\n        /* \"#utility.yul\":17954:17957   */\n      0x00\n        /* \"#utility.yul\":17977:18001   */\n      tag_389\n        /* \"#utility.yul\":17995:18000   */\n      dup3\n        /* \"#utility.yul\":17977:18001   */\n      tag_158\n      jump\t// in\n    tag_389:\n        /* \"#utility.yul\":17968:18001   */\n      swap2\n      pop\n        /* \"#utility.yul\":18023:18027   */\n      0x00\n        /* \"#utility.yul\":18016:18021   */\n      dup3\n        /* \"#utility.yul\":18013:18028   */\n      sub\n        /* \"#utility.yul\":18010:18051   */\n      tag_390\n      jumpi\n        /* \"#utility.yul\":18031:18049   */\n      tag_391\n      tag_198\n      jump\t// in\n    tag_391:\n        /* \"#utility.yul\":18010:18051   */\n    tag_390:\n        /* \"#utility.yul\":18078:18079   */\n      0x01\n        /* \"#utility.yul\":18071:18076   */\n      dup3\n        /* \"#utility.yul\":18067:18080   */\n      sub\n        /* \"#utility.yul\":18060:18080   */\n      swap1\n      pop\n        /* \"#utility.yul\":17915:18086   */\n      swap2\n      swap1\n      pop\n      jump\t// out\n        /* \"#utility.yul\":18092:18232   */\n    tag_206:\n        /* \"#utility.yul\":18140:18144   */\n      0x00\n        /* \"#utility.yul\":18163:18166   */\n      dup2\n        /* \"#utility.yul\":18155:18166   */\n      swap1\n      pop\n        /* \"#utility.yul\":18186:18189   */\n      dup2\n        /* \"#utility.yul\":18183:18184   */\n      0x00\n        /* \"#utility.yul\":18176:18190   */\n      mstore\n        /* \"#utility.yul\":18220:18224   */\n      0x20\n        /* \"#utility.yul\":18217:18218   */\n      0x00\n        /* \"#utility.yul\":18207:18225   */\n      keccak256\n        /* \"#utility.yul\":18199:18225   */\n      swap1\n      pop\n        /* \"#utility.yul\":18092:18232   */\n      swap2\n      swap1\n      pop\n      jump\t// out\n        /* \"#utility.yul\":18238:18331   */\n    tag_207:\n        /* \"#utility.yul\":18275:18281   */\n      0x00\n        /* \"#utility.yul\":18322:18324   */\n      0x20\n        /* \"#utility.yul\":18317:18319   */\n      0x1f\n        /* \"#utility.yul\":18310:18315   */\n      dup4\n        /* \"#utility.yul\":18306:18320   */\n      add\n        /* \"#utility.yul\":18302:18325   */\n      div\n        /* \"#utility.yul\":18292:18325   */\n      swap1\n      pop\n        /* \"#utility.yul\":18238:18331   */\n      swap2\n      swap1\n      pop\n      jump\t// out\n        /* \"#utility.yul\":18337:18444   */\n    tag_208:\n        /* \"#utility.yul\":18381:18389   */\n      0x00\n        /* \"#utility.yul\":18431:18436   */\n      dup3\n        /* \"#utility.yul\":18425:18429   */\n      dup3\n        /* \"#utility.yul\":18421:18437   */\n      shl\n        /* \"#utility.yul\":18400:18437   */\n      swap1\n      pop\n        /* \"#utility.yul\":18337:18444   */\n      swap3\n      swap2\n      pop\n      pop\n      jump\t// out\n        /* \"#utility.yul\":18450:18843   */\n    tag_209:\n        /* \"#utility.yul\":18519:18525   */\n      0x00\n        /* \"#utility.yul\":18569:18570   */\n      0x08\n        /* \"#utility.yul\":18557:18567   */\n      dup4\n        /* \"#utility.yul\":18553:18571   */\n      mul\n        /* \"#utility.yul\":18592:18689   */\n      tag_396\n        /* \"#utility.yul\":18622:18688   */\n      0xffffffffffffffffffffffffffffffffffffffffffffffffffffffffffffffff\n        /* \"#utility.yul\":18611:18620   */\n      dup3\n        /* \"#utility.yul\":18592:18689   */\n      tag_208\n      jump\t// in\n    tag_396:\n        /* \"#utility.yul\":18710:18749   */\n      tag_397\n        /* \"#utility.yul\":18740:18748   */\n      dup7\n        /* \"#utility.yul\":18729:18738   */\n      dup4\n        /* \"#utility.yul\":18710:18749   */\n      tag_208\n      jump\t// in\n    tag_397:\n        /* \"#utility.yul\":18698:18749   */\n      swap6\n      pop\n        /* \"#utility.yul\":18782:18786   */\n      dup1\n        /* \"#utility.yul\":18778:18787   */\n      not\n        /* \"#utility.yul\":18771:18776   */\n      dup5\n        /* \"#utility.yul\":18767:18788   */\n      and\n        /* \"#utility.yul\":18758:18788   */\n      swap4\n      pop\n        /* \"#utility.yul\":18831:18835   */\n      dup1\n        /* \"#utility.yul\":18821:18829   */\n      dup7\n        /* \"#utility.yul\":18817:18836   */\n      and\n        /* \"#utility.yul\":18810:18815   */\n      dup5\n        /* \"#utility.yul\":18807:18837   */\n      or\n        /* \"#utility.yul\":18797:18837   */\n      swap3\n      pop\n        /* \"#utility.yul\":18526:18843   */\n      pop\n      pop\n        /* \"#utility.yul\":18450:18843   */\n      swap4\n      swap3\n      pop\n      pop\n      pop\n      jump\t// out\n        /* \"#utility.yul\":18849:18909   */\n    tag_210:\n        /* \"#utility.yul\":18877:18880   */\n      0x00\n        /* \"#utility.yul\":18898:18903   */\n      dup2\n        /* \"#utility.yul\":18891:18903   */\n      swap1\n      pop\n        /* \"#utility.yul\":18849:18909   */\n      swap2\n      swap1\n      pop\n      jump\t// out\n        /* \"#utility.yul\":18915:19057   */\n    tag_211:\n        /* \"#utility.yul\":18965:18974   */\n      0x00\n        /* \"#utility.yul\":18998:19051   */\n      tag_400\n        /* \"#utility.yul\":19016:19050   */\n      tag_401\n        /* \"#utility.yul\":19025:19049   */\n      tag_402\n        /* \"#utility.yul\":19043:19048   */\n      dup5\n        /* \"#utility.yul\":19025:19049   */\n      tag_158\n      jump\t// in\n    tag_402:\n        /* \"#utility.yul\":19016:19050   */\n      tag_210\n      jump\t// in\n    tag_401:\n        /* \"#utility.yul\":18998:19051   */\n      tag_158\n      jump\t// in\n    tag_400:\n        /* \"#utility.yul\":18985:19051   */\n      swap1\n      pop\n        /* \"#utility.yul\":18915:19057   */\n      swap2\n      swap1\n      pop\n      jump\t// out\n        /* \"#utility.yul\":19063:19138   */\n    tag_212:\n        /* \"#utility.yul\":19106:19109   */\n      0x00\n        /* \"#utility.yul\":19127:19132   */\n      dup2\n        /* \"#utility.yul\":19120:19132   */\n      swap1\n      pop\n        /* \"#utility.yul\":19063:19138   */\n      swap2\n      swap1\n      pop\n      jump\t// out\n        /* \"#utility.yul\":19144:19413   */\n    tag_213:\n        /* \"#utility.yul\":19254:19293   */\n      tag_405\n        /* \"#utility.yul\":19285:19292   */\n      dup4\n        /* \"#utility.yul\":19254:19293   */\n      tag_211\n      jump\t// in\n    tag_405:\n        /* \"#utility.yul\":19315:19406   */\n      tag_406\n        /* \"#utility.yul\":19364:19405   */\n      tag_407\n        /* \"#utility.yul\":19388:19404   */\n      dup3\n        /* \"#utility.yul\":19364:19405   */\n      tag_212\n      jump\t// in\n    tag_407:\n        /* \"#utility.yul\":19356:19362   */\n      dup5\n        /* \"#utility.yul\":19349:19353   */\n      dup5\n        /* \"#utility.yul\":19343:19354   */\n      sload\n        /* \"#utility.yul\":19315:19406   */\n      tag_209\n      jump\t// in\n    tag_406:\n        /* \"#utility.yul\":19309:19313   */\n      dup3\n        /* \"#utility.yul\":19302:19407   */\n      sstore\n        /* \"#utility.yul\":19220:19413   */\n      pop\n        /* \"#utility.yul\":19144:19413   */\n      pop\n      pop\n      pop\n      jump\t// out\n        /* \"#utility.yul\":19419:19492   */\n    tag_214:\n        /* \"#utility.yul\":19464:19467   */\n      0x00\n        /* \"#utility.yul\":19485:19486   */\n      0x00\n        /* \"#utility.yul\":19478:19486   */\n      swap1\n      pop\n        /* \"#utility.yul\":19419:19492   */\n      swap1\n      jump\t// out\n        /* \"#utility.yul\":19498:19687   */\n    tag_215:\n        /* \"#utility.yul\":19575:19607   */\n      tag_410\n      tag_214\n      jump\t// in\n    tag_410:\n        /* \"#utility.yul\":19616:19681   */\n      tag_411\n        /* \"#utility.yul\":19674:19680   */\n      dup2\n        /* \"#utility.yul\":19666:19672   */\n      dup5\n        /* \"#utility.yul\":19660:19664   */\n      dup5\n        /* \"#utility.yul\":19616:19681   */\n      tag_213\n      jump\t// in\n    tag_411:\n        /* \"#utility.yul\":19551:19687   */\n      pop\n        /* \"#utility.yul\":19498:19687   */\n      pop\n      pop\n      jump\t// out\n        /* \"#utility.yul\":19693:19879   */\n    tag_216:\n        /* \"#utility.yul\":19753:19873   */\n    tag_413:\n        /* \"#utility.yul\":19770:19773   */\n      dup2\n        /* \"#utility.yul\":19763:19768   */\n      dup2\n        /* \"#utility.yul\":19760:19774   */\n      lt\n        /* \"#utility.yul\":19753:19873   */\n      iszero\n      tag_415\n      jumpi\n        /* \"#utility.yul\":19824:19863   */\n      tag_416\n        /* \"#utility.yul\":19861:19862   */\n      0x00\n        /* \"#utility.yul\":19854:19859   */\n      dup3\n        /* \"#utility.yul\":19824:19863   */\n      tag_215\n      jump\t// in\n    tag_416:\n        /* \"#utility.yul\":19797:19798   */\n      0x01\n        /* \"#utility.yul\":19790:19795   */\n      dup2\n        /* \"#utility.yul\":19786:19799   */\n      add\n        /* \"#utility.yul\":19777:19799   */\n      swap1\n      pop\n        /* \"#utility.yul\":19753:19873   */\n      jump(tag_413)\n    tag_415:\n        /* \"#utility.yul\":19693:19879   */\n      pop\n      pop\n      jump\t// out\n        /* \"#utility.yul\":19885:20426   */\n    tag_217:\n        /* \"#utility.yul\":19985:19987   */\n      0x1f\n        /* \"#utility.yul\":19980:19983   */\n      dup3\n        /* \"#utility.yul\":19977:19988   */\n      gt\n        /* \"#utility.yul\":19974:20419   */\n      iszero\n      tag_418\n      jumpi\n        /* \"#utility.yul\":20019:20056   */\n      tag_419\n        /* \"#utility.yul\":20050:20055   */\n      dup2\n        /* \"#utility.yul\":20019:20056   */\n      tag_206\n      jump\t// in\n    tag_419:\n        /* \"#utility.yul\":20102:20131   */\n      tag_420\n        /* \"#utility.yul\":20120:20130   */\n      dup5\n        /* \"#utility.yul\":20102:20131   */\n      tag_207\n      jump\t// in\n    tag_420:\n        /* \"#utility.yul\":20092:20100   */\n      dup2\n        /* \"#utility.yul\":20088:20132   */\n      add\n        /* \"#utility.yul\":20285:20287   */\n      0x20\n        /* \"#utility.yul\":20273:20283   */\n      dup6\n        /* \"#utility.yul\":20270:20288   */\n      lt\n        /* \"#utility.yul\":20267:20316   */\n      iszero\n      tag_421\n      jumpi\n        /* \"#utility.yul\":20306:20314   */\n      dup2\n        /* \"#utility.yul\":20291:20314   */\n      swap1\n      pop\n        /* \"#utility.yul\":20267:20316   */\n    tag_421:\n        /* \"#utility.yul\":20329:20409   */\n      tag_422\n        /* \"#utility.yul\":20385:20407   */\n      tag_423\n        /* \"#utility.yul\":20403:20406   */\n      dup6\n        /* \"#utility.yul\":20385:20407   */\n      tag_207\n      jump\t// in\n    tag_423:\n        /* \"#utility.yul\":20375:20383   */\n      dup4\n        /* \"#utility.yul\":20371:20408   */\n      add\n        /* \"#utility.yul\":20358:20369   */\n      dup3\n        /* \"#utility.yul\":20329:20409   */\n      tag_216\n      jump\t// in\n    tag_422:\n        /* \"#utility.yul\":19989:20419   */\n      pop\n      pop\n        /* \"#utility.yul\":19974:20419   */\n    tag_418:\n        /* \"#utility.yul\":19885:20426   */\n      pop\n      pop\n      pop\n      jump\t// out\n        /* \"#utility.yul\":20432:20549   */\n    tag_218:\n        /* \"#utility.yul\":20486:20494   */\n      0x00\n        /* \"#utility.yul\":20536:20541   */\n      dup3\n        /* \"#utility.yul\":20530:20534   */\n      dup3\n        /* \"#utility.yul\":20526:20542   */\n      shr\n        /* \"#utility.yul\":20505:20542   */\n      swap1\n      pop\n        /* \"#utility.yul\":20432:20549   */\n      swap3\n      swap2\n      pop\n      pop\n      jump\t// out\n        /* \"#utility.yul\":20555:20724   */\n    tag_219:\n        /* \"#utility.yul\":20599:20605   */\n      0x00\n        /* \"#utility.yul\":20632:20683   */\n      tag_426\n        /* \"#utility.yul\":20680:20681   */\n      0x00\n        /* \"#utility.yul\":20676:20682   */\n      not\n        /* \"#utility.yul\":20668:20673   */\n      dup5\n        /* \"#utility.yul\":20665:20666   */\n      0x08\n        /* \"#utility.yul\":20661:20674   */\n      mul\n        /* \"#utility.yul\":20632:20683   */\n      tag_218\n      jump\t// in\n    tag_426:\n        /* \"#utility.yul\":20628:20684   */\n      not\n        /* \"#utility.yul\":20713:20717   */\n      dup1\n        /* \"#utility.yul\":20707:20711   */\n      dup4\n        /* \"#utility.yul\":20703:20718   */\n      and\n        /* \"#utility.yul\":20693:20718   */\n      swap2\n      pop\n        /* \"#utility.yul\":20606:20724   */\n      pop\n        /* \"#utility.yul\":20555:20724   */\n      swap3\n      swap2\n      pop\n      pop\n      jump\t// out\n        /* \"#utility.yul\":20729:21024   */\n    tag_220:\n        /* \"#utility.yul\":20805:20809   */\n      0x00\n        /* \"#utility.yul\":20951:20980   */\n      tag_428\n        /* \"#utility.yul\":20976:20979   */\n      dup4\n        /* \"#utility.yul\":20970:20974   */\n      dup4\n        /* \"#utility.yul\":20951:20980   */\n      tag_219\n      jump\t// in\n    tag_428:\n        /* \"#utility.yul\":20943:20980   */\n      swap2\n      pop\n        /* \"#utility.yul\":21013:21016   */\n      dup3\n        /* \"#utility.yul\":21010:21011   */\n      0x02\n        /* \"#utility.yul\":21006:21017   */\n      mul\n        /* \"#utility.yul\":21000:21004   */\n      dup3\n        /* \"#utility.yul\":20997:21018   */\n      or\n        /* \"#utility.yul\":20989:21018   */\n      swap1\n      pop\n        /* \"#utility.yul\":20729:21024   */\n      swap3\n      swap2\n      pop\n      pop\n      jump\t// out\n        /* \"#utility.yul\":21029:22419   */\n    tag_123:\n        /* \"#utility.yul\":21144:21180   */\n      tag_430\n        /* \"#utility.yul\":21176:21179   */\n      dup3\n        /* \"#utility.yul\":21144:21180   */\n      tag_169\n      jump\t// in\n    tag_430:\n        /* \"#utility.yul\":21245:21263   */\n      0xffffffffffffffff\n        /* \"#utility.yul\":21237:21243   */\n      dup2\n        /* \"#utility.yul\":21234:21264   */\n      gt\n        /* \"#utility.yul\":21231:21287   */\n      iszero\n      tag_431\n      jumpi\n        /* \"#utility.yul\":21267:21285   */\n      tag_432\n      tag_182\n      jump\t// in\n    tag_432:\n        /* \"#utility.yul\":21231:21287   */\n    tag_431:\n        /* \"#utility.yul\":21311:21349   */\n      tag_433\n        /* \"#utility.yul\":21343:21347   */\n      dup3\n        /* \"#utility.yul\":21337:21348   */\n      sload\n        /* \"#utility.yul\":21311:21349   */\n      tag_65\n      jump\t// in\n    tag_433:\n        /* \"#utility.yul\":21396:21462   */\n      tag_434\n        /* \"#utility.yul\":21455:21461   */\n      dup3\n        /* \"#utility.yul\":21447:21453   */\n      dup3\n        /* \"#utility.yul\":21441:21445   */\n      dup6\n        /* \"#utility.yul\":21396:21462   */\n      tag_217\n      jump\t// in\n    tag_434:\n        /* \"#utility.yul\":21489:21490   */\n      0x00\n        /* \"#utility.yul\":21513:21517   */\n      0x20\n        /* \"#utility.yul\":21500:21517   */\n      swap1\n      pop\n        /* \"#utility.yul\":21545:21547   */\n      0x1f\n        /* \"#utility.yul\":21537:21543   */\n      dup4\n        /* \"#utility.yul\":21534:21548   */\n      gt\n        /* \"#utility.yul\":21562:21563   */\n      0x01\n        /* \"#utility.yul\":21557:22174   */\n      dup2\n      eq\n      tag_436\n      jumpi\n        /* \"#utility.yul\":22218:22219   */\n      0x00\n        /* \"#utility.yul\":22235:22241   */\n      dup5\n        /* \"#utility.yul\":22232:22309   */\n      iszero\n      tag_437\n      jumpi\n        /* \"#utility.yul\":22284:22293   */\n      dup3\n        /* \"#utility.yul\":22279:22282   */\n      dup8\n        /* \"#utility.yul\":22275:22294   */\n      add\n        /* \"#utility.yul\":22269:22295   */\n      mload\n        /* \"#utility.yul\":22260:22295   */\n      swap1\n      pop\n        /* \"#utility.yul\":22232:22309   */\n    tag_437:\n        /* \"#utility.yul\":22335:22402   */\n      tag_438\n        /* \"#utility.yul\":22395:22401   */\n      dup6\n        /* \"#utility.yul\":22388:22393   */\n      dup3\n        /* \"#utility.yul\":22335:22402   */\n      tag_220\n      jump\t// in\n    tag_438:\n        /* \"#utility.yul\":22329:22333   */\n      dup7\n        /* \"#utility.yul\":22322:22403   */\n      sstore\n        /* \"#utility.yul\":22191:22413   */\n      pop\n        /* \"#utility.yul\":21527:22413   */\n      jump(tag_435)\n        /* \"#utility.yul\":21557:22174   */\n    tag_436:\n        /* \"#utility.yul\":21609:21613   */\n      0x1f\n        /* \"#utility.yul\":21605:21614   */\n      not\n        /* \"#utility.yul\":21597:21603   */\n      dup5\n        /* \"#utility.yul\":21593:21615   */\n      and\n        /* \"#utility.yul\":21643:21679   */\n      tag_439\n        /* \"#utility.yul\":21674:21678   */\n      dup7\n        /* \"#utility.yul\":21643:21679   */\n      tag_206\n      jump\t// in\n    tag_439:\n        /* \"#utility.yul\":21701:21702   */\n      0x00\n        /* \"#utility.yul\":21715:21923   */\n    tag_440:\n        /* \"#utility.yul\":21729:21736   */\n      dup3\n        /* \"#utility.yul\":21726:21727   */\n      dup2\n        /* \"#utility.yul\":21723:21737   */\n      lt\n        /* \"#utility.yul\":21715:21923   */\n      iszero\n      tag_442\n      jumpi\n        /* \"#utility.yul\":21808:21817   */\n      dup5\n        /* \"#utility.yul\":21803:21806   */\n      dup10\n        /* \"#utility.yul\":21799:21818   */\n      add\n        /* \"#utility.yul\":21793:21819   */\n      mload\n        /* \"#utility.yul\":21785:21791   */\n      dup3\n        /* \"#utility.yul\":21778:21820   */\n      sstore\n        /* \"#utility.yul\":21859:21860   */\n      0x01\n        /* \"#utility.yul\":21851:21857   */\n      dup3\n        /* \"#utility.yul\":21847:21861   */\n      add\n        /* \"#utility.yul\":21837:21861   */\n      swap2\n      pop\n        /* \"#utility.yul\":21906:21908   */\n      0x20\n        /* \"#utility.yul\":21895:21904   */\n      dup6\n        /* \"#utility.yul\":21891:21909   */\n      add\n        /* \"#utility.yul\":21878:21909   */\n      swap5\n      pop\n        /* \"#utility.yul\":21752:21756   */\n      0x20\n        /* \"#utility.yul\":21749:21750   */\n      dup2\n        /* \"#utility.yul\":21745:21757   */\n      add\n        /* \"#utility.yul\":21740:21757   */\n      swap1\n      pop\n        /* \"#utility.yul\":21715:21923   */\n      jump(tag_440)\n    tag_442:\n        /* \"#utility.yul\":21951:21957   */\n      dup7\n        /* \"#utility.yul\":21942:21949   */\n      dup4\n        /* \"#utility.yul\":21939:21958   */\n      lt\n        /* \"#utility.yul\":21936:22115   */\n      iszero\n      tag_443\n      jumpi\n        /* \"#utility.yul\":22009:22018   */\n      dup5\n        /* \"#utility.yul\":22004:22007   */\n      dup10\n        /* \"#utility.yul\":22000:22019   */\n      add\n        /* \"#utility.yul\":21994:22020   */\n      mload\n        /* \"#utility.yul\":22052:22100   */\n      tag_444\n        /* \"#utility.yul\":22094:22098   */\n      0x1f\n        /* \"#utility.yul\":22086:22092   */\n      dup10\n        /* \"#utility.yul\":22082:22099   */\n      and\n        /* \"#utility.yul\":22071:22080   */\n      dup3\n        /* \"#utility.yul\":22052:22100   */\n      tag_219\n      jump\t// in\n    tag_444:\n        /* \"#utility.yul\":22044:22050   */\n      dup4\n        /* \"#utility.yul\":22037:22101   */\n      sstore\n        /* \"#utility.yul\":21959:22115   */\n      pop\n        /* \"#utility.yul\":21936:22115   */\n    tag_443:\n        /* \"#utility.yul\":22161:22162   */\n      0x01\n        /* \"#utility.yul\":22157:22158   */\n      0x02\n        /* \"#utility.yul\":22149:22155   */\n      dup9\n        /* \"#utility.yul\":22145:22159   */\n      mul\n        /* \"#utility.yul\":22141:22163   */\n      add\n        /* \"#utility.yul\":22135:22139   */\n      dup9\n        /* \"#utility.yul\":22128:22164   */\n      sstore\n        /* \"#utility.yul\":21564:22174   */\n      pop\n      pop\n      pop\n        /* \"#utility.yul\":21527:22413   */\n    tag_435:\n      pop\n        /* \"#utility.yul\":21119:22419   */\n      pop\n      pop\n      pop\n        /* \"#utility.yul\":21029:22419   */\n      pop\n      pop\n      jump\t// out\n        /* \"#utility.yul\":22425:22593   */\n    tag_221:\n        /* \"#utility.yul\":22508:22519   */\n      0x00\n        /* \"#utility.yul\":22542:22548   */\n      dup3\n        /* \"#utility.yul\":22537:22540   */\n      dup3\n        /* \"#utility.yul\":22530:22549   */\n      mstore\n        /* \"#utility.yul\":22582:22586   */\n      0x20\n        /* \"#utility.yul\":22577:22580   */\n      dup3\n        /* \"#utility.yul\":22573:22587   */\n      add\n        /* \"#utility.yul\":22558:22587   */\n      swap1\n      pop\n        /* \"#utility.yul\":22425:22593   */\n      swap3\n      swap2\n      pop\n      pop\n      jump\t// out\n        /* \"#utility.yul\":22599:22972   */\n    tag_222:\n        /* \"#utility.yul\":22685:22688   */\n      0x00\n        /* \"#utility.yul\":22713:22751   */\n      tag_447\n        /* \"#utility.yul\":22745:22750   */\n      dup3\n        /* \"#utility.yul\":22713:22751   */\n      tag_169\n      jump\t// in\n    tag_447:\n        /* \"#utility.yul\":22767:22837   */\n      tag_448\n        /* \"#utility.yul\":22830:22836   */\n      dup2\n        /* \"#utility.yul\":22825:22828   */\n      dup6\n        /* \"#utility.yul\":22767:22837   */\n      tag_221\n      jump\t// in\n    tag_448:\n        /* \"#utility.yul\":22760:22837   */\n      swap4\n      pop\n        /* \"#utility.yul\":22846:22911   */\n      tag_449\n        /* \"#utility.yul\":22904:22910   */\n      dup2\n        /* \"#utility.yul\":22899:22902   */\n      dup6\n        /* \"#utility.yul\":22892:22896   */\n      0x20\n        /* \"#utility.yul\":22885:22890   */\n      dup7\n        /* \"#utility.yul\":22881:22897   */\n      add\n        /* \"#utility.yul\":22846:22911   */\n      tag_171\n      jump\t// in\n    tag_449:\n        /* \"#utility.yul\":22936:22965   */\n      tag_450\n        /* \"#utility.yul\":22958:22964   */\n      dup2\n        /* \"#utility.yul\":22936:22965   */\n      tag_172\n      jump\t// in\n    tag_450:\n        /* \"#utility.yul\":22931:22934   */\n      dup5\n        /* \"#utility.yul\":22927:22966   */\n      add\n        /* \"#utility.yul\":22920:22966   */\n      swap2\n      pop\n        /* \"#utility.yul\":22689:22972   */\n      pop\n        /* \"#utility.yul\":22599:22972   */\n      swap3\n      swap2\n      pop\n      pop\n      jump\t// out\n        /* \"#utility.yul\":22978:23287   */\n    tag_125:\n        /* \"#utility.yul\":23089:23093   */\n      0x00\n        /* \"#utility.yul\":23127:23129   */\n      0x20\n        /* \"#utility.yul\":23116:23125   */\n      dup3\n        /* \"#utility.yul\":23112:23130   */\n      add\n        /* \"#utility.yul\":23104:23130   */\n      swap1\n      pop\n        /* \"#utility.yul\":23176:23185   */\n      dup2\n        /* \"#utility.yul\":23170:23174   */\n      dup2\n        /* \"#utility.yul\":23166:23186   */\n      sub\n        /* \"#utility.yul\":23162:23163   */\n      0x00\n        /* \"#utility.yul\":23151:23160   */\n      dup4\n        /* \"#utility.yul\":23147:23164   */\n      add\n        /* \"#utility.yul\":23140:23187   */\n      mstore\n        /* \"#utility.yul\":23204:23280   */\n      tag_452\n        /* \"#utility.yul\":23275:23279   */\n      dup2\n        /* \"#utility.yul\":23266:23272   */\n      dup5\n        /* \"#utility.yul\":23204:23280   */\n      tag_222\n      jump\t// in\n    tag_452:\n        /* \"#utility.yul\":23196:23280   */\n      swap1\n      pop\n        /* \"#utility.yul\":22978:23287   */\n      swap3\n      swap2\n      pop\n      pop\n      jump\t// out\n        /* \"#utility.yul\":23293:23472   */\n    tag_223:\n        /* \"#utility.yul\":23433:23464   */\n      0x5472616e73616374696f6e20616c726561647920636f6e6669726d6564000000\n        /* \"#utility.yul\":23429:23430   */\n      0x00\n        /* \"#utility.yul\":23421:23427   */\n      dup3\n        /* \"#utility.yul\":23417:23431   */\n      add\n        /* \"#utility.yul\":23410:23465   */\n      mstore\n        /* \"#utility.yul\":23293:23472   */\n      pop\n      jump\t// out\n        /* \"#utility.yul\":23478:23844   */\n    tag_224:\n        /* \"#utility.yul\":23620:23623   */\n      0x00\n        /* \"#utility.yul\":23641:23708   */\n      tag_455\n        /* \"#utility.yul\":23705:23707   */\n      0x1d\n        /* \"#utility.yul\":23700:23703   */\n      dup4\n        /* \"#utility.yul\":23641:23708   */\n      tag_189\n      jump\t// in\n    tag_455:\n        /* \"#utility.yul\":23634:23708   */\n      swap2\n      pop\n        /* \"#utility.yul\":23717:23810   */\n      tag_456\n        /* \"#utility.yul\":23806:23809   */\n      dup3\n        /* \"#utility.yul\":23717:23810   */\n      tag_223\n      jump\t// in\n    tag_456:\n        /* \"#utility.yul\":23835:23837   */\n      0x20\n        /* \"#utility.yul\":23830:23833   */\n      dup3\n        /* \"#utility.yul\":23826:23838   */\n      add\n        /* \"#utility.yul\":23819:23838   */\n      swap1\n      pop\n        /* \"#utility.yul\":23478:23844   */\n      swap2\n      swap1\n      pop\n      jump\t// out\n        /* \"#utility.yul\":23850:24269   */\n    tag_129:\n        /* \"#utility.yul\":24016:24020   */\n      0x00\n        /* \"#utility.yul\":24054:24056   */\n      0x20\n        /* \"#utility.yul\":24043:24052   */\n      dup3\n        /* \"#utility.yul\":24039:24057   */\n      add\n        /* \"#utility.yul\":24031:24057   */\n      swap1\n      pop\n        /* \"#utility.yul\":24103:24112   */\n      dup2\n        /* \"#utility.yul\":24097:24101   */\n      dup2\n        /* \"#utility.yul\":24093:24113   */\n      sub\n        /* \"#utility.yul\":24089:24090   */\n      0x00\n        /* \"#utility.yul\":24078:24087   */\n      dup4\n        /* \"#utility.yul\":24074:24091   */\n      add\n        /* \"#utility.yul\":24067:24114   */\n      mstore\n        /* \"#utility.yul\":24131:24262   */\n      tag_458\n        /* \"#utility.yul\":24257:24261   */\n      dup2\n        /* \"#utility.yul\":24131:24262   */\n      tag_224\n      jump\t// in\n    tag_458:\n        /* \"#utility.yul\":24123:24262   */\n      swap1\n      pop\n        /* \"#utility.yul\":23850:24269   */\n      swap2\n      swap1\n      pop\n      jump\t// out\n        /* \"#utility.yul\":24275:24508   */\n    tag_131:\n        /* \"#utility.yul\":24314:24317   */\n      0x00\n        /* \"#utility.yul\":24337:24361   */\n      tag_460\n        /* \"#utility.yul\":24355:24360   */\n      dup3\n        /* \"#utility.yul\":24337:24361   */\n      tag_158\n      jump\t// in\n    tag_460:\n        /* \"#utility.yul\":24328:24361   */\n      swap2\n      pop\n        /* \"#utility.yul\":24383:24449   */\n      0xffffffffffffffffffffffffffffffffffffffffffffffffffffffffffffffff\n        /* \"#utility.yul\":24376:24381   */\n      dup3\n        /* \"#utility.yul\":24373:24450   */\n      sub\n        /* \"#utility.yul\":24370:24473   */\n      tag_461\n      jumpi\n        /* \"#utility.yul\":24453:24471   */\n      tag_462\n      tag_198\n      jump\t// in\n    tag_462:\n        /* \"#utility.yul\":24370:24473   */\n    tag_461:\n        /* \"#utility.yul\":24500:24501   */\n      0x01\n        /* \"#utility.yul\":24493:24498   */\n      dup3\n        /* \"#utility.yul\":24489:24502   */\n      add\n        /* \"#utility.yul\":24482:24502   */\n      swap1\n      pop\n        /* \"#utility.yul\":24275:24508   */\n      swap2\n      swap1\n      pop\n      jump\t// out\n        /* \"#utility.yul\":24514:24692   */\n    tag_225:\n        /* \"#utility.yul\":24654:24684   */\n      0x5472616e73616374696f6e20616c726561647920657865637574656400000000\n        /* \"#utility.yul\":24650:24651   */\n      0x00\n        /* \"#utility.yul\":24642:24648   */\n      dup3\n        /* \"#utility.yul\":24638:24652   */\n      add\n        /* \"#utility.yul\":24631:24685   */\n      mstore\n        /* \"#utility.yul\":24514:24692   */\n      pop\n      jump\t// out\n        /* \"#utility.yul\":24698:25064   */\n    tag_226:\n        /* \"#utility.yul\":24840:24843   */\n      0x00\n        /* \"#utility.yul\":24861:24928   */\n      tag_465\n        /* \"#utility.yul\":24925:24927   */\n      0x1c\n        /* \"#utility.yul\":24920:24923   */\n      dup4\n        /* \"#utility.yul\":24861:24928   */\n      tag_189\n      jump\t// in\n    tag_465:\n        /* \"#utility.yul\":24854:24928   */\n      swap2\n      pop\n        /* \"#utility.yul\":24937:25030   */\n      tag_466\n        /* \"#utility.yul\":25026:25029   */\n      dup3\n        /* \"#utility.yul\":24937:25030   */\n      tag_225\n      jump\t// in\n    tag_466:\n        /* \"#utility.yul\":25055:25057   */\n      0x20\n        /* \"#utility.yul\":25050:25053   */\n      dup3\n        /* \"#utility.yul\":25046:25058   */\n      add\n        /* \"#utility.yul\":25039:25058   */\n      swap1\n      pop\n        /* \"#utility.yul\":24698:25064   */\n      swap2\n      swap1\n      pop\n      jump\t// out\n        /* \"#utility.yul\":25070:25489   */\n    tag_143:\n        /* \"#utility.yul\":25236:25240   */\n      0x00\n        /* \"#utility.yul\":25274:25276   */\n      0x20\n        /* \"#utility.yul\":25263:25272   */\n      dup3\n        /* \"#utility.yul\":25259:25277   */\n      add\n        /* \"#utility.yul\":25251:25277   */\n      swap1\n      pop\n        /* \"#utility.yul\":25323:25332   */\n      dup2\n        /* \"#utility.yul\":25317:25321   */\n      dup2\n        /* \"#utility.yul\":25313:25333   */\n      sub\n        /* \"#utility.yul\":25309:25310   */\n      0x00\n        /* \"#utility.yul\":25298:25307   */\n      dup4\n        /* \"#utility.yul\":25294:25311   */\n      add\n        /* \"#utility.yul\":25287:25334   */\n      mstore\n        /* \"#utility.yul\":25351:25482   */\n      tag_468\n        /* \"#utility.yul\":25477:25481   */\n      dup2\n        /* \"#utility.yul\":25351:25482   */\n      tag_226\n      jump\t// in\n    tag_468:\n        /* \"#utility.yul\":25343:25482   */\n      swap1\n      pop\n        /* \"#utility.yul\":25070:25489   */\n      swap2\n      swap1\n      pop\n      jump\t// out\n        /* \"#utility.yul\":25495:25642   */\n    tag_227:\n        /* \"#utility.yul\":25596:25607   */\n      0x00\n        /* \"#utility.yul\":25633:25636   */\n      dup2\n        /* \"#utility.yul\":25618:25636   */\n      swap1\n      pop\n        /* \"#utility.yul\":25495:25642   */\n      swap3\n      swap2\n      pop\n      pop\n      jump\t// out\n        /* \"#utility.yul\":25670:26540   */\n    tag_228:\n        /* \"#utility.yul\":25771:25774   */\n      0x00\n        /* \"#utility.yul\":25808:25813   */\n      dup2\n        /* \"#utility.yul\":25802:25814   */\n      sload\n        /* \"#utility.yul\":25837:25873   */\n      tag_471\n        /* \"#utility.yul\":25863:25872   */\n      dup2\n        /* \"#utility.yul\":25837:25873   */\n      tag_65\n      jump\t// in\n    tag_471:\n        /* \"#utility.yul\":25889:25977   */\n      tag_472\n        /* \"#utility.yul\":25970:25976   */\n      dup2\n        /* \"#utility.yul\":25965:25968   */\n      dup7\n        /* \"#utility.yul\":25889:25977   */\n      tag_227\n      jump\t// in\n    tag_472:\n        /* \"#utility.yul\":25882:25977   */\n      swap5\n      pop\n        /* \"#utility.yul\":26008:26009   */\n      0x01\n        /* \"#utility.yul\":25997:26006   */\n      dup3\n        /* \"#utility.yul\":25993:26010   */\n      and\n        /* \"#utility.yul\":26024:26025   */\n      0x00\n        /* \"#utility.yul\":26019:26185   */\n      dup2\n      eq\n      tag_474\n      jumpi\n        /* \"#utility.yul\":26199:26200   */\n      0x01\n        /* \"#utility.yul\":26194:26534   */\n      dup2\n      eq\n      tag_475\n      jumpi\n        /* \"#utility.yul\":25986:26534   */\n      jump(tag_473)\n        /* \"#utility.yul\":26019:26185   */\n    tag_474:\n        /* \"#utility.yul\":26103:26107   */\n      0xff\n        /* \"#utility.yul\":26099:26108   */\n      not\n        /* \"#utility.yul\":26088:26097   */\n      dup4\n        /* \"#utility.yul\":26084:26109   */\n      and\n        /* \"#utility.yul\":26079:26082   */\n      dup7\n        /* \"#utility.yul\":26072:26110   */\n      mstore\n        /* \"#utility.yul\":26165:26171   */\n      dup2\n        /* \"#utility.yul\":26158:26172   */\n      iszero\n        /* \"#utility.yul\":26151:26173   */\n      iszero\n        /* \"#utility.yul\":26143:26149   */\n      dup3\n        /* \"#utility.yul\":26139:26174   */\n      mul\n        /* \"#utility.yul\":26134:26137   */\n      dup7\n        /* \"#utility.yul\":26130:26175   */\n      add\n        /* \"#utility.yul\":26123:26175   */\n      swap4\n      pop\n        /* \"#utility.yul\":26019:26185   */\n      jump(tag_473)\n        /* \"#utility.yul\":26194:26534   */\n    tag_475:\n        /* \"#utility.yul\":26261:26298   */\n      tag_476\n        /* \"#utility.yul\":26292:26297   */\n      dup6\n        /* \"#utility.yul\":26261:26298   */\n      tag_206\n      jump\t// in\n    tag_476:\n        /* \"#utility.yul\":26320:26321   */\n      0x00\n        /* \"#utility.yul\":26334:26488   */\n    tag_477:\n        /* \"#utility.yul\":26348:26354   */\n      dup4\n        /* \"#utility.yul\":26345:26346   */\n      dup2\n        /* \"#utility.yul\":26342:26355   */\n      lt\n        /* \"#utility.yul\":26334:26488   */\n      iszero\n      tag_479\n      jumpi\n        /* \"#utility.yul\":26422:26429   */\n      dup2\n        /* \"#utility.yul\":26416:26430   */\n      sload\n        /* \"#utility.yul\":26412:26413   */\n      dup2\n        /* \"#utility.yul\":26407:26410   */\n      dup10\n        /* \"#utility.yul\":26403:26414   */\n      add\n        /* \"#utility.yul\":26396:26431   */\n      mstore\n        /* \"#utility.yul\":26472:26473   */\n      0x01\n        /* \"#utility.yul\":26463:26470   */\n      dup3\n        /* \"#utility.yul\":26459:26474   */\n      add\n        /* \"#utility.yul\":26448:26474   */\n      swap2\n      pop\n        /* \"#utility.yul\":26370:26374   */\n      0x20\n        /* \"#utility.yul\":26367:26368   */\n      dup2\n        /* \"#utility.yul\":26363:26375   */\n      add\n        /* \"#utility.yul\":26358:26375   */\n      swap1\n      pop\n        /* \"#utility.yul\":26334:26488   */\n      jump(tag_477)\n    tag_479:\n        /* \"#utility.yul\":26517:26523   */\n      dup4\n        /* \"#utility.yul\":26512:26515   */\n      dup9\n        /* \"#utility.yul\":26508:26524   */\n      add\n        /* \"#utility.yul\":26501:26524   */\n      swap6\n      pop\n        /* \"#utility.yul\":26201:26534   */\n      pop\n      pop\n        /* \"#utility.yul\":25986:26534   */\n    tag_473:\n      pop\n        /* \"#utility.yul\":25775:26540   */\n      pop\n      pop\n        /* \"#utility.yul\":25670:26540   */\n      swap3\n      swap2\n      pop\n      pop\n      jump\t// out\n        /* \"#utility.yul\":26546:26811   */\n    tag_148:\n        /* \"#utility.yul\":26673:26676   */\n      0x00\n        /* \"#utility.yul\":26695:26785   */\n      tag_481\n        /* \"#utility.yul\":26781:26784   */\n      dup3\n        /* \"#utility.yul\":26772:26778   */\n      dup5\n        /* \"#utility.yul\":26695:26785   */\n      tag_228\n      jump\t// in\n    tag_481:\n        /* \"#utility.yul\":26688:26785   */\n      swap2\n      pop\n        /* \"#utility.yul\":26802:26805   */\n      dup2\n        /* \"#utility.yul\":26795:26805   */\n      swap1\n      pop\n        /* \"#utility.yul\":26546:26811   */\n      swap3\n      swap2\n      pop\n      pop\n      jump\t// out\n        /* \"#utility.yul\":26817:26995   */\n    tag_229:\n        /* \"#utility.yul\":26957:26987   */\n      0x5472616e73616374696f6e20657865637574696f6e206661696c656400000000\n        /* \"#utility.yul\":26953:26954   */\n      0x00\n        /* \"#utility.yul\":26945:26951   */\n      dup3\n        /* \"#utility.yul\":26941:26955   */\n      add\n        /* \"#utility.yul\":26934:26988   */\n      mstore\n        /* \"#utility.yul\":26817:26995   */\n      pop\n      jump\t// out\n        /* \"#utility.yul\":27001:27367   */\n    tag_230:\n        /* \"#utility.yul\":27143:27146   */\n      0x00\n        /* \"#utility.yul\":27164:27231   */\n      tag_484\n        /* \"#utility.yul\":27228:27230   */\n      0x1c\n        /* \"#utility.yul\":27223:27226   */\n      dup4\n        /* \"#utility.yul\":27164:27231   */\n      tag_189\n      jump\t// in\n    tag_484:\n        /* \"#utility.yul\":27157:27231   */\n      swap2\n      pop\n        /* \"#utility.yul\":27240:27333   */\n      tag_485\n        /* \"#utility.yul\":27329:27332   */\n      dup3\n        /* \"#utility.yul\":27240:27333   */\n      tag_229\n      jump\t// in\n    tag_485:\n        /* \"#utility.yul\":27358:27360   */\n      0x20\n        /* \"#utility.yul\":27353:27356   */\n      dup3\n        /* \"#utility.yul\":27349:27361   */\n      add\n        /* \"#utility.yul\":27342:27361   */\n      swap1\n      pop\n        /* \"#utility.yul\":27001:27367   */\n      swap2\n      swap1\n      pop\n      jump\t// out\n        /* \"#utility.yul\":27373:27792   */\n    tag_154:\n        /* \"#utility.yul\":27539:27543   */\n      0x00\n        /* \"#utility.yul\":27577:27579   */\n      0x20\n        /* \"#utility.yul\":27566:27575   */\n      dup3\n        /* \"#utility.yul\":27562:27580   */\n      add\n        /* \"#utility.yul\":27554:27580   */\n      swap1\n      pop\n        /* \"#utility.yul\":27626:27635   */\n      dup2\n        /* \"#utility.yul\":27620:27624   */\n      dup2\n        /* \"#utility.yul\":27616:27636   */\n      sub\n        /* \"#utility.yul\":27612:27613   */\n      0x00\n        /* \"#utility.yul\":27601:27610   */\n      dup4\n        /* \"#utility.yul\":27597:27614   */\n      add\n        /* \"#utility.yul\":27590:27637   */\n      mstore\n        /* \"#utility.yul\":27654:27785   */\n      tag_487\n        /* \"#utility.yul\":27780:27784   */\n      dup2\n        /* \"#utility.yul\":27654:27785   */\n      tag_230\n      jump\t// in\n    tag_487:\n        /* \"#utility.yul\":27646:27785   */\n      swap1\n      pop\n        /* \"#utility.yul\":27373:27792   */\n      swap2\n      swap1\n      pop\n      jump\t// out\n\n    auxdata: 0xa26469706673582212206d4797cba6c40dbf9555dbd59ce254fd4dbb50836abbbfbd26d18b9dd7c79ed564736f6c634300081b0033\n}\n",
				"bytecode": {
					"linkReferences": {},
					"object": "608060405234801561000f575f5ffd5b5060405161232d38038061232d833981810160405281019061003191906103b3565b8160015f6101000a81548173ffffffffffffffffffffffffffffffffffffffff021916908373ffffffffffffffffffffffffffffffffffffffff1602179055505f5f90505b81518160ff1610156101f05760055f838360ff168151811061009b5761009a61040d565b5b602002602001015173ffffffffffffffffffffffffffffffffffffffff1673ffffffffffffffffffffffffffffffffffffffff1681526020019081526020015f205f9054906101000a900460ff166101dd576002828260ff16815181106101055761010461040d565b5b6020026020010151908060018154018082558091505060019003905f5260205f20015f9091909190916101000a81548173ffffffffffffffffffffffffffffffffffffffff021916908373ffffffffffffffffffffffffffffffffffffffff160217905550600160055f848460ff16815181106101855761018461040d565b5b602002602001015173ffffffffffffffffffffffffffffffffffffffff1673ffffffffffffffffffffffffffffffffffffffff1681526020019081526020015f205f6101000a81548160ff0219169083151502179055505b80806101e890610473565b915050610076565b50505061049b565b5f604051905090565b5f5ffd5b5f5ffd5b5f73ffffffffffffffffffffffffffffffffffffffff82169050919050565b5f61023282610209565b9050919050565b61024281610228565b811461024c575f5ffd5b50565b5f8151905061025d81610239565b92915050565b5f5ffd5b5f601f19601f8301169050919050565b7f4e487b71000000000000000000000000000000000000000000000000000000005f52604160045260245ffd5b6102ad82610267565b810181811067ffffffffffffffff821117156102cc576102cb610277565b5b80604052505050565b5f6102de6101f8565b90506102ea82826102a4565b919050565b5f67ffffffffffffffff82111561030957610308610277565b5b602082029050602081019050919050565b5f5ffd5b5f61033061032b846102ef565b6102d5565b905080838252602082019050602084028301858111156103535761035261031a565b5b835b8181101561037c5780610368888261024f565b845260208401935050602081019050610355565b5050509392505050565b5f82601f83011261039a57610399610263565b5b81516103aa84826020860161031e565b91505092915050565b5f5f604083850312156103c9576103c8610201565b5b5f6103d68582860161024f565b925050602083015167ffffffffffffffff8111156103f7576103f6610205565b5b61040385828601610386565b9150509250929050565b7f4e487b71000000000000000000000000000000000000000000000000000000005f52603260045260245ffd5b7f4e487b71000000000000000000000000000000000000000000000000000000005f52601160045260245ffd5b5f60ff82169050919050565b5f61047d82610467565b915060ff82036104905761048f61043a565b5b600182019050919050565b611e85806104a85f395ff3fe608060405234801561000f575f5ffd5b5060043610610060575f3560e01c80630a57dfb81461006457806320ea8d8614610080578063838cbe521461009c57806383920e90146100cc578063b4ce7d45146100ea578063c01a8c8414610106575b5f5ffd5b61007e600480360381019061007991906110e6565b610122565b005b61009a600480360381019061009591906110e6565b610209565b005b6100b660048036038101906100b1919061116b565b6102a4565b6040516100c391906111a5565b60405180910390f35b6100d46103f7565b6040516100e19190611372565b60405180910390f35b61010460048036038101906100ff91906114d2565b6105f6565b005b610120600480360381019061011b91906110e6565b6108f8565b005b60045f3373ffffffffffffffffffffffffffffffffffffffff1673ffffffffffffffffffffffffffffffffffffffff1681526020019081526020015f205f9054906101000a900460ff166101ab576040517f08c379a00000000000000000000000000000000000000000000000000000000081526004016101a290611573565b60405180910390fd5b600181101580156101c157506002805490508111155b610200576040517f08c379a00000000000000000000000000000000000000000000000000000000081526004016101f790611601565b60405180910390fd5b805f8190555050565b60055f3373ffffffffffffffffffffffffffffffffffffffff1673ffffffffffffffffffffffffffffffffffffffff1681526020019081526020015f205f9054906101000a900460ff16610292576040517f08c379a000000000000000000000000000000000000000000000000000000000815260040161028990611669565b60405180910390fd5b6102a160036007600684610995565b50565b5f60055f3373ffffffffffffffffffffffffffffffffffffffff1673ffffffffffffffffffffffffffffffffffffffff1681526020019081526020015f205f9054906101000a900460ff1661032e576040517f08c379a000000000000000000000000000000000000000000000000000000000815260040161032590611669565b60405180910390fd5b6103ea600360015f9054906101000a900473ffffffffffffffffffffffffffffffffffffffff16846040516024016103669190611696565b6040516020818303038152906040527f13af4035000000000000000000000000000000000000000000000000000000007bffffffffffffffffffffffffffffffffffffffffffffffffffffffff19166020820180517bffffffffffffffffffffffffffffffffffffffffffffffffffffffff83818316178352505050506001610bb2565b6003805490509050919050565b606060055f3373ffffffffffffffffffffffffffffffffffffffff1673ffffffffffffffffffffffffffffffffffffffff1681526020019081526020015f205f9054906101000a900460ff16610482576040517f08c379a000000000000000000000000000000000000000000000000000000000815260040161047990611669565b60405180910390fd5b6003805480602002602001604051908101604052809291908181526020015f905b828210156105ed578382905f5260205f2090600202016040518060800160405290815f820180546104d3906116dc565b80601f01602080910402602001604051908101604052809291908181526020018280546104ff906116dc565b801561054a5780601f106105215761010080835404028352916020019161054a565b820191905f5260205f20905b81548152906001019060200180831161052d57829003601f168201915b50505050508152602001600182015f9054906101000a900473ffffffffffffffffffffffffffffffffffffffff1673ffffffffffffffffffffffffffffffffffffffff1673ffffffffffffffffffffffffffffffffffffffff1681526020016001820160149054906101000a900460ff161515151581526020016001820160159054906101000a900460ff161515151581525050815260200190600101906104a3565b50505050905090565b60045f3373ffffffffffffffffffffffffffffffffffffffff1673ffffffffffffffffffffffffffffffffffffffff1681526020019081526020015f205f9054906101000a900460ff1661067f576040517f08c379a000000000000000000000000000000000000000000000000000000000815260040161067690611573565b60405180910390fd5b5b6002805490505f03610775575f60055f600260016002805490506106a49190611739565b815481106106b5576106b461176c565b5b905f5260205f20015f9054906101000a900473ffffffffffffffffffffffffffffffffffffffff1673ffffffffffffffffffffffffffffffffffffffff1673ffffffffffffffffffffffffffffffffffffffff1681526020019081526020015f205f6101000a81548160ff021916908315150217905550600280548061073e5761073d611799565b5b600190038181905f5260205f20015f6101000a81549073ffffffffffffffffffffffffffffffffffffffff02191690559055610680565b5f5f90505b81518160ff1610156108f45760055f838360ff168151811061079f5761079e61176c565b5b602002602001015173ffffffffffffffffffffffffffffffffffffffff1673ffffffffffffffffffffffffffffffffffffffff1681526020019081526020015f205f9054906101000a900460ff166108e1576002828260ff16815181106108095761080861176c565b5b6020026020010151908060018154018082558091505060019003905f5260205f20015f9091909190916101000a81548173ffffffffffffffffffffffffffffffffffffffff021916908373ffffffffffffffffffffffffffffffffffffffff160217905550600160055f848460ff16815181106108895761088861176c565b5b602002602001015173ffffffffffffffffffffffffffffffffffffffff1673ffffffffffffffffffffffffffffffffffffffff1681526020019081526020015f205f6101000a81548160ff0219169083151502179055505b80806108ec906117d2565b91505061077a565b5050565b60055f3373ffffffffffffffffffffffffffffffffffffffff1673ffffffffffffffffffffffffffffffffffffffff1681526020019081526020015f205f9054906101000a900460ff16610981576040517f08c379a000000000000000000000000000000000000000000000000000000000815260040161097890611669565b60405180910390fd5b6109926003600760065f5485610d09565b50565b838054905081106109db576040517f08c379a00000000000000000000000000000000000000000000000000000000081526004016109d290611844565b60405180910390fd5b8381815481106109ee576109ed61176c565b5b905f5260205f20906002020160010160149054906101000a900460ff16610a4a576040517f08c379a0000000000000000000000000000000000000000000000000000000008152600401610a41906118ac565b60405180910390fd5b825f8281526020019081526020015f205f3373ffffffffffffffffffffffffffffffffffffffff1673ffffffffffffffffffffffffffffffffffffffff1681526020019081526020015f205f9054906101000a900460ff16610ae1576040517f08c379a0000000000000000000000000000000000000000000000000000000008152600401610ad890611914565b60405180910390fd5b5f835f8381526020019081526020015f205f3373ffffffffffffffffffffffffffffffffffffffff1673ffffffffffffffffffffffffffffffffffffffff1681526020019081526020015f205f6101000a81548160ff021916908315150217905550815f8281526020019081526020015f205f815480929190610b6390611932565b9190505550803373ffffffffffffffffffffffffffffffffffffffff167ff0dca620e2e81f7841d07bcc105e1704fb01475b278a9d4c236e1c62945edd5560405160405180910390a350505050565b8360405180608001604052808481526020018573ffffffffffffffffffffffffffffffffffffffff1681526020015f15158152602001831515815250908060018154018082558091505060019003905f5260205f2090600202015f909190919091505f820151815f019081610c279190611af9565b506020820151816001015f6101000a81548173ffffffffffffffffffffffffffffffffffffffff021916908373ffffffffffffffffffffffffffffffffffffffff16021790555060408201518160010160146101000a81548160ff02191690831515021790555060608201518160010160156101000a81548160ff021916908315150217905550505083805490503373ffffffffffffffffffffffffffffffffffffffff167feb45f38ad35cf41b4f9be8cfcca269ef78ea04216dbc8b8a38f28491c84d005a84604051610cfb9190611c10565b60405180910390a350505050565b835f8281526020019081526020015f205f3373ffffffffffffffffffffffffffffffffffffffff1673ffffffffffffffffffffffffffffffffffffffff1681526020019081526020015f205f9054906101000a900460ff1615610da1576040517f08c379a0000000000000000000000000000000000000000000000000000000008152600401610d9890611c7a565b60405180910390fd5b6001845f8381526020019081526020015f205f3373ffffffffffffffffffffffffffffffffffffffff1673ffffffffffffffffffffffffffffffffffffffff1681526020019081526020015f205f6101000a81548160ff021916908315150217905550825f8281526020019081526020015f205f815480929190610e2490611c98565b9190505550803373ffffffffffffffffffffffffffffffffffffffff167f5cbe105e36805f7820e291f799d5794ff948af2a5f664e580382defb6339004160405160405180910390a381835f8381526020019081526020015f205410610e8f57610e8e8582610e96565b5b5050505050565b81805490508110610edc576040517f08c379a0000000000000000000000000000000000000000000000000000000008152600401610ed390611844565b60405180910390fd5b818181548110610eef57610eee61176c565b5b905f5260205f20906002020160010160149054906101000a900460ff1615610f4c576040517f08c379a0000000000000000000000000000000000000000000000000000000008152600401610f4390611d29565b60405180910390fd5b5f828281548110610f6057610f5f61176c565b5b905f5260205f209060020201905060018160010160146101000a81548160ff0219169083151502179055505f816001015f9054906101000a900473ffffffffffffffffffffffffffffffffffffffff1673ffffffffffffffffffffffffffffffffffffffff16825f01604051610fd69190611dd1565b5f604051808303815f865af19150503d805f811461100f576040519150601f19603f3d011682016040523d82523d5f602084013e611014565b606091505b5050905080611058576040517f08c379a000000000000000000000000000000000000000000000000000000000815260040161104f90611e31565b60405180910390fd5b823373ffffffffffffffffffffffffffffffffffffffff167f5445f318f4f5fcfb66592e68e0cc5822aa15664039bd5f0ffde24c5a8142b1ac60405160405180910390a350505050565b5f604051905090565b5f5ffd5b5f5ffd5b5f819050919050565b6110c5816110b3565b81146110cf575f5ffd5b50565b5f813590506110e0816110bc565b92915050565b5f602082840312156110fb576110fa6110ab565b5b5f611108848285016110d2565b91505092915050565b5f73ffffffffffffffffffffffffffffffffffffffff82169050919050565b5f61113a82611111565b9050919050565b61114a81611130565b8114611154575f5ffd5b50565b5f8135905061116581611141565b92915050565b5f602082840312156111805761117f6110ab565b5b5f61118d84828501611157565b91505092915050565b61119f816110b3565b82525050565b5f6020820190506111b85f830184611196565b92915050565b5f81519050919050565b5f82825260208201905092915050565b5f819050602082019050919050565b5f81519050919050565b5f82825260208201905092915050565b8281835e5f83830152505050565b5f601f19601f8301169050919050565b5f611229826111e7565b61123381856111f1565b9350611243818560208601611201565b61124c8161120f565b840191505092915050565b61126081611130565b82525050565b5f8115159050919050565b61127a81611266565b82525050565b5f608083015f8301518482035f86015261129a828261121f565b91505060208301516112af6020860182611257565b5060408301516112c26040860182611271565b5060608301516112d56060860182611271565b508091505092915050565b5f6112eb8383611280565b905092915050565b5f602082019050919050565b5f611309826111be565b61131381856111c8565b935083602082028501611325856111d8565b805f5b85811015611360578484038952815161134185826112e0565b945061134c836112f3565b925060208a01995050600181019050611328565b50829750879550505050505092915050565b5f6020820190508181035f83015261138a81846112ff565b905092915050565b5f5ffd5b7f4e487b71000000000000000000000000000000000000000000000000000000005f52604160045260245ffd5b6113cc8261120f565b810181811067ffffffffffffffff821117156113eb576113ea611396565b5b80604052505050565b5f6113fd6110a2565b905061140982826113c3565b919050565b5f67ffffffffffffffff82111561142857611427611396565b5b602082029050602081019050919050565b5f5ffd5b5f61144f61144a8461140e565b6113f4565b9050808382526020820190506020840283018581111561147257611471611439565b5b835b8181101561149b57806114878882611157565b845260208401935050602081019050611474565b5050509392505050565b5f82601f8301126114b9576114b8611392565b5b81356114c984826020860161143d565b91505092915050565b5f602082840312156114e7576114e66110ab565b5b5f82013567ffffffffffffffff811115611504576115036110af565b5b611510848285016114a5565b91505092915050565b5f82825260208201905092915050565b7f4f6e6c7920746865206f776e65722063616e20757365000000000000000000005f82015250565b5f61155d601683611519565b915061156882611529565b602082019050919050565b5f6020820190508181035f83015261158a81611551565b9050919050565b7f7265717569726564206e756d626572206d757374203e3d2031206f72203c3d205f8201527f636f6e74726f6c6c6572206d656d6265722e0000000000000000000000000000602082015250565b5f6115eb603283611519565b91506115f682611591565b604082019050919050565b5f6020820190508181035f830152611618816115df565b9050919050565b7f4f6e6c79207468652061646d696e6973747261746f722063616e2075736500005f82015250565b5f611653601e83611519565b915061165e8261161f565b602082019050919050565b5f6020820190508181035f83015261168081611647565b9050919050565b61169081611130565b82525050565b5f6020820190506116a95f830184611687565b92915050565b7f4e487b71000000000000000000000000000000000000000000000000000000005f52602260045260245ffd5b5f60028204905060018216806116f357607f821691505b602082108103611706576117056116af565b5b50919050565b7f4e487b71000000000000000000000000000000000000000000000000000000005f52601160045260245ffd5b5f611743826110b3565b915061174e836110b3565b92508282039050818111156117665761176561170c565b5b92915050565b7f4e487b71000000000000000000000000000000000000000000000000000000005f52603260045260245ffd5b7f4e487b71000000000000000000000000000000000000000000000000000000005f52603160045260245ffd5b5f60ff82169050919050565b5f6117dc826117c6565b915060ff82036117ef576117ee61170c565b5b600182019050919050565b7f496e76616c6964207472616e73616374696f6e20696e646578000000000000005f82015250565b5f61182e601983611519565b9150611839826117fa565b602082019050919050565b5f6020820190508181035f83015261185b81611822565b9050919050565b7f5472616e73616374696f6e206e6f7420657865637574656400000000000000005f82015250565b5f611896601883611519565b91506118a182611862565b602082019050919050565b5f6020820190508181035f8301526118c38161188a565b9050919050565b7f5472616e73616374696f6e206e6f7420636f6e6669726d6564000000000000005f82015250565b5f6118fe601983611519565b9150611909826118ca565b602082019050919050565b5f6020820190508181035f83015261192b816118f2565b9050919050565b5f61193c826110b3565b91505f820361194e5761194d61170c565b5b600182039050919050565b5f819050815f5260205f209050919050565b5f6020601f8301049050919050565b5f82821b905092915050565b5f600883026119b57fffffffffffffffffffffffffffffffffffffffffffffffffffffffffffffffff8261197a565b6119bf868361197a565b95508019841693508086168417925050509392505050565b5f819050919050565b5f6119fa6119f56119f0846110b3565b6119d7565b6110b3565b9050919050565b5f819050919050565b611a13836119e0565b611a27611a1f82611a01565b848454611986565b825550505050565b5f5f905090565b611a3e611a2f565b611a49818484611a0a565b505050565b5b81811015611a6c57611a615f82611a36565b600181019050611a4f565b5050565b601f821115611ab157611a8281611959565b611a8b8461196b565b81016020851015611a9a578190505b611aae611aa68561196b565b830182611a4e565b50505b505050565b5f82821c905092915050565b5f611ad15f1984600802611ab6565b1980831691505092915050565b5f611ae98383611ac2565b9150826002028217905092915050565b611b02826111e7565b67ffffffffffffffff811115611b1b57611b1a611396565b5b611b2582546116dc565b611b30828285611a70565b5f60209050601f831160018114611b61575f8415611b4f578287015190505b611b598582611ade565b865550611bc0565b601f198416611b6f86611959565b5f5b82811015611b9657848901518255600182019150602085019450602081019050611b71565b86831015611bb35784890151611baf601f891682611ac2565b8355505b6001600288020188555050505b505050505050565b5f82825260208201905092915050565b5f611be2826111e7565b611bec8185611bc8565b9350611bfc818560208601611201565b611c058161120f565b840191505092915050565b5f6020820190508181035f830152611c288184611bd8565b905092915050565b7f5472616e73616374696f6e20616c726561647920636f6e6669726d65640000005f82015250565b5f611c64601d83611519565b9150611c6f82611c30565b602082019050919050565b5f6020820190508181035f830152611c9181611c58565b9050919050565b5f611ca2826110b3565b91507fffffffffffffffffffffffffffffffffffffffffffffffffffffffffffffffff8203611cd457611cd361170c565b5b600182019050919050565b7f5472616e73616374696f6e20616c7265616479206578656375746564000000005f82015250565b5f611d13601c83611519565b9150611d1e82611cdf565b602082019050919050565b5f6020820190508181035f830152611d4081611d07565b9050919050565b5f81905092915050565b5f8154611d5d816116dc565b611d678186611d47565b9450600182165f8114611d815760018114611d9657611dc8565b60ff1983168652811515820286019350611dc8565b611d9f85611959565b5f5b83811015611dc057815481890152600182019150602081019050611da1565b838801955050505b50505092915050565b5f611ddc8284611d51565b915081905092915050565b7f5472616e73616374696f6e20657865637574696f6e206661696c6564000000005f82015250565b5f611e1b601c83611519565b9150611e2682611de7565b602082019050919050565b5f6020820190508181035f830152611e4881611e0f565b905091905056fea26469706673582212206d4797cba6c40dbf9555dbd59ce254fd4dbb50836abbbfbd26d18b9dd7c79ed564736f6c634300081b0033",
					"opcodes": "PUSH1 0x80 PUSH1 0x40 MSTORE CALLVALUE DUP1 ISZERO PUSH2 0xF JUMPI PUSH0 PUSH0 REVERT JUMPDEST POP PUSH1 0x40 MLOAD PUSH2 0x232D CODESIZE SUB DUP1 PUSH2 0x232D DUP4 CODECOPY DUP2 DUP2 ADD PUSH1 0x40 MSTORE DUP2 ADD SWAP1 PUSH2 0x31 SWAP2 SWAP1 PUSH2 0x3B3 JUMP JUMPDEST DUP2 PUSH1 0x1 PUSH0 PUSH2 0x100 EXP DUP2 SLOAD DUP2 PUSH20 0xFFFFFFFFFFFFFFFFFFFFFFFFFFFFFFFFFFFFFFFF MUL NOT AND SWAP1 DUP4 PUSH20 0xFFFFFFFFFFFFFFFFFFFFFFFFFFFFFFFFFFFFFFFF AND MUL OR SWAP1 SSTORE POP PUSH0 PUSH0 SWAP1 POP JUMPDEST DUP2 MLOAD DUP2 PUSH1 0xFF AND LT ISZERO PUSH2 0x1F0 JUMPI PUSH1 0x5 PUSH0 DUP4 DUP4 PUSH1 0xFF AND DUP2 MLOAD DUP2 LT PUSH2 0x9B JUMPI PUSH2 0x9A PUSH2 0x40D JUMP JUMPDEST JUMPDEST PUSH1 0x20 MUL PUSH1 0x20 ADD ADD MLOAD PUSH20 0xFFFFFFFFFFFFFFFFFFFFFFFFFFFFFFFFFFFFFFFF AND PUSH20 0xFFFFFFFFFFFFFFFFFFFFFFFFFFFFFFFFFFFFFFFF AND DUP2 MSTORE PUSH1 0x20 ADD SWAP1 DUP2 MSTORE PUSH1 0x20 ADD PUSH0 KECCAK256 PUSH0 SWAP1 SLOAD SWAP1 PUSH2 0x100 EXP SWAP1 DIV PUSH1 0xFF AND PUSH2 0x1DD JUMPI PUSH1 0x2 DUP3 DUP3 PUSH1 0xFF AND DUP2 MLOAD DUP2 LT PUSH2 0x105 JUMPI PUSH2 0x104 PUSH2 0x40D JUMP JUMPDEST JUMPDEST PUSH1 0x20 MUL PUSH1 0x20 ADD ADD MLOAD SWAP1 DUP1 PUSH1 0x1 DUP2 SLOAD ADD DUP1 DUP3 SSTORE DUP1 SWAP2 POP POP PUSH1 0x1 SWAP1 SUB SWAP1 PUSH0 MSTORE PUSH1 0x20 PUSH0 KECCAK256 ADD PUSH0 SWAP1 SWAP2 SWAP1 SWAP2 SWAP1 SWAP2 PUSH2 0x100 EXP DUP2 SLOAD DUP2 PUSH20 0xFFFFFFFFFFFFFFFFFFFFFFFFFFFFFFFFFFFFFFFF MUL NOT AND SWAP1 DUP4 PUSH20 0xFFFFFFFFFFFFFFFFFFFFFFFFFFFFFFFFFFFFFFFF AND MUL OR SWAP1 SSTORE POP PUSH1 0x1 PUSH1 0x5 PUSH0 DUP5 DUP5 PUSH1 0xFF AND DUP2 MLOAD DUP2 LT PUSH2 0x185 JUMPI PUSH2 0x184 PUSH2 0x40D JUMP JUMPDEST JUMPDEST PUSH1 0x20 MUL PUSH1 0x20 ADD ADD MLOAD PUSH20 0xFFFFFFFFFFFFFFFFFFFFFFFFFFFFFFFFFFFFFFFF AND PUSH20 0xFFFFFFFFFFFFFFFFFFFFFFFFFFFFFFFFFFFFFFFF AND DUP2 MSTORE PUSH1 0x20 ADD SWAP1 DUP2 MSTORE PUSH1 0x20 ADD PUSH0 KECCAK256 PUSH0 PUSH2 0x100 EXP DUP2 SLOAD DUP2 PUSH1 0xFF MUL NOT AND SWAP1 DUP4 ISZERO ISZERO MUL OR SWAP1 SSTORE POP JUMPDEST DUP1 DUP1 PUSH2 0x1E8 SWAP1 PUSH2 0x473 JUMP JUMPDEST SWAP2 POP POP PUSH2 0x76 JUMP JUMPDEST POP POP POP PUSH2 0x49B JUMP JUMPDEST PUSH0 PUSH1 0x40 MLOAD SWAP1 POP SWAP1 JUMP JUMPDEST PUSH0 PUSH0 REVERT JUMPDEST PUSH0 PUSH0 REVERT JUMPDEST PUSH0 PUSH20 0xFFFFFFFFFFFFFFFFFFFFFFFFFFFFFFFFFFFFFFFF DUP3 AND SWAP1 POP SWAP2 SWAP1 POP JUMP JUMPDEST PUSH0 PUSH2 0x232 DUP3 PUSH2 0x209 JUMP JUMPDEST SWAP1 POP SWAP2 SWAP1 POP JUMP JUMPDEST PUSH2 0x242 DUP2 PUSH2 0x228 JUMP JUMPDEST DUP2 EQ PUSH2 0x24C JUMPI PUSH0 PUSH0 REVERT JUMPDEST POP JUMP JUMPDEST PUSH0 DUP2 MLOAD SWAP1 POP PUSH2 0x25D DUP2 PUSH2 0x239 JUMP JUMPDEST SWAP3 SWAP2 POP POP JUMP JUMPDEST PUSH0 PUSH0 REVERT JUMPDEST PUSH0 PUSH1 0x1F NOT PUSH1 0x1F DUP4 ADD AND SWAP1 POP SWAP2 SWAP1 POP JUMP JUMPDEST PUSH32 0x4E487B7100000000000000000000000000000000000000000000000000000000 PUSH0 MSTORE PUSH1 0x41 PUSH1 0x4 MSTORE PUSH1 0x24 PUSH0 REVERT JUMPDEST PUSH2 0x2AD DUP3 PUSH2 0x267 JUMP JUMPDEST DUP2 ADD DUP2 DUP2 LT PUSH8 0xFFFFFFFFFFFFFFFF DUP3 GT OR ISZERO PUSH2 0x2CC JUMPI PUSH2 0x2CB PUSH2 0x277 JUMP JUMPDEST JUMPDEST DUP1 PUSH1 0x40 MSTORE POP POP POP JUMP JUMPDEST PUSH0 PUSH2 0x2DE PUSH2 0x1F8 JUMP JUMPDEST SWAP1 POP PUSH2 0x2EA DUP3 DUP3 PUSH2 0x2A4 JUMP JUMPDEST SWAP2 SWAP1 POP JUMP JUMPDEST PUSH0 PUSH8 0xFFFFFFFFFFFFFFFF DUP3 GT ISZERO PUSH2 0x309 JUMPI PUSH2 0x308 PUSH2 0x277 JUMP JUMPDEST JUMPDEST PUSH1 0x20 DUP3 MUL SWAP1 POP PUSH1 0x20 DUP2 ADD SWAP1 POP SWAP2 SWAP1 POP JUMP JUMPDEST PUSH0 PUSH0 REVERT JUMPDEST PUSH0 PUSH2 0x330 PUSH2 0x32B DUP5 PUSH2 0x2EF JUMP JUMPDEST PUSH2 0x2D5 JUMP JUMPDEST SWAP1 POP DUP1 DUP4 DUP3 MSTORE PUSH1 0x20 DUP3 ADD SWAP1 POP PUSH1 0x20 DUP5 MUL DUP4 ADD DUP6 DUP2 GT ISZERO PUSH2 0x353 JUMPI PUSH2 0x352 PUSH2 0x31A JUMP JUMPDEST JUMPDEST DUP4 JUMPDEST DUP2 DUP2 LT ISZERO PUSH2 0x37C JUMPI DUP1 PUSH2 0x368 DUP9 DUP3 PUSH2 0x24F JUMP JUMPDEST DUP5 MSTORE PUSH1 0x20 DUP5 ADD SWAP4 POP POP PUSH1 0x20 DUP2 ADD SWAP1 POP PUSH2 0x355 JUMP JUMPDEST POP POP POP SWAP4 SWAP3 POP POP POP JUMP JUMPDEST PUSH0 DUP3 PUSH1 0x1F DUP4 ADD SLT PUSH2 0x39A JUMPI PUSH2 0x399 PUSH2 0x263 JUMP JUMPDEST JUMPDEST DUP2 MLOAD PUSH2 0x3AA DUP5 DUP3 PUSH1 0x20 DUP7 ADD PUSH2 0x31E JUMP JUMPDEST SWAP2 POP POP SWAP3 SWAP2 POP POP JUMP JUMPDEST PUSH0 PUSH0 PUSH1 0x40 DUP4 DUP6 SUB SLT ISZERO PUSH2 0x3C9 JUMPI PUSH2 0x3C8 PUSH2 0x201 JUMP JUMPDEST JUMPDEST PUSH0 PUSH2 0x3D6 DUP6 DUP3 DUP7 ADD PUSH2 0x24F JUMP JUMPDEST SWAP3 POP POP PUSH1 0x20 DUP4 ADD MLOAD PUSH8 0xFFFFFFFFFFFFFFFF DUP2 GT ISZERO PUSH2 0x3F7 JUMPI PUSH2 0x3F6 PUSH2 0x205 JUMP JUMPDEST JUMPDEST PUSH2 0x403 DUP6 DUP3 DUP7 ADD PUSH2 0x386 JUMP JUMPDEST SWAP2 POP POP SWAP3 POP SWAP3 SWAP1 POP JUMP JUMPDEST PUSH32 0x4E487B7100000000000000000000000000000000000000000000000000000000 PUSH0 MSTORE PUSH1 0x32 PUSH1 0x4 MSTORE PUSH1 0x24 PUSH0 REVERT JUMPDEST PUSH32 0x4E487B7100000000000000000000000000000000000000000000000000000000 PUSH0 MSTORE PUSH1 0x11 PUSH1 0x4 MSTORE PUSH1 0x24 PUSH0 REVERT JUMPDEST PUSH0 PUSH1 0xFF DUP3 AND SWAP1 POP SWAP2 SWAP1 POP JUMP JUMPDEST PUSH0 PUSH2 0x47D DUP3 PUSH2 0x467 JUMP JUMPDEST SWAP2 POP PUSH1 0xFF DUP3 SUB PUSH2 0x490 JUMPI PUSH2 0x48F PUSH2 0x43A JUMP JUMPDEST JUMPDEST PUSH1 0x1 DUP3 ADD SWAP1 POP SWAP2 SWAP1 POP JUMP JUMPDEST PUSH2 0x1E85 DUP1 PUSH2 0x4A8 PUSH0 CODECOPY PUSH0 RETURN INVALID PUSH1 0x80 PUSH1 0x40 MSTORE CALLVALUE DUP1 ISZERO PUSH2 0xF JUMPI PUSH0 PUSH0 REVERT JUMPDEST POP PUSH1 0x4 CALLDATASIZE LT PUSH2 0x60 JUMPI PUSH0 CALLDATALOAD PUSH1 0xE0 SHR DUP1 PUSH4 0xA57DFB8 EQ PUSH2 0x64 JUMPI DUP1 PUSH4 0x20EA8D86 EQ PUSH2 0x80 JUMPI DUP1 PUSH4 0x838CBE52 EQ PUSH2 0x9C JUMPI DUP1 PUSH4 0x83920E90 EQ PUSH2 0xCC JUMPI DUP1 PUSH4 0xB4CE7D45 EQ PUSH2 0xEA JUMPI DUP1 PUSH4 0xC01A8C84 EQ PUSH2 0x106 JUMPI JUMPDEST PUSH0 PUSH0 REVERT JUMPDEST PUSH2 0x7E PUSH1 0x4 DUP1 CALLDATASIZE SUB DUP2 ADD SWAP1 PUSH2 0x79 SWAP2 SWAP1 PUSH2 0x10E6 JUMP JUMPDEST PUSH2 0x122 JUMP JUMPDEST STOP JUMPDEST PUSH2 0x9A PUSH1 0x4 DUP1 CALLDATASIZE SUB DUP2 ADD SWAP1 PUSH2 0x95 SWAP2 SWAP1 PUSH2 0x10E6 JUMP JUMPDEST PUSH2 0x209 JUMP JUMPDEST STOP JUMPDEST PUSH2 0xB6 PUSH1 0x4 DUP1 CALLDATASIZE SUB DUP2 ADD SWAP1 PUSH2 0xB1 SWAP2 SWAP1 PUSH2 0x116B JUMP JUMPDEST PUSH2 0x2A4 JUMP JUMPDEST PUSH1 0x40 MLOAD PUSH2 0xC3 SWAP2 SWAP1 PUSH2 0x11A5 JUMP JUMPDEST PUSH1 0x40 MLOAD DUP1 SWAP2 SUB SWAP1 RETURN JUMPDEST PUSH2 0xD4 PUSH2 0x3F7 JUMP JUMPDEST PUSH1 0x40 MLOAD PUSH2 0xE1 SWAP2 SWAP1 PUSH2 0x1372 JUMP JUMPDEST PUSH1 0x40 MLOAD DUP1 SWAP2 SUB SWAP1 RETURN JUMPDEST PUSH2 0x104 PUSH1 0x4 DUP1 CALLDATASIZE SUB DUP2 ADD SWAP1 PUSH2 0xFF SWAP2 SWAP1 PUSH2 0x14D2 JUMP JUMPDEST PUSH2 0x5F6 JUMP JUMPDEST STOP JUMPDEST PUSH2 0x120 PUSH1 0x4 DUP1 CALLDATASIZE SUB DUP2 ADD SWAP1 PUSH2 0x11B SWAP2 SWAP1 PUSH2 0x10E6 JUMP JUMPDEST PUSH2 0x8F8 JUMP JUMPDEST STOP JUMPDEST PUSH1 0x4 PUSH0 CALLER PUSH20 0xFFFFFFFFFFFFFFFFFFFFFFFFFFFFFFFFFFFFFFFF AND PUSH20 0xFFFFFFFFFFFFFFFFFFFFFFFFFFFFFFFFFFFFFFFF AND DUP2 MSTORE PUSH1 0x20 ADD SWAP1 DUP2 MSTORE PUSH1 0x20 ADD PUSH0 KECCAK256 PUSH0 SWAP1 SLOAD SWAP1 PUSH2 0x100 EXP SWAP1 DIV PUSH1 0xFF AND PUSH2 0x1AB JUMPI PUSH1 0x40 MLOAD PUSH32 0x8C379A000000000000000000000000000000000000000000000000000000000 DUP2 MSTORE PUSH1 0x4 ADD PUSH2 0x1A2 SWAP1 PUSH2 0x1573 JUMP JUMPDEST PUSH1 0x40 MLOAD DUP1 SWAP2 SUB SWAP1 REVERT JUMPDEST PUSH1 0x1 DUP2 LT ISZERO DUP1 ISZERO PUSH2 0x1C1 JUMPI POP PUSH1 0x2 DUP1 SLOAD SWAP1 POP DUP2 GT ISZERO JUMPDEST PUSH2 0x200 JUMPI PUSH1 0x40 MLOAD PUSH32 0x8C379A000000000000000000000000000000000000000000000000000000000 DUP2 MSTORE PUSH1 0x4 ADD PUSH2 0x1F7 SWAP1 PUSH2 0x1601 JUMP JUMPDEST PUSH1 0x40 MLOAD DUP1 SWAP2 SUB SWAP1 REVERT JUMPDEST DUP1 PUSH0 DUP2 SWAP1 SSTORE POP POP JUMP JUMPDEST PUSH1 0x5 PUSH0 CALLER PUSH20 0xFFFFFFFFFFFFFFFFFFFFFFFFFFFFFFFFFFFFFFFF AND PUSH20 0xFFFFFFFFFFFFFFFFFFFFFFFFFFFFFFFFFFFFFFFF AND DUP2 MSTORE PUSH1 0x20 ADD SWAP1 DUP2 MSTORE PUSH1 0x20 ADD PUSH0 KECCAK256 PUSH0 SWAP1 SLOAD SWAP1 PUSH2 0x100 EXP SWAP1 DIV PUSH1 0xFF AND PUSH2 0x292 JUMPI PUSH1 0x40 MLOAD PUSH32 0x8C379A000000000000000000000000000000000000000000000000000000000 DUP2 MSTORE PUSH1 0x4 ADD PUSH2 0x289 SWAP1 PUSH2 0x1669 JUMP JUMPDEST PUSH1 0x40 MLOAD DUP1 SWAP2 SUB SWAP1 REVERT JUMPDEST PUSH2 0x2A1 PUSH1 0x3 PUSH1 0x7 PUSH1 0x6 DUP5 PUSH2 0x995 JUMP JUMPDEST POP JUMP JUMPDEST PUSH0 PUSH1 0x5 PUSH0 CALLER PUSH20 0xFFFFFFFFFFFFFFFFFFFFFFFFFFFFFFFFFFFFFFFF AND PUSH20 0xFFFFFFFFFFFFFFFFFFFFFFFFFFFFFFFFFFFFFFFF AND DUP2 MSTORE PUSH1 0x20 ADD SWAP1 DUP2 MSTORE PUSH1 0x20 ADD PUSH0 KECCAK256 PUSH0 SWAP1 SLOAD SWAP1 PUSH2 0x100 EXP SWAP1 DIV PUSH1 0xFF AND PUSH2 0x32E JUMPI PUSH1 0x40 MLOAD PUSH32 0x8C379A000000000000000000000000000000000000000000000000000000000 DUP2 MSTORE PUSH1 0x4 ADD PUSH2 0x325 SWAP1 PUSH2 0x1669 JUMP JUMPDEST PUSH1 0x40 MLOAD DUP1 SWAP2 SUB SWAP1 REVERT JUMPDEST PUSH2 0x3EA PUSH1 0x3 PUSH1 0x1 PUSH0 SWAP1 SLOAD SWAP1 PUSH2 0x100 EXP SWAP1 DIV PUSH20 0xFFFFFFFFFFFFFFFFFFFFFFFFFFFFFFFFFFFFFFFF AND DUP5 PUSH1 0x40 MLOAD PUSH1 0x24 ADD PUSH2 0x366 SWAP2 SWAP1 PUSH2 0x1696 JUMP JUMPDEST PUSH1 0x40 MLOAD PUSH1 0x20 DUP2 DUP4 SUB SUB DUP2 MSTORE SWAP1 PUSH1 0x40 MSTORE PUSH32 0x13AF403500000000000000000000000000000000000000000000000000000000 PUSH28 0xFFFFFFFFFFFFFFFFFFFFFFFFFFFFFFFFFFFFFFFFFFFFFFFFFFFFFFFF NOT AND PUSH1 0x20 DUP3 ADD DUP1 MLOAD PUSH28 0xFFFFFFFFFFFFFFFFFFFFFFFFFFFFFFFFFFFFFFFFFFFFFFFFFFFFFFFF DUP4 DUP2 DUP4 AND OR DUP4 MSTORE POP POP POP POP PUSH1 0x1 PUSH2 0xBB2 JUMP JUMPDEST PUSH1 0x3 DUP1 SLOAD SWAP1 POP SWAP1 POP SWAP2 SWAP1 POP JUMP JUMPDEST PUSH1 0x60 PUSH1 0x5 PUSH0 CALLER PUSH20 0xFFFFFFFFFFFFFFFFFFFFFFFFFFFFFFFFFFFFFFFF AND PUSH20 0xFFFFFFFFFFFFFFFFFFFFFFFFFFFFFFFFFFFFFFFF AND DUP2 MSTORE PUSH1 0x20 ADD SWAP1 DUP2 MSTORE PUSH1 0x20 ADD PUSH0 KECCAK256 PUSH0 SWAP1 SLOAD SWAP1 PUSH2 0x100 EXP SWAP1 DIV PUSH1 0xFF AND PUSH2 0x482 JUMPI PUSH1 0x40 MLOAD PUSH32 0x8C379A000000000000000000000000000000000000000000000000000000000 DUP2 MSTORE PUSH1 0x4 ADD PUSH2 0x479 SWAP1 PUSH2 0x1669 JUMP JUMPDEST PUSH1 0x40 MLOAD DUP1 SWAP2 SUB SWAP1 REVERT JUMPDEST PUSH1 0x3 DUP1 SLOAD DUP1 PUSH1 0x20 MUL PUSH1 0x20 ADD PUSH1 0x40 MLOAD SWAP1 DUP2 ADD PUSH1 0x40 MSTORE DUP1 SWAP3 SWAP2 SWAP1 DUP2 DUP2 MSTORE PUSH1 0x20 ADD PUSH0 SWAP1 JUMPDEST DUP3 DUP3 LT ISZERO PUSH2 0x5ED JUMPI DUP4 DUP3 SWAP1 PUSH0 MSTORE PUSH1 0x20 PUSH0 KECCAK256 SWAP1 PUSH1 0x2 MUL ADD PUSH1 0x40 MLOAD DUP1 PUSH1 0x80 ADD PUSH1 0x40 MSTORE SWAP1 DUP2 PUSH0 DUP3 ADD DUP1 SLOAD PUSH2 0x4D3 SWAP1 PUSH2 0x16DC JUMP JUMPDEST DUP1 PUSH1 0x1F ADD PUSH1 0x20 DUP1 SWAP2 DIV MUL PUSH1 0x20 ADD PUSH1 0x40 MLOAD SWAP1 DUP2 ADD PUSH1 0x40 MSTORE DUP1 SWAP3 SWAP2 SWAP1 DUP2 DUP2 MSTORE PUSH1 0x20 ADD DUP3 DUP1 SLOAD PUSH2 0x4FF SWAP1 PUSH2 0x16DC JUMP JUMPDEST DUP1 ISZERO PUSH2 0x54A JUMPI DUP1 PUSH1 0x1F LT PUSH2 0x521 JUMPI PUSH2 0x100 DUP1 DUP4 SLOAD DIV MUL DUP4 MSTORE SWAP2 PUSH1 0x20 ADD SWAP2 PUSH2 0x54A JUMP JUMPDEST DUP3 ADD SWAP2 SWAP1 PUSH0 MSTORE PUSH1 0x20 PUSH0 KECCAK256 SWAP1 JUMPDEST DUP2 SLOAD DUP2 MSTORE SWAP1 PUSH1 0x1 ADD SWAP1 PUSH1 0x20 ADD DUP1 DUP4 GT PUSH2 0x52D JUMPI DUP3 SWAP1 SUB PUSH1 0x1F AND DUP3 ADD SWAP2 JUMPDEST POP POP POP POP POP DUP2 MSTORE PUSH1 0x20 ADD PUSH1 0x1 DUP3 ADD PUSH0 SWAP1 SLOAD SWAP1 PUSH2 0x100 EXP SWAP1 DIV PUSH20 0xFFFFFFFFFFFFFFFFFFFFFFFFFFFFFFFFFFFFFFFF AND PUSH20 0xFFFFFFFFFFFFFFFFFFFFFFFFFFFFFFFFFFFFFFFF AND PUSH20 0xFFFFFFFFFFFFFFFFFFFFFFFFFFFFFFFFFFFFFFFF AND DUP2 MSTORE PUSH1 0x20 ADD PUSH1 0x1 DUP3 ADD PUSH1 0x14 SWAP1 SLOAD SWAP1 PUSH2 0x100 EXP SWAP1 DIV PUSH1 0xFF AND ISZERO ISZERO ISZERO ISZERO DUP2 MSTORE PUSH1 0x20 ADD PUSH1 0x1 DUP3 ADD PUSH1 0x15 SWAP1 SLOAD SWAP1 PUSH2 0x100 EXP SWAP1 DIV PUSH1 0xFF AND ISZERO ISZERO ISZERO ISZERO DUP2 MSTORE POP POP DUP2 MSTORE PUSH1 0x20 ADD SWAP1 PUSH1 0x1 ADD SWAP1 PUSH2 0x4A3 JUMP JUMPDEST POP POP POP POP SWAP1 POP SWAP1 JUMP JUMPDEST PUSH1 0x4 PUSH0 CALLER PUSH20 0xFFFFFFFFFFFFFFFFFFFFFFFFFFFFFFFFFFFFFFFF AND PUSH20 0xFFFFFFFFFFFFFFFFFFFFFFFFFFFFFFFFFFFFFFFF AND DUP2 MSTORE PUSH1 0x20 ADD SWAP1 DUP2 MSTORE PUSH1 0x20 ADD PUSH0 KECCAK256 PUSH0 SWAP1 SLOAD SWAP1 PUSH2 0x100 EXP SWAP1 DIV PUSH1 0xFF AND PUSH2 0x67F JUMPI PUSH1 0x40 MLOAD PUSH32 0x8C379A000000000000000000000000000000000000000000000000000000000 DUP2 MSTORE PUSH1 0x4 ADD PUSH2 0x676 SWAP1 PUSH2 0x1573 JUMP JUMPDEST PUSH1 0x40 MLOAD DUP1 SWAP2 SUB SWAP1 REVERT JUMPDEST JUMPDEST PUSH1 0x2 DUP1 SLOAD SWAP1 POP PUSH0 SUB PUSH2 0x775 JUMPI PUSH0 PUSH1 0x5 PUSH0 PUSH1 0x2 PUSH1 0x1 PUSH1 0x2 DUP1 SLOAD SWAP1 POP PUSH2 0x6A4 SWAP2 SWAP1 PUSH2 0x1739 JUMP JUMPDEST DUP2 SLOAD DUP2 LT PUSH2 0x6B5 JUMPI PUSH2 0x6B4 PUSH2 0x176C JUMP JUMPDEST JUMPDEST SWAP1 PUSH0 MSTORE PUSH1 0x20 PUSH0 KECCAK256 ADD PUSH0 SWAP1 SLOAD SWAP1 PUSH2 0x100 EXP SWAP1 DIV PUSH20 0xFFFFFFFFFFFFFFFFFFFFFFFFFFFFFFFFFFFFFFFF AND PUSH20 0xFFFFFFFFFFFFFFFFFFFFFFFFFFFFFFFFFFFFFFFF AND PUSH20 0xFFFFFFFFFFFFFFFFFFFFFFFFFFFFFFFFFFFFFFFF AND DUP2 MSTORE PUSH1 0x20 ADD SWAP1 DUP2 MSTORE PUSH1 0x20 ADD PUSH0 KECCAK256 PUSH0 PUSH2 0x100 EXP DUP2 SLOAD DUP2 PUSH1 0xFF MUL NOT AND SWAP1 DUP4 ISZERO ISZERO MUL OR SWAP1 SSTORE POP PUSH1 0x2 DUP1 SLOAD DUP1 PUSH2 0x73E JUMPI PUSH2 0x73D PUSH2 0x1799 JUMP JUMPDEST JUMPDEST PUSH1 0x1 SWAP1 SUB DUP2 DUP2 SWAP1 PUSH0 MSTORE PUSH1 0x20 PUSH0 KECCAK256 ADD PUSH0 PUSH2 0x100 EXP DUP2 SLOAD SWAP1 PUSH20 0xFFFFFFFFFFFFFFFFFFFFFFFFFFFFFFFFFFFFFFFF MUL NOT AND SWAP1 SSTORE SWAP1 SSTORE PUSH2 0x680 JUMP JUMPDEST PUSH0 PUSH0 SWAP1 POP JUMPDEST DUP2 MLOAD DUP2 PUSH1 0xFF AND LT ISZERO PUSH2 0x8F4 JUMPI PUSH1 0x5 PUSH0 DUP4 DUP4 PUSH1 0xFF AND DUP2 MLOAD DUP2 LT PUSH2 0x79F JUMPI PUSH2 0x79E PUSH2 0x176C JUMP JUMPDEST JUMPDEST PUSH1 0x20 MUL PUSH1 0x20 ADD ADD MLOAD PUSH20 0xFFFFFFFFFFFFFFFFFFFFFFFFFFFFFFFFFFFFFFFF AND PUSH20 0xFFFFFFFFFFFFFFFFFFFFFFFFFFFFFFFFFFFFFFFF AND DUP2 MSTORE PUSH1 0x20 ADD SWAP1 DUP2 MSTORE PUSH1 0x20 ADD PUSH0 KECCAK256 PUSH0 SWAP1 SLOAD SWAP1 PUSH2 0x100 EXP SWAP1 DIV PUSH1 0xFF AND PUSH2 0x8E1 JUMPI PUSH1 0x2 DUP3 DUP3 PUSH1 0xFF AND DUP2 MLOAD DUP2 LT PUSH2 0x809 JUMPI PUSH2 0x808 PUSH2 0x176C JUMP JUMPDEST JUMPDEST PUSH1 0x20 MUL PUSH1 0x20 ADD ADD MLOAD SWAP1 DUP1 PUSH1 0x1 DUP2 SLOAD ADD DUP1 DUP3 SSTORE DUP1 SWAP2 POP POP PUSH1 0x1 SWAP1 SUB SWAP1 PUSH0 MSTORE PUSH1 0x20 PUSH0 KECCAK256 ADD PUSH0 SWAP1 SWAP2 SWAP1 SWAP2 SWAP1 SWAP2 PUSH2 0x100 EXP DUP2 SLOAD DUP2 PUSH20 0xFFFFFFFFFFFFFFFFFFFFFFFFFFFFFFFFFFFFFFFF MUL NOT AND SWAP1 DUP4 PUSH20 0xFFFFFFFFFFFFFFFFFFFFFFFFFFFFFFFFFFFFFFFF AND MUL OR SWAP1 SSTORE POP PUSH1 0x1 PUSH1 0x5 PUSH0 DUP5 DUP5 PUSH1 0xFF AND DUP2 MLOAD DUP2 LT PUSH2 0x889 JUMPI PUSH2 0x888 PUSH2 0x176C JUMP JUMPDEST JUMPDEST PUSH1 0x20 MUL PUSH1 0x20 ADD ADD MLOAD PUSH20 0xFFFFFFFFFFFFFFFFFFFFFFFFFFFFFFFFFFFFFFFF AND PUSH20 0xFFFFFFFFFFFFFFFFFFFFFFFFFFFFFFFFFFFFFFFF AND DUP2 MSTORE PUSH1 0x20 ADD SWAP1 DUP2 MSTORE PUSH1 0x20 ADD PUSH0 KECCAK256 PUSH0 PUSH2 0x100 EXP DUP2 SLOAD DUP2 PUSH1 0xFF MUL NOT AND SWAP1 DUP4 ISZERO ISZERO MUL OR SWAP1 SSTORE POP JUMPDEST DUP1 DUP1 PUSH2 0x8EC SWAP1 PUSH2 0x17D2 JUMP JUMPDEST SWAP2 POP POP PUSH2 0x77A JUMP JUMPDEST POP POP JUMP JUMPDEST PUSH1 0x5 PUSH0 CALLER PUSH20 0xFFFFFFFFFFFFFFFFFFFFFFFFFFFFFFFFFFFFFFFF AND PUSH20 0xFFFFFFFFFFFFFFFFFFFFFFFFFFFFFFFFFFFFFFFF AND DUP2 MSTORE PUSH1 0x20 ADD SWAP1 DUP2 MSTORE PUSH1 0x20 ADD PUSH0 KECCAK256 PUSH0 SWAP1 SLOAD SWAP1 PUSH2 0x100 EXP SWAP1 DIV PUSH1 0xFF AND PUSH2 0x981 JUMPI PUSH1 0x40 MLOAD PUSH32 0x8C379A000000000000000000000000000000000000000000000000000000000 DUP2 MSTORE PUSH1 0x4 ADD PUSH2 0x978 SWAP1 PUSH2 0x1669 JUMP JUMPDEST PUSH1 0x40 MLOAD DUP1 SWAP2 SUB SWAP1 REVERT JUMPDEST PUSH2 0x992 PUSH1 0x3 PUSH1 0x7 PUSH1 0x6 PUSH0 SLOAD DUP6 PUSH2 0xD09 JUMP JUMPDEST POP JUMP JUMPDEST DUP4 DUP1 SLOAD SWAP1 POP DUP2 LT PUSH2 0x9DB JUMPI PUSH1 0x40 MLOAD PUSH32 0x8C379A000000000000000000000000000000000000000000000000000000000 DUP2 MSTORE PUSH1 0x4 ADD PUSH2 0x9D2 SWAP1 PUSH2 0x1844 JUMP JUMPDEST PUSH1 0x40 MLOAD DUP1 SWAP2 SUB SWAP1 REVERT JUMPDEST DUP4 DUP2 DUP2 SLOAD DUP2 LT PUSH2 0x9EE JUMPI PUSH2 0x9ED PUSH2 0x176C JUMP JUMPDEST JUMPDEST SWAP1 PUSH0 MSTORE PUSH1 0x20 PUSH0 KECCAK256 SWAP1 PUSH1 0x2 MUL ADD PUSH1 0x1 ADD PUSH1 0x14 SWAP1 SLOAD SWAP1 PUSH2 0x100 EXP SWAP1 DIV PUSH1 0xFF AND PUSH2 0xA4A JUMPI PUSH1 0x40 MLOAD PUSH32 0x8C379A000000000000000000000000000000000000000000000000000000000 DUP2 MSTORE PUSH1 0x4 ADD PUSH2 0xA41 SWAP1 PUSH2 0x18AC JUMP JUMPDEST PUSH1 0x40 MLOAD DUP1 SWAP2 SUB SWAP1 REVERT JUMPDEST DUP3 PUSH0 DUP3 DUP2 MSTORE PUSH1 0x20 ADD SWAP1 DUP2 MSTORE PUSH1 0x20 ADD PUSH0 KECCAK256 PUSH0 CALLER PUSH20 0xFFFFFFFFFFFFFFFFFFFFFFFFFFFFFFFFFFFFFFFF AND PUSH20 0xFFFFFFFFFFFFFFFFFFFFFFFFFFFFFFFFFFFFFFFF AND DUP2 MSTORE PUSH1 0x20 ADD SWAP1 DUP2 MSTORE PUSH1 0x20 ADD PUSH0 KECCAK256 PUSH0 SWAP1 SLOAD SWAP1 PUSH2 0x100 EXP SWAP1 DIV PUSH1 0xFF AND PUSH2 0xAE1 JUMPI PUSH1 0x40 MLOAD PUSH32 0x8C379A000000000000000000000000000000000000000000000000000000000 DUP2 MSTORE PUSH1 0x4 ADD PUSH2 0xAD8 SWAP1 PUSH2 0x1914 JUMP JUMPDEST PUSH1 0x40 MLOAD DUP1 SWAP2 SUB SWAP1 REVERT JUMPDEST PUSH0 DUP4 PUSH0 DUP4 DUP2 MSTORE PUSH1 0x20 ADD SWAP1 DUP2 MSTORE PUSH1 0x20 ADD PUSH0 KECCAK256 PUSH0 CALLER PUSH20 0xFFFFFFFFFFFFFFFFFFFFFFFFFFFFFFFFFFFFFFFF AND PUSH20 0xFFFFFFFFFFFFFFFFFFFFFFFFFFFFFFFFFFFFFFFF AND DUP2 MSTORE PUSH1 0x20 ADD SWAP1 DUP2 MSTORE PUSH1 0x20 ADD PUSH0 KECCAK256 PUSH0 PUSH2 0x100 EXP DUP2 SLOAD DUP2 PUSH1 0xFF MUL NOT AND SWAP1 DUP4 ISZERO ISZERO MUL OR SWAP1 SSTORE POP DUP2 PUSH0 DUP3 DUP2 MSTORE PUSH1 0x20 ADD SWAP1 DUP2 MSTORE PUSH1 0x20 ADD PUSH0 KECCAK256 PUSH0 DUP2 SLOAD DUP1 SWAP3 SWAP2 SWAP1 PUSH2 0xB63 SWAP1 PUSH2 0x1932 JUMP JUMPDEST SWAP2 SWAP1 POP SSTORE POP DUP1 CALLER PUSH20 0xFFFFFFFFFFFFFFFFFFFFFFFFFFFFFFFFFFFFFFFF AND PUSH32 0xF0DCA620E2E81F7841D07BCC105E1704FB01475B278A9D4C236E1C62945EDD55 PUSH1 0x40 MLOAD PUSH1 0x40 MLOAD DUP1 SWAP2 SUB SWAP1 LOG3 POP POP POP POP JUMP JUMPDEST DUP4 PUSH1 0x40 MLOAD DUP1 PUSH1 0x80 ADD PUSH1 0x40 MSTORE DUP1 DUP5 DUP2 MSTORE PUSH1 0x20 ADD DUP6 PUSH20 0xFFFFFFFFFFFFFFFFFFFFFFFFFFFFFFFFFFFFFFFF AND DUP2 MSTORE PUSH1 0x20 ADD PUSH0 ISZERO ISZERO DUP2 MSTORE PUSH1 0x20 ADD DUP4 ISZERO ISZERO DUP2 MSTORE POP SWAP1 DUP1 PUSH1 0x1 DUP2 SLOAD ADD DUP1 DUP3 SSTORE DUP1 SWAP2 POP POP PUSH1 0x1 SWAP1 SUB SWAP1 PUSH0 MSTORE PUSH1 0x20 PUSH0 KECCAK256 SWAP1 PUSH1 0x2 MUL ADD PUSH0 SWAP1 SWAP2 SWAP1 SWAP2 SWAP1 SWAP2 POP PUSH0 DUP3 ADD MLOAD DUP2 PUSH0 ADD SWAP1 DUP2 PUSH2 0xC27 SWAP2 SWAP1 PUSH2 0x1AF9 JUMP JUMPDEST POP PUSH1 0x20 DUP3 ADD MLOAD DUP2 PUSH1 0x1 ADD PUSH0 PUSH2 0x100 EXP DUP2 SLOAD DUP2 PUSH20 0xFFFFFFFFFFFFFFFFFFFFFFFFFFFFFFFFFFFFFFFF MUL NOT AND SWAP1 DUP4 PUSH20 0xFFFFFFFFFFFFFFFFFFFFFFFFFFFFFFFFFFFFFFFF AND MUL OR SWAP1 SSTORE POP PUSH1 0x40 DUP3 ADD MLOAD DUP2 PUSH1 0x1 ADD PUSH1 0x14 PUSH2 0x100 EXP DUP2 SLOAD DUP2 PUSH1 0xFF MUL NOT AND SWAP1 DUP4 ISZERO ISZERO MUL OR SWAP1 SSTORE POP PUSH1 0x60 DUP3 ADD MLOAD DUP2 PUSH1 0x1 ADD PUSH1 0x15 PUSH2 0x100 EXP DUP2 SLOAD DUP2 PUSH1 0xFF MUL NOT AND SWAP1 DUP4 ISZERO ISZERO MUL OR SWAP1 SSTORE POP POP POP DUP4 DUP1 SLOAD SWAP1 POP CALLER PUSH20 0xFFFFFFFFFFFFFFFFFFFFFFFFFFFFFFFFFFFFFFFF AND PUSH32 0xEB45F38AD35CF41B4F9BE8CFCCA269EF78EA04216DBC8B8A38F28491C84D005A DUP5 PUSH1 0x40 MLOAD PUSH2 0xCFB SWAP2 SWAP1 PUSH2 0x1C10 JUMP JUMPDEST PUSH1 0x40 MLOAD DUP1 SWAP2 SUB SWAP1 LOG3 POP POP POP POP JUMP JUMPDEST DUP4 PUSH0 DUP3 DUP2 MSTORE PUSH1 0x20 ADD SWAP1 DUP2 MSTORE PUSH1 0x20 ADD PUSH0 KECCAK256 PUSH0 CALLER PUSH20 0xFFFFFFFFFFFFFFFFFFFFFFFFFFFFFFFFFFFFFFFF AND PUSH20 0xFFFFFFFFFFFFFFFFFFFFFFFFFFFFFFFFFFFFFFFF AND DUP2 MSTORE PUSH1 0x20 ADD SWAP1 DUP2 MSTORE PUSH1 0x20 ADD PUSH0 KECCAK256 PUSH0 SWAP1 SLOAD SWAP1 PUSH2 0x100 EXP SWAP1 DIV PUSH1 0xFF AND ISZERO PUSH2 0xDA1 JUMPI PUSH1 0x40 MLOAD PUSH32 0x8C379A000000000000000000000000000000000000000000000000000000000 DUP2 MSTORE PUSH1 0x4 ADD PUSH2 0xD98 SWAP1 PUSH2 0x1C7A JUMP JUMPDEST PUSH1 0x40 MLOAD DUP1 SWAP2 SUB SWAP1 REVERT JUMPDEST PUSH1 0x1 DUP5 PUSH0 DUP4 DUP2 MSTORE PUSH1 0x20 ADD SWAP1 DUP2 MSTORE PUSH1 0x20 ADD PUSH0 KECCAK256 PUSH0 CALLER PUSH20 0xFFFFFFFFFFFFFFFFFFFFFFFFFFFFFFFFFFFFFFFF AND PUSH20 0xFFFFFFFFFFFFFFFFFFFFFFFFFFFFFFFFFFFFFFFF AND DUP2 MSTORE PUSH1 0x20 ADD SWAP1 DUP2 MSTORE PUSH1 0x20 ADD PUSH0 KECCAK256 PUSH0 PUSH2 0x100 EXP DUP2 SLOAD DUP2 PUSH1 0xFF MUL NOT AND SWAP1 DUP4 ISZERO ISZERO MUL OR SWAP1 SSTORE POP DUP3 PUSH0 DUP3 DUP2 MSTORE PUSH1 0x20 ADD SWAP1 DUP2 MSTORE PUSH1 0x20 ADD PUSH0 KECCAK256 PUSH0 DUP2 SLOAD DUP1 SWAP3 SWAP2 SWAP1 PUSH2 0xE24 SWAP1 PUSH2 0x1C98 JUMP JUMPDEST SWAP2 SWAP1 POP SSTORE POP DUP1 CALLER PUSH20 0xFFFFFFFFFFFFFFFFFFFFFFFFFFFFFFFFFFFFFFFF AND PUSH32 0x5CBE105E36805F7820E291F799D5794FF948AF2A5F664E580382DEFB63390041 PUSH1 0x40 MLOAD PUSH1 0x40 MLOAD DUP1 SWAP2 SUB SWAP1 LOG3 DUP2 DUP4 PUSH0 DUP4 DUP2 MSTORE PUSH1 0x20 ADD SWAP1 DUP2 MSTORE PUSH1 0x20 ADD PUSH0 KECCAK256 SLOAD LT PUSH2 0xE8F JUMPI PUSH2 0xE8E DUP6 DUP3 PUSH2 0xE96 JUMP JUMPDEST JUMPDEST POP POP POP POP POP JUMP JUMPDEST DUP2 DUP1 SLOAD SWAP1 POP DUP2 LT PUSH2 0xEDC JUMPI PUSH1 0x40 MLOAD PUSH32 0x8C379A000000000000000000000000000000000000000000000000000000000 DUP2 MSTORE PUSH1 0x4 ADD PUSH2 0xED3 SWAP1 PUSH2 0x1844 JUMP JUMPDEST PUSH1 0x40 MLOAD DUP1 SWAP2 SUB SWAP1 REVERT JUMPDEST DUP2 DUP2 DUP2 SLOAD DUP2 LT PUSH2 0xEEF JUMPI PUSH2 0xEEE PUSH2 0x176C JUMP JUMPDEST JUMPDEST SWAP1 PUSH0 MSTORE PUSH1 0x20 PUSH0 KECCAK256 SWAP1 PUSH1 0x2 MUL ADD PUSH1 0x1 ADD PUSH1 0x14 SWAP1 SLOAD SWAP1 PUSH2 0x100 EXP SWAP1 DIV PUSH1 0xFF AND ISZERO PUSH2 0xF4C JUMPI PUSH1 0x40 MLOAD PUSH32 0x8C379A000000000000000000000000000000000000000000000000000000000 DUP2 MSTORE PUSH1 0x4 ADD PUSH2 0xF43 SWAP1 PUSH2 0x1D29 JUMP JUMPDEST PUSH1 0x40 MLOAD DUP1 SWAP2 SUB SWAP1 REVERT JUMPDEST PUSH0 DUP3 DUP3 DUP2 SLOAD DUP2 LT PUSH2 0xF60 JUMPI PUSH2 0xF5F PUSH2 0x176C JUMP JUMPDEST JUMPDEST SWAP1 PUSH0 MSTORE PUSH1 0x20 PUSH0 KECCAK256 SWAP1 PUSH1 0x2 MUL ADD SWAP1 POP PUSH1 0x1 DUP2 PUSH1 0x1 ADD PUSH1 0x14 PUSH2 0x100 EXP DUP2 SLOAD DUP2 PUSH1 0xFF MUL NOT AND SWAP1 DUP4 ISZERO ISZERO MUL OR SWAP1 SSTORE POP PUSH0 DUP2 PUSH1 0x1 ADD PUSH0 SWAP1 SLOAD SWAP1 PUSH2 0x100 EXP SWAP1 DIV PUSH20 0xFFFFFFFFFFFFFFFFFFFFFFFFFFFFFFFFFFFFFFFF AND PUSH20 0xFFFFFFFFFFFFFFFFFFFFFFFFFFFFFFFFFFFFFFFF AND DUP3 PUSH0 ADD PUSH1 0x40 MLOAD PUSH2 0xFD6 SWAP2 SWAP1 PUSH2 0x1DD1 JUMP JUMPDEST PUSH0 PUSH1 0x40 MLOAD DUP1 DUP4 SUB DUP2 PUSH0 DUP7 GAS CALL SWAP2 POP POP RETURNDATASIZE DUP1 PUSH0 DUP2 EQ PUSH2 0x100F JUMPI PUSH1 0x40 MLOAD SWAP2 POP PUSH1 0x1F NOT PUSH1 0x3F RETURNDATASIZE ADD AND DUP3 ADD PUSH1 0x40 MSTORE RETURNDATASIZE DUP3 MSTORE RETURNDATASIZE PUSH0 PUSH1 0x20 DUP5 ADD RETURNDATACOPY PUSH2 0x1014 JUMP JUMPDEST PUSH1 0x60 SWAP2 POP JUMPDEST POP POP SWAP1 POP DUP1 PUSH2 0x1058 JUMPI PUSH1 0x40 MLOAD PUSH32 0x8C379A000000000000000000000000000000000000000000000000000000000 DUP2 MSTORE PUSH1 0x4 ADD PUSH2 0x104F SWAP1 PUSH2 0x1E31 JUMP JUMPDEST PUSH1 0x40 MLOAD DUP1 SWAP2 SUB SWAP1 REVERT JUMPDEST DUP3 CALLER PUSH20 0xFFFFFFFFFFFFFFFFFFFFFFFFFFFFFFFFFFFFFFFF AND PUSH32 0x5445F318F4F5FCFB66592E68E0CC5822AA15664039BD5F0FFDE24C5A8142B1AC PUSH1 0x40 MLOAD PUSH1 0x40 MLOAD DUP1 SWAP2 SUB SWAP1 LOG3 POP POP POP POP JUMP JUMPDEST PUSH0 PUSH1 0x40 MLOAD SWAP1 POP SWAP1 JUMP JUMPDEST PUSH0 PUSH0 REVERT JUMPDEST PUSH0 PUSH0 REVERT JUMPDEST PUSH0 DUP2 SWAP1 POP SWAP2 SWAP1 POP JUMP JUMPDEST PUSH2 0x10C5 DUP2 PUSH2 0x10B3 JUMP JUMPDEST DUP2 EQ PUSH2 0x10CF JUMPI PUSH0 PUSH0 REVERT JUMPDEST POP JUMP JUMPDEST PUSH0 DUP2 CALLDATALOAD SWAP1 POP PUSH2 0x10E0 DUP2 PUSH2 0x10BC JUMP JUMPDEST SWAP3 SWAP2 POP POP JUMP JUMPDEST PUSH0 PUSH1 0x20 DUP3 DUP5 SUB SLT ISZERO PUSH2 0x10FB JUMPI PUSH2 0x10FA PUSH2 0x10AB JUMP JUMPDEST JUMPDEST PUSH0 PUSH2 0x1108 DUP5 DUP3 DUP6 ADD PUSH2 0x10D2 JUMP JUMPDEST SWAP2 POP POP SWAP3 SWAP2 POP POP JUMP JUMPDEST PUSH0 PUSH20 0xFFFFFFFFFFFFFFFFFFFFFFFFFFFFFFFFFFFFFFFF DUP3 AND SWAP1 POP SWAP2 SWAP1 POP JUMP JUMPDEST PUSH0 PUSH2 0x113A DUP3 PUSH2 0x1111 JUMP JUMPDEST SWAP1 POP SWAP2 SWAP1 POP JUMP JUMPDEST PUSH2 0x114A DUP2 PUSH2 0x1130 JUMP JUMPDEST DUP2 EQ PUSH2 0x1154 JUMPI PUSH0 PUSH0 REVERT JUMPDEST POP JUMP JUMPDEST PUSH0 DUP2 CALLDATALOAD SWAP1 POP PUSH2 0x1165 DUP2 PUSH2 0x1141 JUMP JUMPDEST SWAP3 SWAP2 POP POP JUMP JUMPDEST PUSH0 PUSH1 0x20 DUP3 DUP5 SUB SLT ISZERO PUSH2 0x1180 JUMPI PUSH2 0x117F PUSH2 0x10AB JUMP JUMPDEST JUMPDEST PUSH0 PUSH2 0x118D DUP5 DUP3 DUP6 ADD PUSH2 0x1157 JUMP JUMPDEST SWAP2 POP POP SWAP3 SWAP2 POP POP JUMP JUMPDEST PUSH2 0x119F DUP2 PUSH2 0x10B3 JUMP JUMPDEST DUP3 MSTORE POP POP JUMP JUMPDEST PUSH0 PUSH1 0x20 DUP3 ADD SWAP1 POP PUSH2 0x11B8 PUSH0 DUP4 ADD DUP5 PUSH2 0x1196 JUMP JUMPDEST SWAP3 SWAP2 POP POP JUMP JUMPDEST PUSH0 DUP2 MLOAD SWAP1 POP SWAP2 SWAP1 POP JUMP JUMPDEST PUSH0 DUP3 DUP3 MSTORE PUSH1 0x20 DUP3 ADD SWAP1 POP SWAP3 SWAP2 POP POP JUMP JUMPDEST PUSH0 DUP2 SWAP1 POP PUSH1 0x20 DUP3 ADD SWAP1 POP SWAP2 SWAP1 POP JUMP JUMPDEST PUSH0 DUP2 MLOAD SWAP1 POP SWAP2 SWAP1 POP JUMP JUMPDEST PUSH0 DUP3 DUP3 MSTORE PUSH1 0x20 DUP3 ADD SWAP1 POP SWAP3 SWAP2 POP POP JUMP JUMPDEST DUP3 DUP2 DUP4 MCOPY PUSH0 DUP4 DUP4 ADD MSTORE POP POP POP JUMP JUMPDEST PUSH0 PUSH1 0x1F NOT PUSH1 0x1F DUP4 ADD AND SWAP1 POP SWAP2 SWAP1 POP JUMP JUMPDEST PUSH0 PUSH2 0x1229 DUP3 PUSH2 0x11E7 JUMP JUMPDEST PUSH2 0x1233 DUP2 DUP6 PUSH2 0x11F1 JUMP JUMPDEST SWAP4 POP PUSH2 0x1243 DUP2 DUP6 PUSH1 0x20 DUP7 ADD PUSH2 0x1201 JUMP JUMPDEST PUSH2 0x124C DUP2 PUSH2 0x120F JUMP JUMPDEST DUP5 ADD SWAP2 POP POP SWAP3 SWAP2 POP POP JUMP JUMPDEST PUSH2 0x1260 DUP2 PUSH2 0x1130 JUMP JUMPDEST DUP3 MSTORE POP POP JUMP JUMPDEST PUSH0 DUP2 ISZERO ISZERO SWAP1 POP SWAP2 SWAP1 POP JUMP JUMPDEST PUSH2 0x127A DUP2 PUSH2 0x1266 JUMP JUMPDEST DUP3 MSTORE POP POP JUMP JUMPDEST PUSH0 PUSH1 0x80 DUP4 ADD PUSH0 DUP4 ADD MLOAD DUP5 DUP3 SUB PUSH0 DUP7 ADD MSTORE PUSH2 0x129A DUP3 DUP3 PUSH2 0x121F JUMP JUMPDEST SWAP2 POP POP PUSH1 0x20 DUP4 ADD MLOAD PUSH2 0x12AF PUSH1 0x20 DUP7 ADD DUP3 PUSH2 0x1257 JUMP JUMPDEST POP PUSH1 0x40 DUP4 ADD MLOAD PUSH2 0x12C2 PUSH1 0x40 DUP7 ADD DUP3 PUSH2 0x1271 JUMP JUMPDEST POP PUSH1 0x60 DUP4 ADD MLOAD PUSH2 0x12D5 PUSH1 0x60 DUP7 ADD DUP3 PUSH2 0x1271 JUMP JUMPDEST POP DUP1 SWAP2 POP POP SWAP3 SWAP2 POP POP JUMP JUMPDEST PUSH0 PUSH2 0x12EB DUP4 DUP4 PUSH2 0x1280 JUMP JUMPDEST SWAP1 POP SWAP3 SWAP2 POP POP JUMP JUMPDEST PUSH0 PUSH1 0x20 DUP3 ADD SWAP1 POP SWAP2 SWAP1 POP JUMP JUMPDEST PUSH0 PUSH2 0x1309 DUP3 PUSH2 0x11BE JUMP JUMPDEST PUSH2 0x1313 DUP2 DUP6 PUSH2 0x11C8 JUMP JUMPDEST SWAP4 POP DUP4 PUSH1 0x20 DUP3 MUL DUP6 ADD PUSH2 0x1325 DUP6 PUSH2 0x11D8 JUMP JUMPDEST DUP1 PUSH0 JUMPDEST DUP6 DUP2 LT ISZERO PUSH2 0x1360 JUMPI DUP5 DUP5 SUB DUP10 MSTORE DUP2 MLOAD PUSH2 0x1341 DUP6 DUP3 PUSH2 0x12E0 JUMP JUMPDEST SWAP5 POP PUSH2 0x134C DUP4 PUSH2 0x12F3 JUMP JUMPDEST SWAP3 POP PUSH1 0x20 DUP11 ADD SWAP10 POP POP PUSH1 0x1 DUP2 ADD SWAP1 POP PUSH2 0x1328 JUMP JUMPDEST POP DUP3 SWAP8 POP DUP8 SWAP6 POP POP POP POP POP POP SWAP3 SWAP2 POP POP JUMP JUMPDEST PUSH0 PUSH1 0x20 DUP3 ADD SWAP1 POP DUP2 DUP2 SUB PUSH0 DUP4 ADD MSTORE PUSH2 0x138A DUP2 DUP5 PUSH2 0x12FF JUMP JUMPDEST SWAP1 POP SWAP3 SWAP2 POP POP JUMP JUMPDEST PUSH0 PUSH0 REVERT JUMPDEST PUSH32 0x4E487B7100000000000000000000000000000000000000000000000000000000 PUSH0 MSTORE PUSH1 0x41 PUSH1 0x4 MSTORE PUSH1 0x24 PUSH0 REVERT JUMPDEST PUSH2 0x13CC DUP3 PUSH2 0x120F JUMP JUMPDEST DUP2 ADD DUP2 DUP2 LT PUSH8 0xFFFFFFFFFFFFFFFF DUP3 GT OR ISZERO PUSH2 0x13EB JUMPI PUSH2 0x13EA PUSH2 0x1396 JUMP JUMPDEST JUMPDEST DUP1 PUSH1 0x40 MSTORE POP POP POP JUMP JUMPDEST PUSH0 PUSH2 0x13FD PUSH2 0x10A2 JUMP JUMPDEST SWAP1 POP PUSH2 0x1409 DUP3 DUP3 PUSH2 0x13C3 JUMP JUMPDEST SWAP2 SWAP1 POP JUMP JUMPDEST PUSH0 PUSH8 0xFFFFFFFFFFFFFFFF DUP3 GT ISZERO PUSH2 0x1428 JUMPI PUSH2 0x1427 PUSH2 0x1396 JUMP JUMPDEST JUMPDEST PUSH1 0x20 DUP3 MUL SWAP1 POP PUSH1 0x20 DUP2 ADD SWAP1 POP SWAP2 SWAP1 POP JUMP JUMPDEST PUSH0 PUSH0 REVERT JUMPDEST PUSH0 PUSH2 0x144F PUSH2 0x144A DUP5 PUSH2 0x140E JUMP JUMPDEST PUSH2 0x13F4 JUMP JUMPDEST SWAP1 POP DUP1 DUP4 DUP3 MSTORE PUSH1 0x20 DUP3 ADD SWAP1 POP PUSH1 0x20 DUP5 MUL DUP4 ADD DUP6 DUP2 GT ISZERO PUSH2 0x1472 JUMPI PUSH2 0x1471 PUSH2 0x1439 JUMP JUMPDEST JUMPDEST DUP4 JUMPDEST DUP2 DUP2 LT ISZERO PUSH2 0x149B JUMPI DUP1 PUSH2 0x1487 DUP9 DUP3 PUSH2 0x1157 JUMP JUMPDEST DUP5 MSTORE PUSH1 0x20 DUP5 ADD SWAP4 POP POP PUSH1 0x20 DUP2 ADD SWAP1 POP PUSH2 0x1474 JUMP JUMPDEST POP POP POP SWAP4 SWAP3 POP POP POP JUMP JUMPDEST PUSH0 DUP3 PUSH1 0x1F DUP4 ADD SLT PUSH2 0x14B9 JUMPI PUSH2 0x14B8 PUSH2 0x1392 JUMP JUMPDEST JUMPDEST DUP2 CALLDATALOAD PUSH2 0x14C9 DUP5 DUP3 PUSH1 0x20 DUP7 ADD PUSH2 0x143D JUMP JUMPDEST SWAP2 POP POP SWAP3 SWAP2 POP POP JUMP JUMPDEST PUSH0 PUSH1 0x20 DUP3 DUP5 SUB SLT ISZERO PUSH2 0x14E7 JUMPI PUSH2 0x14E6 PUSH2 0x10AB JUMP JUMPDEST JUMPDEST PUSH0 DUP3 ADD CALLDATALOAD PUSH8 0xFFFFFFFFFFFFFFFF DUP2 GT ISZERO PUSH2 0x1504 JUMPI PUSH2 0x1503 PUSH2 0x10AF JUMP JUMPDEST JUMPDEST PUSH2 0x1510 DUP5 DUP3 DUP6 ADD PUSH2 0x14A5 JUMP JUMPDEST SWAP2 POP POP SWAP3 SWAP2 POP POP JUMP JUMPDEST PUSH0 DUP3 DUP3 MSTORE PUSH1 0x20 DUP3 ADD SWAP1 POP SWAP3 SWAP2 POP POP JUMP JUMPDEST PUSH32 0x4F6E6C7920746865206F776E65722063616E2075736500000000000000000000 PUSH0 DUP3 ADD MSTORE POP JUMP JUMPDEST PUSH0 PUSH2 0x155D PUSH1 0x16 DUP4 PUSH2 0x1519 JUMP JUMPDEST SWAP2 POP PUSH2 0x1568 DUP3 PUSH2 0x1529 JUMP JUMPDEST PUSH1 0x20 DUP3 ADD SWAP1 POP SWAP2 SWAP1 POP JUMP JUMPDEST PUSH0 PUSH1 0x20 DUP3 ADD SWAP1 POP DUP2 DUP2 SUB PUSH0 DUP4 ADD MSTORE PUSH2 0x158A DUP2 PUSH2 0x1551 JUMP JUMPDEST SWAP1 POP SWAP2 SWAP1 POP JUMP JUMPDEST PUSH32 0x7265717569726564206E756D626572206D757374203E3D2031206F72203C3D20 PUSH0 DUP3 ADD MSTORE PUSH32 0x636F6E74726F6C6C6572206D656D6265722E0000000000000000000000000000 PUSH1 0x20 DUP3 ADD MSTORE POP JUMP JUMPDEST PUSH0 PUSH2 0x15EB PUSH1 0x32 DUP4 PUSH2 0x1519 JUMP JUMPDEST SWAP2 POP PUSH2 0x15F6 DUP3 PUSH2 0x1591 JUMP JUMPDEST PUSH1 0x40 DUP3 ADD SWAP1 POP SWAP2 SWAP1 POP JUMP JUMPDEST PUSH0 PUSH1 0x20 DUP3 ADD SWAP1 POP DUP2 DUP2 SUB PUSH0 DUP4 ADD MSTORE PUSH2 0x1618 DUP2 PUSH2 0x15DF JUMP JUMPDEST SWAP1 POP SWAP2 SWAP1 POP JUMP JUMPDEST PUSH32 0x4F6E6C79207468652061646D696E6973747261746F722063616E207573650000 PUSH0 DUP3 ADD MSTORE POP JUMP JUMPDEST PUSH0 PUSH2 0x1653 PUSH1 0x1E DUP4 PUSH2 0x1519 JUMP JUMPDEST SWAP2 POP PUSH2 0x165E DUP3 PUSH2 0x161F JUMP JUMPDEST PUSH1 0x20 DUP3 ADD SWAP1 POP SWAP2 SWAP1 POP JUMP JUMPDEST PUSH0 PUSH1 0x20 DUP3 ADD SWAP1 POP DUP2 DUP2 SUB PUSH0 DUP4 ADD MSTORE PUSH2 0x1680 DUP2 PUSH2 0x1647 JUMP JUMPDEST SWAP1 POP SWAP2 SWAP1 POP JUMP JUMPDEST PUSH2 0x1690 DUP2 PUSH2 0x1130 JUMP JUMPDEST DUP3 MSTORE POP POP JUMP JUMPDEST PUSH0 PUSH1 0x20 DUP3 ADD SWAP1 POP PUSH2 0x16A9 PUSH0 DUP4 ADD DUP5 PUSH2 0x1687 JUMP JUMPDEST SWAP3 SWAP2 POP POP JUMP JUMPDEST PUSH32 0x4E487B7100000000000000000000000000000000000000000000000000000000 PUSH0 MSTORE PUSH1 0x22 PUSH1 0x4 MSTORE PUSH1 0x24 PUSH0 REVERT JUMPDEST PUSH0 PUSH1 0x2 DUP3 DIV SWAP1 POP PUSH1 0x1 DUP3 AND DUP1 PUSH2 0x16F3 JUMPI PUSH1 0x7F DUP3 AND SWAP2 POP JUMPDEST PUSH1 0x20 DUP3 LT DUP2 SUB PUSH2 0x1706 JUMPI PUSH2 0x1705 PUSH2 0x16AF JUMP JUMPDEST JUMPDEST POP SWAP2 SWAP1 POP JUMP JUMPDEST PUSH32 0x4E487B7100000000000000000000000000000000000000000000000000000000 PUSH0 MSTORE PUSH1 0x11 PUSH1 0x4 MSTORE PUSH1 0x24 PUSH0 REVERT JUMPDEST PUSH0 PUSH2 0x1743 DUP3 PUSH2 0x10B3 JUMP JUMPDEST SWAP2 POP PUSH2 0x174E DUP4 PUSH2 0x10B3 JUMP JUMPDEST SWAP3 POP DUP3 DUP3 SUB SWAP1 POP DUP2 DUP2 GT ISZERO PUSH2 0x1766 JUMPI PUSH2 0x1765 PUSH2 0x170C JUMP JUMPDEST JUMPDEST SWAP3 SWAP2 POP POP JUMP JUMPDEST PUSH32 0x4E487B7100000000000000000000000000000000000000000000000000000000 PUSH0 MSTORE PUSH1 0x32 PUSH1 0x4 MSTORE PUSH1 0x24 PUSH0 REVERT JUMPDEST PUSH32 0x4E487B7100000000000000000000000000000000000000000000000000000000 PUSH0 MSTORE PUSH1 0x31 PUSH1 0x4 MSTORE PUSH1 0x24 PUSH0 REVERT JUMPDEST PUSH0 PUSH1 0xFF DUP3 AND SWAP1 POP SWAP2 SWAP1 POP JUMP JUMPDEST PUSH0 PUSH2 0x17DC DUP3 PUSH2 0x17C6 JUMP JUMPDEST SWAP2 POP PUSH1 0xFF DUP3 SUB PUSH2 0x17EF JUMPI PUSH2 0x17EE PUSH2 0x170C JUMP JUMPDEST JUMPDEST PUSH1 0x1 DUP3 ADD SWAP1 POP SWAP2 SWAP1 POP JUMP JUMPDEST PUSH32 0x496E76616C6964207472616E73616374696F6E20696E64657800000000000000 PUSH0 DUP3 ADD MSTORE POP JUMP JUMPDEST PUSH0 PUSH2 0x182E PUSH1 0x19 DUP4 PUSH2 0x1519 JUMP JUMPDEST SWAP2 POP PUSH2 0x1839 DUP3 PUSH2 0x17FA JUMP JUMPDEST PUSH1 0x20 DUP3 ADD SWAP1 POP SWAP2 SWAP1 POP JUMP JUMPDEST PUSH0 PUSH1 0x20 DUP3 ADD SWAP1 POP DUP2 DUP2 SUB PUSH0 DUP4 ADD MSTORE PUSH2 0x185B DUP2 PUSH2 0x1822 JUMP JUMPDEST SWAP1 POP SWAP2 SWAP1 POP JUMP JUMPDEST PUSH32 0x5472616E73616374696F6E206E6F742065786563757465640000000000000000 PUSH0 DUP3 ADD MSTORE POP JUMP JUMPDEST PUSH0 PUSH2 0x1896 PUSH1 0x18 DUP4 PUSH2 0x1519 JUMP JUMPDEST SWAP2 POP PUSH2 0x18A1 DUP3 PUSH2 0x1862 JUMP JUMPDEST PUSH1 0x20 DUP3 ADD SWAP1 POP SWAP2 SWAP1 POP JUMP JUMPDEST PUSH0 PUSH1 0x20 DUP3 ADD SWAP1 POP DUP2 DUP2 SUB PUSH0 DUP4 ADD MSTORE PUSH2 0x18C3 DUP2 PUSH2 0x188A JUMP JUMPDEST SWAP1 POP SWAP2 SWAP1 POP JUMP JUMPDEST PUSH32 0x5472616E73616374696F6E206E6F7420636F6E6669726D656400000000000000 PUSH0 DUP3 ADD MSTORE POP JUMP JUMPDEST PUSH0 PUSH2 0x18FE PUSH1 0x19 DUP4 PUSH2 0x1519 JUMP JUMPDEST SWAP2 POP PUSH2 0x1909 DUP3 PUSH2 0x18CA JUMP JUMPDEST PUSH1 0x20 DUP3 ADD SWAP1 POP SWAP2 SWAP1 POP JUMP JUMPDEST PUSH0 PUSH1 0x20 DUP3 ADD SWAP1 POP DUP2 DUP2 SUB PUSH0 DUP4 ADD MSTORE PUSH2 0x192B DUP2 PUSH2 0x18F2 JUMP JUMPDEST SWAP1 POP SWAP2 SWAP1 POP JUMP JUMPDEST PUSH0 PUSH2 0x193C DUP3 PUSH2 0x10B3 JUMP JUMPDEST SWAP2 POP PUSH0 DUP3 SUB PUSH2 0x194E JUMPI PUSH2 0x194D PUSH2 0x170C JUMP JUMPDEST JUMPDEST PUSH1 0x1 DUP3 SUB SWAP1 POP SWAP2 SWAP1 POP JUMP JUMPDEST PUSH0 DUP2 SWAP1 POP DUP2 PUSH0 MSTORE PUSH1 0x20 PUSH0 KECCAK256 SWAP1 POP SWAP2 SWAP1 POP JUMP JUMPDEST PUSH0 PUSH1 0x20 PUSH1 0x1F DUP4 ADD DIV SWAP1 POP SWAP2 SWAP1 POP JUMP JUMPDEST PUSH0 DUP3 DUP3 SHL SWAP1 POP SWAP3 SWAP2 POP POP JUMP JUMPDEST PUSH0 PUSH1 0x8 DUP4 MUL PUSH2 0x19B5 PUSH32 0xFFFFFFFFFFFFFFFFFFFFFFFFFFFFFFFFFFFFFFFFFFFFFFFFFFFFFFFFFFFFFFFF DUP3 PUSH2 0x197A JUMP JUMPDEST PUSH2 0x19BF DUP7 DUP4 PUSH2 0x197A JUMP JUMPDEST SWAP6 POP DUP1 NOT DUP5 AND SWAP4 POP DUP1 DUP7 AND DUP5 OR SWAP3 POP POP POP SWAP4 SWAP3 POP POP POP JUMP JUMPDEST PUSH0 DUP2 SWAP1 POP SWAP2 SWAP1 POP JUMP JUMPDEST PUSH0 PUSH2 0x19FA PUSH2 0x19F5 PUSH2 0x19F0 DUP5 PUSH2 0x10B3 JUMP JUMPDEST PUSH2 0x19D7 JUMP JUMPDEST PUSH2 0x10B3 JUMP JUMPDEST SWAP1 POP SWAP2 SWAP1 POP JUMP JUMPDEST PUSH0 DUP2 SWAP1 POP SWAP2 SWAP1 POP JUMP JUMPDEST PUSH2 0x1A13 DUP4 PUSH2 0x19E0 JUMP JUMPDEST PUSH2 0x1A27 PUSH2 0x1A1F DUP3 PUSH2 0x1A01 JUMP JUMPDEST DUP5 DUP5 SLOAD PUSH2 0x1986 JUMP JUMPDEST DUP3 SSTORE POP POP POP POP JUMP JUMPDEST PUSH0 PUSH0 SWAP1 POP SWAP1 JUMP JUMPDEST PUSH2 0x1A3E PUSH2 0x1A2F JUMP JUMPDEST PUSH2 0x1A49 DUP2 DUP5 DUP5 PUSH2 0x1A0A JUMP JUMPDEST POP POP POP JUMP JUMPDEST JUMPDEST DUP2 DUP2 LT ISZERO PUSH2 0x1A6C JUMPI PUSH2 0x1A61 PUSH0 DUP3 PUSH2 0x1A36 JUMP JUMPDEST PUSH1 0x1 DUP2 ADD SWAP1 POP PUSH2 0x1A4F JUMP JUMPDEST POP POP JUMP JUMPDEST PUSH1 0x1F DUP3 GT ISZERO PUSH2 0x1AB1 JUMPI PUSH2 0x1A82 DUP2 PUSH2 0x1959 JUMP JUMPDEST PUSH2 0x1A8B DUP5 PUSH2 0x196B JUMP JUMPDEST DUP2 ADD PUSH1 0x20 DUP6 LT ISZERO PUSH2 0x1A9A JUMPI DUP2 SWAP1 POP JUMPDEST PUSH2 0x1AAE PUSH2 0x1AA6 DUP6 PUSH2 0x196B JUMP JUMPDEST DUP4 ADD DUP3 PUSH2 0x1A4E JUMP JUMPDEST POP POP JUMPDEST POP POP POP JUMP JUMPDEST PUSH0 DUP3 DUP3 SHR SWAP1 POP SWAP3 SWAP2 POP POP JUMP JUMPDEST PUSH0 PUSH2 0x1AD1 PUSH0 NOT DUP5 PUSH1 0x8 MUL PUSH2 0x1AB6 JUMP JUMPDEST NOT DUP1 DUP4 AND SWAP2 POP POP SWAP3 SWAP2 POP POP JUMP JUMPDEST PUSH0 PUSH2 0x1AE9 DUP4 DUP4 PUSH2 0x1AC2 JUMP JUMPDEST SWAP2 POP DUP3 PUSH1 0x2 MUL DUP3 OR SWAP1 POP SWAP3 SWAP2 POP POP JUMP JUMPDEST PUSH2 0x1B02 DUP3 PUSH2 0x11E7 JUMP JUMPDEST PUSH8 0xFFFFFFFFFFFFFFFF DUP2 GT ISZERO PUSH2 0x1B1B JUMPI PUSH2 0x1B1A PUSH2 0x1396 JUMP JUMPDEST JUMPDEST PUSH2 0x1B25 DUP3 SLOAD PUSH2 0x16DC JUMP JUMPDEST PUSH2 0x1B30 DUP3 DUP3 DUP6 PUSH2 0x1A70 JUMP JUMPDEST PUSH0 PUSH1 0x20 SWAP1 POP PUSH1 0x1F DUP4 GT PUSH1 0x1 DUP2 EQ PUSH2 0x1B61 JUMPI PUSH0 DUP5 ISZERO PUSH2 0x1B4F JUMPI DUP3 DUP8 ADD MLOAD SWAP1 POP JUMPDEST PUSH2 0x1B59 DUP6 DUP3 PUSH2 0x1ADE JUMP JUMPDEST DUP7 SSTORE POP PUSH2 0x1BC0 JUMP JUMPDEST PUSH1 0x1F NOT DUP5 AND PUSH2 0x1B6F DUP7 PUSH2 0x1959 JUMP JUMPDEST PUSH0 JUMPDEST DUP3 DUP2 LT ISZERO PUSH2 0x1B96 JUMPI DUP5 DUP10 ADD MLOAD DUP3 SSTORE PUSH1 0x1 DUP3 ADD SWAP2 POP PUSH1 0x20 DUP6 ADD SWAP5 POP PUSH1 0x20 DUP2 ADD SWAP1 POP PUSH2 0x1B71 JUMP JUMPDEST DUP7 DUP4 LT ISZERO PUSH2 0x1BB3 JUMPI DUP5 DUP10 ADD MLOAD PUSH2 0x1BAF PUSH1 0x1F DUP10 AND DUP3 PUSH2 0x1AC2 JUMP JUMPDEST DUP4 SSTORE POP JUMPDEST PUSH1 0x1 PUSH1 0x2 DUP9 MUL ADD DUP9 SSTORE POP POP POP JUMPDEST POP POP POP POP POP POP JUMP JUMPDEST PUSH0 DUP3 DUP3 MSTORE PUSH1 0x20 DUP3 ADD SWAP1 POP SWAP3 SWAP2 POP POP JUMP JUMPDEST PUSH0 PUSH2 0x1BE2 DUP3 PUSH2 0x11E7 JUMP JUMPDEST PUSH2 0x1BEC DUP2 DUP6 PUSH2 0x1BC8 JUMP JUMPDEST SWAP4 POP PUSH2 0x1BFC DUP2 DUP6 PUSH1 0x20 DUP7 ADD PUSH2 0x1201 JUMP JUMPDEST PUSH2 0x1C05 DUP2 PUSH2 0x120F JUMP JUMPDEST DUP5 ADD SWAP2 POP POP SWAP3 SWAP2 POP POP JUMP JUMPDEST PUSH0 PUSH1 0x20 DUP3 ADD SWAP1 POP DUP2 DUP2 SUB PUSH0 DUP4 ADD MSTORE PUSH2 0x1C28 DUP2 DUP5 PUSH2 0x1BD8 JUMP JUMPDEST SWAP1 POP SWAP3 SWAP2 POP POP JUMP JUMPDEST PUSH32 0x5472616E73616374696F6E20616C726561647920636F6E6669726D6564000000 PUSH0 DUP3 ADD MSTORE POP JUMP JUMPDEST PUSH0 PUSH2 0x1C64 PUSH1 0x1D DUP4 PUSH2 0x1519 JUMP JUMPDEST SWAP2 POP PUSH2 0x1C6F DUP3 PUSH2 0x1C30 JUMP JUMPDEST PUSH1 0x20 DUP3 ADD SWAP1 POP SWAP2 SWAP1 POP JUMP JUMPDEST PUSH0 PUSH1 0x20 DUP3 ADD SWAP1 POP DUP2 DUP2 SUB PUSH0 DUP4 ADD MSTORE PUSH2 0x1C91 DUP2 PUSH2 0x1C58 JUMP JUMPDEST SWAP1 POP SWAP2 SWAP1 POP JUMP JUMPDEST PUSH0 PUSH2 0x1CA2 DUP3 PUSH2 0x10B3 JUMP JUMPDEST SWAP2 POP PUSH32 0xFFFFFFFFFFFFFFFFFFFFFFFFFFFFFFFFFFFFFFFFFFFFFFFFFFFFFFFFFFFFFFFF DUP3 SUB PUSH2 0x1CD4 JUMPI PUSH2 0x1CD3 PUSH2 0x170C JUMP JUMPDEST JUMPDEST PUSH1 0x1 DUP3 ADD SWAP1 POP SWAP2 SWAP1 POP JUMP JUMPDEST PUSH32 0x5472616E73616374696F6E20616C726561647920657865637574656400000000 PUSH0 DUP3 ADD MSTORE POP JUMP JUMPDEST PUSH0 PUSH2 0x1D13 PUSH1 0x1C DUP4 PUSH2 0x1519 JUMP JUMPDEST SWAP2 POP PUSH2 0x1D1E DUP3 PUSH2 0x1CDF JUMP JUMPDEST PUSH1 0x20 DUP3 ADD SWAP1 POP SWAP2 SWAP1 POP JUMP JUMPDEST PUSH0 PUSH1 0x20 DUP3 ADD SWAP1 POP DUP2 DUP2 SUB PUSH0 DUP4 ADD MSTORE PUSH2 0x1D40 DUP2 PUSH2 0x1D07 JUMP JUMPDEST SWAP1 POP SWAP2 SWAP1 POP JUMP JUMPDEST PUSH0 DUP2 SWAP1 POP SWAP3 SWAP2 POP POP JUMP JUMPDEST PUSH0 DUP2 SLOAD PUSH2 0x1D5D DUP2 PUSH2 0x16DC JUMP JUMPDEST PUSH2 0x1D67 DUP2 DUP7 PUSH2 0x1D47 JUMP JUMPDEST SWAP5 POP PUSH1 0x1 DUP3 AND PUSH0 DUP2 EQ PUSH2 0x1D81 JUMPI PUSH1 0x1 DUP2 EQ PUSH2 0x1D96 JUMPI PUSH2 0x1DC8 JUMP JUMPDEST PUSH1 0xFF NOT DUP4 AND DUP7 MSTORE DUP2 ISZERO ISZERO DUP3 MUL DUP7 ADD SWAP4 POP PUSH2 0x1DC8 JUMP JUMPDEST PUSH2 0x1D9F DUP6 PUSH2 0x1959 JUMP JUMPDEST PUSH0 JUMPDEST DUP4 DUP2 LT ISZERO PUSH2 0x1DC0 JUMPI DUP2 SLOAD DUP2 DUP10 ADD MSTORE PUSH1 0x1 DUP3 ADD SWAP2 POP PUSH1 0x20 DUP2 ADD SWAP1 POP PUSH2 0x1DA1 JUMP JUMPDEST DUP4 DUP9 ADD SWAP6 POP POP POP JUMPDEST POP POP POP SWAP3 SWAP2 POP POP JUMP JUMPDEST PUSH0 PUSH2 0x1DDC DUP3 DUP5 PUSH2 0x1D51 JUMP JUMPDEST SWAP2 POP DUP2 SWAP1 POP SWAP3 SWAP2 POP POP JUMP JUMPDEST PUSH32 0x5472616E73616374696F6E20657865637574696F6E206661696C656400000000 PUSH0 DUP3 ADD MSTORE POP JUMP JUMPDEST PUSH0 PUSH2 0x1E1B PUSH1 0x1C DUP4 PUSH2 0x1519 JUMP JUMPDEST SWAP2 POP PUSH2 0x1E26 DUP3 PUSH2 0x1DE7 JUMP JUMPDEST PUSH1 0x20 DUP3 ADD SWAP1 POP SWAP2 SWAP1 POP JUMP JUMPDEST PUSH0 PUSH1 0x20 DUP3 ADD SWAP1 POP DUP2 DUP2 SUB PUSH0 DUP4 ADD MSTORE PUSH2 0x1E48 DUP2 PUSH2 0x1E0F JUMP JUMPDEST SWAP1 POP SWAP2 SWAP1 POP JUMP INVALID LOG2 PUSH5 0x6970667358 0x22 SLT KECCAK256 PUSH14 0x4797CBA6C40DBF9555DBD59CE254 REVERT 0x4D 0xBB POP DUP4 PUSH11 0xBBBFBD26D18B9DD7C79ED5 PUSH5 0x736F6C6343 STOP ADDMOD SHL STOP CALLER "
				},
				"gasEstimates": {
					"creation": {
						"codeDepositCost": "1562600",
						"executionCost": "infinite",
						"totalCost": "infinite"
					},
					"external": {
						"commitSetOwner(address)": "infinite",
						"confirmTransaction(uint256)": "infinite",
						"getTransactions()": "infinite",
						"revokeConfirmation(uint256)": "infinite",
						"setAdministrators(address[])": "infinite",
						"setConfirmationsRequired(uint256)": "26899"
					}
				},
				"methodIdentifiers": {
					"commitSetOwner(address)": "838cbe52",
					"confirmTransaction(uint256)": "c01a8c84",
					"getTransactions()": "83920e90",
					"revokeConfirmation(uint256)": "20ea8d86",
					"setAdministrators(address[])": "b4ce7d45",
					"setConfirmationsRequired(uint256)": "0a57dfb8"
				}
			},
			"storageLayout": {
				"storage": [
					{
						"astId": 28,
						"contract": "contracts/Controller.sol:Controller",
						"label": "numConfirmationsRequired",
						"offset": 0,
						"slot": "0",
						"type": "t_uint256"
					},
					{
						"astId": 30,
						"contract": "contracts/Controller.sol:Controller",
						"label": "marketAddress",
						"offset": 0,
						"slot": "1",
						"type": "t_address"
					},
					{
						"astId": 33,
						"contract": "contracts/Controller.sol:Controller",
						"label": "administrators",
						"offset": 0,
						"slot": "2",
						"type": "t_array(t_address)dyn_storage"
					},
					{
						"astId": 37,
						"contract": "contracts/Controller.sol:Controller",
						"label": "transactions",
						"offset": 0,
						"slot": "3",
						"type": "t_array(t_struct(Transaction)311_storage)dyn_storage"
					},
					{
						"astId": 41,
						"contract": "contracts/Controller.sol:Controller",
						"label": "isOwner",
						"offset": 0,
						"slot": "4",
						"type": "t_mapping(t_address,t_bool)"
					},
					{
						"astId": 45,
						"contract": "contracts/Controller.sol:Controller",
						"label": "isAdministrator",
						"offset": 0,
						"slot": "5",
						"type": "t_mapping(t_address,t_bool)"
					},
					{
						"astId": 49,
						"contract": "contracts/Controller.sol:Controller",
						"label": "numConfirmations",
						"offset": 0,
						"slot": "6",
						"type": "t_mapping(t_uint256,t_uint256)"
					},
					{
						"astId": 55,
						"contract": "contracts/Controller.sol:Controller",
						"label": "isConfirmed",
						"offset": 0,
						"slot": "7",
						"type": "t_mapping(t_uint256,t_mapping(t_address,t_bool))"
					}
				],
				"types": {
					"t_address": {
						"encoding": "inplace",
						"label": "address",
						"numberOfBytes": "20"
					},
					"t_array(t_address)dyn_storage": {
						"base": "t_address",
						"encoding": "dynamic_array",
						"label": "address[]",
						"numberOfBytes": "32"
					},
					"t_array(t_struct(Transaction)311_storage)dyn_storage": {
						"base": "t_struct(Transaction)311_storage",
						"encoding": "dynamic_array",
						"label": "struct MultiSig.Transaction[]",
						"numberOfBytes": "32"
					},
					"t_bool": {
						"encoding": "inplace",
						"label": "bool",
						"numberOfBytes": "1"
					},
					"t_bytes_storage": {
						"encoding": "bytes",
						"label": "bytes",
						"numberOfBytes": "32"
					},
					"t_mapping(t_address,t_bool)": {
						"encoding": "mapping",
						"key": "t_address",
						"label": "mapping(address => bool)",
						"numberOfBytes": "32",
						"value": "t_bool"
					},
					"t_mapping(t_uint256,t_mapping(t_address,t_bool))": {
						"encoding": "mapping",
						"key": "t_uint256",
						"label": "mapping(uint256 => mapping(address => bool))",
						"numberOfBytes": "32",
						"value": "t_mapping(t_address,t_bool)"
					},
					"t_mapping(t_uint256,t_uint256)": {
						"encoding": "mapping",
						"key": "t_uint256",
						"label": "mapping(uint256 => uint256)",
						"numberOfBytes": "32",
						"value": "t_uint256"
					},
					"t_struct(Transaction)311_storage": {
						"encoding": "inplace",
						"label": "struct MultiSig.Transaction",
						"members": [
							{
								"astId": 304,
								"contract": "contracts/Controller.sol:Controller",
								"label": "data",
								"offset": 0,
								"slot": "0",
								"type": "t_bytes_storage"
							},
							{
								"astId": 306,
								"contract": "contracts/Controller.sol:Controller",
								"label": "to",
								"offset": 0,
								"slot": "1",
								"type": "t_address"
							},
							{
								"astId": 308,
								"contract": "contracts/Controller.sol:Controller",
								"label": "executed",
								"offset": 20,
								"slot": "1",
								"type": "t_bool"
							},
							{
								"astId": 310,
								"contract": "contracts/Controller.sol:Controller",
								"label": "multi",
								"offset": 21,
								"slot": "1",
								"type": "t_bool"
							}
						],
						"numberOfBytes": "64"
					},
					"t_uint256": {
						"encoding": "inplace",
						"label": "uint256",
						"numberOfBytes": "32"
					}
				}
			},
			"userdoc": {
				"kind": "user",
				"methods": {},
				"version": 1
			}
		}
	}
}