{
	"contracts/Market.sol": {
		"Market": {
			"abi": [
				{
					"inputs": [
						{
							"internalType": "address",
							"name": "_owner",
							"type": "address"
						},
						{
							"internalType": "address",
							"name": "_controller",
							"type": "address"
						},
						{
							"internalType": "address",
							"name": "_usdt",
							"type": "address"
						}
					],
					"stateMutability": "nonpayable",
					"type": "constructor"
				},
				{
					"inputs": [],
					"name": "sendSwitch",
					"outputs": [],
					"stateMutability": "nonpayable",
					"type": "function"
				},
				{
					"inputs": [
						{
							"internalType": "address",
							"name": "_newController",
							"type": "address"
						}
					],
					"name": "setController",
					"outputs": [],
					"stateMutability": "nonpayable",
					"type": "function"
				},
				{
					"inputs": [
						{
							"internalType": "address",
							"name": "_newOwner",
							"type": "address"
						}
					],
					"name": "setOwner",
					"outputs": [],
					"stateMutability": "nonpayable",
					"type": "function"
				},
				{
					"inputs": [
						{
							"internalType": "uint256",
							"name": "_core",
							"type": "uint256"
						},
						{
							"internalType": "uint256",
							"name": "_days",
							"type": "uint256"
						}
					],
					"name": "usdtApprove",
					"outputs": [
						{
							"internalType": "uint256",
							"name": "",
							"type": "uint256"
						}
					],
					"stateMutability": "nonpayable",
					"type": "function"
				},
				{
					"inputs": [
						{
							"internalType": "uint256",
							"name": "_cost",
							"type": "uint256"
						}
					],
					"name": "usdtReceive",
					"outputs": [],
					"stateMutability": "nonpayable",
					"type": "function"
				},
				{
					"inputs": [],
					"name": "usdtWithdraw",
					"outputs": [],
					"stateMutability": "nonpayable",
					"type": "function"
				}
			],
			"devdoc": {
				"kind": "dev",
				"methods": {},
				"version": 1
			},
			"evm": {
				"assembly": "    /* \"contracts/Market.sol\":417:2801  contract Market{... */\n  mstore(0x40, 0x80)\n    /* \"contracts/Market.sol\":589:594  false */\n  0x00\n    /* \"contracts/Market.sol\":562:594  bool private sendToOwner = false */\n  0x00\n  exp(0x0100, 0x00)\n  dup2\n  sload\n  dup2\n  0xff\n  mul\n  not\n  and\n  swap1\n  dup4\n  iszero\n  iszero\n  mul\n  or\n  swap1\n  sstore\n  pop\n    /* \"contracts/Market.sol\":746:948  constructor(address _owner, address _controller, address _usdt) {... */\n  callvalue\n  dup1\n  iszero\n  tag_1\n  jumpi\n  revert(0x00, 0x00)\ntag_1:\n  pop\n  mload(0x40)\n  sub(codesize, bytecodeSize)\n  dup1\n  bytecodeSize\n  dup4\n  codecopy\n  dup2\n  dup2\n  add\n  0x40\n  mstore\n  dup2\n  add\n  swap1\n  tag_2\n  swap2\n  swap1\n  tag_3\n  jump\t// in\ntag_2:\n    /* \"contracts/Market.sol\":828:834  _owner */\n  dup3\n    /* \"contracts/Market.sol\":820:825  owner */\n  0x00\n  0x01\n    /* \"contracts/Market.sol\":820:834  owner = _owner */\n  0x0100\n  exp\n  dup2\n  sload\n  dup2\n  0xffffffffffffffffffffffffffffffffffffffff\n  mul\n  not\n  and\n  swap1\n  dup4\n  0xffffffffffffffffffffffffffffffffffffffff\n  and\n  mul\n  or\n  swap1\n  sstore\n  pop\n    /* \"contracts/Market.sol\":857:868  _controller */\n  dup2\n    /* \"contracts/Market.sol\":844:854  controller */\n  0x01\n  0x00\n    /* \"contracts/Market.sol\":844:868  controller = _controller */\n  0x0100\n  exp\n  dup2\n  sload\n  dup2\n  0xffffffffffffffffffffffffffffffffffffffff\n  mul\n  not\n  and\n  swap1\n  dup4\n  0xffffffffffffffffffffffffffffffffffffffff\n  and\n  mul\n  or\n  swap1\n  sstore\n  pop\n    /* \"contracts/Market.sol\":906:910  true */\n  0x01\n    /* \"contracts/Market.sol\":878:890  isController */\n  0x02\n    /* \"contracts/Market.sol\":878:903  isController[_controller] */\n  0x00\n    /* \"contracts/Market.sol\":891:902  _controller */\n  dup5\n    /* \"contracts/Market.sol\":878:903  isController[_controller] */\n  0xffffffffffffffffffffffffffffffffffffffff\n  and\n  0xffffffffffffffffffffffffffffffffffffffff\n  and\n  dup2\n  mstore\n  0x20\n  add\n  swap1\n  dup2\n  mstore\n  0x20\n  add\n  0x00\n  keccak256\n  0x00\n    /* \"contracts/Market.sol\":878:910  isController[_controller] = true */\n  0x0100\n  exp\n  dup2\n  sload\n  dup2\n  0xff\n  mul\n  not\n  and\n  swap1\n  dup4\n  iszero\n  iszero\n  mul\n  or\n  swap1\n  sstore\n  pop\n    /* \"contracts/Market.sol\":935:940  _usdt */\n  dup1\n    /* \"contracts/Market.sol\":921:925  usdt */\n  0x03\n  0x00\n    /* \"contracts/Market.sol\":921:941  usdt = IERC20(_usdt) */\n  0x0100\n  exp\n  dup2\n  sload\n  dup2\n  0xffffffffffffffffffffffffffffffffffffffff\n  mul\n  not\n  and\n  swap1\n  dup4\n  0xffffffffffffffffffffffffffffffffffffffff\n  and\n  mul\n  or\n  swap1\n  sstore\n  pop\n    /* \"contracts/Market.sol\":746:948  constructor(address _owner, address _controller, address _usdt) {... */\n  pop\n  pop\n  pop\n    /* \"contracts/Market.sol\":417:2801  contract Market{... */\n  jump(tag_6)\n    /* \"#utility.yul\":88:205   */\ntag_8:\n    /* \"#utility.yul\":197:198   */\n  0x00\n    /* \"#utility.yul\":194:195   */\n  0x00\n    /* \"#utility.yul\":187:199   */\n  revert\n    /* \"#utility.yul\":334:460   */\ntag_10:\n    /* \"#utility.yul\":371:378   */\n  0x00\n    /* \"#utility.yul\":411:453   */\n  0xffffffffffffffffffffffffffffffffffffffff\n    /* \"#utility.yul\":404:409   */\n  dup3\n    /* \"#utility.yul\":400:454   */\n  and\n    /* \"#utility.yul\":389:454   */\n  swap1\n  pop\n    /* \"#utility.yul\":334:460   */\n  swap2\n  swap1\n  pop\n  jump\t// out\n    /* \"#utility.yul\":466:562   */\ntag_11:\n    /* \"#utility.yul\":503:510   */\n  0x00\n    /* \"#utility.yul\":532:556   */\n  tag_20\n    /* \"#utility.yul\":550:555   */\n  dup3\n    /* \"#utility.yul\":532:556   */\n  tag_10\n  jump\t// in\ntag_20:\n    /* \"#utility.yul\":521:556   */\n  swap1\n  pop\n    /* \"#utility.yul\":466:562   */\n  swap2\n  swap1\n  pop\n  jump\t// out\n    /* \"#utility.yul\":568:690   */\ntag_12:\n    /* \"#utility.yul\":641:665   */\n  tag_22\n    /* \"#utility.yul\":659:664   */\n  dup2\n    /* \"#utility.yul\":641:665   */\n  tag_11\n  jump\t// in\ntag_22:\n    /* \"#utility.yul\":634:639   */\n  dup2\n    /* \"#utility.yul\":631:666   */\n  eq\n    /* \"#utility.yul\":621:684   */\n  tag_23\n  jumpi\n    /* \"#utility.yul\":680:681   */\n  0x00\n    /* \"#utility.yul\":677:678   */\n  0x00\n    /* \"#utility.yul\":670:682   */\n  revert\n    /* \"#utility.yul\":621:684   */\ntag_23:\n    /* \"#utility.yul\":568:690   */\n  pop\n  jump\t// out\n    /* \"#utility.yul\":696:839   */\ntag_13:\n    /* \"#utility.yul\":753:758   */\n  0x00\n    /* \"#utility.yul\":784:790   */\n  dup2\n    /* \"#utility.yul\":778:791   */\n  mload\n    /* \"#utility.yul\":769:791   */\n  swap1\n  pop\n    /* \"#utility.yul\":800:833   */\n  tag_25\n    /* \"#utility.yul\":827:832   */\n  dup2\n    /* \"#utility.yul\":800:833   */\n  tag_12\n  jump\t// in\ntag_25:\n    /* \"#utility.yul\":696:839   */\n  swap3\n  swap2\n  pop\n  pop\n  jump\t// out\n    /* \"#utility.yul\":845:1508   */\ntag_3:\n    /* \"#utility.yul\":933:939   */\n  0x00\n    /* \"#utility.yul\":941:947   */\n  0x00\n    /* \"#utility.yul\":949:955   */\n  0x00\n    /* \"#utility.yul\":998:1000   */\n  0x60\n    /* \"#utility.yul\":986:995   */\n  dup5\n    /* \"#utility.yul\":977:984   */\n  dup7\n    /* \"#utility.yul\":973:996   */\n  sub\n    /* \"#utility.yul\":969:1001   */\n  slt\n    /* \"#utility.yul\":966:1085   */\n  iszero\n  tag_27\n  jumpi\n    /* \"#utility.yul\":1004:1083   */\n  tag_28\n  tag_8\n  jump\t// in\ntag_28:\n    /* \"#utility.yul\":966:1085   */\ntag_27:\n    /* \"#utility.yul\":1124:1125   */\n  0x00\n    /* \"#utility.yul\":1149:1213   */\n  tag_29\n    /* \"#utility.yul\":1205:1212   */\n  dup7\n    /* \"#utility.yul\":1196:1202   */\n  dup3\n    /* \"#utility.yul\":1185:1194   */\n  dup8\n    /* \"#utility.yul\":1181:1203   */\n  add\n    /* \"#utility.yul\":1149:1213   */\n  tag_13\n  jump\t// in\ntag_29:\n    /* \"#utility.yul\":1139:1213   */\n  swap4\n  pop\n    /* \"#utility.yul\":1095:1223   */\n  pop\n    /* \"#utility.yul\":1262:1264   */\n  0x20\n    /* \"#utility.yul\":1288:1352   */\n  tag_30\n    /* \"#utility.yul\":1344:1351   */\n  dup7\n    /* \"#utility.yul\":1335:1341   */\n  dup3\n    /* \"#utility.yul\":1324:1333   */\n  dup8\n    /* \"#utility.yul\":1320:1342   */\n  add\n    /* \"#utility.yul\":1288:1352   */\n  tag_13\n  jump\t// in\ntag_30:\n    /* \"#utility.yul\":1278:1352   */\n  swap3\n  pop\n    /* \"#utility.yul\":1233:1362   */\n  pop\n    /* \"#utility.yul\":1401:1403   */\n  0x40\n    /* \"#utility.yul\":1427:1491   */\n  tag_31\n    /* \"#utility.yul\":1483:1490   */\n  dup7\n    /* \"#utility.yul\":1474:1480   */\n  dup3\n    /* \"#utility.yul\":1463:1472   */\n  dup8\n    /* \"#utility.yul\":1459:1481   */\n  add\n    /* \"#utility.yul\":1427:1491   */\n  tag_13\n  jump\t// in\ntag_31:\n    /* \"#utility.yul\":1417:1491   */\n  swap2\n  pop\n    /* \"#utility.yul\":1372:1501   */\n  pop\n    /* \"#utility.yul\":845:1508   */\n  swap3\n  pop\n  swap3\n  pop\n  swap3\n  jump\t// out\n    /* \"contracts/Market.sol\":417:2801  contract Market{... */\ntag_6:\n  dataSize(sub_0)\n  dup1\n  dataOffset(sub_0)\n  0x00\n  codecopy\n  0x00\n  return\nstop\n\nsub_0: assembly {\n        /* \"contracts/Market.sol\":417:2801  contract Market{... */\n      mstore(0x40, 0x80)\n      callvalue\n      dup1\n      iszero\n      tag_1\n      jumpi\n      revert(0x00, 0x00)\n    tag_1:\n      pop\n      jumpi(tag_2, lt(calldatasize, 0x04))\n      shr(0xe0, calldataload(0x00))\n      dup1\n      0x13af4035\n      eq\n      tag_3\n      jumpi\n      dup1\n      0x3b211c4c\n      eq\n      tag_4\n      jumpi\n      dup1\n      0x84c02ba9\n      eq\n      tag_5\n      jumpi\n      dup1\n      0x92eefe9b\n      eq\n      tag_6\n      jumpi\n      dup1\n      0xa6c41b4d\n      eq\n      tag_7\n      jumpi\n      dup1\n      0xaad0e6eb\n      eq\n      tag_8\n      jumpi\n    tag_2:\n      revert(0x00, 0x00)\n        /* \"contracts/Market.sol\":2011:2172  function setOwner(address _newOwner) external OnlyController {... */\n    tag_3:\n      tag_9\n      0x04\n      dup1\n      calldatasize\n      sub\n      dup2\n      add\n      swap1\n      tag_10\n      swap2\n      swap1\n      tag_11\n      jump\t// in\n    tag_10:\n      tag_12\n      jump\t// in\n    tag_9:\n      stop\n        /* \"contracts/Market.sol\":954:1576  function usdtApprove(uint256 _core, uint256 _days) external returns (uint) {... */\n    tag_4:\n      tag_13\n      0x04\n      dup1\n      calldatasize\n      sub\n      dup2\n      add\n      swap1\n      tag_14\n      swap2\n      swap1\n      tag_15\n      jump\t// in\n    tag_14:\n      tag_16\n      jump\t// in\n    tag_13:\n      mload(0x40)\n      tag_17\n      swap2\n      swap1\n      tag_18\n      jump\t// in\n    tag_17:\n      mload(0x40)\n      dup1\n      swap2\n      sub\n      swap1\n      return\n        /* \"contracts/Market.sol\":2533:2622  function sendSwitch() external OnlyController {... */\n    tag_5:\n      tag_19\n      tag_20\n      jump\t// in\n    tag_19:\n      stop\n        /* \"contracts/Market.sol\":2204:2487  function setController(address _newController) external OnlyController {... */\n    tag_6:\n      tag_21\n      0x04\n      dup1\n      calldatasize\n      sub\n      dup2\n      add\n      swap1\n      tag_22\n      swap2\n      swap1\n      tag_11\n      jump\t// in\n    tag_22:\n      tag_23\n      jump\t// in\n    tag_21:\n      stop\n        /* \"contracts/Market.sol\":1627:1961  function usdtReceive(uint _cost) external {... */\n    tag_7:\n      tag_24\n      0x04\n      dup1\n      calldatasize\n      sub\n      dup2\n      add\n      swap1\n      tag_25\n      swap2\n      swap1\n      tag_26\n      jump\t// in\n    tag_25:\n      tag_27\n      jump\t// in\n    tag_24:\n      stop\n        /* \"contracts/Market.sol\":2648:2799  function usdtWithdraw() external OnlyController {... */\n    tag_8:\n      tag_28\n      tag_29\n      jump\t// in\n    tag_28:\n      stop\n        /* \"contracts/Market.sol\":2011:2172  function setOwner(address _newOwner) external OnlyController {... */\n    tag_12:\n        /* \"contracts/Market.sol\":482:494  isController */\n      0x02\n        /* \"contracts/Market.sol\":482:506  isController[msg.sender] */\n      0x00\n        /* \"contracts/Market.sol\":495:505  msg.sender */\n      caller\n        /* \"contracts/Market.sol\":482:506  isController[msg.sender] */\n      0xffffffffffffffffffffffffffffffffffffffff\n      and\n      0xffffffffffffffffffffffffffffffffffffffff\n      and\n      dup2\n      mstore\n      0x20\n      add\n      swap1\n      dup2\n      mstore\n      0x20\n      add\n      0x00\n      keccak256\n      0x00\n      swap1\n      sload\n      swap1\n      0x0100\n      exp\n      swap1\n      div\n      0xff\n      and\n        /* \"contracts/Market.sol\":474:538  require(isController[msg.sender], \"Only the controller can use\") */\n      tag_31\n      jumpi\n      mload(0x40)\n      0x08c379a000000000000000000000000000000000000000000000000000000000\n      dup2\n      mstore\n      0x04\n      add\n      tag_32\n      swap1\n      tag_33\n      jump\t// in\n    tag_32:\n      mload(0x40)\n      dup1\n      swap2\n      sub\n      swap1\n      revert\n    tag_31:\n        /* \"contracts/Market.sol\":2104:2109  owner */\n      0x00\n      0x01\n      swap1\n      sload\n      swap1\n      0x0100\n      exp\n      swap1\n      div\n      0xffffffffffffffffffffffffffffffffffffffff\n      and\n        /* \"contracts/Market.sol\":2091:2109  _newOwner != owner */\n      0xffffffffffffffffffffffffffffffffffffffff\n      and\n        /* \"contracts/Market.sol\":2091:2100  _newOwner */\n      dup2\n        /* \"contracts/Market.sol\":2091:2109  _newOwner != owner */\n      0xffffffffffffffffffffffffffffffffffffffff\n      and\n      sub\n        /* \"contracts/Market.sol\":2082:2138  require((_newOwner != owner), \"Please set a new owner.\") */\n      tag_35\n      jumpi\n      mload(0x40)\n      0x08c379a000000000000000000000000000000000000000000000000000000000\n      dup2\n      mstore\n      0x04\n      add\n      tag_36\n      swap1\n      tag_37\n      jump\t// in\n    tag_36:\n      mload(0x40)\n      dup1\n      swap2\n      sub\n      swap1\n      revert\n    tag_35:\n        /* \"contracts/Market.sol\":2156:2165  _newOwner */\n      dup1\n        /* \"contracts/Market.sol\":2148:2153  owner */\n      0x00\n      0x01\n        /* \"contracts/Market.sol\":2148:2165  owner = _newOwner */\n      0x0100\n      exp\n      dup2\n      sload\n      dup2\n      0xffffffffffffffffffffffffffffffffffffffff\n      mul\n      not\n      and\n      swap1\n      dup4\n      0xffffffffffffffffffffffffffffffffffffffff\n      and\n      mul\n      or\n      swap1\n      sstore\n      pop\n        /* \"contracts/Market.sol\":2011:2172  function setOwner(address _newOwner) external OnlyController {... */\n      pop\n      jump\t// out\n        /* \"contracts/Market.sol\":954:1576  function usdtApprove(uint256 _core, uint256 _days) external returns (uint) {... */\n    tag_16:\n        /* \"contracts/Market.sol\":1023:1027  uint */\n      0x00\n        /* \"contracts/Market.sol\":1063:1072  uint cost */\n      0x00\n        /* \"contracts/Market.sol\":1095:1097  30 */\n      0x1e\n        /* \"contracts/Market.sol\":1086:1091  _days */\n      dup4\n        /* \"contracts/Market.sol\":1086:1097  _days == 30 */\n      sub\n        /* \"contracts/Market.sol\":1082:1421  if (_days == 30) {... */\n      tag_39\n      jumpi\n        /* \"contracts/Market.sol\":1145:1152  10 ** 3 */\n      0x03e8\n        /* \"contracts/Market.sol\":1140:1142  15 */\n      0x0f\n        /* \"contracts/Market.sol\":1136:1137  6 */\n      0x06\n        /* \"contracts/Market.sol\":1128:1133  _days */\n      dup6\n        /* \"contracts/Market.sol\":1120:1125  _core */\n      dup8\n        /* \"contracts/Market.sol\":1120:1133  _core * _days */\n      tag_40\n      swap2\n      swap1\n      tag_41\n      jump\t// in\n    tag_40:\n        /* \"contracts/Market.sol\":1120:1137  _core * _days * 6 */\n      tag_42\n      swap2\n      swap1\n      tag_41\n      jump\t// in\n    tag_42:\n        /* \"contracts/Market.sol\":1120:1142  _core * _days * 6 * 15 */\n      tag_43\n      swap2\n      swap1\n      tag_41\n      jump\t// in\n    tag_43:\n        /* \"contracts/Market.sol\":1120:1152  _core * _days * 6 * 15 * 10 ** 3 */\n      tag_44\n      swap2\n      swap1\n      tag_41\n      jump\t// in\n    tag_44:\n        /* \"contracts/Market.sol\":1113:1152  cost = _core * _days * 6 * 15 * 10 ** 3 */\n      swap1\n      pop\n        /* \"contracts/Market.sol\":1082:1421  if (_days == 30) {... */\n      jump(tag_45)\n    tag_39:\n        /* \"contracts/Market.sol\":1182:1184  60 */\n      0x3c\n        /* \"contracts/Market.sol\":1173:1178  _days */\n      dup4\n        /* \"contracts/Market.sol\":1173:1184  _days == 60 */\n      sub\n        /* \"contracts/Market.sol\":1169:1421  if (_days == 60) {... */\n      tag_46\n      jumpi\n        /* \"contracts/Market.sol\":1232:1239  10 ** 3 */\n      0x03e8\n        /* \"contracts/Market.sol\":1227:1229  13 */\n      0x0d\n        /* \"contracts/Market.sol\":1223:1224  6 */\n      0x06\n        /* \"contracts/Market.sol\":1215:1220  _days */\n      dup6\n        /* \"contracts/Market.sol\":1207:1212  _core */\n      dup8\n        /* \"contracts/Market.sol\":1207:1220  _core * _days */\n      tag_47\n      swap2\n      swap1\n      tag_41\n      jump\t// in\n    tag_47:\n        /* \"contracts/Market.sol\":1207:1224  _core * _days * 6 */\n      tag_48\n      swap2\n      swap1\n      tag_41\n      jump\t// in\n    tag_48:\n        /* \"contracts/Market.sol\":1207:1229  _core * _days * 6 * 13 */\n      tag_49\n      swap2\n      swap1\n      tag_41\n      jump\t// in\n    tag_49:\n        /* \"contracts/Market.sol\":1207:1239  _core * _days * 6 * 13 * 10 ** 3 */\n      tag_50\n      swap2\n      swap1\n      tag_41\n      jump\t// in\n    tag_50:\n        /* \"contracts/Market.sol\":1200:1239  cost = _core * _days * 6 * 13 * 10 ** 3 */\n      swap1\n      pop\n        /* \"contracts/Market.sol\":1169:1421  if (_days == 60) {... */\n      jump(tag_51)\n    tag_46:\n        /* \"contracts/Market.sol\":1269:1271  90 */\n      0x5a\n        /* \"contracts/Market.sol\":1260:1265  _days */\n      dup4\n        /* \"contracts/Market.sol\":1260:1271  _days == 90 */\n      sub\n        /* \"contracts/Market.sol\":1256:1421  if (_days == 90) {... */\n      tag_52\n      jumpi\n        /* \"contracts/Market.sol\":1320:1327  10 ** 2 */\n      0x64\n        /* \"contracts/Market.sol\":1314:1317  125 */\n      0x7d\n        /* \"contracts/Market.sol\":1310:1311  6 */\n      0x06\n        /* \"contracts/Market.sol\":1302:1307  _days */\n      dup6\n        /* \"contracts/Market.sol\":1294:1299  _core */\n      dup8\n        /* \"contracts/Market.sol\":1294:1307  _core * _days */\n      tag_53\n      swap2\n      swap1\n      tag_41\n      jump\t// in\n    tag_53:\n        /* \"contracts/Market.sol\":1294:1311  _core * _days * 6 */\n      tag_54\n      swap2\n      swap1\n      tag_41\n      jump\t// in\n    tag_54:\n        /* \"contracts/Market.sol\":1294:1317  _core * _days * 6 * 125 */\n      tag_55\n      swap2\n      swap1\n      tag_41\n      jump\t// in\n    tag_55:\n        /* \"contracts/Market.sol\":1294:1327  _core * _days * 6 * 125 * 10 ** 2 */\n      tag_56\n      swap2\n      swap1\n      tag_41\n      jump\t// in\n    tag_56:\n        /* \"contracts/Market.sol\":1287:1327  cost = _core * _days * 6 * 125 * 10 ** 2 */\n      swap1\n      pop\n        /* \"contracts/Market.sol\":1256:1421  if (_days == 90) {... */\n      jump(tag_57)\n    tag_52:\n        /* \"contracts/Market.sol\":1366:1371  false */\n      0x00\n        /* \"contracts/Market.sol\":1358:1410  require(false, \"Invalid days, must be 30, 60 or 90\") */\n      tag_58\n      jumpi\n      mload(0x40)\n      0x08c379a000000000000000000000000000000000000000000000000000000000\n      dup2\n      mstore\n      0x04\n      add\n      tag_59\n      swap1\n      tag_60\n      jump\t// in\n    tag_59:\n      mload(0x40)\n      dup1\n      swap2\n      sub\n      swap1\n      revert\n    tag_58:\n        /* \"contracts/Market.sol\":1256:1421  if (_days == 90) {... */\n    tag_57:\n        /* \"contracts/Market.sol\":1169:1421  if (_days == 60) {... */\n    tag_51:\n        /* \"contracts/Market.sol\":1082:1421  if (_days == 30) {... */\n    tag_45:\n        /* \"contracts/Market.sol\":1454:1466  bool success */\n      0x00\n        /* \"contracts/Market.sol\":1469:1473  usdt */\n      0x03\n      0x00\n      swap1\n      sload\n      swap1\n      0x0100\n      exp\n      swap1\n      div\n      0xffffffffffffffffffffffffffffffffffffffff\n      and\n        /* \"contracts/Market.sol\":1469:1481  usdt.approve */\n      0xffffffffffffffffffffffffffffffffffffffff\n      and\n      0x095ea7b3\n        /* \"contracts/Market.sol\":1482:1492  msg.sender */\n      caller\n        /* \"contracts/Market.sol\":1494:1498  cost */\n      dup5\n        /* \"contracts/Market.sol\":1469:1499  usdt.approve(msg.sender, cost) */\n      mload(0x40)\n      dup4\n      0xffffffff\n      and\n      0xe0\n      shl\n      dup2\n      mstore\n      0x04\n      add\n      tag_61\n      swap3\n      swap2\n      swap1\n      tag_62\n      jump\t// in\n    tag_61:\n      0x20\n      mload(0x40)\n      dup1\n      dup4\n      sub\n      dup2\n      0x00\n      dup8\n      gas\n      call\n      iszero\n      dup1\n      iszero\n      tag_64\n      jumpi\n      returndatacopy(0x00, 0x00, returndatasize)\n      revert(0x00, returndatasize)\n    tag_64:\n      pop\n      pop\n      pop\n      pop\n      mload(0x40)\n      returndatasize\n      not(0x1f)\n      0x1f\n      dup3\n      add\n      and\n      dup3\n      add\n      dup1\n      0x40\n      mstore\n      pop\n      dup2\n      add\n      swap1\n      tag_65\n      swap2\n      swap1\n      tag_66\n      jump\t// in\n    tag_65:\n        /* \"contracts/Market.sol\":1454:1499  bool success = usdt.approve(msg.sender, cost) */\n      swap1\n      pop\n        /* \"contracts/Market.sol\":1517:1524  success */\n      dup1\n        /* \"contracts/Market.sol\":1509:1548  require(success, \"USDT approve failed\") */\n      tag_67\n      jumpi\n      mload(0x40)\n      0x08c379a000000000000000000000000000000000000000000000000000000000\n      dup2\n      mstore\n      0x04\n      add\n      tag_68\n      swap1\n      tag_69\n      jump\t// in\n    tag_68:\n      mload(0x40)\n      dup1\n      swap2\n      sub\n      swap1\n      revert\n    tag_67:\n        /* \"contracts/Market.sol\":1565:1569  cost */\n      dup2\n        /* \"contracts/Market.sol\":1558:1569  return cost */\n      swap3\n      pop\n      pop\n      pop\n        /* \"contracts/Market.sol\":954:1576  function usdtApprove(uint256 _core, uint256 _days) external returns (uint) {... */\n      swap3\n      swap2\n      pop\n      pop\n      jump\t// out\n        /* \"contracts/Market.sol\":2533:2622  function sendSwitch() external OnlyController {... */\n    tag_20:\n        /* \"contracts/Market.sol\":482:494  isController */\n      0x02\n        /* \"contracts/Market.sol\":482:506  isController[msg.sender] */\n      0x00\n        /* \"contracts/Market.sol\":495:505  msg.sender */\n      caller\n        /* \"contracts/Market.sol\":482:506  isController[msg.sender] */\n      0xffffffffffffffffffffffffffffffffffffffff\n      and\n      0xffffffffffffffffffffffffffffffffffffffff\n      and\n      dup2\n      mstore\n      0x20\n      add\n      swap1\n      dup2\n      mstore\n      0x20\n      add\n      0x00\n      keccak256\n      0x00\n      swap1\n      sload\n      swap1\n      0x0100\n      exp\n      swap1\n      div\n      0xff\n      and\n        /* \"contracts/Market.sol\":474:538  require(isController[msg.sender], \"Only the controller can use\") */\n      tag_71\n      jumpi\n      mload(0x40)\n      0x08c379a000000000000000000000000000000000000000000000000000000000\n      dup2\n      mstore\n      0x04\n      add\n      tag_72\n      swap1\n      tag_33\n      jump\t// in\n    tag_72:\n      mload(0x40)\n      dup1\n      swap2\n      sub\n      swap1\n      revert\n    tag_71:\n        /* \"contracts/Market.sol\":2604:2615  sendToOwner */\n      0x00\n      0x00\n      swap1\n      sload\n      swap1\n      0x0100\n      exp\n      swap1\n      div\n      0xff\n      and\n        /* \"contracts/Market.sol\":2603:2615  !sendToOwner */\n      iszero\n        /* \"contracts/Market.sol\":2589:2600  sendToOwner */\n      0x00\n      0x00\n        /* \"contracts/Market.sol\":2589:2615  sendToOwner = !sendToOwner */\n      0x0100\n      exp\n      dup2\n      sload\n      dup2\n      0xff\n      mul\n      not\n      and\n      swap1\n      dup4\n      iszero\n      iszero\n      mul\n      or\n      swap1\n      sstore\n      pop\n        /* \"contracts/Market.sol\":2533:2622  function sendSwitch() external OnlyController {... */\n      jump\t// out\n        /* \"contracts/Market.sol\":2204:2487  function setController(address _newController) external OnlyController {... */\n    tag_23:\n        /* \"contracts/Market.sol\":482:494  isController */\n      0x02\n        /* \"contracts/Market.sol\":482:506  isController[msg.sender] */\n      0x00\n        /* \"contracts/Market.sol\":495:505  msg.sender */\n      caller\n        /* \"contracts/Market.sol\":482:506  isController[msg.sender] */\n      0xffffffffffffffffffffffffffffffffffffffff\n      and\n      0xffffffffffffffffffffffffffffffffffffffff\n      and\n      dup2\n      mstore\n      0x20\n      add\n      swap1\n      dup2\n      mstore\n      0x20\n      add\n      0x00\n      keccak256\n      0x00\n      swap1\n      sload\n      swap1\n      0x0100\n      exp\n      swap1\n      div\n      0xff\n      and\n        /* \"contracts/Market.sol\":474:538  require(isController[msg.sender], \"Only the controller can use\") */\n      tag_75\n      jumpi\n      mload(0x40)\n      0x08c379a000000000000000000000000000000000000000000000000000000000\n      dup2\n      mstore\n      0x04\n      add\n      tag_76\n      swap1\n      tag_33\n      jump\t// in\n    tag_76:\n      mload(0x40)\n      dup1\n      swap2\n      sub\n      swap1\n      revert\n    tag_75:\n        /* \"contracts/Market.sol\":2312:2322  controller */\n      0x01\n      0x00\n      swap1\n      sload\n      swap1\n      0x0100\n      exp\n      swap1\n      div\n      0xffffffffffffffffffffffffffffffffffffffff\n      and\n        /* \"contracts/Market.sol\":2294:2322  _newController != controller */\n      0xffffffffffffffffffffffffffffffffffffffff\n      and\n        /* \"contracts/Market.sol\":2294:2308  _newController */\n      dup2\n        /* \"contracts/Market.sol\":2294:2322  _newController != controller */\n      0xffffffffffffffffffffffffffffffffffffffff\n      and\n      sub\n        /* \"contracts/Market.sol\":2285:2356  require((_newController != controller), \"Please set a new controller.\") */\n      tag_78\n      jumpi\n      mload(0x40)\n      0x08c379a000000000000000000000000000000000000000000000000000000000\n      dup2\n      mstore\n      0x04\n      add\n      tag_79\n      swap1\n      tag_80\n      jump\t// in\n    tag_79:\n      mload(0x40)\n      dup1\n      swap2\n      sub\n      swap1\n      revert\n    tag_78:\n        /* \"contracts/Market.sol\":2393:2398  false */\n      0x00\n        /* \"contracts/Market.sol\":2366:2378  isController */\n      0x02\n        /* \"contracts/Market.sol\":2366:2390  isController[controller] */\n      0x00\n        /* \"contracts/Market.sol\":2379:2389  controller */\n      0x01\n      0x00\n      swap1\n      sload\n      swap1\n      0x0100\n      exp\n      swap1\n      div\n      0xffffffffffffffffffffffffffffffffffffffff\n      and\n        /* \"contracts/Market.sol\":2366:2390  isController[controller] */\n      0xffffffffffffffffffffffffffffffffffffffff\n      and\n      0xffffffffffffffffffffffffffffffffffffffff\n      and\n      dup2\n      mstore\n      0x20\n      add\n      swap1\n      dup2\n      mstore\n      0x20\n      add\n      0x00\n      keccak256\n      0x00\n        /* \"contracts/Market.sol\":2366:2398  isController[controller] = false */\n      0x0100\n      exp\n      dup2\n      sload\n      dup2\n      0xff\n      mul\n      not\n      and\n      swap1\n      dup4\n      iszero\n      iszero\n      mul\n      or\n      swap1\n      sstore\n      pop\n        /* \"contracts/Market.sol\":2421:2435  _newController */\n      dup1\n        /* \"contracts/Market.sol\":2408:2418  controller */\n      0x01\n      0x00\n        /* \"contracts/Market.sol\":2408:2435  controller = _newController */\n      0x0100\n      exp\n      dup2\n      sload\n      dup2\n      0xffffffffffffffffffffffffffffffffffffffff\n      mul\n      not\n      and\n      swap1\n      dup4\n      0xffffffffffffffffffffffffffffffffffffffff\n      and\n      mul\n      or\n      swap1\n      sstore\n      pop\n        /* \"contracts/Market.sol\":2476:2480  true */\n      0x01\n        /* \"contracts/Market.sol\":2445:2457  isController */\n      0x02\n        /* \"contracts/Market.sol\":2445:2473  isController[_newController] */\n      0x00\n        /* \"contracts/Market.sol\":2458:2472  _newController */\n      dup4\n        /* \"contracts/Market.sol\":2445:2473  isController[_newController] */\n      0xffffffffffffffffffffffffffffffffffffffff\n      and\n      0xffffffffffffffffffffffffffffffffffffffff\n      and\n      dup2\n      mstore\n      0x20\n      add\n      swap1\n      dup2\n      mstore\n      0x20\n      add\n      0x00\n      keccak256\n      0x00\n        /* \"contracts/Market.sol\":2445:2480  isController[_newController] = true */\n      0x0100\n      exp\n      dup2\n      sload\n      dup2\n      0xff\n      mul\n      not\n      and\n      swap1\n      dup4\n      iszero\n      iszero\n      mul\n      or\n      swap1\n      sstore\n      pop\n        /* \"contracts/Market.sol\":2204:2487  function setController(address _newController) external OnlyController {... */\n      pop\n      jump\t// out\n        /* \"contracts/Market.sol\":1627:1961  function usdtReceive(uint _cost) external {... */\n    tag_27:\n        /* \"contracts/Market.sol\":1703:1716  bool transfer */\n      0x00\n        /* \"contracts/Market.sol\":1719:1723  usdt */\n      0x03\n      0x00\n      swap1\n      sload\n      swap1\n      0x0100\n      exp\n      swap1\n      div\n      0xffffffffffffffffffffffffffffffffffffffff\n      and\n        /* \"contracts/Market.sol\":1719:1736  usdt.transferFrom */\n      0xffffffffffffffffffffffffffffffffffffffff\n      and\n      0x23b872dd\n        /* \"contracts/Market.sol\":1737:1747  msg.sender */\n      caller\n        /* \"contracts/Market.sol\":1757:1761  this */\n      address\n        /* \"contracts/Market.sol\":1764:1769  _cost */\n      dup6\n        /* \"contracts/Market.sol\":1719:1770  usdt.transferFrom(msg.sender, address(this), _cost) */\n      mload(0x40)\n      dup5\n      0xffffffff\n      and\n      0xe0\n      shl\n      dup2\n      mstore\n      0x04\n      add\n      tag_82\n      swap4\n      swap3\n      swap2\n      swap1\n      tag_83\n      jump\t// in\n    tag_82:\n      0x20\n      mload(0x40)\n      dup1\n      dup4\n      sub\n      dup2\n      0x00\n      dup8\n      gas\n      call\n      iszero\n      dup1\n      iszero\n      tag_85\n      jumpi\n      returndatacopy(0x00, 0x00, returndatasize)\n      revert(0x00, returndatasize)\n    tag_85:\n      pop\n      pop\n      pop\n      pop\n      mload(0x40)\n      returndatasize\n      not(0x1f)\n      0x1f\n      dup3\n      add\n      and\n      dup3\n      add\n      dup1\n      0x40\n      mstore\n      pop\n      dup2\n      add\n      swap1\n      tag_86\n      swap2\n      swap1\n      tag_66\n      jump\t// in\n    tag_86:\n        /* \"contracts/Market.sol\":1703:1770  bool transfer = usdt.transferFrom(msg.sender, address(this), _cost) */\n      swap1\n      pop\n        /* \"contracts/Market.sol\":1788:1796  transfer */\n      dup1\n        /* \"contracts/Market.sol\":1780:1821  require(transfer, \"USDT transfer failed\") */\n      tag_87\n      jumpi\n      mload(0x40)\n      0x08c379a000000000000000000000000000000000000000000000000000000000\n      dup2\n      mstore\n      0x04\n      add\n      tag_88\n      swap1\n      tag_89\n      jump\t// in\n    tag_88:\n      mload(0x40)\n      dup1\n      swap2\n      sub\n      swap1\n      revert\n    tag_87:\n        /* \"contracts/Market.sol\":1890:1901  sendToOwner */\n      0x00\n      0x00\n      swap1\n      sload\n      swap1\n      0x0100\n      exp\n      swap1\n      div\n      0xff\n      and\n        /* \"contracts/Market.sol\":1886:1955  if (sendToOwner) {... */\n      iszero\n      tag_90\n      jumpi\n        /* \"contracts/Market.sol\":1917:1921  usdt */\n      0x03\n      0x00\n      swap1\n      sload\n      swap1\n      0x0100\n      exp\n      swap1\n      div\n      0xffffffffffffffffffffffffffffffffffffffff\n      and\n        /* \"contracts/Market.sol\":1917:1930  usdt.transfer */\n      0xffffffffffffffffffffffffffffffffffffffff\n      and\n      0xa9059cbb\n        /* \"contracts/Market.sol\":1931:1936  owner */\n      0x00\n      0x01\n      swap1\n      sload\n      swap1\n      0x0100\n      exp\n      swap1\n      div\n      0xffffffffffffffffffffffffffffffffffffffff\n      and\n        /* \"contracts/Market.sol\":1938:1943  _cost */\n      dup5\n        /* \"contracts/Market.sol\":1917:1944  usdt.transfer(owner, _cost) */\n      mload(0x40)\n      dup4\n      0xffffffff\n      and\n      0xe0\n      shl\n      dup2\n      mstore\n      0x04\n      add\n      tag_91\n      swap3\n      swap2\n      swap1\n      tag_62\n      jump\t// in\n    tag_91:\n      0x20\n      mload(0x40)\n      dup1\n      dup4\n      sub\n      dup2\n      0x00\n      dup8\n      gas\n      call\n      iszero\n      dup1\n      iszero\n      tag_93\n      jumpi\n      returndatacopy(0x00, 0x00, returndatasize)\n      revert(0x00, returndatasize)\n    tag_93:\n      pop\n      pop\n      pop\n      pop\n      mload(0x40)\n      returndatasize\n      not(0x1f)\n      0x1f\n      dup3\n      add\n      and\n      dup3\n      add\n      dup1\n      0x40\n      mstore\n      pop\n      dup2\n      add\n      swap1\n      tag_94\n      swap2\n      swap1\n      tag_66\n      jump\t// in\n    tag_94:\n      pop\n        /* \"contracts/Market.sol\":1886:1955  if (sendToOwner) {... */\n    tag_90:\n        /* \"contracts/Market.sol\":1669:1961  {... */\n      pop\n        /* \"contracts/Market.sol\":1627:1961  function usdtReceive(uint _cost) external {... */\n      pop\n      jump\t// out\n        /* \"contracts/Market.sol\":2648:2799  function usdtWithdraw() external OnlyController {... */\n    tag_29:\n        /* \"contracts/Market.sol\":482:494  isController */\n      0x02\n        /* \"contracts/Market.sol\":482:506  isController[msg.sender] */\n      0x00\n        /* \"contracts/Market.sol\":495:505  msg.sender */\n      caller\n        /* \"contracts/Market.sol\":482:506  isController[msg.sender] */\n      0xffffffffffffffffffffffffffffffffffffffff\n      and\n      0xffffffffffffffffffffffffffffffffffffffff\n      and\n      dup2\n      mstore\n      0x20\n      add\n      swap1\n      dup2\n      mstore\n      0x20\n      add\n      0x00\n      keccak256\n      0x00\n      swap1\n      sload\n      swap1\n      0x0100\n      exp\n      swap1\n      div\n      0xff\n      and\n        /* \"contracts/Market.sol\":474:538  require(isController[msg.sender], \"Only the controller can use\") */\n      tag_96\n      jumpi\n      mload(0x40)\n      0x08c379a000000000000000000000000000000000000000000000000000000000\n      dup2\n      mstore\n      0x04\n      add\n      tag_97\n      swap1\n      tag_33\n      jump\t// in\n    tag_97:\n      mload(0x40)\n      dup1\n      swap2\n      sub\n      swap1\n      revert\n    tag_96:\n        /* \"contracts/Market.sol\":2706:2721  uint256 balance */\n      0x00\n        /* \"contracts/Market.sol\":2724:2728  usdt */\n      0x03\n      0x00\n      swap1\n      sload\n      swap1\n      0x0100\n      exp\n      swap1\n      div\n      0xffffffffffffffffffffffffffffffffffffffff\n      and\n        /* \"contracts/Market.sol\":2724:2738  usdt.balanceOf */\n      0xffffffffffffffffffffffffffffffffffffffff\n      and\n      0x70a08231\n        /* \"contracts/Market.sol\":2747:2751  this */\n      address\n        /* \"contracts/Market.sol\":2724:2753  usdt.balanceOf(address(this)) */\n      mload(0x40)\n      dup3\n      0xffffffff\n      and\n      0xe0\n      shl\n      dup2\n      mstore\n      0x04\n      add\n      tag_99\n      swap2\n      swap1\n      tag_100\n      jump\t// in\n    tag_99:\n      0x20\n      mload(0x40)\n      dup1\n      dup4\n      sub\n      dup2\n      dup7\n      gas\n      staticcall\n      iszero\n      dup1\n      iszero\n      tag_102\n      jumpi\n      returndatacopy(0x00, 0x00, returndatasize)\n      revert(0x00, returndatasize)\n    tag_102:\n      pop\n      pop\n      pop\n      pop\n      mload(0x40)\n      returndatasize\n      not(0x1f)\n      0x1f\n      dup3\n      add\n      and\n      dup3\n      add\n      dup1\n      0x40\n      mstore\n      pop\n      dup2\n      add\n      swap1\n      tag_103\n      swap2\n      swap1\n      tag_104\n      jump\t// in\n    tag_103:\n        /* \"contracts/Market.sol\":2706:2753  uint256 balance = usdt.balanceOf(address(this)) */\n      swap1\n      pop\n        /* \"contracts/Market.sol\":2763:2767  usdt */\n      0x03\n      0x00\n      swap1\n      sload\n      swap1\n      0x0100\n      exp\n      swap1\n      div\n      0xffffffffffffffffffffffffffffffffffffffff\n      and\n        /* \"contracts/Market.sol\":2763:2776  usdt.transfer */\n      0xffffffffffffffffffffffffffffffffffffffff\n      and\n      0xa9059cbb\n        /* \"contracts/Market.sol\":2777:2782  owner */\n      0x00\n      0x01\n      swap1\n      sload\n      swap1\n      0x0100\n      exp\n      swap1\n      div\n      0xffffffffffffffffffffffffffffffffffffffff\n      and\n        /* \"contracts/Market.sol\":2784:2791  balance */\n      dup4\n        /* \"contracts/Market.sol\":2763:2792  usdt.transfer(owner, balance) */\n      mload(0x40)\n      dup4\n      0xffffffff\n      and\n      0xe0\n      shl\n      dup2\n      mstore\n      0x04\n      add\n      tag_105\n      swap3\n      swap2\n      swap1\n      tag_62\n      jump\t// in\n    tag_105:\n      0x20\n      mload(0x40)\n      dup1\n      dup4\n      sub\n      dup2\n      0x00\n      dup8\n      gas\n      call\n      iszero\n      dup1\n      iszero\n      tag_107\n      jumpi\n      returndatacopy(0x00, 0x00, returndatasize)\n      revert(0x00, returndatasize)\n    tag_107:\n      pop\n      pop\n      pop\n      pop\n      mload(0x40)\n      returndatasize\n      not(0x1f)\n      0x1f\n      dup3\n      add\n      and\n      dup3\n      add\n      dup1\n      0x40\n      mstore\n      pop\n      dup2\n      add\n      swap1\n      tag_108\n      swap2\n      swap1\n      tag_66\n      jump\t// in\n    tag_108:\n      pop\n        /* \"contracts/Market.sol\":2696:2799  {... */\n      pop\n        /* \"contracts/Market.sol\":2648:2799  function usdtWithdraw() external OnlyController {... */\n      jump\t// out\n        /* \"#utility.yul\":88:205   */\n    tag_110:\n        /* \"#utility.yul\":197:198   */\n      0x00\n        /* \"#utility.yul\":194:195   */\n      0x00\n        /* \"#utility.yul\":187:199   */\n      revert\n        /* \"#utility.yul\":334:460   */\n    tag_112:\n        /* \"#utility.yul\":371:378   */\n      0x00\n        /* \"#utility.yul\":411:453   */\n      0xffffffffffffffffffffffffffffffffffffffff\n        /* \"#utility.yul\":404:409   */\n      dup3\n        /* \"#utility.yul\":400:454   */\n      and\n        /* \"#utility.yul\":389:454   */\n      swap1\n      pop\n        /* \"#utility.yul\":334:460   */\n      swap2\n      swap1\n      pop\n      jump\t// out\n        /* \"#utility.yul\":466:562   */\n    tag_113:\n        /* \"#utility.yul\":503:510   */\n      0x00\n        /* \"#utility.yul\":532:556   */\n      tag_145\n        /* \"#utility.yul\":550:555   */\n      dup3\n        /* \"#utility.yul\":532:556   */\n      tag_112\n      jump\t// in\n    tag_145:\n        /* \"#utility.yul\":521:556   */\n      swap1\n      pop\n        /* \"#utility.yul\":466:562   */\n      swap2\n      swap1\n      pop\n      jump\t// out\n        /* \"#utility.yul\":568:690   */\n    tag_114:\n        /* \"#utility.yul\":641:665   */\n      tag_147\n        /* \"#utility.yul\":659:664   */\n      dup2\n        /* \"#utility.yul\":641:665   */\n      tag_113\n      jump\t// in\n    tag_147:\n        /* \"#utility.yul\":634:639   */\n      dup2\n        /* \"#utility.yul\":631:666   */\n      eq\n        /* \"#utility.yul\":621:684   */\n      tag_148\n      jumpi\n        /* \"#utility.yul\":680:681   */\n      0x00\n        /* \"#utility.yul\":677:678   */\n      0x00\n        /* \"#utility.yul\":670:682   */\n      revert\n        /* \"#utility.yul\":621:684   */\n    tag_148:\n        /* \"#utility.yul\":568:690   */\n      pop\n      jump\t// out\n        /* \"#utility.yul\":696:835   */\n    tag_115:\n        /* \"#utility.yul\":742:747   */\n      0x00\n        /* \"#utility.yul\":780:786   */\n      dup2\n        /* \"#utility.yul\":767:787   */\n      calldataload\n        /* \"#utility.yul\":758:787   */\n      swap1\n      pop\n        /* \"#utility.yul\":796:829   */\n      tag_150\n        /* \"#utility.yul\":823:828   */\n      dup2\n        /* \"#utility.yul\":796:829   */\n      tag_114\n      jump\t// in\n    tag_150:\n        /* \"#utility.yul\":696:835   */\n      swap3\n      swap2\n      pop\n      pop\n      jump\t// out\n        /* \"#utility.yul\":841:1170   */\n    tag_11:\n        /* \"#utility.yul\":900:906   */\n      0x00\n        /* \"#utility.yul\":949:951   */\n      0x20\n        /* \"#utility.yul\":937:946   */\n      dup3\n        /* \"#utility.yul\":928:935   */\n      dup5\n        /* \"#utility.yul\":924:947   */\n      sub\n        /* \"#utility.yul\":920:952   */\n      slt\n        /* \"#utility.yul\":917:1036   */\n      iszero\n      tag_152\n      jumpi\n        /* \"#utility.yul\":955:1034   */\n      tag_153\n      tag_110\n      jump\t// in\n    tag_153:\n        /* \"#utility.yul\":917:1036   */\n    tag_152:\n        /* \"#utility.yul\":1075:1076   */\n      0x00\n        /* \"#utility.yul\":1100:1153   */\n      tag_154\n        /* \"#utility.yul\":1145:1152   */\n      dup5\n        /* \"#utility.yul\":1136:1142   */\n      dup3\n        /* \"#utility.yul\":1125:1134   */\n      dup6\n        /* \"#utility.yul\":1121:1143   */\n      add\n        /* \"#utility.yul\":1100:1153   */\n      tag_115\n      jump\t// in\n    tag_154:\n        /* \"#utility.yul\":1090:1153   */\n      swap2\n      pop\n        /* \"#utility.yul\":1046:1163   */\n      pop\n        /* \"#utility.yul\":841:1170   */\n      swap3\n      swap2\n      pop\n      pop\n      jump\t// out\n        /* \"#utility.yul\":1176:1253   */\n    tag_116:\n        /* \"#utility.yul\":1213:1220   */\n      0x00\n        /* \"#utility.yul\":1242:1247   */\n      dup2\n        /* \"#utility.yul\":1231:1247   */\n      swap1\n      pop\n        /* \"#utility.yul\":1176:1253   */\n      swap2\n      swap1\n      pop\n      jump\t// out\n        /* \"#utility.yul\":1259:1381   */\n    tag_117:\n        /* \"#utility.yul\":1332:1356   */\n      tag_157\n        /* \"#utility.yul\":1350:1355   */\n      dup2\n        /* \"#utility.yul\":1332:1356   */\n      tag_116\n      jump\t// in\n    tag_157:\n        /* \"#utility.yul\":1325:1330   */\n      dup2\n        /* \"#utility.yul\":1322:1357   */\n      eq\n        /* \"#utility.yul\":1312:1375   */\n      tag_158\n      jumpi\n        /* \"#utility.yul\":1371:1372   */\n      0x00\n        /* \"#utility.yul\":1368:1369   */\n      0x00\n        /* \"#utility.yul\":1361:1373   */\n      revert\n        /* \"#utility.yul\":1312:1375   */\n    tag_158:\n        /* \"#utility.yul\":1259:1381   */\n      pop\n      jump\t// out\n        /* \"#utility.yul\":1387:1526   */\n    tag_118:\n        /* \"#utility.yul\":1433:1438   */\n      0x00\n        /* \"#utility.yul\":1471:1477   */\n      dup2\n        /* \"#utility.yul\":1458:1478   */\n      calldataload\n        /* \"#utility.yul\":1449:1478   */\n      swap1\n      pop\n        /* \"#utility.yul\":1487:1520   */\n      tag_160\n        /* \"#utility.yul\":1514:1519   */\n      dup2\n        /* \"#utility.yul\":1487:1520   */\n      tag_117\n      jump\t// in\n    tag_160:\n        /* \"#utility.yul\":1387:1526   */\n      swap3\n      swap2\n      pop\n      pop\n      jump\t// out\n        /* \"#utility.yul\":1532:2006   */\n    tag_15:\n        /* \"#utility.yul\":1600:1606   */\n      0x00\n        /* \"#utility.yul\":1608:1614   */\n      0x00\n        /* \"#utility.yul\":1657:1659   */\n      0x40\n        /* \"#utility.yul\":1645:1654   */\n      dup4\n        /* \"#utility.yul\":1636:1643   */\n      dup6\n        /* \"#utility.yul\":1632:1655   */\n      sub\n        /* \"#utility.yul\":1628:1660   */\n      slt\n        /* \"#utility.yul\":1625:1744   */\n      iszero\n      tag_162\n      jumpi\n        /* \"#utility.yul\":1663:1742   */\n      tag_163\n      tag_110\n      jump\t// in\n    tag_163:\n        /* \"#utility.yul\":1625:1744   */\n    tag_162:\n        /* \"#utility.yul\":1783:1784   */\n      0x00\n        /* \"#utility.yul\":1808:1861   */\n      tag_164\n        /* \"#utility.yul\":1853:1860   */\n      dup6\n        /* \"#utility.yul\":1844:1850   */\n      dup3\n        /* \"#utility.yul\":1833:1842   */\n      dup7\n        /* \"#utility.yul\":1829:1851   */\n      add\n        /* \"#utility.yul\":1808:1861   */\n      tag_118\n      jump\t// in\n    tag_164:\n        /* \"#utility.yul\":1798:1861   */\n      swap3\n      pop\n        /* \"#utility.yul\":1754:1871   */\n      pop\n        /* \"#utility.yul\":1910:1912   */\n      0x20\n        /* \"#utility.yul\":1936:1989   */\n      tag_165\n        /* \"#utility.yul\":1981:1988   */\n      dup6\n        /* \"#utility.yul\":1972:1978   */\n      dup3\n        /* \"#utility.yul\":1961:1970   */\n      dup7\n        /* \"#utility.yul\":1957:1979   */\n      add\n        /* \"#utility.yul\":1936:1989   */\n      tag_118\n      jump\t// in\n    tag_165:\n        /* \"#utility.yul\":1926:1989   */\n      swap2\n      pop\n        /* \"#utility.yul\":1881:1999   */\n      pop\n        /* \"#utility.yul\":1532:2006   */\n      swap3\n      pop\n      swap3\n      swap1\n      pop\n      jump\t// out\n        /* \"#utility.yul\":2012:2130   */\n    tag_119:\n        /* \"#utility.yul\":2099:2123   */\n      tag_167\n        /* \"#utility.yul\":2117:2122   */\n      dup2\n        /* \"#utility.yul\":2099:2123   */\n      tag_116\n      jump\t// in\n    tag_167:\n        /* \"#utility.yul\":2094:2097   */\n      dup3\n        /* \"#utility.yul\":2087:2124   */\n      mstore\n        /* \"#utility.yul\":2012:2130   */\n      pop\n      pop\n      jump\t// out\n        /* \"#utility.yul\":2136:2358   */\n    tag_18:\n        /* \"#utility.yul\":2229:2233   */\n      0x00\n        /* \"#utility.yul\":2267:2269   */\n      0x20\n        /* \"#utility.yul\":2256:2265   */\n      dup3\n        /* \"#utility.yul\":2252:2270   */\n      add\n        /* \"#utility.yul\":2244:2270   */\n      swap1\n      pop\n        /* \"#utility.yul\":2280:2351   */\n      tag_169\n        /* \"#utility.yul\":2348:2349   */\n      0x00\n        /* \"#utility.yul\":2337:2346   */\n      dup4\n        /* \"#utility.yul\":2333:2350   */\n      add\n        /* \"#utility.yul\":2324:2330   */\n      dup5\n        /* \"#utility.yul\":2280:2351   */\n      tag_119\n      jump\t// in\n    tag_169:\n        /* \"#utility.yul\":2136:2358   */\n      swap3\n      swap2\n      pop\n      pop\n      jump\t// out\n        /* \"#utility.yul\":2364:2693   */\n    tag_26:\n        /* \"#utility.yul\":2423:2429   */\n      0x00\n        /* \"#utility.yul\":2472:2474   */\n      0x20\n        /* \"#utility.yul\":2460:2469   */\n      dup3\n        /* \"#utility.yul\":2451:2458   */\n      dup5\n        /* \"#utility.yul\":2447:2470   */\n      sub\n        /* \"#utility.yul\":2443:2475   */\n      slt\n        /* \"#utility.yul\":2440:2559   */\n      iszero\n      tag_171\n      jumpi\n        /* \"#utility.yul\":2478:2557   */\n      tag_172\n      tag_110\n      jump\t// in\n    tag_172:\n        /* \"#utility.yul\":2440:2559   */\n    tag_171:\n        /* \"#utility.yul\":2598:2599   */\n      0x00\n        /* \"#utility.yul\":2623:2676   */\n      tag_173\n        /* \"#utility.yul\":2668:2675   */\n      dup5\n        /* \"#utility.yul\":2659:2665   */\n      dup3\n        /* \"#utility.yul\":2648:2657   */\n      dup6\n        /* \"#utility.yul\":2644:2666   */\n      add\n        /* \"#utility.yul\":2623:2676   */\n      tag_118\n      jump\t// in\n    tag_173:\n        /* \"#utility.yul\":2613:2676   */\n      swap2\n      pop\n        /* \"#utility.yul\":2569:2686   */\n      pop\n        /* \"#utility.yul\":2364:2693   */\n      swap3\n      swap2\n      pop\n      pop\n      jump\t// out\n        /* \"#utility.yul\":2699:2868   */\n    tag_120:\n        /* \"#utility.yul\":2783:2794   */\n      0x00\n        /* \"#utility.yul\":2817:2823   */\n      dup3\n        /* \"#utility.yul\":2812:2815   */\n      dup3\n        /* \"#utility.yul\":2805:2824   */\n      mstore\n        /* \"#utility.yul\":2857:2861   */\n      0x20\n        /* \"#utility.yul\":2852:2855   */\n      dup3\n        /* \"#utility.yul\":2848:2862   */\n      add\n        /* \"#utility.yul\":2833:2862   */\n      swap1\n      pop\n        /* \"#utility.yul\":2699:2868   */\n      swap3\n      swap2\n      pop\n      pop\n      jump\t// out\n        /* \"#utility.yul\":2874:3051   */\n    tag_121:\n        /* \"#utility.yul\":3014:3043   */\n      0x4f6e6c792074686520636f6e74726f6c6c65722063616e207573650000000000\n        /* \"#utility.yul\":3010:3011   */\n      0x00\n        /* \"#utility.yul\":3002:3008   */\n      dup3\n        /* \"#utility.yul\":2998:3012   */\n      add\n        /* \"#utility.yul\":2991:3044   */\n      mstore\n        /* \"#utility.yul\":2874:3051   */\n      pop\n      jump\t// out\n        /* \"#utility.yul\":3057:3423   */\n    tag_122:\n        /* \"#utility.yul\":3199:3202   */\n      0x00\n        /* \"#utility.yul\":3220:3287   */\n      tag_177\n        /* \"#utility.yul\":3284:3286   */\n      0x1b\n        /* \"#utility.yul\":3279:3282   */\n      dup4\n        /* \"#utility.yul\":3220:3287   */\n      tag_120\n      jump\t// in\n    tag_177:\n        /* \"#utility.yul\":3213:3287   */\n      swap2\n      pop\n        /* \"#utility.yul\":3296:3389   */\n      tag_178\n        /* \"#utility.yul\":3385:3388   */\n      dup3\n        /* \"#utility.yul\":3296:3389   */\n      tag_121\n      jump\t// in\n    tag_178:\n        /* \"#utility.yul\":3414:3416   */\n      0x20\n        /* \"#utility.yul\":3409:3412   */\n      dup3\n        /* \"#utility.yul\":3405:3417   */\n      add\n        /* \"#utility.yul\":3398:3417   */\n      swap1\n      pop\n        /* \"#utility.yul\":3057:3423   */\n      swap2\n      swap1\n      pop\n      jump\t// out\n        /* \"#utility.yul\":3429:3848   */\n    tag_33:\n        /* \"#utility.yul\":3595:3599   */\n      0x00\n        /* \"#utility.yul\":3633:3635   */\n      0x20\n        /* \"#utility.yul\":3622:3631   */\n      dup3\n        /* \"#utility.yul\":3618:3636   */\n      add\n        /* \"#utility.yul\":3610:3636   */\n      swap1\n      pop\n        /* \"#utility.yul\":3682:3691   */\n      dup2\n        /* \"#utility.yul\":3676:3680   */\n      dup2\n        /* \"#utility.yul\":3672:3692   */\n      sub\n        /* \"#utility.yul\":3668:3669   */\n      0x00\n        /* \"#utility.yul\":3657:3666   */\n      dup4\n        /* \"#utility.yul\":3653:3670   */\n      add\n        /* \"#utility.yul\":3646:3693   */\n      mstore\n        /* \"#utility.yul\":3710:3841   */\n      tag_180\n        /* \"#utility.yul\":3836:3840   */\n      dup2\n        /* \"#utility.yul\":3710:3841   */\n      tag_122\n      jump\t// in\n    tag_180:\n        /* \"#utility.yul\":3702:3841   */\n      swap1\n      pop\n        /* \"#utility.yul\":3429:3848   */\n      swap2\n      swap1\n      pop\n      jump\t// out\n        /* \"#utility.yul\":3854:4027   */\n    tag_123:\n        /* \"#utility.yul\":3994:4019   */\n      0x506c65617365207365742061206e6577206f776e65722e000000000000000000\n        /* \"#utility.yul\":3990:3991   */\n      0x00\n        /* \"#utility.yul\":3982:3988   */\n      dup3\n        /* \"#utility.yul\":3978:3992   */\n      add\n        /* \"#utility.yul\":3971:4020   */\n      mstore\n        /* \"#utility.yul\":3854:4027   */\n      pop\n      jump\t// out\n        /* \"#utility.yul\":4033:4399   */\n    tag_124:\n        /* \"#utility.yul\":4175:4178   */\n      0x00\n        /* \"#utility.yul\":4196:4263   */\n      tag_183\n        /* \"#utility.yul\":4260:4262   */\n      0x17\n        /* \"#utility.yul\":4255:4258   */\n      dup4\n        /* \"#utility.yul\":4196:4263   */\n      tag_120\n      jump\t// in\n    tag_183:\n        /* \"#utility.yul\":4189:4263   */\n      swap2\n      pop\n        /* \"#utility.yul\":4272:4365   */\n      tag_184\n        /* \"#utility.yul\":4361:4364   */\n      dup3\n        /* \"#utility.yul\":4272:4365   */\n      tag_123\n      jump\t// in\n    tag_184:\n        /* \"#utility.yul\":4390:4392   */\n      0x20\n        /* \"#utility.yul\":4385:4388   */\n      dup3\n        /* \"#utility.yul\":4381:4393   */\n      add\n        /* \"#utility.yul\":4374:4393   */\n      swap1\n      pop\n        /* \"#utility.yul\":4033:4399   */\n      swap2\n      swap1\n      pop\n      jump\t// out\n        /* \"#utility.yul\":4405:4824   */\n    tag_37:\n        /* \"#utility.yul\":4571:4575   */\n      0x00\n        /* \"#utility.yul\":4609:4611   */\n      0x20\n        /* \"#utility.yul\":4598:4607   */\n      dup3\n        /* \"#utility.yul\":4594:4612   */\n      add\n        /* \"#utility.yul\":4586:4612   */\n      swap1\n      pop\n        /* \"#utility.yul\":4658:4667   */\n      dup2\n        /* \"#utility.yul\":4652:4656   */\n      dup2\n        /* \"#utility.yul\":4648:4668   */\n      sub\n        /* \"#utility.yul\":4644:4645   */\n      0x00\n        /* \"#utility.yul\":4633:4642   */\n      dup4\n        /* \"#utility.yul\":4629:4646   */\n      add\n        /* \"#utility.yul\":4622:4669   */\n      mstore\n        /* \"#utility.yul\":4686:4817   */\n      tag_186\n        /* \"#utility.yul\":4812:4816   */\n      dup2\n        /* \"#utility.yul\":4686:4817   */\n      tag_124\n      jump\t// in\n    tag_186:\n        /* \"#utility.yul\":4678:4817   */\n      swap1\n      pop\n        /* \"#utility.yul\":4405:4824   */\n      swap2\n      swap1\n      pop\n      jump\t// out\n        /* \"#utility.yul\":4830:5010   */\n    tag_125:\n        /* \"#utility.yul\":4878:4955   */\n      0x4e487b7100000000000000000000000000000000000000000000000000000000\n        /* \"#utility.yul\":4875:4876   */\n      0x00\n        /* \"#utility.yul\":4868:4956   */\n      mstore\n        /* \"#utility.yul\":4975:4979   */\n      0x11\n        /* \"#utility.yul\":4972:4973   */\n      0x04\n        /* \"#utility.yul\":4965:4980   */\n      mstore\n        /* \"#utility.yul\":4999:5003   */\n      0x24\n        /* \"#utility.yul\":4996:4997   */\n      0x00\n        /* \"#utility.yul\":4989:5004   */\n      revert\n        /* \"#utility.yul\":5016:5426   */\n    tag_41:\n        /* \"#utility.yul\":5056:5063   */\n      0x00\n        /* \"#utility.yul\":5079:5099   */\n      tag_189\n        /* \"#utility.yul\":5097:5098   */\n      dup3\n        /* \"#utility.yul\":5079:5099   */\n      tag_116\n      jump\t// in\n    tag_189:\n        /* \"#utility.yul\":5074:5099   */\n      swap2\n      pop\n        /* \"#utility.yul\":5113:5133   */\n      tag_190\n        /* \"#utility.yul\":5131:5132   */\n      dup4\n        /* \"#utility.yul\":5113:5133   */\n      tag_116\n      jump\t// in\n    tag_190:\n        /* \"#utility.yul\":5108:5133   */\n      swap3\n      pop\n        /* \"#utility.yul\":5168:5169   */\n      dup3\n        /* \"#utility.yul\":5165:5166   */\n      dup3\n        /* \"#utility.yul\":5161:5170   */\n      mul\n        /* \"#utility.yul\":5190:5220   */\n      tag_191\n        /* \"#utility.yul\":5208:5219   */\n      dup2\n        /* \"#utility.yul\":5190:5220   */\n      tag_116\n      jump\t// in\n    tag_191:\n        /* \"#utility.yul\":5179:5220   */\n      swap2\n      pop\n        /* \"#utility.yul\":5369:5370   */\n      dup3\n        /* \"#utility.yul\":5360:5367   */\n      dup3\n        /* \"#utility.yul\":5356:5371   */\n      div\n        /* \"#utility.yul\":5353:5354   */\n      dup5\n        /* \"#utility.yul\":5350:5372   */\n      eq\n        /* \"#utility.yul\":5330:5331   */\n      dup4\n        /* \"#utility.yul\":5323:5332   */\n      iszero\n        /* \"#utility.yul\":5303:5386   */\n      or\n        /* \"#utility.yul\":5280:5419   */\n      tag_192\n      jumpi\n        /* \"#utility.yul\":5399:5417   */\n      tag_193\n      tag_125\n      jump\t// in\n    tag_193:\n        /* \"#utility.yul\":5280:5419   */\n    tag_192:\n        /* \"#utility.yul\":5064:5426   */\n      pop\n        /* \"#utility.yul\":5016:5426   */\n      swap3\n      swap2\n      pop\n      pop\n      jump\t// out\n        /* \"#utility.yul\":5432:5653   */\n    tag_126:\n        /* \"#utility.yul\":5572:5606   */\n      0x496e76616c696420646179732c206d7573742062652033302c203630206f7220\n        /* \"#utility.yul\":5568:5569   */\n      0x00\n        /* \"#utility.yul\":5560:5566   */\n      dup3\n        /* \"#utility.yul\":5556:5570   */\n      add\n        /* \"#utility.yul\":5549:5607   */\n      mstore\n        /* \"#utility.yul\":5641:5645   */\n      0x3930000000000000000000000000000000000000000000000000000000000000\n        /* \"#utility.yul\":5636:5638   */\n      0x20\n        /* \"#utility.yul\":5628:5634   */\n      dup3\n        /* \"#utility.yul\":5624:5639   */\n      add\n        /* \"#utility.yul\":5617:5646   */\n      mstore\n        /* \"#utility.yul\":5432:5653   */\n      pop\n      jump\t// out\n        /* \"#utility.yul\":5659:6025   */\n    tag_127:\n        /* \"#utility.yul\":5801:5804   */\n      0x00\n        /* \"#utility.yul\":5822:5889   */\n      tag_196\n        /* \"#utility.yul\":5886:5888   */\n      0x22\n        /* \"#utility.yul\":5881:5884   */\n      dup4\n        /* \"#utility.yul\":5822:5889   */\n      tag_120\n      jump\t// in\n    tag_196:\n        /* \"#utility.yul\":5815:5889   */\n      swap2\n      pop\n        /* \"#utility.yul\":5898:5991   */\n      tag_197\n        /* \"#utility.yul\":5987:5990   */\n      dup3\n        /* \"#utility.yul\":5898:5991   */\n      tag_126\n      jump\t// in\n    tag_197:\n        /* \"#utility.yul\":6016:6018   */\n      0x40\n        /* \"#utility.yul\":6011:6014   */\n      dup3\n        /* \"#utility.yul\":6007:6019   */\n      add\n        /* \"#utility.yul\":6000:6019   */\n      swap1\n      pop\n        /* \"#utility.yul\":5659:6025   */\n      swap2\n      swap1\n      pop\n      jump\t// out\n        /* \"#utility.yul\":6031:6450   */\n    tag_60:\n        /* \"#utility.yul\":6197:6201   */\n      0x00\n        /* \"#utility.yul\":6235:6237   */\n      0x20\n        /* \"#utility.yul\":6224:6233   */\n      dup3\n        /* \"#utility.yul\":6220:6238   */\n      add\n        /* \"#utility.yul\":6212:6238   */\n      swap1\n      pop\n        /* \"#utility.yul\":6284:6293   */\n      dup2\n        /* \"#utility.yul\":6278:6282   */\n      dup2\n        /* \"#utility.yul\":6274:6294   */\n      sub\n        /* \"#utility.yul\":6270:6271   */\n      0x00\n        /* \"#utility.yul\":6259:6268   */\n      dup4\n        /* \"#utility.yul\":6255:6272   */\n      add\n        /* \"#utility.yul\":6248:6295   */\n      mstore\n        /* \"#utility.yul\":6312:6443   */\n      tag_199\n        /* \"#utility.yul\":6438:6442   */\n      dup2\n        /* \"#utility.yul\":6312:6443   */\n      tag_127\n      jump\t// in\n    tag_199:\n        /* \"#utility.yul\":6304:6443   */\n      swap1\n      pop\n        /* \"#utility.yul\":6031:6450   */\n      swap2\n      swap1\n      pop\n      jump\t// out\n        /* \"#utility.yul\":6456:6574   */\n    tag_128:\n        /* \"#utility.yul\":6543:6567   */\n      tag_201\n        /* \"#utility.yul\":6561:6566   */\n      dup2\n        /* \"#utility.yul\":6543:6567   */\n      tag_113\n      jump\t// in\n    tag_201:\n        /* \"#utility.yul\":6538:6541   */\n      dup3\n        /* \"#utility.yul\":6531:6568   */\n      mstore\n        /* \"#utility.yul\":6456:6574   */\n      pop\n      pop\n      jump\t// out\n        /* \"#utility.yul\":6580:6912   */\n    tag_62:\n        /* \"#utility.yul\":6701:6705   */\n      0x00\n        /* \"#utility.yul\":6739:6741   */\n      0x40\n        /* \"#utility.yul\":6728:6737   */\n      dup3\n        /* \"#utility.yul\":6724:6742   */\n      add\n        /* \"#utility.yul\":6716:6742   */\n      swap1\n      pop\n        /* \"#utility.yul\":6752:6823   */\n      tag_203\n        /* \"#utility.yul\":6820:6821   */\n      0x00\n        /* \"#utility.yul\":6809:6818   */\n      dup4\n        /* \"#utility.yul\":6805:6822   */\n      add\n        /* \"#utility.yul\":6796:6802   */\n      dup6\n        /* \"#utility.yul\":6752:6823   */\n      tag_128\n      jump\t// in\n    tag_203:\n        /* \"#utility.yul\":6833:6905   */\n      tag_204\n        /* \"#utility.yul\":6901:6903   */\n      0x20\n        /* \"#utility.yul\":6890:6899   */\n      dup4\n        /* \"#utility.yul\":6886:6904   */\n      add\n        /* \"#utility.yul\":6877:6883   */\n      dup5\n        /* \"#utility.yul\":6833:6905   */\n      tag_119\n      jump\t// in\n    tag_204:\n        /* \"#utility.yul\":6580:6912   */\n      swap4\n      swap3\n      pop\n      pop\n      pop\n      jump\t// out\n        /* \"#utility.yul\":6918:7008   */\n    tag_129:\n        /* \"#utility.yul\":6952:6959   */\n      0x00\n        /* \"#utility.yul\":6995:7000   */\n      dup2\n        /* \"#utility.yul\":6988:7001   */\n      iszero\n        /* \"#utility.yul\":6981:7002   */\n      iszero\n        /* \"#utility.yul\":6970:7002   */\n      swap1\n      pop\n        /* \"#utility.yul\":6918:7008   */\n      swap2\n      swap1\n      pop\n      jump\t// out\n        /* \"#utility.yul\":7014:7130   */\n    tag_130:\n        /* \"#utility.yul\":7084:7105   */\n      tag_207\n        /* \"#utility.yul\":7099:7104   */\n      dup2\n        /* \"#utility.yul\":7084:7105   */\n      tag_129\n      jump\t// in\n    tag_207:\n        /* \"#utility.yul\":7077:7082   */\n      dup2\n        /* \"#utility.yul\":7074:7106   */\n      eq\n        /* \"#utility.yul\":7064:7124   */\n      tag_208\n      jumpi\n        /* \"#utility.yul\":7120:7121   */\n      0x00\n        /* \"#utility.yul\":7117:7118   */\n      0x00\n        /* \"#utility.yul\":7110:7122   */\n      revert\n        /* \"#utility.yul\":7064:7124   */\n    tag_208:\n        /* \"#utility.yul\":7014:7130   */\n      pop\n      jump\t// out\n        /* \"#utility.yul\":7136:7273   */\n    tag_131:\n        /* \"#utility.yul\":7190:7195   */\n      0x00\n        /* \"#utility.yul\":7221:7227   */\n      dup2\n        /* \"#utility.yul\":7215:7228   */\n      mload\n        /* \"#utility.yul\":7206:7228   */\n      swap1\n      pop\n        /* \"#utility.yul\":7237:7267   */\n      tag_210\n        /* \"#utility.yul\":7261:7266   */\n      dup2\n        /* \"#utility.yul\":7237:7267   */\n      tag_130\n      jump\t// in\n    tag_210:\n        /* \"#utility.yul\":7136:7273   */\n      swap3\n      swap2\n      pop\n      pop\n      jump\t// out\n        /* \"#utility.yul\":7279:7624   */\n    tag_66:\n        /* \"#utility.yul\":7346:7352   */\n      0x00\n        /* \"#utility.yul\":7395:7397   */\n      0x20\n        /* \"#utility.yul\":7383:7392   */\n      dup3\n        /* \"#utility.yul\":7374:7381   */\n      dup5\n        /* \"#utility.yul\":7370:7393   */\n      sub\n        /* \"#utility.yul\":7366:7398   */\n      slt\n        /* \"#utility.yul\":7363:7482   */\n      iszero\n      tag_212\n      jumpi\n        /* \"#utility.yul\":7401:7480   */\n      tag_213\n      tag_110\n      jump\t// in\n    tag_213:\n        /* \"#utility.yul\":7363:7482   */\n    tag_212:\n        /* \"#utility.yul\":7521:7522   */\n      0x00\n        /* \"#utility.yul\":7546:7607   */\n      tag_214\n        /* \"#utility.yul\":7599:7606   */\n      dup5\n        /* \"#utility.yul\":7590:7596   */\n      dup3\n        /* \"#utility.yul\":7579:7588   */\n      dup6\n        /* \"#utility.yul\":7575:7597   */\n      add\n        /* \"#utility.yul\":7546:7607   */\n      tag_131\n      jump\t// in\n    tag_214:\n        /* \"#utility.yul\":7536:7607   */\n      swap2\n      pop\n        /* \"#utility.yul\":7492:7617   */\n      pop\n        /* \"#utility.yul\":7279:7624   */\n      swap3\n      swap2\n      pop\n      pop\n      jump\t// out\n        /* \"#utility.yul\":7630:7799   */\n    tag_132:\n        /* \"#utility.yul\":7770:7791   */\n      0x5553445420617070726f7665206661696c656400000000000000000000000000\n        /* \"#utility.yul\":7766:7767   */\n      0x00\n        /* \"#utility.yul\":7758:7764   */\n      dup3\n        /* \"#utility.yul\":7754:7768   */\n      add\n        /* \"#utility.yul\":7747:7792   */\n      mstore\n        /* \"#utility.yul\":7630:7799   */\n      pop\n      jump\t// out\n        /* \"#utility.yul\":7805:8171   */\n    tag_133:\n        /* \"#utility.yul\":7947:7950   */\n      0x00\n        /* \"#utility.yul\":7968:8035   */\n      tag_217\n        /* \"#utility.yul\":8032:8034   */\n      0x13\n        /* \"#utility.yul\":8027:8030   */\n      dup4\n        /* \"#utility.yul\":7968:8035   */\n      tag_120\n      jump\t// in\n    tag_217:\n        /* \"#utility.yul\":7961:8035   */\n      swap2\n      pop\n        /* \"#utility.yul\":8044:8137   */\n      tag_218\n        /* \"#utility.yul\":8133:8136   */\n      dup3\n        /* \"#utility.yul\":8044:8137   */\n      tag_132\n      jump\t// in\n    tag_218:\n        /* \"#utility.yul\":8162:8164   */\n      0x20\n        /* \"#utility.yul\":8157:8160   */\n      dup3\n        /* \"#utility.yul\":8153:8165   */\n      add\n        /* \"#utility.yul\":8146:8165   */\n      swap1\n      pop\n        /* \"#utility.yul\":7805:8171   */\n      swap2\n      swap1\n      pop\n      jump\t// out\n        /* \"#utility.yul\":8177:8596   */\n    tag_69:\n        /* \"#utility.yul\":8343:8347   */\n      0x00\n        /* \"#utility.yul\":8381:8383   */\n      0x20\n        /* \"#utility.yul\":8370:8379   */\n      dup3\n        /* \"#utility.yul\":8366:8384   */\n      add\n        /* \"#utility.yul\":8358:8384   */\n      swap1\n      pop\n        /* \"#utility.yul\":8430:8439   */\n      dup2\n        /* \"#utility.yul\":8424:8428   */\n      dup2\n        /* \"#utility.yul\":8420:8440   */\n      sub\n        /* \"#utility.yul\":8416:8417   */\n      0x00\n        /* \"#utility.yul\":8405:8414   */\n      dup4\n        /* \"#utility.yul\":8401:8418   */\n      add\n        /* \"#utility.yul\":8394:8441   */\n      mstore\n        /* \"#utility.yul\":8458:8589   */\n      tag_220\n        /* \"#utility.yul\":8584:8588   */\n      dup2\n        /* \"#utility.yul\":8458:8589   */\n      tag_133\n      jump\t// in\n    tag_220:\n        /* \"#utility.yul\":8450:8589   */\n      swap1\n      pop\n        /* \"#utility.yul\":8177:8596   */\n      swap2\n      swap1\n      pop\n      jump\t// out\n        /* \"#utility.yul\":8602:8780   */\n    tag_134:\n        /* \"#utility.yul\":8742:8772   */\n      0x506c65617365207365742061206e657720636f6e74726f6c6c65722e00000000\n        /* \"#utility.yul\":8738:8739   */\n      0x00\n        /* \"#utility.yul\":8730:8736   */\n      dup3\n        /* \"#utility.yul\":8726:8740   */\n      add\n        /* \"#utility.yul\":8719:8773   */\n      mstore\n        /* \"#utility.yul\":8602:8780   */\n      pop\n      jump\t// out\n        /* \"#utility.yul\":8786:9152   */\n    tag_135:\n        /* \"#utility.yul\":8928:8931   */\n      0x00\n        /* \"#utility.yul\":8949:9016   */\n      tag_223\n        /* \"#utility.yul\":9013:9015   */\n      0x1c\n        /* \"#utility.yul\":9008:9011   */\n      dup4\n        /* \"#utility.yul\":8949:9016   */\n      tag_120\n      jump\t// in\n    tag_223:\n        /* \"#utility.yul\":8942:9016   */\n      swap2\n      pop\n        /* \"#utility.yul\":9025:9118   */\n      tag_224\n        /* \"#utility.yul\":9114:9117   */\n      dup3\n        /* \"#utility.yul\":9025:9118   */\n      tag_134\n      jump\t// in\n    tag_224:\n        /* \"#utility.yul\":9143:9145   */\n      0x20\n        /* \"#utility.yul\":9138:9141   */\n      dup3\n        /* \"#utility.yul\":9134:9146   */\n      add\n        /* \"#utility.yul\":9127:9146   */\n      swap1\n      pop\n        /* \"#utility.yul\":8786:9152   */\n      swap2\n      swap1\n      pop\n      jump\t// out\n        /* \"#utility.yul\":9158:9577   */\n    tag_80:\n        /* \"#utility.yul\":9324:9328   */\n      0x00\n        /* \"#utility.yul\":9362:9364   */\n      0x20\n        /* \"#utility.yul\":9351:9360   */\n      dup3\n        /* \"#utility.yul\":9347:9365   */\n      add\n        /* \"#utility.yul\":9339:9365   */\n      swap1\n      pop\n        /* \"#utility.yul\":9411:9420   */\n      dup2\n        /* \"#utility.yul\":9405:9409   */\n      dup2\n        /* \"#utility.yul\":9401:9421   */\n      sub\n        /* \"#utility.yul\":9397:9398   */\n      0x00\n        /* \"#utility.yul\":9386:9395   */\n      dup4\n        /* \"#utility.yul\":9382:9399   */\n      add\n        /* \"#utility.yul\":9375:9422   */\n      mstore\n        /* \"#utility.yul\":9439:9570   */\n      tag_226\n        /* \"#utility.yul\":9565:9569   */\n      dup2\n        /* \"#utility.yul\":9439:9570   */\n      tag_135\n      jump\t// in\n    tag_226:\n        /* \"#utility.yul\":9431:9570   */\n      swap1\n      pop\n        /* \"#utility.yul\":9158:9577   */\n      swap2\n      swap1\n      pop\n      jump\t// out\n        /* \"#utility.yul\":9583:10025   */\n    tag_83:\n        /* \"#utility.yul\":9732:9736   */\n      0x00\n        /* \"#utility.yul\":9770:9772   */\n      0x60\n        /* \"#utility.yul\":9759:9768   */\n      dup3\n        /* \"#utility.yul\":9755:9773   */\n      add\n        /* \"#utility.yul\":9747:9773   */\n      swap1\n      pop\n        /* \"#utility.yul\":9783:9854   */\n      tag_228\n        /* \"#utility.yul\":9851:9852   */\n      0x00\n        /* \"#utility.yul\":9840:9849   */\n      dup4\n        /* \"#utility.yul\":9836:9853   */\n      add\n        /* \"#utility.yul\":9827:9833   */\n      dup7\n        /* \"#utility.yul\":9783:9854   */\n      tag_128\n      jump\t// in\n    tag_228:\n        /* \"#utility.yul\":9864:9936   */\n      tag_229\n        /* \"#utility.yul\":9932:9934   */\n      0x20\n        /* \"#utility.yul\":9921:9930   */\n      dup4\n        /* \"#utility.yul\":9917:9935   */\n      add\n        /* \"#utility.yul\":9908:9914   */\n      dup6\n        /* \"#utility.yul\":9864:9936   */\n      tag_128\n      jump\t// in\n    tag_229:\n        /* \"#utility.yul\":9946:10018   */\n      tag_230\n        /* \"#utility.yul\":10014:10016   */\n      0x40\n        /* \"#utility.yul\":10003:10012   */\n      dup4\n        /* \"#utility.yul\":9999:10017   */\n      add\n        /* \"#utility.yul\":9990:9996   */\n      dup5\n        /* \"#utility.yul\":9946:10018   */\n      tag_119\n      jump\t// in\n    tag_230:\n        /* \"#utility.yul\":9583:10025   */\n      swap5\n      swap4\n      pop\n      pop\n      pop\n      pop\n      jump\t// out\n        /* \"#utility.yul\":10031:10201   */\n    tag_136:\n        /* \"#utility.yul\":10171:10193   */\n      0x55534454207472616e73666572206661696c6564000000000000000000000000\n        /* \"#utility.yul\":10167:10168   */\n      0x00\n        /* \"#utility.yul\":10159:10165   */\n      dup3\n        /* \"#utility.yul\":10155:10169   */\n      add\n        /* \"#utility.yul\":10148:10194   */\n      mstore\n        /* \"#utility.yul\":10031:10201   */\n      pop\n      jump\t// out\n        /* \"#utility.yul\":10207:10573   */\n    tag_137:\n        /* \"#utility.yul\":10349:10352   */\n      0x00\n        /* \"#utility.yul\":10370:10437   */\n      tag_233\n        /* \"#utility.yul\":10434:10436   */\n      0x14\n        /* \"#utility.yul\":10429:10432   */\n      dup4\n        /* \"#utility.yul\":10370:10437   */\n      tag_120\n      jump\t// in\n    tag_233:\n        /* \"#utility.yul\":10363:10437   */\n      swap2\n      pop\n        /* \"#utility.yul\":10446:10539   */\n      tag_234\n        /* \"#utility.yul\":10535:10538   */\n      dup3\n        /* \"#utility.yul\":10446:10539   */\n      tag_136\n      jump\t// in\n    tag_234:\n        /* \"#utility.yul\":10564:10566   */\n      0x20\n        /* \"#utility.yul\":10559:10562   */\n      dup3\n        /* \"#utility.yul\":10555:10567   */\n      add\n        /* \"#utility.yul\":10548:10567   */\n      swap1\n      pop\n        /* \"#utility.yul\":10207:10573   */\n      swap2\n      swap1\n      pop\n      jump\t// out\n        /* \"#utility.yul\":10579:10998   */\n    tag_89:\n        /* \"#utility.yul\":10745:10749   */\n      0x00\n        /* \"#utility.yul\":10783:10785   */\n      0x20\n        /* \"#utility.yul\":10772:10781   */\n      dup3\n        /* \"#utility.yul\":10768:10786   */\n      add\n        /* \"#utility.yul\":10760:10786   */\n      swap1\n      pop\n        /* \"#utility.yul\":10832:10841   */\n      dup2\n        /* \"#utility.yul\":10826:10830   */\n      dup2\n        /* \"#utility.yul\":10822:10842   */\n      sub\n        /* \"#utility.yul\":10818:10819   */\n      0x00\n        /* \"#utility.yul\":10807:10816   */\n      dup4\n        /* \"#utility.yul\":10803:10820   */\n      add\n        /* \"#utility.yul\":10796:10843   */\n      mstore\n        /* \"#utility.yul\":10860:10991   */\n      tag_236\n        /* \"#utility.yul\":10986:10990   */\n      dup2\n        /* \"#utility.yul\":10860:10991   */\n      tag_137\n      jump\t// in\n    tag_236:\n        /* \"#utility.yul\":10852:10991   */\n      swap1\n      pop\n        /* \"#utility.yul\":10579:10998   */\n      swap2\n      swap1\n      pop\n      jump\t// out\n        /* \"#utility.yul\":11004:11226   */\n    tag_100:\n        /* \"#utility.yul\":11097:11101   */\n      0x00\n        /* \"#utility.yul\":11135:11137   */\n      0x20\n        /* \"#utility.yul\":11124:11133   */\n      dup3\n        /* \"#utility.yul\":11120:11138   */\n      add\n        /* \"#utility.yul\":11112:11138   */\n      swap1\n      pop\n        /* \"#utility.yul\":11148:11219   */\n      tag_238\n        /* \"#utility.yul\":11216:11217   */\n      0x00\n        /* \"#utility.yul\":11205:11214   */\n      dup4\n        /* \"#utility.yul\":11201:11218   */\n      add\n        /* \"#utility.yul\":11192:11198   */\n      dup5\n        /* \"#utility.yul\":11148:11219   */\n      tag_128\n      jump\t// in\n    tag_238:\n        /* \"#utility.yul\":11004:11226   */\n      swap3\n      swap2\n      pop\n      pop\n      jump\t// out\n        /* \"#utility.yul\":11232:11375   */\n    tag_138:\n        /* \"#utility.yul\":11289:11294   */\n      0x00\n        /* \"#utility.yul\":11320:11326   */\n      dup2\n        /* \"#utility.yul\":11314:11327   */\n      mload\n        /* \"#utility.yul\":11305:11327   */\n      swap1\n      pop\n        /* \"#utility.yul\":11336:11369   */\n      tag_240\n        /* \"#utility.yul\":11363:11368   */\n      dup2\n        /* \"#utility.yul\":11336:11369   */\n      tag_117\n      jump\t// in\n    tag_240:\n        /* \"#utility.yul\":11232:11375   */\n      swap3\n      swap2\n      pop\n      pop\n      jump\t// out\n        /* \"#utility.yul\":11381:11732   */\n    tag_104:\n        /* \"#utility.yul\":11451:11457   */\n      0x00\n        /* \"#utility.yul\":11500:11502   */\n      0x20\n        /* \"#utility.yul\":11488:11497   */\n      dup3\n        /* \"#utility.yul\":11479:11486   */\n      dup5\n        /* \"#utility.yul\":11475:11498   */\n      sub\n        /* \"#utility.yul\":11471:11503   */\n      slt\n        /* \"#utility.yul\":11468:11587   */\n      iszero\n      tag_242\n      jumpi\n        /* \"#utility.yul\":11506:11585   */\n      tag_243\n      tag_110\n      jump\t// in\n    tag_243:\n        /* \"#utility.yul\":11468:11587   */\n    tag_242:\n        /* \"#utility.yul\":11626:11627   */\n      0x00\n        /* \"#utility.yul\":11651:11715   */\n      tag_244\n        /* \"#utility.yul\":11707:11714   */\n      dup5\n        /* \"#utility.yul\":11698:11704   */\n      dup3\n        /* \"#utility.yul\":11687:11696   */\n      dup6\n        /* \"#utility.yul\":11683:11705   */\n      add\n        /* \"#utility.yul\":11651:11715   */\n      tag_138\n      jump\t// in\n    tag_244:\n        /* \"#utility.yul\":11641:11715   */\n      swap2\n      pop\n        /* \"#utility.yul\":11597:11725   */\n      pop\n        /* \"#utility.yul\":11381:11732   */\n      swap3\n      swap2\n      pop\n      pop\n      jump\t// out\n\n    auxdata: 0xa2646970667358221220f8d44ff2d3736a1352a6a5fc6034d90866b9217a36959a79d8dd919dbf84468764736f6c634300081b0033\n}\n",
				"bytecode": {
					"linkReferences": {},
					"object": "60806040525f5f5f6101000a81548160ff021916908315150217905550348015610027575f5ffd5b50604051611293380380611293833981810160405281019061004991906101c4565b825f60016101000a81548173ffffffffffffffffffffffffffffffffffffffff021916908373ffffffffffffffffffffffffffffffffffffffff1602179055508160015f6101000a81548173ffffffffffffffffffffffffffffffffffffffff021916908373ffffffffffffffffffffffffffffffffffffffff160217905550600160025f8473ffffffffffffffffffffffffffffffffffffffff1673ffffffffffffffffffffffffffffffffffffffff1681526020019081526020015f205f6101000a81548160ff0219169083151502179055508060035f6101000a81548173ffffffffffffffffffffffffffffffffffffffff021916908373ffffffffffffffffffffffffffffffffffffffff160217905550505050610214565b5f5ffd5b5f73ffffffffffffffffffffffffffffffffffffffff82169050919050565b5f6101938261016a565b9050919050565b6101a381610189565b81146101ad575f5ffd5b50565b5f815190506101be8161019a565b92915050565b5f5f5f606084860312156101db576101da610166565b5b5f6101e8868287016101b0565b93505060206101f9868287016101b0565b925050604061020a868287016101b0565b9150509250925092565b611072806102215f395ff3fe608060405234801561000f575f5ffd5b5060043610610060575f3560e01c806313af4035146100645780633b211c4c1461008057806384c02ba9146100b057806392eefe9b146100ba578063a6c41b4d146100d6578063aad0e6eb146100f2575b5f5ffd5b61007e60048036038101906100799190610b16565b6100fc565b005b61009a60048036038101906100959190610b74565b610257565b6040516100a79190610bc1565b60405180910390f35b6100b8610445565b005b6100d460048036038101906100cf9190610b16565b6104f6565b005b6100f060048036038101906100eb9190610bda565b61071b565b005b6100fa6108d2565b005b60025f3373ffffffffffffffffffffffffffffffffffffffff1673ffffffffffffffffffffffffffffffffffffffff1681526020019081526020015f205f9054906101000a900460ff16610185576040517f08c379a000000000000000000000000000000000000000000000000000000000815260040161017c90610c5f565b60405180910390fd5b5f60019054906101000a900473ffffffffffffffffffffffffffffffffffffffff1673ffffffffffffffffffffffffffffffffffffffff168173ffffffffffffffffffffffffffffffffffffffff1603610214576040517f08c379a000000000000000000000000000000000000000000000000000000000815260040161020b90610cc7565b60405180910390fd5b805f60016101000a81548173ffffffffffffffffffffffffffffffffffffffff021916908373ffffffffffffffffffffffffffffffffffffffff16021790555050565b5f5f601e8303610299576103e8600f600685876102749190610d12565b61027e9190610d12565b6102889190610d12565b6102929190610d12565b905061035b565b603c83036102d9576103e8600d600685876102b49190610d12565b6102be9190610d12565b6102c89190610d12565b6102d29190610d12565b905061035a565b605a8303610318576064607d600685876102f39190610d12565b6102fd9190610d12565b6103079190610d12565b6103119190610d12565b9050610359565b5f610358576040517f08c379a000000000000000000000000000000000000000000000000000000000815260040161034f90610dc3565b60405180910390fd5b5b5b5b5f60035f9054906101000a900473ffffffffffffffffffffffffffffffffffffffff1673ffffffffffffffffffffffffffffffffffffffff1663095ea7b333846040518363ffffffff1660e01b81526004016103b8929190610df0565b6020604051808303815f875af11580156103d4573d5f5f3e3d5ffd5b505050506040513d601f19601f820116820180604052508101906103f89190610e4c565b90508061043a576040517f08c379a000000000000000000000000000000000000000000000000000000000815260040161043190610ec1565b60405180910390fd5b819250505092915050565b60025f3373ffffffffffffffffffffffffffffffffffffffff1673ffffffffffffffffffffffffffffffffffffffff1681526020019081526020015f205f9054906101000a900460ff166104ce576040517f08c379a00000000000000000000000000000000000000000000000000000000081526004016104c590610c5f565b60405180910390fd5b5f5f9054906101000a900460ff16155f5f6101000a81548160ff021916908315150217905550565b60025f3373ffffffffffffffffffffffffffffffffffffffff1673ffffffffffffffffffffffffffffffffffffffff1681526020019081526020015f205f9054906101000a900460ff1661057f576040517f08c379a000000000000000000000000000000000000000000000000000000000815260040161057690610c5f565b60405180910390fd5b60015f9054906101000a900473ffffffffffffffffffffffffffffffffffffffff1673ffffffffffffffffffffffffffffffffffffffff168173ffffffffffffffffffffffffffffffffffffffff160361060e576040517f08c379a000000000000000000000000000000000000000000000000000000000815260040161060590610f29565b60405180910390fd5b5f60025f60015f9054906101000a900473ffffffffffffffffffffffffffffffffffffffff1673ffffffffffffffffffffffffffffffffffffffff1673ffffffffffffffffffffffffffffffffffffffff1681526020019081526020015f205f6101000a81548160ff0219169083151502179055508060015f6101000a81548173ffffffffffffffffffffffffffffffffffffffff021916908373ffffffffffffffffffffffffffffffffffffffff160217905550600160025f8373ffffffffffffffffffffffffffffffffffffffff1673ffffffffffffffffffffffffffffffffffffffff1681526020019081526020015f205f6101000a81548160ff02191690831515021790555050565b5f60035f9054906101000a900473ffffffffffffffffffffffffffffffffffffffff1673ffffffffffffffffffffffffffffffffffffffff166323b872dd3330856040518463ffffffff1660e01b815260040161077a93929190610f47565b6020604051808303815f875af1158015610796573d5f5f3e3d5ffd5b505050506040513d601f19601f820116820180604052508101906107ba9190610e4c565b9050806107fc576040517f08c379a00000000000000000000000000000000000000000000000000000000081526004016107f390610fc6565b60405180910390fd5b5f5f9054906101000a900460ff16156108ce5760035f9054906101000a900473ffffffffffffffffffffffffffffffffffffffff1673ffffffffffffffffffffffffffffffffffffffff1663a9059cbb5f60019054906101000a900473ffffffffffffffffffffffffffffffffffffffff16846040518363ffffffff1660e01b815260040161088c929190610df0565b6020604051808303815f875af11580156108a8573d5f5f3e3d5ffd5b505050506040513d601f19601f820116820180604052508101906108cc9190610e4c565b505b5050565b60025f3373ffffffffffffffffffffffffffffffffffffffff1673ffffffffffffffffffffffffffffffffffffffff1681526020019081526020015f205f9054906101000a900460ff1661095b576040517f08c379a000000000000000000000000000000000000000000000000000000000815260040161095290610c5f565b60405180910390fd5b5f60035f9054906101000a900473ffffffffffffffffffffffffffffffffffffffff1673ffffffffffffffffffffffffffffffffffffffff166370a08231306040518263ffffffff1660e01b81526004016109b69190610fe4565b602060405180830381865afa1580156109d1573d5f5f3e3d5ffd5b505050506040513d601f19601f820116820180604052508101906109f59190611011565b905060035f9054906101000a900473ffffffffffffffffffffffffffffffffffffffff1673ffffffffffffffffffffffffffffffffffffffff1663a9059cbb5f60019054906101000a900473ffffffffffffffffffffffffffffffffffffffff16836040518363ffffffff1660e01b8152600401610a74929190610df0565b6020604051808303815f875af1158015610a90573d5f5f3e3d5ffd5b505050506040513d601f19601f82011682018060405250810190610ab49190610e4c565b5050565b5f5ffd5b5f73ffffffffffffffffffffffffffffffffffffffff82169050919050565b5f610ae582610abc565b9050919050565b610af581610adb565b8114610aff575f5ffd5b50565b5f81359050610b1081610aec565b92915050565b5f60208284031215610b2b57610b2a610ab8565b5b5f610b3884828501610b02565b91505092915050565b5f819050919050565b610b5381610b41565b8114610b5d575f5ffd5b50565b5f81359050610b6e81610b4a565b92915050565b5f5f60408385031215610b8a57610b89610ab8565b5b5f610b9785828601610b60565b9250506020610ba885828601610b60565b9150509250929050565b610bbb81610b41565b82525050565b5f602082019050610bd45f830184610bb2565b92915050565b5f60208284031215610bef57610bee610ab8565b5b5f610bfc84828501610b60565b91505092915050565b5f82825260208201905092915050565b7f4f6e6c792074686520636f6e74726f6c6c65722063616e2075736500000000005f82015250565b5f610c49601b83610c05565b9150610c5482610c15565b602082019050919050565b5f6020820190508181035f830152610c7681610c3d565b9050919050565b7f506c65617365207365742061206e6577206f776e65722e0000000000000000005f82015250565b5f610cb1601783610c05565b9150610cbc82610c7d565b602082019050919050565b5f6020820190508181035f830152610cde81610ca5565b9050919050565b7f4e487b71000000000000000000000000000000000000000000000000000000005f52601160045260245ffd5b5f610d1c82610b41565b9150610d2783610b41565b9250828202610d3581610b41565b91508282048414831517610d4c57610d4b610ce5565b5b5092915050565b7f496e76616c696420646179732c206d7573742062652033302c203630206f72205f8201527f3930000000000000000000000000000000000000000000000000000000000000602082015250565b5f610dad602283610c05565b9150610db882610d53565b604082019050919050565b5f6020820190508181035f830152610dda81610da1565b9050919050565b610dea81610adb565b82525050565b5f604082019050610e035f830185610de1565b610e106020830184610bb2565b9392505050565b5f8115159050919050565b610e2b81610e17565b8114610e35575f5ffd5b50565b5f81519050610e4681610e22565b92915050565b5f60208284031215610e6157610e60610ab8565b5b5f610e6e84828501610e38565b91505092915050565b7f5553445420617070726f7665206661696c6564000000000000000000000000005f82015250565b5f610eab601383610c05565b9150610eb682610e77565b602082019050919050565b5f6020820190508181035f830152610ed881610e9f565b9050919050565b7f506c65617365207365742061206e657720636f6e74726f6c6c65722e000000005f82015250565b5f610f13601c83610c05565b9150610f1e82610edf565b602082019050919050565b5f6020820190508181035f830152610f4081610f07565b9050919050565b5f606082019050610f5a5f830186610de1565b610f676020830185610de1565b610f746040830184610bb2565b949350505050565b7f55534454207472616e73666572206661696c65640000000000000000000000005f82015250565b5f610fb0601483610c05565b9150610fbb82610f7c565b602082019050919050565b5f6020820190508181035f830152610fdd81610fa4565b9050919050565b5f602082019050610ff75f830184610de1565b92915050565b5f8151905061100b81610b4a565b92915050565b5f6020828403121561102657611025610ab8565b5b5f61103384828501610ffd565b9150509291505056fea2646970667358221220f8d44ff2d3736a1352a6a5fc6034d90866b9217a36959a79d8dd919dbf84468764736f6c634300081b0033",
					"opcodes": "PUSH1 0x80 PUSH1 0x40 MSTORE PUSH0 PUSH0 PUSH0 PUSH2 0x100 EXP DUP2 SLOAD DUP2 PUSH1 0xFF MUL NOT AND SWAP1 DUP4 ISZERO ISZERO MUL OR SWAP1 SSTORE POP CALLVALUE DUP1 ISZERO PUSH2 0x27 JUMPI PUSH0 PUSH0 REVERT JUMPDEST POP PUSH1 0x40 MLOAD PUSH2 0x1293 CODESIZE SUB DUP1 PUSH2 0x1293 DUP4 CODECOPY DUP2 DUP2 ADD PUSH1 0x40 MSTORE DUP2 ADD SWAP1 PUSH2 0x49 SWAP2 SWAP1 PUSH2 0x1C4 JUMP JUMPDEST DUP3 PUSH0 PUSH1 0x1 PUSH2 0x100 EXP DUP2 SLOAD DUP2 PUSH20 0xFFFFFFFFFFFFFFFFFFFFFFFFFFFFFFFFFFFFFFFF MUL NOT AND SWAP1 DUP4 PUSH20 0xFFFFFFFFFFFFFFFFFFFFFFFFFFFFFFFFFFFFFFFF AND MUL OR SWAP1 SSTORE POP DUP2 PUSH1 0x1 PUSH0 PUSH2 0x100 EXP DUP2 SLOAD DUP2 PUSH20 0xFFFFFFFFFFFFFFFFFFFFFFFFFFFFFFFFFFFFFFFF MUL NOT AND SWAP1 DUP4 PUSH20 0xFFFFFFFFFFFFFFFFFFFFFFFFFFFFFFFFFFFFFFFF AND MUL OR SWAP1 SSTORE POP PUSH1 0x1 PUSH1 0x2 PUSH0 DUP5 PUSH20 0xFFFFFFFFFFFFFFFFFFFFFFFFFFFFFFFFFFFFFFFF AND PUSH20 0xFFFFFFFFFFFFFFFFFFFFFFFFFFFFFFFFFFFFFFFF AND DUP2 MSTORE PUSH1 0x20 ADD SWAP1 DUP2 MSTORE PUSH1 0x20 ADD PUSH0 KECCAK256 PUSH0 PUSH2 0x100 EXP DUP2 SLOAD DUP2 PUSH1 0xFF MUL NOT AND SWAP1 DUP4 ISZERO ISZERO MUL OR SWAP1 SSTORE POP DUP1 PUSH1 0x3 PUSH0 PUSH2 0x100 EXP DUP2 SLOAD DUP2 PUSH20 0xFFFFFFFFFFFFFFFFFFFFFFFFFFFFFFFFFFFFFFFF MUL NOT AND SWAP1 DUP4 PUSH20 0xFFFFFFFFFFFFFFFFFFFFFFFFFFFFFFFFFFFFFFFF AND MUL OR SWAP1 SSTORE POP POP POP POP PUSH2 0x214 JUMP JUMPDEST PUSH0 PUSH0 REVERT JUMPDEST PUSH0 PUSH20 0xFFFFFFFFFFFFFFFFFFFFFFFFFFFFFFFFFFFFFFFF DUP3 AND SWAP1 POP SWAP2 SWAP1 POP JUMP JUMPDEST PUSH0 PUSH2 0x193 DUP3 PUSH2 0x16A JUMP JUMPDEST SWAP1 POP SWAP2 SWAP1 POP JUMP JUMPDEST PUSH2 0x1A3 DUP2 PUSH2 0x189 JUMP JUMPDEST DUP2 EQ PUSH2 0x1AD JUMPI PUSH0 PUSH0 REVERT JUMPDEST POP JUMP JUMPDEST PUSH0 DUP2 MLOAD SWAP1 POP PUSH2 0x1BE DUP2 PUSH2 0x19A JUMP JUMPDEST SWAP3 SWAP2 POP POP JUMP JUMPDEST PUSH0 PUSH0 PUSH0 PUSH1 0x60 DUP5 DUP7 SUB SLT ISZERO PUSH2 0x1DB JUMPI PUSH2 0x1DA PUSH2 0x166 JUMP JUMPDEST JUMPDEST PUSH0 PUSH2 0x1E8 DUP7 DUP3 DUP8 ADD PUSH2 0x1B0 JUMP JUMPDEST SWAP4 POP POP PUSH1 0x20 PUSH2 0x1F9 DUP7 DUP3 DUP8 ADD PUSH2 0x1B0 JUMP JUMPDEST SWAP3 POP POP PUSH1 0x40 PUSH2 0x20A DUP7 DUP3 DUP8 ADD PUSH2 0x1B0 JUMP JUMPDEST SWAP2 POP POP SWAP3 POP SWAP3 POP SWAP3 JUMP JUMPDEST PUSH2 0x1072 DUP1 PUSH2 0x221 PUSH0 CODECOPY PUSH0 RETURN INVALID PUSH1 0x80 PUSH1 0x40 MSTORE CALLVALUE DUP1 ISZERO PUSH2 0xF JUMPI PUSH0 PUSH0 REVERT JUMPDEST POP PUSH1 0x4 CALLDATASIZE LT PUSH2 0x60 JUMPI PUSH0 CALLDATALOAD PUSH1 0xE0 SHR DUP1 PUSH4 0x13AF4035 EQ PUSH2 0x64 JUMPI DUP1 PUSH4 0x3B211C4C EQ PUSH2 0x80 JUMPI DUP1 PUSH4 0x84C02BA9 EQ PUSH2 0xB0 JUMPI DUP1 PUSH4 0x92EEFE9B EQ PUSH2 0xBA JUMPI DUP1 PUSH4 0xA6C41B4D EQ PUSH2 0xD6 JUMPI DUP1 PUSH4 0xAAD0E6EB EQ PUSH2 0xF2 JUMPI JUMPDEST PUSH0 PUSH0 REVERT JUMPDEST PUSH2 0x7E PUSH1 0x4 DUP1 CALLDATASIZE SUB DUP2 ADD SWAP1 PUSH2 0x79 SWAP2 SWAP1 PUSH2 0xB16 JUMP JUMPDEST PUSH2 0xFC JUMP JUMPDEST STOP JUMPDEST PUSH2 0x9A PUSH1 0x4 DUP1 CALLDATASIZE SUB DUP2 ADD SWAP1 PUSH2 0x95 SWAP2 SWAP1 PUSH2 0xB74 JUMP JUMPDEST PUSH2 0x257 JUMP JUMPDEST PUSH1 0x40 MLOAD PUSH2 0xA7 SWAP2 SWAP1 PUSH2 0xBC1 JUMP JUMPDEST PUSH1 0x40 MLOAD DUP1 SWAP2 SUB SWAP1 RETURN JUMPDEST PUSH2 0xB8 PUSH2 0x445 JUMP JUMPDEST STOP JUMPDEST PUSH2 0xD4 PUSH1 0x4 DUP1 CALLDATASIZE SUB DUP2 ADD SWAP1 PUSH2 0xCF SWAP2 SWAP1 PUSH2 0xB16 JUMP JUMPDEST PUSH2 0x4F6 JUMP JUMPDEST STOP JUMPDEST PUSH2 0xF0 PUSH1 0x4 DUP1 CALLDATASIZE SUB DUP2 ADD SWAP1 PUSH2 0xEB SWAP2 SWAP1 PUSH2 0xBDA JUMP JUMPDEST PUSH2 0x71B JUMP JUMPDEST STOP JUMPDEST PUSH2 0xFA PUSH2 0x8D2 JUMP JUMPDEST STOP JUMPDEST PUSH1 0x2 PUSH0 CALLER PUSH20 0xFFFFFFFFFFFFFFFFFFFFFFFFFFFFFFFFFFFFFFFF AND PUSH20 0xFFFFFFFFFFFFFFFFFFFFFFFFFFFFFFFFFFFFFFFF AND DUP2 MSTORE PUSH1 0x20 ADD SWAP1 DUP2 MSTORE PUSH1 0x20 ADD PUSH0 KECCAK256 PUSH0 SWAP1 SLOAD SWAP1 PUSH2 0x100 EXP SWAP1 DIV PUSH1 0xFF AND PUSH2 0x185 JUMPI PUSH1 0x40 MLOAD PUSH32 0x8C379A000000000000000000000000000000000000000000000000000000000 DUP2 MSTORE PUSH1 0x4 ADD PUSH2 0x17C SWAP1 PUSH2 0xC5F JUMP JUMPDEST PUSH1 0x40 MLOAD DUP1 SWAP2 SUB SWAP1 REVERT JUMPDEST PUSH0 PUSH1 0x1 SWAP1 SLOAD SWAP1 PUSH2 0x100 EXP SWAP1 DIV PUSH20 0xFFFFFFFFFFFFFFFFFFFFFFFFFFFFFFFFFFFFFFFF AND PUSH20 0xFFFFFFFFFFFFFFFFFFFFFFFFFFFFFFFFFFFFFFFF AND DUP2 PUSH20 0xFFFFFFFFFFFFFFFFFFFFFFFFFFFFFFFFFFFFFFFF AND SUB PUSH2 0x214 JUMPI PUSH1 0x40 MLOAD PUSH32 0x8C379A000000000000000000000000000000000000000000000000000000000 DUP2 MSTORE PUSH1 0x4 ADD PUSH2 0x20B SWAP1 PUSH2 0xCC7 JUMP JUMPDEST PUSH1 0x40 MLOAD DUP1 SWAP2 SUB SWAP1 REVERT JUMPDEST DUP1 PUSH0 PUSH1 0x1 PUSH2 0x100 EXP DUP2 SLOAD DUP2 PUSH20 0xFFFFFFFFFFFFFFFFFFFFFFFFFFFFFFFFFFFFFFFF MUL NOT AND SWAP1 DUP4 PUSH20 0xFFFFFFFFFFFFFFFFFFFFFFFFFFFFFFFFFFFFFFFF AND MUL OR SWAP1 SSTORE POP POP JUMP JUMPDEST PUSH0 PUSH0 PUSH1 0x1E DUP4 SUB PUSH2 0x299 JUMPI PUSH2 0x3E8 PUSH1 0xF PUSH1 0x6 DUP6 DUP8 PUSH2 0x274 SWAP2 SWAP1 PUSH2 0xD12 JUMP JUMPDEST PUSH2 0x27E SWAP2 SWAP1 PUSH2 0xD12 JUMP JUMPDEST PUSH2 0x288 SWAP2 SWAP1 PUSH2 0xD12 JUMP JUMPDEST PUSH2 0x292 SWAP2 SWAP1 PUSH2 0xD12 JUMP JUMPDEST SWAP1 POP PUSH2 0x35B JUMP JUMPDEST PUSH1 0x3C DUP4 SUB PUSH2 0x2D9 JUMPI PUSH2 0x3E8 PUSH1 0xD PUSH1 0x6 DUP6 DUP8 PUSH2 0x2B4 SWAP2 SWAP1 PUSH2 0xD12 JUMP JUMPDEST PUSH2 0x2BE SWAP2 SWAP1 PUSH2 0xD12 JUMP JUMPDEST PUSH2 0x2C8 SWAP2 SWAP1 PUSH2 0xD12 JUMP JUMPDEST PUSH2 0x2D2 SWAP2 SWAP1 PUSH2 0xD12 JUMP JUMPDEST SWAP1 POP PUSH2 0x35A JUMP JUMPDEST PUSH1 0x5A DUP4 SUB PUSH2 0x318 JUMPI PUSH1 0x64 PUSH1 0x7D PUSH1 0x6 DUP6 DUP8 PUSH2 0x2F3 SWAP2 SWAP1 PUSH2 0xD12 JUMP JUMPDEST PUSH2 0x2FD SWAP2 SWAP1 PUSH2 0xD12 JUMP JUMPDEST PUSH2 0x307 SWAP2 SWAP1 PUSH2 0xD12 JUMP JUMPDEST PUSH2 0x311 SWAP2 SWAP1 PUSH2 0xD12 JUMP JUMPDEST SWAP1 POP PUSH2 0x359 JUMP JUMPDEST PUSH0 PUSH2 0x358 JUMPI PUSH1 0x40 MLOAD PUSH32 0x8C379A000000000000000000000000000000000000000000000000000000000 DUP2 MSTORE PUSH1 0x4 ADD PUSH2 0x34F SWAP1 PUSH2 0xDC3 JUMP JUMPDEST PUSH1 0x40 MLOAD DUP1 SWAP2 SUB SWAP1 REVERT JUMPDEST JUMPDEST JUMPDEST JUMPDEST PUSH0 PUSH1 0x3 PUSH0 SWAP1 SLOAD SWAP1 PUSH2 0x100 EXP SWAP1 DIV PUSH20 0xFFFFFFFFFFFFFFFFFFFFFFFFFFFFFFFFFFFFFFFF AND PUSH20 0xFFFFFFFFFFFFFFFFFFFFFFFFFFFFFFFFFFFFFFFF AND PUSH4 0x95EA7B3 CALLER DUP5 PUSH1 0x40 MLOAD DUP4 PUSH4 0xFFFFFFFF AND PUSH1 0xE0 SHL DUP2 MSTORE PUSH1 0x4 ADD PUSH2 0x3B8 SWAP3 SWAP2 SWAP1 PUSH2 0xDF0 JUMP JUMPDEST PUSH1 0x20 PUSH1 0x40 MLOAD DUP1 DUP4 SUB DUP2 PUSH0 DUP8 GAS CALL ISZERO DUP1 ISZERO PUSH2 0x3D4 JUMPI RETURNDATASIZE PUSH0 PUSH0 RETURNDATACOPY RETURNDATASIZE PUSH0 REVERT JUMPDEST POP POP POP POP PUSH1 0x40 MLOAD RETURNDATASIZE PUSH1 0x1F NOT PUSH1 0x1F DUP3 ADD AND DUP3 ADD DUP1 PUSH1 0x40 MSTORE POP DUP2 ADD SWAP1 PUSH2 0x3F8 SWAP2 SWAP1 PUSH2 0xE4C JUMP JUMPDEST SWAP1 POP DUP1 PUSH2 0x43A JUMPI PUSH1 0x40 MLOAD PUSH32 0x8C379A000000000000000000000000000000000000000000000000000000000 DUP2 MSTORE PUSH1 0x4 ADD PUSH2 0x431 SWAP1 PUSH2 0xEC1 JUMP JUMPDEST PUSH1 0x40 MLOAD DUP1 SWAP2 SUB SWAP1 REVERT JUMPDEST DUP2 SWAP3 POP POP POP SWAP3 SWAP2 POP POP JUMP JUMPDEST PUSH1 0x2 PUSH0 CALLER PUSH20 0xFFFFFFFFFFFFFFFFFFFFFFFFFFFFFFFFFFFFFFFF AND PUSH20 0xFFFFFFFFFFFFFFFFFFFFFFFFFFFFFFFFFFFFFFFF AND DUP2 MSTORE PUSH1 0x20 ADD SWAP1 DUP2 MSTORE PUSH1 0x20 ADD PUSH0 KECCAK256 PUSH0 SWAP1 SLOAD SWAP1 PUSH2 0x100 EXP SWAP1 DIV PUSH1 0xFF AND PUSH2 0x4CE JUMPI PUSH1 0x40 MLOAD PUSH32 0x8C379A000000000000000000000000000000000000000000000000000000000 DUP2 MSTORE PUSH1 0x4 ADD PUSH2 0x4C5 SWAP1 PUSH2 0xC5F JUMP JUMPDEST PUSH1 0x40 MLOAD DUP1 SWAP2 SUB SWAP1 REVERT JUMPDEST PUSH0 PUSH0 SWAP1 SLOAD SWAP1 PUSH2 0x100 EXP SWAP1 DIV PUSH1 0xFF AND ISZERO PUSH0 PUSH0 PUSH2 0x100 EXP DUP2 SLOAD DUP2 PUSH1 0xFF MUL NOT AND SWAP1 DUP4 ISZERO ISZERO MUL OR SWAP1 SSTORE POP JUMP JUMPDEST PUSH1 0x2 PUSH0 CALLER PUSH20 0xFFFFFFFFFFFFFFFFFFFFFFFFFFFFFFFFFFFFFFFF AND PUSH20 0xFFFFFFFFFFFFFFFFFFFFFFFFFFFFFFFFFFFFFFFF AND DUP2 MSTORE PUSH1 0x20 ADD SWAP1 DUP2 MSTORE PUSH1 0x20 ADD PUSH0 KECCAK256 PUSH0 SWAP1 SLOAD SWAP1 PUSH2 0x100 EXP SWAP1 DIV PUSH1 0xFF AND PUSH2 0x57F JUMPI PUSH1 0x40 MLOAD PUSH32 0x8C379A000000000000000000000000000000000000000000000000000000000 DUP2 MSTORE PUSH1 0x4 ADD PUSH2 0x576 SWAP1 PUSH2 0xC5F JUMP JUMPDEST PUSH1 0x40 MLOAD DUP1 SWAP2 SUB SWAP1 REVERT JUMPDEST PUSH1 0x1 PUSH0 SWAP1 SLOAD SWAP1 PUSH2 0x100 EXP SWAP1 DIV PUSH20 0xFFFFFFFFFFFFFFFFFFFFFFFFFFFFFFFFFFFFFFFF AND PUSH20 0xFFFFFFFFFFFFFFFFFFFFFFFFFFFFFFFFFFFFFFFF AND DUP2 PUSH20 0xFFFFFFFFFFFFFFFFFFFFFFFFFFFFFFFFFFFFFFFF AND SUB PUSH2 0x60E JUMPI PUSH1 0x40 MLOAD PUSH32 0x8C379A000000000000000000000000000000000000000000000000000000000 DUP2 MSTORE PUSH1 0x4 ADD PUSH2 0x605 SWAP1 PUSH2 0xF29 JUMP JUMPDEST PUSH1 0x40 MLOAD DUP1 SWAP2 SUB SWAP1 REVERT JUMPDEST PUSH0 PUSH1 0x2 PUSH0 PUSH1 0x1 PUSH0 SWAP1 SLOAD SWAP1 PUSH2 0x100 EXP SWAP1 DIV PUSH20 0xFFFFFFFFFFFFFFFFFFFFFFFFFFFFFFFFFFFFFFFF AND PUSH20 0xFFFFFFFFFFFFFFFFFFFFFFFFFFFFFFFFFFFFFFFF AND PUSH20 0xFFFFFFFFFFFFFFFFFFFFFFFFFFFFFFFFFFFFFFFF AND DUP2 MSTORE PUSH1 0x20 ADD SWAP1 DUP2 MSTORE PUSH1 0x20 ADD PUSH0 KECCAK256 PUSH0 PUSH2 0x100 EXP DUP2 SLOAD DUP2 PUSH1 0xFF MUL NOT AND SWAP1 DUP4 ISZERO ISZERO MUL OR SWAP1 SSTORE POP DUP1 PUSH1 0x1 PUSH0 PUSH2 0x100 EXP DUP2 SLOAD DUP2 PUSH20 0xFFFFFFFFFFFFFFFFFFFFFFFFFFFFFFFFFFFFFFFF MUL NOT AND SWAP1 DUP4 PUSH20 0xFFFFFFFFFFFFFFFFFFFFFFFFFFFFFFFFFFFFFFFF AND MUL OR SWAP1 SSTORE POP PUSH1 0x1 PUSH1 0x2 PUSH0 DUP4 PUSH20 0xFFFFFFFFFFFFFFFFFFFFFFFFFFFFFFFFFFFFFFFF AND PUSH20 0xFFFFFFFFFFFFFFFFFFFFFFFFFFFFFFFFFFFFFFFF AND DUP2 MSTORE PUSH1 0x20 ADD SWAP1 DUP2 MSTORE PUSH1 0x20 ADD PUSH0 KECCAK256 PUSH0 PUSH2 0x100 EXP DUP2 SLOAD DUP2 PUSH1 0xFF MUL NOT AND SWAP1 DUP4 ISZERO ISZERO MUL OR SWAP1 SSTORE POP POP JUMP JUMPDEST PUSH0 PUSH1 0x3 PUSH0 SWAP1 SLOAD SWAP1 PUSH2 0x100 EXP SWAP1 DIV PUSH20 0xFFFFFFFFFFFFFFFFFFFFFFFFFFFFFFFFFFFFFFFF AND PUSH20 0xFFFFFFFFFFFFFFFFFFFFFFFFFFFFFFFFFFFFFFFF AND PUSH4 0x23B872DD CALLER ADDRESS DUP6 PUSH1 0x40 MLOAD DUP5 PUSH4 0xFFFFFFFF AND PUSH1 0xE0 SHL DUP2 MSTORE PUSH1 0x4 ADD PUSH2 0x77A SWAP4 SWAP3 SWAP2 SWAP1 PUSH2 0xF47 JUMP JUMPDEST PUSH1 0x20 PUSH1 0x40 MLOAD DUP1 DUP4 SUB DUP2 PUSH0 DUP8 GAS CALL ISZERO DUP1 ISZERO PUSH2 0x796 JUMPI RETURNDATASIZE PUSH0 PUSH0 RETURNDATACOPY RETURNDATASIZE PUSH0 REVERT JUMPDEST POP POP POP POP PUSH1 0x40 MLOAD RETURNDATASIZE PUSH1 0x1F NOT PUSH1 0x1F DUP3 ADD AND DUP3 ADD DUP1 PUSH1 0x40 MSTORE POP DUP2 ADD SWAP1 PUSH2 0x7BA SWAP2 SWAP1 PUSH2 0xE4C JUMP JUMPDEST SWAP1 POP DUP1 PUSH2 0x7FC JUMPI PUSH1 0x40 MLOAD PUSH32 0x8C379A000000000000000000000000000000000000000000000000000000000 DUP2 MSTORE PUSH1 0x4 ADD PUSH2 0x7F3 SWAP1 PUSH2 0xFC6 JUMP JUMPDEST PUSH1 0x40 MLOAD DUP1 SWAP2 SUB SWAP1 REVERT JUMPDEST PUSH0 PUSH0 SWAP1 SLOAD SWAP1 PUSH2 0x100 EXP SWAP1 DIV PUSH1 0xFF AND ISZERO PUSH2 0x8CE JUMPI PUSH1 0x3 PUSH0 SWAP1 SLOAD SWAP1 PUSH2 0x100 EXP SWAP1 DIV PUSH20 0xFFFFFFFFFFFFFFFFFFFFFFFFFFFFFFFFFFFFFFFF AND PUSH20 0xFFFFFFFFFFFFFFFFFFFFFFFFFFFFFFFFFFFFFFFF AND PUSH4 0xA9059CBB PUSH0 PUSH1 0x1 SWAP1 SLOAD SWAP1 PUSH2 0x100 EXP SWAP1 DIV PUSH20 0xFFFFFFFFFFFFFFFFFFFFFFFFFFFFFFFFFFFFFFFF AND DUP5 PUSH1 0x40 MLOAD DUP4 PUSH4 0xFFFFFFFF AND PUSH1 0xE0 SHL DUP2 MSTORE PUSH1 0x4 ADD PUSH2 0x88C SWAP3 SWAP2 SWAP1 PUSH2 0xDF0 JUMP JUMPDEST PUSH1 0x20 PUSH1 0x40 MLOAD DUP1 DUP4 SUB DUP2 PUSH0 DUP8 GAS CALL ISZERO DUP1 ISZERO PUSH2 0x8A8 JUMPI RETURNDATASIZE PUSH0 PUSH0 RETURNDATACOPY RETURNDATASIZE PUSH0 REVERT JUMPDEST POP POP POP POP PUSH1 0x40 MLOAD RETURNDATASIZE PUSH1 0x1F NOT PUSH1 0x1F DUP3 ADD AND DUP3 ADD DUP1 PUSH1 0x40 MSTORE POP DUP2 ADD SWAP1 PUSH2 0x8CC SWAP2 SWAP1 PUSH2 0xE4C JUMP JUMPDEST POP JUMPDEST POP POP JUMP JUMPDEST PUSH1 0x2 PUSH0 CALLER PUSH20 0xFFFFFFFFFFFFFFFFFFFFFFFFFFFFFFFFFFFFFFFF AND PUSH20 0xFFFFFFFFFFFFFFFFFFFFFFFFFFFFFFFFFFFFFFFF AND DUP2 MSTORE PUSH1 0x20 ADD SWAP1 DUP2 MSTORE PUSH1 0x20 ADD PUSH0 KECCAK256 PUSH0 SWAP1 SLOAD SWAP1 PUSH2 0x100 EXP SWAP1 DIV PUSH1 0xFF AND PUSH2 0x95B JUMPI PUSH1 0x40 MLOAD PUSH32 0x8C379A000000000000000000000000000000000000000000000000000000000 DUP2 MSTORE PUSH1 0x4 ADD PUSH2 0x952 SWAP1 PUSH2 0xC5F JUMP JUMPDEST PUSH1 0x40 MLOAD DUP1 SWAP2 SUB SWAP1 REVERT JUMPDEST PUSH0 PUSH1 0x3 PUSH0 SWAP1 SLOAD SWAP1 PUSH2 0x100 EXP SWAP1 DIV PUSH20 0xFFFFFFFFFFFFFFFFFFFFFFFFFFFFFFFFFFFFFFFF AND PUSH20 0xFFFFFFFFFFFFFFFFFFFFFFFFFFFFFFFFFFFFFFFF AND PUSH4 0x70A08231 ADDRESS PUSH1 0x40 MLOAD DUP3 PUSH4 0xFFFFFFFF AND PUSH1 0xE0 SHL DUP2 MSTORE PUSH1 0x4 ADD PUSH2 0x9B6 SWAP2 SWAP1 PUSH2 0xFE4 JUMP JUMPDEST PUSH1 0x20 PUSH1 0x40 MLOAD DUP1 DUP4 SUB DUP2 DUP7 GAS STATICCALL ISZERO DUP1 ISZERO PUSH2 0x9D1 JUMPI RETURNDATASIZE PUSH0 PUSH0 RETURNDATACOPY RETURNDATASIZE PUSH0 REVERT JUMPDEST POP POP POP POP PUSH1 0x40 MLOAD RETURNDATASIZE PUSH1 0x1F NOT PUSH1 0x1F DUP3 ADD AND DUP3 ADD DUP1 PUSH1 0x40 MSTORE POP DUP2 ADD SWAP1 PUSH2 0x9F5 SWAP2 SWAP1 PUSH2 0x1011 JUMP JUMPDEST SWAP1 POP PUSH1 0x3 PUSH0 SWAP1 SLOAD SWAP1 PUSH2 0x100 EXP SWAP1 DIV PUSH20 0xFFFFFFFFFFFFFFFFFFFFFFFFFFFFFFFFFFFFFFFF AND PUSH20 0xFFFFFFFFFFFFFFFFFFFFFFFFFFFFFFFFFFFFFFFF AND PUSH4 0xA9059CBB PUSH0 PUSH1 0x1 SWAP1 SLOAD SWAP1 PUSH2 0x100 EXP SWAP1 DIV PUSH20 0xFFFFFFFFFFFFFFFFFFFFFFFFFFFFFFFFFFFFFFFF AND DUP4 PUSH1 0x40 MLOAD DUP4 PUSH4 0xFFFFFFFF AND PUSH1 0xE0 SHL DUP2 MSTORE PUSH1 0x4 ADD PUSH2 0xA74 SWAP3 SWAP2 SWAP1 PUSH2 0xDF0 JUMP JUMPDEST PUSH1 0x20 PUSH1 0x40 MLOAD DUP1 DUP4 SUB DUP2 PUSH0 DUP8 GAS CALL ISZERO DUP1 ISZERO PUSH2 0xA90 JUMPI RETURNDATASIZE PUSH0 PUSH0 RETURNDATACOPY RETURNDATASIZE PUSH0 REVERT JUMPDEST POP POP POP POP PUSH1 0x40 MLOAD RETURNDATASIZE PUSH1 0x1F NOT PUSH1 0x1F DUP3 ADD AND DUP3 ADD DUP1 PUSH1 0x40 MSTORE POP DUP2 ADD SWAP1 PUSH2 0xAB4 SWAP2 SWAP1 PUSH2 0xE4C JUMP JUMPDEST POP POP JUMP JUMPDEST PUSH0 PUSH0 REVERT JUMPDEST PUSH0 PUSH20 0xFFFFFFFFFFFFFFFFFFFFFFFFFFFFFFFFFFFFFFFF DUP3 AND SWAP1 POP SWAP2 SWAP1 POP JUMP JUMPDEST PUSH0 PUSH2 0xAE5 DUP3 PUSH2 0xABC JUMP JUMPDEST SWAP1 POP SWAP2 SWAP1 POP JUMP JUMPDEST PUSH2 0xAF5 DUP2 PUSH2 0xADB JUMP JUMPDEST DUP2 EQ PUSH2 0xAFF JUMPI PUSH0 PUSH0 REVERT JUMPDEST POP JUMP JUMPDEST PUSH0 DUP2 CALLDATALOAD SWAP1 POP PUSH2 0xB10 DUP2 PUSH2 0xAEC JUMP JUMPDEST SWAP3 SWAP2 POP POP JUMP JUMPDEST PUSH0 PUSH1 0x20 DUP3 DUP5 SUB SLT ISZERO PUSH2 0xB2B JUMPI PUSH2 0xB2A PUSH2 0xAB8 JUMP JUMPDEST JUMPDEST PUSH0 PUSH2 0xB38 DUP5 DUP3 DUP6 ADD PUSH2 0xB02 JUMP JUMPDEST SWAP2 POP POP SWAP3 SWAP2 POP POP JUMP JUMPDEST PUSH0 DUP2 SWAP1 POP SWAP2 SWAP1 POP JUMP JUMPDEST PUSH2 0xB53 DUP2 PUSH2 0xB41 JUMP JUMPDEST DUP2 EQ PUSH2 0xB5D JUMPI PUSH0 PUSH0 REVERT JUMPDEST POP JUMP JUMPDEST PUSH0 DUP2 CALLDATALOAD SWAP1 POP PUSH2 0xB6E DUP2 PUSH2 0xB4A JUMP JUMPDEST SWAP3 SWAP2 POP POP JUMP JUMPDEST PUSH0 PUSH0 PUSH1 0x40 DUP4 DUP6 SUB SLT ISZERO PUSH2 0xB8A JUMPI PUSH2 0xB89 PUSH2 0xAB8 JUMP JUMPDEST JUMPDEST PUSH0 PUSH2 0xB97 DUP6 DUP3 DUP7 ADD PUSH2 0xB60 JUMP JUMPDEST SWAP3 POP POP PUSH1 0x20 PUSH2 0xBA8 DUP6 DUP3 DUP7 ADD PUSH2 0xB60 JUMP JUMPDEST SWAP2 POP POP SWAP3 POP SWAP3 SWAP1 POP JUMP JUMPDEST PUSH2 0xBBB DUP2 PUSH2 0xB41 JUMP JUMPDEST DUP3 MSTORE POP POP JUMP JUMPDEST PUSH0 PUSH1 0x20 DUP3 ADD SWAP1 POP PUSH2 0xBD4 PUSH0 DUP4 ADD DUP5 PUSH2 0xBB2 JUMP JUMPDEST SWAP3 SWAP2 POP POP JUMP JUMPDEST PUSH0 PUSH1 0x20 DUP3 DUP5 SUB SLT ISZERO PUSH2 0xBEF JUMPI PUSH2 0xBEE PUSH2 0xAB8 JUMP JUMPDEST JUMPDEST PUSH0 PUSH2 0xBFC DUP5 DUP3 DUP6 ADD PUSH2 0xB60 JUMP JUMPDEST SWAP2 POP POP SWAP3 SWAP2 POP POP JUMP JUMPDEST PUSH0 DUP3 DUP3 MSTORE PUSH1 0x20 DUP3 ADD SWAP1 POP SWAP3 SWAP2 POP POP JUMP JUMPDEST PUSH32 0x4F6E6C792074686520636F6E74726F6C6C65722063616E207573650000000000 PUSH0 DUP3 ADD MSTORE POP JUMP JUMPDEST PUSH0 PUSH2 0xC49 PUSH1 0x1B DUP4 PUSH2 0xC05 JUMP JUMPDEST SWAP2 POP PUSH2 0xC54 DUP3 PUSH2 0xC15 JUMP JUMPDEST PUSH1 0x20 DUP3 ADD SWAP1 POP SWAP2 SWAP1 POP JUMP JUMPDEST PUSH0 PUSH1 0x20 DUP3 ADD SWAP1 POP DUP2 DUP2 SUB PUSH0 DUP4 ADD MSTORE PUSH2 0xC76 DUP2 PUSH2 0xC3D JUMP JUMPDEST SWAP1 POP SWAP2 SWAP1 POP JUMP JUMPDEST PUSH32 0x506C65617365207365742061206E6577206F776E65722E000000000000000000 PUSH0 DUP3 ADD MSTORE POP JUMP JUMPDEST PUSH0 PUSH2 0xCB1 PUSH1 0x17 DUP4 PUSH2 0xC05 JUMP JUMPDEST SWAP2 POP PUSH2 0xCBC DUP3 PUSH2 0xC7D JUMP JUMPDEST PUSH1 0x20 DUP3 ADD SWAP1 POP SWAP2 SWAP1 POP JUMP JUMPDEST PUSH0 PUSH1 0x20 DUP3 ADD SWAP1 POP DUP2 DUP2 SUB PUSH0 DUP4 ADD MSTORE PUSH2 0xCDE DUP2 PUSH2 0xCA5 JUMP JUMPDEST SWAP1 POP SWAP2 SWAP1 POP JUMP JUMPDEST PUSH32 0x4E487B7100000000000000000000000000000000000000000000000000000000 PUSH0 MSTORE PUSH1 0x11 PUSH1 0x4 MSTORE PUSH1 0x24 PUSH0 REVERT JUMPDEST PUSH0 PUSH2 0xD1C DUP3 PUSH2 0xB41 JUMP JUMPDEST SWAP2 POP PUSH2 0xD27 DUP4 PUSH2 0xB41 JUMP JUMPDEST SWAP3 POP DUP3 DUP3 MUL PUSH2 0xD35 DUP2 PUSH2 0xB41 JUMP JUMPDEST SWAP2 POP DUP3 DUP3 DIV DUP5 EQ DUP4 ISZERO OR PUSH2 0xD4C JUMPI PUSH2 0xD4B PUSH2 0xCE5 JUMP JUMPDEST JUMPDEST POP SWAP3 SWAP2 POP POP JUMP JUMPDEST PUSH32 0x496E76616C696420646179732C206D7573742062652033302C203630206F7220 PUSH0 DUP3 ADD MSTORE PUSH32 0x3930000000000000000000000000000000000000000000000000000000000000 PUSH1 0x20 DUP3 ADD MSTORE POP JUMP JUMPDEST PUSH0 PUSH2 0xDAD PUSH1 0x22 DUP4 PUSH2 0xC05 JUMP JUMPDEST SWAP2 POP PUSH2 0xDB8 DUP3 PUSH2 0xD53 JUMP JUMPDEST PUSH1 0x40 DUP3 ADD SWAP1 POP SWAP2 SWAP1 POP JUMP JUMPDEST PUSH0 PUSH1 0x20 DUP3 ADD SWAP1 POP DUP2 DUP2 SUB PUSH0 DUP4 ADD MSTORE PUSH2 0xDDA DUP2 PUSH2 0xDA1 JUMP JUMPDEST SWAP1 POP SWAP2 SWAP1 POP JUMP JUMPDEST PUSH2 0xDEA DUP2 PUSH2 0xADB JUMP JUMPDEST DUP3 MSTORE POP POP JUMP JUMPDEST PUSH0 PUSH1 0x40 DUP3 ADD SWAP1 POP PUSH2 0xE03 PUSH0 DUP4 ADD DUP6 PUSH2 0xDE1 JUMP JUMPDEST PUSH2 0xE10 PUSH1 0x20 DUP4 ADD DUP5 PUSH2 0xBB2 JUMP JUMPDEST SWAP4 SWAP3 POP POP POP JUMP JUMPDEST PUSH0 DUP2 ISZERO ISZERO SWAP1 POP SWAP2 SWAP1 POP JUMP JUMPDEST PUSH2 0xE2B DUP2 PUSH2 0xE17 JUMP JUMPDEST DUP2 EQ PUSH2 0xE35 JUMPI PUSH0 PUSH0 REVERT JUMPDEST POP JUMP JUMPDEST PUSH0 DUP2 MLOAD SWAP1 POP PUSH2 0xE46 DUP2 PUSH2 0xE22 JUMP JUMPDEST SWAP3 SWAP2 POP POP JUMP JUMPDEST PUSH0 PUSH1 0x20 DUP3 DUP5 SUB SLT ISZERO PUSH2 0xE61 JUMPI PUSH2 0xE60 PUSH2 0xAB8 JUMP JUMPDEST JUMPDEST PUSH0 PUSH2 0xE6E DUP5 DUP3 DUP6 ADD PUSH2 0xE38 JUMP JUMPDEST SWAP2 POP POP SWAP3 SWAP2 POP POP JUMP JUMPDEST PUSH32 0x5553445420617070726F7665206661696C656400000000000000000000000000 PUSH0 DUP3 ADD MSTORE POP JUMP JUMPDEST PUSH0 PUSH2 0xEAB PUSH1 0x13 DUP4 PUSH2 0xC05 JUMP JUMPDEST SWAP2 POP PUSH2 0xEB6 DUP3 PUSH2 0xE77 JUMP JUMPDEST PUSH1 0x20 DUP3 ADD SWAP1 POP SWAP2 SWAP1 POP JUMP JUMPDEST PUSH0 PUSH1 0x20 DUP3 ADD SWAP1 POP DUP2 DUP2 SUB PUSH0 DUP4 ADD MSTORE PUSH2 0xED8 DUP2 PUSH2 0xE9F JUMP JUMPDEST SWAP1 POP SWAP2 SWAP1 POP JUMP JUMPDEST PUSH32 0x506C65617365207365742061206E657720636F6E74726F6C6C65722E00000000 PUSH0 DUP3 ADD MSTORE POP JUMP JUMPDEST PUSH0 PUSH2 0xF13 PUSH1 0x1C DUP4 PUSH2 0xC05 JUMP JUMPDEST SWAP2 POP PUSH2 0xF1E DUP3 PUSH2 0xEDF JUMP JUMPDEST PUSH1 0x20 DUP3 ADD SWAP1 POP SWAP2 SWAP1 POP JUMP JUMPDEST PUSH0 PUSH1 0x20 DUP3 ADD SWAP1 POP DUP2 DUP2 SUB PUSH0 DUP4 ADD MSTORE PUSH2 0xF40 DUP2 PUSH2 0xF07 JUMP JUMPDEST SWAP1 POP SWAP2 SWAP1 POP JUMP JUMPDEST PUSH0 PUSH1 0x60 DUP3 ADD SWAP1 POP PUSH2 0xF5A PUSH0 DUP4 ADD DUP7 PUSH2 0xDE1 JUMP JUMPDEST PUSH2 0xF67 PUSH1 0x20 DUP4 ADD DUP6 PUSH2 0xDE1 JUMP JUMPDEST PUSH2 0xF74 PUSH1 0x40 DUP4 ADD DUP5 PUSH2 0xBB2 JUMP JUMPDEST SWAP5 SWAP4 POP POP POP POP JUMP JUMPDEST PUSH32 0x55534454207472616E73666572206661696C6564000000000000000000000000 PUSH0 DUP3 ADD MSTORE POP JUMP JUMPDEST PUSH0 PUSH2 0xFB0 PUSH1 0x14 DUP4 PUSH2 0xC05 JUMP JUMPDEST SWAP2 POP PUSH2 0xFBB DUP3 PUSH2 0xF7C JUMP JUMPDEST PUSH1 0x20 DUP3 ADD SWAP1 POP SWAP2 SWAP1 POP JUMP JUMPDEST PUSH0 PUSH1 0x20 DUP3 ADD SWAP1 POP DUP2 DUP2 SUB PUSH0 DUP4 ADD MSTORE PUSH2 0xFDD DUP2 PUSH2 0xFA4 JUMP JUMPDEST SWAP1 POP SWAP2 SWAP1 POP JUMP JUMPDEST PUSH0 PUSH1 0x20 DUP3 ADD SWAP1 POP PUSH2 0xFF7 PUSH0 DUP4 ADD DUP5 PUSH2 0xDE1 JUMP JUMPDEST SWAP3 SWAP2 POP POP JUMP JUMPDEST PUSH0 DUP2 MLOAD SWAP1 POP PUSH2 0x100B DUP2 PUSH2 0xB4A JUMP JUMPDEST SWAP3 SWAP2 POP POP JUMP JUMPDEST PUSH0 PUSH1 0x20 DUP3 DUP5 SUB SLT ISZERO PUSH2 0x1026 JUMPI PUSH2 0x1025 PUSH2 0xAB8 JUMP JUMPDEST JUMPDEST PUSH0 PUSH2 0x1033 DUP5 DUP3 DUP6 ADD PUSH2 0xFFD JUMP JUMPDEST SWAP2 POP POP SWAP3 SWAP2 POP POP JUMP INVALID LOG2 PUSH5 0x6970667358 0x22 SLT KECCAK256 0xF8 0xD4 0x4F CALLCODE 0xD3 PUSH20 0x6A1352A6A5FC6034D90866B9217A36959A79D8DD SWAP2 SWAP14 0xBF DUP5 CHAINID DUP8 PUSH5 0x736F6C6343 STOP ADDMOD SHL STOP CALLER "
				},
				"gasEstimates": {
					"creation": {
						"codeDepositCost": "842000",
						"executionCost": "infinite",
						"totalCost": "infinite"
					},
					"external": {
						"sendSwitch()": "28806",
						"setController(address)": "80010",
						"setOwner(address)": "29202",
						"usdtApprove(uint256,uint256)": "infinite",
						"usdtReceive(uint256)": "infinite",
						"usdtWithdraw()": "infinite"
					}
				},
				"methodIdentifiers": {
					"sendSwitch()": "84c02ba9",
					"setController(address)": "92eefe9b",
					"setOwner(address)": "13af4035",
					"usdtApprove(uint256,uint256)": "3b211c4c",
					"usdtReceive(uint256)": "a6c41b4d",
					"usdtWithdraw()": "aad0e6eb"
				}
			},
			"storageLayout": {
				"storage": [
					{
						"astId": 53,
						"contract": "contracts/Market.sol:Market",
						"label": "sendToOwner",
						"offset": 0,
						"slot": "0",
						"type": "t_bool"
					},
					{
						"astId": 55,
						"contract": "contracts/Market.sol:Market",
						"label": "owner",
						"offset": 1,
						"slot": "0",
						"type": "t_address"
					},
					{
						"astId": 57,
						"contract": "contracts/Market.sol:Market",
						"label": "controller",
						"offset": 0,
						"slot": "1",
						"type": "t_address"
					},
					{
						"astId": 61,
						"contract": "contracts/Market.sol:Market",
						"label": "isController",
						"offset": 0,
						"slot": "2",
						"type": "t_mapping(t_address,t_bool)"
					},
					{
						"astId": 64,
						"contract": "contracts/Market.sol:Market",
						"label": "usdt",
						"offset": 0,
						"slot": "3",
						"type": "t_contract(IERC20)38"
					}
				],
				"types": {
					"t_address": {
						"encoding": "inplace",
						"label": "address",
						"numberOfBytes": "20"
					},
					"t_bool": {
						"encoding": "inplace",
						"label": "bool",
						"numberOfBytes": "1"
					},
					"t_contract(IERC20)38": {
						"encoding": "inplace",
						"label": "contract IERC20",
						"numberOfBytes": "20"
					},
					"t_mapping(t_address,t_bool)": {
						"encoding": "mapping",
						"key": "t_address",
						"label": "mapping(address => bool)",
						"numberOfBytes": "32",
						"value": "t_bool"
					}
				}
			},
			"userdoc": {
				"kind": "user",
				"methods": {},
				"version": 1
			}
		}
	}
}