{
	"contracts/Controller.sol": {
		"Controller": {
			"abi": [
				{
					"inputs": [
						{
							"internalType": "address[]",
							"name": "_admin",
							"type": "address[]"
						}
					],
					"stateMutability": "nonpayable",
					"type": "constructor"
				},
				{
					"anonymous": false,
					"inputs": [
						{
							"indexed": true,
							"internalType": "address",
							"name": "owner",
							"type": "address"
						},
						{
							"indexed": true,
							"internalType": "uint256",
							"name": "txIndex",
							"type": "uint256"
						}
					],
					"name": "ConfirmTransaction",
					"type": "event"
				},
				{
					"anonymous": false,
					"inputs": [
						{
							"indexed": true,
							"internalType": "address",
							"name": "owner",
							"type": "address"
						},
						{
							"indexed": true,
							"internalType": "uint256",
							"name": "txIndex",
							"type": "uint256"
						}
					],
					"name": "ExecuteTransaction",
					"type": "event"
				},
				{
					"anonymous": false,
					"inputs": [
						{
							"indexed": true,
							"internalType": "address",
							"name": "owner",
							"type": "address"
						},
						{
							"indexed": true,
							"internalType": "uint256",
							"name": "txIndex",
							"type": "uint256"
						}
					],
					"name": "RevokeConfirmation",
					"type": "event"
				},
				{
					"anonymous": false,
					"inputs": [
						{
							"indexed": true,
							"internalType": "address",
							"name": "owner",
							"type": "address"
						},
						{
							"indexed": true,
							"internalType": "uint256",
							"name": "txIndex",
							"type": "uint256"
						},
						{
							"indexed": false,
							"internalType": "bytes",
							"name": "data",
							"type": "bytes"
						}
					],
					"name": "SubmitTransaction",
					"type": "event"
				},
				{
					"inputs": [
						{
							"internalType": "address",
							"name": "_market",
							"type": "address"
						},
						{
							"internalType": "address",
							"name": "_newOwner",
							"type": "address"
						}
					],
					"name": "commitSetMarketOwner",
					"outputs": [
						{
							"internalType": "uint256",
							"name": "",
							"type": "uint256"
						}
					],
					"stateMutability": "nonpayable",
					"type": "function"
				},
				{
					"inputs": [
						{
							"internalType": "uint256",
							"name": "_txIndex",
							"type": "uint256"
						}
					],
					"name": "confirmTransaction",
					"outputs": [],
					"stateMutability": "nonpayable",
					"type": "function"
				},
				{
					"inputs": [],
					"name": "getAdministrators",
					"outputs": [
						{
							"internalType": "address[]",
							"name": "",
							"type": "address[]"
						}
					],
					"stateMutability": "view",
					"type": "function"
				},
				{
					"inputs": [],
					"name": "getNumConfirmationsRequired",
					"outputs": [
						{
							"internalType": "uint256",
							"name": "",
							"type": "uint256"
						}
					],
					"stateMutability": "view",
					"type": "function"
				},
				{
					"inputs": [],
					"name": "getOwner",
					"outputs": [
						{
							"internalType": "address",
							"name": "",
							"type": "address"
						}
					],
					"stateMutability": "view",
					"type": "function"
				},
				{
					"inputs": [],
					"name": "getTransactions",
					"outputs": [
						{
							"components": [
								{
									"internalType": "bytes",
									"name": "data",
									"type": "bytes"
								},
								{
									"internalType": "address",
									"name": "to",
									"type": "address"
								},
								{
									"internalType": "bool",
									"name": "executed",
									"type": "bool"
								},
								{
									"internalType": "bool",
									"name": "multi",
									"type": "bool"
								}
							],
							"internalType": "struct MultiSig.Transaction[]",
							"name": "",
							"type": "tuple[]"
						}
					],
					"stateMutability": "view",
					"type": "function"
				},
				{
					"inputs": [
						{
							"internalType": "uint256",
							"name": "_txIndex",
							"type": "uint256"
						}
					],
					"name": "revokeConfirmation",
					"outputs": [],
					"stateMutability": "nonpayable",
					"type": "function"
				},
				{
					"inputs": [
						{
							"internalType": "address[]",
							"name": "_admin",
							"type": "address[]"
						}
					],
					"name": "setAdministrators",
					"outputs": [],
					"stateMutability": "nonpayable",
					"type": "function"
				},
				{
					"inputs": [
						{
							"internalType": "uint256",
							"name": "_value",
							"type": "uint256"
						}
					],
					"name": "setConfirmationsRequired",
					"outputs": [],
					"stateMutability": "nonpayable",
					"type": "function"
				},
				{
					"inputs": [
						{
							"internalType": "address",
							"name": "_owner",
							"type": "address"
						}
					],
					"name": "setOwner",
					"outputs": [],
					"stateMutability": "nonpayable",
					"type": "function"
				}
			],
			"devdoc": {
				"kind": "dev",
				"methods": {},
				"version": 1
			},
			"evm": {
				"assembly": "    /* \"contracts/Controller.sol\":103:3829  contract Controller {... */\n  mstore(0x40, 0x80)\n    /* \"contracts/Controller.sol\":902:1313  constructor(address[] memory _admin) {... */\n  callvalue\n  dup1\n  iszero\n  tag_1\n  jumpi\n  revert(0x00, 0x00)\ntag_1:\n  pop\n  mload(0x40)\n  sub(codesize, bytecodeSize)\n  dup1\n  bytecodeSize\n  dup4\n  codecopy\n  dup2\n  dup2\n  add\n  0x40\n  mstore\n  dup2\n  add\n  swap1\n  tag_2\n  swap2\n  swap1\n  tag_3\n  jump\t// in\ntag_2:\n    /* \"contracts/Controller.sol\":957:967  msg.sender */\n  caller\n    /* \"contracts/Controller.sol\":949:954  owner */\n  0x01\n  0x00\n    /* \"contracts/Controller.sol\":949:967  owner = msg.sender */\n  0x0100\n  exp\n  dup2\n  sload\n  dup2\n  0xffffffffffffffffffffffffffffffffffffffff\n  mul\n  not\n  and\n  swap1\n  dup4\n  0xffffffffffffffffffffffffffffffffffffffff\n  and\n  mul\n  or\n  swap1\n  sstore\n  pop\n    /* \"contracts/Controller.sol\":994:998  true */\n  0x01\n    /* \"contracts/Controller.sol\":977:984  isOwner */\n  0x04\n    /* \"contracts/Controller.sol\":977:991  isOwner[owner] */\n  0x00\n    /* \"contracts/Controller.sol\":985:990  owner */\n  0x01\n  0x00\n  swap1\n  sload\n  swap1\n  0x0100\n  exp\n  swap1\n  div\n  0xffffffffffffffffffffffffffffffffffffffff\n  and\n    /* \"contracts/Controller.sol\":977:991  isOwner[owner] */\n  0xffffffffffffffffffffffffffffffffffffffff\n  and\n  0xffffffffffffffffffffffffffffffffffffffff\n  and\n  dup2\n  mstore\n  0x20\n  add\n  swap1\n  dup2\n  mstore\n  0x20\n  add\n  0x00\n  keccak256\n  0x00\n    /* \"contracts/Controller.sol\":977:998  isOwner[owner] = true */\n  0x0100\n  exp\n  dup2\n  sload\n  dup2\n  0xff\n  mul\n  not\n  and\n  swap1\n  dup4\n  iszero\n  iszero\n  mul\n  or\n  swap1\n  sstore\n  pop\n    /* \"contracts/Controller.sol\":1035:1041  _admin */\n  dup1\n    /* \"contracts/Controller.sol\":1035:1048  _admin.length */\n  mload\n    /* \"contracts/Controller.sol\":1008:1032  numConfirmationsRequired */\n  0x00\n    /* \"contracts/Controller.sol\":1008:1048  numConfirmationsRequired = _admin.length */\n  dup2\n  swap1\n  sstore\n  pop\n    /* \"contracts/Controller.sol\":1064:1075  uint8 index */\n  0x00\n    /* \"contracts/Controller.sol\":1078:1079  0 */\n  0x00\n    /* \"contracts/Controller.sol\":1064:1079  uint8 index = 0 */\n  swap1\n  pop\n    /* \"contracts/Controller.sol\":1059:1307  for (uint8 index = 0; index < numConfirmationsRequired; index++) {... */\ntag_6:\n    /* \"contracts/Controller.sol\":1089:1113  numConfirmationsRequired */\n  sload(0x00)\n    /* \"contracts/Controller.sol\":1081:1086  index */\n  dup2\n    /* \"contracts/Controller.sol\":1081:1113  index < numConfirmationsRequired */\n  0xff\n  and\n  lt\n    /* \"contracts/Controller.sol\":1059:1307  for (uint8 index = 0; index < numConfirmationsRequired; index++) {... */\n  iszero\n  tag_7\n  jumpi\n    /* \"contracts/Controller.sol\":1143:1158  isAdministrator */\n  0x05\n    /* \"contracts/Controller.sol\":1143:1173  isAdministrator[_admin[index]] */\n  0x00\n    /* \"contracts/Controller.sol\":1159:1165  _admin */\n  dup4\n    /* \"contracts/Controller.sol\":1166:1171  index */\n  dup4\n    /* \"contracts/Controller.sol\":1159:1172  _admin[index] */\n  0xff\n  and\n  dup2\n  mload\n  dup2\n  lt\n  tag_9\n  jumpi\n  tag_10\n  tag_11\n  jump\t// in\ntag_10:\ntag_9:\n  0x20\n  mul\n  0x20\n  add\n  add\n  mload\n    /* \"contracts/Controller.sol\":1143:1173  isAdministrator[_admin[index]] */\n  0xffffffffffffffffffffffffffffffffffffffff\n  and\n  0xffffffffffffffffffffffffffffffffffffffff\n  and\n  dup2\n  mstore\n  0x20\n  add\n  swap1\n  dup2\n  mstore\n  0x20\n  add\n  0x00\n  keccak256\n  0x00\n  swap1\n  sload\n  swap1\n  0x0100\n  exp\n  swap1\n  div\n  0xff\n  and\n    /* \"contracts/Controller.sol\":1138:1297  if (!isAdministrator[_admin[index]]) {... */\n  tag_12\n  jumpi\n    /* \"contracts/Controller.sol\":1193:1207  administrators */\n  0x02\n    /* \"contracts/Controller.sol\":1213:1219  _admin */\n  dup3\n    /* \"contracts/Controller.sol\":1220:1225  index */\n  dup3\n    /* \"contracts/Controller.sol\":1213:1226  _admin[index] */\n  0xff\n  and\n  dup2\n  mload\n  dup2\n  lt\n  tag_13\n  jumpi\n  tag_14\n  tag_11\n  jump\t// in\ntag_14:\ntag_13:\n  0x20\n  mul\n  0x20\n  add\n  add\n  mload\n    /* \"contracts/Controller.sol\":1193:1227  administrators.push(_admin[index]) */\n  swap1\n  dup1\n  0x01\n  dup2\n  sload\n  add\n  dup1\n  dup3\n  sstore\n  dup1\n  swap2\n  pop\n  pop\n  0x01\n  swap1\n  sub\n  swap1\n  0x00\n  mstore\n  keccak256(0x00, 0x20)\n  add\n  0x00\n  swap1\n  swap2\n  swap1\n  swap2\n  swap1\n  swap2\n  0x0100\n  exp\n  dup2\n  sload\n  dup2\n  0xffffffffffffffffffffffffffffffffffffffff\n  mul\n  not\n  and\n  swap1\n  dup4\n  0xffffffffffffffffffffffffffffffffffffffff\n  and\n  mul\n  or\n  swap1\n  sstore\n  pop\n    /* \"contracts/Controller.sol\":1278:1282  true */\n  0x01\n    /* \"contracts/Controller.sol\":1245:1260  isAdministrator */\n  0x05\n    /* \"contracts/Controller.sol\":1245:1275  isAdministrator[_admin[index]] */\n  0x00\n    /* \"contracts/Controller.sol\":1261:1267  _admin */\n  dup5\n    /* \"contracts/Controller.sol\":1268:1273  index */\n  dup5\n    /* \"contracts/Controller.sol\":1261:1274  _admin[index] */\n  0xff\n  and\n  dup2\n  mload\n  dup2\n  lt\n  tag_16\n  jumpi\n  tag_17\n  tag_11\n  jump\t// in\ntag_17:\ntag_16:\n  0x20\n  mul\n  0x20\n  add\n  add\n  mload\n    /* \"contracts/Controller.sol\":1245:1275  isAdministrator[_admin[index]] */\n  0xffffffffffffffffffffffffffffffffffffffff\n  and\n  0xffffffffffffffffffffffffffffffffffffffff\n  and\n  dup2\n  mstore\n  0x20\n  add\n  swap1\n  dup2\n  mstore\n  0x20\n  add\n  0x00\n  keccak256\n  0x00\n    /* \"contracts/Controller.sol\":1245:1282  isAdministrator[_admin[index]] = true */\n  0x0100\n  exp\n  dup2\n  sload\n  dup2\n  0xff\n  mul\n  not\n  and\n  swap1\n  dup4\n  iszero\n  iszero\n  mul\n  or\n  swap1\n  sstore\n  pop\n    /* \"contracts/Controller.sol\":1138:1297  if (!isAdministrator[_admin[index]]) {... */\ntag_12:\n    /* \"contracts/Controller.sol\":1115:1122  index++ */\n  dup1\n  dup1\n  tag_18\n  swap1\n  tag_19\n  jump\t// in\ntag_18:\n  swap2\n  pop\n  pop\n    /* \"contracts/Controller.sol\":1059:1307  for (uint8 index = 0; index < numConfirmationsRequired; index++) {... */\n  jump(tag_6)\ntag_7:\n  pop\n    /* \"contracts/Controller.sol\":902:1313  constructor(address[] memory _admin) {... */\n  pop\n    /* \"contracts/Controller.sol\":103:3829  contract Controller {... */\n  jump(tag_20)\n    /* \"#utility.yul\":7:82   */\ntag_21:\n    /* \"#utility.yul\":40:46   */\n  0x00\n    /* \"#utility.yul\":73:75   */\n  0x40\n    /* \"#utility.yul\":67:76   */\n  mload\n    /* \"#utility.yul\":57:76   */\n  swap1\n  pop\n    /* \"#utility.yul\":7:82   */\n  swap1\n  jump\t// out\n    /* \"#utility.yul\":88:205   */\ntag_22:\n    /* \"#utility.yul\":197:198   */\n  0x00\n    /* \"#utility.yul\":194:195   */\n  0x00\n    /* \"#utility.yul\":187:199   */\n  revert\n    /* \"#utility.yul\":211:328   */\ntag_23:\n    /* \"#utility.yul\":320:321   */\n  0x00\n    /* \"#utility.yul\":317:318   */\n  0x00\n    /* \"#utility.yul\":310:322   */\n  revert\n    /* \"#utility.yul\":334:451   */\ntag_24:\n    /* \"#utility.yul\":443:444   */\n  0x00\n    /* \"#utility.yul\":440:441   */\n  0x00\n    /* \"#utility.yul\":433:445   */\n  revert\n    /* \"#utility.yul\":457:559   */\ntag_25:\n    /* \"#utility.yul\":498:504   */\n  0x00\n    /* \"#utility.yul\":549:551   */\n  0x1f\n    /* \"#utility.yul\":545:552   */\n  not\n    /* \"#utility.yul\":540:542   */\n  0x1f\n    /* \"#utility.yul\":533:538   */\n  dup4\n    /* \"#utility.yul\":529:543   */\n  add\n    /* \"#utility.yul\":525:553   */\n  and\n    /* \"#utility.yul\":515:553   */\n  swap1\n  pop\n    /* \"#utility.yul\":457:559   */\n  swap2\n  swap1\n  pop\n  jump\t// out\n    /* \"#utility.yul\":565:745   */\ntag_26:\n    /* \"#utility.yul\":613:690   */\n  0x4e487b7100000000000000000000000000000000000000000000000000000000\n    /* \"#utility.yul\":610:611   */\n  0x00\n    /* \"#utility.yul\":603:691   */\n  mstore\n    /* \"#utility.yul\":710:714   */\n  0x41\n    /* \"#utility.yul\":707:708   */\n  0x04\n    /* \"#utility.yul\":700:715   */\n  mstore\n    /* \"#utility.yul\":734:738   */\n  0x24\n    /* \"#utility.yul\":731:732   */\n  0x00\n    /* \"#utility.yul\":724:739   */\n  revert\n    /* \"#utility.yul\":751:1032   */\ntag_27:\n    /* \"#utility.yul\":834:861   */\n  tag_47\n    /* \"#utility.yul\":856:860   */\n  dup3\n    /* \"#utility.yul\":834:861   */\n  tag_25\n  jump\t// in\ntag_47:\n    /* \"#utility.yul\":826:832   */\n  dup2\n    /* \"#utility.yul\":822:862   */\n  add\n    /* \"#utility.yul\":964:970   */\n  dup2\n    /* \"#utility.yul\":952:962   */\n  dup2\n    /* \"#utility.yul\":949:971   */\n  lt\n    /* \"#utility.yul\":928:946   */\n  0xffffffffffffffff\n    /* \"#utility.yul\":916:926   */\n  dup3\n    /* \"#utility.yul\":913:947   */\n  gt\n    /* \"#utility.yul\":910:972   */\n  or\n    /* \"#utility.yul\":907:995   */\n  iszero\n  tag_48\n  jumpi\n    /* \"#utility.yul\":975:993   */\n  tag_49\n  tag_26\n  jump\t// in\ntag_49:\n    /* \"#utility.yul\":907:995   */\ntag_48:\n    /* \"#utility.yul\":1015:1025   */\n  dup1\n    /* \"#utility.yul\":1011:1013   */\n  0x40\n    /* \"#utility.yul\":1004:1026   */\n  mstore\n    /* \"#utility.yul\":794:1032   */\n  pop\n    /* \"#utility.yul\":751:1032   */\n  pop\n  pop\n  jump\t// out\n    /* \"#utility.yul\":1038:1167   */\ntag_28:\n    /* \"#utility.yul\":1072:1078   */\n  0x00\n    /* \"#utility.yul\":1099:1119   */\n  tag_51\n  tag_21\n  jump\t// in\ntag_51:\n    /* \"#utility.yul\":1089:1119   */\n  swap1\n  pop\n    /* \"#utility.yul\":1128:1161   */\n  tag_52\n    /* \"#utility.yul\":1156:1160   */\n  dup3\n    /* \"#utility.yul\":1148:1154   */\n  dup3\n    /* \"#utility.yul\":1128:1161   */\n  tag_27\n  jump\t// in\ntag_52:\n    /* \"#utility.yul\":1038:1167   */\n  swap2\n  swap1\n  pop\n  jump\t// out\n    /* \"#utility.yul\":1173:1484   */\ntag_29:\n    /* \"#utility.yul\":1250:1254   */\n  0x00\n    /* \"#utility.yul\":1340:1358   */\n  0xffffffffffffffff\n    /* \"#utility.yul\":1332:1338   */\n  dup3\n    /* \"#utility.yul\":1329:1359   */\n  gt\n    /* \"#utility.yul\":1326:1382   */\n  iszero\n  tag_54\n  jumpi\n    /* \"#utility.yul\":1362:1380   */\n  tag_55\n  tag_26\n  jump\t// in\ntag_55:\n    /* \"#utility.yul\":1326:1382   */\ntag_54:\n    /* \"#utility.yul\":1412:1416   */\n  0x20\n    /* \"#utility.yul\":1404:1410   */\n  dup3\n    /* \"#utility.yul\":1400:1417   */\n  mul\n    /* \"#utility.yul\":1392:1417   */\n  swap1\n  pop\n    /* \"#utility.yul\":1472:1476   */\n  0x20\n    /* \"#utility.yul\":1466:1470   */\n  dup2\n    /* \"#utility.yul\":1462:1477   */\n  add\n    /* \"#utility.yul\":1454:1477   */\n  swap1\n  pop\n    /* \"#utility.yul\":1173:1484   */\n  swap2\n  swap1\n  pop\n  jump\t// out\n    /* \"#utility.yul\":1490:1607   */\ntag_30:\n    /* \"#utility.yul\":1599:1600   */\n  0x00\n    /* \"#utility.yul\":1596:1597   */\n  0x00\n    /* \"#utility.yul\":1589:1601   */\n  revert\n    /* \"#utility.yul\":1613:1739   */\ntag_31:\n    /* \"#utility.yul\":1650:1657   */\n  0x00\n    /* \"#utility.yul\":1690:1732   */\n  0xffffffffffffffffffffffffffffffffffffffff\n    /* \"#utility.yul\":1683:1688   */\n  dup3\n    /* \"#utility.yul\":1679:1733   */\n  and\n    /* \"#utility.yul\":1668:1733   */\n  swap1\n  pop\n    /* \"#utility.yul\":1613:1739   */\n  swap2\n  swap1\n  pop\n  jump\t// out\n    /* \"#utility.yul\":1745:1841   */\ntag_32:\n    /* \"#utility.yul\":1782:1789   */\n  0x00\n    /* \"#utility.yul\":1811:1835   */\n  tag_59\n    /* \"#utility.yul\":1829:1834   */\n  dup3\n    /* \"#utility.yul\":1811:1835   */\n  tag_31\n  jump\t// in\ntag_59:\n    /* \"#utility.yul\":1800:1835   */\n  swap1\n  pop\n    /* \"#utility.yul\":1745:1841   */\n  swap2\n  swap1\n  pop\n  jump\t// out\n    /* \"#utility.yul\":1847:1969   */\ntag_33:\n    /* \"#utility.yul\":1920:1944   */\n  tag_61\n    /* \"#utility.yul\":1938:1943   */\n  dup2\n    /* \"#utility.yul\":1920:1944   */\n  tag_32\n  jump\t// in\ntag_61:\n    /* \"#utility.yul\":1913:1918   */\n  dup2\n    /* \"#utility.yul\":1910:1945   */\n  eq\n    /* \"#utility.yul\":1900:1963   */\n  tag_62\n  jumpi\n    /* \"#utility.yul\":1959:1960   */\n  0x00\n    /* \"#utility.yul\":1956:1957   */\n  0x00\n    /* \"#utility.yul\":1949:1961   */\n  revert\n    /* \"#utility.yul\":1900:1963   */\ntag_62:\n    /* \"#utility.yul\":1847:1969   */\n  pop\n  jump\t// out\n    /* \"#utility.yul\":1975:2118   */\ntag_34:\n    /* \"#utility.yul\":2032:2037   */\n  0x00\n    /* \"#utility.yul\":2063:2069   */\n  dup2\n    /* \"#utility.yul\":2057:2070   */\n  mload\n    /* \"#utility.yul\":2048:2070   */\n  swap1\n  pop\n    /* \"#utility.yul\":2079:2112   */\n  tag_64\n    /* \"#utility.yul\":2106:2111   */\n  dup2\n    /* \"#utility.yul\":2079:2112   */\n  tag_33\n  jump\t// in\ntag_64:\n    /* \"#utility.yul\":1975:2118   */\n  swap3\n  swap2\n  pop\n  pop\n  jump\t// out\n    /* \"#utility.yul\":2141:2873   */\ntag_35:\n    /* \"#utility.yul\":2248:2253   */\n  0x00\n    /* \"#utility.yul\":2273:2354   */\n  tag_66\n    /* \"#utility.yul\":2289:2353   */\n  tag_67\n    /* \"#utility.yul\":2346:2352   */\n  dup5\n    /* \"#utility.yul\":2289:2353   */\n  tag_29\n  jump\t// in\ntag_67:\n    /* \"#utility.yul\":2273:2354   */\n  tag_28\n  jump\t// in\ntag_66:\n    /* \"#utility.yul\":2264:2354   */\n  swap1\n  pop\n    /* \"#utility.yul\":2374:2379   */\n  dup1\n    /* \"#utility.yul\":2403:2409   */\n  dup4\n    /* \"#utility.yul\":2396:2401   */\n  dup3\n    /* \"#utility.yul\":2389:2410   */\n  mstore\n    /* \"#utility.yul\":2437:2441   */\n  0x20\n    /* \"#utility.yul\":2430:2435   */\n  dup3\n    /* \"#utility.yul\":2426:2442   */\n  add\n    /* \"#utility.yul\":2419:2442   */\n  swap1\n  pop\n    /* \"#utility.yul\":2490:2494   */\n  0x20\n    /* \"#utility.yul\":2482:2488   */\n  dup5\n    /* \"#utility.yul\":2478:2495   */\n  mul\n    /* \"#utility.yul\":2470:2476   */\n  dup4\n    /* \"#utility.yul\":2466:2496   */\n  add\n    /* \"#utility.yul\":2519:2522   */\n  dup6\n    /* \"#utility.yul\":2511:2517   */\n  dup2\n    /* \"#utility.yul\":2508:2523   */\n  gt\n    /* \"#utility.yul\":2505:2627   */\n  iszero\n  tag_68\n  jumpi\n    /* \"#utility.yul\":2538:2617   */\n  tag_69\n  tag_30\n  jump\t// in\ntag_69:\n    /* \"#utility.yul\":2505:2627   */\ntag_68:\n    /* \"#utility.yul\":2653:2659   */\n  dup4\n    /* \"#utility.yul\":2636:2867   */\ntag_70:\n    /* \"#utility.yul\":2670:2676   */\n  dup2\n    /* \"#utility.yul\":2665:2668   */\n  dup2\n    /* \"#utility.yul\":2662:2677   */\n  lt\n    /* \"#utility.yul\":2636:2867   */\n  iszero\n  tag_72\n  jumpi\n    /* \"#utility.yul\":2745:2748   */\n  dup1\n    /* \"#utility.yul\":2774:2822   */\n  tag_73\n    /* \"#utility.yul\":2818:2821   */\n  dup9\n    /* \"#utility.yul\":2806:2816   */\n  dup3\n    /* \"#utility.yul\":2774:2822   */\n  tag_34\n  jump\t// in\ntag_73:\n    /* \"#utility.yul\":2769:2772   */\n  dup5\n    /* \"#utility.yul\":2762:2823   */\n  mstore\n    /* \"#utility.yul\":2852:2856   */\n  0x20\n    /* \"#utility.yul\":2847:2850   */\n  dup5\n    /* \"#utility.yul\":2843:2857   */\n  add\n    /* \"#utility.yul\":2836:2857   */\n  swap4\n  pop\n    /* \"#utility.yul\":2712:2867   */\n  pop\n    /* \"#utility.yul\":2696:2700   */\n  0x20\n    /* \"#utility.yul\":2691:2694   */\n  dup2\n    /* \"#utility.yul\":2687:2701   */\n  add\n    /* \"#utility.yul\":2680:2701   */\n  swap1\n  pop\n    /* \"#utility.yul\":2636:2867   */\n  jump(tag_70)\ntag_72:\n    /* \"#utility.yul\":2640:2661   */\n  pop\n    /* \"#utility.yul\":2254:2873   */\n  pop\n  pop\n    /* \"#utility.yul\":2141:2873   */\n  swap4\n  swap3\n  pop\n  pop\n  pop\n  jump\t// out\n    /* \"#utility.yul\":2896:3281   */\ntag_36:\n    /* \"#utility.yul\":2978:2983   */\n  0x00\n    /* \"#utility.yul\":3027:3030   */\n  dup3\n    /* \"#utility.yul\":3020:3024   */\n  0x1f\n    /* \"#utility.yul\":3012:3018   */\n  dup4\n    /* \"#utility.yul\":3008:3025   */\n  add\n    /* \"#utility.yul\":3004:3031   */\n  slt\n    /* \"#utility.yul\":2994:3116   */\n  tag_75\n  jumpi\n    /* \"#utility.yul\":3035:3114   */\n  tag_76\n  tag_24\n  jump\t// in\ntag_76:\n    /* \"#utility.yul\":2994:3116   */\ntag_75:\n    /* \"#utility.yul\":3145:3151   */\n  dup2\n    /* \"#utility.yul\":3139:3152   */\n  mload\n    /* \"#utility.yul\":3170:3275   */\n  tag_77\n    /* \"#utility.yul\":3271:3274   */\n  dup5\n    /* \"#utility.yul\":3263:3269   */\n  dup3\n    /* \"#utility.yul\":3256:3260   */\n  0x20\n    /* \"#utility.yul\":3248:3254   */\n  dup7\n    /* \"#utility.yul\":3244:3261   */\n  add\n    /* \"#utility.yul\":3170:3275   */\n  tag_35\n  jump\t// in\ntag_77:\n    /* \"#utility.yul\":3161:3275   */\n  swap2\n  pop\n    /* \"#utility.yul\":2984:3281   */\n  pop\n    /* \"#utility.yul\":2896:3281   */\n  swap3\n  swap2\n  pop\n  pop\n  jump\t// out\n    /* \"#utility.yul\":3287:3841   */\ntag_3:\n    /* \"#utility.yul\":3382:3388   */\n  0x00\n    /* \"#utility.yul\":3431:3433   */\n  0x20\n    /* \"#utility.yul\":3419:3428   */\n  dup3\n    /* \"#utility.yul\":3410:3417   */\n  dup5\n    /* \"#utility.yul\":3406:3429   */\n  sub\n    /* \"#utility.yul\":3402:3434   */\n  slt\n    /* \"#utility.yul\":3399:3518   */\n  iszero\n  tag_79\n  jumpi\n    /* \"#utility.yul\":3437:3516   */\n  tag_80\n  tag_22\n  jump\t// in\ntag_80:\n    /* \"#utility.yul\":3399:3518   */\ntag_79:\n    /* \"#utility.yul\":3578:3579   */\n  0x00\n    /* \"#utility.yul\":3567:3576   */\n  dup3\n    /* \"#utility.yul\":3563:3580   */\n  add\n    /* \"#utility.yul\":3557:3581   */\n  mload\n    /* \"#utility.yul\":3608:3626   */\n  0xffffffffffffffff\n    /* \"#utility.yul\":3600:3606   */\n  dup2\n    /* \"#utility.yul\":3597:3627   */\n  gt\n    /* \"#utility.yul\":3594:3711   */\n  iszero\n  tag_81\n  jumpi\n    /* \"#utility.yul\":3630:3709   */\n  tag_82\n  tag_23\n  jump\t// in\ntag_82:\n    /* \"#utility.yul\":3594:3711   */\ntag_81:\n    /* \"#utility.yul\":3735:3824   */\n  tag_83\n    /* \"#utility.yul\":3816:3823   */\n  dup5\n    /* \"#utility.yul\":3807:3813   */\n  dup3\n    /* \"#utility.yul\":3796:3805   */\n  dup6\n    /* \"#utility.yul\":3792:3814   */\n  add\n    /* \"#utility.yul\":3735:3824   */\n  tag_36\n  jump\t// in\ntag_83:\n    /* \"#utility.yul\":3725:3824   */\n  swap2\n  pop\n    /* \"#utility.yul\":3528:3834   */\n  pop\n    /* \"#utility.yul\":3287:3841   */\n  swap3\n  swap2\n  pop\n  pop\n  jump\t// out\n    /* \"#utility.yul\":3847:4027   */\ntag_11:\n    /* \"#utility.yul\":3895:3972   */\n  0x4e487b7100000000000000000000000000000000000000000000000000000000\n    /* \"#utility.yul\":3892:3893   */\n  0x00\n    /* \"#utility.yul\":3885:3973   */\n  mstore\n    /* \"#utility.yul\":3992:3996   */\n  0x32\n    /* \"#utility.yul\":3989:3990   */\n  0x04\n    /* \"#utility.yul\":3982:3997   */\n  mstore\n    /* \"#utility.yul\":4016:4020   */\n  0x24\n    /* \"#utility.yul\":4013:4014   */\n  0x00\n    /* \"#utility.yul\":4006:4021   */\n  revert\n    /* \"#utility.yul\":4033:4213   */\ntag_37:\n    /* \"#utility.yul\":4081:4158   */\n  0x4e487b7100000000000000000000000000000000000000000000000000000000\n    /* \"#utility.yul\":4078:4079   */\n  0x00\n    /* \"#utility.yul\":4071:4159   */\n  mstore\n    /* \"#utility.yul\":4178:4182   */\n  0x11\n    /* \"#utility.yul\":4175:4176   */\n  0x04\n    /* \"#utility.yul\":4168:4183   */\n  mstore\n    /* \"#utility.yul\":4202:4206   */\n  0x24\n    /* \"#utility.yul\":4199:4200   */\n  0x00\n    /* \"#utility.yul\":4192:4207   */\n  revert\n    /* \"#utility.yul\":4219:4305   */\ntag_38:\n    /* \"#utility.yul\":4254:4261   */\n  0x00\n    /* \"#utility.yul\":4294:4298   */\n  0xff\n    /* \"#utility.yul\":4287:4292   */\n  dup3\n    /* \"#utility.yul\":4283:4299   */\n  and\n    /* \"#utility.yul\":4272:4299   */\n  swap1\n  pop\n    /* \"#utility.yul\":4219:4305   */\n  swap2\n  swap1\n  pop\n  jump\t// out\n    /* \"#utility.yul\":4311:4478   */\ntag_19:\n    /* \"#utility.yul\":4348:4351   */\n  0x00\n    /* \"#utility.yul\":4371:4393   */\n  tag_88\n    /* \"#utility.yul\":4387:4392   */\n  dup3\n    /* \"#utility.yul\":4371:4393   */\n  tag_38\n  jump\t// in\ntag_88:\n    /* \"#utility.yul\":4362:4393   */\n  swap2\n  pop\n    /* \"#utility.yul\":4415:4419   */\n  0xff\n    /* \"#utility.yul\":4408:4413   */\n  dup3\n    /* \"#utility.yul\":4405:4420   */\n  sub\n    /* \"#utility.yul\":4402:4443   */\n  tag_89\n  jumpi\n    /* \"#utility.yul\":4423:4441   */\n  tag_90\n  tag_37\n  jump\t// in\ntag_90:\n    /* \"#utility.yul\":4402:4443   */\ntag_89:\n    /* \"#utility.yul\":4470:4471   */\n  0x01\n    /* \"#utility.yul\":4463:4468   */\n  dup3\n    /* \"#utility.yul\":4459:4472   */\n  add\n    /* \"#utility.yul\":4452:4472   */\n  swap1\n  pop\n    /* \"#utility.yul\":4311:4478   */\n  swap2\n  swap1\n  pop\n  jump\t// out\n    /* \"contracts/Controller.sol\":103:3829  contract Controller {... */\ntag_20:\n  dataSize(sub_0)\n  dup1\n  dataOffset(sub_0)\n  0x00\n  codecopy\n  0x00\n  return\nstop\n\nsub_0: assembly {\n        /* \"contracts/Controller.sol\":103:3829  contract Controller {... */\n      mstore(0x40, 0x80)\n      callvalue\n      dup1\n      iszero\n      tag_1\n      jumpi\n      revert(0x00, 0x00)\n    tag_1:\n      pop\n      jumpi(tag_2, lt(calldatasize, 0x04))\n      shr(0xe0, calldataload(0x00))\n      dup1\n      0x83920e90\n      gt\n      tag_13\n      jumpi\n      dup1\n      0x83920e90\n      eq\n      tag_8\n      jumpi\n      dup1\n      0x893d20e8\n      eq\n      tag_9\n      jumpi\n      dup1\n      0xac02d288\n      eq\n      tag_10\n      jumpi\n      dup1\n      0xb4ce7d45\n      eq\n      tag_11\n      jumpi\n      dup1\n      0xc01a8c84\n      eq\n      tag_12\n      jumpi\n      jump(tag_2)\n    tag_13:\n      dup1\n      0x0a57dfb8\n      eq\n      tag_3\n      jumpi\n      dup1\n      0x13af4035\n      eq\n      tag_4\n      jumpi\n      dup1\n      0x20ea8d86\n      eq\n      tag_5\n      jumpi\n      dup1\n      0x543b3693\n      eq\n      tag_6\n      jumpi\n      dup1\n      0x60523440\n      eq\n      tag_7\n      jumpi\n    tag_2:\n      revert(0x00, 0x00)\n        /* \"contracts/Controller.sol\":1502:1744  function setConfirmationsRequired(uint256 _value) external OnlyOwner {... */\n    tag_3:\n      tag_14\n      0x04\n      dup1\n      calldatasize\n      sub\n      dup2\n      add\n      swap1\n      tag_15\n      swap2\n      swap1\n      tag_16\n      jump\t// in\n    tag_15:\n      tag_17\n      jump\t// in\n    tag_14:\n      stop\n        /* \"contracts/Controller.sol\":2548:2696  function setOwner(address _owner) external OnlyOwner {... */\n    tag_4:\n      tag_18\n      0x04\n      dup1\n      calldatasize\n      sub\n      dup2\n      add\n      swap1\n      tag_19\n      swap2\n      swap1\n      tag_20\n      jump\t// in\n    tag_19:\n      tag_21\n      jump\t// in\n    tag_18:\n      stop\n        /* \"contracts/Controller.sol\":3597:3827  function revokeConfirmation(uint _txIndex) external OnlyAdministrator {... */\n    tag_5:\n      tag_22\n      0x04\n      dup1\n      calldatasize\n      sub\n      dup2\n      add\n      swap1\n      tag_23\n      swap2\n      swap1\n      tag_16\n      jump\t// in\n    tag_23:\n      tag_24\n      jump\t// in\n    tag_22:\n      stop\n        /* \"contracts/Controller.sol\":1778:1885  function getAdministrators() external view returns(address[] memory) {... */\n    tag_6:\n      tag_25\n      tag_26\n      jump\t// in\n    tag_25:\n      mload(0x40)\n      tag_27\n      swap2\n      swap1\n      tag_28\n      jump\t// in\n    tag_27:\n      mload(0x40)\n      dup1\n      swap2\n      sub\n      swap1\n      return\n        /* \"contracts/Controller.sol\":1348:1467  function getNumConfirmationsRequired() external view returns (uint256) {... */\n    tag_7:\n      tag_29\n      tag_30\n      jump\t// in\n    tag_29:\n      mload(0x40)\n      tag_31\n      swap2\n      swap1\n      tag_32\n      jump\t// in\n    tag_31:\n      mload(0x40)\n      dup1\n      swap2\n      sub\n      swap1\n      return\n        /* \"contracts/Controller.sol\":2731:2848  function getTransactions() external view returns (MultiSig.Transaction[] memory) {... */\n    tag_8:\n      tag_33\n      tag_34\n      jump\t// in\n    tag_33:\n      mload(0x40)\n      tag_35\n      swap2\n      swap1\n      tag_36\n      jump\t// in\n    tag_35:\n      mload(0x40)\n      dup1\n      swap2\n      sub\n      swap1\n      return\n        /* \"contracts/Controller.sol\":2442:2523  function getOwner() external view returns (address) {... */\n    tag_9:\n      tag_37\n      tag_38\n      jump\t// in\n    tag_37:\n      mload(0x40)\n      tag_39\n      swap2\n      swap1\n      tag_40\n      jump\t// in\n    tag_39:\n      mload(0x40)\n      dup1\n      swap2\n      sub\n      swap1\n      return\n        /* \"contracts/Controller.sol\":2889:3277  function commitSetMarketOwner(address _market, address _newOwner) external OnlyAdministrator returns (uint) {... */\n    tag_10:\n      tag_41\n      0x04\n      dup1\n      calldatasize\n      sub\n      dup2\n      add\n      swap1\n      tag_42\n      swap2\n      swap1\n      tag_43\n      jump\t// in\n    tag_42:\n      tag_44\n      jump\t// in\n    tag_41:\n      mload(0x40)\n      tag_45\n      swap2\n      swap1\n      tag_32\n      jump\t// in\n    tag_45:\n      mload(0x40)\n      dup1\n      swap2\n      sub\n      swap1\n      return\n        /* \"contracts/Controller.sol\":1919:2417  function setAdministrators(address[] memory _admin) external OnlyOwner {... */\n    tag_11:\n      tag_46\n      0x04\n      dup1\n      calldatasize\n      sub\n      dup2\n      add\n      swap1\n      tag_47\n      swap2\n      swap1\n      tag_48\n      jump\t// in\n    tag_47:\n      tag_49\n      jump\t// in\n    tag_46:\n      stop\n        /* \"contracts/Controller.sol\":3303:3571  function confirmTransaction(uint _txIndex) external OnlyAdministrator {... */\n    tag_12:\n      tag_50\n      0x04\n      dup1\n      calldatasize\n      sub\n      dup2\n      add\n      swap1\n      tag_51\n      swap2\n      swap1\n      tag_16\n      jump\t// in\n    tag_51:\n      tag_52\n      jump\t// in\n    tag_50:\n      stop\n        /* \"contracts/Controller.sol\":1502:1744  function setConfirmationsRequired(uint256 _value) external OnlyOwner {... */\n    tag_17:\n        /* \"contracts/Controller.sol\":301:308  isOwner */\n      0x04\n        /* \"contracts/Controller.sol\":301:320  isOwner[msg.sender] */\n      0x00\n        /* \"contracts/Controller.sol\":309:319  msg.sender */\n      caller\n        /* \"contracts/Controller.sol\":301:320  isOwner[msg.sender] */\n      0xffffffffffffffffffffffffffffffffffffffff\n      and\n      0xffffffffffffffffffffffffffffffffffffffff\n      and\n      dup2\n      mstore\n      0x20\n      add\n      swap1\n      dup2\n      mstore\n      0x20\n      add\n      0x00\n      keccak256\n      0x00\n      swap1\n      sload\n      swap1\n      0x0100\n      exp\n      swap1\n      div\n      0xff\n      and\n        /* \"contracts/Controller.sol\":293:347  require(isOwner[msg.sender], \"Only the owner can use\") */\n      tag_54\n      jumpi\n      mload(0x40)\n      0x08c379a000000000000000000000000000000000000000000000000000000000\n      dup2\n      mstore\n      0x04\n      add\n      tag_55\n      swap1\n      tag_56\n      jump\t// in\n    tag_55:\n      mload(0x40)\n      dup1\n      swap2\n      sub\n      swap1\n      revert\n    tag_54:\n        /* \"contracts/Controller.sol\":1601:1602  1 */\n      0x01\n        /* \"contracts/Controller.sol\":1591:1597  _value */\n      dup2\n        /* \"contracts/Controller.sol\":1591:1602  _value >= 1 */\n      lt\n      iszero\n        /* \"contracts/Controller.sol\":1590:1638  (_value >= 1)&&(_value <= administrators.length) */\n      dup1\n      iszero\n      tag_58\n      jumpi\n      pop\n        /* \"contracts/Controller.sol\":1616:1630  administrators */\n      0x02\n        /* \"contracts/Controller.sol\":1616:1637  administrators.length */\n      dup1\n      sload\n      swap1\n      pop\n        /* \"contracts/Controller.sol\":1606:1612  _value */\n      dup2\n        /* \"contracts/Controller.sol\":1606:1637  _value <= administrators.length */\n      gt\n      iszero\n        /* \"contracts/Controller.sol\":1590:1638  (_value >= 1)&&(_value <= administrators.length) */\n    tag_58:\n        /* \"contracts/Controller.sol\":1581:1694  require(((_value >= 1)&&(_value <= administrators.length)), \"required number must >= 1 or <= controller member.\") */\n      tag_59\n      jumpi\n      mload(0x40)\n      0x08c379a000000000000000000000000000000000000000000000000000000000\n      dup2\n      mstore\n      0x04\n      add\n      tag_60\n      swap1\n      tag_61\n      jump\t// in\n    tag_60:\n      mload(0x40)\n      dup1\n      swap2\n      sub\n      swap1\n      revert\n    tag_59:\n        /* \"contracts/Controller.sol\":1731:1737  _value */\n      dup1\n        /* \"contracts/Controller.sol\":1704:1728  numConfirmationsRequired */\n      0x00\n        /* \"contracts/Controller.sol\":1704:1737  numConfirmationsRequired = _value */\n      dup2\n      swap1\n      sstore\n      pop\n        /* \"contracts/Controller.sol\":1502:1744  function setConfirmationsRequired(uint256 _value) external OnlyOwner {... */\n      pop\n      jump\t// out\n        /* \"contracts/Controller.sol\":2548:2696  function setOwner(address _owner) external OnlyOwner {... */\n    tag_21:\n        /* \"contracts/Controller.sol\":301:308  isOwner */\n      0x04\n        /* \"contracts/Controller.sol\":301:320  isOwner[msg.sender] */\n      0x00\n        /* \"contracts/Controller.sol\":309:319  msg.sender */\n      caller\n        /* \"contracts/Controller.sol\":301:320  isOwner[msg.sender] */\n      0xffffffffffffffffffffffffffffffffffffffff\n      and\n      0xffffffffffffffffffffffffffffffffffffffff\n      and\n      dup2\n      mstore\n      0x20\n      add\n      swap1\n      dup2\n      mstore\n      0x20\n      add\n      0x00\n      keccak256\n      0x00\n      swap1\n      sload\n      swap1\n      0x0100\n      exp\n      swap1\n      div\n      0xff\n      and\n        /* \"contracts/Controller.sol\":293:347  require(isOwner[msg.sender], \"Only the owner can use\") */\n      tag_63\n      jumpi\n      mload(0x40)\n      0x08c379a000000000000000000000000000000000000000000000000000000000\n      dup2\n      mstore\n      0x04\n      add\n      tag_64\n      swap1\n      tag_56\n      jump\t// in\n    tag_64:\n      mload(0x40)\n      dup1\n      swap2\n      sub\n      swap1\n      revert\n    tag_63:\n        /* \"contracts/Controller.sol\":2628:2633  false */\n      0x00\n        /* \"contracts/Controller.sol\":2611:2618  isOwner */\n      0x04\n        /* \"contracts/Controller.sol\":2611:2625  isOwner[owner] */\n      0x00\n        /* \"contracts/Controller.sol\":2619:2624  owner */\n      0x01\n      0x00\n      swap1\n      sload\n      swap1\n      0x0100\n      exp\n      swap1\n      div\n      0xffffffffffffffffffffffffffffffffffffffff\n      and\n        /* \"contracts/Controller.sol\":2611:2625  isOwner[owner] */\n      0xffffffffffffffffffffffffffffffffffffffff\n      and\n      0xffffffffffffffffffffffffffffffffffffffff\n      and\n      dup2\n      mstore\n      0x20\n      add\n      swap1\n      dup2\n      mstore\n      0x20\n      add\n      0x00\n      keccak256\n      0x00\n        /* \"contracts/Controller.sol\":2611:2633  isOwner[owner] = false */\n      0x0100\n      exp\n      dup2\n      sload\n      dup2\n      0xff\n      mul\n      not\n      and\n      swap1\n      dup4\n      iszero\n      iszero\n      mul\n      or\n      swap1\n      sstore\n      pop\n        /* \"contracts/Controller.sol\":2651:2657  _owner */\n      dup1\n        /* \"contracts/Controller.sol\":2643:2648  owner */\n      0x01\n      0x00\n        /* \"contracts/Controller.sol\":2643:2657  owner = _owner */\n      0x0100\n      exp\n      dup2\n      sload\n      dup2\n      0xffffffffffffffffffffffffffffffffffffffff\n      mul\n      not\n      and\n      swap1\n      dup4\n      0xffffffffffffffffffffffffffffffffffffffff\n      and\n      mul\n      or\n      swap1\n      sstore\n      pop\n        /* \"contracts/Controller.sol\":2685:2689  true */\n      0x01\n        /* \"contracts/Controller.sol\":2667:2674  isOwner */\n      0x04\n        /* \"contracts/Controller.sol\":2667:2682  isOwner[_owner] */\n      0x00\n        /* \"contracts/Controller.sol\":2675:2681  _owner */\n      dup4\n        /* \"contracts/Controller.sol\":2667:2682  isOwner[_owner] */\n      0xffffffffffffffffffffffffffffffffffffffff\n      and\n      0xffffffffffffffffffffffffffffffffffffffff\n      and\n      dup2\n      mstore\n      0x20\n      add\n      swap1\n      dup2\n      mstore\n      0x20\n      add\n      0x00\n      keccak256\n      0x00\n        /* \"contracts/Controller.sol\":2667:2689  isOwner[_owner] = true */\n      0x0100\n      exp\n      dup2\n      sload\n      dup2\n      0xff\n      mul\n      not\n      and\n      swap1\n      dup4\n      iszero\n      iszero\n      mul\n      or\n      swap1\n      sstore\n      pop\n        /* \"contracts/Controller.sol\":2548:2696  function setOwner(address _owner) external OnlyOwner {... */\n      pop\n      jump\t// out\n        /* \"contracts/Controller.sol\":3597:3827  function revokeConfirmation(uint _txIndex) external OnlyAdministrator {... */\n    tag_24:\n        /* \"contracts/Controller.sol\":176:191  isAdministrator */\n      0x05\n        /* \"contracts/Controller.sol\":176:203  isAdministrator[msg.sender] */\n      0x00\n        /* \"contracts/Controller.sol\":192:202  msg.sender */\n      caller\n        /* \"contracts/Controller.sol\":176:203  isAdministrator[msg.sender] */\n      0xffffffffffffffffffffffffffffffffffffffff\n      and\n      0xffffffffffffffffffffffffffffffffffffffff\n      and\n      dup2\n      mstore\n      0x20\n      add\n      swap1\n      dup2\n      mstore\n      0x20\n      add\n      0x00\n      keccak256\n      0x00\n      swap1\n      sload\n      swap1\n      0x0100\n      exp\n      swap1\n      div\n      0xff\n      and\n        /* \"contracts/Controller.sol\":168:238  require(isAdministrator[msg.sender], \"Only the administrator can use\") */\n      tag_67\n      jumpi\n      mload(0x40)\n      0x08c379a000000000000000000000000000000000000000000000000000000000\n      dup2\n      mstore\n      0x04\n      add\n      tag_68\n      swap1\n      tag_69\n      jump\t// in\n    tag_68:\n      mload(0x40)\n      dup1\n      swap2\n      sub\n      swap1\n      revert\n    tag_67:\n        /* \"contracts/Controller.sol\":3677:3820  MultiSig.revokeConfirmation(... */\n      tag_71\n        /* \"contracts/Controller.sol\":3718:3730  transactions */\n      0x03\n        /* \"contracts/Controller.sol\":3745:3756  isConfirmed */\n      0x07\n        /* \"contracts/Controller.sol\":3771:3787  numConfirmations */\n      0x06\n        /* \"contracts/Controller.sol\":3802:3810  _txIndex */\n      dup5\n        /* \"contracts/Controller.sol\":3677:3704  MultiSig.revokeConfirmation */\n      tag_72\n        /* \"contracts/Controller.sol\":3677:3820  MultiSig.revokeConfirmation(... */\n      jump\t// in\n    tag_71:\n        /* \"contracts/Controller.sol\":3597:3827  function revokeConfirmation(uint _txIndex) external OnlyAdministrator {... */\n      pop\n      jump\t// out\n        /* \"contracts/Controller.sol\":1778:1885  function getAdministrators() external view returns(address[] memory) {... */\n    tag_26:\n        /* \"contracts/Controller.sol\":1829:1845  address[] memory */\n      0x60\n        /* \"contracts/Controller.sol\":1864:1878  administrators */\n      0x02\n        /* \"contracts/Controller.sol\":1857:1878  return administrators */\n      dup1\n      sload\n      dup1\n      0x20\n      mul\n      0x20\n      add\n      mload(0x40)\n      swap1\n      dup2\n      add\n      0x40\n      mstore\n      dup1\n      swap3\n      swap2\n      swap1\n      dup2\n      dup2\n      mstore\n      0x20\n      add\n      dup3\n      dup1\n      sload\n      dup1\n      iszero\n      tag_74\n      jumpi\n      0x20\n      mul\n      dup3\n      add\n      swap2\n      swap1\n      0x00\n      mstore\n      keccak256(0x00, 0x20)\n      swap1\n    tag_75:\n      dup2\n      0x00\n      swap1\n      sload\n      swap1\n      0x0100\n      exp\n      swap1\n      div\n      0xffffffffffffffffffffffffffffffffffffffff\n      and\n      0xffffffffffffffffffffffffffffffffffffffff\n      and\n      dup2\n      mstore\n      0x20\n      add\n      swap1\n      0x01\n      add\n      swap1\n      dup1\n      dup4\n      gt\n      tag_75\n      jumpi\n    tag_74:\n      pop\n      pop\n      pop\n      pop\n      pop\n      swap1\n      pop\n        /* \"contracts/Controller.sol\":1778:1885  function getAdministrators() external view returns(address[] memory) {... */\n      swap1\n      jump\t// out\n        /* \"contracts/Controller.sol\":1348:1467  function getNumConfirmationsRequired() external view returns (uint256) {... */\n    tag_30:\n        /* \"contracts/Controller.sol\":1410:1417  uint256 */\n      0x00\n        /* \"contracts/Controller.sol\":1436:1460  numConfirmationsRequired */\n      sload(0x00)\n        /* \"contracts/Controller.sol\":1429:1460  return numConfirmationsRequired */\n      swap1\n      pop\n        /* \"contracts/Controller.sol\":1348:1467  function getNumConfirmationsRequired() external view returns (uint256) {... */\n      swap1\n      jump\t// out\n        /* \"contracts/Controller.sol\":2731:2848  function getTransactions() external view returns (MultiSig.Transaction[] memory) {... */\n    tag_34:\n        /* \"contracts/Controller.sol\":2781:2810  MultiSig.Transaction[] memory */\n      0x60\n        /* \"contracts/Controller.sol\":2829:2841  transactions */\n      0x03\n        /* \"contracts/Controller.sol\":2822:2841  return transactions */\n      dup1\n      sload\n      dup1\n      0x20\n      mul\n      0x20\n      add\n      mload(0x40)\n      swap1\n      dup2\n      add\n      0x40\n      mstore\n      dup1\n      swap3\n      swap2\n      swap1\n      dup2\n      dup2\n      mstore\n      0x20\n      add\n      0x00\n      swap1\n    tag_78:\n      dup3\n      dup3\n      lt\n      iszero\n      tag_79\n      jumpi\n      dup4\n      dup3\n      swap1\n      0x00\n      mstore\n      keccak256(0x00, 0x20)\n      swap1\n      0x02\n      mul\n      add\n      mload(0x40)\n      dup1\n      0x80\n      add\n      0x40\n      mstore\n      swap1\n      dup2\n      0x00\n      dup3\n      add\n      dup1\n      sload\n      tag_81\n      swap1\n      tag_82\n      jump\t// in\n    tag_81:\n      dup1\n      0x1f\n      add\n      0x20\n      dup1\n      swap2\n      div\n      mul\n      0x20\n      add\n      mload(0x40)\n      swap1\n      dup2\n      add\n      0x40\n      mstore\n      dup1\n      swap3\n      swap2\n      swap1\n      dup2\n      dup2\n      mstore\n      0x20\n      add\n      dup3\n      dup1\n      sload\n      tag_83\n      swap1\n      tag_82\n      jump\t// in\n    tag_83:\n      dup1\n      iszero\n      tag_84\n      jumpi\n      dup1\n      0x1f\n      lt\n      tag_85\n      jumpi\n      0x0100\n      dup1\n      dup4\n      sload\n      div\n      mul\n      dup4\n      mstore\n      swap2\n      0x20\n      add\n      swap2\n      jump(tag_84)\n    tag_85:\n      dup3\n      add\n      swap2\n      swap1\n      0x00\n      mstore\n      keccak256(0x00, 0x20)\n      swap1\n    tag_86:\n      dup2\n      sload\n      dup2\n      mstore\n      swap1\n      0x01\n      add\n      swap1\n      0x20\n      add\n      dup1\n      dup4\n      gt\n      tag_86\n      jumpi\n      dup3\n      swap1\n      sub\n      0x1f\n      and\n      dup3\n      add\n      swap2\n    tag_84:\n      pop\n      pop\n      pop\n      pop\n      pop\n      dup2\n      mstore\n      0x20\n      add\n      0x01\n      dup3\n      add\n      0x00\n      swap1\n      sload\n      swap1\n      0x0100\n      exp\n      swap1\n      div\n      0xffffffffffffffffffffffffffffffffffffffff\n      and\n      0xffffffffffffffffffffffffffffffffffffffff\n      and\n      0xffffffffffffffffffffffffffffffffffffffff\n      and\n      dup2\n      mstore\n      0x20\n      add\n      0x01\n      dup3\n      add\n      0x14\n      swap1\n      sload\n      swap1\n      0x0100\n      exp\n      swap1\n      div\n      0xff\n      and\n      iszero\n      iszero\n      iszero\n      iszero\n      dup2\n      mstore\n      0x20\n      add\n      0x01\n      dup3\n      add\n      0x15\n      swap1\n      sload\n      swap1\n      0x0100\n      exp\n      swap1\n      div\n      0xff\n      and\n      iszero\n      iszero\n      iszero\n      iszero\n      dup2\n      mstore\n      pop\n      pop\n      dup2\n      mstore\n      0x20\n      add\n      swap1\n      0x01\n      add\n      swap1\n      jump(tag_78)\n    tag_79:\n      pop\n      pop\n      pop\n      pop\n      swap1\n      pop\n        /* \"contracts/Controller.sol\":2731:2848  function getTransactions() external view returns (MultiSig.Transaction[] memory) {... */\n      swap1\n      jump\t// out\n        /* \"contracts/Controller.sol\":2442:2523  function getOwner() external view returns (address) {... */\n    tag_38:\n        /* \"contracts/Controller.sol\":2485:2492  address */\n      0x00\n        /* \"contracts/Controller.sol\":2511:2516  owner */\n      0x01\n      0x00\n      swap1\n      sload\n      swap1\n      0x0100\n      exp\n      swap1\n      div\n      0xffffffffffffffffffffffffffffffffffffffff\n      and\n        /* \"contracts/Controller.sol\":2504:2516  return owner */\n      swap1\n      pop\n        /* \"contracts/Controller.sol\":2442:2523  function getOwner() external view returns (address) {... */\n      swap1\n      jump\t// out\n        /* \"contracts/Controller.sol\":2889:3277  function commitSetMarketOwner(address _market, address _newOwner) external OnlyAdministrator returns (uint) {... */\n    tag_44:\n        /* \"contracts/Controller.sol\":2991:2995  uint */\n      0x00\n        /* \"contracts/Controller.sol\":176:191  isAdministrator */\n      0x05\n        /* \"contracts/Controller.sol\":176:203  isAdministrator[msg.sender] */\n      0x00\n        /* \"contracts/Controller.sol\":192:202  msg.sender */\n      caller\n        /* \"contracts/Controller.sol\":176:203  isAdministrator[msg.sender] */\n      0xffffffffffffffffffffffffffffffffffffffff\n      and\n      0xffffffffffffffffffffffffffffffffffffffff\n      and\n      dup2\n      mstore\n      0x20\n      add\n      swap1\n      dup2\n      mstore\n      0x20\n      add\n      0x00\n      keccak256\n      0x00\n      swap1\n      sload\n      swap1\n      0x0100\n      exp\n      swap1\n      div\n      0xff\n      and\n        /* \"contracts/Controller.sol\":168:238  require(isAdministrator[msg.sender], \"Only the administrator can use\") */\n      tag_89\n      jumpi\n      mload(0x40)\n      0x08c379a000000000000000000000000000000000000000000000000000000000\n      dup2\n      mstore\n      0x04\n      add\n      tag_90\n      swap1\n      tag_69\n      jump\t// in\n    tag_90:\n      mload(0x40)\n      dup1\n      swap2\n      sub\n      swap1\n      revert\n    tag_89:\n        /* \"contracts/Controller.sol\":3007:3234  MultiSig.submitTransaction(... */\n      tag_92\n        /* \"contracts/Controller.sol\":3047:3059  transactions */\n      0x03\n        /* \"contracts/Controller.sol\":3073:3080  _market */\n      dup5\n        /* \"contracts/Controller.sol\":3139:3148  _newOwner */\n      dup5\n        /* \"contracts/Controller.sol\":3094:3149  abi.encodeWithSignature(\"setOwner(address)\", _newOwner) */\n      add(0x24, mload(0x40))\n      tag_93\n      swap2\n      swap1\n      tag_40\n      jump\t// in\n    tag_93:\n      mload(0x40)\n      0x20\n      dup2\n      dup4\n      sub\n      sub\n      dup2\n      mstore\n      swap1\n      0x40\n      mstore\n      and(not(0xffffffffffffffffffffffffffffffffffffffffffffffffffffffff), 0x13af403500000000000000000000000000000000000000000000000000000000)\n      0x20\n      dup3\n      add\n      dup1\n      mload\n      0xffffffffffffffffffffffffffffffffffffffffffffffffffffffff\n      dup4\n      dup2\n      dup4\n      and\n      or\n      dup4\n      mstore\n      pop\n      pop\n      pop\n      pop\n        /* \"contracts/Controller.sol\":3163:3174  isConfirmed */\n      0x07\n        /* \"contracts/Controller.sol\":3189:3205  numConfirmations */\n      0x06\n        /* \"contracts/Controller.sol\":3220:3224  true */\n      0x01\n        /* \"contracts/Controller.sol\":3007:3033  MultiSig.submitTransaction */\n      tag_94\n        /* \"contracts/Controller.sol\":3007:3234  MultiSig.submitTransaction(... */\n      jump\t// in\n    tag_92:\n        /* \"contracts/Controller.sol\":3251:3263  transactions */\n      0x03\n        /* \"contracts/Controller.sol\":3251:3270  transactions.length */\n      dup1\n      sload\n      swap1\n      pop\n        /* \"contracts/Controller.sol\":3244:3270  return transactions.length */\n      swap1\n      pop\n        /* \"contracts/Controller.sol\":2889:3277  function commitSetMarketOwner(address _market, address _newOwner) external OnlyAdministrator returns (uint) {... */\n      swap3\n      swap2\n      pop\n      pop\n      jump\t// out\n        /* \"contracts/Controller.sol\":1919:2417  function setAdministrators(address[] memory _admin) external OnlyOwner {... */\n    tag_49:\n        /* \"contracts/Controller.sol\":301:308  isOwner */\n      0x04\n        /* \"contracts/Controller.sol\":301:320  isOwner[msg.sender] */\n      0x00\n        /* \"contracts/Controller.sol\":309:319  msg.sender */\n      caller\n        /* \"contracts/Controller.sol\":301:320  isOwner[msg.sender] */\n      0xffffffffffffffffffffffffffffffffffffffff\n      and\n      0xffffffffffffffffffffffffffffffffffffffff\n      and\n      dup2\n      mstore\n      0x20\n      add\n      swap1\n      dup2\n      mstore\n      0x20\n      add\n      0x00\n      keccak256\n      0x00\n      swap1\n      sload\n      swap1\n      0x0100\n      exp\n      swap1\n      div\n      0xff\n      and\n        /* \"contracts/Controller.sol\":293:347  require(isOwner[msg.sender], \"Only the owner can use\") */\n      tag_96\n      jumpi\n      mload(0x40)\n      0x08c379a000000000000000000000000000000000000000000000000000000000\n      dup2\n      mstore\n      0x04\n      add\n      tag_97\n      swap1\n      tag_56\n      jump\t// in\n    tag_97:\n      mload(0x40)\n      dup1\n      swap2\n      sub\n      swap1\n      revert\n    tag_96:\n        /* \"contracts/Controller.sol\":2005:2016  uint8 index */\n      0x00\n        /* \"contracts/Controller.sol\":2019:2020  0 */\n      0x00\n        /* \"contracts/Controller.sol\":2005:2020  uint8 index = 0 */\n      swap1\n      pop\n        /* \"contracts/Controller.sol\":2000:2134  for (uint8 index = 0; index < administrators.length; index++ ) {... */\n    tag_99:\n        /* \"contracts/Controller.sol\":2030:2044  administrators */\n      0x02\n        /* \"contracts/Controller.sol\":2030:2051  administrators.length */\n      dup1\n      sload\n      swap1\n      pop\n        /* \"contracts/Controller.sol\":2022:2027  index */\n      dup2\n        /* \"contracts/Controller.sol\":2022:2051  index < administrators.length */\n      0xff\n      and\n      lt\n        /* \"contracts/Controller.sol\":2000:2134  for (uint8 index = 0; index < administrators.length; index++ ) {... */\n      iszero\n      tag_100\n      jumpi\n        /* \"contracts/Controller.sol\":2118:2123  false */\n      0x00\n        /* \"contracts/Controller.sol\":2077:2092  isAdministrator */\n      0x05\n        /* \"contracts/Controller.sol\":2077:2115  isAdministrator[administrators[index]] */\n      0x00\n        /* \"contracts/Controller.sol\":2093:2107  administrators */\n      0x02\n        /* \"contracts/Controller.sol\":2108:2113  index */\n      dup5\n        /* \"contracts/Controller.sol\":2093:2114  administrators[index] */\n      0xff\n      and\n      dup2\n      sload\n      dup2\n      lt\n      tag_102\n      jumpi\n      tag_103\n      tag_104\n      jump\t// in\n    tag_103:\n    tag_102:\n      swap1\n      0x00\n      mstore\n      keccak256(0x00, 0x20)\n      add\n      0x00\n      swap1\n      sload\n      swap1\n      0x0100\n      exp\n      swap1\n      div\n      0xffffffffffffffffffffffffffffffffffffffff\n      and\n        /* \"contracts/Controller.sol\":2077:2115  isAdministrator[administrators[index]] */\n      0xffffffffffffffffffffffffffffffffffffffff\n      and\n      0xffffffffffffffffffffffffffffffffffffffff\n      and\n      dup2\n      mstore\n      0x20\n      add\n      swap1\n      dup2\n      mstore\n      0x20\n      add\n      0x00\n      keccak256\n      0x00\n        /* \"contracts/Controller.sol\":2077:2123  isAdministrator[administrators[index]] = false */\n      0x0100\n      exp\n      dup2\n      sload\n      dup2\n      0xff\n      mul\n      not\n      and\n      swap1\n      dup4\n      iszero\n      iszero\n      mul\n      or\n      swap1\n      sstore\n      pop\n        /* \"contracts/Controller.sol\":2053:2060  index++ */\n      dup1\n      dup1\n      tag_106\n      swap1\n      tag_107\n      jump\t// in\n    tag_106:\n      swap2\n      pop\n      pop\n        /* \"contracts/Controller.sol\":2000:2134  for (uint8 index = 0; index < administrators.length; index++ ) {... */\n      jump(tag_99)\n    tag_100:\n      pop\n        /* \"contracts/Controller.sol\":2150:2164  administrators */\n      0x02\n      0x00\n        /* \"contracts/Controller.sol\":2143:2164  delete administrators */\n      tag_108\n      swap2\n      swap1\n      tag_109\n      jump\t// in\n    tag_108:\n        /* \"contracts/Controller.sol\":2179:2190  uint8 index */\n      0x00\n        /* \"contracts/Controller.sol\":2193:2194  0 */\n      0x00\n        /* \"contracts/Controller.sol\":2179:2194  uint8 index = 0 */\n      swap1\n      pop\n        /* \"contracts/Controller.sol\":2174:2411  for (uint8 index = 0; index < _admin.length; index++) {... */\n    tag_110:\n        /* \"contracts/Controller.sol\":2204:2210  _admin */\n      dup2\n        /* \"contracts/Controller.sol\":2204:2217  _admin.length */\n      mload\n        /* \"contracts/Controller.sol\":2196:2201  index */\n      dup2\n        /* \"contracts/Controller.sol\":2196:2217  index < _admin.length */\n      0xff\n      and\n      lt\n        /* \"contracts/Controller.sol\":2174:2411  for (uint8 index = 0; index < _admin.length; index++) {... */\n      iszero\n      tag_111\n      jumpi\n        /* \"contracts/Controller.sol\":2247:2262  isAdministrator */\n      0x05\n        /* \"contracts/Controller.sol\":2247:2277  isAdministrator[_admin[index]] */\n      0x00\n        /* \"contracts/Controller.sol\":2263:2269  _admin */\n      dup4\n        /* \"contracts/Controller.sol\":2270:2275  index */\n      dup4\n        /* \"contracts/Controller.sol\":2263:2276  _admin[index] */\n      0xff\n      and\n      dup2\n      mload\n      dup2\n      lt\n      tag_113\n      jumpi\n      tag_114\n      tag_104\n      jump\t// in\n    tag_114:\n    tag_113:\n      0x20\n      mul\n      0x20\n      add\n      add\n      mload\n        /* \"contracts/Controller.sol\":2247:2277  isAdministrator[_admin[index]] */\n      0xffffffffffffffffffffffffffffffffffffffff\n      and\n      0xffffffffffffffffffffffffffffffffffffffff\n      and\n      dup2\n      mstore\n      0x20\n      add\n      swap1\n      dup2\n      mstore\n      0x20\n      add\n      0x00\n      keccak256\n      0x00\n      swap1\n      sload\n      swap1\n      0x0100\n      exp\n      swap1\n      div\n      0xff\n      and\n        /* \"contracts/Controller.sol\":2242:2401  if (!isAdministrator[_admin[index]]) {... */\n      tag_115\n      jumpi\n        /* \"contracts/Controller.sol\":2297:2311  administrators */\n      0x02\n        /* \"contracts/Controller.sol\":2317:2323  _admin */\n      dup3\n        /* \"contracts/Controller.sol\":2324:2329  index */\n      dup3\n        /* \"contracts/Controller.sol\":2317:2330  _admin[index] */\n      0xff\n      and\n      dup2\n      mload\n      dup2\n      lt\n      tag_116\n      jumpi\n      tag_117\n      tag_104\n      jump\t// in\n    tag_117:\n    tag_116:\n      0x20\n      mul\n      0x20\n      add\n      add\n      mload\n        /* \"contracts/Controller.sol\":2297:2331  administrators.push(_admin[index]) */\n      swap1\n      dup1\n      0x01\n      dup2\n      sload\n      add\n      dup1\n      dup3\n      sstore\n      dup1\n      swap2\n      pop\n      pop\n      0x01\n      swap1\n      sub\n      swap1\n      0x00\n      mstore\n      keccak256(0x00, 0x20)\n      add\n      0x00\n      swap1\n      swap2\n      swap1\n      swap2\n      swap1\n      swap2\n      0x0100\n      exp\n      dup2\n      sload\n      dup2\n      0xffffffffffffffffffffffffffffffffffffffff\n      mul\n      not\n      and\n      swap1\n      dup4\n      0xffffffffffffffffffffffffffffffffffffffff\n      and\n      mul\n      or\n      swap1\n      sstore\n      pop\n        /* \"contracts/Controller.sol\":2382:2386  true */\n      0x01\n        /* \"contracts/Controller.sol\":2349:2364  isAdministrator */\n      0x05\n        /* \"contracts/Controller.sol\":2349:2379  isAdministrator[_admin[index]] */\n      0x00\n        /* \"contracts/Controller.sol\":2365:2371  _admin */\n      dup5\n        /* \"contracts/Controller.sol\":2372:2377  index */\n      dup5\n        /* \"contracts/Controller.sol\":2365:2378  _admin[index] */\n      0xff\n      and\n      dup2\n      mload\n      dup2\n      lt\n      tag_119\n      jumpi\n      tag_120\n      tag_104\n      jump\t// in\n    tag_120:\n    tag_119:\n      0x20\n      mul\n      0x20\n      add\n      add\n      mload\n        /* \"contracts/Controller.sol\":2349:2379  isAdministrator[_admin[index]] */\n      0xffffffffffffffffffffffffffffffffffffffff\n      and\n      0xffffffffffffffffffffffffffffffffffffffff\n      and\n      dup2\n      mstore\n      0x20\n      add\n      swap1\n      dup2\n      mstore\n      0x20\n      add\n      0x00\n      keccak256\n      0x00\n        /* \"contracts/Controller.sol\":2349:2386  isAdministrator[_admin[index]] = true */\n      0x0100\n      exp\n      dup2\n      sload\n      dup2\n      0xff\n      mul\n      not\n      and\n      swap1\n      dup4\n      iszero\n      iszero\n      mul\n      or\n      swap1\n      sstore\n      pop\n        /* \"contracts/Controller.sol\":2242:2401  if (!isAdministrator[_admin[index]]) {... */\n    tag_115:\n        /* \"contracts/Controller.sol\":2219:2226  index++ */\n      dup1\n      dup1\n      tag_121\n      swap1\n      tag_107\n      jump\t// in\n    tag_121:\n      swap2\n      pop\n      pop\n        /* \"contracts/Controller.sol\":2174:2411  for (uint8 index = 0; index < _admin.length; index++) {... */\n      jump(tag_110)\n    tag_111:\n      pop\n        /* \"contracts/Controller.sol\":1919:2417  function setAdministrators(address[] memory _admin) external OnlyOwner {... */\n      pop\n      jump\t// out\n        /* \"contracts/Controller.sol\":3303:3571  function confirmTransaction(uint _txIndex) external OnlyAdministrator {... */\n    tag_52:\n        /* \"contracts/Controller.sol\":176:191  isAdministrator */\n      0x05\n        /* \"contracts/Controller.sol\":176:203  isAdministrator[msg.sender] */\n      0x00\n        /* \"contracts/Controller.sol\":192:202  msg.sender */\n      caller\n        /* \"contracts/Controller.sol\":176:203  isAdministrator[msg.sender] */\n      0xffffffffffffffffffffffffffffffffffffffff\n      and\n      0xffffffffffffffffffffffffffffffffffffffff\n      and\n      dup2\n      mstore\n      0x20\n      add\n      swap1\n      dup2\n      mstore\n      0x20\n      add\n      0x00\n      keccak256\n      0x00\n      swap1\n      sload\n      swap1\n      0x0100\n      exp\n      swap1\n      div\n      0xff\n      and\n        /* \"contracts/Controller.sol\":168:238  require(isAdministrator[msg.sender], \"Only the administrator can use\") */\n      tag_123\n      jumpi\n      mload(0x40)\n      0x08c379a000000000000000000000000000000000000000000000000000000000\n      dup2\n      mstore\n      0x04\n      add\n      tag_124\n      swap1\n      tag_69\n      jump\t// in\n    tag_124:\n      mload(0x40)\n      dup1\n      swap2\n      sub\n      swap1\n      revert\n    tag_123:\n        /* \"contracts/Controller.sol\":3383:3564  MultiSig.confirmTransaction(... */\n      tag_126\n        /* \"contracts/Controller.sol\":3424:3436  transactions */\n      0x03\n        /* \"contracts/Controller.sol\":3451:3462  isConfirmed */\n      0x07\n        /* \"contracts/Controller.sol\":3477:3493  numConfirmations */\n      0x06\n        /* \"contracts/Controller.sol\":3508:3532  numConfirmationsRequired */\n      sload(0x00)\n        /* \"contracts/Controller.sol\":3546:3554  _txIndex */\n      dup6\n        /* \"contracts/Controller.sol\":3383:3410  MultiSig.confirmTransaction */\n      tag_127\n        /* \"contracts/Controller.sol\":3383:3564  MultiSig.confirmTransaction(... */\n      jump\t// in\n    tag_126:\n        /* \"contracts/Controller.sol\":3303:3571  function confirmTransaction(uint _txIndex) external OnlyAdministrator {... */\n      pop\n      jump\t// out\n        /* \"contracts/MultiSig.sol\":2516:3152  function revokeConfirmation(... */\n    tag_72:\n        /* \"contracts/MultiSig.sol\":2785:2798  _transactions */\n      dup4\n        /* \"contracts/MultiSig.sol\":2785:2805  _transactions.length */\n      dup1\n      sload\n      swap1\n      pop\n        /* \"contracts/MultiSig.sol\":2774:2782  _txIndex */\n      dup2\n        /* \"contracts/MultiSig.sol\":2774:2805  _txIndex < _transactions.length */\n      lt\n        /* \"contracts/MultiSig.sol\":2766:2835  require(_txIndex < _transactions.length, \"Invalid transaction index\") */\n      tag_129\n      jumpi\n      mload(0x40)\n      0x08c379a000000000000000000000000000000000000000000000000000000000\n      dup2\n      mstore\n      0x04\n      add\n      tag_130\n      swap1\n      tag_131\n      jump\t// in\n    tag_130:\n      mload(0x40)\n      dup1\n      swap2\n      sub\n      swap1\n      revert\n    tag_129:\n        /* \"contracts/MultiSig.sol\":2853:2866  _transactions */\n      dup4\n        /* \"contracts/MultiSig.sol\":2867:2875  _txIndex */\n      dup2\n        /* \"contracts/MultiSig.sol\":2853:2876  _transactions[_txIndex] */\n      dup2\n      sload\n      dup2\n      lt\n      tag_132\n      jumpi\n      tag_133\n      tag_104\n      jump\t// in\n    tag_133:\n    tag_132:\n      swap1\n      0x00\n      mstore\n      keccak256(0x00, 0x20)\n      swap1\n      0x02\n      mul\n      add\n        /* \"contracts/MultiSig.sol\":2853:2885  _transactions[_txIndex].executed */\n      0x01\n      add\n      0x14\n      swap1\n      sload\n      swap1\n      0x0100\n      exp\n      swap1\n      div\n      0xff\n      and\n        /* \"contracts/MultiSig.sol\":2845:2914  require(_transactions[_txIndex].executed, \"Transaction not executed\") */\n      tag_135\n      jumpi\n      mload(0x40)\n      0x08c379a000000000000000000000000000000000000000000000000000000000\n      dup2\n      mstore\n      0x04\n      add\n      tag_136\n      swap1\n      tag_137\n      jump\t// in\n    tag_136:\n      mload(0x40)\n      dup1\n      swap2\n      sub\n      swap1\n      revert\n    tag_135:\n        /* \"contracts/MultiSig.sol\":2933:2945  _isConfirmed */\n      dup3\n        /* \"contracts/MultiSig.sol\":2933:2955  _isConfirmed[_txIndex] */\n      0x00\n        /* \"contracts/MultiSig.sol\":2946:2954  _txIndex */\n      dup3\n        /* \"contracts/MultiSig.sol\":2933:2955  _isConfirmed[_txIndex] */\n      dup2\n      mstore\n      0x20\n      add\n      swap1\n      dup2\n      mstore\n      0x20\n      add\n      0x00\n      keccak256\n        /* \"contracts/MultiSig.sol\":2933:2967  _isConfirmed[_txIndex][msg.sender] */\n      0x00\n        /* \"contracts/MultiSig.sol\":2956:2966  msg.sender */\n      caller\n        /* \"contracts/MultiSig.sol\":2933:2967  _isConfirmed[_txIndex][msg.sender] */\n      0xffffffffffffffffffffffffffffffffffffffff\n      and\n      0xffffffffffffffffffffffffffffffffffffffff\n      and\n      dup2\n      mstore\n      0x20\n      add\n      swap1\n      dup2\n      mstore\n      0x20\n      add\n      0x00\n      keccak256\n      0x00\n      swap1\n      sload\n      swap1\n      0x0100\n      exp\n      swap1\n      div\n      0xff\n      and\n        /* \"contracts/MultiSig.sol\":2925:2997  require(_isConfirmed[_txIndex][msg.sender], \"Transaction not confirmed\") */\n      tag_138\n      jumpi\n      mload(0x40)\n      0x08c379a000000000000000000000000000000000000000000000000000000000\n      dup2\n      mstore\n      0x04\n      add\n      tag_139\n      swap1\n      tag_140\n      jump\t// in\n    tag_139:\n      mload(0x40)\n      dup1\n      swap2\n      sub\n      swap1\n      revert\n    tag_138:\n        /* \"contracts/MultiSig.sol\":3045:3050  false */\n      0x00\n        /* \"contracts/MultiSig.sol\":3008:3020  _isConfirmed */\n      dup4\n        /* \"contracts/MultiSig.sol\":3008:3030  _isConfirmed[_txIndex] */\n      0x00\n        /* \"contracts/MultiSig.sol\":3021:3029  _txIndex */\n      dup4\n        /* \"contracts/MultiSig.sol\":3008:3030  _isConfirmed[_txIndex] */\n      dup2\n      mstore\n      0x20\n      add\n      swap1\n      dup2\n      mstore\n      0x20\n      add\n      0x00\n      keccak256\n        /* \"contracts/MultiSig.sol\":3008:3042  _isConfirmed[_txIndex][msg.sender] */\n      0x00\n        /* \"contracts/MultiSig.sol\":3031:3041  msg.sender */\n      caller\n        /* \"contracts/MultiSig.sol\":3008:3042  _isConfirmed[_txIndex][msg.sender] */\n      0xffffffffffffffffffffffffffffffffffffffff\n      and\n      0xffffffffffffffffffffffffffffffffffffffff\n      and\n      dup2\n      mstore\n      0x20\n      add\n      swap1\n      dup2\n      mstore\n      0x20\n      add\n      0x00\n      keccak256\n      0x00\n        /* \"contracts/MultiSig.sol\":3008:3050  _isConfirmed[_txIndex][msg.sender] = false */\n      0x0100\n      exp\n      dup2\n      sload\n      dup2\n      0xff\n      mul\n      not\n      and\n      swap1\n      dup4\n      iszero\n      iszero\n      mul\n      or\n      swap1\n      sstore\n      pop\n        /* \"contracts/MultiSig.sol\":3060:3077  _numConfirmations */\n      dup2\n        /* \"contracts/MultiSig.sol\":3060:3087  _numConfirmations[_txIndex] */\n      0x00\n        /* \"contracts/MultiSig.sol\":3078:3086  _txIndex */\n      dup3\n        /* \"contracts/MultiSig.sol\":3060:3087  _numConfirmations[_txIndex] */\n      dup2\n      mstore\n      0x20\n      add\n      swap1\n      dup2\n      mstore\n      0x20\n      add\n      0x00\n      keccak256\n      0x00\n        /* \"contracts/MultiSig.sol\":3060:3089  _numConfirmations[_txIndex]-- */\n      dup2\n      sload\n      dup1\n      swap3\n      swap2\n      swap1\n      tag_141\n      swap1\n      tag_142\n      jump\t// in\n    tag_141:\n      swap2\n      swap1\n      pop\n      sstore\n      pop\n        /* \"contracts/MultiSig.sol\":3136:3144  _txIndex */\n      dup1\n        /* \"contracts/MultiSig.sol\":3124:3134  msg.sender */\n      caller\n        /* \"contracts/MultiSig.sol\":3105:3145  RevokeConfirmation(msg.sender, _txIndex) */\n      0xffffffffffffffffffffffffffffffffffffffff\n      and\n      0xf0dca620e2e81f7841d07bcc105e1704fb01475b278a9d4c236e1c62945edd55\n      mload(0x40)\n      mload(0x40)\n      dup1\n      swap2\n      sub\n      swap1\n      log3\n        /* \"contracts/MultiSig.sol\":2516:3152  function revokeConfirmation(... */\n      pop\n      pop\n      pop\n      pop\n      jump\t// out\n        /* \"contracts/MultiSig.sol\":587:1233  function submitTransaction(... */\n    tag_94:\n        /* \"contracts/MultiSig.sol\":886:899  _transactions */\n      dup6\n        /* \"contracts/MultiSig.sol\":905:1030  Transaction({... */\n      mload(0x40)\n      dup1\n      0x80\n      add\n      0x40\n      mstore\n      dup1\n        /* \"contracts/MultiSig.sol\":937:942  _data */\n      dup7\n        /* \"contracts/MultiSig.sol\":905:1030  Transaction({... */\n      dup2\n      mstore\n      0x20\n      add\n        /* \"contracts/MultiSig.sol\":960:963  _to */\n      dup8\n        /* \"contracts/MultiSig.sol\":905:1030  Transaction({... */\n      0xffffffffffffffffffffffffffffffffffffffff\n      and\n      dup2\n      mstore\n      0x20\n      add\n        /* \"contracts/MultiSig.sol\":987:992  false */\n      0x00\n        /* \"contracts/MultiSig.sol\":905:1030  Transaction({... */\n      iszero\n      iszero\n      dup2\n      mstore\n      0x20\n      add\n        /* \"contracts/MultiSig.sol\":1013:1019  _multi */\n      dup4\n        /* \"contracts/MultiSig.sol\":905:1030  Transaction({... */\n      iszero\n      iszero\n      dup2\n      mstore\n      pop\n        /* \"contracts/MultiSig.sol\":886:1031  _transactions.push(Transaction({... */\n      swap1\n      dup1\n      0x01\n      dup2\n      sload\n      add\n      dup1\n      dup3\n      sstore\n      dup1\n      swap2\n      pop\n      pop\n      0x01\n      swap1\n      sub\n      swap1\n      0x00\n      mstore\n      keccak256(0x00, 0x20)\n      swap1\n      0x02\n      mul\n      add\n      0x00\n      swap1\n      swap2\n      swap1\n      swap2\n      swap1\n      swap2\n      pop\n      0x00\n      dup3\n      add\n      mload\n      dup2\n      0x00\n      add\n      swap1\n      dup2\n      tag_145\n      swap2\n      swap1\n      tag_146\n      jump\t// in\n    tag_145:\n      pop\n      0x20\n      dup3\n      add\n      mload\n      dup2\n      0x01\n      add\n      exp(0x0100, 0x00)\n      dup2\n      sload\n      dup2\n      0xffffffffffffffffffffffffffffffffffffffff\n      mul\n      not\n      and\n      swap1\n      dup4\n      0xffffffffffffffffffffffffffffffffffffffff\n      and\n      mul\n      or\n      swap1\n      sstore\n      pop\n      0x40\n      dup3\n      add\n      mload\n      dup2\n      0x01\n      add\n      exp(0x0100, 0x14)\n      dup2\n      sload\n      dup2\n      0xff\n      mul\n      not\n      and\n      swap1\n      dup4\n      iszero\n      iszero\n      mul\n      or\n      swap1\n      sstore\n      pop\n      0x60\n      dup3\n      add\n      mload\n      dup2\n      0x01\n      add\n      exp(0x0100, 0x15)\n      dup2\n      sload\n      dup2\n      0xff\n      mul\n      not\n      and\n      swap1\n      dup4\n      iszero\n      iszero\n      mul\n      or\n      swap1\n      sstore\n      pop\n      pop\n      pop\n        /* \"contracts/MultiSig.sol\":1041:1051  uint index */\n      0x00\n        /* \"contracts/MultiSig.sol\":1054:1067  _transactions */\n      dup7\n        /* \"contracts/MultiSig.sol\":1054:1074  _transactions.length */\n      dup1\n      sload\n      swap1\n      pop\n        /* \"contracts/MultiSig.sol\":1041:1074  uint index = _transactions.length */\n      swap1\n      pop\n        /* \"contracts/MultiSig.sol\":1127:1131  true */\n      0x01\n        /* \"contracts/MultiSig.sol\":1093:1105  _isConfirmed */\n      dup5\n        /* \"contracts/MultiSig.sol\":1093:1112  _isConfirmed[index] */\n      0x00\n        /* \"contracts/MultiSig.sol\":1106:1111  index */\n      dup4\n        /* \"contracts/MultiSig.sol\":1093:1112  _isConfirmed[index] */\n      dup2\n      mstore\n      0x20\n      add\n      swap1\n      dup2\n      mstore\n      0x20\n      add\n      0x00\n      keccak256\n        /* \"contracts/MultiSig.sol\":1093:1124  _isConfirmed[index][msg.sender] */\n      0x00\n        /* \"contracts/MultiSig.sol\":1113:1123  msg.sender */\n      caller\n        /* \"contracts/MultiSig.sol\":1093:1124  _isConfirmed[index][msg.sender] */\n      0xffffffffffffffffffffffffffffffffffffffff\n      and\n      0xffffffffffffffffffffffffffffffffffffffff\n      and\n      dup2\n      mstore\n      0x20\n      add\n      swap1\n      dup2\n      mstore\n      0x20\n      add\n      0x00\n      keccak256\n      0x00\n        /* \"contracts/MultiSig.sol\":1093:1131  _isConfirmed[index][msg.sender] = true */\n      0x0100\n      exp\n      dup2\n      sload\n      dup2\n      0xff\n      mul\n      not\n      and\n      swap1\n      dup4\n      iszero\n      iszero\n      mul\n      or\n      swap1\n      sstore\n      pop\n        /* \"contracts/MultiSig.sol\":1141:1158  _numConfirmations */\n      dup3\n        /* \"contracts/MultiSig.sol\":1141:1165  _numConfirmations[index] */\n      0x00\n        /* \"contracts/MultiSig.sol\":1159:1164  index */\n      dup3\n        /* \"contracts/MultiSig.sol\":1141:1165  _numConfirmations[index] */\n      dup2\n      mstore\n      0x20\n      add\n      swap1\n      dup2\n      mstore\n      0x20\n      add\n      0x00\n      keccak256\n      0x00\n        /* \"contracts/MultiSig.sol\":1141:1167  _numConfirmations[index]++ */\n      dup2\n      sload\n      dup1\n      swap3\n      swap2\n      swap1\n      tag_147\n      swap1\n      tag_148\n      jump\t// in\n    tag_147:\n      swap2\n      swap1\n      pop\n      sstore\n      pop\n        /* \"contracts/MultiSig.sol\":1213:1218  index */\n      dup1\n        /* \"contracts/MultiSig.sol\":1201:1211  msg.sender */\n      caller\n        /* \"contracts/MultiSig.sol\":1183:1226  SubmitTransaction(msg.sender, index, _data) */\n      0xffffffffffffffffffffffffffffffffffffffff\n      and\n      0xeb45f38ad35cf41b4f9be8cfcca269ef78ea04216dbc8b8a38f28491c84d005a\n        /* \"contracts/MultiSig.sol\":1220:1225  _data */\n      dup8\n        /* \"contracts/MultiSig.sol\":1183:1226  SubmitTransaction(msg.sender, index, _data) */\n      mload(0x40)\n      tag_149\n      swap2\n      swap1\n      tag_150\n      jump\t// in\n    tag_149:\n      mload(0x40)\n      dup1\n      swap2\n      sub\n      swap1\n      log3\n        /* \"contracts/MultiSig.sol\":876:1233  {... */\n      pop\n        /* \"contracts/MultiSig.sol\":587:1233  function submitTransaction(... */\n      pop\n      pop\n      pop\n      pop\n      pop\n      pop\n      jump\t// out\n        /* \"contracts/MultiSig.sol\":1259:1920  function confirmTransaction(... */\n    tag_127:\n        /* \"contracts/MultiSig.sol\":1558:1570  _isConfirmed */\n      dup4\n        /* \"contracts/MultiSig.sol\":1558:1580  _isConfirmed[_txIndex] */\n      0x00\n        /* \"contracts/MultiSig.sol\":1571:1579  _txIndex */\n      dup3\n        /* \"contracts/MultiSig.sol\":1558:1580  _isConfirmed[_txIndex] */\n      dup2\n      mstore\n      0x20\n      add\n      swap1\n      dup2\n      mstore\n      0x20\n      add\n      0x00\n      keccak256\n        /* \"contracts/MultiSig.sol\":1558:1592  _isConfirmed[_txIndex][msg.sender] */\n      0x00\n        /* \"contracts/MultiSig.sol\":1581:1591  msg.sender */\n      caller\n        /* \"contracts/MultiSig.sol\":1558:1592  _isConfirmed[_txIndex][msg.sender] */\n      0xffffffffffffffffffffffffffffffffffffffff\n      and\n      0xffffffffffffffffffffffffffffffffffffffff\n      and\n      dup2\n      mstore\n      0x20\n      add\n      swap1\n      dup2\n      mstore\n      0x20\n      add\n      0x00\n      keccak256\n      0x00\n      swap1\n      sload\n      swap1\n      0x0100\n      exp\n      swap1\n      div\n      0xff\n      and\n        /* \"contracts/MultiSig.sol\":1557:1592  !_isConfirmed[_txIndex][msg.sender] */\n      iszero\n        /* \"contracts/MultiSig.sol\":1549:1626  require(!_isConfirmed[_txIndex][msg.sender], \"Transaction already confirmed\") */\n      tag_152\n      jumpi\n      mload(0x40)\n      0x08c379a000000000000000000000000000000000000000000000000000000000\n      dup2\n      mstore\n      0x04\n      add\n      tag_153\n      swap1\n      tag_154\n      jump\t// in\n    tag_153:\n      mload(0x40)\n      dup1\n      swap2\n      sub\n      swap1\n      revert\n    tag_152:\n        /* \"contracts/MultiSig.sol\":1674:1678  true */\n      0x01\n        /* \"contracts/MultiSig.sol\":1637:1649  _isConfirmed */\n      dup5\n        /* \"contracts/MultiSig.sol\":1637:1659  _isConfirmed[_txIndex] */\n      0x00\n        /* \"contracts/MultiSig.sol\":1650:1658  _txIndex */\n      dup4\n        /* \"contracts/MultiSig.sol\":1637:1659  _isConfirmed[_txIndex] */\n      dup2\n      mstore\n      0x20\n      add\n      swap1\n      dup2\n      mstore\n      0x20\n      add\n      0x00\n      keccak256\n        /* \"contracts/MultiSig.sol\":1637:1671  _isConfirmed[_txIndex][msg.sender] */\n      0x00\n        /* \"contracts/MultiSig.sol\":1660:1670  msg.sender */\n      caller\n        /* \"contracts/MultiSig.sol\":1637:1671  _isConfirmed[_txIndex][msg.sender] */\n      0xffffffffffffffffffffffffffffffffffffffff\n      and\n      0xffffffffffffffffffffffffffffffffffffffff\n      and\n      dup2\n      mstore\n      0x20\n      add\n      swap1\n      dup2\n      mstore\n      0x20\n      add\n      0x00\n      keccak256\n      0x00\n        /* \"contracts/MultiSig.sol\":1637:1678  _isConfirmed[_txIndex][msg.sender] = true */\n      0x0100\n      exp\n      dup2\n      sload\n      dup2\n      0xff\n      mul\n      not\n      and\n      swap1\n      dup4\n      iszero\n      iszero\n      mul\n      or\n      swap1\n      sstore\n      pop\n        /* \"contracts/MultiSig.sol\":1688:1705  _numConfirmations */\n      dup3\n        /* \"contracts/MultiSig.sol\":1688:1715  _numConfirmations[_txIndex] */\n      0x00\n        /* \"contracts/MultiSig.sol\":1706:1714  _txIndex */\n      dup3\n        /* \"contracts/MultiSig.sol\":1688:1715  _numConfirmations[_txIndex] */\n      dup2\n      mstore\n      0x20\n      add\n      swap1\n      dup2\n      mstore\n      0x20\n      add\n      0x00\n      keccak256\n      0x00\n        /* \"contracts/MultiSig.sol\":1688:1717  _numConfirmations[_txIndex]++ */\n      dup2\n      sload\n      dup1\n      swap3\n      swap2\n      swap1\n      tag_155\n      swap1\n      tag_148\n      jump\t// in\n    tag_155:\n      swap2\n      swap1\n      pop\n      sstore\n      pop\n        /* \"contracts/MultiSig.sol\":1764:1772  _txIndex */\n      dup1\n        /* \"contracts/MultiSig.sol\":1752:1762  msg.sender */\n      caller\n        /* \"contracts/MultiSig.sol\":1733:1773  ConfirmTransaction(msg.sender, _txIndex) */\n      0xffffffffffffffffffffffffffffffffffffffff\n      and\n      0x5cbe105e36805f7820e291f799d5794ff948af2a5f664e580382defb63390041\n      mload(0x40)\n      mload(0x40)\n      dup1\n      swap2\n      sub\n      swap1\n      log3\n        /* \"contracts/MultiSig.sol\":1819:1844  _numConfirmationsRequired */\n      dup2\n        /* \"contracts/MultiSig.sol\":1788:1805  _numConfirmations */\n      dup4\n        /* \"contracts/MultiSig.sol\":1788:1815  _numConfirmations[_txIndex] */\n      0x00\n        /* \"contracts/MultiSig.sol\":1806:1814  _txIndex */\n      dup4\n        /* \"contracts/MultiSig.sol\":1788:1815  _numConfirmations[_txIndex] */\n      dup2\n      mstore\n      0x20\n      add\n      swap1\n      dup2\n      mstore\n      0x20\n      add\n      0x00\n      keccak256\n      sload\n        /* \"contracts/MultiSig.sol\":1788:1844  _numConfirmations[_txIndex] >= _numConfirmationsRequired */\n      lt\n        /* \"contracts/MultiSig.sol\":1784:1914  if (_numConfirmations[_txIndex] >= _numConfirmationsRequired) {... */\n      tag_156\n      jumpi\n        /* \"contracts/MultiSig.sol\":1860:1903  executeTransaction(_transactions, _txIndex) */\n      tag_157\n        /* \"contracts/MultiSig.sol\":1879:1892  _transactions */\n      dup6\n        /* \"contracts/MultiSig.sol\":1894:1902  _txIndex */\n      dup3\n        /* \"contracts/MultiSig.sol\":1860:1878  executeTransaction */\n      tag_158\n        /* \"contracts/MultiSig.sol\":1860:1903  executeTransaction(_transactions, _txIndex) */\n      jump\t// in\n    tag_157:\n        /* \"contracts/MultiSig.sol\":1784:1914  if (_numConfirmations[_txIndex] >= _numConfirmationsRequired) {... */\n    tag_156:\n        /* \"contracts/MultiSig.sol\":1259:1920  function confirmTransaction(... */\n      pop\n      pop\n      pop\n      pop\n      pop\n      jump\t// out\n        /* \"contracts/MultiSig.sol\":1946:2490  function executeTransaction(Transaction[] storage _transactions, uint _txIndex) internal {... */\n    tag_158:\n        /* \"contracts/MultiSig.sol\":2064:2077  _transactions */\n      dup2\n        /* \"contracts/MultiSig.sol\":2064:2084  _transactions.length */\n      dup1\n      sload\n      swap1\n      pop\n        /* \"contracts/MultiSig.sol\":2053:2061  _txIndex */\n      dup2\n        /* \"contracts/MultiSig.sol\":2053:2084  _txIndex < _transactions.length */\n      lt\n        /* \"contracts/MultiSig.sol\":2045:2114  require(_txIndex < _transactions.length, \"Invalid transaction index\") */\n      tag_160\n      jumpi\n      mload(0x40)\n      0x08c379a000000000000000000000000000000000000000000000000000000000\n      dup2\n      mstore\n      0x04\n      add\n      tag_161\n      swap1\n      tag_131\n      jump\t// in\n    tag_161:\n      mload(0x40)\n      dup1\n      swap2\n      sub\n      swap1\n      revert\n    tag_160:\n        /* \"contracts/MultiSig.sol\":2133:2146  _transactions */\n      dup2\n        /* \"contracts/MultiSig.sol\":2147:2155  _txIndex */\n      dup2\n        /* \"contracts/MultiSig.sol\":2133:2156  _transactions[_txIndex] */\n      dup2\n      sload\n      dup2\n      lt\n      tag_162\n      jumpi\n      tag_163\n      tag_104\n      jump\t// in\n    tag_163:\n    tag_162:\n      swap1\n      0x00\n      mstore\n      keccak256(0x00, 0x20)\n      swap1\n      0x02\n      mul\n      add\n        /* \"contracts/MultiSig.sol\":2133:2165  _transactions[_txIndex].executed */\n      0x01\n      add\n      0x14\n      swap1\n      sload\n      swap1\n      0x0100\n      exp\n      swap1\n      div\n      0xff\n      and\n        /* \"contracts/MultiSig.sol\":2132:2165  !_transactions[_txIndex].executed */\n      iszero\n        /* \"contracts/MultiSig.sol\":2124:2198  require(!_transactions[_txIndex].executed, \"Transaction already executed\") */\n      tag_165\n      jumpi\n      mload(0x40)\n      0x08c379a000000000000000000000000000000000000000000000000000000000\n      dup2\n      mstore\n      0x04\n      add\n      tag_166\n      swap1\n      tag_167\n      jump\t// in\n    tag_166:\n      mload(0x40)\n      dup1\n      swap2\n      sub\n      swap1\n      revert\n    tag_165:\n        /* \"contracts/MultiSig.sol\":2209:2240  Transaction storage transaction */\n      0x00\n        /* \"contracts/MultiSig.sol\":2243:2256  _transactions */\n      dup3\n        /* \"contracts/MultiSig.sol\":2257:2265  _txIndex */\n      dup3\n        /* \"contracts/MultiSig.sol\":2243:2266  _transactions[_txIndex] */\n      dup2\n      sload\n      dup2\n      lt\n      tag_168\n      jumpi\n      tag_169\n      tag_104\n      jump\t// in\n    tag_169:\n    tag_168:\n      swap1\n      0x00\n      mstore\n      keccak256(0x00, 0x20)\n      swap1\n      0x02\n      mul\n      add\n        /* \"contracts/MultiSig.sol\":2209:2266  Transaction storage transaction = _transactions[_txIndex] */\n      swap1\n      pop\n        /* \"contracts/MultiSig.sol\":2299:2303  true */\n      0x01\n        /* \"contracts/MultiSig.sol\":2276:2287  transaction */\n      dup2\n        /* \"contracts/MultiSig.sol\":2276:2296  transaction.executed */\n      0x01\n      add\n      0x14\n        /* \"contracts/MultiSig.sol\":2276:2303  transaction.executed = true */\n      0x0100\n      exp\n      dup2\n      sload\n      dup2\n      0xff\n      mul\n      not\n      and\n      swap1\n      dup4\n      iszero\n      iszero\n      mul\n      or\n      swap1\n      sstore\n      pop\n        /* \"contracts/MultiSig.sol\":2315:2327  bool success */\n      0x00\n        /* \"contracts/MultiSig.sol\":2333:2344  transaction */\n      dup2\n        /* \"contracts/MultiSig.sol\":2333:2347  transaction.to */\n      0x01\n      add\n      0x00\n      swap1\n      sload\n      swap1\n      0x0100\n      exp\n      swap1\n      div\n      0xffffffffffffffffffffffffffffffffffffffff\n      and\n        /* \"contracts/MultiSig.sol\":2333:2352  transaction.to.call */\n      0xffffffffffffffffffffffffffffffffffffffff\n      and\n        /* \"contracts/MultiSig.sol\":2353:2364  transaction */\n      dup3\n        /* \"contracts/MultiSig.sol\":2353:2369  transaction.data */\n      0x00\n      add\n        /* \"contracts/MultiSig.sol\":2333:2370  transaction.to.call(transaction.data) */\n      mload(0x40)\n      tag_171\n      swap2\n      swap1\n      tag_172\n      jump\t// in\n    tag_171:\n      0x00\n      mload(0x40)\n      dup1\n      dup4\n      sub\n      dup2\n      0x00\n      dup7\n      gas\n      call\n      swap2\n      pop\n      pop\n      returndatasize\n      dup1\n      0x00\n      dup2\n      eq\n      tag_175\n      jumpi\n      mload(0x40)\n      swap2\n      pop\n      and(add(returndatasize, 0x3f), not(0x1f))\n      dup3\n      add\n      0x40\n      mstore\n      returndatasize\n      dup3\n      mstore\n      returndatasize\n      0x00\n      0x20\n      dup5\n      add\n      returndatacopy\n      jump(tag_174)\n    tag_175:\n      0x60\n      swap2\n      pop\n    tag_174:\n      pop\n        /* \"contracts/MultiSig.sol\":2314:2370  (bool success, ) = transaction.to.call(transaction.data) */\n      pop\n      swap1\n      pop\n        /* \"contracts/MultiSig.sol\":2388:2395  success */\n      dup1\n        /* \"contracts/MultiSig.sol\":2380:2428  require(success, \"Transaction execution failed\") */\n      tag_176\n      jumpi\n      mload(0x40)\n      0x08c379a000000000000000000000000000000000000000000000000000000000\n      dup2\n      mstore\n      0x04\n      add\n      tag_177\n      swap1\n      tag_178\n      jump\t// in\n    tag_177:\n      mload(0x40)\n      dup1\n      swap2\n      sub\n      swap1\n      revert\n    tag_176:\n        /* \"contracts/MultiSig.sol\":2474:2482  _txIndex */\n      dup3\n        /* \"contracts/MultiSig.sol\":2462:2472  msg.sender */\n      caller\n        /* \"contracts/MultiSig.sol\":2443:2483  ExecuteTransaction(msg.sender, _txIndex) */\n      0xffffffffffffffffffffffffffffffffffffffff\n      and\n      0x5445f318f4f5fcfb66592e68e0cc5822aa15664039bd5f0ffde24c5a8142b1ac\n      mload(0x40)\n      mload(0x40)\n      dup1\n      swap2\n      sub\n      swap1\n      log3\n        /* \"contracts/MultiSig.sol\":2035:2490  {... */\n      pop\n      pop\n        /* \"contracts/MultiSig.sol\":1946:2490  function executeTransaction(Transaction[] storage _transactions, uint _txIndex) internal {... */\n      pop\n      pop\n      jump\t// out\n    tag_109:\n      pop\n      dup1\n      sload\n      0x00\n      dup3\n      sstore\n      swap1\n      0x00\n      mstore\n      keccak256(0x00, 0x20)\n      swap1\n      dup2\n      add\n      swap1\n      tag_180\n      swap2\n      swap1\n      tag_181\n      jump\t// in\n    tag_180:\n      pop\n      jump\t// out\n    tag_181:\n    tag_182:\n      dup1\n      dup3\n      gt\n      iszero\n      tag_183\n      jumpi\n      0x00\n      dup2\n      0x00\n      swap1\n      sstore\n      pop\n      0x01\n      add\n      jump(tag_182)\n    tag_183:\n      pop\n      swap1\n      jump\t// out\n        /* \"#utility.yul\":7:82   */\n    tag_184:\n        /* \"#utility.yul\":40:46   */\n      0x00\n        /* \"#utility.yul\":73:75   */\n      0x40\n        /* \"#utility.yul\":67:76   */\n      mload\n        /* \"#utility.yul\":57:76   */\n      swap1\n      pop\n        /* \"#utility.yul\":7:82   */\n      swap1\n      jump\t// out\n        /* \"#utility.yul\":88:205   */\n    tag_185:\n        /* \"#utility.yul\":197:198   */\n      0x00\n        /* \"#utility.yul\":194:195   */\n      0x00\n        /* \"#utility.yul\":187:199   */\n      revert\n        /* \"#utility.yul\":211:328   */\n    tag_186:\n        /* \"#utility.yul\":320:321   */\n      0x00\n        /* \"#utility.yul\":317:318   */\n      0x00\n        /* \"#utility.yul\":310:322   */\n      revert\n        /* \"#utility.yul\":334:411   */\n    tag_187:\n        /* \"#utility.yul\":371:378   */\n      0x00\n        /* \"#utility.yul\":400:405   */\n      dup2\n        /* \"#utility.yul\":389:405   */\n      swap1\n      pop\n        /* \"#utility.yul\":334:411   */\n      swap2\n      swap1\n      pop\n      jump\t// out\n        /* \"#utility.yul\":417:539   */\n    tag_188:\n        /* \"#utility.yul\":490:514   */\n      tag_272\n        /* \"#utility.yul\":508:513   */\n      dup2\n        /* \"#utility.yul\":490:514   */\n      tag_187\n      jump\t// in\n    tag_272:\n        /* \"#utility.yul\":483:488   */\n      dup2\n        /* \"#utility.yul\":480:515   */\n      eq\n        /* \"#utility.yul\":470:533   */\n      tag_273\n      jumpi\n        /* \"#utility.yul\":529:530   */\n      0x00\n        /* \"#utility.yul\":526:527   */\n      0x00\n        /* \"#utility.yul\":519:531   */\n      revert\n        /* \"#utility.yul\":470:533   */\n    tag_273:\n        /* \"#utility.yul\":417:539   */\n      pop\n      jump\t// out\n        /* \"#utility.yul\":545:684   */\n    tag_189:\n        /* \"#utility.yul\":591:596   */\n      0x00\n        /* \"#utility.yul\":629:635   */\n      dup2\n        /* \"#utility.yul\":616:636   */\n      calldataload\n        /* \"#utility.yul\":607:636   */\n      swap1\n      pop\n        /* \"#utility.yul\":645:678   */\n      tag_275\n        /* \"#utility.yul\":672:677   */\n      dup2\n        /* \"#utility.yul\":645:678   */\n      tag_188\n      jump\t// in\n    tag_275:\n        /* \"#utility.yul\":545:684   */\n      swap3\n      swap2\n      pop\n      pop\n      jump\t// out\n        /* \"#utility.yul\":690:1019   */\n    tag_16:\n        /* \"#utility.yul\":749:755   */\n      0x00\n        /* \"#utility.yul\":798:800   */\n      0x20\n        /* \"#utility.yul\":786:795   */\n      dup3\n        /* \"#utility.yul\":777:784   */\n      dup5\n        /* \"#utility.yul\":773:796   */\n      sub\n        /* \"#utility.yul\":769:801   */\n      slt\n        /* \"#utility.yul\":766:885   */\n      iszero\n      tag_277\n      jumpi\n        /* \"#utility.yul\":804:883   */\n      tag_278\n      tag_185\n      jump\t// in\n    tag_278:\n        /* \"#utility.yul\":766:885   */\n    tag_277:\n        /* \"#utility.yul\":924:925   */\n      0x00\n        /* \"#utility.yul\":949:1002   */\n      tag_279\n        /* \"#utility.yul\":994:1001   */\n      dup5\n        /* \"#utility.yul\":985:991   */\n      dup3\n        /* \"#utility.yul\":974:983   */\n      dup6\n        /* \"#utility.yul\":970:992   */\n      add\n        /* \"#utility.yul\":949:1002   */\n      tag_189\n      jump\t// in\n    tag_279:\n        /* \"#utility.yul\":939:1002   */\n      swap2\n      pop\n        /* \"#utility.yul\":895:1012   */\n      pop\n        /* \"#utility.yul\":690:1019   */\n      swap3\n      swap2\n      pop\n      pop\n      jump\t// out\n        /* \"#utility.yul\":1025:1151   */\n    tag_190:\n        /* \"#utility.yul\":1062:1069   */\n      0x00\n        /* \"#utility.yul\":1102:1144   */\n      0xffffffffffffffffffffffffffffffffffffffff\n        /* \"#utility.yul\":1095:1100   */\n      dup3\n        /* \"#utility.yul\":1091:1145   */\n      and\n        /* \"#utility.yul\":1080:1145   */\n      swap1\n      pop\n        /* \"#utility.yul\":1025:1151   */\n      swap2\n      swap1\n      pop\n      jump\t// out\n        /* \"#utility.yul\":1157:1253   */\n    tag_191:\n        /* \"#utility.yul\":1194:1201   */\n      0x00\n        /* \"#utility.yul\":1223:1247   */\n      tag_282\n        /* \"#utility.yul\":1241:1246   */\n      dup3\n        /* \"#utility.yul\":1223:1247   */\n      tag_190\n      jump\t// in\n    tag_282:\n        /* \"#utility.yul\":1212:1247   */\n      swap1\n      pop\n        /* \"#utility.yul\":1157:1253   */\n      swap2\n      swap1\n      pop\n      jump\t// out\n        /* \"#utility.yul\":1259:1381   */\n    tag_192:\n        /* \"#utility.yul\":1332:1356   */\n      tag_284\n        /* \"#utility.yul\":1350:1355   */\n      dup2\n        /* \"#utility.yul\":1332:1356   */\n      tag_191\n      jump\t// in\n    tag_284:\n        /* \"#utility.yul\":1325:1330   */\n      dup2\n        /* \"#utility.yul\":1322:1357   */\n      eq\n        /* \"#utility.yul\":1312:1375   */\n      tag_285\n      jumpi\n        /* \"#utility.yul\":1371:1372   */\n      0x00\n        /* \"#utility.yul\":1368:1369   */\n      0x00\n        /* \"#utility.yul\":1361:1373   */\n      revert\n        /* \"#utility.yul\":1312:1375   */\n    tag_285:\n        /* \"#utility.yul\":1259:1381   */\n      pop\n      jump\t// out\n        /* \"#utility.yul\":1387:1526   */\n    tag_193:\n        /* \"#utility.yul\":1433:1438   */\n      0x00\n        /* \"#utility.yul\":1471:1477   */\n      dup2\n        /* \"#utility.yul\":1458:1478   */\n      calldataload\n        /* \"#utility.yul\":1449:1478   */\n      swap1\n      pop\n        /* \"#utility.yul\":1487:1520   */\n      tag_287\n        /* \"#utility.yul\":1514:1519   */\n      dup2\n        /* \"#utility.yul\":1487:1520   */\n      tag_192\n      jump\t// in\n    tag_287:\n        /* \"#utility.yul\":1387:1526   */\n      swap3\n      swap2\n      pop\n      pop\n      jump\t// out\n        /* \"#utility.yul\":1532:1861   */\n    tag_20:\n        /* \"#utility.yul\":1591:1597   */\n      0x00\n        /* \"#utility.yul\":1640:1642   */\n      0x20\n        /* \"#utility.yul\":1628:1637   */\n      dup3\n        /* \"#utility.yul\":1619:1626   */\n      dup5\n        /* \"#utility.yul\":1615:1638   */\n      sub\n        /* \"#utility.yul\":1611:1643   */\n      slt\n        /* \"#utility.yul\":1608:1727   */\n      iszero\n      tag_289\n      jumpi\n        /* \"#utility.yul\":1646:1725   */\n      tag_290\n      tag_185\n      jump\t// in\n    tag_290:\n        /* \"#utility.yul\":1608:1727   */\n    tag_289:\n        /* \"#utility.yul\":1766:1767   */\n      0x00\n        /* \"#utility.yul\":1791:1844   */\n      tag_291\n        /* \"#utility.yul\":1836:1843   */\n      dup5\n        /* \"#utility.yul\":1827:1833   */\n      dup3\n        /* \"#utility.yul\":1816:1825   */\n      dup6\n        /* \"#utility.yul\":1812:1834   */\n      add\n        /* \"#utility.yul\":1791:1844   */\n      tag_193\n      jump\t// in\n    tag_291:\n        /* \"#utility.yul\":1781:1844   */\n      swap2\n      pop\n        /* \"#utility.yul\":1737:1854   */\n      pop\n        /* \"#utility.yul\":1532:1861   */\n      swap3\n      swap2\n      pop\n      pop\n      jump\t// out\n        /* \"#utility.yul\":1867:1981   */\n    tag_194:\n        /* \"#utility.yul\":1934:1940   */\n      0x00\n        /* \"#utility.yul\":1968:1973   */\n      dup2\n        /* \"#utility.yul\":1962:1974   */\n      mload\n        /* \"#utility.yul\":1952:1974   */\n      swap1\n      pop\n        /* \"#utility.yul\":1867:1981   */\n      swap2\n      swap1\n      pop\n      jump\t// out\n        /* \"#utility.yul\":1987:2171   */\n    tag_195:\n        /* \"#utility.yul\":2086:2097   */\n      0x00\n        /* \"#utility.yul\":2120:2126   */\n      dup3\n        /* \"#utility.yul\":2115:2118   */\n      dup3\n        /* \"#utility.yul\":2108:2127   */\n      mstore\n        /* \"#utility.yul\":2160:2164   */\n      0x20\n        /* \"#utility.yul\":2155:2158   */\n      dup3\n        /* \"#utility.yul\":2151:2165   */\n      add\n        /* \"#utility.yul\":2136:2165   */\n      swap1\n      pop\n        /* \"#utility.yul\":1987:2171   */\n      swap3\n      swap2\n      pop\n      pop\n      jump\t// out\n        /* \"#utility.yul\":2177:2309   */\n    tag_196:\n        /* \"#utility.yul\":2244:2248   */\n      0x00\n        /* \"#utility.yul\":2267:2270   */\n      dup2\n        /* \"#utility.yul\":2259:2270   */\n      swap1\n      pop\n        /* \"#utility.yul\":2297:2301   */\n      0x20\n        /* \"#utility.yul\":2292:2295   */\n      dup3\n        /* \"#utility.yul\":2288:2302   */\n      add\n        /* \"#utility.yul\":2280:2302   */\n      swap1\n      pop\n        /* \"#utility.yul\":2177:2309   */\n      swap2\n      swap1\n      pop\n      jump\t// out\n        /* \"#utility.yul\":2315:2423   */\n    tag_197:\n        /* \"#utility.yul\":2392:2416   */\n      tag_296\n        /* \"#utility.yul\":2410:2415   */\n      dup2\n        /* \"#utility.yul\":2392:2416   */\n      tag_191\n      jump\t// in\n    tag_296:\n        /* \"#utility.yul\":2387:2390   */\n      dup3\n        /* \"#utility.yul\":2380:2417   */\n      mstore\n        /* \"#utility.yul\":2315:2423   */\n      pop\n      pop\n      jump\t// out\n        /* \"#utility.yul\":2429:2608   */\n    tag_198:\n        /* \"#utility.yul\":2498:2508   */\n      0x00\n        /* \"#utility.yul\":2519:2565   */\n      tag_298\n        /* \"#utility.yul\":2561:2564   */\n      dup4\n        /* \"#utility.yul\":2553:2559   */\n      dup4\n        /* \"#utility.yul\":2519:2565   */\n      tag_197\n      jump\t// in\n    tag_298:\n        /* \"#utility.yul\":2597:2601   */\n      0x20\n        /* \"#utility.yul\":2592:2595   */\n      dup4\n        /* \"#utility.yul\":2588:2602   */\n      add\n        /* \"#utility.yul\":2574:2602   */\n      swap1\n      pop\n        /* \"#utility.yul\":2429:2608   */\n      swap3\n      swap2\n      pop\n      pop\n      jump\t// out\n        /* \"#utility.yul\":2614:2727   */\n    tag_199:\n        /* \"#utility.yul\":2684:2688   */\n      0x00\n        /* \"#utility.yul\":2716:2720   */\n      0x20\n        /* \"#utility.yul\":2711:2714   */\n      dup3\n        /* \"#utility.yul\":2707:2721   */\n      add\n        /* \"#utility.yul\":2699:2721   */\n      swap1\n      pop\n        /* \"#utility.yul\":2614:2727   */\n      swap2\n      swap1\n      pop\n      jump\t// out\n        /* \"#utility.yul\":2763:3495   */\n    tag_200:\n        /* \"#utility.yul\":2882:2885   */\n      0x00\n        /* \"#utility.yul\":2911:2965   */\n      tag_301\n        /* \"#utility.yul\":2959:2964   */\n      dup3\n        /* \"#utility.yul\":2911:2965   */\n      tag_194\n      jump\t// in\n    tag_301:\n        /* \"#utility.yul\":2981:3067   */\n      tag_302\n        /* \"#utility.yul\":3060:3066   */\n      dup2\n        /* \"#utility.yul\":3055:3058   */\n      dup6\n        /* \"#utility.yul\":2981:3067   */\n      tag_195\n      jump\t// in\n    tag_302:\n        /* \"#utility.yul\":2974:3067   */\n      swap4\n      pop\n        /* \"#utility.yul\":3091:3147   */\n      tag_303\n        /* \"#utility.yul\":3141:3146   */\n      dup4\n        /* \"#utility.yul\":3091:3147   */\n      tag_196\n      jump\t// in\n    tag_303:\n        /* \"#utility.yul\":3170:3177   */\n      dup1\n        /* \"#utility.yul\":3201:3202   */\n      0x00\n        /* \"#utility.yul\":3186:3470   */\n    tag_304:\n        /* \"#utility.yul\":3211:3217   */\n      dup4\n        /* \"#utility.yul\":3208:3209   */\n      dup2\n        /* \"#utility.yul\":3205:3218   */\n      lt\n        /* \"#utility.yul\":3186:3470   */\n      iszero\n      tag_306\n      jumpi\n        /* \"#utility.yul\":3287:3293   */\n      dup2\n        /* \"#utility.yul\":3281:3294   */\n      mload\n        /* \"#utility.yul\":3314:3377   */\n      tag_307\n        /* \"#utility.yul\":3373:3376   */\n      dup9\n        /* \"#utility.yul\":3358:3371   */\n      dup3\n        /* \"#utility.yul\":3314:3377   */\n      tag_198\n      jump\t// in\n    tag_307:\n        /* \"#utility.yul\":3307:3377   */\n      swap8\n      pop\n        /* \"#utility.yul\":3400:3460   */\n      tag_308\n        /* \"#utility.yul\":3453:3459   */\n      dup4\n        /* \"#utility.yul\":3400:3460   */\n      tag_199\n      jump\t// in\n    tag_308:\n        /* \"#utility.yul\":3390:3460   */\n      swap3\n      pop\n        /* \"#utility.yul\":3246:3470   */\n      pop\n        /* \"#utility.yul\":3233:3234   */\n      0x01\n        /* \"#utility.yul\":3230:3231   */\n      dup2\n        /* \"#utility.yul\":3226:3235   */\n      add\n        /* \"#utility.yul\":3221:3235   */\n      swap1\n      pop\n        /* \"#utility.yul\":3186:3470   */\n      jump(tag_304)\n    tag_306:\n        /* \"#utility.yul\":3190:3204   */\n      pop\n        /* \"#utility.yul\":3486:3489   */\n      dup6\n        /* \"#utility.yul\":3479:3489   */\n      swap4\n      pop\n        /* \"#utility.yul\":2887:3495   */\n      pop\n      pop\n      pop\n        /* \"#utility.yul\":2763:3495   */\n      swap3\n      swap2\n      pop\n      pop\n      jump\t// out\n        /* \"#utility.yul\":3501:3874   */\n    tag_28:\n        /* \"#utility.yul\":3644:3648   */\n      0x00\n        /* \"#utility.yul\":3682:3684   */\n      0x20\n        /* \"#utility.yul\":3671:3680   */\n      dup3\n        /* \"#utility.yul\":3667:3685   */\n      add\n        /* \"#utility.yul\":3659:3685   */\n      swap1\n      pop\n        /* \"#utility.yul\":3731:3740   */\n      dup2\n        /* \"#utility.yul\":3725:3729   */\n      dup2\n        /* \"#utility.yul\":3721:3741   */\n      sub\n        /* \"#utility.yul\":3717:3718   */\n      0x00\n        /* \"#utility.yul\":3706:3715   */\n      dup4\n        /* \"#utility.yul\":3702:3719   */\n      add\n        /* \"#utility.yul\":3695:3742   */\n      mstore\n        /* \"#utility.yul\":3759:3867   */\n      tag_310\n        /* \"#utility.yul\":3862:3866   */\n      dup2\n        /* \"#utility.yul\":3853:3859   */\n      dup5\n        /* \"#utility.yul\":3759:3867   */\n      tag_200\n      jump\t// in\n    tag_310:\n        /* \"#utility.yul\":3751:3867   */\n      swap1\n      pop\n        /* \"#utility.yul\":3501:3874   */\n      swap3\n      swap2\n      pop\n      pop\n      jump\t// out\n        /* \"#utility.yul\":3880:3998   */\n    tag_201:\n        /* \"#utility.yul\":3967:3991   */\n      tag_312\n        /* \"#utility.yul\":3985:3990   */\n      dup2\n        /* \"#utility.yul\":3967:3991   */\n      tag_187\n      jump\t// in\n    tag_312:\n        /* \"#utility.yul\":3962:3965   */\n      dup3\n        /* \"#utility.yul\":3955:3992   */\n      mstore\n        /* \"#utility.yul\":3880:3998   */\n      pop\n      pop\n      jump\t// out\n        /* \"#utility.yul\":4004:4226   */\n    tag_32:\n        /* \"#utility.yul\":4097:4101   */\n      0x00\n        /* \"#utility.yul\":4135:4137   */\n      0x20\n        /* \"#utility.yul\":4124:4133   */\n      dup3\n        /* \"#utility.yul\":4120:4138   */\n      add\n        /* \"#utility.yul\":4112:4138   */\n      swap1\n      pop\n        /* \"#utility.yul\":4148:4219   */\n      tag_314\n        /* \"#utility.yul\":4216:4217   */\n      0x00\n        /* \"#utility.yul\":4205:4214   */\n      dup4\n        /* \"#utility.yul\":4201:4218   */\n      add\n        /* \"#utility.yul\":4192:4198   */\n      dup5\n        /* \"#utility.yul\":4148:4219   */\n      tag_201\n      jump\t// in\n    tag_314:\n        /* \"#utility.yul\":4004:4226   */\n      swap3\n      swap2\n      pop\n      pop\n      jump\t// out\n        /* \"#utility.yul\":4232:4374   */\n    tag_202:\n        /* \"#utility.yul\":4327:4333   */\n      0x00\n        /* \"#utility.yul\":4361:4366   */\n      dup2\n        /* \"#utility.yul\":4355:4367   */\n      mload\n        /* \"#utility.yul\":4345:4367   */\n      swap1\n      pop\n        /* \"#utility.yul\":4232:4374   */\n      swap2\n      swap1\n      pop\n      jump\t// out\n        /* \"#utility.yul\":4380:4592   */\n    tag_203:\n        /* \"#utility.yul\":4507:4518   */\n      0x00\n        /* \"#utility.yul\":4541:4547   */\n      dup3\n        /* \"#utility.yul\":4536:4539   */\n      dup3\n        /* \"#utility.yul\":4529:4548   */\n      mstore\n        /* \"#utility.yul\":4581:4585   */\n      0x20\n        /* \"#utility.yul\":4576:4579   */\n      dup3\n        /* \"#utility.yul\":4572:4586   */\n      add\n        /* \"#utility.yul\":4557:4586   */\n      swap1\n      pop\n        /* \"#utility.yul\":4380:4592   */\n      swap3\n      swap2\n      pop\n      pop\n      jump\t// out\n        /* \"#utility.yul\":4598:4758   */\n    tag_204:\n        /* \"#utility.yul\":4693:4697   */\n      0x00\n        /* \"#utility.yul\":4716:4719   */\n      dup2\n        /* \"#utility.yul\":4708:4719   */\n      swap1\n      pop\n        /* \"#utility.yul\":4746:4750   */\n      0x20\n        /* \"#utility.yul\":4741:4744   */\n      dup3\n        /* \"#utility.yul\":4737:4751   */\n      add\n        /* \"#utility.yul\":4729:4751   */\n      swap1\n      pop\n        /* \"#utility.yul\":4598:4758   */\n      swap2\n      swap1\n      pop\n      jump\t// out\n        /* \"#utility.yul\":4764:4862   */\n    tag_205:\n        /* \"#utility.yul\":4815:4821   */\n      0x00\n        /* \"#utility.yul\":4849:4854   */\n      dup2\n        /* \"#utility.yul\":4843:4855   */\n      mload\n        /* \"#utility.yul\":4833:4855   */\n      swap1\n      pop\n        /* \"#utility.yul\":4764:4862   */\n      swap2\n      swap1\n      pop\n      jump\t// out\n        /* \"#utility.yul\":4868:5026   */\n    tag_206:\n        /* \"#utility.yul\":4941:4952   */\n      0x00\n        /* \"#utility.yul\":4975:4981   */\n      dup3\n        /* \"#utility.yul\":4970:4973   */\n      dup3\n        /* \"#utility.yul\":4963:4982   */\n      mstore\n        /* \"#utility.yul\":5015:5019   */\n      0x20\n        /* \"#utility.yul\":5010:5013   */\n      dup3\n        /* \"#utility.yul\":5006:5020   */\n      add\n        /* \"#utility.yul\":4991:5020   */\n      swap1\n      pop\n        /* \"#utility.yul\":4868:5026   */\n      swap3\n      swap2\n      pop\n      pop\n      jump\t// out\n        /* \"#utility.yul\":5032:5171   */\n    tag_207:\n        /* \"#utility.yul\":5121:5127   */\n      dup3\n        /* \"#utility.yul\":5116:5119   */\n      dup2\n        /* \"#utility.yul\":5111:5114   */\n      dup4\n        /* \"#utility.yul\":5105:5128   */\n      mcopy\n        /* \"#utility.yul\":5162:5163   */\n      0x00\n        /* \"#utility.yul\":5153:5159   */\n      dup4\n        /* \"#utility.yul\":5148:5151   */\n      dup4\n        /* \"#utility.yul\":5144:5160   */\n      add\n        /* \"#utility.yul\":5137:5164   */\n      mstore\n        /* \"#utility.yul\":5032:5171   */\n      pop\n      pop\n      pop\n      jump\t// out\n        /* \"#utility.yul\":5177:5279   */\n    tag_208:\n        /* \"#utility.yul\":5218:5224   */\n      0x00\n        /* \"#utility.yul\":5269:5271   */\n      0x1f\n        /* \"#utility.yul\":5265:5272   */\n      not\n        /* \"#utility.yul\":5260:5262   */\n      0x1f\n        /* \"#utility.yul\":5253:5258   */\n      dup4\n        /* \"#utility.yul\":5249:5263   */\n      add\n        /* \"#utility.yul\":5245:5273   */\n      and\n        /* \"#utility.yul\":5235:5273   */\n      swap1\n      pop\n        /* \"#utility.yul\":5177:5279   */\n      swap2\n      swap1\n      pop\n      jump\t// out\n        /* \"#utility.yul\":5285:5638   */\n    tag_209:\n        /* \"#utility.yul\":5361:5364   */\n      0x00\n        /* \"#utility.yul\":5389:5427   */\n      tag_323\n        /* \"#utility.yul\":5421:5426   */\n      dup3\n        /* \"#utility.yul\":5389:5427   */\n      tag_205\n      jump\t// in\n    tag_323:\n        /* \"#utility.yul\":5443:5503   */\n      tag_324\n        /* \"#utility.yul\":5496:5502   */\n      dup2\n        /* \"#utility.yul\":5491:5494   */\n      dup6\n        /* \"#utility.yul\":5443:5503   */\n      tag_206\n      jump\t// in\n    tag_324:\n        /* \"#utility.yul\":5436:5503   */\n      swap4\n      pop\n        /* \"#utility.yul\":5512:5577   */\n      tag_325\n        /* \"#utility.yul\":5570:5576   */\n      dup2\n        /* \"#utility.yul\":5565:5568   */\n      dup6\n        /* \"#utility.yul\":5558:5562   */\n      0x20\n        /* \"#utility.yul\":5551:5556   */\n      dup7\n        /* \"#utility.yul\":5547:5563   */\n      add\n        /* \"#utility.yul\":5512:5577   */\n      tag_207\n      jump\t// in\n    tag_325:\n        /* \"#utility.yul\":5602:5631   */\n      tag_326\n        /* \"#utility.yul\":5624:5630   */\n      dup2\n        /* \"#utility.yul\":5602:5631   */\n      tag_208\n      jump\t// in\n    tag_326:\n        /* \"#utility.yul\":5597:5600   */\n      dup5\n        /* \"#utility.yul\":5593:5632   */\n      add\n        /* \"#utility.yul\":5586:5632   */\n      swap2\n      pop\n        /* \"#utility.yul\":5365:5638   */\n      pop\n        /* \"#utility.yul\":5285:5638   */\n      swap3\n      swap2\n      pop\n      pop\n      jump\t// out\n        /* \"#utility.yul\":5644:5734   */\n    tag_210:\n        /* \"#utility.yul\":5678:5685   */\n      0x00\n        /* \"#utility.yul\":5721:5726   */\n      dup2\n        /* \"#utility.yul\":5714:5727   */\n      iszero\n        /* \"#utility.yul\":5707:5728   */\n      iszero\n        /* \"#utility.yul\":5696:5728   */\n      swap1\n      pop\n        /* \"#utility.yul\":5644:5734   */\n      swap2\n      swap1\n      pop\n      jump\t// out\n        /* \"#utility.yul\":5740:5839   */\n    tag_211:\n        /* \"#utility.yul\":5811:5832   */\n      tag_329\n        /* \"#utility.yul\":5826:5831   */\n      dup2\n        /* \"#utility.yul\":5811:5832   */\n      tag_210\n      jump\t// in\n    tag_329:\n        /* \"#utility.yul\":5806:5809   */\n      dup3\n        /* \"#utility.yul\":5799:5833   */\n      mstore\n        /* \"#utility.yul\":5740:5839   */\n      pop\n      pop\n      jump\t// out\n        /* \"#utility.yul\":5911:6850   */\n    tag_212:\n        /* \"#utility.yul\":6026:6029   */\n      0x00\n        /* \"#utility.yul\":6062:6066   */\n      0x80\n        /* \"#utility.yul\":6057:6060   */\n      dup4\n        /* \"#utility.yul\":6053:6067   */\n      add\n        /* \"#utility.yul\":6149:6153   */\n      0x00\n        /* \"#utility.yul\":6142:6147   */\n      dup4\n        /* \"#utility.yul\":6138:6154   */\n      add\n        /* \"#utility.yul\":6132:6155   */\n      mload\n        /* \"#utility.yul\":6202:6205   */\n      dup5\n        /* \"#utility.yul\":6196:6200   */\n      dup3\n        /* \"#utility.yul\":6192:6206   */\n      sub\n        /* \"#utility.yul\":6185:6189   */\n      0x00\n        /* \"#utility.yul\":6180:6183   */\n      dup7\n        /* \"#utility.yul\":6176:6190   */\n      add\n        /* \"#utility.yul\":6169:6207   */\n      mstore\n        /* \"#utility.yul\":6228:6299   */\n      tag_331\n        /* \"#utility.yul\":6294:6298   */\n      dup3\n        /* \"#utility.yul\":6280:6292   */\n      dup3\n        /* \"#utility.yul\":6228:6299   */\n      tag_209\n      jump\t// in\n    tag_331:\n        /* \"#utility.yul\":6220:6299   */\n      swap2\n      pop\n        /* \"#utility.yul\":6077:6310   */\n      pop\n        /* \"#utility.yul\":6390:6394   */\n      0x20\n        /* \"#utility.yul\":6383:6388   */\n      dup4\n        /* \"#utility.yul\":6379:6395   */\n      add\n        /* \"#utility.yul\":6373:6396   */\n      mload\n        /* \"#utility.yul\":6409:6472   */\n      tag_332\n        /* \"#utility.yul\":6466:6470   */\n      0x20\n        /* \"#utility.yul\":6461:6464   */\n      dup7\n        /* \"#utility.yul\":6457:6471   */\n      add\n        /* \"#utility.yul\":6443:6455   */\n      dup3\n        /* \"#utility.yul\":6409:6472   */\n      tag_197\n      jump\t// in\n    tag_332:\n        /* \"#utility.yul\":6320:6482   */\n      pop\n        /* \"#utility.yul\":6568:6572   */\n      0x40\n        /* \"#utility.yul\":6561:6566   */\n      dup4\n        /* \"#utility.yul\":6557:6573   */\n      add\n        /* \"#utility.yul\":6551:6574   */\n      mload\n        /* \"#utility.yul\":6587:6644   */\n      tag_333\n        /* \"#utility.yul\":6638:6642   */\n      0x40\n        /* \"#utility.yul\":6633:6636   */\n      dup7\n        /* \"#utility.yul\":6629:6643   */\n      add\n        /* \"#utility.yul\":6615:6627   */\n      dup3\n        /* \"#utility.yul\":6587:6644   */\n      tag_211\n      jump\t// in\n    tag_333:\n        /* \"#utility.yul\":6492:6654   */\n      pop\n        /* \"#utility.yul\":6737:6741   */\n      0x60\n        /* \"#utility.yul\":6730:6735   */\n      dup4\n        /* \"#utility.yul\":6726:6742   */\n      add\n        /* \"#utility.yul\":6720:6743   */\n      mload\n        /* \"#utility.yul\":6756:6813   */\n      tag_334\n        /* \"#utility.yul\":6807:6811   */\n      0x60\n        /* \"#utility.yul\":6802:6805   */\n      dup7\n        /* \"#utility.yul\":6798:6812   */\n      add\n        /* \"#utility.yul\":6784:6796   */\n      dup3\n        /* \"#utility.yul\":6756:6813   */\n      tag_211\n      jump\t// in\n    tag_334:\n        /* \"#utility.yul\":6664:6823   */\n      pop\n        /* \"#utility.yul\":6840:6844   */\n      dup1\n        /* \"#utility.yul\":6833:6844   */\n      swap2\n      pop\n        /* \"#utility.yul\":6031:6850   */\n      pop\n        /* \"#utility.yul\":5911:6850   */\n      swap3\n      swap2\n      pop\n      pop\n      jump\t// out\n        /* \"#utility.yul\":6856:7124   */\n    tag_213:\n        /* \"#utility.yul\":6981:6991   */\n      0x00\n        /* \"#utility.yul\":7016:7118   */\n      tag_336\n        /* \"#utility.yul\":7114:7117   */\n      dup4\n        /* \"#utility.yul\":7106:7112   */\n      dup4\n        /* \"#utility.yul\":7016:7118   */\n      tag_212\n      jump\t// in\n    tag_336:\n        /* \"#utility.yul\":7002:7118   */\n      swap1\n      pop\n        /* \"#utility.yul\":6856:7124   */\n      swap3\n      swap2\n      pop\n      pop\n      jump\t// out\n        /* \"#utility.yul\":7130:7271   */\n    tag_214:\n        /* \"#utility.yul\":7228:7232   */\n      0x00\n        /* \"#utility.yul\":7260:7264   */\n      0x20\n        /* \"#utility.yul\":7255:7258   */\n      dup3\n        /* \"#utility.yul\":7251:7265   */\n      add\n        /* \"#utility.yul\":7243:7265   */\n      swap1\n      pop\n        /* \"#utility.yul\":7130:7271   */\n      swap2\n      swap1\n      pop\n      jump\t// out\n        /* \"#utility.yul\":7347:8482   */\n    tag_215:\n        /* \"#utility.yul\":7522:7525   */\n      0x00\n        /* \"#utility.yul\":7551:7633   */\n      tag_339\n        /* \"#utility.yul\":7627:7632   */\n      dup3\n        /* \"#utility.yul\":7551:7633   */\n      tag_202\n      jump\t// in\n    tag_339:\n        /* \"#utility.yul\":7649:7763   */\n      tag_340\n        /* \"#utility.yul\":7756:7762   */\n      dup2\n        /* \"#utility.yul\":7751:7754   */\n      dup6\n        /* \"#utility.yul\":7649:7763   */\n      tag_203\n      jump\t// in\n    tag_340:\n        /* \"#utility.yul\":7642:7763   */\n      swap4\n      pop\n        /* \"#utility.yul\":7789:7792   */\n      dup4\n        /* \"#utility.yul\":7834:7838   */\n      0x20\n        /* \"#utility.yul\":7826:7832   */\n      dup3\n        /* \"#utility.yul\":7822:7839   */\n      mul\n        /* \"#utility.yul\":7817:7820   */\n      dup6\n        /* \"#utility.yul\":7813:7840   */\n      add\n        /* \"#utility.yul\":7864:7948   */\n      tag_341\n        /* \"#utility.yul\":7942:7947   */\n      dup6\n        /* \"#utility.yul\":7864:7948   */\n      tag_204\n      jump\t// in\n    tag_341:\n        /* \"#utility.yul\":7971:7978   */\n      dup1\n        /* \"#utility.yul\":8002:8003   */\n      0x00\n        /* \"#utility.yul\":7987:8437   */\n    tag_342:\n        /* \"#utility.yul\":8012:8018   */\n      dup6\n        /* \"#utility.yul\":8009:8010   */\n      dup2\n        /* \"#utility.yul\":8006:8019   */\n      lt\n        /* \"#utility.yul\":7987:8437   */\n      iszero\n      tag_344\n      jumpi\n        /* \"#utility.yul\":8083:8092   */\n      dup5\n        /* \"#utility.yul\":8077:8081   */\n      dup5\n        /* \"#utility.yul\":8073:8093   */\n      sub\n        /* \"#utility.yul\":8068:8071   */\n      dup10\n        /* \"#utility.yul\":8061:8094   */\n      mstore\n        /* \"#utility.yul\":8134:8140   */\n      dup2\n        /* \"#utility.yul\":8128:8141   */\n      mload\n        /* \"#utility.yul\":8162:8282   */\n      tag_345\n        /* \"#utility.yul\":8277:8281   */\n      dup6\n        /* \"#utility.yul\":8262:8275   */\n      dup3\n        /* \"#utility.yul\":8162:8282   */\n      tag_213\n      jump\t// in\n    tag_345:\n        /* \"#utility.yul\":8154:8282   */\n      swap5\n      pop\n        /* \"#utility.yul\":8305:8393   */\n      tag_346\n        /* \"#utility.yul\":8386:8392   */\n      dup4\n        /* \"#utility.yul\":8305:8393   */\n      tag_214\n      jump\t// in\n    tag_346:\n        /* \"#utility.yul\":8295:8393   */\n      swap3\n      pop\n        /* \"#utility.yul\":8422:8426   */\n      0x20\n        /* \"#utility.yul\":8417:8420   */\n      dup11\n        /* \"#utility.yul\":8413:8427   */\n      add\n        /* \"#utility.yul\":8406:8427   */\n      swap10\n      pop\n        /* \"#utility.yul\":8047:8437   */\n      pop\n        /* \"#utility.yul\":8034:8035   */\n      0x01\n        /* \"#utility.yul\":8031:8032   */\n      dup2\n        /* \"#utility.yul\":8027:8036   */\n      add\n        /* \"#utility.yul\":8022:8036   */\n      swap1\n      pop\n        /* \"#utility.yul\":7987:8437   */\n      jump(tag_342)\n    tag_344:\n        /* \"#utility.yul\":7991:8005   */\n      pop\n        /* \"#utility.yul\":8453:8457   */\n      dup3\n        /* \"#utility.yul\":8446:8457   */\n      swap8\n      pop\n        /* \"#utility.yul\":8473:8476   */\n      dup8\n        /* \"#utility.yul\":8466:8476   */\n      swap6\n      pop\n        /* \"#utility.yul\":7527:8482   */\n      pop\n      pop\n      pop\n      pop\n      pop\n        /* \"#utility.yul\":7347:8482   */\n      swap3\n      swap2\n      pop\n      pop\n      jump\t// out\n        /* \"#utility.yul\":8488:8973   */\n    tag_36:\n        /* \"#utility.yul\":8687:8691   */\n      0x00\n        /* \"#utility.yul\":8725:8727   */\n      0x20\n        /* \"#utility.yul\":8714:8723   */\n      dup3\n        /* \"#utility.yul\":8710:8728   */\n      add\n        /* \"#utility.yul\":8702:8728   */\n      swap1\n      pop\n        /* \"#utility.yul\":8774:8783   */\n      dup2\n        /* \"#utility.yul\":8768:8772   */\n      dup2\n        /* \"#utility.yul\":8764:8784   */\n      sub\n        /* \"#utility.yul\":8760:8761   */\n      0x00\n        /* \"#utility.yul\":8749:8758   */\n      dup4\n        /* \"#utility.yul\":8745:8762   */\n      add\n        /* \"#utility.yul\":8738:8785   */\n      mstore\n        /* \"#utility.yul\":8802:8966   */\n      tag_348\n        /* \"#utility.yul\":8961:8965   */\n      dup2\n        /* \"#utility.yul\":8952:8958   */\n      dup5\n        /* \"#utility.yul\":8802:8966   */\n      tag_215\n      jump\t// in\n    tag_348:\n        /* \"#utility.yul\":8794:8966   */\n      swap1\n      pop\n        /* \"#utility.yul\":8488:8973   */\n      swap3\n      swap2\n      pop\n      pop\n      jump\t// out\n        /* \"#utility.yul\":8979:9097   */\n    tag_216:\n        /* \"#utility.yul\":9066:9090   */\n      tag_350\n        /* \"#utility.yul\":9084:9089   */\n      dup2\n        /* \"#utility.yul\":9066:9090   */\n      tag_191\n      jump\t// in\n    tag_350:\n        /* \"#utility.yul\":9061:9064   */\n      dup3\n        /* \"#utility.yul\":9054:9091   */\n      mstore\n        /* \"#utility.yul\":8979:9097   */\n      pop\n      pop\n      jump\t// out\n        /* \"#utility.yul\":9103:9325   */\n    tag_40:\n        /* \"#utility.yul\":9196:9200   */\n      0x00\n        /* \"#utility.yul\":9234:9236   */\n      0x20\n        /* \"#utility.yul\":9223:9232   */\n      dup3\n        /* \"#utility.yul\":9219:9237   */\n      add\n        /* \"#utility.yul\":9211:9237   */\n      swap1\n      pop\n        /* \"#utility.yul\":9247:9318   */\n      tag_352\n        /* \"#utility.yul\":9315:9316   */\n      0x00\n        /* \"#utility.yul\":9304:9313   */\n      dup4\n        /* \"#utility.yul\":9300:9317   */\n      add\n        /* \"#utility.yul\":9291:9297   */\n      dup5\n        /* \"#utility.yul\":9247:9318   */\n      tag_216\n      jump\t// in\n    tag_352:\n        /* \"#utility.yul\":9103:9325   */\n      swap3\n      swap2\n      pop\n      pop\n      jump\t// out\n        /* \"#utility.yul\":9331:9805   */\n    tag_43:\n        /* \"#utility.yul\":9399:9405   */\n      0x00\n        /* \"#utility.yul\":9407:9413   */\n      0x00\n        /* \"#utility.yul\":9456:9458   */\n      0x40\n        /* \"#utility.yul\":9444:9453   */\n      dup4\n        /* \"#utility.yul\":9435:9442   */\n      dup6\n        /* \"#utility.yul\":9431:9454   */\n      sub\n        /* \"#utility.yul\":9427:9459   */\n      slt\n        /* \"#utility.yul\":9424:9543   */\n      iszero\n      tag_354\n      jumpi\n        /* \"#utility.yul\":9462:9541   */\n      tag_355\n      tag_185\n      jump\t// in\n    tag_355:\n        /* \"#utility.yul\":9424:9543   */\n    tag_354:\n        /* \"#utility.yul\":9582:9583   */\n      0x00\n        /* \"#utility.yul\":9607:9660   */\n      tag_356\n        /* \"#utility.yul\":9652:9659   */\n      dup6\n        /* \"#utility.yul\":9643:9649   */\n      dup3\n        /* \"#utility.yul\":9632:9641   */\n      dup7\n        /* \"#utility.yul\":9628:9650   */\n      add\n        /* \"#utility.yul\":9607:9660   */\n      tag_193\n      jump\t// in\n    tag_356:\n        /* \"#utility.yul\":9597:9660   */\n      swap3\n      pop\n        /* \"#utility.yul\":9553:9670   */\n      pop\n        /* \"#utility.yul\":9709:9711   */\n      0x20\n        /* \"#utility.yul\":9735:9788   */\n      tag_357\n        /* \"#utility.yul\":9780:9787   */\n      dup6\n        /* \"#utility.yul\":9771:9777   */\n      dup3\n        /* \"#utility.yul\":9760:9769   */\n      dup7\n        /* \"#utility.yul\":9756:9778   */\n      add\n        /* \"#utility.yul\":9735:9788   */\n      tag_193\n      jump\t// in\n    tag_357:\n        /* \"#utility.yul\":9725:9788   */\n      swap2\n      pop\n        /* \"#utility.yul\":9680:9798   */\n      pop\n        /* \"#utility.yul\":9331:9805   */\n      swap3\n      pop\n      swap3\n      swap1\n      pop\n      jump\t// out\n        /* \"#utility.yul\":9811:9928   */\n    tag_217:\n        /* \"#utility.yul\":9920:9921   */\n      0x00\n        /* \"#utility.yul\":9917:9918   */\n      0x00\n        /* \"#utility.yul\":9910:9922   */\n      revert\n        /* \"#utility.yul\":9934:10114   */\n    tag_218:\n        /* \"#utility.yul\":9982:10059   */\n      0x4e487b7100000000000000000000000000000000000000000000000000000000\n        /* \"#utility.yul\":9979:9980   */\n      0x00\n        /* \"#utility.yul\":9972:10060   */\n      mstore\n        /* \"#utility.yul\":10079:10083   */\n      0x41\n        /* \"#utility.yul\":10076:10077   */\n      0x04\n        /* \"#utility.yul\":10069:10084   */\n      mstore\n        /* \"#utility.yul\":10103:10107   */\n      0x24\n        /* \"#utility.yul\":10100:10101   */\n      0x00\n        /* \"#utility.yul\":10093:10108   */\n      revert\n        /* \"#utility.yul\":10120:10401   */\n    tag_219:\n        /* \"#utility.yul\":10203:10230   */\n      tag_361\n        /* \"#utility.yul\":10225:10229   */\n      dup3\n        /* \"#utility.yul\":10203:10230   */\n      tag_208\n      jump\t// in\n    tag_361:\n        /* \"#utility.yul\":10195:10201   */\n      dup2\n        /* \"#utility.yul\":10191:10231   */\n      add\n        /* \"#utility.yul\":10333:10339   */\n      dup2\n        /* \"#utility.yul\":10321:10331   */\n      dup2\n        /* \"#utility.yul\":10318:10340   */\n      lt\n        /* \"#utility.yul\":10297:10315   */\n      0xffffffffffffffff\n        /* \"#utility.yul\":10285:10295   */\n      dup3\n        /* \"#utility.yul\":10282:10316   */\n      gt\n        /* \"#utility.yul\":10279:10341   */\n      or\n        /* \"#utility.yul\":10276:10364   */\n      iszero\n      tag_362\n      jumpi\n        /* \"#utility.yul\":10344:10362   */\n      tag_363\n      tag_218\n      jump\t// in\n    tag_363:\n        /* \"#utility.yul\":10276:10364   */\n    tag_362:\n        /* \"#utility.yul\":10384:10394   */\n      dup1\n        /* \"#utility.yul\":10380:10382   */\n      0x40\n        /* \"#utility.yul\":10373:10395   */\n      mstore\n        /* \"#utility.yul\":10163:10401   */\n      pop\n        /* \"#utility.yul\":10120:10401   */\n      pop\n      pop\n      jump\t// out\n        /* \"#utility.yul\":10407:10536   */\n    tag_220:\n        /* \"#utility.yul\":10441:10447   */\n      0x00\n        /* \"#utility.yul\":10468:10488   */\n      tag_365\n      tag_184\n      jump\t// in\n    tag_365:\n        /* \"#utility.yul\":10458:10488   */\n      swap1\n      pop\n        /* \"#utility.yul\":10497:10530   */\n      tag_366\n        /* \"#utility.yul\":10525:10529   */\n      dup3\n        /* \"#utility.yul\":10517:10523   */\n      dup3\n        /* \"#utility.yul\":10497:10530   */\n      tag_219\n      jump\t// in\n    tag_366:\n        /* \"#utility.yul\":10407:10536   */\n      swap2\n      swap1\n      pop\n      jump\t// out\n        /* \"#utility.yul\":10542:10853   */\n    tag_221:\n        /* \"#utility.yul\":10619:10623   */\n      0x00\n        /* \"#utility.yul\":10709:10727   */\n      0xffffffffffffffff\n        /* \"#utility.yul\":10701:10707   */\n      dup3\n        /* \"#utility.yul\":10698:10728   */\n      gt\n        /* \"#utility.yul\":10695:10751   */\n      iszero\n      tag_368\n      jumpi\n        /* \"#utility.yul\":10731:10749   */\n      tag_369\n      tag_218\n      jump\t// in\n    tag_369:\n        /* \"#utility.yul\":10695:10751   */\n    tag_368:\n        /* \"#utility.yul\":10781:10785   */\n      0x20\n        /* \"#utility.yul\":10773:10779   */\n      dup3\n        /* \"#utility.yul\":10769:10786   */\n      mul\n        /* \"#utility.yul\":10761:10786   */\n      swap1\n      pop\n        /* \"#utility.yul\":10841:10845   */\n      0x20\n        /* \"#utility.yul\":10835:10839   */\n      dup2\n        /* \"#utility.yul\":10831:10846   */\n      add\n        /* \"#utility.yul\":10823:10846   */\n      swap1\n      pop\n        /* \"#utility.yul\":10542:10853   */\n      swap2\n      swap1\n      pop\n      jump\t// out\n        /* \"#utility.yul\":10859:10976   */\n    tag_222:\n        /* \"#utility.yul\":10968:10969   */\n      0x00\n        /* \"#utility.yul\":10965:10966   */\n      0x00\n        /* \"#utility.yul\":10958:10970   */\n      revert\n        /* \"#utility.yul\":10999:11709   */\n    tag_223:\n        /* \"#utility.yul\":11095:11100   */\n      0x00\n        /* \"#utility.yul\":11120:11201   */\n      tag_372\n        /* \"#utility.yul\":11136:11200   */\n      tag_373\n        /* \"#utility.yul\":11193:11199   */\n      dup5\n        /* \"#utility.yul\":11136:11200   */\n      tag_221\n      jump\t// in\n    tag_373:\n        /* \"#utility.yul\":11120:11201   */\n      tag_220\n      jump\t// in\n    tag_372:\n        /* \"#utility.yul\":11111:11201   */\n      swap1\n      pop\n        /* \"#utility.yul\":11221:11226   */\n      dup1\n        /* \"#utility.yul\":11250:11256   */\n      dup4\n        /* \"#utility.yul\":11243:11248   */\n      dup3\n        /* \"#utility.yul\":11236:11257   */\n      mstore\n        /* \"#utility.yul\":11284:11288   */\n      0x20\n        /* \"#utility.yul\":11277:11282   */\n      dup3\n        /* \"#utility.yul\":11273:11289   */\n      add\n        /* \"#utility.yul\":11266:11289   */\n      swap1\n      pop\n        /* \"#utility.yul\":11337:11341   */\n      0x20\n        /* \"#utility.yul\":11329:11335   */\n      dup5\n        /* \"#utility.yul\":11325:11342   */\n      mul\n        /* \"#utility.yul\":11317:11323   */\n      dup4\n        /* \"#utility.yul\":11313:11343   */\n      add\n        /* \"#utility.yul\":11366:11369   */\n      dup6\n        /* \"#utility.yul\":11358:11364   */\n      dup2\n        /* \"#utility.yul\":11355:11370   */\n      gt\n        /* \"#utility.yul\":11352:11474   */\n      iszero\n      tag_374\n      jumpi\n        /* \"#utility.yul\":11385:11464   */\n      tag_375\n      tag_222\n      jump\t// in\n    tag_375:\n        /* \"#utility.yul\":11352:11474   */\n    tag_374:\n        /* \"#utility.yul\":11500:11506   */\n      dup4\n        /* \"#utility.yul\":11483:11703   */\n    tag_376:\n        /* \"#utility.yul\":11517:11523   */\n      dup2\n        /* \"#utility.yul\":11512:11515   */\n      dup2\n        /* \"#utility.yul\":11509:11524   */\n      lt\n        /* \"#utility.yul\":11483:11703   */\n      iszero\n      tag_378\n      jumpi\n        /* \"#utility.yul\":11592:11595   */\n      dup1\n        /* \"#utility.yul\":11621:11658   */\n      tag_379\n        /* \"#utility.yul\":11654:11657   */\n      dup9\n        /* \"#utility.yul\":11642:11652   */\n      dup3\n        /* \"#utility.yul\":11621:11658   */\n      tag_193\n      jump\t// in\n    tag_379:\n        /* \"#utility.yul\":11616:11619   */\n      dup5\n        /* \"#utility.yul\":11609:11659   */\n      mstore\n        /* \"#utility.yul\":11688:11692   */\n      0x20\n        /* \"#utility.yul\":11683:11686   */\n      dup5\n        /* \"#utility.yul\":11679:11693   */\n      add\n        /* \"#utility.yul\":11672:11693   */\n      swap4\n      pop\n        /* \"#utility.yul\":11559:11703   */\n      pop\n        /* \"#utility.yul\":11543:11547   */\n      0x20\n        /* \"#utility.yul\":11538:11541   */\n      dup2\n        /* \"#utility.yul\":11534:11548   */\n      add\n        /* \"#utility.yul\":11527:11548   */\n      swap1\n      pop\n        /* \"#utility.yul\":11483:11703   */\n      jump(tag_376)\n    tag_378:\n        /* \"#utility.yul\":11487:11508   */\n      pop\n        /* \"#utility.yul\":11101:11709   */\n      pop\n      pop\n        /* \"#utility.yul\":10999:11709   */\n      swap4\n      swap3\n      pop\n      pop\n      pop\n      jump\t// out\n        /* \"#utility.yul\":11732:12102   */\n    tag_224:\n        /* \"#utility.yul\":11803:11808   */\n      0x00\n        /* \"#utility.yul\":11852:11855   */\n      dup3\n        /* \"#utility.yul\":11845:11849   */\n      0x1f\n        /* \"#utility.yul\":11837:11843   */\n      dup4\n        /* \"#utility.yul\":11833:11850   */\n      add\n        /* \"#utility.yul\":11829:11856   */\n      slt\n        /* \"#utility.yul\":11819:11941   */\n      tag_381\n      jumpi\n        /* \"#utility.yul\":11860:11939   */\n      tag_382\n      tag_217\n      jump\t// in\n    tag_382:\n        /* \"#utility.yul\":11819:11941   */\n    tag_381:\n        /* \"#utility.yul\":11977:11983   */\n      dup2\n        /* \"#utility.yul\":11964:11984   */\n      calldataload\n        /* \"#utility.yul\":12002:12096   */\n      tag_383\n        /* \"#utility.yul\":12092:12095   */\n      dup5\n        /* \"#utility.yul\":12084:12090   */\n      dup3\n        /* \"#utility.yul\":12077:12081   */\n      0x20\n        /* \"#utility.yul\":12069:12075   */\n      dup7\n        /* \"#utility.yul\":12065:12082   */\n      add\n        /* \"#utility.yul\":12002:12096   */\n      tag_223\n      jump\t// in\n    tag_383:\n        /* \"#utility.yul\":11993:12096   */\n      swap2\n      pop\n        /* \"#utility.yul\":11809:12102   */\n      pop\n        /* \"#utility.yul\":11732:12102   */\n      swap3\n      swap2\n      pop\n      pop\n      jump\t// out\n        /* \"#utility.yul\":12108:12647   */\n    tag_48:\n        /* \"#utility.yul\":12192:12198   */\n      0x00\n        /* \"#utility.yul\":12241:12243   */\n      0x20\n        /* \"#utility.yul\":12229:12238   */\n      dup3\n        /* \"#utility.yul\":12220:12227   */\n      dup5\n        /* \"#utility.yul\":12216:12239   */\n      sub\n        /* \"#utility.yul\":12212:12244   */\n      slt\n        /* \"#utility.yul\":12209:12328   */\n      iszero\n      tag_385\n      jumpi\n        /* \"#utility.yul\":12247:12326   */\n      tag_386\n      tag_185\n      jump\t// in\n    tag_386:\n        /* \"#utility.yul\":12209:12328   */\n    tag_385:\n        /* \"#utility.yul\":12395:12396   */\n      0x00\n        /* \"#utility.yul\":12384:12393   */\n      dup3\n        /* \"#utility.yul\":12380:12397   */\n      add\n        /* \"#utility.yul\":12367:12398   */\n      calldataload\n        /* \"#utility.yul\":12425:12443   */\n      0xffffffffffffffff\n        /* \"#utility.yul\":12417:12423   */\n      dup2\n        /* \"#utility.yul\":12414:12444   */\n      gt\n        /* \"#utility.yul\":12411:12528   */\n      iszero\n      tag_387\n      jumpi\n        /* \"#utility.yul\":12447:12526   */\n      tag_388\n      tag_186\n      jump\t// in\n    tag_388:\n        /* \"#utility.yul\":12411:12528   */\n    tag_387:\n        /* \"#utility.yul\":12552:12630   */\n      tag_389\n        /* \"#utility.yul\":12622:12629   */\n      dup5\n        /* \"#utility.yul\":12613:12619   */\n      dup3\n        /* \"#utility.yul\":12602:12611   */\n      dup6\n        /* \"#utility.yul\":12598:12620   */\n      add\n        /* \"#utility.yul\":12552:12630   */\n      tag_224\n      jump\t// in\n    tag_389:\n        /* \"#utility.yul\":12542:12630   */\n      swap2\n      pop\n        /* \"#utility.yul\":12338:12640   */\n      pop\n        /* \"#utility.yul\":12108:12647   */\n      swap3\n      swap2\n      pop\n      pop\n      jump\t// out\n        /* \"#utility.yul\":12653:12822   */\n    tag_225:\n        /* \"#utility.yul\":12737:12748   */\n      0x00\n        /* \"#utility.yul\":12771:12777   */\n      dup3\n        /* \"#utility.yul\":12766:12769   */\n      dup3\n        /* \"#utility.yul\":12759:12778   */\n      mstore\n        /* \"#utility.yul\":12811:12815   */\n      0x20\n        /* \"#utility.yul\":12806:12809   */\n      dup3\n        /* \"#utility.yul\":12802:12816   */\n      add\n        /* \"#utility.yul\":12787:12816   */\n      swap1\n      pop\n        /* \"#utility.yul\":12653:12822   */\n      swap3\n      swap2\n      pop\n      pop\n      jump\t// out\n        /* \"#utility.yul\":12828:13000   */\n    tag_226:\n        /* \"#utility.yul\":12968:12992   */\n      0x4f6e6c7920746865206f776e65722063616e2075736500000000000000000000\n        /* \"#utility.yul\":12964:12965   */\n      0x00\n        /* \"#utility.yul\":12956:12962   */\n      dup3\n        /* \"#utility.yul\":12952:12966   */\n      add\n        /* \"#utility.yul\":12945:12993   */\n      mstore\n        /* \"#utility.yul\":12828:13000   */\n      pop\n      jump\t// out\n        /* \"#utility.yul\":13006:13372   */\n    tag_227:\n        /* \"#utility.yul\":13148:13151   */\n      0x00\n        /* \"#utility.yul\":13169:13236   */\n      tag_393\n        /* \"#utility.yul\":13233:13235   */\n      0x16\n        /* \"#utility.yul\":13228:13231   */\n      dup4\n        /* \"#utility.yul\":13169:13236   */\n      tag_225\n      jump\t// in\n    tag_393:\n        /* \"#utility.yul\":13162:13236   */\n      swap2\n      pop\n        /* \"#utility.yul\":13245:13338   */\n      tag_394\n        /* \"#utility.yul\":13334:13337   */\n      dup3\n        /* \"#utility.yul\":13245:13338   */\n      tag_226\n      jump\t// in\n    tag_394:\n        /* \"#utility.yul\":13363:13365   */\n      0x20\n        /* \"#utility.yul\":13358:13361   */\n      dup3\n        /* \"#utility.yul\":13354:13366   */\n      add\n        /* \"#utility.yul\":13347:13366   */\n      swap1\n      pop\n        /* \"#utility.yul\":13006:13372   */\n      swap2\n      swap1\n      pop\n      jump\t// out\n        /* \"#utility.yul\":13378:13797   */\n    tag_56:\n        /* \"#utility.yul\":13544:13548   */\n      0x00\n        /* \"#utility.yul\":13582:13584   */\n      0x20\n        /* \"#utility.yul\":13571:13580   */\n      dup3\n        /* \"#utility.yul\":13567:13585   */\n      add\n        /* \"#utility.yul\":13559:13585   */\n      swap1\n      pop\n        /* \"#utility.yul\":13631:13640   */\n      dup2\n        /* \"#utility.yul\":13625:13629   */\n      dup2\n        /* \"#utility.yul\":13621:13641   */\n      sub\n        /* \"#utility.yul\":13617:13618   */\n      0x00\n        /* \"#utility.yul\":13606:13615   */\n      dup4\n        /* \"#utility.yul\":13602:13619   */\n      add\n        /* \"#utility.yul\":13595:13642   */\n      mstore\n        /* \"#utility.yul\":13659:13790   */\n      tag_396\n        /* \"#utility.yul\":13785:13789   */\n      dup2\n        /* \"#utility.yul\":13659:13790   */\n      tag_227\n      jump\t// in\n    tag_396:\n        /* \"#utility.yul\":13651:13790   */\n      swap1\n      pop\n        /* \"#utility.yul\":13378:13797   */\n      swap2\n      swap1\n      pop\n      jump\t// out\n        /* \"#utility.yul\":13803:14040   */\n    tag_228:\n        /* \"#utility.yul\":13943:13977   */\n      0x7265717569726564206e756d626572206d757374203e3d2031206f72203c3d20\n        /* \"#utility.yul\":13939:13940   */\n      0x00\n        /* \"#utility.yul\":13931:13937   */\n      dup3\n        /* \"#utility.yul\":13927:13941   */\n      add\n        /* \"#utility.yul\":13920:13978   */\n      mstore\n        /* \"#utility.yul\":14012:14032   */\n      0x636f6e74726f6c6c6572206d656d6265722e0000000000000000000000000000\n        /* \"#utility.yul\":14007:14009   */\n      0x20\n        /* \"#utility.yul\":13999:14005   */\n      dup3\n        /* \"#utility.yul\":13995:14010   */\n      add\n        /* \"#utility.yul\":13988:14033   */\n      mstore\n        /* \"#utility.yul\":13803:14040   */\n      pop\n      jump\t// out\n        /* \"#utility.yul\":14046:14412   */\n    tag_229:\n        /* \"#utility.yul\":14188:14191   */\n      0x00\n        /* \"#utility.yul\":14209:14276   */\n      tag_399\n        /* \"#utility.yul\":14273:14275   */\n      0x32\n        /* \"#utility.yul\":14268:14271   */\n      dup4\n        /* \"#utility.yul\":14209:14276   */\n      tag_225\n      jump\t// in\n    tag_399:\n        /* \"#utility.yul\":14202:14276   */\n      swap2\n      pop\n        /* \"#utility.yul\":14285:14378   */\n      tag_400\n        /* \"#utility.yul\":14374:14377   */\n      dup3\n        /* \"#utility.yul\":14285:14378   */\n      tag_228\n      jump\t// in\n    tag_400:\n        /* \"#utility.yul\":14403:14405   */\n      0x40\n        /* \"#utility.yul\":14398:14401   */\n      dup3\n        /* \"#utility.yul\":14394:14406   */\n      add\n        /* \"#utility.yul\":14387:14406   */\n      swap1\n      pop\n        /* \"#utility.yul\":14046:14412   */\n      swap2\n      swap1\n      pop\n      jump\t// out\n        /* \"#utility.yul\":14418:14837   */\n    tag_61:\n        /* \"#utility.yul\":14584:14588   */\n      0x00\n        /* \"#utility.yul\":14622:14624   */\n      0x20\n        /* \"#utility.yul\":14611:14620   */\n      dup3\n        /* \"#utility.yul\":14607:14625   */\n      add\n        /* \"#utility.yul\":14599:14625   */\n      swap1\n      pop\n        /* \"#utility.yul\":14671:14680   */\n      dup2\n        /* \"#utility.yul\":14665:14669   */\n      dup2\n        /* \"#utility.yul\":14661:14681   */\n      sub\n        /* \"#utility.yul\":14657:14658   */\n      0x00\n        /* \"#utility.yul\":14646:14655   */\n      dup4\n        /* \"#utility.yul\":14642:14659   */\n      add\n        /* \"#utility.yul\":14635:14682   */\n      mstore\n        /* \"#utility.yul\":14699:14830   */\n      tag_402\n        /* \"#utility.yul\":14825:14829   */\n      dup2\n        /* \"#utility.yul\":14699:14830   */\n      tag_229\n      jump\t// in\n    tag_402:\n        /* \"#utility.yul\":14691:14830   */\n      swap1\n      pop\n        /* \"#utility.yul\":14418:14837   */\n      swap2\n      swap1\n      pop\n      jump\t// out\n        /* \"#utility.yul\":14843:15023   */\n    tag_230:\n        /* \"#utility.yul\":14983:15015   */\n      0x4f6e6c79207468652061646d696e6973747261746f722063616e207573650000\n        /* \"#utility.yul\":14979:14980   */\n      0x00\n        /* \"#utility.yul\":14971:14977   */\n      dup3\n        /* \"#utility.yul\":14967:14981   */\n      add\n        /* \"#utility.yul\":14960:15016   */\n      mstore\n        /* \"#utility.yul\":14843:15023   */\n      pop\n      jump\t// out\n        /* \"#utility.yul\":15029:15395   */\n    tag_231:\n        /* \"#utility.yul\":15171:15174   */\n      0x00\n        /* \"#utility.yul\":15192:15259   */\n      tag_405\n        /* \"#utility.yul\":15256:15258   */\n      0x1e\n        /* \"#utility.yul\":15251:15254   */\n      dup4\n        /* \"#utility.yul\":15192:15259   */\n      tag_225\n      jump\t// in\n    tag_405:\n        /* \"#utility.yul\":15185:15259   */\n      swap2\n      pop\n        /* \"#utility.yul\":15268:15361   */\n      tag_406\n        /* \"#utility.yul\":15357:15360   */\n      dup3\n        /* \"#utility.yul\":15268:15361   */\n      tag_230\n      jump\t// in\n    tag_406:\n        /* \"#utility.yul\":15386:15388   */\n      0x20\n        /* \"#utility.yul\":15381:15384   */\n      dup3\n        /* \"#utility.yul\":15377:15389   */\n      add\n        /* \"#utility.yul\":15370:15389   */\n      swap1\n      pop\n        /* \"#utility.yul\":15029:15395   */\n      swap2\n      swap1\n      pop\n      jump\t// out\n        /* \"#utility.yul\":15401:15820   */\n    tag_69:\n        /* \"#utility.yul\":15567:15571   */\n      0x00\n        /* \"#utility.yul\":15605:15607   */\n      0x20\n        /* \"#utility.yul\":15594:15603   */\n      dup3\n        /* \"#utility.yul\":15590:15608   */\n      add\n        /* \"#utility.yul\":15582:15608   */\n      swap1\n      pop\n        /* \"#utility.yul\":15654:15663   */\n      dup2\n        /* \"#utility.yul\":15648:15652   */\n      dup2\n        /* \"#utility.yul\":15644:15664   */\n      sub\n        /* \"#utility.yul\":15640:15641   */\n      0x00\n        /* \"#utility.yul\":15629:15638   */\n      dup4\n        /* \"#utility.yul\":15625:15642   */\n      add\n        /* \"#utility.yul\":15618:15665   */\n      mstore\n        /* \"#utility.yul\":15682:15813   */\n      tag_408\n        /* \"#utility.yul\":15808:15812   */\n      dup2\n        /* \"#utility.yul\":15682:15813   */\n      tag_231\n      jump\t// in\n    tag_408:\n        /* \"#utility.yul\":15674:15813   */\n      swap1\n      pop\n        /* \"#utility.yul\":15401:15820   */\n      swap2\n      swap1\n      pop\n      jump\t// out\n        /* \"#utility.yul\":15826:16006   */\n    tag_232:\n        /* \"#utility.yul\":15874:15951   */\n      0x4e487b7100000000000000000000000000000000000000000000000000000000\n        /* \"#utility.yul\":15871:15872   */\n      0x00\n        /* \"#utility.yul\":15864:15952   */\n      mstore\n        /* \"#utility.yul\":15971:15975   */\n      0x22\n        /* \"#utility.yul\":15968:15969   */\n      0x04\n        /* \"#utility.yul\":15961:15976   */\n      mstore\n        /* \"#utility.yul\":15995:15999   */\n      0x24\n        /* \"#utility.yul\":15992:15993   */\n      0x00\n        /* \"#utility.yul\":15985:16000   */\n      revert\n        /* \"#utility.yul\":16012:16332   */\n    tag_82:\n        /* \"#utility.yul\":16056:16062   */\n      0x00\n        /* \"#utility.yul\":16093:16094   */\n      0x02\n        /* \"#utility.yul\":16087:16091   */\n      dup3\n        /* \"#utility.yul\":16083:16095   */\n      div\n        /* \"#utility.yul\":16073:16095   */\n      swap1\n      pop\n        /* \"#utility.yul\":16140:16141   */\n      0x01\n        /* \"#utility.yul\":16134:16138   */\n      dup3\n        /* \"#utility.yul\":16130:16142   */\n      and\n        /* \"#utility.yul\":16161:16179   */\n      dup1\n        /* \"#utility.yul\":16151:16232   */\n      tag_411\n      jumpi\n        /* \"#utility.yul\":16217:16221   */\n      0x7f\n        /* \"#utility.yul\":16209:16215   */\n      dup3\n        /* \"#utility.yul\":16205:16222   */\n      and\n        /* \"#utility.yul\":16195:16222   */\n      swap2\n      pop\n        /* \"#utility.yul\":16151:16232   */\n    tag_411:\n        /* \"#utility.yul\":16279:16281   */\n      0x20\n        /* \"#utility.yul\":16271:16277   */\n      dup3\n        /* \"#utility.yul\":16268:16282   */\n      lt\n        /* \"#utility.yul\":16248:16266   */\n      dup2\n        /* \"#utility.yul\":16245:16283   */\n      sub\n        /* \"#utility.yul\":16242:16326   */\n      tag_412\n      jumpi\n        /* \"#utility.yul\":16298:16316   */\n      tag_413\n      tag_232\n      jump\t// in\n    tag_413:\n        /* \"#utility.yul\":16242:16326   */\n    tag_412:\n        /* \"#utility.yul\":16063:16332   */\n      pop\n        /* \"#utility.yul\":16012:16332   */\n      swap2\n      swap1\n      pop\n      jump\t// out\n        /* \"#utility.yul\":16338:16518   */\n    tag_104:\n        /* \"#utility.yul\":16386:16463   */\n      0x4e487b7100000000000000000000000000000000000000000000000000000000\n        /* \"#utility.yul\":16383:16384   */\n      0x00\n        /* \"#utility.yul\":16376:16464   */\n      mstore\n        /* \"#utility.yul\":16483:16487   */\n      0x32\n        /* \"#utility.yul\":16480:16481   */\n      0x04\n        /* \"#utility.yul\":16473:16488   */\n      mstore\n        /* \"#utility.yul\":16507:16511   */\n      0x24\n        /* \"#utility.yul\":16504:16505   */\n      0x00\n        /* \"#utility.yul\":16497:16512   */\n      revert\n        /* \"#utility.yul\":16524:16704   */\n    tag_233:\n        /* \"#utility.yul\":16572:16649   */\n      0x4e487b7100000000000000000000000000000000000000000000000000000000\n        /* \"#utility.yul\":16569:16570   */\n      0x00\n        /* \"#utility.yul\":16562:16650   */\n      mstore\n        /* \"#utility.yul\":16669:16673   */\n      0x11\n        /* \"#utility.yul\":16666:16667   */\n      0x04\n        /* \"#utility.yul\":16659:16674   */\n      mstore\n        /* \"#utility.yul\":16693:16697   */\n      0x24\n        /* \"#utility.yul\":16690:16691   */\n      0x00\n        /* \"#utility.yul\":16683:16698   */\n      revert\n        /* \"#utility.yul\":16710:16796   */\n    tag_234:\n        /* \"#utility.yul\":16745:16752   */\n      0x00\n        /* \"#utility.yul\":16785:16789   */\n      0xff\n        /* \"#utility.yul\":16778:16783   */\n      dup3\n        /* \"#utility.yul\":16774:16790   */\n      and\n        /* \"#utility.yul\":16763:16790   */\n      swap1\n      pop\n        /* \"#utility.yul\":16710:16796   */\n      swap2\n      swap1\n      pop\n      jump\t// out\n        /* \"#utility.yul\":16802:16969   */\n    tag_107:\n        /* \"#utility.yul\":16839:16842   */\n      0x00\n        /* \"#utility.yul\":16862:16884   */\n      tag_418\n        /* \"#utility.yul\":16878:16883   */\n      dup3\n        /* \"#utility.yul\":16862:16884   */\n      tag_234\n      jump\t// in\n    tag_418:\n        /* \"#utility.yul\":16853:16884   */\n      swap2\n      pop\n        /* \"#utility.yul\":16906:16910   */\n      0xff\n        /* \"#utility.yul\":16899:16904   */\n      dup3\n        /* \"#utility.yul\":16896:16911   */\n      sub\n        /* \"#utility.yul\":16893:16934   */\n      tag_419\n      jumpi\n        /* \"#utility.yul\":16914:16932   */\n      tag_420\n      tag_233\n      jump\t// in\n    tag_420:\n        /* \"#utility.yul\":16893:16934   */\n    tag_419:\n        /* \"#utility.yul\":16961:16962   */\n      0x01\n        /* \"#utility.yul\":16954:16959   */\n      dup3\n        /* \"#utility.yul\":16950:16963   */\n      add\n        /* \"#utility.yul\":16943:16963   */\n      swap1\n      pop\n        /* \"#utility.yul\":16802:16969   */\n      swap2\n      swap1\n      pop\n      jump\t// out\n        /* \"#utility.yul\":16975:17150   */\n    tag_235:\n        /* \"#utility.yul\":17115:17142   */\n      0x496e76616c6964207472616e73616374696f6e20696e64657800000000000000\n        /* \"#utility.yul\":17111:17112   */\n      0x00\n        /* \"#utility.yul\":17103:17109   */\n      dup3\n        /* \"#utility.yul\":17099:17113   */\n      add\n        /* \"#utility.yul\":17092:17143   */\n      mstore\n        /* \"#utility.yul\":16975:17150   */\n      pop\n      jump\t// out\n        /* \"#utility.yul\":17156:17522   */\n    tag_236:\n        /* \"#utility.yul\":17298:17301   */\n      0x00\n        /* \"#utility.yul\":17319:17386   */\n      tag_423\n        /* \"#utility.yul\":17383:17385   */\n      0x19\n        /* \"#utility.yul\":17378:17381   */\n      dup4\n        /* \"#utility.yul\":17319:17386   */\n      tag_225\n      jump\t// in\n    tag_423:\n        /* \"#utility.yul\":17312:17386   */\n      swap2\n      pop\n        /* \"#utility.yul\":17395:17488   */\n      tag_424\n        /* \"#utility.yul\":17484:17487   */\n      dup3\n        /* \"#utility.yul\":17395:17488   */\n      tag_235\n      jump\t// in\n    tag_424:\n        /* \"#utility.yul\":17513:17515   */\n      0x20\n        /* \"#utility.yul\":17508:17511   */\n      dup3\n        /* \"#utility.yul\":17504:17516   */\n      add\n        /* \"#utility.yul\":17497:17516   */\n      swap1\n      pop\n        /* \"#utility.yul\":17156:17522   */\n      swap2\n      swap1\n      pop\n      jump\t// out\n        /* \"#utility.yul\":17528:17947   */\n    tag_131:\n        /* \"#utility.yul\":17694:17698   */\n      0x00\n        /* \"#utility.yul\":17732:17734   */\n      0x20\n        /* \"#utility.yul\":17721:17730   */\n      dup3\n        /* \"#utility.yul\":17717:17735   */\n      add\n        /* \"#utility.yul\":17709:17735   */\n      swap1\n      pop\n        /* \"#utility.yul\":17781:17790   */\n      dup2\n        /* \"#utility.yul\":17775:17779   */\n      dup2\n        /* \"#utility.yul\":17771:17791   */\n      sub\n        /* \"#utility.yul\":17767:17768   */\n      0x00\n        /* \"#utility.yul\":17756:17765   */\n      dup4\n        /* \"#utility.yul\":17752:17769   */\n      add\n        /* \"#utility.yul\":17745:17792   */\n      mstore\n        /* \"#utility.yul\":17809:17940   */\n      tag_426\n        /* \"#utility.yul\":17935:17939   */\n      dup2\n        /* \"#utility.yul\":17809:17940   */\n      tag_236\n      jump\t// in\n    tag_426:\n        /* \"#utility.yul\":17801:17940   */\n      swap1\n      pop\n        /* \"#utility.yul\":17528:17947   */\n      swap2\n      swap1\n      pop\n      jump\t// out\n        /* \"#utility.yul\":17953:18127   */\n    tag_237:\n        /* \"#utility.yul\":18093:18119   */\n      0x5472616e73616374696f6e206e6f742065786563757465640000000000000000\n        /* \"#utility.yul\":18089:18090   */\n      0x00\n        /* \"#utility.yul\":18081:18087   */\n      dup3\n        /* \"#utility.yul\":18077:18091   */\n      add\n        /* \"#utility.yul\":18070:18120   */\n      mstore\n        /* \"#utility.yul\":17953:18127   */\n      pop\n      jump\t// out\n        /* \"#utility.yul\":18133:18499   */\n    tag_238:\n        /* \"#utility.yul\":18275:18278   */\n      0x00\n        /* \"#utility.yul\":18296:18363   */\n      tag_429\n        /* \"#utility.yul\":18360:18362   */\n      0x18\n        /* \"#utility.yul\":18355:18358   */\n      dup4\n        /* \"#utility.yul\":18296:18363   */\n      tag_225\n      jump\t// in\n    tag_429:\n        /* \"#utility.yul\":18289:18363   */\n      swap2\n      pop\n        /* \"#utility.yul\":18372:18465   */\n      tag_430\n        /* \"#utility.yul\":18461:18464   */\n      dup3\n        /* \"#utility.yul\":18372:18465   */\n      tag_237\n      jump\t// in\n    tag_430:\n        /* \"#utility.yul\":18490:18492   */\n      0x20\n        /* \"#utility.yul\":18485:18488   */\n      dup3\n        /* \"#utility.yul\":18481:18493   */\n      add\n        /* \"#utility.yul\":18474:18493   */\n      swap1\n      pop\n        /* \"#utility.yul\":18133:18499   */\n      swap2\n      swap1\n      pop\n      jump\t// out\n        /* \"#utility.yul\":18505:18924   */\n    tag_137:\n        /* \"#utility.yul\":18671:18675   */\n      0x00\n        /* \"#utility.yul\":18709:18711   */\n      0x20\n        /* \"#utility.yul\":18698:18707   */\n      dup3\n        /* \"#utility.yul\":18694:18712   */\n      add\n        /* \"#utility.yul\":18686:18712   */\n      swap1\n      pop\n        /* \"#utility.yul\":18758:18767   */\n      dup2\n        /* \"#utility.yul\":18752:18756   */\n      dup2\n        /* \"#utility.yul\":18748:18768   */\n      sub\n        /* \"#utility.yul\":18744:18745   */\n      0x00\n        /* \"#utility.yul\":18733:18742   */\n      dup4\n        /* \"#utility.yul\":18729:18746   */\n      add\n        /* \"#utility.yul\":18722:18769   */\n      mstore\n        /* \"#utility.yul\":18786:18917   */\n      tag_432\n        /* \"#utility.yul\":18912:18916   */\n      dup2\n        /* \"#utility.yul\":18786:18917   */\n      tag_238\n      jump\t// in\n    tag_432:\n        /* \"#utility.yul\":18778:18917   */\n      swap1\n      pop\n        /* \"#utility.yul\":18505:18924   */\n      swap2\n      swap1\n      pop\n      jump\t// out\n        /* \"#utility.yul\":18930:19105   */\n    tag_239:\n        /* \"#utility.yul\":19070:19097   */\n      0x5472616e73616374696f6e206e6f7420636f6e6669726d656400000000000000\n        /* \"#utility.yul\":19066:19067   */\n      0x00\n        /* \"#utility.yul\":19058:19064   */\n      dup3\n        /* \"#utility.yul\":19054:19068   */\n      add\n        /* \"#utility.yul\":19047:19098   */\n      mstore\n        /* \"#utility.yul\":18930:19105   */\n      pop\n      jump\t// out\n        /* \"#utility.yul\":19111:19477   */\n    tag_240:\n        /* \"#utility.yul\":19253:19256   */\n      0x00\n        /* \"#utility.yul\":19274:19341   */\n      tag_435\n        /* \"#utility.yul\":19338:19340   */\n      0x19\n        /* \"#utility.yul\":19333:19336   */\n      dup4\n        /* \"#utility.yul\":19274:19341   */\n      tag_225\n      jump\t// in\n    tag_435:\n        /* \"#utility.yul\":19267:19341   */\n      swap2\n      pop\n        /* \"#utility.yul\":19350:19443   */\n      tag_436\n        /* \"#utility.yul\":19439:19442   */\n      dup3\n        /* \"#utility.yul\":19350:19443   */\n      tag_239\n      jump\t// in\n    tag_436:\n        /* \"#utility.yul\":19468:19470   */\n      0x20\n        /* \"#utility.yul\":19463:19466   */\n      dup3\n        /* \"#utility.yul\":19459:19471   */\n      add\n        /* \"#utility.yul\":19452:19471   */\n      swap1\n      pop\n        /* \"#utility.yul\":19111:19477   */\n      swap2\n      swap1\n      pop\n      jump\t// out\n        /* \"#utility.yul\":19483:19902   */\n    tag_140:\n        /* \"#utility.yul\":19649:19653   */\n      0x00\n        /* \"#utility.yul\":19687:19689   */\n      0x20\n        /* \"#utility.yul\":19676:19685   */\n      dup3\n        /* \"#utility.yul\":19672:19690   */\n      add\n        /* \"#utility.yul\":19664:19690   */\n      swap1\n      pop\n        /* \"#utility.yul\":19736:19745   */\n      dup2\n        /* \"#utility.yul\":19730:19734   */\n      dup2\n        /* \"#utility.yul\":19726:19746   */\n      sub\n        /* \"#utility.yul\":19722:19723   */\n      0x00\n        /* \"#utility.yul\":19711:19720   */\n      dup4\n        /* \"#utility.yul\":19707:19724   */\n      add\n        /* \"#utility.yul\":19700:19747   */\n      mstore\n        /* \"#utility.yul\":19764:19895   */\n      tag_438\n        /* \"#utility.yul\":19890:19894   */\n      dup2\n        /* \"#utility.yul\":19764:19895   */\n      tag_240\n      jump\t// in\n    tag_438:\n        /* \"#utility.yul\":19756:19895   */\n      swap1\n      pop\n        /* \"#utility.yul\":19483:19902   */\n      swap2\n      swap1\n      pop\n      jump\t// out\n        /* \"#utility.yul\":19908:20079   */\n    tag_142:\n        /* \"#utility.yul\":19947:19950   */\n      0x00\n        /* \"#utility.yul\":19970:19994   */\n      tag_440\n        /* \"#utility.yul\":19988:19993   */\n      dup3\n        /* \"#utility.yul\":19970:19994   */\n      tag_187\n      jump\t// in\n    tag_440:\n        /* \"#utility.yul\":19961:19994   */\n      swap2\n      pop\n        /* \"#utility.yul\":20016:20020   */\n      0x00\n        /* \"#utility.yul\":20009:20014   */\n      dup3\n        /* \"#utility.yul\":20006:20021   */\n      sub\n        /* \"#utility.yul\":20003:20044   */\n      tag_441\n      jumpi\n        /* \"#utility.yul\":20024:20042   */\n      tag_442\n      tag_233\n      jump\t// in\n    tag_442:\n        /* \"#utility.yul\":20003:20044   */\n    tag_441:\n        /* \"#utility.yul\":20071:20072   */\n      0x01\n        /* \"#utility.yul\":20064:20069   */\n      dup3\n        /* \"#utility.yul\":20060:20073   */\n      sub\n        /* \"#utility.yul\":20053:20073   */\n      swap1\n      pop\n        /* \"#utility.yul\":19908:20079   */\n      swap2\n      swap1\n      pop\n      jump\t// out\n        /* \"#utility.yul\":20085:20225   */\n    tag_241:\n        /* \"#utility.yul\":20133:20137   */\n      0x00\n        /* \"#utility.yul\":20156:20159   */\n      dup2\n        /* \"#utility.yul\":20148:20159   */\n      swap1\n      pop\n        /* \"#utility.yul\":20179:20182   */\n      dup2\n        /* \"#utility.yul\":20176:20177   */\n      0x00\n        /* \"#utility.yul\":20169:20183   */\n      mstore\n        /* \"#utility.yul\":20213:20217   */\n      0x20\n        /* \"#utility.yul\":20210:20211   */\n      0x00\n        /* \"#utility.yul\":20200:20218   */\n      keccak256\n        /* \"#utility.yul\":20192:20218   */\n      swap1\n      pop\n        /* \"#utility.yul\":20085:20225   */\n      swap2\n      swap1\n      pop\n      jump\t// out\n        /* \"#utility.yul\":20231:20324   */\n    tag_242:\n        /* \"#utility.yul\":20268:20274   */\n      0x00\n        /* \"#utility.yul\":20315:20317   */\n      0x20\n        /* \"#utility.yul\":20310:20312   */\n      0x1f\n        /* \"#utility.yul\":20303:20308   */\n      dup4\n        /* \"#utility.yul\":20299:20313   */\n      add\n        /* \"#utility.yul\":20295:20318   */\n      div\n        /* \"#utility.yul\":20285:20318   */\n      swap1\n      pop\n        /* \"#utility.yul\":20231:20324   */\n      swap2\n      swap1\n      pop\n      jump\t// out\n        /* \"#utility.yul\":20330:20437   */\n    tag_243:\n        /* \"#utility.yul\":20374:20382   */\n      0x00\n        /* \"#utility.yul\":20424:20429   */\n      dup3\n        /* \"#utility.yul\":20418:20422   */\n      dup3\n        /* \"#utility.yul\":20414:20430   */\n      shl\n        /* \"#utility.yul\":20393:20430   */\n      swap1\n      pop\n        /* \"#utility.yul\":20330:20437   */\n      swap3\n      swap2\n      pop\n      pop\n      jump\t// out\n        /* \"#utility.yul\":20443:20836   */\n    tag_244:\n        /* \"#utility.yul\":20512:20518   */\n      0x00\n        /* \"#utility.yul\":20562:20563   */\n      0x08\n        /* \"#utility.yul\":20550:20560   */\n      dup4\n        /* \"#utility.yul\":20546:20564   */\n      mul\n        /* \"#utility.yul\":20585:20682   */\n      tag_447\n        /* \"#utility.yul\":20615:20681   */\n      0xffffffffffffffffffffffffffffffffffffffffffffffffffffffffffffffff\n        /* \"#utility.yul\":20604:20613   */\n      dup3\n        /* \"#utility.yul\":20585:20682   */\n      tag_243\n      jump\t// in\n    tag_447:\n        /* \"#utility.yul\":20703:20742   */\n      tag_448\n        /* \"#utility.yul\":20733:20741   */\n      dup7\n        /* \"#utility.yul\":20722:20731   */\n      dup4\n        /* \"#utility.yul\":20703:20742   */\n      tag_243\n      jump\t// in\n    tag_448:\n        /* \"#utility.yul\":20691:20742   */\n      swap6\n      pop\n        /* \"#utility.yul\":20775:20779   */\n      dup1\n        /* \"#utility.yul\":20771:20780   */\n      not\n        /* \"#utility.yul\":20764:20769   */\n      dup5\n        /* \"#utility.yul\":20760:20781   */\n      and\n        /* \"#utility.yul\":20751:20781   */\n      swap4\n      pop\n        /* \"#utility.yul\":20824:20828   */\n      dup1\n        /* \"#utility.yul\":20814:20822   */\n      dup7\n        /* \"#utility.yul\":20810:20829   */\n      and\n        /* \"#utility.yul\":20803:20808   */\n      dup5\n        /* \"#utility.yul\":20800:20830   */\n      or\n        /* \"#utility.yul\":20790:20830   */\n      swap3\n      pop\n        /* \"#utility.yul\":20519:20836   */\n      pop\n      pop\n        /* \"#utility.yul\":20443:20836   */\n      swap4\n      swap3\n      pop\n      pop\n      pop\n      jump\t// out\n        /* \"#utility.yul\":20842:20902   */\n    tag_245:\n        /* \"#utility.yul\":20870:20873   */\n      0x00\n        /* \"#utility.yul\":20891:20896   */\n      dup2\n        /* \"#utility.yul\":20884:20896   */\n      swap1\n      pop\n        /* \"#utility.yul\":20842:20902   */\n      swap2\n      swap1\n      pop\n      jump\t// out\n        /* \"#utility.yul\":20908:21050   */\n    tag_246:\n        /* \"#utility.yul\":20958:20967   */\n      0x00\n        /* \"#utility.yul\":20991:21044   */\n      tag_451\n        /* \"#utility.yul\":21009:21043   */\n      tag_452\n        /* \"#utility.yul\":21018:21042   */\n      tag_453\n        /* \"#utility.yul\":21036:21041   */\n      dup5\n        /* \"#utility.yul\":21018:21042   */\n      tag_187\n      jump\t// in\n    tag_453:\n        /* \"#utility.yul\":21009:21043   */\n      tag_245\n      jump\t// in\n    tag_452:\n        /* \"#utility.yul\":20991:21044   */\n      tag_187\n      jump\t// in\n    tag_451:\n        /* \"#utility.yul\":20978:21044   */\n      swap1\n      pop\n        /* \"#utility.yul\":20908:21050   */\n      swap2\n      swap1\n      pop\n      jump\t// out\n        /* \"#utility.yul\":21056:21131   */\n    tag_247:\n        /* \"#utility.yul\":21099:21102   */\n      0x00\n        /* \"#utility.yul\":21120:21125   */\n      dup2\n        /* \"#utility.yul\":21113:21125   */\n      swap1\n      pop\n        /* \"#utility.yul\":21056:21131   */\n      swap2\n      swap1\n      pop\n      jump\t// out\n        /* \"#utility.yul\":21137:21406   */\n    tag_248:\n        /* \"#utility.yul\":21247:21286   */\n      tag_456\n        /* \"#utility.yul\":21278:21285   */\n      dup4\n        /* \"#utility.yul\":21247:21286   */\n      tag_246\n      jump\t// in\n    tag_456:\n        /* \"#utility.yul\":21308:21399   */\n      tag_457\n        /* \"#utility.yul\":21357:21398   */\n      tag_458\n        /* \"#utility.yul\":21381:21397   */\n      dup3\n        /* \"#utility.yul\":21357:21398   */\n      tag_247\n      jump\t// in\n    tag_458:\n        /* \"#utility.yul\":21349:21355   */\n      dup5\n        /* \"#utility.yul\":21342:21346   */\n      dup5\n        /* \"#utility.yul\":21336:21347   */\n      sload\n        /* \"#utility.yul\":21308:21399   */\n      tag_244\n      jump\t// in\n    tag_457:\n        /* \"#utility.yul\":21302:21306   */\n      dup3\n        /* \"#utility.yul\":21295:21400   */\n      sstore\n        /* \"#utility.yul\":21213:21406   */\n      pop\n        /* \"#utility.yul\":21137:21406   */\n      pop\n      pop\n      pop\n      jump\t// out\n        /* \"#utility.yul\":21412:21485   */\n    tag_249:\n        /* \"#utility.yul\":21457:21460   */\n      0x00\n        /* \"#utility.yul\":21478:21479   */\n      0x00\n        /* \"#utility.yul\":21471:21479   */\n      swap1\n      pop\n        /* \"#utility.yul\":21412:21485   */\n      swap1\n      jump\t// out\n        /* \"#utility.yul\":21491:21680   */\n    tag_250:\n        /* \"#utility.yul\":21568:21600   */\n      tag_461\n      tag_249\n      jump\t// in\n    tag_461:\n        /* \"#utility.yul\":21609:21674   */\n      tag_462\n        /* \"#utility.yul\":21667:21673   */\n      dup2\n        /* \"#utility.yul\":21659:21665   */\n      dup5\n        /* \"#utility.yul\":21653:21657   */\n      dup5\n        /* \"#utility.yul\":21609:21674   */\n      tag_248\n      jump\t// in\n    tag_462:\n        /* \"#utility.yul\":21544:21680   */\n      pop\n        /* \"#utility.yul\":21491:21680   */\n      pop\n      pop\n      jump\t// out\n        /* \"#utility.yul\":21686:21872   */\n    tag_251:\n        /* \"#utility.yul\":21746:21866   */\n    tag_464:\n        /* \"#utility.yul\":21763:21766   */\n      dup2\n        /* \"#utility.yul\":21756:21761   */\n      dup2\n        /* \"#utility.yul\":21753:21767   */\n      lt\n        /* \"#utility.yul\":21746:21866   */\n      iszero\n      tag_466\n      jumpi\n        /* \"#utility.yul\":21817:21856   */\n      tag_467\n        /* \"#utility.yul\":21854:21855   */\n      0x00\n        /* \"#utility.yul\":21847:21852   */\n      dup3\n        /* \"#utility.yul\":21817:21856   */\n      tag_250\n      jump\t// in\n    tag_467:\n        /* \"#utility.yul\":21790:21791   */\n      0x01\n        /* \"#utility.yul\":21783:21788   */\n      dup2\n        /* \"#utility.yul\":21779:21792   */\n      add\n        /* \"#utility.yul\":21770:21792   */\n      swap1\n      pop\n        /* \"#utility.yul\":21746:21866   */\n      jump(tag_464)\n    tag_466:\n        /* \"#utility.yul\":21686:21872   */\n      pop\n      pop\n      jump\t// out\n        /* \"#utility.yul\":21878:22419   */\n    tag_252:\n        /* \"#utility.yul\":21978:21980   */\n      0x1f\n        /* \"#utility.yul\":21973:21976   */\n      dup3\n        /* \"#utility.yul\":21970:21981   */\n      gt\n        /* \"#utility.yul\":21967:22412   */\n      iszero\n      tag_469\n      jumpi\n        /* \"#utility.yul\":22012:22049   */\n      tag_470\n        /* \"#utility.yul\":22043:22048   */\n      dup2\n        /* \"#utility.yul\":22012:22049   */\n      tag_241\n      jump\t// in\n    tag_470:\n        /* \"#utility.yul\":22095:22124   */\n      tag_471\n        /* \"#utility.yul\":22113:22123   */\n      dup5\n        /* \"#utility.yul\":22095:22124   */\n      tag_242\n      jump\t// in\n    tag_471:\n        /* \"#utility.yul\":22085:22093   */\n      dup2\n        /* \"#utility.yul\":22081:22125   */\n      add\n        /* \"#utility.yul\":22278:22280   */\n      0x20\n        /* \"#utility.yul\":22266:22276   */\n      dup6\n        /* \"#utility.yul\":22263:22281   */\n      lt\n        /* \"#utility.yul\":22260:22309   */\n      iszero\n      tag_472\n      jumpi\n        /* \"#utility.yul\":22299:22307   */\n      dup2\n        /* \"#utility.yul\":22284:22307   */\n      swap1\n      pop\n        /* \"#utility.yul\":22260:22309   */\n    tag_472:\n        /* \"#utility.yul\":22322:22402   */\n      tag_473\n        /* \"#utility.yul\":22378:22400   */\n      tag_474\n        /* \"#utility.yul\":22396:22399   */\n      dup6\n        /* \"#utility.yul\":22378:22400   */\n      tag_242\n      jump\t// in\n    tag_474:\n        /* \"#utility.yul\":22368:22376   */\n      dup4\n        /* \"#utility.yul\":22364:22401   */\n      add\n        /* \"#utility.yul\":22351:22362   */\n      dup3\n        /* \"#utility.yul\":22322:22402   */\n      tag_251\n      jump\t// in\n    tag_473:\n        /* \"#utility.yul\":21982:22412   */\n      pop\n      pop\n        /* \"#utility.yul\":21967:22412   */\n    tag_469:\n        /* \"#utility.yul\":21878:22419   */\n      pop\n      pop\n      pop\n      jump\t// out\n        /* \"#utility.yul\":22425:22542   */\n    tag_253:\n        /* \"#utility.yul\":22479:22487   */\n      0x00\n        /* \"#utility.yul\":22529:22534   */\n      dup3\n        /* \"#utility.yul\":22523:22527   */\n      dup3\n        /* \"#utility.yul\":22519:22535   */\n      shr\n        /* \"#utility.yul\":22498:22535   */\n      swap1\n      pop\n        /* \"#utility.yul\":22425:22542   */\n      swap3\n      swap2\n      pop\n      pop\n      jump\t// out\n        /* \"#utility.yul\":22548:22717   */\n    tag_254:\n        /* \"#utility.yul\":22592:22598   */\n      0x00\n        /* \"#utility.yul\":22625:22676   */\n      tag_477\n        /* \"#utility.yul\":22673:22674   */\n      0x00\n        /* \"#utility.yul\":22669:22675   */\n      not\n        /* \"#utility.yul\":22661:22666   */\n      dup5\n        /* \"#utility.yul\":22658:22659   */\n      0x08\n        /* \"#utility.yul\":22654:22667   */\n      mul\n        /* \"#utility.yul\":22625:22676   */\n      tag_253\n      jump\t// in\n    tag_477:\n        /* \"#utility.yul\":22621:22677   */\n      not\n        /* \"#utility.yul\":22706:22710   */\n      dup1\n        /* \"#utility.yul\":22700:22704   */\n      dup4\n        /* \"#utility.yul\":22696:22711   */\n      and\n        /* \"#utility.yul\":22686:22711   */\n      swap2\n      pop\n        /* \"#utility.yul\":22599:22717   */\n      pop\n        /* \"#utility.yul\":22548:22717   */\n      swap3\n      swap2\n      pop\n      pop\n      jump\t// out\n        /* \"#utility.yul\":22722:23017   */\n    tag_255:\n        /* \"#utility.yul\":22798:22802   */\n      0x00\n        /* \"#utility.yul\":22944:22973   */\n      tag_479\n        /* \"#utility.yul\":22969:22972   */\n      dup4\n        /* \"#utility.yul\":22963:22967   */\n      dup4\n        /* \"#utility.yul\":22944:22973   */\n      tag_254\n      jump\t// in\n    tag_479:\n        /* \"#utility.yul\":22936:22973   */\n      swap2\n      pop\n        /* \"#utility.yul\":23006:23009   */\n      dup3\n        /* \"#utility.yul\":23003:23004   */\n      0x02\n        /* \"#utility.yul\":22999:23010   */\n      mul\n        /* \"#utility.yul\":22993:22997   */\n      dup3\n        /* \"#utility.yul\":22990:23011   */\n      or\n        /* \"#utility.yul\":22982:23011   */\n      swap1\n      pop\n        /* \"#utility.yul\":22722:23017   */\n      swap3\n      swap2\n      pop\n      pop\n      jump\t// out\n        /* \"#utility.yul\":23022:24412   */\n    tag_146:\n        /* \"#utility.yul\":23137:23173   */\n      tag_481\n        /* \"#utility.yul\":23169:23172   */\n      dup3\n        /* \"#utility.yul\":23137:23173   */\n      tag_205\n      jump\t// in\n    tag_481:\n        /* \"#utility.yul\":23238:23256   */\n      0xffffffffffffffff\n        /* \"#utility.yul\":23230:23236   */\n      dup2\n        /* \"#utility.yul\":23227:23257   */\n      gt\n        /* \"#utility.yul\":23224:23280   */\n      iszero\n      tag_482\n      jumpi\n        /* \"#utility.yul\":23260:23278   */\n      tag_483\n      tag_218\n      jump\t// in\n    tag_483:\n        /* \"#utility.yul\":23224:23280   */\n    tag_482:\n        /* \"#utility.yul\":23304:23342   */\n      tag_484\n        /* \"#utility.yul\":23336:23340   */\n      dup3\n        /* \"#utility.yul\":23330:23341   */\n      sload\n        /* \"#utility.yul\":23304:23342   */\n      tag_82\n      jump\t// in\n    tag_484:\n        /* \"#utility.yul\":23389:23455   */\n      tag_485\n        /* \"#utility.yul\":23448:23454   */\n      dup3\n        /* \"#utility.yul\":23440:23446   */\n      dup3\n        /* \"#utility.yul\":23434:23438   */\n      dup6\n        /* \"#utility.yul\":23389:23455   */\n      tag_252\n      jump\t// in\n    tag_485:\n        /* \"#utility.yul\":23482:23483   */\n      0x00\n        /* \"#utility.yul\":23506:23510   */\n      0x20\n        /* \"#utility.yul\":23493:23510   */\n      swap1\n      pop\n        /* \"#utility.yul\":23538:23540   */\n      0x1f\n        /* \"#utility.yul\":23530:23536   */\n      dup4\n        /* \"#utility.yul\":23527:23541   */\n      gt\n        /* \"#utility.yul\":23555:23556   */\n      0x01\n        /* \"#utility.yul\":23550:24167   */\n      dup2\n      eq\n      tag_487\n      jumpi\n        /* \"#utility.yul\":24211:24212   */\n      0x00\n        /* \"#utility.yul\":24228:24234   */\n      dup5\n        /* \"#utility.yul\":24225:24302   */\n      iszero\n      tag_488\n      jumpi\n        /* \"#utility.yul\":24277:24286   */\n      dup3\n        /* \"#utility.yul\":24272:24275   */\n      dup8\n        /* \"#utility.yul\":24268:24287   */\n      add\n        /* \"#utility.yul\":24262:24288   */\n      mload\n        /* \"#utility.yul\":24253:24288   */\n      swap1\n      pop\n        /* \"#utility.yul\":24225:24302   */\n    tag_488:\n        /* \"#utility.yul\":24328:24395   */\n      tag_489\n        /* \"#utility.yul\":24388:24394   */\n      dup6\n        /* \"#utility.yul\":24381:24386   */\n      dup3\n        /* \"#utility.yul\":24328:24395   */\n      tag_255\n      jump\t// in\n    tag_489:\n        /* \"#utility.yul\":24322:24326   */\n      dup7\n        /* \"#utility.yul\":24315:24396   */\n      sstore\n        /* \"#utility.yul\":24184:24406   */\n      pop\n        /* \"#utility.yul\":23520:24406   */\n      jump(tag_486)\n        /* \"#utility.yul\":23550:24167   */\n    tag_487:\n        /* \"#utility.yul\":23602:23606   */\n      0x1f\n        /* \"#utility.yul\":23598:23607   */\n      not\n        /* \"#utility.yul\":23590:23596   */\n      dup5\n        /* \"#utility.yul\":23586:23608   */\n      and\n        /* \"#utility.yul\":23636:23672   */\n      tag_490\n        /* \"#utility.yul\":23667:23671   */\n      dup7\n        /* \"#utility.yul\":23636:23672   */\n      tag_241\n      jump\t// in\n    tag_490:\n        /* \"#utility.yul\":23694:23695   */\n      0x00\n        /* \"#utility.yul\":23708:23916   */\n    tag_491:\n        /* \"#utility.yul\":23722:23729   */\n      dup3\n        /* \"#utility.yul\":23719:23720   */\n      dup2\n        /* \"#utility.yul\":23716:23730   */\n      lt\n        /* \"#utility.yul\":23708:23916   */\n      iszero\n      tag_493\n      jumpi\n        /* \"#utility.yul\":23801:23810   */\n      dup5\n        /* \"#utility.yul\":23796:23799   */\n      dup10\n        /* \"#utility.yul\":23792:23811   */\n      add\n        /* \"#utility.yul\":23786:23812   */\n      mload\n        /* \"#utility.yul\":23778:23784   */\n      dup3\n        /* \"#utility.yul\":23771:23813   */\n      sstore\n        /* \"#utility.yul\":23852:23853   */\n      0x01\n        /* \"#utility.yul\":23844:23850   */\n      dup3\n        /* \"#utility.yul\":23840:23854   */\n      add\n        /* \"#utility.yul\":23830:23854   */\n      swap2\n      pop\n        /* \"#utility.yul\":23899:23901   */\n      0x20\n        /* \"#utility.yul\":23888:23897   */\n      dup6\n        /* \"#utility.yul\":23884:23902   */\n      add\n        /* \"#utility.yul\":23871:23902   */\n      swap5\n      pop\n        /* \"#utility.yul\":23745:23749   */\n      0x20\n        /* \"#utility.yul\":23742:23743   */\n      dup2\n        /* \"#utility.yul\":23738:23750   */\n      add\n        /* \"#utility.yul\":23733:23750   */\n      swap1\n      pop\n        /* \"#utility.yul\":23708:23916   */\n      jump(tag_491)\n    tag_493:\n        /* \"#utility.yul\":23944:23950   */\n      dup7\n        /* \"#utility.yul\":23935:23942   */\n      dup4\n        /* \"#utility.yul\":23932:23951   */\n      lt\n        /* \"#utility.yul\":23929:24108   */\n      iszero\n      tag_494\n      jumpi\n        /* \"#utility.yul\":24002:24011   */\n      dup5\n        /* \"#utility.yul\":23997:24000   */\n      dup10\n        /* \"#utility.yul\":23993:24012   */\n      add\n        /* \"#utility.yul\":23987:24013   */\n      mload\n        /* \"#utility.yul\":24045:24093   */\n      tag_495\n        /* \"#utility.yul\":24087:24091   */\n      0x1f\n        /* \"#utility.yul\":24079:24085   */\n      dup10\n        /* \"#utility.yul\":24075:24092   */\n      and\n        /* \"#utility.yul\":24064:24073   */\n      dup3\n        /* \"#utility.yul\":24045:24093   */\n      tag_254\n      jump\t// in\n    tag_495:\n        /* \"#utility.yul\":24037:24043   */\n      dup4\n        /* \"#utility.yul\":24030:24094   */\n      sstore\n        /* \"#utility.yul\":23952:24108   */\n      pop\n        /* \"#utility.yul\":23929:24108   */\n    tag_494:\n        /* \"#utility.yul\":24154:24155   */\n      0x01\n        /* \"#utility.yul\":24150:24151   */\n      0x02\n        /* \"#utility.yul\":24142:24148   */\n      dup9\n        /* \"#utility.yul\":24138:24152   */\n      mul\n        /* \"#utility.yul\":24134:24156   */\n      add\n        /* \"#utility.yul\":24128:24132   */\n      dup9\n        /* \"#utility.yul\":24121:24157   */\n      sstore\n        /* \"#utility.yul\":23557:24167   */\n      pop\n      pop\n      pop\n        /* \"#utility.yul\":23520:24406   */\n    tag_486:\n      pop\n        /* \"#utility.yul\":23112:24412   */\n      pop\n      pop\n      pop\n        /* \"#utility.yul\":23022:24412   */\n      pop\n      pop\n      jump\t// out\n        /* \"#utility.yul\":24418:24651   */\n    tag_148:\n        /* \"#utility.yul\":24457:24460   */\n      0x00\n        /* \"#utility.yul\":24480:24504   */\n      tag_497\n        /* \"#utility.yul\":24498:24503   */\n      dup3\n        /* \"#utility.yul\":24480:24504   */\n      tag_187\n      jump\t// in\n    tag_497:\n        /* \"#utility.yul\":24471:24504   */\n      swap2\n      pop\n        /* \"#utility.yul\":24526:24592   */\n      0xffffffffffffffffffffffffffffffffffffffffffffffffffffffffffffffff\n        /* \"#utility.yul\":24519:24524   */\n      dup3\n        /* \"#utility.yul\":24516:24593   */\n      sub\n        /* \"#utility.yul\":24513:24616   */\n      tag_498\n      jumpi\n        /* \"#utility.yul\":24596:24614   */\n      tag_499\n      tag_233\n      jump\t// in\n    tag_499:\n        /* \"#utility.yul\":24513:24616   */\n    tag_498:\n        /* \"#utility.yul\":24643:24644   */\n      0x01\n        /* \"#utility.yul\":24636:24641   */\n      dup3\n        /* \"#utility.yul\":24632:24645   */\n      add\n        /* \"#utility.yul\":24625:24645   */\n      swap1\n      pop\n        /* \"#utility.yul\":24418:24651   */\n      swap2\n      swap1\n      pop\n      jump\t// out\n        /* \"#utility.yul\":24657:24825   */\n    tag_256:\n        /* \"#utility.yul\":24740:24751   */\n      0x00\n        /* \"#utility.yul\":24774:24780   */\n      dup3\n        /* \"#utility.yul\":24769:24772   */\n      dup3\n        /* \"#utility.yul\":24762:24781   */\n      mstore\n        /* \"#utility.yul\":24814:24818   */\n      0x20\n        /* \"#utility.yul\":24809:24812   */\n      dup3\n        /* \"#utility.yul\":24805:24819   */\n      add\n        /* \"#utility.yul\":24790:24819   */\n      swap1\n      pop\n        /* \"#utility.yul\":24657:24825   */\n      swap3\n      swap2\n      pop\n      pop\n      jump\t// out\n        /* \"#utility.yul\":24831:25204   */\n    tag_257:\n        /* \"#utility.yul\":24917:24920   */\n      0x00\n        /* \"#utility.yul\":24945:24983   */\n      tag_502\n        /* \"#utility.yul\":24977:24982   */\n      dup3\n        /* \"#utility.yul\":24945:24983   */\n      tag_205\n      jump\t// in\n    tag_502:\n        /* \"#utility.yul\":24999:25069   */\n      tag_503\n        /* \"#utility.yul\":25062:25068   */\n      dup2\n        /* \"#utility.yul\":25057:25060   */\n      dup6\n        /* \"#utility.yul\":24999:25069   */\n      tag_256\n      jump\t// in\n    tag_503:\n        /* \"#utility.yul\":24992:25069   */\n      swap4\n      pop\n        /* \"#utility.yul\":25078:25143   */\n      tag_504\n        /* \"#utility.yul\":25136:25142   */\n      dup2\n        /* \"#utility.yul\":25131:25134   */\n      dup6\n        /* \"#utility.yul\":25124:25128   */\n      0x20\n        /* \"#utility.yul\":25117:25122   */\n      dup7\n        /* \"#utility.yul\":25113:25129   */\n      add\n        /* \"#utility.yul\":25078:25143   */\n      tag_207\n      jump\t// in\n    tag_504:\n        /* \"#utility.yul\":25168:25197   */\n      tag_505\n        /* \"#utility.yul\":25190:25196   */\n      dup2\n        /* \"#utility.yul\":25168:25197   */\n      tag_208\n      jump\t// in\n    tag_505:\n        /* \"#utility.yul\":25163:25166   */\n      dup5\n        /* \"#utility.yul\":25159:25198   */\n      add\n        /* \"#utility.yul\":25152:25198   */\n      swap2\n      pop\n        /* \"#utility.yul\":24921:25204   */\n      pop\n        /* \"#utility.yul\":24831:25204   */\n      swap3\n      swap2\n      pop\n      pop\n      jump\t// out\n        /* \"#utility.yul\":25210:25519   */\n    tag_150:\n        /* \"#utility.yul\":25321:25325   */\n      0x00\n        /* \"#utility.yul\":25359:25361   */\n      0x20\n        /* \"#utility.yul\":25348:25357   */\n      dup3\n        /* \"#utility.yul\":25344:25362   */\n      add\n        /* \"#utility.yul\":25336:25362   */\n      swap1\n      pop\n        /* \"#utility.yul\":25408:25417   */\n      dup2\n        /* \"#utility.yul\":25402:25406   */\n      dup2\n        /* \"#utility.yul\":25398:25418   */\n      sub\n        /* \"#utility.yul\":25394:25395   */\n      0x00\n        /* \"#utility.yul\":25383:25392   */\n      dup4\n        /* \"#utility.yul\":25379:25396   */\n      add\n        /* \"#utility.yul\":25372:25419   */\n      mstore\n        /* \"#utility.yul\":25436:25512   */\n      tag_507\n        /* \"#utility.yul\":25507:25511   */\n      dup2\n        /* \"#utility.yul\":25498:25504   */\n      dup5\n        /* \"#utility.yul\":25436:25512   */\n      tag_257\n      jump\t// in\n    tag_507:\n        /* \"#utility.yul\":25428:25512   */\n      swap1\n      pop\n        /* \"#utility.yul\":25210:25519   */\n      swap3\n      swap2\n      pop\n      pop\n      jump\t// out\n        /* \"#utility.yul\":25525:25704   */\n    tag_258:\n        /* \"#utility.yul\":25665:25696   */\n      0x5472616e73616374696f6e20616c726561647920636f6e6669726d6564000000\n        /* \"#utility.yul\":25661:25662   */\n      0x00\n        /* \"#utility.yul\":25653:25659   */\n      dup3\n        /* \"#utility.yul\":25649:25663   */\n      add\n        /* \"#utility.yul\":25642:25697   */\n      mstore\n        /* \"#utility.yul\":25525:25704   */\n      pop\n      jump\t// out\n        /* \"#utility.yul\":25710:26076   */\n    tag_259:\n        /* \"#utility.yul\":25852:25855   */\n      0x00\n        /* \"#utility.yul\":25873:25940   */\n      tag_510\n        /* \"#utility.yul\":25937:25939   */\n      0x1d\n        /* \"#utility.yul\":25932:25935   */\n      dup4\n        /* \"#utility.yul\":25873:25940   */\n      tag_225\n      jump\t// in\n    tag_510:\n        /* \"#utility.yul\":25866:25940   */\n      swap2\n      pop\n        /* \"#utility.yul\":25949:26042   */\n      tag_511\n        /* \"#utility.yul\":26038:26041   */\n      dup3\n        /* \"#utility.yul\":25949:26042   */\n      tag_258\n      jump\t// in\n    tag_511:\n        /* \"#utility.yul\":26067:26069   */\n      0x20\n        /* \"#utility.yul\":26062:26065   */\n      dup3\n        /* \"#utility.yul\":26058:26070   */\n      add\n        /* \"#utility.yul\":26051:26070   */\n      swap1\n      pop\n        /* \"#utility.yul\":25710:26076   */\n      swap2\n      swap1\n      pop\n      jump\t// out\n        /* \"#utility.yul\":26082:26501   */\n    tag_154:\n        /* \"#utility.yul\":26248:26252   */\n      0x00\n        /* \"#utility.yul\":26286:26288   */\n      0x20\n        /* \"#utility.yul\":26275:26284   */\n      dup3\n        /* \"#utility.yul\":26271:26289   */\n      add\n        /* \"#utility.yul\":26263:26289   */\n      swap1\n      pop\n        /* \"#utility.yul\":26335:26344   */\n      dup2\n        /* \"#utility.yul\":26329:26333   */\n      dup2\n        /* \"#utility.yul\":26325:26345   */\n      sub\n        /* \"#utility.yul\":26321:26322   */\n      0x00\n        /* \"#utility.yul\":26310:26319   */\n      dup4\n        /* \"#utility.yul\":26306:26323   */\n      add\n        /* \"#utility.yul\":26299:26346   */\n      mstore\n        /* \"#utility.yul\":26363:26494   */\n      tag_513\n        /* \"#utility.yul\":26489:26493   */\n      dup2\n        /* \"#utility.yul\":26363:26494   */\n      tag_259\n      jump\t// in\n    tag_513:\n        /* \"#utility.yul\":26355:26494   */\n      swap1\n      pop\n        /* \"#utility.yul\":26082:26501   */\n      swap2\n      swap1\n      pop\n      jump\t// out\n        /* \"#utility.yul\":26507:26685   */\n    tag_260:\n        /* \"#utility.yul\":26647:26677   */\n      0x5472616e73616374696f6e20616c726561647920657865637574656400000000\n        /* \"#utility.yul\":26643:26644   */\n      0x00\n        /* \"#utility.yul\":26635:26641   */\n      dup3\n        /* \"#utility.yul\":26631:26645   */\n      add\n        /* \"#utility.yul\":26624:26678   */\n      mstore\n        /* \"#utility.yul\":26507:26685   */\n      pop\n      jump\t// out\n        /* \"#utility.yul\":26691:27057   */\n    tag_261:\n        /* \"#utility.yul\":26833:26836   */\n      0x00\n        /* \"#utility.yul\":26854:26921   */\n      tag_516\n        /* \"#utility.yul\":26918:26920   */\n      0x1c\n        /* \"#utility.yul\":26913:26916   */\n      dup4\n        /* \"#utility.yul\":26854:26921   */\n      tag_225\n      jump\t// in\n    tag_516:\n        /* \"#utility.yul\":26847:26921   */\n      swap2\n      pop\n        /* \"#utility.yul\":26930:27023   */\n      tag_517\n        /* \"#utility.yul\":27019:27022   */\n      dup3\n        /* \"#utility.yul\":26930:27023   */\n      tag_260\n      jump\t// in\n    tag_517:\n        /* \"#utility.yul\":27048:27050   */\n      0x20\n        /* \"#utility.yul\":27043:27046   */\n      dup3\n        /* \"#utility.yul\":27039:27051   */\n      add\n        /* \"#utility.yul\":27032:27051   */\n      swap1\n      pop\n        /* \"#utility.yul\":26691:27057   */\n      swap2\n      swap1\n      pop\n      jump\t// out\n        /* \"#utility.yul\":27063:27482   */\n    tag_167:\n        /* \"#utility.yul\":27229:27233   */\n      0x00\n        /* \"#utility.yul\":27267:27269   */\n      0x20\n        /* \"#utility.yul\":27256:27265   */\n      dup3\n        /* \"#utility.yul\":27252:27270   */\n      add\n        /* \"#utility.yul\":27244:27270   */\n      swap1\n      pop\n        /* \"#utility.yul\":27316:27325   */\n      dup2\n        /* \"#utility.yul\":27310:27314   */\n      dup2\n        /* \"#utility.yul\":27306:27326   */\n      sub\n        /* \"#utility.yul\":27302:27303   */\n      0x00\n        /* \"#utility.yul\":27291:27300   */\n      dup4\n        /* \"#utility.yul\":27287:27304   */\n      add\n        /* \"#utility.yul\":27280:27327   */\n      mstore\n        /* \"#utility.yul\":27344:27475   */\n      tag_519\n        /* \"#utility.yul\":27470:27474   */\n      dup2\n        /* \"#utility.yul\":27344:27475   */\n      tag_261\n      jump\t// in\n    tag_519:\n        /* \"#utility.yul\":27336:27475   */\n      swap1\n      pop\n        /* \"#utility.yul\":27063:27482   */\n      swap2\n      swap1\n      pop\n      jump\t// out\n        /* \"#utility.yul\":27488:27635   */\n    tag_262:\n        /* \"#utility.yul\":27589:27600   */\n      0x00\n        /* \"#utility.yul\":27626:27629   */\n      dup2\n        /* \"#utility.yul\":27611:27629   */\n      swap1\n      pop\n        /* \"#utility.yul\":27488:27635   */\n      swap3\n      swap2\n      pop\n      pop\n      jump\t// out\n        /* \"#utility.yul\":27663:28533   */\n    tag_263:\n        /* \"#utility.yul\":27764:27767   */\n      0x00\n        /* \"#utility.yul\":27801:27806   */\n      dup2\n        /* \"#utility.yul\":27795:27807   */\n      sload\n        /* \"#utility.yul\":27830:27866   */\n      tag_522\n        /* \"#utility.yul\":27856:27865   */\n      dup2\n        /* \"#utility.yul\":27830:27866   */\n      tag_82\n      jump\t// in\n    tag_522:\n        /* \"#utility.yul\":27882:27970   */\n      tag_523\n        /* \"#utility.yul\":27963:27969   */\n      dup2\n        /* \"#utility.yul\":27958:27961   */\n      dup7\n        /* \"#utility.yul\":27882:27970   */\n      tag_262\n      jump\t// in\n    tag_523:\n        /* \"#utility.yul\":27875:27970   */\n      swap5\n      pop\n        /* \"#utility.yul\":28001:28002   */\n      0x01\n        /* \"#utility.yul\":27990:27999   */\n      dup3\n        /* \"#utility.yul\":27986:28003   */\n      and\n        /* \"#utility.yul\":28017:28018   */\n      0x00\n        /* \"#utility.yul\":28012:28178   */\n      dup2\n      eq\n      tag_525\n      jumpi\n        /* \"#utility.yul\":28192:28193   */\n      0x01\n        /* \"#utility.yul\":28187:28527   */\n      dup2\n      eq\n      tag_526\n      jumpi\n        /* \"#utility.yul\":27979:28527   */\n      jump(tag_524)\n        /* \"#utility.yul\":28012:28178   */\n    tag_525:\n        /* \"#utility.yul\":28096:28100   */\n      0xff\n        /* \"#utility.yul\":28092:28101   */\n      not\n        /* \"#utility.yul\":28081:28090   */\n      dup4\n        /* \"#utility.yul\":28077:28102   */\n      and\n        /* \"#utility.yul\":28072:28075   */\n      dup7\n        /* \"#utility.yul\":28065:28103   */\n      mstore\n        /* \"#utility.yul\":28158:28164   */\n      dup2\n        /* \"#utility.yul\":28151:28165   */\n      iszero\n        /* \"#utility.yul\":28144:28166   */\n      iszero\n        /* \"#utility.yul\":28136:28142   */\n      dup3\n        /* \"#utility.yul\":28132:28167   */\n      mul\n        /* \"#utility.yul\":28127:28130   */\n      dup7\n        /* \"#utility.yul\":28123:28168   */\n      add\n        /* \"#utility.yul\":28116:28168   */\n      swap4\n      pop\n        /* \"#utility.yul\":28012:28178   */\n      jump(tag_524)\n        /* \"#utility.yul\":28187:28527   */\n    tag_526:\n        /* \"#utility.yul\":28254:28291   */\n      tag_527\n        /* \"#utility.yul\":28285:28290   */\n      dup6\n        /* \"#utility.yul\":28254:28291   */\n      tag_241\n      jump\t// in\n    tag_527:\n        /* \"#utility.yul\":28313:28314   */\n      0x00\n        /* \"#utility.yul\":28327:28481   */\n    tag_528:\n        /* \"#utility.yul\":28341:28347   */\n      dup4\n        /* \"#utility.yul\":28338:28339   */\n      dup2\n        /* \"#utility.yul\":28335:28348   */\n      lt\n        /* \"#utility.yul\":28327:28481   */\n      iszero\n      tag_530\n      jumpi\n        /* \"#utility.yul\":28415:28422   */\n      dup2\n        /* \"#utility.yul\":28409:28423   */\n      sload\n        /* \"#utility.yul\":28405:28406   */\n      dup2\n        /* \"#utility.yul\":28400:28403   */\n      dup10\n        /* \"#utility.yul\":28396:28407   */\n      add\n        /* \"#utility.yul\":28389:28424   */\n      mstore\n        /* \"#utility.yul\":28465:28466   */\n      0x01\n        /* \"#utility.yul\":28456:28463   */\n      dup3\n        /* \"#utility.yul\":28452:28467   */\n      add\n        /* \"#utility.yul\":28441:28467   */\n      swap2\n      pop\n        /* \"#utility.yul\":28363:28367   */\n      0x20\n        /* \"#utility.yul\":28360:28361   */\n      dup2\n        /* \"#utility.yul\":28356:28368   */\n      add\n        /* \"#utility.yul\":28351:28368   */\n      swap1\n      pop\n        /* \"#utility.yul\":28327:28481   */\n      jump(tag_528)\n    tag_530:\n        /* \"#utility.yul\":28510:28516   */\n      dup4\n        /* \"#utility.yul\":28505:28508   */\n      dup9\n        /* \"#utility.yul\":28501:28517   */\n      add\n        /* \"#utility.yul\":28494:28517   */\n      swap6\n      pop\n        /* \"#utility.yul\":28194:28527   */\n      pop\n      pop\n        /* \"#utility.yul\":27979:28527   */\n    tag_524:\n      pop\n        /* \"#utility.yul\":27768:28533   */\n      pop\n      pop\n        /* \"#utility.yul\":27663:28533   */\n      swap3\n      swap2\n      pop\n      pop\n      jump\t// out\n        /* \"#utility.yul\":28539:28804   */\n    tag_172:\n        /* \"#utility.yul\":28666:28669   */\n      0x00\n        /* \"#utility.yul\":28688:28778   */\n      tag_532\n        /* \"#utility.yul\":28774:28777   */\n      dup3\n        /* \"#utility.yul\":28765:28771   */\n      dup5\n        /* \"#utility.yul\":28688:28778   */\n      tag_263\n      jump\t// in\n    tag_532:\n        /* \"#utility.yul\":28681:28778   */\n      swap2\n      pop\n        /* \"#utility.yul\":28795:28798   */\n      dup2\n        /* \"#utility.yul\":28788:28798   */\n      swap1\n      pop\n        /* \"#utility.yul\":28539:28804   */\n      swap3\n      swap2\n      pop\n      pop\n      jump\t// out\n        /* \"#utility.yul\":28810:28988   */\n    tag_264:\n        /* \"#utility.yul\":28950:28980   */\n      0x5472616e73616374696f6e20657865637574696f6e206661696c656400000000\n        /* \"#utility.yul\":28946:28947   */\n      0x00\n        /* \"#utility.yul\":28938:28944   */\n      dup3\n        /* \"#utility.yul\":28934:28948   */\n      add\n        /* \"#utility.yul\":28927:28981   */\n      mstore\n        /* \"#utility.yul\":28810:28988   */\n      pop\n      jump\t// out\n        /* \"#utility.yul\":28994:29360   */\n    tag_265:\n        /* \"#utility.yul\":29136:29139   */\n      0x00\n        /* \"#utility.yul\":29157:29224   */\n      tag_535\n        /* \"#utility.yul\":29221:29223   */\n      0x1c\n        /* \"#utility.yul\":29216:29219   */\n      dup4\n        /* \"#utility.yul\":29157:29224   */\n      tag_225\n      jump\t// in\n    tag_535:\n        /* \"#utility.yul\":29150:29224   */\n      swap2\n      pop\n        /* \"#utility.yul\":29233:29326   */\n      tag_536\n        /* \"#utility.yul\":29322:29325   */\n      dup3\n        /* \"#utility.yul\":29233:29326   */\n      tag_264\n      jump\t// in\n    tag_536:\n        /* \"#utility.yul\":29351:29353   */\n      0x20\n        /* \"#utility.yul\":29346:29349   */\n      dup3\n        /* \"#utility.yul\":29342:29354   */\n      add\n        /* \"#utility.yul\":29335:29354   */\n      swap1\n      pop\n        /* \"#utility.yul\":28994:29360   */\n      swap2\n      swap1\n      pop\n      jump\t// out\n        /* \"#utility.yul\":29366:29785   */\n    tag_178:\n        /* \"#utility.yul\":29532:29536   */\n      0x00\n        /* \"#utility.yul\":29570:29572   */\n      0x20\n        /* \"#utility.yul\":29559:29568   */\n      dup3\n        /* \"#utility.yul\":29555:29573   */\n      add\n        /* \"#utility.yul\":29547:29573   */\n      swap1\n      pop\n        /* \"#utility.yul\":29619:29628   */\n      dup2\n        /* \"#utility.yul\":29613:29617   */\n      dup2\n        /* \"#utility.yul\":29609:29629   */\n      sub\n        /* \"#utility.yul\":29605:29606   */\n      0x00\n        /* \"#utility.yul\":29594:29603   */\n      dup4\n        /* \"#utility.yul\":29590:29607   */\n      add\n        /* \"#utility.yul\":29583:29630   */\n      mstore\n        /* \"#utility.yul\":29647:29778   */\n      tag_538\n        /* \"#utility.yul\":29773:29777   */\n      dup2\n        /* \"#utility.yul\":29647:29778   */\n      tag_265\n      jump\t// in\n    tag_538:\n        /* \"#utility.yul\":29639:29778   */\n      swap1\n      pop\n        /* \"#utility.yul\":29366:29785   */\n      swap2\n      swap1\n      pop\n      jump\t// out\n\n    auxdata: 0xa2646970667358221220f931d90d0b0cfccc8d8b712efc8e33bd3e0db13bc88f53d58e89ffd88ee9394264736f6c634300081b0033\n}\n",
				"bytecode": {
					"linkReferences": {},
					"object": "608060405234801561000f575f5ffd5b506040516127343803806127348339818101604052810190610031919061042f565b3360015f6101000a81548173ffffffffffffffffffffffffffffffffffffffff021916908373ffffffffffffffffffffffffffffffffffffffff160217905550600160045f60015f9054906101000a900473ffffffffffffffffffffffffffffffffffffffff1673ffffffffffffffffffffffffffffffffffffffff1673ffffffffffffffffffffffffffffffffffffffff1681526020019081526020015f205f6101000a81548160ff02191690831515021790555080515f819055505f5f90505b5f548160ff16101561026d5760055f838360ff168151811061011857610117610476565b5b602002602001015173ffffffffffffffffffffffffffffffffffffffff1673ffffffffffffffffffffffffffffffffffffffff1681526020019081526020015f205f9054906101000a900460ff1661025a576002828260ff168151811061018257610181610476565b5b6020026020010151908060018154018082558091505060019003905f5260205f20015f9091909190916101000a81548173ffffffffffffffffffffffffffffffffffffffff021916908373ffffffffffffffffffffffffffffffffffffffff160217905550600160055f848460ff168151811061020257610201610476565b5b602002602001015173ffffffffffffffffffffffffffffffffffffffff1673ffffffffffffffffffffffffffffffffffffffff1681526020019081526020015f205f6101000a81548160ff0219169083151502179055505b8080610265906104dc565b9150506100f3565b5050610504565b5f604051905090565b5f5ffd5b5f5ffd5b5f5ffd5b5f601f19601f8301169050919050565b7f4e487b71000000000000000000000000000000000000000000000000000000005f52604160045260245ffd5b6102cf82610289565b810181811067ffffffffffffffff821117156102ee576102ed610299565b5b80604052505050565b5f610300610274565b905061030c82826102c6565b919050565b5f67ffffffffffffffff82111561032b5761032a610299565b5b602082029050602081019050919050565b5f5ffd5b5f73ffffffffffffffffffffffffffffffffffffffff82169050919050565b5f61036982610340565b9050919050565b6103798161035f565b8114610383575f5ffd5b50565b5f8151905061039481610370565b92915050565b5f6103ac6103a784610311565b6102f7565b905080838252602082019050602084028301858111156103cf576103ce61033c565b5b835b818110156103f857806103e48882610386565b8452602084019350506020810190506103d1565b5050509392505050565b5f82601f83011261041657610415610285565b5b815161042684826020860161039a565b91505092915050565b5f602082840312156104445761044361027d565b5b5f82015167ffffffffffffffff81111561046157610460610281565b5b61046d84828501610402565b91505092915050565b7f4e487b71000000000000000000000000000000000000000000000000000000005f52603260045260245ffd5b7f4e487b71000000000000000000000000000000000000000000000000000000005f52601160045260245ffd5b5f60ff82169050919050565b5f6104e6826104d0565b915060ff82036104f9576104f86104a3565b5b600182019050919050565b612223806105115f395ff3fe608060405234801561000f575f5ffd5b506004361061009c575f3560e01c806383920e901161006457806383920e9014610130578063893d20e81461014e578063ac02d2881461016c578063b4ce7d451461019c578063c01a8c84146101b85761009c565b80630a57dfb8146100a057806313af4035146100bc57806320ea8d86146100d8578063543b3693146100f45780636052344014610112575b5f5ffd5b6100ba60048036038101906100b591906113de565b6101d4565b005b6100d660048036038101906100d19190611463565b6102bb565b005b6100f260048036038101906100ed91906113de565b610451565b005b6100fc6104ec565b6040516101099190611545565b60405180910390f35b61011a610577565b6040516101279190611574565b60405180910390f35b61013861057f565b6040516101459190611732565b60405180910390f35b6101566106f5565b6040516101639190611761565b60405180910390f35b6101866004803603810190610181919061177a565b61071d565b6040516101939190611574565b60405180910390f35b6101b660048036038101906101b191906118f8565b610854565b005b6101d260048036038101906101cd91906113de565b610b28565b005b60045f3373ffffffffffffffffffffffffffffffffffffffff1673ffffffffffffffffffffffffffffffffffffffff1681526020019081526020015f205f9054906101000a900460ff1661025d576040517f08c379a000000000000000000000000000000000000000000000000000000000815260040161025490611999565b60405180910390fd5b6001811015801561027357506002805490508111155b6102b2576040517f08c379a00000000000000000000000000000000000000000000000000000000081526004016102a990611a27565b60405180910390fd5b805f8190555050565b60045f3373ffffffffffffffffffffffffffffffffffffffff1673ffffffffffffffffffffffffffffffffffffffff1681526020019081526020015f205f9054906101000a900460ff16610344576040517f08c379a000000000000000000000000000000000000000000000000000000000815260040161033b90611999565b60405180910390fd5b5f60045f60015f9054906101000a900473ffffffffffffffffffffffffffffffffffffffff1673ffffffffffffffffffffffffffffffffffffffff1673ffffffffffffffffffffffffffffffffffffffff1681526020019081526020015f205f6101000a81548160ff0219169083151502179055508060015f6101000a81548173ffffffffffffffffffffffffffffffffffffffff021916908373ffffffffffffffffffffffffffffffffffffffff160217905550600160045f8373ffffffffffffffffffffffffffffffffffffffff1673ffffffffffffffffffffffffffffffffffffffff1681526020019081526020015f205f6101000a81548160ff02191690831515021790555050565b60055f3373ffffffffffffffffffffffffffffffffffffffff1673ffffffffffffffffffffffffffffffffffffffff1681526020019081526020015f205f9054906101000a900460ff166104da576040517f08c379a00000000000000000000000000000000000000000000000000000000081526004016104d190611a8f565b60405180910390fd5b6104e960036007600684610bc5565b50565b6060600280548060200260200160405190810160405280929190818152602001828054801561056d57602002820191905f5260205f20905b815f9054906101000a900473ffffffffffffffffffffffffffffffffffffffff1673ffffffffffffffffffffffffffffffffffffffff1681526020019060010190808311610524575b5050505050905090565b5f5f54905090565b60606003805480602002602001604051908101604052809291908181526020015f905b828210156106ec578382905f5260205f2090600202016040518060800160405290815f820180546105d290611ada565b80601f01602080910402602001604051908101604052809291908181526020018280546105fe90611ada565b80156106495780601f1061062057610100808354040283529160200191610649565b820191905f5260205f20905b81548152906001019060200180831161062c57829003601f168201915b50505050508152602001600182015f9054906101000a900473ffffffffffffffffffffffffffffffffffffffff1673ffffffffffffffffffffffffffffffffffffffff1673ffffffffffffffffffffffffffffffffffffffff1681526020016001820160149054906101000a900460ff161515151581526020016001820160159054906101000a900460ff161515151581525050815260200190600101906105a2565b50505050905090565b5f60015f9054906101000a900473ffffffffffffffffffffffffffffffffffffffff16905090565b5f60055f3373ffffffffffffffffffffffffffffffffffffffff1673ffffffffffffffffffffffffffffffffffffffff1681526020019081526020015f205f9054906101000a900460ff166107a7576040517f08c379a000000000000000000000000000000000000000000000000000000000815260040161079e90611a8f565b60405180910390fd5b610846600384846040516024016107be9190611761565b6040516020818303038152906040527f13af4035000000000000000000000000000000000000000000000000000000007bffffffffffffffffffffffffffffffffffffffffffffffffffffffff19166020820180517bffffffffffffffffffffffffffffffffffffffffffffffffffffffff8381831617835250505050600760066001610de2565b600380549050905092915050565b60045f3373ffffffffffffffffffffffffffffffffffffffff1673ffffffffffffffffffffffffffffffffffffffff1681526020019081526020015f205f9054906101000a900460ff166108dd576040517f08c379a00000000000000000000000000000000000000000000000000000000081526004016108d490611999565b60405180910390fd5b5f5f90505b6002805490508160ff161015610997575f60055f60028460ff168154811061090d5761090c611b0a565b5b905f5260205f20015f9054906101000a900473ffffffffffffffffffffffffffffffffffffffff1673ffffffffffffffffffffffffffffffffffffffff1673ffffffffffffffffffffffffffffffffffffffff1681526020019081526020015f205f6101000a81548160ff021916908315150217905550808061098f90611b70565b9150506108e2565b5060025f6109a59190611361565b5f5f90505b81518160ff161015610b245760055f838360ff16815181106109cf576109ce611b0a565b5b602002602001015173ffffffffffffffffffffffffffffffffffffffff1673ffffffffffffffffffffffffffffffffffffffff1681526020019081526020015f205f9054906101000a900460ff16610b11576002828260ff1681518110610a3957610a38611b0a565b5b6020026020010151908060018154018082558091505060019003905f5260205f20015f9091909190916101000a81548173ffffffffffffffffffffffffffffffffffffffff021916908373ffffffffffffffffffffffffffffffffffffffff160217905550600160055f848460ff1681518110610ab957610ab8611b0a565b5b602002602001015173ffffffffffffffffffffffffffffffffffffffff1673ffffffffffffffffffffffffffffffffffffffff1681526020019081526020015f205f6101000a81548160ff0219169083151502179055505b8080610b1c90611b70565b9150506109aa565b5050565b60055f3373ffffffffffffffffffffffffffffffffffffffff1673ffffffffffffffffffffffffffffffffffffffff1681526020019081526020015f205f9054906101000a900460ff16610bb1576040517f08c379a0000000000000000000000000000000000000000000000000000000008152600401610ba890611a8f565b60405180910390fd5b610bc26003600760065f5485610fc8565b50565b83805490508110610c0b576040517f08c379a0000000000000000000000000000000000000000000000000000000008152600401610c0290611be2565b60405180910390fd5b838181548110610c1e57610c1d611b0a565b5b905f5260205f20906002020160010160149054906101000a900460ff16610c7a576040517f08c379a0000000000000000000000000000000000000000000000000000000008152600401610c7190611c4a565b60405180910390fd5b825f8281526020019081526020015f205f3373ffffffffffffffffffffffffffffffffffffffff1673ffffffffffffffffffffffffffffffffffffffff1681526020019081526020015f205f9054906101000a900460ff16610d11576040517f08c379a0000000000000000000000000000000000000000000000000000000008152600401610d0890611cb2565b60405180910390fd5b5f835f8381526020019081526020015f205f3373ffffffffffffffffffffffffffffffffffffffff1673ffffffffffffffffffffffffffffffffffffffff1681526020019081526020015f205f6101000a81548160ff021916908315150217905550815f8281526020019081526020015f205f815480929190610d9390611cd0565b9190505550803373ffffffffffffffffffffffffffffffffffffffff167ff0dca620e2e81f7841d07bcc105e1704fb01475b278a9d4c236e1c62945edd5560405160405180910390a350505050565b8560405180608001604052808681526020018773ffffffffffffffffffffffffffffffffffffffff1681526020015f15158152602001831515815250908060018154018082558091505060019003905f5260205f2090600202015f909190919091505f820151815f019081610e579190611e97565b506020820151816001015f6101000a81548173ffffffffffffffffffffffffffffffffffffffff021916908373ffffffffffffffffffffffffffffffffffffffff16021790555060408201518160010160146101000a81548160ff02191690831515021790555060608201518160010160156101000a81548160ff02191690831515021790555050505f868054905090506001845f8381526020019081526020015f205f3373ffffffffffffffffffffffffffffffffffffffff1673ffffffffffffffffffffffffffffffffffffffff1681526020019081526020015f205f6101000a81548160ff021916908315150217905550825f8281526020019081526020015f205f815480929190610f6b90611f66565b9190505550803373ffffffffffffffffffffffffffffffffffffffff167feb45f38ad35cf41b4f9be8cfcca269ef78ea04216dbc8b8a38f28491c84d005a87604051610fb79190611ff5565b60405180910390a350505050505050565b835f8281526020019081526020015f205f3373ffffffffffffffffffffffffffffffffffffffff1673ffffffffffffffffffffffffffffffffffffffff1681526020019081526020015f205f9054906101000a900460ff1615611060576040517f08c379a00000000000000000000000000000000000000000000000000000000081526004016110579061205f565b60405180910390fd5b6001845f8381526020019081526020015f205f3373ffffffffffffffffffffffffffffffffffffffff1673ffffffffffffffffffffffffffffffffffffffff1681526020019081526020015f205f6101000a81548160ff021916908315150217905550825f8281526020019081526020015f205f8154809291906110e390611f66565b9190505550803373ffffffffffffffffffffffffffffffffffffffff167f5cbe105e36805f7820e291f799d5794ff948af2a5f664e580382defb6339004160405160405180910390a381835f8381526020019081526020015f20541061114e5761114d8582611155565b5b5050505050565b8180549050811061119b576040517f08c379a000000000000000000000000000000000000000000000000000000000815260040161119290611be2565b60405180910390fd5b8181815481106111ae576111ad611b0a565b5b905f5260205f20906002020160010160149054906101000a900460ff161561120b576040517f08c379a0000000000000000000000000000000000000000000000000000000008152600401611202906120c7565b60405180910390fd5b5f82828154811061121f5761121e611b0a565b5b905f5260205f209060020201905060018160010160146101000a81548160ff0219169083151502179055505f816001015f9054906101000a900473ffffffffffffffffffffffffffffffffffffffff1673ffffffffffffffffffffffffffffffffffffffff16825f01604051611295919061216f565b5f604051808303815f865af19150503d805f81146112ce576040519150601f19603f3d011682016040523d82523d5f602084013e6112d3565b606091505b5050905080611317576040517f08c379a000000000000000000000000000000000000000000000000000000000815260040161130e906121cf565b60405180910390fd5b823373ffffffffffffffffffffffffffffffffffffffff167f5445f318f4f5fcfb66592e68e0cc5822aa15664039bd5f0ffde24c5a8142b1ac60405160405180910390a350505050565b5080545f8255905f5260205f209081019061137c919061137f565b50565b5b80821115611396575f815f905550600101611380565b5090565b5f604051905090565b5f5ffd5b5f5ffd5b5f819050919050565b6113bd816113ab565b81146113c7575f5ffd5b50565b5f813590506113d8816113b4565b92915050565b5f602082840312156113f3576113f26113a3565b5b5f611400848285016113ca565b91505092915050565b5f73ffffffffffffffffffffffffffffffffffffffff82169050919050565b5f61143282611409565b9050919050565b61144281611428565b811461144c575f5ffd5b50565b5f8135905061145d81611439565b92915050565b5f60208284031215611478576114776113a3565b5b5f6114858482850161144f565b91505092915050565b5f81519050919050565b5f82825260208201905092915050565b5f819050602082019050919050565b6114c081611428565b82525050565b5f6114d183836114b7565b60208301905092915050565b5f602082019050919050565b5f6114f38261148e565b6114fd8185611498565b9350611508836114a8565b805f5b8381101561153857815161151f88826114c6565b975061152a836114dd565b92505060018101905061150b565b5085935050505092915050565b5f6020820190508181035f83015261155d81846114e9565b905092915050565b61156e816113ab565b82525050565b5f6020820190506115875f830184611565565b92915050565b5f81519050919050565b5f82825260208201905092915050565b5f819050602082019050919050565b5f81519050919050565b5f82825260208201905092915050565b8281835e5f83830152505050565b5f601f19601f8301169050919050565b5f6115f8826115b6565b61160281856115c0565b93506116128185602086016115d0565b61161b816115de565b840191505092915050565b5f8115159050919050565b61163a81611626565b82525050565b5f608083015f8301518482035f86015261165a82826115ee565b915050602083015161166f60208601826114b7565b5060408301516116826040860182611631565b5060608301516116956060860182611631565b508091505092915050565b5f6116ab8383611640565b905092915050565b5f602082019050919050565b5f6116c98261158d565b6116d38185611597565b9350836020820285016116e5856115a7565b805f5b85811015611720578484038952815161170185826116a0565b945061170c836116b3565b925060208a019950506001810190506116e8565b50829750879550505050505092915050565b5f6020820190508181035f83015261174a81846116bf565b905092915050565b61175b81611428565b82525050565b5f6020820190506117745f830184611752565b92915050565b5f5f604083850312156117905761178f6113a3565b5b5f61179d8582860161144f565b92505060206117ae8582860161144f565b9150509250929050565b5f5ffd5b7f4e487b71000000000000000000000000000000000000000000000000000000005f52604160045260245ffd5b6117f2826115de565b810181811067ffffffffffffffff82111715611811576118106117bc565b5b80604052505050565b5f61182361139a565b905061182f82826117e9565b919050565b5f67ffffffffffffffff82111561184e5761184d6117bc565b5b602082029050602081019050919050565b5f5ffd5b5f61187561187084611834565b61181a565b905080838252602082019050602084028301858111156118985761189761185f565b5b835b818110156118c157806118ad888261144f565b84526020840193505060208101905061189a565b5050509392505050565b5f82601f8301126118df576118de6117b8565b5b81356118ef848260208601611863565b91505092915050565b5f6020828403121561190d5761190c6113a3565b5b5f82013567ffffffffffffffff81111561192a576119296113a7565b5b611936848285016118cb565b91505092915050565b5f82825260208201905092915050565b7f4f6e6c7920746865206f776e65722063616e20757365000000000000000000005f82015250565b5f61198360168361193f565b915061198e8261194f565b602082019050919050565b5f6020820190508181035f8301526119b081611977565b9050919050565b7f7265717569726564206e756d626572206d757374203e3d2031206f72203c3d205f8201527f636f6e74726f6c6c6572206d656d6265722e0000000000000000000000000000602082015250565b5f611a1160328361193f565b9150611a1c826119b7565b604082019050919050565b5f6020820190508181035f830152611a3e81611a05565b9050919050565b7f4f6e6c79207468652061646d696e6973747261746f722063616e2075736500005f82015250565b5f611a79601e8361193f565b9150611a8482611a45565b602082019050919050565b5f6020820190508181035f830152611aa681611a6d565b9050919050565b7f4e487b71000000000000000000000000000000000000000000000000000000005f52602260045260245ffd5b5f6002820490506001821680611af157607f821691505b602082108103611b0457611b03611aad565b5b50919050565b7f4e487b71000000000000000000000000000000000000000000000000000000005f52603260045260245ffd5b7f4e487b71000000000000000000000000000000000000000000000000000000005f52601160045260245ffd5b5f60ff82169050919050565b5f611b7a82611b64565b915060ff8203611b8d57611b8c611b37565b5b600182019050919050565b7f496e76616c6964207472616e73616374696f6e20696e646578000000000000005f82015250565b5f611bcc60198361193f565b9150611bd782611b98565b602082019050919050565b5f6020820190508181035f830152611bf981611bc0565b9050919050565b7f5472616e73616374696f6e206e6f7420657865637574656400000000000000005f82015250565b5f611c3460188361193f565b9150611c3f82611c00565b602082019050919050565b5f6020820190508181035f830152611c6181611c28565b9050919050565b7f5472616e73616374696f6e206e6f7420636f6e6669726d6564000000000000005f82015250565b5f611c9c60198361193f565b9150611ca782611c68565b602082019050919050565b5f6020820190508181035f830152611cc981611c90565b9050919050565b5f611cda826113ab565b91505f8203611cec57611ceb611b37565b5b600182039050919050565b5f819050815f5260205f209050919050565b5f6020601f8301049050919050565b5f82821b905092915050565b5f60088302611d537fffffffffffffffffffffffffffffffffffffffffffffffffffffffffffffffff82611d18565b611d5d8683611d18565b95508019841693508086168417925050509392505050565b5f819050919050565b5f611d98611d93611d8e846113ab565b611d75565b6113ab565b9050919050565b5f819050919050565b611db183611d7e565b611dc5611dbd82611d9f565b848454611d24565b825550505050565b5f5f905090565b611ddc611dcd565b611de7818484611da8565b505050565b5b81811015611e0a57611dff5f82611dd4565b600181019050611ded565b5050565b601f821115611e4f57611e2081611cf7565b611e2984611d09565b81016020851015611e38578190505b611e4c611e4485611d09565b830182611dec565b50505b505050565b5f82821c905092915050565b5f611e6f5f1984600802611e54565b1980831691505092915050565b5f611e878383611e60565b9150826002028217905092915050565b611ea0826115b6565b67ffffffffffffffff811115611eb957611eb86117bc565b5b611ec38254611ada565b611ece828285611e0e565b5f60209050601f831160018114611eff575f8415611eed578287015190505b611ef78582611e7c565b865550611f5e565b601f198416611f0d86611cf7565b5f5b82811015611f3457848901518255600182019150602085019450602081019050611f0f565b86831015611f515784890151611f4d601f891682611e60565b8355505b6001600288020188555050505b505050505050565b5f611f70826113ab565b91507fffffffffffffffffffffffffffffffffffffffffffffffffffffffffffffffff8203611fa257611fa1611b37565b5b600182019050919050565b5f82825260208201905092915050565b5f611fc7826115b6565b611fd18185611fad565b9350611fe18185602086016115d0565b611fea816115de565b840191505092915050565b5f6020820190508181035f83015261200d8184611fbd565b905092915050565b7f5472616e73616374696f6e20616c726561647920636f6e6669726d65640000005f82015250565b5f612049601d8361193f565b915061205482612015565b602082019050919050565b5f6020820190508181035f8301526120768161203d565b9050919050565b7f5472616e73616374696f6e20616c7265616479206578656375746564000000005f82015250565b5f6120b1601c8361193f565b91506120bc8261207d565b602082019050919050565b5f6020820190508181035f8301526120de816120a5565b9050919050565b5f81905092915050565b5f81546120fb81611ada565b61210581866120e5565b9450600182165f811461211f576001811461213457612166565b60ff1983168652811515820286019350612166565b61213d85611cf7565b5f5b8381101561215e5781548189015260018201915060208101905061213f565b838801955050505b50505092915050565b5f61217a82846120ef565b915081905092915050565b7f5472616e73616374696f6e20657865637574696f6e206661696c6564000000005f82015250565b5f6121b9601c8361193f565b91506121c482612185565b602082019050919050565b5f6020820190508181035f8301526121e6816121ad565b905091905056fea2646970667358221220f931d90d0b0cfccc8d8b712efc8e33bd3e0db13bc88f53d58e89ffd88ee9394264736f6c634300081b0033",
					"opcodes": "PUSH1 0x80 PUSH1 0x40 MSTORE CALLVALUE DUP1 ISZERO PUSH2 0xF JUMPI PUSH0 PUSH0 REVERT JUMPDEST POP PUSH1 0x40 MLOAD PUSH2 0x2734 CODESIZE SUB DUP1 PUSH2 0x2734 DUP4 CODECOPY DUP2 DUP2 ADD PUSH1 0x40 MSTORE DUP2 ADD SWAP1 PUSH2 0x31 SWAP2 SWAP1 PUSH2 0x42F JUMP JUMPDEST CALLER PUSH1 0x1 PUSH0 PUSH2 0x100 EXP DUP2 SLOAD DUP2 PUSH20 0xFFFFFFFFFFFFFFFFFFFFFFFFFFFFFFFFFFFFFFFF MUL NOT AND SWAP1 DUP4 PUSH20 0xFFFFFFFFFFFFFFFFFFFFFFFFFFFFFFFFFFFFFFFF AND MUL OR SWAP1 SSTORE POP PUSH1 0x1 PUSH1 0x4 PUSH0 PUSH1 0x1 PUSH0 SWAP1 SLOAD SWAP1 PUSH2 0x100 EXP SWAP1 DIV PUSH20 0xFFFFFFFFFFFFFFFFFFFFFFFFFFFFFFFFFFFFFFFF AND PUSH20 0xFFFFFFFFFFFFFFFFFFFFFFFFFFFFFFFFFFFFFFFF AND PUSH20 0xFFFFFFFFFFFFFFFFFFFFFFFFFFFFFFFFFFFFFFFF AND DUP2 MSTORE PUSH1 0x20 ADD SWAP1 DUP2 MSTORE PUSH1 0x20 ADD PUSH0 KECCAK256 PUSH0 PUSH2 0x100 EXP DUP2 SLOAD DUP2 PUSH1 0xFF MUL NOT AND SWAP1 DUP4 ISZERO ISZERO MUL OR SWAP1 SSTORE POP DUP1 MLOAD PUSH0 DUP2 SWAP1 SSTORE POP PUSH0 PUSH0 SWAP1 POP JUMPDEST PUSH0 SLOAD DUP2 PUSH1 0xFF AND LT ISZERO PUSH2 0x26D JUMPI PUSH1 0x5 PUSH0 DUP4 DUP4 PUSH1 0xFF AND DUP2 MLOAD DUP2 LT PUSH2 0x118 JUMPI PUSH2 0x117 PUSH2 0x476 JUMP JUMPDEST JUMPDEST PUSH1 0x20 MUL PUSH1 0x20 ADD ADD MLOAD PUSH20 0xFFFFFFFFFFFFFFFFFFFFFFFFFFFFFFFFFFFFFFFF AND PUSH20 0xFFFFFFFFFFFFFFFFFFFFFFFFFFFFFFFFFFFFFFFF AND DUP2 MSTORE PUSH1 0x20 ADD SWAP1 DUP2 MSTORE PUSH1 0x20 ADD PUSH0 KECCAK256 PUSH0 SWAP1 SLOAD SWAP1 PUSH2 0x100 EXP SWAP1 DIV PUSH1 0xFF AND PUSH2 0x25A JUMPI PUSH1 0x2 DUP3 DUP3 PUSH1 0xFF AND DUP2 MLOAD DUP2 LT PUSH2 0x182 JUMPI PUSH2 0x181 PUSH2 0x476 JUMP JUMPDEST JUMPDEST PUSH1 0x20 MUL PUSH1 0x20 ADD ADD MLOAD SWAP1 DUP1 PUSH1 0x1 DUP2 SLOAD ADD DUP1 DUP3 SSTORE DUP1 SWAP2 POP POP PUSH1 0x1 SWAP1 SUB SWAP1 PUSH0 MSTORE PUSH1 0x20 PUSH0 KECCAK256 ADD PUSH0 SWAP1 SWAP2 SWAP1 SWAP2 SWAP1 SWAP2 PUSH2 0x100 EXP DUP2 SLOAD DUP2 PUSH20 0xFFFFFFFFFFFFFFFFFFFFFFFFFFFFFFFFFFFFFFFF MUL NOT AND SWAP1 DUP4 PUSH20 0xFFFFFFFFFFFFFFFFFFFFFFFFFFFFFFFFFFFFFFFF AND MUL OR SWAP1 SSTORE POP PUSH1 0x1 PUSH1 0x5 PUSH0 DUP5 DUP5 PUSH1 0xFF AND DUP2 MLOAD DUP2 LT PUSH2 0x202 JUMPI PUSH2 0x201 PUSH2 0x476 JUMP JUMPDEST JUMPDEST PUSH1 0x20 MUL PUSH1 0x20 ADD ADD MLOAD PUSH20 0xFFFFFFFFFFFFFFFFFFFFFFFFFFFFFFFFFFFFFFFF AND PUSH20 0xFFFFFFFFFFFFFFFFFFFFFFFFFFFFFFFFFFFFFFFF AND DUP2 MSTORE PUSH1 0x20 ADD SWAP1 DUP2 MSTORE PUSH1 0x20 ADD PUSH0 KECCAK256 PUSH0 PUSH2 0x100 EXP DUP2 SLOAD DUP2 PUSH1 0xFF MUL NOT AND SWAP1 DUP4 ISZERO ISZERO MUL OR SWAP1 SSTORE POP JUMPDEST DUP1 DUP1 PUSH2 0x265 SWAP1 PUSH2 0x4DC JUMP JUMPDEST SWAP2 POP POP PUSH2 0xF3 JUMP JUMPDEST POP POP PUSH2 0x504 JUMP JUMPDEST PUSH0 PUSH1 0x40 MLOAD SWAP1 POP SWAP1 JUMP JUMPDEST PUSH0 PUSH0 REVERT JUMPDEST PUSH0 PUSH0 REVERT JUMPDEST PUSH0 PUSH0 REVERT JUMPDEST PUSH0 PUSH1 0x1F NOT PUSH1 0x1F DUP4 ADD AND SWAP1 POP SWAP2 SWAP1 POP JUMP JUMPDEST PUSH32 0x4E487B7100000000000000000000000000000000000000000000000000000000 PUSH0 MSTORE PUSH1 0x41 PUSH1 0x4 MSTORE PUSH1 0x24 PUSH0 REVERT JUMPDEST PUSH2 0x2CF DUP3 PUSH2 0x289 JUMP JUMPDEST DUP2 ADD DUP2 DUP2 LT PUSH8 0xFFFFFFFFFFFFFFFF DUP3 GT OR ISZERO PUSH2 0x2EE JUMPI PUSH2 0x2ED PUSH2 0x299 JUMP JUMPDEST JUMPDEST DUP1 PUSH1 0x40 MSTORE POP POP POP JUMP JUMPDEST PUSH0 PUSH2 0x300 PUSH2 0x274 JUMP JUMPDEST SWAP1 POP PUSH2 0x30C DUP3 DUP3 PUSH2 0x2C6 JUMP JUMPDEST SWAP2 SWAP1 POP JUMP JUMPDEST PUSH0 PUSH8 0xFFFFFFFFFFFFFFFF DUP3 GT ISZERO PUSH2 0x32B JUMPI PUSH2 0x32A PUSH2 0x299 JUMP JUMPDEST JUMPDEST PUSH1 0x20 DUP3 MUL SWAP1 POP PUSH1 0x20 DUP2 ADD SWAP1 POP SWAP2 SWAP1 POP JUMP JUMPDEST PUSH0 PUSH0 REVERT JUMPDEST PUSH0 PUSH20 0xFFFFFFFFFFFFFFFFFFFFFFFFFFFFFFFFFFFFFFFF DUP3 AND SWAP1 POP SWAP2 SWAP1 POP JUMP JUMPDEST PUSH0 PUSH2 0x369 DUP3 PUSH2 0x340 JUMP JUMPDEST SWAP1 POP SWAP2 SWAP1 POP JUMP JUMPDEST PUSH2 0x379 DUP2 PUSH2 0x35F JUMP JUMPDEST DUP2 EQ PUSH2 0x383 JUMPI PUSH0 PUSH0 REVERT JUMPDEST POP JUMP JUMPDEST PUSH0 DUP2 MLOAD SWAP1 POP PUSH2 0x394 DUP2 PUSH2 0x370 JUMP JUMPDEST SWAP3 SWAP2 POP POP JUMP JUMPDEST PUSH0 PUSH2 0x3AC PUSH2 0x3A7 DUP5 PUSH2 0x311 JUMP JUMPDEST PUSH2 0x2F7 JUMP JUMPDEST SWAP1 POP DUP1 DUP4 DUP3 MSTORE PUSH1 0x20 DUP3 ADD SWAP1 POP PUSH1 0x20 DUP5 MUL DUP4 ADD DUP6 DUP2 GT ISZERO PUSH2 0x3CF JUMPI PUSH2 0x3CE PUSH2 0x33C JUMP JUMPDEST JUMPDEST DUP4 JUMPDEST DUP2 DUP2 LT ISZERO PUSH2 0x3F8 JUMPI DUP1 PUSH2 0x3E4 DUP9 DUP3 PUSH2 0x386 JUMP JUMPDEST DUP5 MSTORE PUSH1 0x20 DUP5 ADD SWAP4 POP POP PUSH1 0x20 DUP2 ADD SWAP1 POP PUSH2 0x3D1 JUMP JUMPDEST POP POP POP SWAP4 SWAP3 POP POP POP JUMP JUMPDEST PUSH0 DUP3 PUSH1 0x1F DUP4 ADD SLT PUSH2 0x416 JUMPI PUSH2 0x415 PUSH2 0x285 JUMP JUMPDEST JUMPDEST DUP2 MLOAD PUSH2 0x426 DUP5 DUP3 PUSH1 0x20 DUP7 ADD PUSH2 0x39A JUMP JUMPDEST SWAP2 POP POP SWAP3 SWAP2 POP POP JUMP JUMPDEST PUSH0 PUSH1 0x20 DUP3 DUP5 SUB SLT ISZERO PUSH2 0x444 JUMPI PUSH2 0x443 PUSH2 0x27D JUMP JUMPDEST JUMPDEST PUSH0 DUP3 ADD MLOAD PUSH8 0xFFFFFFFFFFFFFFFF DUP2 GT ISZERO PUSH2 0x461 JUMPI PUSH2 0x460 PUSH2 0x281 JUMP JUMPDEST JUMPDEST PUSH2 0x46D DUP5 DUP3 DUP6 ADD PUSH2 0x402 JUMP JUMPDEST SWAP2 POP POP SWAP3 SWAP2 POP POP JUMP JUMPDEST PUSH32 0x4E487B7100000000000000000000000000000000000000000000000000000000 PUSH0 MSTORE PUSH1 0x32 PUSH1 0x4 MSTORE PUSH1 0x24 PUSH0 REVERT JUMPDEST PUSH32 0x4E487B7100000000000000000000000000000000000000000000000000000000 PUSH0 MSTORE PUSH1 0x11 PUSH1 0x4 MSTORE PUSH1 0x24 PUSH0 REVERT JUMPDEST PUSH0 PUSH1 0xFF DUP3 AND SWAP1 POP SWAP2 SWAP1 POP JUMP JUMPDEST PUSH0 PUSH2 0x4E6 DUP3 PUSH2 0x4D0 JUMP JUMPDEST SWAP2 POP PUSH1 0xFF DUP3 SUB PUSH2 0x4F9 JUMPI PUSH2 0x4F8 PUSH2 0x4A3 JUMP JUMPDEST JUMPDEST PUSH1 0x1 DUP3 ADD SWAP1 POP SWAP2 SWAP1 POP JUMP JUMPDEST PUSH2 0x2223 DUP1 PUSH2 0x511 PUSH0 CODECOPY PUSH0 RETURN INVALID PUSH1 0x80 PUSH1 0x40 MSTORE CALLVALUE DUP1 ISZERO PUSH2 0xF JUMPI PUSH0 PUSH0 REVERT JUMPDEST POP PUSH1 0x4 CALLDATASIZE LT PUSH2 0x9C JUMPI PUSH0 CALLDATALOAD PUSH1 0xE0 SHR DUP1 PUSH4 0x83920E90 GT PUSH2 0x64 JUMPI DUP1 PUSH4 0x83920E90 EQ PUSH2 0x130 JUMPI DUP1 PUSH4 0x893D20E8 EQ PUSH2 0x14E JUMPI DUP1 PUSH4 0xAC02D288 EQ PUSH2 0x16C JUMPI DUP1 PUSH4 0xB4CE7D45 EQ PUSH2 0x19C JUMPI DUP1 PUSH4 0xC01A8C84 EQ PUSH2 0x1B8 JUMPI PUSH2 0x9C JUMP JUMPDEST DUP1 PUSH4 0xA57DFB8 EQ PUSH2 0xA0 JUMPI DUP1 PUSH4 0x13AF4035 EQ PUSH2 0xBC JUMPI DUP1 PUSH4 0x20EA8D86 EQ PUSH2 0xD8 JUMPI DUP1 PUSH4 0x543B3693 EQ PUSH2 0xF4 JUMPI DUP1 PUSH4 0x60523440 EQ PUSH2 0x112 JUMPI JUMPDEST PUSH0 PUSH0 REVERT JUMPDEST PUSH2 0xBA PUSH1 0x4 DUP1 CALLDATASIZE SUB DUP2 ADD SWAP1 PUSH2 0xB5 SWAP2 SWAP1 PUSH2 0x13DE JUMP JUMPDEST PUSH2 0x1D4 JUMP JUMPDEST STOP JUMPDEST PUSH2 0xD6 PUSH1 0x4 DUP1 CALLDATASIZE SUB DUP2 ADD SWAP1 PUSH2 0xD1 SWAP2 SWAP1 PUSH2 0x1463 JUMP JUMPDEST PUSH2 0x2BB JUMP JUMPDEST STOP JUMPDEST PUSH2 0xF2 PUSH1 0x4 DUP1 CALLDATASIZE SUB DUP2 ADD SWAP1 PUSH2 0xED SWAP2 SWAP1 PUSH2 0x13DE JUMP JUMPDEST PUSH2 0x451 JUMP JUMPDEST STOP JUMPDEST PUSH2 0xFC PUSH2 0x4EC JUMP JUMPDEST PUSH1 0x40 MLOAD PUSH2 0x109 SWAP2 SWAP1 PUSH2 0x1545 JUMP JUMPDEST PUSH1 0x40 MLOAD DUP1 SWAP2 SUB SWAP1 RETURN JUMPDEST PUSH2 0x11A PUSH2 0x577 JUMP JUMPDEST PUSH1 0x40 MLOAD PUSH2 0x127 SWAP2 SWAP1 PUSH2 0x1574 JUMP JUMPDEST PUSH1 0x40 MLOAD DUP1 SWAP2 SUB SWAP1 RETURN JUMPDEST PUSH2 0x138 PUSH2 0x57F JUMP JUMPDEST PUSH1 0x40 MLOAD PUSH2 0x145 SWAP2 SWAP1 PUSH2 0x1732 JUMP JUMPDEST PUSH1 0x40 MLOAD DUP1 SWAP2 SUB SWAP1 RETURN JUMPDEST PUSH2 0x156 PUSH2 0x6F5 JUMP JUMPDEST PUSH1 0x40 MLOAD PUSH2 0x163 SWAP2 SWAP1 PUSH2 0x1761 JUMP JUMPDEST PUSH1 0x40 MLOAD DUP1 SWAP2 SUB SWAP1 RETURN JUMPDEST PUSH2 0x186 PUSH1 0x4 DUP1 CALLDATASIZE SUB DUP2 ADD SWAP1 PUSH2 0x181 SWAP2 SWAP1 PUSH2 0x177A JUMP JUMPDEST PUSH2 0x71D JUMP JUMPDEST PUSH1 0x40 MLOAD PUSH2 0x193 SWAP2 SWAP1 PUSH2 0x1574 JUMP JUMPDEST PUSH1 0x40 MLOAD DUP1 SWAP2 SUB SWAP1 RETURN JUMPDEST PUSH2 0x1B6 PUSH1 0x4 DUP1 CALLDATASIZE SUB DUP2 ADD SWAP1 PUSH2 0x1B1 SWAP2 SWAP1 PUSH2 0x18F8 JUMP JUMPDEST PUSH2 0x854 JUMP JUMPDEST STOP JUMPDEST PUSH2 0x1D2 PUSH1 0x4 DUP1 CALLDATASIZE SUB DUP2 ADD SWAP1 PUSH2 0x1CD SWAP2 SWAP1 PUSH2 0x13DE JUMP JUMPDEST PUSH2 0xB28 JUMP JUMPDEST STOP JUMPDEST PUSH1 0x4 PUSH0 CALLER PUSH20 0xFFFFFFFFFFFFFFFFFFFFFFFFFFFFFFFFFFFFFFFF AND PUSH20 0xFFFFFFFFFFFFFFFFFFFFFFFFFFFFFFFFFFFFFFFF AND DUP2 MSTORE PUSH1 0x20 ADD SWAP1 DUP2 MSTORE PUSH1 0x20 ADD PUSH0 KECCAK256 PUSH0 SWAP1 SLOAD SWAP1 PUSH2 0x100 EXP SWAP1 DIV PUSH1 0xFF AND PUSH2 0x25D JUMPI PUSH1 0x40 MLOAD PUSH32 0x8C379A000000000000000000000000000000000000000000000000000000000 DUP2 MSTORE PUSH1 0x4 ADD PUSH2 0x254 SWAP1 PUSH2 0x1999 JUMP JUMPDEST PUSH1 0x40 MLOAD DUP1 SWAP2 SUB SWAP1 REVERT JUMPDEST PUSH1 0x1 DUP2 LT ISZERO DUP1 ISZERO PUSH2 0x273 JUMPI POP PUSH1 0x2 DUP1 SLOAD SWAP1 POP DUP2 GT ISZERO JUMPDEST PUSH2 0x2B2 JUMPI PUSH1 0x40 MLOAD PUSH32 0x8C379A000000000000000000000000000000000000000000000000000000000 DUP2 MSTORE PUSH1 0x4 ADD PUSH2 0x2A9 SWAP1 PUSH2 0x1A27 JUMP JUMPDEST PUSH1 0x40 MLOAD DUP1 SWAP2 SUB SWAP1 REVERT JUMPDEST DUP1 PUSH0 DUP2 SWAP1 SSTORE POP POP JUMP JUMPDEST PUSH1 0x4 PUSH0 CALLER PUSH20 0xFFFFFFFFFFFFFFFFFFFFFFFFFFFFFFFFFFFFFFFF AND PUSH20 0xFFFFFFFFFFFFFFFFFFFFFFFFFFFFFFFFFFFFFFFF AND DUP2 MSTORE PUSH1 0x20 ADD SWAP1 DUP2 MSTORE PUSH1 0x20 ADD PUSH0 KECCAK256 PUSH0 SWAP1 SLOAD SWAP1 PUSH2 0x100 EXP SWAP1 DIV PUSH1 0xFF AND PUSH2 0x344 JUMPI PUSH1 0x40 MLOAD PUSH32 0x8C379A000000000000000000000000000000000000000000000000000000000 DUP2 MSTORE PUSH1 0x4 ADD PUSH2 0x33B SWAP1 PUSH2 0x1999 JUMP JUMPDEST PUSH1 0x40 MLOAD DUP1 SWAP2 SUB SWAP1 REVERT JUMPDEST PUSH0 PUSH1 0x4 PUSH0 PUSH1 0x1 PUSH0 SWAP1 SLOAD SWAP1 PUSH2 0x100 EXP SWAP1 DIV PUSH20 0xFFFFFFFFFFFFFFFFFFFFFFFFFFFFFFFFFFFFFFFF AND PUSH20 0xFFFFFFFFFFFFFFFFFFFFFFFFFFFFFFFFFFFFFFFF AND PUSH20 0xFFFFFFFFFFFFFFFFFFFFFFFFFFFFFFFFFFFFFFFF AND DUP2 MSTORE PUSH1 0x20 ADD SWAP1 DUP2 MSTORE PUSH1 0x20 ADD PUSH0 KECCAK256 PUSH0 PUSH2 0x100 EXP DUP2 SLOAD DUP2 PUSH1 0xFF MUL NOT AND SWAP1 DUP4 ISZERO ISZERO MUL OR SWAP1 SSTORE POP DUP1 PUSH1 0x1 PUSH0 PUSH2 0x100 EXP DUP2 SLOAD DUP2 PUSH20 0xFFFFFFFFFFFFFFFFFFFFFFFFFFFFFFFFFFFFFFFF MUL NOT AND SWAP1 DUP4 PUSH20 0xFFFFFFFFFFFFFFFFFFFFFFFFFFFFFFFFFFFFFFFF AND MUL OR SWAP1 SSTORE POP PUSH1 0x1 PUSH1 0x4 PUSH0 DUP4 PUSH20 0xFFFFFFFFFFFFFFFFFFFFFFFFFFFFFFFFFFFFFFFF AND PUSH20 0xFFFFFFFFFFFFFFFFFFFFFFFFFFFFFFFFFFFFFFFF AND DUP2 MSTORE PUSH1 0x20 ADD SWAP1 DUP2 MSTORE PUSH1 0x20 ADD PUSH0 KECCAK256 PUSH0 PUSH2 0x100 EXP DUP2 SLOAD DUP2 PUSH1 0xFF MUL NOT AND SWAP1 DUP4 ISZERO ISZERO MUL OR SWAP1 SSTORE POP POP JUMP JUMPDEST PUSH1 0x5 PUSH0 CALLER PUSH20 0xFFFFFFFFFFFFFFFFFFFFFFFFFFFFFFFFFFFFFFFF AND PUSH20 0xFFFFFFFFFFFFFFFFFFFFFFFFFFFFFFFFFFFFFFFF AND DUP2 MSTORE PUSH1 0x20 ADD SWAP1 DUP2 MSTORE PUSH1 0x20 ADD PUSH0 KECCAK256 PUSH0 SWAP1 SLOAD SWAP1 PUSH2 0x100 EXP SWAP1 DIV PUSH1 0xFF AND PUSH2 0x4DA JUMPI PUSH1 0x40 MLOAD PUSH32 0x8C379A000000000000000000000000000000000000000000000000000000000 DUP2 MSTORE PUSH1 0x4 ADD PUSH2 0x4D1 SWAP1 PUSH2 0x1A8F JUMP JUMPDEST PUSH1 0x40 MLOAD DUP1 SWAP2 SUB SWAP1 REVERT JUMPDEST PUSH2 0x4E9 PUSH1 0x3 PUSH1 0x7 PUSH1 0x6 DUP5 PUSH2 0xBC5 JUMP JUMPDEST POP JUMP JUMPDEST PUSH1 0x60 PUSH1 0x2 DUP1 SLOAD DUP1 PUSH1 0x20 MUL PUSH1 0x20 ADD PUSH1 0x40 MLOAD SWAP1 DUP2 ADD PUSH1 0x40 MSTORE DUP1 SWAP3 SWAP2 SWAP1 DUP2 DUP2 MSTORE PUSH1 0x20 ADD DUP3 DUP1 SLOAD DUP1 ISZERO PUSH2 0x56D JUMPI PUSH1 0x20 MUL DUP3 ADD SWAP2 SWAP1 PUSH0 MSTORE PUSH1 0x20 PUSH0 KECCAK256 SWAP1 JUMPDEST DUP2 PUSH0 SWAP1 SLOAD SWAP1 PUSH2 0x100 EXP SWAP1 DIV PUSH20 0xFFFFFFFFFFFFFFFFFFFFFFFFFFFFFFFFFFFFFFFF AND PUSH20 0xFFFFFFFFFFFFFFFFFFFFFFFFFFFFFFFFFFFFFFFF AND DUP2 MSTORE PUSH1 0x20 ADD SWAP1 PUSH1 0x1 ADD SWAP1 DUP1 DUP4 GT PUSH2 0x524 JUMPI JUMPDEST POP POP POP POP POP SWAP1 POP SWAP1 JUMP JUMPDEST PUSH0 PUSH0 SLOAD SWAP1 POP SWAP1 JUMP JUMPDEST PUSH1 0x60 PUSH1 0x3 DUP1 SLOAD DUP1 PUSH1 0x20 MUL PUSH1 0x20 ADD PUSH1 0x40 MLOAD SWAP1 DUP2 ADD PUSH1 0x40 MSTORE DUP1 SWAP3 SWAP2 SWAP1 DUP2 DUP2 MSTORE PUSH1 0x20 ADD PUSH0 SWAP1 JUMPDEST DUP3 DUP3 LT ISZERO PUSH2 0x6EC JUMPI DUP4 DUP3 SWAP1 PUSH0 MSTORE PUSH1 0x20 PUSH0 KECCAK256 SWAP1 PUSH1 0x2 MUL ADD PUSH1 0x40 MLOAD DUP1 PUSH1 0x80 ADD PUSH1 0x40 MSTORE SWAP1 DUP2 PUSH0 DUP3 ADD DUP1 SLOAD PUSH2 0x5D2 SWAP1 PUSH2 0x1ADA JUMP JUMPDEST DUP1 PUSH1 0x1F ADD PUSH1 0x20 DUP1 SWAP2 DIV MUL PUSH1 0x20 ADD PUSH1 0x40 MLOAD SWAP1 DUP2 ADD PUSH1 0x40 MSTORE DUP1 SWAP3 SWAP2 SWAP1 DUP2 DUP2 MSTORE PUSH1 0x20 ADD DUP3 DUP1 SLOAD PUSH2 0x5FE SWAP1 PUSH2 0x1ADA JUMP JUMPDEST DUP1 ISZERO PUSH2 0x649 JUMPI DUP1 PUSH1 0x1F LT PUSH2 0x620 JUMPI PUSH2 0x100 DUP1 DUP4 SLOAD DIV MUL DUP4 MSTORE SWAP2 PUSH1 0x20 ADD SWAP2 PUSH2 0x649 JUMP JUMPDEST DUP3 ADD SWAP2 SWAP1 PUSH0 MSTORE PUSH1 0x20 PUSH0 KECCAK256 SWAP1 JUMPDEST DUP2 SLOAD DUP2 MSTORE SWAP1 PUSH1 0x1 ADD SWAP1 PUSH1 0x20 ADD DUP1 DUP4 GT PUSH2 0x62C JUMPI DUP3 SWAP1 SUB PUSH1 0x1F AND DUP3 ADD SWAP2 JUMPDEST POP POP POP POP POP DUP2 MSTORE PUSH1 0x20 ADD PUSH1 0x1 DUP3 ADD PUSH0 SWAP1 SLOAD SWAP1 PUSH2 0x100 EXP SWAP1 DIV PUSH20 0xFFFFFFFFFFFFFFFFFFFFFFFFFFFFFFFFFFFFFFFF AND PUSH20 0xFFFFFFFFFFFFFFFFFFFFFFFFFFFFFFFFFFFFFFFF AND PUSH20 0xFFFFFFFFFFFFFFFFFFFFFFFFFFFFFFFFFFFFFFFF AND DUP2 MSTORE PUSH1 0x20 ADD PUSH1 0x1 DUP3 ADD PUSH1 0x14 SWAP1 SLOAD SWAP1 PUSH2 0x100 EXP SWAP1 DIV PUSH1 0xFF AND ISZERO ISZERO ISZERO ISZERO DUP2 MSTORE PUSH1 0x20 ADD PUSH1 0x1 DUP3 ADD PUSH1 0x15 SWAP1 SLOAD SWAP1 PUSH2 0x100 EXP SWAP1 DIV PUSH1 0xFF AND ISZERO ISZERO ISZERO ISZERO DUP2 MSTORE POP POP DUP2 MSTORE PUSH1 0x20 ADD SWAP1 PUSH1 0x1 ADD SWAP1 PUSH2 0x5A2 JUMP JUMPDEST POP POP POP POP SWAP1 POP SWAP1 JUMP JUMPDEST PUSH0 PUSH1 0x1 PUSH0 SWAP1 SLOAD SWAP1 PUSH2 0x100 EXP SWAP1 DIV PUSH20 0xFFFFFFFFFFFFFFFFFFFFFFFFFFFFFFFFFFFFFFFF AND SWAP1 POP SWAP1 JUMP JUMPDEST PUSH0 PUSH1 0x5 PUSH0 CALLER PUSH20 0xFFFFFFFFFFFFFFFFFFFFFFFFFFFFFFFFFFFFFFFF AND PUSH20 0xFFFFFFFFFFFFFFFFFFFFFFFFFFFFFFFFFFFFFFFF AND DUP2 MSTORE PUSH1 0x20 ADD SWAP1 DUP2 MSTORE PUSH1 0x20 ADD PUSH0 KECCAK256 PUSH0 SWAP1 SLOAD SWAP1 PUSH2 0x100 EXP SWAP1 DIV PUSH1 0xFF AND PUSH2 0x7A7 JUMPI PUSH1 0x40 MLOAD PUSH32 0x8C379A000000000000000000000000000000000000000000000000000000000 DUP2 MSTORE PUSH1 0x4 ADD PUSH2 0x79E SWAP1 PUSH2 0x1A8F JUMP JUMPDEST PUSH1 0x40 MLOAD DUP1 SWAP2 SUB SWAP1 REVERT JUMPDEST PUSH2 0x846 PUSH1 0x3 DUP5 DUP5 PUSH1 0x40 MLOAD PUSH1 0x24 ADD PUSH2 0x7BE SWAP2 SWAP1 PUSH2 0x1761 JUMP JUMPDEST PUSH1 0x40 MLOAD PUSH1 0x20 DUP2 DUP4 SUB SUB DUP2 MSTORE SWAP1 PUSH1 0x40 MSTORE PUSH32 0x13AF403500000000000000000000000000000000000000000000000000000000 PUSH28 0xFFFFFFFFFFFFFFFFFFFFFFFFFFFFFFFFFFFFFFFFFFFFFFFFFFFFFFFF NOT AND PUSH1 0x20 DUP3 ADD DUP1 MLOAD PUSH28 0xFFFFFFFFFFFFFFFFFFFFFFFFFFFFFFFFFFFFFFFFFFFFFFFFFFFFFFFF DUP4 DUP2 DUP4 AND OR DUP4 MSTORE POP POP POP POP PUSH1 0x7 PUSH1 0x6 PUSH1 0x1 PUSH2 0xDE2 JUMP JUMPDEST PUSH1 0x3 DUP1 SLOAD SWAP1 POP SWAP1 POP SWAP3 SWAP2 POP POP JUMP JUMPDEST PUSH1 0x4 PUSH0 CALLER PUSH20 0xFFFFFFFFFFFFFFFFFFFFFFFFFFFFFFFFFFFFFFFF AND PUSH20 0xFFFFFFFFFFFFFFFFFFFFFFFFFFFFFFFFFFFFFFFF AND DUP2 MSTORE PUSH1 0x20 ADD SWAP1 DUP2 MSTORE PUSH1 0x20 ADD PUSH0 KECCAK256 PUSH0 SWAP1 SLOAD SWAP1 PUSH2 0x100 EXP SWAP1 DIV PUSH1 0xFF AND PUSH2 0x8DD JUMPI PUSH1 0x40 MLOAD PUSH32 0x8C379A000000000000000000000000000000000000000000000000000000000 DUP2 MSTORE PUSH1 0x4 ADD PUSH2 0x8D4 SWAP1 PUSH2 0x1999 JUMP JUMPDEST PUSH1 0x40 MLOAD DUP1 SWAP2 SUB SWAP1 REVERT JUMPDEST PUSH0 PUSH0 SWAP1 POP JUMPDEST PUSH1 0x2 DUP1 SLOAD SWAP1 POP DUP2 PUSH1 0xFF AND LT ISZERO PUSH2 0x997 JUMPI PUSH0 PUSH1 0x5 PUSH0 PUSH1 0x2 DUP5 PUSH1 0xFF AND DUP2 SLOAD DUP2 LT PUSH2 0x90D JUMPI PUSH2 0x90C PUSH2 0x1B0A JUMP JUMPDEST JUMPDEST SWAP1 PUSH0 MSTORE PUSH1 0x20 PUSH0 KECCAK256 ADD PUSH0 SWAP1 SLOAD SWAP1 PUSH2 0x100 EXP SWAP1 DIV PUSH20 0xFFFFFFFFFFFFFFFFFFFFFFFFFFFFFFFFFFFFFFFF AND PUSH20 0xFFFFFFFFFFFFFFFFFFFFFFFFFFFFFFFFFFFFFFFF AND PUSH20 0xFFFFFFFFFFFFFFFFFFFFFFFFFFFFFFFFFFFFFFFF AND DUP2 MSTORE PUSH1 0x20 ADD SWAP1 DUP2 MSTORE PUSH1 0x20 ADD PUSH0 KECCAK256 PUSH0 PUSH2 0x100 EXP DUP2 SLOAD DUP2 PUSH1 0xFF MUL NOT AND SWAP1 DUP4 ISZERO ISZERO MUL OR SWAP1 SSTORE POP DUP1 DUP1 PUSH2 0x98F SWAP1 PUSH2 0x1B70 JUMP JUMPDEST SWAP2 POP POP PUSH2 0x8E2 JUMP JUMPDEST POP PUSH1 0x2 PUSH0 PUSH2 0x9A5 SWAP2 SWAP1 PUSH2 0x1361 JUMP JUMPDEST PUSH0 PUSH0 SWAP1 POP JUMPDEST DUP2 MLOAD DUP2 PUSH1 0xFF AND LT ISZERO PUSH2 0xB24 JUMPI PUSH1 0x5 PUSH0 DUP4 DUP4 PUSH1 0xFF AND DUP2 MLOAD DUP2 LT PUSH2 0x9CF JUMPI PUSH2 0x9CE PUSH2 0x1B0A JUMP JUMPDEST JUMPDEST PUSH1 0x20 MUL PUSH1 0x20 ADD ADD MLOAD PUSH20 0xFFFFFFFFFFFFFFFFFFFFFFFFFFFFFFFFFFFFFFFF AND PUSH20 0xFFFFFFFFFFFFFFFFFFFFFFFFFFFFFFFFFFFFFFFF AND DUP2 MSTORE PUSH1 0x20 ADD SWAP1 DUP2 MSTORE PUSH1 0x20 ADD PUSH0 KECCAK256 PUSH0 SWAP1 SLOAD SWAP1 PUSH2 0x100 EXP SWAP1 DIV PUSH1 0xFF AND PUSH2 0xB11 JUMPI PUSH1 0x2 DUP3 DUP3 PUSH1 0xFF AND DUP2 MLOAD DUP2 LT PUSH2 0xA39 JUMPI PUSH2 0xA38 PUSH2 0x1B0A JUMP JUMPDEST JUMPDEST PUSH1 0x20 MUL PUSH1 0x20 ADD ADD MLOAD SWAP1 DUP1 PUSH1 0x1 DUP2 SLOAD ADD DUP1 DUP3 SSTORE DUP1 SWAP2 POP POP PUSH1 0x1 SWAP1 SUB SWAP1 PUSH0 MSTORE PUSH1 0x20 PUSH0 KECCAK256 ADD PUSH0 SWAP1 SWAP2 SWAP1 SWAP2 SWAP1 SWAP2 PUSH2 0x100 EXP DUP2 SLOAD DUP2 PUSH20 0xFFFFFFFFFFFFFFFFFFFFFFFFFFFFFFFFFFFFFFFF MUL NOT AND SWAP1 DUP4 PUSH20 0xFFFFFFFFFFFFFFFFFFFFFFFFFFFFFFFFFFFFFFFF AND MUL OR SWAP1 SSTORE POP PUSH1 0x1 PUSH1 0x5 PUSH0 DUP5 DUP5 PUSH1 0xFF AND DUP2 MLOAD DUP2 LT PUSH2 0xAB9 JUMPI PUSH2 0xAB8 PUSH2 0x1B0A JUMP JUMPDEST JUMPDEST PUSH1 0x20 MUL PUSH1 0x20 ADD ADD MLOAD PUSH20 0xFFFFFFFFFFFFFFFFFFFFFFFFFFFFFFFFFFFFFFFF AND PUSH20 0xFFFFFFFFFFFFFFFFFFFFFFFFFFFFFFFFFFFFFFFF AND DUP2 MSTORE PUSH1 0x20 ADD SWAP1 DUP2 MSTORE PUSH1 0x20 ADD PUSH0 KECCAK256 PUSH0 PUSH2 0x100 EXP DUP2 SLOAD DUP2 PUSH1 0xFF MUL NOT AND SWAP1 DUP4 ISZERO ISZERO MUL OR SWAP1 SSTORE POP JUMPDEST DUP1 DUP1 PUSH2 0xB1C SWAP1 PUSH2 0x1B70 JUMP JUMPDEST SWAP2 POP POP PUSH2 0x9AA JUMP JUMPDEST POP POP JUMP JUMPDEST PUSH1 0x5 PUSH0 CALLER PUSH20 0xFFFFFFFFFFFFFFFFFFFFFFFFFFFFFFFFFFFFFFFF AND PUSH20 0xFFFFFFFFFFFFFFFFFFFFFFFFFFFFFFFFFFFFFFFF AND DUP2 MSTORE PUSH1 0x20 ADD SWAP1 DUP2 MSTORE PUSH1 0x20 ADD PUSH0 KECCAK256 PUSH0 SWAP1 SLOAD SWAP1 PUSH2 0x100 EXP SWAP1 DIV PUSH1 0xFF AND PUSH2 0xBB1 JUMPI PUSH1 0x40 MLOAD PUSH32 0x8C379A000000000000000000000000000000000000000000000000000000000 DUP2 MSTORE PUSH1 0x4 ADD PUSH2 0xBA8 SWAP1 PUSH2 0x1A8F JUMP JUMPDEST PUSH1 0x40 MLOAD DUP1 SWAP2 SUB SWAP1 REVERT JUMPDEST PUSH2 0xBC2 PUSH1 0x3 PUSH1 0x7 PUSH1 0x6 PUSH0 SLOAD DUP6 PUSH2 0xFC8 JUMP JUMPDEST POP JUMP JUMPDEST DUP4 DUP1 SLOAD SWAP1 POP DUP2 LT PUSH2 0xC0B JUMPI PUSH1 0x40 MLOAD PUSH32 0x8C379A000000000000000000000000000000000000000000000000000000000 DUP2 MSTORE PUSH1 0x4 ADD PUSH2 0xC02 SWAP1 PUSH2 0x1BE2 JUMP JUMPDEST PUSH1 0x40 MLOAD DUP1 SWAP2 SUB SWAP1 REVERT JUMPDEST DUP4 DUP2 DUP2 SLOAD DUP2 LT PUSH2 0xC1E JUMPI PUSH2 0xC1D PUSH2 0x1B0A JUMP JUMPDEST JUMPDEST SWAP1 PUSH0 MSTORE PUSH1 0x20 PUSH0 KECCAK256 SWAP1 PUSH1 0x2 MUL ADD PUSH1 0x1 ADD PUSH1 0x14 SWAP1 SLOAD SWAP1 PUSH2 0x100 EXP SWAP1 DIV PUSH1 0xFF AND PUSH2 0xC7A JUMPI PUSH1 0x40 MLOAD PUSH32 0x8C379A000000000000000000000000000000000000000000000000000000000 DUP2 MSTORE PUSH1 0x4 ADD PUSH2 0xC71 SWAP1 PUSH2 0x1C4A JUMP JUMPDEST PUSH1 0x40 MLOAD DUP1 SWAP2 SUB SWAP1 REVERT JUMPDEST DUP3 PUSH0 DUP3 DUP2 MSTORE PUSH1 0x20 ADD SWAP1 DUP2 MSTORE PUSH1 0x20 ADD PUSH0 KECCAK256 PUSH0 CALLER PUSH20 0xFFFFFFFFFFFFFFFFFFFFFFFFFFFFFFFFFFFFFFFF AND PUSH20 0xFFFFFFFFFFFFFFFFFFFFFFFFFFFFFFFFFFFFFFFF AND DUP2 MSTORE PUSH1 0x20 ADD SWAP1 DUP2 MSTORE PUSH1 0x20 ADD PUSH0 KECCAK256 PUSH0 SWAP1 SLOAD SWAP1 PUSH2 0x100 EXP SWAP1 DIV PUSH1 0xFF AND PUSH2 0xD11 JUMPI PUSH1 0x40 MLOAD PUSH32 0x8C379A000000000000000000000000000000000000000000000000000000000 DUP2 MSTORE PUSH1 0x4 ADD PUSH2 0xD08 SWAP1 PUSH2 0x1CB2 JUMP JUMPDEST PUSH1 0x40 MLOAD DUP1 SWAP2 SUB SWAP1 REVERT JUMPDEST PUSH0 DUP4 PUSH0 DUP4 DUP2 MSTORE PUSH1 0x20 ADD SWAP1 DUP2 MSTORE PUSH1 0x20 ADD PUSH0 KECCAK256 PUSH0 CALLER PUSH20 0xFFFFFFFFFFFFFFFFFFFFFFFFFFFFFFFFFFFFFFFF AND PUSH20 0xFFFFFFFFFFFFFFFFFFFFFFFFFFFFFFFFFFFFFFFF AND DUP2 MSTORE PUSH1 0x20 ADD SWAP1 DUP2 MSTORE PUSH1 0x20 ADD PUSH0 KECCAK256 PUSH0 PUSH2 0x100 EXP DUP2 SLOAD DUP2 PUSH1 0xFF MUL NOT AND SWAP1 DUP4 ISZERO ISZERO MUL OR SWAP1 SSTORE POP DUP2 PUSH0 DUP3 DUP2 MSTORE PUSH1 0x20 ADD SWAP1 DUP2 MSTORE PUSH1 0x20 ADD PUSH0 KECCAK256 PUSH0 DUP2 SLOAD DUP1 SWAP3 SWAP2 SWAP1 PUSH2 0xD93 SWAP1 PUSH2 0x1CD0 JUMP JUMPDEST SWAP2 SWAP1 POP SSTORE POP DUP1 CALLER PUSH20 0xFFFFFFFFFFFFFFFFFFFFFFFFFFFFFFFFFFFFFFFF AND PUSH32 0xF0DCA620E2E81F7841D07BCC105E1704FB01475B278A9D4C236E1C62945EDD55 PUSH1 0x40 MLOAD PUSH1 0x40 MLOAD DUP1 SWAP2 SUB SWAP1 LOG3 POP POP POP POP JUMP JUMPDEST DUP6 PUSH1 0x40 MLOAD DUP1 PUSH1 0x80 ADD PUSH1 0x40 MSTORE DUP1 DUP7 DUP2 MSTORE PUSH1 0x20 ADD DUP8 PUSH20 0xFFFFFFFFFFFFFFFFFFFFFFFFFFFFFFFFFFFFFFFF AND DUP2 MSTORE PUSH1 0x20 ADD PUSH0 ISZERO ISZERO DUP2 MSTORE PUSH1 0x20 ADD DUP4 ISZERO ISZERO DUP2 MSTORE POP SWAP1 DUP1 PUSH1 0x1 DUP2 SLOAD ADD DUP1 DUP3 SSTORE DUP1 SWAP2 POP POP PUSH1 0x1 SWAP1 SUB SWAP1 PUSH0 MSTORE PUSH1 0x20 PUSH0 KECCAK256 SWAP1 PUSH1 0x2 MUL ADD PUSH0 SWAP1 SWAP2 SWAP1 SWAP2 SWAP1 SWAP2 POP PUSH0 DUP3 ADD MLOAD DUP2 PUSH0 ADD SWAP1 DUP2 PUSH2 0xE57 SWAP2 SWAP1 PUSH2 0x1E97 JUMP JUMPDEST POP PUSH1 0x20 DUP3 ADD MLOAD DUP2 PUSH1 0x1 ADD PUSH0 PUSH2 0x100 EXP DUP2 SLOAD DUP2 PUSH20 0xFFFFFFFFFFFFFFFFFFFFFFFFFFFFFFFFFFFFFFFF MUL NOT AND SWAP1 DUP4 PUSH20 0xFFFFFFFFFFFFFFFFFFFFFFFFFFFFFFFFFFFFFFFF AND MUL OR SWAP1 SSTORE POP PUSH1 0x40 DUP3 ADD MLOAD DUP2 PUSH1 0x1 ADD PUSH1 0x14 PUSH2 0x100 EXP DUP2 SLOAD DUP2 PUSH1 0xFF MUL NOT AND SWAP1 DUP4 ISZERO ISZERO MUL OR SWAP1 SSTORE POP PUSH1 0x60 DUP3 ADD MLOAD DUP2 PUSH1 0x1 ADD PUSH1 0x15 PUSH2 0x100 EXP DUP2 SLOAD DUP2 PUSH1 0xFF MUL NOT AND SWAP1 DUP4 ISZERO ISZERO MUL OR SWAP1 SSTORE POP POP POP PUSH0 DUP7 DUP1 SLOAD SWAP1 POP SWAP1 POP PUSH1 0x1 DUP5 PUSH0 DUP4 DUP2 MSTORE PUSH1 0x20 ADD SWAP1 DUP2 MSTORE PUSH1 0x20 ADD PUSH0 KECCAK256 PUSH0 CALLER PUSH20 0xFFFFFFFFFFFFFFFFFFFFFFFFFFFFFFFFFFFFFFFF AND PUSH20 0xFFFFFFFFFFFFFFFFFFFFFFFFFFFFFFFFFFFFFFFF AND DUP2 MSTORE PUSH1 0x20 ADD SWAP1 DUP2 MSTORE PUSH1 0x20 ADD PUSH0 KECCAK256 PUSH0 PUSH2 0x100 EXP DUP2 SLOAD DUP2 PUSH1 0xFF MUL NOT AND SWAP1 DUP4 ISZERO ISZERO MUL OR SWAP1 SSTORE POP DUP3 PUSH0 DUP3 DUP2 MSTORE PUSH1 0x20 ADD SWAP1 DUP2 MSTORE PUSH1 0x20 ADD PUSH0 KECCAK256 PUSH0 DUP2 SLOAD DUP1 SWAP3 SWAP2 SWAP1 PUSH2 0xF6B SWAP1 PUSH2 0x1F66 JUMP JUMPDEST SWAP2 SWAP1 POP SSTORE POP DUP1 CALLER PUSH20 0xFFFFFFFFFFFFFFFFFFFFFFFFFFFFFFFFFFFFFFFF AND PUSH32 0xEB45F38AD35CF41B4F9BE8CFCCA269EF78EA04216DBC8B8A38F28491C84D005A DUP8 PUSH1 0x40 MLOAD PUSH2 0xFB7 SWAP2 SWAP1 PUSH2 0x1FF5 JUMP JUMPDEST PUSH1 0x40 MLOAD DUP1 SWAP2 SUB SWAP1 LOG3 POP POP POP POP POP POP POP JUMP JUMPDEST DUP4 PUSH0 DUP3 DUP2 MSTORE PUSH1 0x20 ADD SWAP1 DUP2 MSTORE PUSH1 0x20 ADD PUSH0 KECCAK256 PUSH0 CALLER PUSH20 0xFFFFFFFFFFFFFFFFFFFFFFFFFFFFFFFFFFFFFFFF AND PUSH20 0xFFFFFFFFFFFFFFFFFFFFFFFFFFFFFFFFFFFFFFFF AND DUP2 MSTORE PUSH1 0x20 ADD SWAP1 DUP2 MSTORE PUSH1 0x20 ADD PUSH0 KECCAK256 PUSH0 SWAP1 SLOAD SWAP1 PUSH2 0x100 EXP SWAP1 DIV PUSH1 0xFF AND ISZERO PUSH2 0x1060 JUMPI PUSH1 0x40 MLOAD PUSH32 0x8C379A000000000000000000000000000000000000000000000000000000000 DUP2 MSTORE PUSH1 0x4 ADD PUSH2 0x1057 SWAP1 PUSH2 0x205F JUMP JUMPDEST PUSH1 0x40 MLOAD DUP1 SWAP2 SUB SWAP1 REVERT JUMPDEST PUSH1 0x1 DUP5 PUSH0 DUP4 DUP2 MSTORE PUSH1 0x20 ADD SWAP1 DUP2 MSTORE PUSH1 0x20 ADD PUSH0 KECCAK256 PUSH0 CALLER PUSH20 0xFFFFFFFFFFFFFFFFFFFFFFFFFFFFFFFFFFFFFFFF AND PUSH20 0xFFFFFFFFFFFFFFFFFFFFFFFFFFFFFFFFFFFFFFFF AND DUP2 MSTORE PUSH1 0x20 ADD SWAP1 DUP2 MSTORE PUSH1 0x20 ADD PUSH0 KECCAK256 PUSH0 PUSH2 0x100 EXP DUP2 SLOAD DUP2 PUSH1 0xFF MUL NOT AND SWAP1 DUP4 ISZERO ISZERO MUL OR SWAP1 SSTORE POP DUP3 PUSH0 DUP3 DUP2 MSTORE PUSH1 0x20 ADD SWAP1 DUP2 MSTORE PUSH1 0x20 ADD PUSH0 KECCAK256 PUSH0 DUP2 SLOAD DUP1 SWAP3 SWAP2 SWAP1 PUSH2 0x10E3 SWAP1 PUSH2 0x1F66 JUMP JUMPDEST SWAP2 SWAP1 POP SSTORE POP DUP1 CALLER PUSH20 0xFFFFFFFFFFFFFFFFFFFFFFFFFFFFFFFFFFFFFFFF AND PUSH32 0x5CBE105E36805F7820E291F799D5794FF948AF2A5F664E580382DEFB63390041 PUSH1 0x40 MLOAD PUSH1 0x40 MLOAD DUP1 SWAP2 SUB SWAP1 LOG3 DUP2 DUP4 PUSH0 DUP4 DUP2 MSTORE PUSH1 0x20 ADD SWAP1 DUP2 MSTORE PUSH1 0x20 ADD PUSH0 KECCAK256 SLOAD LT PUSH2 0x114E JUMPI PUSH2 0x114D DUP6 DUP3 PUSH2 0x1155 JUMP JUMPDEST JUMPDEST POP POP POP POP POP JUMP JUMPDEST DUP2 DUP1 SLOAD SWAP1 POP DUP2 LT PUSH2 0x119B JUMPI PUSH1 0x40 MLOAD PUSH32 0x8C379A000000000000000000000000000000000000000000000000000000000 DUP2 MSTORE PUSH1 0x4 ADD PUSH2 0x1192 SWAP1 PUSH2 0x1BE2 JUMP JUMPDEST PUSH1 0x40 MLOAD DUP1 SWAP2 SUB SWAP1 REVERT JUMPDEST DUP2 DUP2 DUP2 SLOAD DUP2 LT PUSH2 0x11AE JUMPI PUSH2 0x11AD PUSH2 0x1B0A JUMP JUMPDEST JUMPDEST SWAP1 PUSH0 MSTORE PUSH1 0x20 PUSH0 KECCAK256 SWAP1 PUSH1 0x2 MUL ADD PUSH1 0x1 ADD PUSH1 0x14 SWAP1 SLOAD SWAP1 PUSH2 0x100 EXP SWAP1 DIV PUSH1 0xFF AND ISZERO PUSH2 0x120B JUMPI PUSH1 0x40 MLOAD PUSH32 0x8C379A000000000000000000000000000000000000000000000000000000000 DUP2 MSTORE PUSH1 0x4 ADD PUSH2 0x1202 SWAP1 PUSH2 0x20C7 JUMP JUMPDEST PUSH1 0x40 MLOAD DUP1 SWAP2 SUB SWAP1 REVERT JUMPDEST PUSH0 DUP3 DUP3 DUP2 SLOAD DUP2 LT PUSH2 0x121F JUMPI PUSH2 0x121E PUSH2 0x1B0A JUMP JUMPDEST JUMPDEST SWAP1 PUSH0 MSTORE PUSH1 0x20 PUSH0 KECCAK256 SWAP1 PUSH1 0x2 MUL ADD SWAP1 POP PUSH1 0x1 DUP2 PUSH1 0x1 ADD PUSH1 0x14 PUSH2 0x100 EXP DUP2 SLOAD DUP2 PUSH1 0xFF MUL NOT AND SWAP1 DUP4 ISZERO ISZERO MUL OR SWAP1 SSTORE POP PUSH0 DUP2 PUSH1 0x1 ADD PUSH0 SWAP1 SLOAD SWAP1 PUSH2 0x100 EXP SWAP1 DIV PUSH20 0xFFFFFFFFFFFFFFFFFFFFFFFFFFFFFFFFFFFFFFFF AND PUSH20 0xFFFFFFFFFFFFFFFFFFFFFFFFFFFFFFFFFFFFFFFF AND DUP3 PUSH0 ADD PUSH1 0x40 MLOAD PUSH2 0x1295 SWAP2 SWAP1 PUSH2 0x216F JUMP JUMPDEST PUSH0 PUSH1 0x40 MLOAD DUP1 DUP4 SUB DUP2 PUSH0 DUP7 GAS CALL SWAP2 POP POP RETURNDATASIZE DUP1 PUSH0 DUP2 EQ PUSH2 0x12CE JUMPI PUSH1 0x40 MLOAD SWAP2 POP PUSH1 0x1F NOT PUSH1 0x3F RETURNDATASIZE ADD AND DUP3 ADD PUSH1 0x40 MSTORE RETURNDATASIZE DUP3 MSTORE RETURNDATASIZE PUSH0 PUSH1 0x20 DUP5 ADD RETURNDATACOPY PUSH2 0x12D3 JUMP JUMPDEST PUSH1 0x60 SWAP2 POP JUMPDEST POP POP SWAP1 POP DUP1 PUSH2 0x1317 JUMPI PUSH1 0x40 MLOAD PUSH32 0x8C379A000000000000000000000000000000000000000000000000000000000 DUP2 MSTORE PUSH1 0x4 ADD PUSH2 0x130E SWAP1 PUSH2 0x21CF JUMP JUMPDEST PUSH1 0x40 MLOAD DUP1 SWAP2 SUB SWAP1 REVERT JUMPDEST DUP3 CALLER PUSH20 0xFFFFFFFFFFFFFFFFFFFFFFFFFFFFFFFFFFFFFFFF AND PUSH32 0x5445F318F4F5FCFB66592E68E0CC5822AA15664039BD5F0FFDE24C5A8142B1AC PUSH1 0x40 MLOAD PUSH1 0x40 MLOAD DUP1 SWAP2 SUB SWAP1 LOG3 POP POP POP POP JUMP JUMPDEST POP DUP1 SLOAD PUSH0 DUP3 SSTORE SWAP1 PUSH0 MSTORE PUSH1 0x20 PUSH0 KECCAK256 SWAP1 DUP2 ADD SWAP1 PUSH2 0x137C SWAP2 SWAP1 PUSH2 0x137F JUMP JUMPDEST POP JUMP JUMPDEST JUMPDEST DUP1 DUP3 GT ISZERO PUSH2 0x1396 JUMPI PUSH0 DUP2 PUSH0 SWAP1 SSTORE POP PUSH1 0x1 ADD PUSH2 0x1380 JUMP JUMPDEST POP SWAP1 JUMP JUMPDEST PUSH0 PUSH1 0x40 MLOAD SWAP1 POP SWAP1 JUMP JUMPDEST PUSH0 PUSH0 REVERT JUMPDEST PUSH0 PUSH0 REVERT JUMPDEST PUSH0 DUP2 SWAP1 POP SWAP2 SWAP1 POP JUMP JUMPDEST PUSH2 0x13BD DUP2 PUSH2 0x13AB JUMP JUMPDEST DUP2 EQ PUSH2 0x13C7 JUMPI PUSH0 PUSH0 REVERT JUMPDEST POP JUMP JUMPDEST PUSH0 DUP2 CALLDATALOAD SWAP1 POP PUSH2 0x13D8 DUP2 PUSH2 0x13B4 JUMP JUMPDEST SWAP3 SWAP2 POP POP JUMP JUMPDEST PUSH0 PUSH1 0x20 DUP3 DUP5 SUB SLT ISZERO PUSH2 0x13F3 JUMPI PUSH2 0x13F2 PUSH2 0x13A3 JUMP JUMPDEST JUMPDEST PUSH0 PUSH2 0x1400 DUP5 DUP3 DUP6 ADD PUSH2 0x13CA JUMP JUMPDEST SWAP2 POP POP SWAP3 SWAP2 POP POP JUMP JUMPDEST PUSH0 PUSH20 0xFFFFFFFFFFFFFFFFFFFFFFFFFFFFFFFFFFFFFFFF DUP3 AND SWAP1 POP SWAP2 SWAP1 POP JUMP JUMPDEST PUSH0 PUSH2 0x1432 DUP3 PUSH2 0x1409 JUMP JUMPDEST SWAP1 POP SWAP2 SWAP1 POP JUMP JUMPDEST PUSH2 0x1442 DUP2 PUSH2 0x1428 JUMP JUMPDEST DUP2 EQ PUSH2 0x144C JUMPI PUSH0 PUSH0 REVERT JUMPDEST POP JUMP JUMPDEST PUSH0 DUP2 CALLDATALOAD SWAP1 POP PUSH2 0x145D DUP2 PUSH2 0x1439 JUMP JUMPDEST SWAP3 SWAP2 POP POP JUMP JUMPDEST PUSH0 PUSH1 0x20 DUP3 DUP5 SUB SLT ISZERO PUSH2 0x1478 JUMPI PUSH2 0x1477 PUSH2 0x13A3 JUMP JUMPDEST JUMPDEST PUSH0 PUSH2 0x1485 DUP5 DUP3 DUP6 ADD PUSH2 0x144F JUMP JUMPDEST SWAP2 POP POP SWAP3 SWAP2 POP POP JUMP JUMPDEST PUSH0 DUP2 MLOAD SWAP1 POP SWAP2 SWAP1 POP JUMP JUMPDEST PUSH0 DUP3 DUP3 MSTORE PUSH1 0x20 DUP3 ADD SWAP1 POP SWAP3 SWAP2 POP POP JUMP JUMPDEST PUSH0 DUP2 SWAP1 POP PUSH1 0x20 DUP3 ADD SWAP1 POP SWAP2 SWAP1 POP JUMP JUMPDEST PUSH2 0x14C0 DUP2 PUSH2 0x1428 JUMP JUMPDEST DUP3 MSTORE POP POP JUMP JUMPDEST PUSH0 PUSH2 0x14D1 DUP4 DUP4 PUSH2 0x14B7 JUMP JUMPDEST PUSH1 0x20 DUP4 ADD SWAP1 POP SWAP3 SWAP2 POP POP JUMP JUMPDEST PUSH0 PUSH1 0x20 DUP3 ADD SWAP1 POP SWAP2 SWAP1 POP JUMP JUMPDEST PUSH0 PUSH2 0x14F3 DUP3 PUSH2 0x148E JUMP JUMPDEST PUSH2 0x14FD DUP2 DUP6 PUSH2 0x1498 JUMP JUMPDEST SWAP4 POP PUSH2 0x1508 DUP4 PUSH2 0x14A8 JUMP JUMPDEST DUP1 PUSH0 JUMPDEST DUP4 DUP2 LT ISZERO PUSH2 0x1538 JUMPI DUP2 MLOAD PUSH2 0x151F DUP9 DUP3 PUSH2 0x14C6 JUMP JUMPDEST SWAP8 POP PUSH2 0x152A DUP4 PUSH2 0x14DD JUMP JUMPDEST SWAP3 POP POP PUSH1 0x1 DUP2 ADD SWAP1 POP PUSH2 0x150B JUMP JUMPDEST POP DUP6 SWAP4 POP POP POP POP SWAP3 SWAP2 POP POP JUMP JUMPDEST PUSH0 PUSH1 0x20 DUP3 ADD SWAP1 POP DUP2 DUP2 SUB PUSH0 DUP4 ADD MSTORE PUSH2 0x155D DUP2 DUP5 PUSH2 0x14E9 JUMP JUMPDEST SWAP1 POP SWAP3 SWAP2 POP POP JUMP JUMPDEST PUSH2 0x156E DUP2 PUSH2 0x13AB JUMP JUMPDEST DUP3 MSTORE POP POP JUMP JUMPDEST PUSH0 PUSH1 0x20 DUP3 ADD SWAP1 POP PUSH2 0x1587 PUSH0 DUP4 ADD DUP5 PUSH2 0x1565 JUMP JUMPDEST SWAP3 SWAP2 POP POP JUMP JUMPDEST PUSH0 DUP2 MLOAD SWAP1 POP SWAP2 SWAP1 POP JUMP JUMPDEST PUSH0 DUP3 DUP3 MSTORE PUSH1 0x20 DUP3 ADD SWAP1 POP SWAP3 SWAP2 POP POP JUMP JUMPDEST PUSH0 DUP2 SWAP1 POP PUSH1 0x20 DUP3 ADD SWAP1 POP SWAP2 SWAP1 POP JUMP JUMPDEST PUSH0 DUP2 MLOAD SWAP1 POP SWAP2 SWAP1 POP JUMP JUMPDEST PUSH0 DUP3 DUP3 MSTORE PUSH1 0x20 DUP3 ADD SWAP1 POP SWAP3 SWAP2 POP POP JUMP JUMPDEST DUP3 DUP2 DUP4 MCOPY PUSH0 DUP4 DUP4 ADD MSTORE POP POP POP JUMP JUMPDEST PUSH0 PUSH1 0x1F NOT PUSH1 0x1F DUP4 ADD AND SWAP1 POP SWAP2 SWAP1 POP JUMP JUMPDEST PUSH0 PUSH2 0x15F8 DUP3 PUSH2 0x15B6 JUMP JUMPDEST PUSH2 0x1602 DUP2 DUP6 PUSH2 0x15C0 JUMP JUMPDEST SWAP4 POP PUSH2 0x1612 DUP2 DUP6 PUSH1 0x20 DUP7 ADD PUSH2 0x15D0 JUMP JUMPDEST PUSH2 0x161B DUP2 PUSH2 0x15DE JUMP JUMPDEST DUP5 ADD SWAP2 POP POP SWAP3 SWAP2 POP POP JUMP JUMPDEST PUSH0 DUP2 ISZERO ISZERO SWAP1 POP SWAP2 SWAP1 POP JUMP JUMPDEST PUSH2 0x163A DUP2 PUSH2 0x1626 JUMP JUMPDEST DUP3 MSTORE POP POP JUMP JUMPDEST PUSH0 PUSH1 0x80 DUP4 ADD PUSH0 DUP4 ADD MLOAD DUP5 DUP3 SUB PUSH0 DUP7 ADD MSTORE PUSH2 0x165A DUP3 DUP3 PUSH2 0x15EE JUMP JUMPDEST SWAP2 POP POP PUSH1 0x20 DUP4 ADD MLOAD PUSH2 0x166F PUSH1 0x20 DUP7 ADD DUP3 PUSH2 0x14B7 JUMP JUMPDEST POP PUSH1 0x40 DUP4 ADD MLOAD PUSH2 0x1682 PUSH1 0x40 DUP7 ADD DUP3 PUSH2 0x1631 JUMP JUMPDEST POP PUSH1 0x60 DUP4 ADD MLOAD PUSH2 0x1695 PUSH1 0x60 DUP7 ADD DUP3 PUSH2 0x1631 JUMP JUMPDEST POP DUP1 SWAP2 POP POP SWAP3 SWAP2 POP POP JUMP JUMPDEST PUSH0 PUSH2 0x16AB DUP4 DUP4 PUSH2 0x1640 JUMP JUMPDEST SWAP1 POP SWAP3 SWAP2 POP POP JUMP JUMPDEST PUSH0 PUSH1 0x20 DUP3 ADD SWAP1 POP SWAP2 SWAP1 POP JUMP JUMPDEST PUSH0 PUSH2 0x16C9 DUP3 PUSH2 0x158D JUMP JUMPDEST PUSH2 0x16D3 DUP2 DUP6 PUSH2 0x1597 JUMP JUMPDEST SWAP4 POP DUP4 PUSH1 0x20 DUP3 MUL DUP6 ADD PUSH2 0x16E5 DUP6 PUSH2 0x15A7 JUMP JUMPDEST DUP1 PUSH0 JUMPDEST DUP6 DUP2 LT ISZERO PUSH2 0x1720 JUMPI DUP5 DUP5 SUB DUP10 MSTORE DUP2 MLOAD PUSH2 0x1701 DUP6 DUP3 PUSH2 0x16A0 JUMP JUMPDEST SWAP5 POP PUSH2 0x170C DUP4 PUSH2 0x16B3 JUMP JUMPDEST SWAP3 POP PUSH1 0x20 DUP11 ADD SWAP10 POP POP PUSH1 0x1 DUP2 ADD SWAP1 POP PUSH2 0x16E8 JUMP JUMPDEST POP DUP3 SWAP8 POP DUP8 SWAP6 POP POP POP POP POP POP SWAP3 SWAP2 POP POP JUMP JUMPDEST PUSH0 PUSH1 0x20 DUP3 ADD SWAP1 POP DUP2 DUP2 SUB PUSH0 DUP4 ADD MSTORE PUSH2 0x174A DUP2 DUP5 PUSH2 0x16BF JUMP JUMPDEST SWAP1 POP SWAP3 SWAP2 POP POP JUMP JUMPDEST PUSH2 0x175B DUP2 PUSH2 0x1428 JUMP JUMPDEST DUP3 MSTORE POP POP JUMP JUMPDEST PUSH0 PUSH1 0x20 DUP3 ADD SWAP1 POP PUSH2 0x1774 PUSH0 DUP4 ADD DUP5 PUSH2 0x1752 JUMP JUMPDEST SWAP3 SWAP2 POP POP JUMP JUMPDEST PUSH0 PUSH0 PUSH1 0x40 DUP4 DUP6 SUB SLT ISZERO PUSH2 0x1790 JUMPI PUSH2 0x178F PUSH2 0x13A3 JUMP JUMPDEST JUMPDEST PUSH0 PUSH2 0x179D DUP6 DUP3 DUP7 ADD PUSH2 0x144F JUMP JUMPDEST SWAP3 POP POP PUSH1 0x20 PUSH2 0x17AE DUP6 DUP3 DUP7 ADD PUSH2 0x144F JUMP JUMPDEST SWAP2 POP POP SWAP3 POP SWAP3 SWAP1 POP JUMP JUMPDEST PUSH0 PUSH0 REVERT JUMPDEST PUSH32 0x4E487B7100000000000000000000000000000000000000000000000000000000 PUSH0 MSTORE PUSH1 0x41 PUSH1 0x4 MSTORE PUSH1 0x24 PUSH0 REVERT JUMPDEST PUSH2 0x17F2 DUP3 PUSH2 0x15DE JUMP JUMPDEST DUP2 ADD DUP2 DUP2 LT PUSH8 0xFFFFFFFFFFFFFFFF DUP3 GT OR ISZERO PUSH2 0x1811 JUMPI PUSH2 0x1810 PUSH2 0x17BC JUMP JUMPDEST JUMPDEST DUP1 PUSH1 0x40 MSTORE POP POP POP JUMP JUMPDEST PUSH0 PUSH2 0x1823 PUSH2 0x139A JUMP JUMPDEST SWAP1 POP PUSH2 0x182F DUP3 DUP3 PUSH2 0x17E9 JUMP JUMPDEST SWAP2 SWAP1 POP JUMP JUMPDEST PUSH0 PUSH8 0xFFFFFFFFFFFFFFFF DUP3 GT ISZERO PUSH2 0x184E JUMPI PUSH2 0x184D PUSH2 0x17BC JUMP JUMPDEST JUMPDEST PUSH1 0x20 DUP3 MUL SWAP1 POP PUSH1 0x20 DUP2 ADD SWAP1 POP SWAP2 SWAP1 POP JUMP JUMPDEST PUSH0 PUSH0 REVERT JUMPDEST PUSH0 PUSH2 0x1875 PUSH2 0x1870 DUP5 PUSH2 0x1834 JUMP JUMPDEST PUSH2 0x181A JUMP JUMPDEST SWAP1 POP DUP1 DUP4 DUP3 MSTORE PUSH1 0x20 DUP3 ADD SWAP1 POP PUSH1 0x20 DUP5 MUL DUP4 ADD DUP6 DUP2 GT ISZERO PUSH2 0x1898 JUMPI PUSH2 0x1897 PUSH2 0x185F JUMP JUMPDEST JUMPDEST DUP4 JUMPDEST DUP2 DUP2 LT ISZERO PUSH2 0x18C1 JUMPI DUP1 PUSH2 0x18AD DUP9 DUP3 PUSH2 0x144F JUMP JUMPDEST DUP5 MSTORE PUSH1 0x20 DUP5 ADD SWAP4 POP POP PUSH1 0x20 DUP2 ADD SWAP1 POP PUSH2 0x189A JUMP JUMPDEST POP POP POP SWAP4 SWAP3 POP POP POP JUMP JUMPDEST PUSH0 DUP3 PUSH1 0x1F DUP4 ADD SLT PUSH2 0x18DF JUMPI PUSH2 0x18DE PUSH2 0x17B8 JUMP JUMPDEST JUMPDEST DUP2 CALLDATALOAD PUSH2 0x18EF DUP5 DUP3 PUSH1 0x20 DUP7 ADD PUSH2 0x1863 JUMP JUMPDEST SWAP2 POP POP SWAP3 SWAP2 POP POP JUMP JUMPDEST PUSH0 PUSH1 0x20 DUP3 DUP5 SUB SLT ISZERO PUSH2 0x190D JUMPI PUSH2 0x190C PUSH2 0x13A3 JUMP JUMPDEST JUMPDEST PUSH0 DUP3 ADD CALLDATALOAD PUSH8 0xFFFFFFFFFFFFFFFF DUP2 GT ISZERO PUSH2 0x192A JUMPI PUSH2 0x1929 PUSH2 0x13A7 JUMP JUMPDEST JUMPDEST PUSH2 0x1936 DUP5 DUP3 DUP6 ADD PUSH2 0x18CB JUMP JUMPDEST SWAP2 POP POP SWAP3 SWAP2 POP POP JUMP JUMPDEST PUSH0 DUP3 DUP3 MSTORE PUSH1 0x20 DUP3 ADD SWAP1 POP SWAP3 SWAP2 POP POP JUMP JUMPDEST PUSH32 0x4F6E6C7920746865206F776E65722063616E2075736500000000000000000000 PUSH0 DUP3 ADD MSTORE POP JUMP JUMPDEST PUSH0 PUSH2 0x1983 PUSH1 0x16 DUP4 PUSH2 0x193F JUMP JUMPDEST SWAP2 POP PUSH2 0x198E DUP3 PUSH2 0x194F JUMP JUMPDEST PUSH1 0x20 DUP3 ADD SWAP1 POP SWAP2 SWAP1 POP JUMP JUMPDEST PUSH0 PUSH1 0x20 DUP3 ADD SWAP1 POP DUP2 DUP2 SUB PUSH0 DUP4 ADD MSTORE PUSH2 0x19B0 DUP2 PUSH2 0x1977 JUMP JUMPDEST SWAP1 POP SWAP2 SWAP1 POP JUMP JUMPDEST PUSH32 0x7265717569726564206E756D626572206D757374203E3D2031206F72203C3D20 PUSH0 DUP3 ADD MSTORE PUSH32 0x636F6E74726F6C6C6572206D656D6265722E0000000000000000000000000000 PUSH1 0x20 DUP3 ADD MSTORE POP JUMP JUMPDEST PUSH0 PUSH2 0x1A11 PUSH1 0x32 DUP4 PUSH2 0x193F JUMP JUMPDEST SWAP2 POP PUSH2 0x1A1C DUP3 PUSH2 0x19B7 JUMP JUMPDEST PUSH1 0x40 DUP3 ADD SWAP1 POP SWAP2 SWAP1 POP JUMP JUMPDEST PUSH0 PUSH1 0x20 DUP3 ADD SWAP1 POP DUP2 DUP2 SUB PUSH0 DUP4 ADD MSTORE PUSH2 0x1A3E DUP2 PUSH2 0x1A05 JUMP JUMPDEST SWAP1 POP SWAP2 SWAP1 POP JUMP JUMPDEST PUSH32 0x4F6E6C79207468652061646D696E6973747261746F722063616E207573650000 PUSH0 DUP3 ADD MSTORE POP JUMP JUMPDEST PUSH0 PUSH2 0x1A79 PUSH1 0x1E DUP4 PUSH2 0x193F JUMP JUMPDEST SWAP2 POP PUSH2 0x1A84 DUP3 PUSH2 0x1A45 JUMP JUMPDEST PUSH1 0x20 DUP3 ADD SWAP1 POP SWAP2 SWAP1 POP JUMP JUMPDEST PUSH0 PUSH1 0x20 DUP3 ADD SWAP1 POP DUP2 DUP2 SUB PUSH0 DUP4 ADD MSTORE PUSH2 0x1AA6 DUP2 PUSH2 0x1A6D JUMP JUMPDEST SWAP1 POP SWAP2 SWAP1 POP JUMP JUMPDEST PUSH32 0x4E487B7100000000000000000000000000000000000000000000000000000000 PUSH0 MSTORE PUSH1 0x22 PUSH1 0x4 MSTORE PUSH1 0x24 PUSH0 REVERT JUMPDEST PUSH0 PUSH1 0x2 DUP3 DIV SWAP1 POP PUSH1 0x1 DUP3 AND DUP1 PUSH2 0x1AF1 JUMPI PUSH1 0x7F DUP3 AND SWAP2 POP JUMPDEST PUSH1 0x20 DUP3 LT DUP2 SUB PUSH2 0x1B04 JUMPI PUSH2 0x1B03 PUSH2 0x1AAD JUMP JUMPDEST JUMPDEST POP SWAP2 SWAP1 POP JUMP JUMPDEST PUSH32 0x4E487B7100000000000000000000000000000000000000000000000000000000 PUSH0 MSTORE PUSH1 0x32 PUSH1 0x4 MSTORE PUSH1 0x24 PUSH0 REVERT JUMPDEST PUSH32 0x4E487B7100000000000000000000000000000000000000000000000000000000 PUSH0 MSTORE PUSH1 0x11 PUSH1 0x4 MSTORE PUSH1 0x24 PUSH0 REVERT JUMPDEST PUSH0 PUSH1 0xFF DUP3 AND SWAP1 POP SWAP2 SWAP1 POP JUMP JUMPDEST PUSH0 PUSH2 0x1B7A DUP3 PUSH2 0x1B64 JUMP JUMPDEST SWAP2 POP PUSH1 0xFF DUP3 SUB PUSH2 0x1B8D JUMPI PUSH2 0x1B8C PUSH2 0x1B37 JUMP JUMPDEST JUMPDEST PUSH1 0x1 DUP3 ADD SWAP1 POP SWAP2 SWAP1 POP JUMP JUMPDEST PUSH32 0x496E76616C6964207472616E73616374696F6E20696E64657800000000000000 PUSH0 DUP3 ADD MSTORE POP JUMP JUMPDEST PUSH0 PUSH2 0x1BCC PUSH1 0x19 DUP4 PUSH2 0x193F JUMP JUMPDEST SWAP2 POP PUSH2 0x1BD7 DUP3 PUSH2 0x1B98 JUMP JUMPDEST PUSH1 0x20 DUP3 ADD SWAP1 POP SWAP2 SWAP1 POP JUMP JUMPDEST PUSH0 PUSH1 0x20 DUP3 ADD SWAP1 POP DUP2 DUP2 SUB PUSH0 DUP4 ADD MSTORE PUSH2 0x1BF9 DUP2 PUSH2 0x1BC0 JUMP JUMPDEST SWAP1 POP SWAP2 SWAP1 POP JUMP JUMPDEST PUSH32 0x5472616E73616374696F6E206E6F742065786563757465640000000000000000 PUSH0 DUP3 ADD MSTORE POP JUMP JUMPDEST PUSH0 PUSH2 0x1C34 PUSH1 0x18 DUP4 PUSH2 0x193F JUMP JUMPDEST SWAP2 POP PUSH2 0x1C3F DUP3 PUSH2 0x1C00 JUMP JUMPDEST PUSH1 0x20 DUP3 ADD SWAP1 POP SWAP2 SWAP1 POP JUMP JUMPDEST PUSH0 PUSH1 0x20 DUP3 ADD SWAP1 POP DUP2 DUP2 SUB PUSH0 DUP4 ADD MSTORE PUSH2 0x1C61 DUP2 PUSH2 0x1C28 JUMP JUMPDEST SWAP1 POP SWAP2 SWAP1 POP JUMP JUMPDEST PUSH32 0x5472616E73616374696F6E206E6F7420636F6E6669726D656400000000000000 PUSH0 DUP3 ADD MSTORE POP JUMP JUMPDEST PUSH0 PUSH2 0x1C9C PUSH1 0x19 DUP4 PUSH2 0x193F JUMP JUMPDEST SWAP2 POP PUSH2 0x1CA7 DUP3 PUSH2 0x1C68 JUMP JUMPDEST PUSH1 0x20 DUP3 ADD SWAP1 POP SWAP2 SWAP1 POP JUMP JUMPDEST PUSH0 PUSH1 0x20 DUP3 ADD SWAP1 POP DUP2 DUP2 SUB PUSH0 DUP4 ADD MSTORE PUSH2 0x1CC9 DUP2 PUSH2 0x1C90 JUMP JUMPDEST SWAP1 POP SWAP2 SWAP1 POP JUMP JUMPDEST PUSH0 PUSH2 0x1CDA DUP3 PUSH2 0x13AB JUMP JUMPDEST SWAP2 POP PUSH0 DUP3 SUB PUSH2 0x1CEC JUMPI PUSH2 0x1CEB PUSH2 0x1B37 JUMP JUMPDEST JUMPDEST PUSH1 0x1 DUP3 SUB SWAP1 POP SWAP2 SWAP1 POP JUMP JUMPDEST PUSH0 DUP2 SWAP1 POP DUP2 PUSH0 MSTORE PUSH1 0x20 PUSH0 KECCAK256 SWAP1 POP SWAP2 SWAP1 POP JUMP JUMPDEST PUSH0 PUSH1 0x20 PUSH1 0x1F DUP4 ADD DIV SWAP1 POP SWAP2 SWAP1 POP JUMP JUMPDEST PUSH0 DUP3 DUP3 SHL SWAP1 POP SWAP3 SWAP2 POP POP JUMP JUMPDEST PUSH0 PUSH1 0x8 DUP4 MUL PUSH2 0x1D53 PUSH32 0xFFFFFFFFFFFFFFFFFFFFFFFFFFFFFFFFFFFFFFFFFFFFFFFFFFFFFFFFFFFFFFFF DUP3 PUSH2 0x1D18 JUMP JUMPDEST PUSH2 0x1D5D DUP7 DUP4 PUSH2 0x1D18 JUMP JUMPDEST SWAP6 POP DUP1 NOT DUP5 AND SWAP4 POP DUP1 DUP7 AND DUP5 OR SWAP3 POP POP POP SWAP4 SWAP3 POP POP POP JUMP JUMPDEST PUSH0 DUP2 SWAP1 POP SWAP2 SWAP1 POP JUMP JUMPDEST PUSH0 PUSH2 0x1D98 PUSH2 0x1D93 PUSH2 0x1D8E DUP5 PUSH2 0x13AB JUMP JUMPDEST PUSH2 0x1D75 JUMP JUMPDEST PUSH2 0x13AB JUMP JUMPDEST SWAP1 POP SWAP2 SWAP1 POP JUMP JUMPDEST PUSH0 DUP2 SWAP1 POP SWAP2 SWAP1 POP JUMP JUMPDEST PUSH2 0x1DB1 DUP4 PUSH2 0x1D7E JUMP JUMPDEST PUSH2 0x1DC5 PUSH2 0x1DBD DUP3 PUSH2 0x1D9F JUMP JUMPDEST DUP5 DUP5 SLOAD PUSH2 0x1D24 JUMP JUMPDEST DUP3 SSTORE POP POP POP POP JUMP JUMPDEST PUSH0 PUSH0 SWAP1 POP SWAP1 JUMP JUMPDEST PUSH2 0x1DDC PUSH2 0x1DCD JUMP JUMPDEST PUSH2 0x1DE7 DUP2 DUP5 DUP5 PUSH2 0x1DA8 JUMP JUMPDEST POP POP POP JUMP JUMPDEST JUMPDEST DUP2 DUP2 LT ISZERO PUSH2 0x1E0A JUMPI PUSH2 0x1DFF PUSH0 DUP3 PUSH2 0x1DD4 JUMP JUMPDEST PUSH1 0x1 DUP2 ADD SWAP1 POP PUSH2 0x1DED JUMP JUMPDEST POP POP JUMP JUMPDEST PUSH1 0x1F DUP3 GT ISZERO PUSH2 0x1E4F JUMPI PUSH2 0x1E20 DUP2 PUSH2 0x1CF7 JUMP JUMPDEST PUSH2 0x1E29 DUP5 PUSH2 0x1D09 JUMP JUMPDEST DUP2 ADD PUSH1 0x20 DUP6 LT ISZERO PUSH2 0x1E38 JUMPI DUP2 SWAP1 POP JUMPDEST PUSH2 0x1E4C PUSH2 0x1E44 DUP6 PUSH2 0x1D09 JUMP JUMPDEST DUP4 ADD DUP3 PUSH2 0x1DEC JUMP JUMPDEST POP POP JUMPDEST POP POP POP JUMP JUMPDEST PUSH0 DUP3 DUP3 SHR SWAP1 POP SWAP3 SWAP2 POP POP JUMP JUMPDEST PUSH0 PUSH2 0x1E6F PUSH0 NOT DUP5 PUSH1 0x8 MUL PUSH2 0x1E54 JUMP JUMPDEST NOT DUP1 DUP4 AND SWAP2 POP POP SWAP3 SWAP2 POP POP JUMP JUMPDEST PUSH0 PUSH2 0x1E87 DUP4 DUP4 PUSH2 0x1E60 JUMP JUMPDEST SWAP2 POP DUP3 PUSH1 0x2 MUL DUP3 OR SWAP1 POP SWAP3 SWAP2 POP POP JUMP JUMPDEST PUSH2 0x1EA0 DUP3 PUSH2 0x15B6 JUMP JUMPDEST PUSH8 0xFFFFFFFFFFFFFFFF DUP2 GT ISZERO PUSH2 0x1EB9 JUMPI PUSH2 0x1EB8 PUSH2 0x17BC JUMP JUMPDEST JUMPDEST PUSH2 0x1EC3 DUP3 SLOAD PUSH2 0x1ADA JUMP JUMPDEST PUSH2 0x1ECE DUP3 DUP3 DUP6 PUSH2 0x1E0E JUMP JUMPDEST PUSH0 PUSH1 0x20 SWAP1 POP PUSH1 0x1F DUP4 GT PUSH1 0x1 DUP2 EQ PUSH2 0x1EFF JUMPI PUSH0 DUP5 ISZERO PUSH2 0x1EED JUMPI DUP3 DUP8 ADD MLOAD SWAP1 POP JUMPDEST PUSH2 0x1EF7 DUP6 DUP3 PUSH2 0x1E7C JUMP JUMPDEST DUP7 SSTORE POP PUSH2 0x1F5E JUMP JUMPDEST PUSH1 0x1F NOT DUP5 AND PUSH2 0x1F0D DUP7 PUSH2 0x1CF7 JUMP JUMPDEST PUSH0 JUMPDEST DUP3 DUP2 LT ISZERO PUSH2 0x1F34 JUMPI DUP5 DUP10 ADD MLOAD DUP3 SSTORE PUSH1 0x1 DUP3 ADD SWAP2 POP PUSH1 0x20 DUP6 ADD SWAP5 POP PUSH1 0x20 DUP2 ADD SWAP1 POP PUSH2 0x1F0F JUMP JUMPDEST DUP7 DUP4 LT ISZERO PUSH2 0x1F51 JUMPI DUP5 DUP10 ADD MLOAD PUSH2 0x1F4D PUSH1 0x1F DUP10 AND DUP3 PUSH2 0x1E60 JUMP JUMPDEST DUP4 SSTORE POP JUMPDEST PUSH1 0x1 PUSH1 0x2 DUP9 MUL ADD DUP9 SSTORE POP POP POP JUMPDEST POP POP POP POP POP POP JUMP JUMPDEST PUSH0 PUSH2 0x1F70 DUP3 PUSH2 0x13AB JUMP JUMPDEST SWAP2 POP PUSH32 0xFFFFFFFFFFFFFFFFFFFFFFFFFFFFFFFFFFFFFFFFFFFFFFFFFFFFFFFFFFFFFFFF DUP3 SUB PUSH2 0x1FA2 JUMPI PUSH2 0x1FA1 PUSH2 0x1B37 JUMP JUMPDEST JUMPDEST PUSH1 0x1 DUP3 ADD SWAP1 POP SWAP2 SWAP1 POP JUMP JUMPDEST PUSH0 DUP3 DUP3 MSTORE PUSH1 0x20 DUP3 ADD SWAP1 POP SWAP3 SWAP2 POP POP JUMP JUMPDEST PUSH0 PUSH2 0x1FC7 DUP3 PUSH2 0x15B6 JUMP JUMPDEST PUSH2 0x1FD1 DUP2 DUP6 PUSH2 0x1FAD JUMP JUMPDEST SWAP4 POP PUSH2 0x1FE1 DUP2 DUP6 PUSH1 0x20 DUP7 ADD PUSH2 0x15D0 JUMP JUMPDEST PUSH2 0x1FEA DUP2 PUSH2 0x15DE JUMP JUMPDEST DUP5 ADD SWAP2 POP POP SWAP3 SWAP2 POP POP JUMP JUMPDEST PUSH0 PUSH1 0x20 DUP3 ADD SWAP1 POP DUP2 DUP2 SUB PUSH0 DUP4 ADD MSTORE PUSH2 0x200D DUP2 DUP5 PUSH2 0x1FBD JUMP JUMPDEST SWAP1 POP SWAP3 SWAP2 POP POP JUMP JUMPDEST PUSH32 0x5472616E73616374696F6E20616C726561647920636F6E6669726D6564000000 PUSH0 DUP3 ADD MSTORE POP JUMP JUMPDEST PUSH0 PUSH2 0x2049 PUSH1 0x1D DUP4 PUSH2 0x193F JUMP JUMPDEST SWAP2 POP PUSH2 0x2054 DUP3 PUSH2 0x2015 JUMP JUMPDEST PUSH1 0x20 DUP3 ADD SWAP1 POP SWAP2 SWAP1 POP JUMP JUMPDEST PUSH0 PUSH1 0x20 DUP3 ADD SWAP1 POP DUP2 DUP2 SUB PUSH0 DUP4 ADD MSTORE PUSH2 0x2076 DUP2 PUSH2 0x203D JUMP JUMPDEST SWAP1 POP SWAP2 SWAP1 POP JUMP JUMPDEST PUSH32 0x5472616E73616374696F6E20616C726561647920657865637574656400000000 PUSH0 DUP3 ADD MSTORE POP JUMP JUMPDEST PUSH0 PUSH2 0x20B1 PUSH1 0x1C DUP4 PUSH2 0x193F JUMP JUMPDEST SWAP2 POP PUSH2 0x20BC DUP3 PUSH2 0x207D JUMP JUMPDEST PUSH1 0x20 DUP3 ADD SWAP1 POP SWAP2 SWAP1 POP JUMP JUMPDEST PUSH0 PUSH1 0x20 DUP3 ADD SWAP1 POP DUP2 DUP2 SUB PUSH0 DUP4 ADD MSTORE PUSH2 0x20DE DUP2 PUSH2 0x20A5 JUMP JUMPDEST SWAP1 POP SWAP2 SWAP1 POP JUMP JUMPDEST PUSH0 DUP2 SWAP1 POP SWAP3 SWAP2 POP POP JUMP JUMPDEST PUSH0 DUP2 SLOAD PUSH2 0x20FB DUP2 PUSH2 0x1ADA JUMP JUMPDEST PUSH2 0x2105 DUP2 DUP7 PUSH2 0x20E5 JUMP JUMPDEST SWAP5 POP PUSH1 0x1 DUP3 AND PUSH0 DUP2 EQ PUSH2 0x211F JUMPI PUSH1 0x1 DUP2 EQ PUSH2 0x2134 JUMPI PUSH2 0x2166 JUMP JUMPDEST PUSH1 0xFF NOT DUP4 AND DUP7 MSTORE DUP2 ISZERO ISZERO DUP3 MUL DUP7 ADD SWAP4 POP PUSH2 0x2166 JUMP JUMPDEST PUSH2 0x213D DUP6 PUSH2 0x1CF7 JUMP JUMPDEST PUSH0 JUMPDEST DUP4 DUP2 LT ISZERO PUSH2 0x215E JUMPI DUP2 SLOAD DUP2 DUP10 ADD MSTORE PUSH1 0x1 DUP3 ADD SWAP2 POP PUSH1 0x20 DUP2 ADD SWAP1 POP PUSH2 0x213F JUMP JUMPDEST DUP4 DUP9 ADD SWAP6 POP POP POP JUMPDEST POP POP POP SWAP3 SWAP2 POP POP JUMP JUMPDEST PUSH0 PUSH2 0x217A DUP3 DUP5 PUSH2 0x20EF JUMP JUMPDEST SWAP2 POP DUP2 SWAP1 POP SWAP3 SWAP2 POP POP JUMP JUMPDEST PUSH32 0x5472616E73616374696F6E20657865637574696F6E206661696C656400000000 PUSH0 DUP3 ADD MSTORE POP JUMP JUMPDEST PUSH0 PUSH2 0x21B9 PUSH1 0x1C DUP4 PUSH2 0x193F JUMP JUMPDEST SWAP2 POP PUSH2 0x21C4 DUP3 PUSH2 0x2185 JUMP JUMPDEST PUSH1 0x20 DUP3 ADD SWAP1 POP SWAP2 SWAP1 POP JUMP JUMPDEST PUSH0 PUSH1 0x20 DUP3 ADD SWAP1 POP DUP2 DUP2 SUB PUSH0 DUP4 ADD MSTORE PUSH2 0x21E6 DUP2 PUSH2 0x21AD JUMP JUMPDEST SWAP1 POP SWAP2 SWAP1 POP JUMP INVALID LOG2 PUSH5 0x6970667358 0x22 SLT KECCAK256 0xF9 BALANCE 0xD9 0xD SIGNEXTEND 0xC 0xFC 0xCC DUP14 DUP12 PUSH18 0x2EFC8E33BD3E0DB13BC88F53D58E89FFD88E 0xE9 CODECOPY TIMESTAMP PUSH5 0x736F6C6343 STOP ADDMOD SHL STOP CALLER "
				},
				"gasEstimates": {
					"creation": {
						"codeDepositCost": "1747800",
						"executionCost": "infinite",
						"totalCost": "infinite"
					},
					"external": {
						"commitSetMarketOwner(address,address)": "infinite",
						"confirmTransaction(uint256)": "infinite",
						"getAdministrators()": "infinite",
						"getNumConfirmationsRequired()": "2520",
						"getOwner()": "2537",
						"getTransactions()": "infinite",
						"revokeConfirmation(uint256)": "infinite",
						"setAdministrators(address[])": "infinite",
						"setConfirmationsRequired(uint256)": "26922",
						"setOwner(address)": "77819"
					}
				},
				"methodIdentifiers": {
					"commitSetMarketOwner(address,address)": "ac02d288",
					"confirmTransaction(uint256)": "c01a8c84",
					"getAdministrators()": "543b3693",
					"getNumConfirmationsRequired()": "60523440",
					"getOwner()": "893d20e8",
					"getTransactions()": "83920e90",
					"revokeConfirmation(uint256)": "20ea8d86",
					"setAdministrators(address[])": "b4ce7d45",
					"setConfirmationsRequired(uint256)": "0a57dfb8",
					"setOwner(address)": "13af4035"
				}
			},
			"storageLayout": {
				"storage": [
					{
						"astId": 46,
						"contract": "contracts/Controller.sol:Controller",
						"label": "numConfirmationsRequired",
						"offset": 0,
						"slot": "0",
						"type": "t_uint256"
					},
					{
						"astId": 48,
						"contract": "contracts/Controller.sol:Controller",
						"label": "owner",
						"offset": 0,
						"slot": "1",
						"type": "t_address"
					},
					{
						"astId": 51,
						"contract": "contracts/Controller.sol:Controller",
						"label": "administrators",
						"offset": 0,
						"slot": "2",
						"type": "t_array(t_address)dyn_storage"
					},
					{
						"astId": 55,
						"contract": "contracts/Controller.sol:Controller",
						"label": "transactions",
						"offset": 0,
						"slot": "3",
						"type": "t_array(t_struct(Transaction)391_storage)dyn_storage"
					},
					{
						"astId": 59,
						"contract": "contracts/Controller.sol:Controller",
						"label": "isOwner",
						"offset": 0,
						"slot": "4",
						"type": "t_mapping(t_address,t_bool)"
					},
					{
						"astId": 63,
						"contract": "contracts/Controller.sol:Controller",
						"label": "isAdministrator",
						"offset": 0,
						"slot": "5",
						"type": "t_mapping(t_address,t_bool)"
					},
					{
						"astId": 67,
						"contract": "contracts/Controller.sol:Controller",
						"label": "numConfirmations",
						"offset": 0,
						"slot": "6",
						"type": "t_mapping(t_uint256,t_uint256)"
					},
					{
						"astId": 73,
						"contract": "contracts/Controller.sol:Controller",
						"label": "isConfirmed",
						"offset": 0,
						"slot": "7",
						"type": "t_mapping(t_uint256,t_mapping(t_address,t_bool))"
					}
				],
				"types": {
					"t_address": {
						"encoding": "inplace",
						"label": "address",
						"numberOfBytes": "20"
					},
					"t_array(t_address)dyn_storage": {
						"base": "t_address",
						"encoding": "dynamic_array",
						"label": "address[]",
						"numberOfBytes": "32"
					},
					"t_array(t_struct(Transaction)391_storage)dyn_storage": {
						"base": "t_struct(Transaction)391_storage",
						"encoding": "dynamic_array",
						"label": "struct MultiSig.Transaction[]",
						"numberOfBytes": "32"
					},
					"t_bool": {
						"encoding": "inplace",
						"label": "bool",
						"numberOfBytes": "1"
					},
					"t_bytes_storage": {
						"encoding": "bytes",
						"label": "bytes",
						"numberOfBytes": "32"
					},
					"t_mapping(t_address,t_bool)": {
						"encoding": "mapping",
						"key": "t_address",
						"label": "mapping(address => bool)",
						"numberOfBytes": "32",
						"value": "t_bool"
					},
					"t_mapping(t_uint256,t_mapping(t_address,t_bool))": {
						"encoding": "mapping",
						"key": "t_uint256",
						"label": "mapping(uint256 => mapping(address => bool))",
						"numberOfBytes": "32",
						"value": "t_mapping(t_address,t_bool)"
					},
					"t_mapping(t_uint256,t_uint256)": {
						"encoding": "mapping",
						"key": "t_uint256",
						"label": "mapping(uint256 => uint256)",
						"numberOfBytes": "32",
						"value": "t_uint256"
					},
					"t_struct(Transaction)391_storage": {
						"encoding": "inplace",
						"label": "struct MultiSig.Transaction",
						"members": [
							{
								"astId": 384,
								"contract": "contracts/Controller.sol:Controller",
								"label": "data",
								"offset": 0,
								"slot": "0",
								"type": "t_bytes_storage"
							},
							{
								"astId": 386,
								"contract": "contracts/Controller.sol:Controller",
								"label": "to",
								"offset": 0,
								"slot": "1",
								"type": "t_address"
							},
							{
								"astId": 388,
								"contract": "contracts/Controller.sol:Controller",
								"label": "executed",
								"offset": 20,
								"slot": "1",
								"type": "t_bool"
							},
							{
								"astId": 390,
								"contract": "contracts/Controller.sol:Controller",
								"label": "multi",
								"offset": 21,
								"slot": "1",
								"type": "t_bool"
							}
						],
						"numberOfBytes": "64"
					},
					"t_uint256": {
						"encoding": "inplace",
						"label": "uint256",
						"numberOfBytes": "32"
					}
				}
			},
			"userdoc": {
				"kind": "user",
				"methods": {},
				"version": 1
			}
		}
	}
}