{
	"contracts/Market.sol": {
		"Market": {
			"abi": [
				{
					"inputs": [
						{
							"internalType": "address[]",
							"name": "_admin",
							"type": "address[]"
						}
					],
					"stateMutability": "nonpayable",
					"type": "constructor"
				},
				{
					"anonymous": false,
					"inputs": [
						{
							"indexed": true,
							"internalType": "address",
							"name": "owner",
							"type": "address"
						},
						{
							"indexed": true,
							"internalType": "uint256",
							"name": "txIndex",
							"type": "uint256"
						}
					],
					"name": "ConfirmTransaction",
					"type": "event"
				},
				{
					"anonymous": false,
					"inputs": [
						{
							"indexed": true,
							"internalType": "address",
							"name": "owner",
							"type": "address"
						},
						{
							"indexed": true,
							"internalType": "uint256",
							"name": "txIndex",
							"type": "uint256"
						}
					],
					"name": "ExecuteTransaction",
					"type": "event"
				},
				{
					"anonymous": false,
					"inputs": [
						{
							"indexed": true,
							"internalType": "address",
							"name": "owner",
							"type": "address"
						},
						{
							"indexed": true,
							"internalType": "uint256",
							"name": "txIndex",
							"type": "uint256"
						}
					],
					"name": "RevokeConfirmation",
					"type": "event"
				},
				{
					"anonymous": false,
					"inputs": [
						{
							"indexed": true,
							"internalType": "address",
							"name": "owner",
							"type": "address"
						},
						{
							"indexed": true,
							"internalType": "uint256",
							"name": "txIndex",
							"type": "uint256"
						},
						{
							"indexed": false,
							"internalType": "bytes",
							"name": "data",
							"type": "bytes"
						}
					],
					"name": "SubmitTransaction",
					"type": "event"
				},
				{
					"inputs": [
						{
							"internalType": "uint256",
							"name": "_value",
							"type": "uint256"
						}
					],
					"name": "commitSetConfirmationsRequired",
					"outputs": [],
					"stateMutability": "nonpayable",
					"type": "function"
				},
				{
					"inputs": [
						{
							"internalType": "address",
							"name": "_newOwner",
							"type": "address"
						}
					],
					"name": "commitSetOwner",
					"outputs": [
						{
							"internalType": "uint256",
							"name": "",
							"type": "uint256"
						}
					],
					"stateMutability": "nonpayable",
					"type": "function"
				},
				{
					"inputs": [
						{
							"internalType": "uint256",
							"name": "_txIndex",
							"type": "uint256"
						}
					],
					"name": "confirmTransaction",
					"outputs": [],
					"stateMutability": "nonpayable",
					"type": "function"
				},
				{
					"inputs": [],
					"name": "getAdministrator",
					"outputs": [
						{
							"internalType": "address[]",
							"name": "",
							"type": "address[]"
						}
					],
					"stateMutability": "view",
					"type": "function"
				},
				{
					"inputs": [],
					"name": "getNumConfirmationsRequired",
					"outputs": [
						{
							"internalType": "uint256",
							"name": "",
							"type": "uint256"
						}
					],
					"stateMutability": "view",
					"type": "function"
				},
				{
					"inputs": [],
					"name": "getOwner",
					"outputs": [
						{
							"internalType": "address",
							"name": "",
							"type": "address"
						}
					],
					"stateMutability": "view",
					"type": "function"
				},
				{
					"inputs": [],
					"name": "getSendSwitch",
					"outputs": [
						{
							"internalType": "bool",
							"name": "",
							"type": "bool"
						}
					],
					"stateMutability": "view",
					"type": "function"
				},
				{
					"inputs": [],
					"name": "getTransactions",
					"outputs": [
						{
							"components": [
								{
									"internalType": "bytes",
									"name": "data",
									"type": "bytes"
								},
								{
									"internalType": "bool",
									"name": "executed",
									"type": "bool"
								},
								{
									"internalType": "bool",
									"name": "mulit",
									"type": "bool"
								}
							],
							"internalType": "struct Market.Transaction[]",
							"name": "",
							"type": "tuple[]"
						}
					],
					"stateMutability": "view",
					"type": "function"
				},
				{
					"inputs": [],
					"name": "getUSDT",
					"outputs": [
						{
							"internalType": "uint256",
							"name": "",
							"type": "uint256"
						}
					],
					"stateMutability": "view",
					"type": "function"
				},
				{
					"inputs": [
						{
							"internalType": "uint256",
							"name": "_txIndex",
							"type": "uint256"
						}
					],
					"name": "revokeConfirmation",
					"outputs": [],
					"stateMutability": "nonpayable",
					"type": "function"
				},
				{
					"inputs": [],
					"name": "sendSwitch",
					"outputs": [],
					"stateMutability": "nonpayable",
					"type": "function"
				},
				{
					"inputs": [
						{
							"internalType": "uint256",
							"name": "_core",
							"type": "uint256"
						},
						{
							"internalType": "uint256",
							"name": "_days",
							"type": "uint256"
						}
					],
					"name": "usdtApprove",
					"outputs": [
						{
							"internalType": "uint256",
							"name": "",
							"type": "uint256"
						}
					],
					"stateMutability": "nonpayable",
					"type": "function"
				},
				{
					"inputs": [
						{
							"internalType": "uint256",
							"name": "_cost",
							"type": "uint256"
						}
					],
					"name": "usdtReceive",
					"outputs": [],
					"stateMutability": "nonpayable",
					"type": "function"
				},
				{
					"inputs": [],
					"name": "usdtWithdraw",
					"outputs": [],
					"stateMutability": "nonpayable",
					"type": "function"
				}
			],
			"devdoc": {
				"kind": "dev",
				"methods": {},
				"version": 1
			},
			"evm": {
				"assembly": "    /* \"contracts/Market.sol\":417:8171  contract Market{... */\n  mstore(0x40, 0x80)\n    /* \"contracts/Market.sol\":1159:1160  0 */\n  0x00\n    /* \"contracts/Market.sol\":1134:1160  uint private productID = 0 */\n  0x01\n  sstore\n    /* \"contracts/Market.sol\":1193:1198  false */\n  0x00\n    /* \"contracts/Market.sol\":1166:1198  bool private sendToOwner = false */\n  0x02\n  exp(0x0100, 0x00)\n  dup2\n  sload\n  dup2\n  0xff\n  mul\n  not\n  and\n  swap1\n  dup4\n  iszero\n  iszero\n  mul\n  or\n  swap1\n  sstore\n  pop\n    /* \"contracts/Market.sol\":1685:2131  constructor(address[] memory _admin) {... */\n  callvalue\n  dup1\n  iszero\n  tag_1\n  jumpi\n  revert(0x00, 0x00)\ntag_1:\n  pop\n  mload(0x40)\n  sub(codesize, bytecodeSize)\n  dup1\n  bytecodeSize\n  dup4\n  codecopy\n  dup2\n  dup2\n  add\n  0x40\n  mstore\n  dup2\n  add\n  swap1\n  tag_2\n  swap2\n  swap1\n  tag_3\n  jump\t// in\ntag_2:\n    /* \"contracts/Market.sol\":1740:1750  msg.sender */\n  caller\n    /* \"contracts/Market.sol\":1732:1737  owner */\n  0x02\n  0x01\n    /* \"contracts/Market.sol\":1732:1750  owner = msg.sender */\n  0x0100\n  exp\n  dup2\n  sload\n  dup2\n  0xffffffffffffffffffffffffffffffffffffffff\n  mul\n  not\n  and\n  swap1\n  dup4\n  0xffffffffffffffffffffffffffffffffffffffff\n  and\n  mul\n  or\n  swap1\n  sstore\n  pop\n    /* \"contracts/Market.sol\":1774:1816  0x8B801270f3e02eA2AACCf134333D5E5A019eFf42 */\n  0x8b801270f3e02ea2aaccf134333d5e5a019eff42\n    /* \"contracts/Market.sol\":1760:1764  usdt */\n  0x0a\n  0x00\n    /* \"contracts/Market.sol\":1760:1817  usdt = IERC20(0x8B801270f3e02eA2AACCf134333D5E5A019eFf42) */\n  0x0100\n  exp\n  dup2\n  sload\n  dup2\n  0xffffffffffffffffffffffffffffffffffffffff\n  mul\n  not\n  and\n  swap1\n  dup4\n  0xffffffffffffffffffffffffffffffffffffffff\n  and\n  mul\n  or\n  swap1\n  sstore\n  pop\n    /* \"contracts/Market.sol\":1854:1860  _admin */\n  dup1\n    /* \"contracts/Market.sol\":1854:1867  _admin.length */\n  mload\n    /* \"contracts/Market.sol\":1827:1851  numConfirmationsRequired */\n  0x00\n    /* \"contracts/Market.sol\":1827:1867  numConfirmationsRequired = _admin.length */\n  dup2\n  swap1\n  sstore\n  pop\n    /* \"contracts/Market.sol\":1882:1893  uint8 index */\n  0x00\n    /* \"contracts/Market.sol\":1896:1897  0 */\n  0x00\n    /* \"contracts/Market.sol\":1882:1897  uint8 index = 0 */\n  swap1\n  pop\n    /* \"contracts/Market.sol\":1877:2125  for (uint8 index = 0; index < numConfirmationsRequired; index++) {... */\ntag_6:\n    /* \"contracts/Market.sol\":1907:1931  numConfirmationsRequired */\n  sload(0x00)\n    /* \"contracts/Market.sol\":1899:1904  index */\n  dup2\n    /* \"contracts/Market.sol\":1899:1931  index < numConfirmationsRequired */\n  0xff\n  and\n  lt\n    /* \"contracts/Market.sol\":1877:2125  for (uint8 index = 0; index < numConfirmationsRequired; index++) {... */\n  iszero\n  tag_7\n  jumpi\n    /* \"contracts/Market.sol\":1961:1976  isAdministrator */\n  0x05\n    /* \"contracts/Market.sol\":1961:1991  isAdministrator[_admin[index]] */\n  0x00\n    /* \"contracts/Market.sol\":1977:1983  _admin */\n  dup4\n    /* \"contracts/Market.sol\":1984:1989  index */\n  dup4\n    /* \"contracts/Market.sol\":1977:1990  _admin[index] */\n  0xff\n  and\n  dup2\n  mload\n  dup2\n  lt\n  tag_9\n  jumpi\n  tag_10\n  tag_11\n  jump\t// in\ntag_10:\ntag_9:\n  0x20\n  mul\n  0x20\n  add\n  add\n  mload\n    /* \"contracts/Market.sol\":1961:1991  isAdministrator[_admin[index]] */\n  0xffffffffffffffffffffffffffffffffffffffff\n  and\n  0xffffffffffffffffffffffffffffffffffffffff\n  and\n  dup2\n  mstore\n  0x20\n  add\n  swap1\n  dup2\n  mstore\n  0x20\n  add\n  0x00\n  keccak256\n  0x00\n  swap1\n  sload\n  swap1\n  0x0100\n  exp\n  swap1\n  div\n  0xff\n  and\n    /* \"contracts/Market.sol\":1956:2115  if (!isAdministrator[_admin[index]]) {... */\n  tag_12\n  jumpi\n    /* \"contracts/Market.sol\":2011:2025  administrators */\n  0x03\n    /* \"contracts/Market.sol\":2031:2037  _admin */\n  dup3\n    /* \"contracts/Market.sol\":2038:2043  index */\n  dup3\n    /* \"contracts/Market.sol\":2031:2044  _admin[index] */\n  0xff\n  and\n  dup2\n  mload\n  dup2\n  lt\n  tag_13\n  jumpi\n  tag_14\n  tag_11\n  jump\t// in\ntag_14:\ntag_13:\n  0x20\n  mul\n  0x20\n  add\n  add\n  mload\n    /* \"contracts/Market.sol\":2011:2045  administrators.push(_admin[index]) */\n  swap1\n  dup1\n  0x01\n  dup2\n  sload\n  add\n  dup1\n  dup3\n  sstore\n  dup1\n  swap2\n  pop\n  pop\n  0x01\n  swap1\n  sub\n  swap1\n  0x00\n  mstore\n  keccak256(0x00, 0x20)\n  add\n  0x00\n  swap1\n  swap2\n  swap1\n  swap2\n  swap1\n  swap2\n  0x0100\n  exp\n  dup2\n  sload\n  dup2\n  0xffffffffffffffffffffffffffffffffffffffff\n  mul\n  not\n  and\n  swap1\n  dup4\n  0xffffffffffffffffffffffffffffffffffffffff\n  and\n  mul\n  or\n  swap1\n  sstore\n  pop\n    /* \"contracts/Market.sol\":2096:2100  true */\n  0x01\n    /* \"contracts/Market.sol\":2063:2078  isAdministrator */\n  0x05\n    /* \"contracts/Market.sol\":2063:2093  isAdministrator[_admin[index]] */\n  0x00\n    /* \"contracts/Market.sol\":2079:2085  _admin */\n  dup5\n    /* \"contracts/Market.sol\":2086:2091  index */\n  dup5\n    /* \"contracts/Market.sol\":2079:2092  _admin[index] */\n  0xff\n  and\n  dup2\n  mload\n  dup2\n  lt\n  tag_16\n  jumpi\n  tag_17\n  tag_11\n  jump\t// in\ntag_17:\ntag_16:\n  0x20\n  mul\n  0x20\n  add\n  add\n  mload\n    /* \"contracts/Market.sol\":2063:2093  isAdministrator[_admin[index]] */\n  0xffffffffffffffffffffffffffffffffffffffff\n  and\n  0xffffffffffffffffffffffffffffffffffffffff\n  and\n  dup2\n  mstore\n  0x20\n  add\n  swap1\n  dup2\n  mstore\n  0x20\n  add\n  0x00\n  keccak256\n  0x00\n    /* \"contracts/Market.sol\":2063:2100  isAdministrator[_admin[index]] = true */\n  0x0100\n  exp\n  dup2\n  sload\n  dup2\n  0xff\n  mul\n  not\n  and\n  swap1\n  dup4\n  iszero\n  iszero\n  mul\n  or\n  swap1\n  sstore\n  pop\n    /* \"contracts/Market.sol\":1956:2115  if (!isAdministrator[_admin[index]]) {... */\ntag_12:\n    /* \"contracts/Market.sol\":1933:1940  index++ */\n  dup1\n  dup1\n  tag_18\n  swap1\n  tag_19\n  jump\t// in\ntag_18:\n  swap2\n  pop\n  pop\n    /* \"contracts/Market.sol\":1877:2125  for (uint8 index = 0; index < numConfirmationsRequired; index++) {... */\n  jump(tag_6)\ntag_7:\n  pop\n    /* \"contracts/Market.sol\":1685:2131  constructor(address[] memory _admin) {... */\n  pop\n    /* \"contracts/Market.sol\":417:8171  contract Market{... */\n  jump(tag_20)\n    /* \"#utility.yul\":7:82   */\ntag_21:\n    /* \"#utility.yul\":40:46   */\n  0x00\n    /* \"#utility.yul\":73:75   */\n  0x40\n    /* \"#utility.yul\":67:76   */\n  mload\n    /* \"#utility.yul\":57:76   */\n  swap1\n  pop\n    /* \"#utility.yul\":7:82   */\n  swap1\n  jump\t// out\n    /* \"#utility.yul\":88:205   */\ntag_22:\n    /* \"#utility.yul\":197:198   */\n  0x00\n    /* \"#utility.yul\":194:195   */\n  0x00\n    /* \"#utility.yul\":187:199   */\n  revert\n    /* \"#utility.yul\":211:328   */\ntag_23:\n    /* \"#utility.yul\":320:321   */\n  0x00\n    /* \"#utility.yul\":317:318   */\n  0x00\n    /* \"#utility.yul\":310:322   */\n  revert\n    /* \"#utility.yul\":334:451   */\ntag_24:\n    /* \"#utility.yul\":443:444   */\n  0x00\n    /* \"#utility.yul\":440:441   */\n  0x00\n    /* \"#utility.yul\":433:445   */\n  revert\n    /* \"#utility.yul\":457:559   */\ntag_25:\n    /* \"#utility.yul\":498:504   */\n  0x00\n    /* \"#utility.yul\":549:551   */\n  0x1f\n    /* \"#utility.yul\":545:552   */\n  not\n    /* \"#utility.yul\":540:542   */\n  0x1f\n    /* \"#utility.yul\":533:538   */\n  dup4\n    /* \"#utility.yul\":529:543   */\n  add\n    /* \"#utility.yul\":525:553   */\n  and\n    /* \"#utility.yul\":515:553   */\n  swap1\n  pop\n    /* \"#utility.yul\":457:559   */\n  swap2\n  swap1\n  pop\n  jump\t// out\n    /* \"#utility.yul\":565:745   */\ntag_26:\n    /* \"#utility.yul\":613:690   */\n  0x4e487b7100000000000000000000000000000000000000000000000000000000\n    /* \"#utility.yul\":610:611   */\n  0x00\n    /* \"#utility.yul\":603:691   */\n  mstore\n    /* \"#utility.yul\":710:714   */\n  0x41\n    /* \"#utility.yul\":707:708   */\n  0x04\n    /* \"#utility.yul\":700:715   */\n  mstore\n    /* \"#utility.yul\":734:738   */\n  0x24\n    /* \"#utility.yul\":731:732   */\n  0x00\n    /* \"#utility.yul\":724:739   */\n  revert\n    /* \"#utility.yul\":751:1032   */\ntag_27:\n    /* \"#utility.yul\":834:861   */\n  tag_47\n    /* \"#utility.yul\":856:860   */\n  dup3\n    /* \"#utility.yul\":834:861   */\n  tag_25\n  jump\t// in\ntag_47:\n    /* \"#utility.yul\":826:832   */\n  dup2\n    /* \"#utility.yul\":822:862   */\n  add\n    /* \"#utility.yul\":964:970   */\n  dup2\n    /* \"#utility.yul\":952:962   */\n  dup2\n    /* \"#utility.yul\":949:971   */\n  lt\n    /* \"#utility.yul\":928:946   */\n  0xffffffffffffffff\n    /* \"#utility.yul\":916:926   */\n  dup3\n    /* \"#utility.yul\":913:947   */\n  gt\n    /* \"#utility.yul\":910:972   */\n  or\n    /* \"#utility.yul\":907:995   */\n  iszero\n  tag_48\n  jumpi\n    /* \"#utility.yul\":975:993   */\n  tag_49\n  tag_26\n  jump\t// in\ntag_49:\n    /* \"#utility.yul\":907:995   */\ntag_48:\n    /* \"#utility.yul\":1015:1025   */\n  dup1\n    /* \"#utility.yul\":1011:1013   */\n  0x40\n    /* \"#utility.yul\":1004:1026   */\n  mstore\n    /* \"#utility.yul\":794:1032   */\n  pop\n    /* \"#utility.yul\":751:1032   */\n  pop\n  pop\n  jump\t// out\n    /* \"#utility.yul\":1038:1167   */\ntag_28:\n    /* \"#utility.yul\":1072:1078   */\n  0x00\n    /* \"#utility.yul\":1099:1119   */\n  tag_51\n  tag_21\n  jump\t// in\ntag_51:\n    /* \"#utility.yul\":1089:1119   */\n  swap1\n  pop\n    /* \"#utility.yul\":1128:1161   */\n  tag_52\n    /* \"#utility.yul\":1156:1160   */\n  dup3\n    /* \"#utility.yul\":1148:1154   */\n  dup3\n    /* \"#utility.yul\":1128:1161   */\n  tag_27\n  jump\t// in\ntag_52:\n    /* \"#utility.yul\":1038:1167   */\n  swap2\n  swap1\n  pop\n  jump\t// out\n    /* \"#utility.yul\":1173:1484   */\ntag_29:\n    /* \"#utility.yul\":1250:1254   */\n  0x00\n    /* \"#utility.yul\":1340:1358   */\n  0xffffffffffffffff\n    /* \"#utility.yul\":1332:1338   */\n  dup3\n    /* \"#utility.yul\":1329:1359   */\n  gt\n    /* \"#utility.yul\":1326:1382   */\n  iszero\n  tag_54\n  jumpi\n    /* \"#utility.yul\":1362:1380   */\n  tag_55\n  tag_26\n  jump\t// in\ntag_55:\n    /* \"#utility.yul\":1326:1382   */\ntag_54:\n    /* \"#utility.yul\":1412:1416   */\n  0x20\n    /* \"#utility.yul\":1404:1410   */\n  dup3\n    /* \"#utility.yul\":1400:1417   */\n  mul\n    /* \"#utility.yul\":1392:1417   */\n  swap1\n  pop\n    /* \"#utility.yul\":1472:1476   */\n  0x20\n    /* \"#utility.yul\":1466:1470   */\n  dup2\n    /* \"#utility.yul\":1462:1477   */\n  add\n    /* \"#utility.yul\":1454:1477   */\n  swap1\n  pop\n    /* \"#utility.yul\":1173:1484   */\n  swap2\n  swap1\n  pop\n  jump\t// out\n    /* \"#utility.yul\":1490:1607   */\ntag_30:\n    /* \"#utility.yul\":1599:1600   */\n  0x00\n    /* \"#utility.yul\":1596:1597   */\n  0x00\n    /* \"#utility.yul\":1589:1601   */\n  revert\n    /* \"#utility.yul\":1613:1739   */\ntag_31:\n    /* \"#utility.yul\":1650:1657   */\n  0x00\n    /* \"#utility.yul\":1690:1732   */\n  0xffffffffffffffffffffffffffffffffffffffff\n    /* \"#utility.yul\":1683:1688   */\n  dup3\n    /* \"#utility.yul\":1679:1733   */\n  and\n    /* \"#utility.yul\":1668:1733   */\n  swap1\n  pop\n    /* \"#utility.yul\":1613:1739   */\n  swap2\n  swap1\n  pop\n  jump\t// out\n    /* \"#utility.yul\":1745:1841   */\ntag_32:\n    /* \"#utility.yul\":1782:1789   */\n  0x00\n    /* \"#utility.yul\":1811:1835   */\n  tag_59\n    /* \"#utility.yul\":1829:1834   */\n  dup3\n    /* \"#utility.yul\":1811:1835   */\n  tag_31\n  jump\t// in\ntag_59:\n    /* \"#utility.yul\":1800:1835   */\n  swap1\n  pop\n    /* \"#utility.yul\":1745:1841   */\n  swap2\n  swap1\n  pop\n  jump\t// out\n    /* \"#utility.yul\":1847:1969   */\ntag_33:\n    /* \"#utility.yul\":1920:1944   */\n  tag_61\n    /* \"#utility.yul\":1938:1943   */\n  dup2\n    /* \"#utility.yul\":1920:1944   */\n  tag_32\n  jump\t// in\ntag_61:\n    /* \"#utility.yul\":1913:1918   */\n  dup2\n    /* \"#utility.yul\":1910:1945   */\n  eq\n    /* \"#utility.yul\":1900:1963   */\n  tag_62\n  jumpi\n    /* \"#utility.yul\":1959:1960   */\n  0x00\n    /* \"#utility.yul\":1956:1957   */\n  0x00\n    /* \"#utility.yul\":1949:1961   */\n  revert\n    /* \"#utility.yul\":1900:1963   */\ntag_62:\n    /* \"#utility.yul\":1847:1969   */\n  pop\n  jump\t// out\n    /* \"#utility.yul\":1975:2118   */\ntag_34:\n    /* \"#utility.yul\":2032:2037   */\n  0x00\n    /* \"#utility.yul\":2063:2069   */\n  dup2\n    /* \"#utility.yul\":2057:2070   */\n  mload\n    /* \"#utility.yul\":2048:2070   */\n  swap1\n  pop\n    /* \"#utility.yul\":2079:2112   */\n  tag_64\n    /* \"#utility.yul\":2106:2111   */\n  dup2\n    /* \"#utility.yul\":2079:2112   */\n  tag_33\n  jump\t// in\ntag_64:\n    /* \"#utility.yul\":1975:2118   */\n  swap3\n  swap2\n  pop\n  pop\n  jump\t// out\n    /* \"#utility.yul\":2141:2873   */\ntag_35:\n    /* \"#utility.yul\":2248:2253   */\n  0x00\n    /* \"#utility.yul\":2273:2354   */\n  tag_66\n    /* \"#utility.yul\":2289:2353   */\n  tag_67\n    /* \"#utility.yul\":2346:2352   */\n  dup5\n    /* \"#utility.yul\":2289:2353   */\n  tag_29\n  jump\t// in\ntag_67:\n    /* \"#utility.yul\":2273:2354   */\n  tag_28\n  jump\t// in\ntag_66:\n    /* \"#utility.yul\":2264:2354   */\n  swap1\n  pop\n    /* \"#utility.yul\":2374:2379   */\n  dup1\n    /* \"#utility.yul\":2403:2409   */\n  dup4\n    /* \"#utility.yul\":2396:2401   */\n  dup3\n    /* \"#utility.yul\":2389:2410   */\n  mstore\n    /* \"#utility.yul\":2437:2441   */\n  0x20\n    /* \"#utility.yul\":2430:2435   */\n  dup3\n    /* \"#utility.yul\":2426:2442   */\n  add\n    /* \"#utility.yul\":2419:2442   */\n  swap1\n  pop\n    /* \"#utility.yul\":2490:2494   */\n  0x20\n    /* \"#utility.yul\":2482:2488   */\n  dup5\n    /* \"#utility.yul\":2478:2495   */\n  mul\n    /* \"#utility.yul\":2470:2476   */\n  dup4\n    /* \"#utility.yul\":2466:2496   */\n  add\n    /* \"#utility.yul\":2519:2522   */\n  dup6\n    /* \"#utility.yul\":2511:2517   */\n  dup2\n    /* \"#utility.yul\":2508:2523   */\n  gt\n    /* \"#utility.yul\":2505:2627   */\n  iszero\n  tag_68\n  jumpi\n    /* \"#utility.yul\":2538:2617   */\n  tag_69\n  tag_30\n  jump\t// in\ntag_69:\n    /* \"#utility.yul\":2505:2627   */\ntag_68:\n    /* \"#utility.yul\":2653:2659   */\n  dup4\n    /* \"#utility.yul\":2636:2867   */\ntag_70:\n    /* \"#utility.yul\":2670:2676   */\n  dup2\n    /* \"#utility.yul\":2665:2668   */\n  dup2\n    /* \"#utility.yul\":2662:2677   */\n  lt\n    /* \"#utility.yul\":2636:2867   */\n  iszero\n  tag_72\n  jumpi\n    /* \"#utility.yul\":2745:2748   */\n  dup1\n    /* \"#utility.yul\":2774:2822   */\n  tag_73\n    /* \"#utility.yul\":2818:2821   */\n  dup9\n    /* \"#utility.yul\":2806:2816   */\n  dup3\n    /* \"#utility.yul\":2774:2822   */\n  tag_34\n  jump\t// in\ntag_73:\n    /* \"#utility.yul\":2769:2772   */\n  dup5\n    /* \"#utility.yul\":2762:2823   */\n  mstore\n    /* \"#utility.yul\":2852:2856   */\n  0x20\n    /* \"#utility.yul\":2847:2850   */\n  dup5\n    /* \"#utility.yul\":2843:2857   */\n  add\n    /* \"#utility.yul\":2836:2857   */\n  swap4\n  pop\n    /* \"#utility.yul\":2712:2867   */\n  pop\n    /* \"#utility.yul\":2696:2700   */\n  0x20\n    /* \"#utility.yul\":2691:2694   */\n  dup2\n    /* \"#utility.yul\":2687:2701   */\n  add\n    /* \"#utility.yul\":2680:2701   */\n  swap1\n  pop\n    /* \"#utility.yul\":2636:2867   */\n  jump(tag_70)\ntag_72:\n    /* \"#utility.yul\":2640:2661   */\n  pop\n    /* \"#utility.yul\":2254:2873   */\n  pop\n  pop\n    /* \"#utility.yul\":2141:2873   */\n  swap4\n  swap3\n  pop\n  pop\n  pop\n  jump\t// out\n    /* \"#utility.yul\":2896:3281   */\ntag_36:\n    /* \"#utility.yul\":2978:2983   */\n  0x00\n    /* \"#utility.yul\":3027:3030   */\n  dup3\n    /* \"#utility.yul\":3020:3024   */\n  0x1f\n    /* \"#utility.yul\":3012:3018   */\n  dup4\n    /* \"#utility.yul\":3008:3025   */\n  add\n    /* \"#utility.yul\":3004:3031   */\n  slt\n    /* \"#utility.yul\":2994:3116   */\n  tag_75\n  jumpi\n    /* \"#utility.yul\":3035:3114   */\n  tag_76\n  tag_24\n  jump\t// in\ntag_76:\n    /* \"#utility.yul\":2994:3116   */\ntag_75:\n    /* \"#utility.yul\":3145:3151   */\n  dup2\n    /* \"#utility.yul\":3139:3152   */\n  mload\n    /* \"#utility.yul\":3170:3275   */\n  tag_77\n    /* \"#utility.yul\":3271:3274   */\n  dup5\n    /* \"#utility.yul\":3263:3269   */\n  dup3\n    /* \"#utility.yul\":3256:3260   */\n  0x20\n    /* \"#utility.yul\":3248:3254   */\n  dup7\n    /* \"#utility.yul\":3244:3261   */\n  add\n    /* \"#utility.yul\":3170:3275   */\n  tag_35\n  jump\t// in\ntag_77:\n    /* \"#utility.yul\":3161:3275   */\n  swap2\n  pop\n    /* \"#utility.yul\":2984:3281   */\n  pop\n    /* \"#utility.yul\":2896:3281   */\n  swap3\n  swap2\n  pop\n  pop\n  jump\t// out\n    /* \"#utility.yul\":3287:3841   */\ntag_3:\n    /* \"#utility.yul\":3382:3388   */\n  0x00\n    /* \"#utility.yul\":3431:3433   */\n  0x20\n    /* \"#utility.yul\":3419:3428   */\n  dup3\n    /* \"#utility.yul\":3410:3417   */\n  dup5\n    /* \"#utility.yul\":3406:3429   */\n  sub\n    /* \"#utility.yul\":3402:3434   */\n  slt\n    /* \"#utility.yul\":3399:3518   */\n  iszero\n  tag_79\n  jumpi\n    /* \"#utility.yul\":3437:3516   */\n  tag_80\n  tag_22\n  jump\t// in\ntag_80:\n    /* \"#utility.yul\":3399:3518   */\ntag_79:\n    /* \"#utility.yul\":3578:3579   */\n  0x00\n    /* \"#utility.yul\":3567:3576   */\n  dup3\n    /* \"#utility.yul\":3563:3580   */\n  add\n    /* \"#utility.yul\":3557:3581   */\n  mload\n    /* \"#utility.yul\":3608:3626   */\n  0xffffffffffffffff\n    /* \"#utility.yul\":3600:3606   */\n  dup2\n    /* \"#utility.yul\":3597:3627   */\n  gt\n    /* \"#utility.yul\":3594:3711   */\n  iszero\n  tag_81\n  jumpi\n    /* \"#utility.yul\":3630:3709   */\n  tag_82\n  tag_23\n  jump\t// in\ntag_82:\n    /* \"#utility.yul\":3594:3711   */\ntag_81:\n    /* \"#utility.yul\":3735:3824   */\n  tag_83\n    /* \"#utility.yul\":3816:3823   */\n  dup5\n    /* \"#utility.yul\":3807:3813   */\n  dup3\n    /* \"#utility.yul\":3796:3805   */\n  dup6\n    /* \"#utility.yul\":3792:3814   */\n  add\n    /* \"#utility.yul\":3735:3824   */\n  tag_36\n  jump\t// in\ntag_83:\n    /* \"#utility.yul\":3725:3824   */\n  swap2\n  pop\n    /* \"#utility.yul\":3528:3834   */\n  pop\n    /* \"#utility.yul\":3287:3841   */\n  swap3\n  swap2\n  pop\n  pop\n  jump\t// out\n    /* \"#utility.yul\":3847:4027   */\ntag_11:\n    /* \"#utility.yul\":3895:3972   */\n  0x4e487b7100000000000000000000000000000000000000000000000000000000\n    /* \"#utility.yul\":3892:3893   */\n  0x00\n    /* \"#utility.yul\":3885:3973   */\n  mstore\n    /* \"#utility.yul\":3992:3996   */\n  0x32\n    /* \"#utility.yul\":3989:3990   */\n  0x04\n    /* \"#utility.yul\":3982:3997   */\n  mstore\n    /* \"#utility.yul\":4016:4020   */\n  0x24\n    /* \"#utility.yul\":4013:4014   */\n  0x00\n    /* \"#utility.yul\":4006:4021   */\n  revert\n    /* \"#utility.yul\":4033:4213   */\ntag_37:\n    /* \"#utility.yul\":4081:4158   */\n  0x4e487b7100000000000000000000000000000000000000000000000000000000\n    /* \"#utility.yul\":4078:4079   */\n  0x00\n    /* \"#utility.yul\":4071:4159   */\n  mstore\n    /* \"#utility.yul\":4178:4182   */\n  0x11\n    /* \"#utility.yul\":4175:4176   */\n  0x04\n    /* \"#utility.yul\":4168:4183   */\n  mstore\n    /* \"#utility.yul\":4202:4206   */\n  0x24\n    /* \"#utility.yul\":4199:4200   */\n  0x00\n    /* \"#utility.yul\":4192:4207   */\n  revert\n    /* \"#utility.yul\":4219:4305   */\ntag_38:\n    /* \"#utility.yul\":4254:4261   */\n  0x00\n    /* \"#utility.yul\":4294:4298   */\n  0xff\n    /* \"#utility.yul\":4287:4292   */\n  dup3\n    /* \"#utility.yul\":4283:4299   */\n  and\n    /* \"#utility.yul\":4272:4299   */\n  swap1\n  pop\n    /* \"#utility.yul\":4219:4305   */\n  swap2\n  swap1\n  pop\n  jump\t// out\n    /* \"#utility.yul\":4311:4478   */\ntag_19:\n    /* \"#utility.yul\":4348:4351   */\n  0x00\n    /* \"#utility.yul\":4371:4393   */\n  tag_88\n    /* \"#utility.yul\":4387:4392   */\n  dup3\n    /* \"#utility.yul\":4371:4393   */\n  tag_38\n  jump\t// in\ntag_88:\n    /* \"#utility.yul\":4362:4393   */\n  swap2\n  pop\n    /* \"#utility.yul\":4415:4419   */\n  0xff\n    /* \"#utility.yul\":4408:4413   */\n  dup3\n    /* \"#utility.yul\":4405:4420   */\n  sub\n    /* \"#utility.yul\":4402:4443   */\n  tag_89\n  jumpi\n    /* \"#utility.yul\":4423:4441   */\n  tag_90\n  tag_37\n  jump\t// in\ntag_90:\n    /* \"#utility.yul\":4402:4443   */\ntag_89:\n    /* \"#utility.yul\":4470:4471   */\n  0x01\n    /* \"#utility.yul\":4463:4468   */\n  dup3\n    /* \"#utility.yul\":4459:4472   */\n  add\n    /* \"#utility.yul\":4452:4472   */\n  swap1\n  pop\n    /* \"#utility.yul\":4311:4478   */\n  swap2\n  swap1\n  pop\n  jump\t// out\n    /* \"contracts/Market.sol\":417:8171  contract Market{... */\ntag_20:\n  dataSize(sub_0)\n  dup1\n  dataOffset(sub_0)\n  0x00\n  codecopy\n  0x00\n  return\nstop\n\nsub_0: assembly {\n        /* \"contracts/Market.sol\":417:8171  contract Market{... */\n      mstore(0x40, 0x80)\n      callvalue\n      dup1\n      iszero\n      tag_1\n      jumpi\n      revert(0x00, 0x00)\n    tag_1:\n      pop\n      jumpi(tag_2, lt(calldatasize, 0x04))\n      shr(0xe0, calldataload(0x00))\n      dup1\n      0x83920e90\n      gt\n      tag_17\n      jumpi\n      dup1\n      0xa6c41b4d\n      gt\n      tag_18\n      jumpi\n      dup1\n      0xa6c41b4d\n      eq\n      tag_13\n      jumpi\n      dup1\n      0xa75e1ecf\n      eq\n      tag_14\n      jumpi\n      dup1\n      0xaad0e6eb\n      eq\n      tag_15\n      jumpi\n      dup1\n      0xc01a8c84\n      eq\n      tag_16\n      jumpi\n      jump(tag_2)\n    tag_18:\n      dup1\n      0x83920e90\n      eq\n      tag_10\n      jumpi\n      dup1\n      0x84c02ba9\n      eq\n      tag_11\n      jumpi\n      dup1\n      0x893d20e8\n      eq\n      tag_12\n      jumpi\n      jump(tag_2)\n    tag_17:\n      dup1\n      0x4ecf43a0\n      gt\n      tag_19\n      jumpi\n      dup1\n      0x4ecf43a0\n      eq\n      tag_6\n      jumpi\n      dup1\n      0x581592f1\n      eq\n      tag_7\n      jumpi\n      dup1\n      0x60523440\n      eq\n      tag_8\n      jumpi\n      dup1\n      0x838cbe52\n      eq\n      tag_9\n      jumpi\n      jump(tag_2)\n    tag_19:\n      dup1\n      0x16967407\n      eq\n      tag_3\n      jumpi\n      dup1\n      0x20ea8d86\n      eq\n      tag_4\n      jumpi\n      dup1\n      0x3b211c4c\n      eq\n      tag_5\n      jumpi\n    tag_2:\n      revert(0x00, 0x00)\n        /* \"contracts/Market.sol\":2232:2347  function getAdministrator() public OnlyAdmin view returns (address[] memory) {... */\n    tag_3:\n      tag_20\n      tag_21\n      jump\t// in\n    tag_20:\n      mload(0x40)\n      tag_22\n      swap2\n      swap1\n      tag_23\n      jump\t// in\n    tag_22:\n      mload(0x40)\n      dup1\n      swap2\n      sub\n      swap1\n      return\n        /* \"contracts/Market.sol\":5316:5529  function revokeConfirmation(uint _txIndex) external OnlyAdmin {... */\n    tag_4:\n      tag_24\n      0x04\n      dup1\n      calldatasize\n      sub\n      dup2\n      add\n      swap1\n      tag_25\n      swap2\n      swap1\n      tag_26\n      jump\t// in\n    tag_25:\n      tag_27\n      jump\t// in\n    tag_24:\n      stop\n        /* \"contracts/Market.sol\":2848:3468  function usdtApprove(uint256 _core, uint256 _days) public returns (uint) {... */\n    tag_5:\n      tag_28\n      0x04\n      dup1\n      calldatasize\n      sub\n      dup2\n      add\n      swap1\n      tag_29\n      swap2\n      swap1\n      tag_30\n      jump\t// in\n    tag_29:\n      tag_31\n      jump\t// in\n    tag_28:\n      mload(0x40)\n      tag_32\n      swap2\n      swap1\n      tag_33\n      jump\t// in\n    tag_32:\n      mload(0x40)\n      dup1\n      swap2\n      sub\n      swap1\n      return\n        /* \"contracts/Market.sol\":4167:4412  function commitSetConfirmationsRequired(uint256 _value) external OnlyAdmin {... */\n    tag_6:\n      tag_34\n      0x04\n      dup1\n      calldatasize\n      sub\n      dup2\n      add\n      swap1\n      tag_35\n      swap2\n      swap1\n      tag_26\n      jump\t// in\n    tag_35:\n      tag_36\n      jump\t// in\n    tag_34:\n      stop\n        /* \"contracts/Market.sol\":2711:2842  function getUSDT() public view returns (uint256) {... */\n    tag_7:\n      tag_37\n      tag_38\n      jump\t// in\n    tag_37:\n      mload(0x40)\n      tag_39\n      swap2\n      swap1\n      tag_33\n      jump\t// in\n    tag_39:\n      mload(0x40)\n      dup1\n      swap2\n      sub\n      swap1\n      return\n        /* \"contracts/Market.sol\":2353:2480  function getNumConfirmationsRequired() public OnlyAdmin view returns (uint256) {... */\n    tag_8:\n      tag_40\n      tag_41\n      jump\t// in\n    tag_40:\n      mload(0x40)\n      tag_42\n      swap2\n      swap1\n      tag_33\n      jump\t// in\n    tag_42:\n      mload(0x40)\n      dup1\n      swap2\n      sub\n      swap1\n      return\n        /* \"contracts/Market.sol\":4713:5013  function commitSetOwner(address _newOwner) external OnlyAdmin returns (uint) {... */\n    tag_9:\n      tag_43\n      0x04\n      dup1\n      calldatasize\n      sub\n      dup2\n      add\n      swap1\n      tag_44\n      swap2\n      swap1\n      tag_45\n      jump\t// in\n    tag_44:\n      tag_46\n      jump\t// in\n    tag_43:\n      mload(0x40)\n      tag_47\n      swap2\n      swap1\n      tag_33\n      jump\t// in\n    tag_47:\n      mload(0x40)\n      dup1\n      swap2\n      sub\n      swap1\n      return\n        /* \"contracts/Market.sol\":2486:2602  function getTransactions() public OnlyAdmin view returns (Transaction[] memory) {... */\n    tag_10:\n      tag_48\n      tag_49\n      jump\t// in\n    tag_48:\n      mload(0x40)\n      tag_50\n      swap2\n      swap1\n      tag_51\n      jump\t// in\n    tag_50:\n      mload(0x40)\n      dup1\n      swap2\n      sub\n      swap1\n      return\n        /* \"contracts/Market.sol\":4588:4672  function sendSwitch() external OnlyAdmin {... */\n    tag_11:\n      tag_52\n      tag_53\n      jump\t// in\n    tag_52:\n      stop\n        /* \"contracts/Market.sol\":2137:2226  function getOwner() public OnlyAdmin view returns (address) {... */\n    tag_12:\n      tag_54\n      tag_55\n      jump\t// in\n    tag_54:\n      mload(0x40)\n      tag_56\n      swap2\n      swap1\n      tag_57\n      jump\t// in\n    tag_56:\n      mload(0x40)\n      dup1\n      swap2\n      sub\n      swap1\n      return\n        /* \"contracts/Market.sol\":3519:3853  function usdtReceive(uint _cost) external {... */\n    tag_13:\n      tag_58\n      0x04\n      dup1\n      calldatasize\n      sub\n      dup2\n      add\n      swap1\n      tag_59\n      swap2\n      swap1\n      tag_26\n      jump\t// in\n    tag_59:\n      tag_60\n      jump\t// in\n    tag_58:\n      stop\n        /* \"contracts/Market.sol\":2608:2705  function getSendSwitch() public OnlyAdmin view returns (bool) {... */\n    tag_14:\n      tag_61\n      tag_62\n      jump\t// in\n    tag_61:\n      mload(0x40)\n      tag_63\n      swap2\n      swap1\n      tag_64\n      jump\t// in\n    tag_63:\n      mload(0x40)\n      dup1\n      swap2\n      sub\n      swap1\n      return\n        /* \"contracts/Market.sol\":5555:5701  function usdtWithdraw() external OnlyAdmin {... */\n    tag_15:\n      tag_65\n      tag_66\n      jump\t// in\n    tag_65:\n      stop\n        /* \"contracts/Market.sol\":5039:5290  function confirmTransaction(uint _txIndex) external OnlyAdmin {... */\n    tag_16:\n      tag_67\n      0x04\n      dup1\n      calldatasize\n      sub\n      dup2\n      add\n      swap1\n      tag_68\n      swap2\n      swap1\n      tag_26\n      jump\t// in\n    tag_68:\n      tag_69\n      jump\t// in\n    tag_67:\n      stop\n        /* \"contracts/Market.sol\":2232:2347  function getAdministrator() public OnlyAdmin view returns (address[] memory) {... */\n    tag_21:\n        /* \"contracts/Market.sol\":2291:2307  address[] memory */\n      0x60\n        /* \"contracts/Market.sol\":914:929  isAdministrator */\n      0x05\n        /* \"contracts/Market.sol\":914:941  isAdministrator[msg.sender] */\n      0x00\n        /* \"contracts/Market.sol\":930:940  msg.sender */\n      caller\n        /* \"contracts/Market.sol\":914:941  isAdministrator[msg.sender] */\n      0xffffffffffffffffffffffffffffffffffffffff\n      and\n      0xffffffffffffffffffffffffffffffffffffffff\n      and\n      dup2\n      mstore\n      0x20\n      add\n      swap1\n      dup2\n      mstore\n      0x20\n      add\n      0x00\n      keccak256\n      0x00\n      swap1\n      sload\n      swap1\n      0x0100\n      exp\n      swap1\n      div\n      0xff\n      and\n        /* \"contracts/Market.sol\":906:976  require(isAdministrator[msg.sender], \"Only the administrator can use\") */\n      tag_71\n      jumpi\n      mload(0x40)\n      0x08c379a000000000000000000000000000000000000000000000000000000000\n      dup2\n      mstore\n      0x04\n      add\n      tag_72\n      swap1\n      tag_73\n      jump\t// in\n    tag_72:\n      mload(0x40)\n      dup1\n      swap2\n      sub\n      swap1\n      revert\n    tag_71:\n        /* \"contracts/Market.sol\":2326:2340  administrators */\n      0x03\n        /* \"contracts/Market.sol\":2319:2340  return administrators */\n      dup1\n      sload\n      dup1\n      0x20\n      mul\n      0x20\n      add\n      mload(0x40)\n      swap1\n      dup2\n      add\n      0x40\n      mstore\n      dup1\n      swap3\n      swap2\n      swap1\n      dup2\n      dup2\n      mstore\n      0x20\n      add\n      dup3\n      dup1\n      sload\n      dup1\n      iszero\n      tag_75\n      jumpi\n      0x20\n      mul\n      dup3\n      add\n      swap2\n      swap1\n      0x00\n      mstore\n      keccak256(0x00, 0x20)\n      swap1\n    tag_76:\n      dup2\n      0x00\n      swap1\n      sload\n      swap1\n      0x0100\n      exp\n      swap1\n      div\n      0xffffffffffffffffffffffffffffffffffffffff\n      and\n      0xffffffffffffffffffffffffffffffffffffffff\n      and\n      dup2\n      mstore\n      0x20\n      add\n      swap1\n      0x01\n      add\n      swap1\n      dup1\n      dup4\n      gt\n      tag_76\n      jumpi\n    tag_75:\n      pop\n      pop\n      pop\n      pop\n      pop\n      swap1\n      pop\n        /* \"contracts/Market.sol\":2232:2347  function getAdministrator() public OnlyAdmin view returns (address[] memory) {... */\n      swap1\n      jump\t// out\n        /* \"contracts/Market.sol\":5316:5529  function revokeConfirmation(uint _txIndex) external OnlyAdmin {... */\n    tag_27:\n        /* \"contracts/Market.sol\":914:929  isAdministrator */\n      0x05\n        /* \"contracts/Market.sol\":914:941  isAdministrator[msg.sender] */\n      0x00\n        /* \"contracts/Market.sol\":930:940  msg.sender */\n      caller\n        /* \"contracts/Market.sol\":914:941  isAdministrator[msg.sender] */\n      0xffffffffffffffffffffffffffffffffffffffff\n      and\n      0xffffffffffffffffffffffffffffffffffffffff\n      and\n      dup2\n      mstore\n      0x20\n      add\n      swap1\n      dup2\n      mstore\n      0x20\n      add\n      0x00\n      keccak256\n      0x00\n      swap1\n      sload\n      swap1\n      0x0100\n      exp\n      swap1\n      div\n      0xff\n      and\n        /* \"contracts/Market.sol\":906:976  require(isAdministrator[msg.sender], \"Only the administrator can use\") */\n      tag_78\n      jumpi\n      mload(0x40)\n      0x08c379a000000000000000000000000000000000000000000000000000000000\n      dup2\n      mstore\n      0x04\n      add\n      tag_79\n      swap1\n      tag_73\n      jump\t// in\n    tag_79:\n      mload(0x40)\n      dup1\n      swap2\n      sub\n      swap1\n      revert\n    tag_78:\n        /* \"contracts/Market.sol\":5388:5522  revokeConfirmation(... */\n      tag_81\n        /* \"contracts/Market.sol\":5420:5432  transactions */\n      0x04\n        /* \"contracts/Market.sol\":5447:5458  isConfirmed */\n      0x07\n        /* \"contracts/Market.sol\":5473:5489  numConfirmations */\n      0x06\n        /* \"contracts/Market.sol\":5504:5512  _txIndex */\n      dup5\n        /* \"contracts/Market.sol\":5388:5406  revokeConfirmation */\n      tag_82\n        /* \"contracts/Market.sol\":5388:5522  revokeConfirmation(... */\n      jump\t// in\n    tag_81:\n        /* \"contracts/Market.sol\":5316:5529  function revokeConfirmation(uint _txIndex) external OnlyAdmin {... */\n      pop\n      jump\t// out\n        /* \"contracts/Market.sol\":2848:3468  function usdtApprove(uint256 _core, uint256 _days) public returns (uint) {... */\n    tag_31:\n        /* \"contracts/Market.sol\":2915:2919  uint */\n      0x00\n        /* \"contracts/Market.sol\":2955:2964  uint cost */\n      0x00\n        /* \"contracts/Market.sol\":2987:2989  30 */\n      0x1e\n        /* \"contracts/Market.sol\":2978:2983  _days */\n      dup4\n        /* \"contracts/Market.sol\":2978:2989  _days == 30 */\n      sub\n        /* \"contracts/Market.sol\":2974:3313  if (_days == 30) {... */\n      tag_84\n      jumpi\n        /* \"contracts/Market.sol\":3037:3044  10 ** 3 */\n      0x03e8\n        /* \"contracts/Market.sol\":3032:3034  15 */\n      0x0f\n        /* \"contracts/Market.sol\":3028:3029  6 */\n      0x06\n        /* \"contracts/Market.sol\":3020:3025  _days */\n      dup6\n        /* \"contracts/Market.sol\":3012:3017  _core */\n      dup8\n        /* \"contracts/Market.sol\":3012:3025  _core * _days */\n      tag_85\n      swap2\n      swap1\n      tag_86\n      jump\t// in\n    tag_85:\n        /* \"contracts/Market.sol\":3012:3029  _core * _days * 6 */\n      tag_87\n      swap2\n      swap1\n      tag_86\n      jump\t// in\n    tag_87:\n        /* \"contracts/Market.sol\":3012:3034  _core * _days * 6 * 15 */\n      tag_88\n      swap2\n      swap1\n      tag_86\n      jump\t// in\n    tag_88:\n        /* \"contracts/Market.sol\":3012:3044  _core * _days * 6 * 15 * 10 ** 3 */\n      tag_89\n      swap2\n      swap1\n      tag_86\n      jump\t// in\n    tag_89:\n        /* \"contracts/Market.sol\":3005:3044  cost = _core * _days * 6 * 15 * 10 ** 3 */\n      swap1\n      pop\n        /* \"contracts/Market.sol\":2974:3313  if (_days == 30) {... */\n      jump(tag_90)\n    tag_84:\n        /* \"contracts/Market.sol\":3074:3076  60 */\n      0x3c\n        /* \"contracts/Market.sol\":3065:3070  _days */\n      dup4\n        /* \"contracts/Market.sol\":3065:3076  _days == 60 */\n      sub\n        /* \"contracts/Market.sol\":3061:3313  if (_days == 60) {... */\n      tag_91\n      jumpi\n        /* \"contracts/Market.sol\":3124:3131  10 ** 3 */\n      0x03e8\n        /* \"contracts/Market.sol\":3119:3121  13 */\n      0x0d\n        /* \"contracts/Market.sol\":3115:3116  6 */\n      0x06\n        /* \"contracts/Market.sol\":3107:3112  _days */\n      dup6\n        /* \"contracts/Market.sol\":3099:3104  _core */\n      dup8\n        /* \"contracts/Market.sol\":3099:3112  _core * _days */\n      tag_92\n      swap2\n      swap1\n      tag_86\n      jump\t// in\n    tag_92:\n        /* \"contracts/Market.sol\":3099:3116  _core * _days * 6 */\n      tag_93\n      swap2\n      swap1\n      tag_86\n      jump\t// in\n    tag_93:\n        /* \"contracts/Market.sol\":3099:3121  _core * _days * 6 * 13 */\n      tag_94\n      swap2\n      swap1\n      tag_86\n      jump\t// in\n    tag_94:\n        /* \"contracts/Market.sol\":3099:3131  _core * _days * 6 * 13 * 10 ** 3 */\n      tag_95\n      swap2\n      swap1\n      tag_86\n      jump\t// in\n    tag_95:\n        /* \"contracts/Market.sol\":3092:3131  cost = _core * _days * 6 * 13 * 10 ** 3 */\n      swap1\n      pop\n        /* \"contracts/Market.sol\":3061:3313  if (_days == 60) {... */\n      jump(tag_96)\n    tag_91:\n        /* \"contracts/Market.sol\":3161:3163  90 */\n      0x5a\n        /* \"contracts/Market.sol\":3152:3157  _days */\n      dup4\n        /* \"contracts/Market.sol\":3152:3163  _days == 90 */\n      sub\n        /* \"contracts/Market.sol\":3148:3313  if (_days == 90) {... */\n      tag_97\n      jumpi\n        /* \"contracts/Market.sol\":3212:3219  10 ** 2 */\n      0x64\n        /* \"contracts/Market.sol\":3206:3209  125 */\n      0x7d\n        /* \"contracts/Market.sol\":3202:3203  6 */\n      0x06\n        /* \"contracts/Market.sol\":3194:3199  _days */\n      dup6\n        /* \"contracts/Market.sol\":3186:3191  _core */\n      dup8\n        /* \"contracts/Market.sol\":3186:3199  _core * _days */\n      tag_98\n      swap2\n      swap1\n      tag_86\n      jump\t// in\n    tag_98:\n        /* \"contracts/Market.sol\":3186:3203  _core * _days * 6 */\n      tag_99\n      swap2\n      swap1\n      tag_86\n      jump\t// in\n    tag_99:\n        /* \"contracts/Market.sol\":3186:3209  _core * _days * 6 * 125 */\n      tag_100\n      swap2\n      swap1\n      tag_86\n      jump\t// in\n    tag_100:\n        /* \"contracts/Market.sol\":3186:3219  _core * _days * 6 * 125 * 10 ** 2 */\n      tag_101\n      swap2\n      swap1\n      tag_86\n      jump\t// in\n    tag_101:\n        /* \"contracts/Market.sol\":3179:3219  cost = _core * _days * 6 * 125 * 10 ** 2 */\n      swap1\n      pop\n        /* \"contracts/Market.sol\":3148:3313  if (_days == 90) {... */\n      jump(tag_102)\n    tag_97:\n        /* \"contracts/Market.sol\":3258:3263  false */\n      0x00\n        /* \"contracts/Market.sol\":3250:3302  require(false, \"Invalid days, must be 30, 60 or 90\") */\n      tag_103\n      jumpi\n      mload(0x40)\n      0x08c379a000000000000000000000000000000000000000000000000000000000\n      dup2\n      mstore\n      0x04\n      add\n      tag_104\n      swap1\n      tag_105\n      jump\t// in\n    tag_104:\n      mload(0x40)\n      dup1\n      swap2\n      sub\n      swap1\n      revert\n    tag_103:\n        /* \"contracts/Market.sol\":3148:3313  if (_days == 90) {... */\n    tag_102:\n        /* \"contracts/Market.sol\":3061:3313  if (_days == 60) {... */\n    tag_96:\n        /* \"contracts/Market.sol\":2974:3313  if (_days == 30) {... */\n    tag_90:\n        /* \"contracts/Market.sol\":3346:3358  bool success */\n      0x00\n        /* \"contracts/Market.sol\":3361:3365  usdt */\n      0x0a\n      0x00\n      swap1\n      sload\n      swap1\n      0x0100\n      exp\n      swap1\n      div\n      0xffffffffffffffffffffffffffffffffffffffff\n      and\n        /* \"contracts/Market.sol\":3361:3373  usdt.approve */\n      0xffffffffffffffffffffffffffffffffffffffff\n      and\n      0x095ea7b3\n        /* \"contracts/Market.sol\":3374:3384  msg.sender */\n      caller\n        /* \"contracts/Market.sol\":3386:3390  cost */\n      dup5\n        /* \"contracts/Market.sol\":3361:3391  usdt.approve(msg.sender, cost) */\n      mload(0x40)\n      dup4\n      0xffffffff\n      and\n      0xe0\n      shl\n      dup2\n      mstore\n      0x04\n      add\n      tag_106\n      swap3\n      swap2\n      swap1\n      tag_107\n      jump\t// in\n    tag_106:\n      0x20\n      mload(0x40)\n      dup1\n      dup4\n      sub\n      dup2\n      0x00\n      dup8\n      gas\n      call\n      iszero\n      dup1\n      iszero\n      tag_109\n      jumpi\n      returndatacopy(0x00, 0x00, returndatasize)\n      revert(0x00, returndatasize)\n    tag_109:\n      pop\n      pop\n      pop\n      pop\n      mload(0x40)\n      returndatasize\n      not(0x1f)\n      0x1f\n      dup3\n      add\n      and\n      dup3\n      add\n      dup1\n      0x40\n      mstore\n      pop\n      dup2\n      add\n      swap1\n      tag_110\n      swap2\n      swap1\n      tag_111\n      jump\t// in\n    tag_110:\n        /* \"contracts/Market.sol\":3346:3391  bool success = usdt.approve(msg.sender, cost) */\n      swap1\n      pop\n        /* \"contracts/Market.sol\":3409:3416  success */\n      dup1\n        /* \"contracts/Market.sol\":3401:3440  require(success, \"USDT approve failed\") */\n      tag_112\n      jumpi\n      mload(0x40)\n      0x08c379a000000000000000000000000000000000000000000000000000000000\n      dup2\n      mstore\n      0x04\n      add\n      tag_113\n      swap1\n      tag_114\n      jump\t// in\n    tag_113:\n      mload(0x40)\n      dup1\n      swap2\n      sub\n      swap1\n      revert\n    tag_112:\n        /* \"contracts/Market.sol\":3457:3461  cost */\n      dup2\n        /* \"contracts/Market.sol\":3450:3461  return cost */\n      swap3\n      pop\n      pop\n      pop\n        /* \"contracts/Market.sol\":2848:3468  function usdtApprove(uint256 _core, uint256 _days) public returns (uint) {... */\n      swap3\n      swap2\n      pop\n      pop\n      jump\t// out\n        /* \"contracts/Market.sol\":4167:4412  function commitSetConfirmationsRequired(uint256 _value) external OnlyAdmin {... */\n    tag_36:\n        /* \"contracts/Market.sol\":914:929  isAdministrator */\n      0x05\n        /* \"contracts/Market.sol\":914:941  isAdministrator[msg.sender] */\n      0x00\n        /* \"contracts/Market.sol\":930:940  msg.sender */\n      caller\n        /* \"contracts/Market.sol\":914:941  isAdministrator[msg.sender] */\n      0xffffffffffffffffffffffffffffffffffffffff\n      and\n      0xffffffffffffffffffffffffffffffffffffffff\n      and\n      dup2\n      mstore\n      0x20\n      add\n      swap1\n      dup2\n      mstore\n      0x20\n      add\n      0x00\n      keccak256\n      0x00\n      swap1\n      sload\n      swap1\n      0x0100\n      exp\n      swap1\n      div\n      0xff\n      and\n        /* \"contracts/Market.sol\":906:976  require(isAdministrator[msg.sender], \"Only the administrator can use\") */\n      tag_116\n      jumpi\n      mload(0x40)\n      0x08c379a000000000000000000000000000000000000000000000000000000000\n      dup2\n      mstore\n      0x04\n      add\n      tag_117\n      swap1\n      tag_73\n      jump\t// in\n    tag_117:\n      mload(0x40)\n      dup1\n      swap2\n      sub\n      swap1\n      revert\n    tag_116:\n        /* \"contracts/Market.sol\":4252:4405  submitTransaction(... */\n      tag_119\n        /* \"contracts/Market.sol\":4283:4295  transactions */\n      0x04\n        /* \"contracts/Market.sol\":4370:4376  _value */\n      dup3\n        /* \"contracts/Market.sol\":4309:4377  abi.encodeWithSignature(\"setConfirmationsRequired(uint256)\", _value) */\n      add(0x24, mload(0x40))\n      tag_120\n      swap2\n      swap1\n      tag_33\n      jump\t// in\n    tag_120:\n      mload(0x40)\n      0x20\n      dup2\n      dup4\n      sub\n      sub\n      dup2\n      mstore\n      swap1\n      0x40\n      mstore\n      and(not(0xffffffffffffffffffffffffffffffffffffffffffffffffffffffff), 0x0a57dfb800000000000000000000000000000000000000000000000000000000)\n      0x20\n      dup3\n      add\n      dup1\n      mload\n      0xffffffffffffffffffffffffffffffffffffffffffffffffffffffff\n      dup4\n      dup2\n      dup4\n      and\n      or\n      dup4\n      mstore\n      pop\n      pop\n      pop\n      pop\n        /* \"contracts/Market.sol\":4391:4395  true */\n      0x01\n        /* \"contracts/Market.sol\":4252:4269  submitTransaction */\n      tag_121\n        /* \"contracts/Market.sol\":4252:4405  submitTransaction(... */\n      jump\t// in\n    tag_119:\n        /* \"contracts/Market.sol\":4167:4412  function commitSetConfirmationsRequired(uint256 _value) external OnlyAdmin {... */\n      pop\n      jump\t// out\n        /* \"contracts/Market.sol\":2711:2842  function getUSDT() public view returns (uint256) {... */\n    tag_38:\n        /* \"contracts/Market.sol\":2751:2758  uint256 */\n      0x00\n        /* \"contracts/Market.sol\":2770:2783  uint256 _usdt */\n      0x00\n        /* \"contracts/Market.sol\":2786:2790  usdt */\n      0x0a\n      0x00\n      swap1\n      sload\n      swap1\n      0x0100\n      exp\n      swap1\n      div\n      0xffffffffffffffffffffffffffffffffffffffff\n      and\n        /* \"contracts/Market.sol\":2786:2800  usdt.balanceOf */\n      0xffffffffffffffffffffffffffffffffffffffff\n      and\n      0x70a08231\n        /* \"contracts/Market.sol\":2801:2811  msg.sender */\n      caller\n        /* \"contracts/Market.sol\":2786:2812  usdt.balanceOf(msg.sender) */\n      mload(0x40)\n      dup3\n      0xffffffff\n      and\n      0xe0\n      shl\n      dup2\n      mstore\n      0x04\n      add\n      tag_123\n      swap2\n      swap1\n      tag_57\n      jump\t// in\n    tag_123:\n      0x20\n      mload(0x40)\n      dup1\n      dup4\n      sub\n      dup2\n      dup7\n      gas\n      staticcall\n      iszero\n      dup1\n      iszero\n      tag_125\n      jumpi\n      returndatacopy(0x00, 0x00, returndatasize)\n      revert(0x00, returndatasize)\n    tag_125:\n      pop\n      pop\n      pop\n      pop\n      mload(0x40)\n      returndatasize\n      not(0x1f)\n      0x1f\n      dup3\n      add\n      and\n      dup3\n      add\n      dup1\n      0x40\n      mstore\n      pop\n      dup2\n      add\n      swap1\n      tag_126\n      swap2\n      swap1\n      tag_127\n      jump\t// in\n    tag_126:\n        /* \"contracts/Market.sol\":2770:2812  uint256 _usdt = usdt.balanceOf(msg.sender) */\n      swap1\n      pop\n        /* \"contracts/Market.sol\":2830:2835  _usdt */\n      dup1\n        /* \"contracts/Market.sol\":2822:2835  return  _usdt */\n      swap2\n      pop\n      pop\n        /* \"contracts/Market.sol\":2711:2842  function getUSDT() public view returns (uint256) {... */\n      swap1\n      jump\t// out\n        /* \"contracts/Market.sol\":2353:2480  function getNumConfirmationsRequired() public OnlyAdmin view returns (uint256) {... */\n    tag_41:\n        /* \"contracts/Market.sol\":2423:2430  uint256 */\n      0x00\n        /* \"contracts/Market.sol\":914:929  isAdministrator */\n      0x05\n        /* \"contracts/Market.sol\":914:941  isAdministrator[msg.sender] */\n      0x00\n        /* \"contracts/Market.sol\":930:940  msg.sender */\n      caller\n        /* \"contracts/Market.sol\":914:941  isAdministrator[msg.sender] */\n      0xffffffffffffffffffffffffffffffffffffffff\n      and\n      0xffffffffffffffffffffffffffffffffffffffff\n      and\n      dup2\n      mstore\n      0x20\n      add\n      swap1\n      dup2\n      mstore\n      0x20\n      add\n      0x00\n      keccak256\n      0x00\n      swap1\n      sload\n      swap1\n      0x0100\n      exp\n      swap1\n      div\n      0xff\n      and\n        /* \"contracts/Market.sol\":906:976  require(isAdministrator[msg.sender], \"Only the administrator can use\") */\n      tag_129\n      jumpi\n      mload(0x40)\n      0x08c379a000000000000000000000000000000000000000000000000000000000\n      dup2\n      mstore\n      0x04\n      add\n      tag_130\n      swap1\n      tag_73\n      jump\t// in\n    tag_130:\n      mload(0x40)\n      dup1\n      swap2\n      sub\n      swap1\n      revert\n    tag_129:\n        /* \"contracts/Market.sol\":2449:2473  numConfirmationsRequired */\n      sload(0x00)\n        /* \"contracts/Market.sol\":2442:2473  return numConfirmationsRequired */\n      swap1\n      pop\n        /* \"contracts/Market.sol\":2353:2480  function getNumConfirmationsRequired() public OnlyAdmin view returns (uint256) {... */\n      swap1\n      jump\t// out\n        /* \"contracts/Market.sol\":4713:5013  function commitSetOwner(address _newOwner) external OnlyAdmin returns (uint) {... */\n    tag_46:\n        /* \"contracts/Market.sol\":4784:4788  uint */\n      0x00\n        /* \"contracts/Market.sol\":914:929  isAdministrator */\n      0x05\n        /* \"contracts/Market.sol\":914:941  isAdministrator[msg.sender] */\n      0x00\n        /* \"contracts/Market.sol\":930:940  msg.sender */\n      caller\n        /* \"contracts/Market.sol\":914:941  isAdministrator[msg.sender] */\n      0xffffffffffffffffffffffffffffffffffffffff\n      and\n      0xffffffffffffffffffffffffffffffffffffffff\n      and\n      dup2\n      mstore\n      0x20\n      add\n      swap1\n      dup2\n      mstore\n      0x20\n      add\n      0x00\n      keccak256\n      0x00\n      swap1\n      sload\n      swap1\n      0x0100\n      exp\n      swap1\n      div\n      0xff\n      and\n        /* \"contracts/Market.sol\":906:976  require(isAdministrator[msg.sender], \"Only the administrator can use\") */\n      tag_133\n      jumpi\n      mload(0x40)\n      0x08c379a000000000000000000000000000000000000000000000000000000000\n      dup2\n      mstore\n      0x04\n      add\n      tag_134\n      swap1\n      tag_73\n      jump\t// in\n    tag_134:\n      mload(0x40)\n      dup1\n      swap2\n      sub\n      swap1\n      revert\n    tag_133:\n        /* \"contracts/Market.sol\":4800:4970  submitTransaction(... */\n      tag_136\n        /* \"contracts/Market.sol\":4831:4843  transactions */\n      0x04\n        /* \"contracts/Market.sol\":4932:4941  _newOwner */\n      dup4\n        /* \"contracts/Market.sol\":4887:4942  abi.encodeWithSignature(\"setOwner(address)\", _newOwner) */\n      add(0x24, mload(0x40))\n      tag_137\n      swap2\n      swap1\n      tag_57\n      jump\t// in\n    tag_137:\n      mload(0x40)\n      0x20\n      dup2\n      dup4\n      sub\n      sub\n      dup2\n      mstore\n      swap1\n      0x40\n      mstore\n      and(not(0xffffffffffffffffffffffffffffffffffffffffffffffffffffffff), 0x13af403500000000000000000000000000000000000000000000000000000000)\n      0x20\n      dup3\n      add\n      dup1\n      mload\n      0xffffffffffffffffffffffffffffffffffffffffffffffffffffffff\n      dup4\n      dup2\n      dup4\n      and\n      or\n      dup4\n      mstore\n      pop\n      pop\n      pop\n      pop\n        /* \"contracts/Market.sol\":4956:4960  true */\n      0x01\n        /* \"contracts/Market.sol\":4800:4817  submitTransaction */\n      tag_121\n        /* \"contracts/Market.sol\":4800:4970  submitTransaction(... */\n      jump\t// in\n    tag_136:\n        /* \"contracts/Market.sol\":4987:4999  transactions */\n      0x04\n        /* \"contracts/Market.sol\":4987:5006  transactions.length */\n      dup1\n      sload\n      swap1\n      pop\n        /* \"contracts/Market.sol\":4980:5006  return transactions.length */\n      swap1\n      pop\n        /* \"contracts/Market.sol\":4713:5013  function commitSetOwner(address _newOwner) external OnlyAdmin returns (uint) {... */\n      swap2\n      swap1\n      pop\n      jump\t// out\n        /* \"contracts/Market.sol\":2486:2602  function getTransactions() public OnlyAdmin view returns (Transaction[] memory) {... */\n    tag_49:\n        /* \"contracts/Market.sol\":2544:2564  Transaction[] memory */\n      0x60\n        /* \"contracts/Market.sol\":914:929  isAdministrator */\n      0x05\n        /* \"contracts/Market.sol\":914:941  isAdministrator[msg.sender] */\n      0x00\n        /* \"contracts/Market.sol\":930:940  msg.sender */\n      caller\n        /* \"contracts/Market.sol\":914:941  isAdministrator[msg.sender] */\n      0xffffffffffffffffffffffffffffffffffffffff\n      and\n      0xffffffffffffffffffffffffffffffffffffffff\n      and\n      dup2\n      mstore\n      0x20\n      add\n      swap1\n      dup2\n      mstore\n      0x20\n      add\n      0x00\n      keccak256\n      0x00\n      swap1\n      sload\n      swap1\n      0x0100\n      exp\n      swap1\n      div\n      0xff\n      and\n        /* \"contracts/Market.sol\":906:976  require(isAdministrator[msg.sender], \"Only the administrator can use\") */\n      tag_139\n      jumpi\n      mload(0x40)\n      0x08c379a000000000000000000000000000000000000000000000000000000000\n      dup2\n      mstore\n      0x04\n      add\n      tag_140\n      swap1\n      tag_73\n      jump\t// in\n    tag_140:\n      mload(0x40)\n      dup1\n      swap2\n      sub\n      swap1\n      revert\n    tag_139:\n        /* \"contracts/Market.sol\":2583:2595  transactions */\n      0x04\n        /* \"contracts/Market.sol\":2576:2595  return transactions */\n      dup1\n      sload\n      dup1\n      0x20\n      mul\n      0x20\n      add\n      mload(0x40)\n      swap1\n      dup2\n      add\n      0x40\n      mstore\n      dup1\n      swap3\n      swap2\n      swap1\n      dup2\n      dup2\n      mstore\n      0x20\n      add\n      0x00\n      swap1\n    tag_142:\n      dup3\n      dup3\n      lt\n      iszero\n      tag_143\n      jumpi\n      dup4\n      dup3\n      swap1\n      0x00\n      mstore\n      keccak256(0x00, 0x20)\n      swap1\n      0x02\n      mul\n      add\n      mload(0x40)\n      dup1\n      0x60\n      add\n      0x40\n      mstore\n      swap1\n      dup2\n      0x00\n      dup3\n      add\n      dup1\n      sload\n      tag_145\n      swap1\n      tag_146\n      jump\t// in\n    tag_145:\n      dup1\n      0x1f\n      add\n      0x20\n      dup1\n      swap2\n      div\n      mul\n      0x20\n      add\n      mload(0x40)\n      swap1\n      dup2\n      add\n      0x40\n      mstore\n      dup1\n      swap3\n      swap2\n      swap1\n      dup2\n      dup2\n      mstore\n      0x20\n      add\n      dup3\n      dup1\n      sload\n      tag_147\n      swap1\n      tag_146\n      jump\t// in\n    tag_147:\n      dup1\n      iszero\n      tag_148\n      jumpi\n      dup1\n      0x1f\n      lt\n      tag_149\n      jumpi\n      0x0100\n      dup1\n      dup4\n      sload\n      div\n      mul\n      dup4\n      mstore\n      swap2\n      0x20\n      add\n      swap2\n      jump(tag_148)\n    tag_149:\n      dup3\n      add\n      swap2\n      swap1\n      0x00\n      mstore\n      keccak256(0x00, 0x20)\n      swap1\n    tag_150:\n      dup2\n      sload\n      dup2\n      mstore\n      swap1\n      0x01\n      add\n      swap1\n      0x20\n      add\n      dup1\n      dup4\n      gt\n      tag_150\n      jumpi\n      dup3\n      swap1\n      sub\n      0x1f\n      and\n      dup3\n      add\n      swap2\n    tag_148:\n      pop\n      pop\n      pop\n      pop\n      pop\n      dup2\n      mstore\n      0x20\n      add\n      0x01\n      dup3\n      add\n      0x00\n      swap1\n      sload\n      swap1\n      0x0100\n      exp\n      swap1\n      div\n      0xff\n      and\n      iszero\n      iszero\n      iszero\n      iszero\n      dup2\n      mstore\n      0x20\n      add\n      0x01\n      dup3\n      add\n      0x01\n      swap1\n      sload\n      swap1\n      0x0100\n      exp\n      swap1\n      div\n      0xff\n      and\n      iszero\n      iszero\n      iszero\n      iszero\n      dup2\n      mstore\n      pop\n      pop\n      dup2\n      mstore\n      0x20\n      add\n      swap1\n      0x01\n      add\n      swap1\n      jump(tag_142)\n    tag_143:\n      pop\n      pop\n      pop\n      pop\n      swap1\n      pop\n        /* \"contracts/Market.sol\":2486:2602  function getTransactions() public OnlyAdmin view returns (Transaction[] memory) {... */\n      swap1\n      jump\t// out\n        /* \"contracts/Market.sol\":4588:4672  function sendSwitch() external OnlyAdmin {... */\n    tag_53:\n        /* \"contracts/Market.sol\":914:929  isAdministrator */\n      0x05\n        /* \"contracts/Market.sol\":914:941  isAdministrator[msg.sender] */\n      0x00\n        /* \"contracts/Market.sol\":930:940  msg.sender */\n      caller\n        /* \"contracts/Market.sol\":914:941  isAdministrator[msg.sender] */\n      0xffffffffffffffffffffffffffffffffffffffff\n      and\n      0xffffffffffffffffffffffffffffffffffffffff\n      and\n      dup2\n      mstore\n      0x20\n      add\n      swap1\n      dup2\n      mstore\n      0x20\n      add\n      0x00\n      keccak256\n      0x00\n      swap1\n      sload\n      swap1\n      0x0100\n      exp\n      swap1\n      div\n      0xff\n      and\n        /* \"contracts/Market.sol\":906:976  require(isAdministrator[msg.sender], \"Only the administrator can use\") */\n      tag_152\n      jumpi\n      mload(0x40)\n      0x08c379a000000000000000000000000000000000000000000000000000000000\n      dup2\n      mstore\n      0x04\n      add\n      tag_153\n      swap1\n      tag_73\n      jump\t// in\n    tag_153:\n      mload(0x40)\n      dup1\n      swap2\n      sub\n      swap1\n      revert\n    tag_152:\n        /* \"contracts/Market.sol\":4654:4665  sendToOwner */\n      0x02\n      0x00\n      swap1\n      sload\n      swap1\n      0x0100\n      exp\n      swap1\n      div\n      0xff\n      and\n        /* \"contracts/Market.sol\":4653:4665  !sendToOwner */\n      iszero\n        /* \"contracts/Market.sol\":4639:4650  sendToOwner */\n      0x02\n      0x00\n        /* \"contracts/Market.sol\":4639:4665  sendToOwner = !sendToOwner */\n      0x0100\n      exp\n      dup2\n      sload\n      dup2\n      0xff\n      mul\n      not\n      and\n      swap1\n      dup4\n      iszero\n      iszero\n      mul\n      or\n      swap1\n      sstore\n      pop\n        /* \"contracts/Market.sol\":4588:4672  function sendSwitch() external OnlyAdmin {... */\n      jump\t// out\n        /* \"contracts/Market.sol\":2137:2226  function getOwner() public OnlyAdmin view returns (address) {... */\n    tag_55:\n        /* \"contracts/Market.sol\":2188:2195  address */\n      0x00\n        /* \"contracts/Market.sol\":914:929  isAdministrator */\n      0x05\n        /* \"contracts/Market.sol\":914:941  isAdministrator[msg.sender] */\n      0x00\n        /* \"contracts/Market.sol\":930:940  msg.sender */\n      caller\n        /* \"contracts/Market.sol\":914:941  isAdministrator[msg.sender] */\n      0xffffffffffffffffffffffffffffffffffffffff\n      and\n      0xffffffffffffffffffffffffffffffffffffffff\n      and\n      dup2\n      mstore\n      0x20\n      add\n      swap1\n      dup2\n      mstore\n      0x20\n      add\n      0x00\n      keccak256\n      0x00\n      swap1\n      sload\n      swap1\n      0x0100\n      exp\n      swap1\n      div\n      0xff\n      and\n        /* \"contracts/Market.sol\":906:976  require(isAdministrator[msg.sender], \"Only the administrator can use\") */\n      tag_156\n      jumpi\n      mload(0x40)\n      0x08c379a000000000000000000000000000000000000000000000000000000000\n      dup2\n      mstore\n      0x04\n      add\n      tag_157\n      swap1\n      tag_73\n      jump\t// in\n    tag_157:\n      mload(0x40)\n      dup1\n      swap2\n      sub\n      swap1\n      revert\n    tag_156:\n        /* \"contracts/Market.sol\":2214:2219  owner */\n      0x02\n      0x01\n      swap1\n      sload\n      swap1\n      0x0100\n      exp\n      swap1\n      div\n      0xffffffffffffffffffffffffffffffffffffffff\n      and\n        /* \"contracts/Market.sol\":2207:2219  return owner */\n      swap1\n      pop\n        /* \"contracts/Market.sol\":2137:2226  function getOwner() public OnlyAdmin view returns (address) {... */\n      swap1\n      jump\t// out\n        /* \"contracts/Market.sol\":3519:3853  function usdtReceive(uint _cost) external {... */\n    tag_60:\n        /* \"contracts/Market.sol\":3595:3608  bool transfer */\n      0x00\n        /* \"contracts/Market.sol\":3611:3615  usdt */\n      0x0a\n      0x00\n      swap1\n      sload\n      swap1\n      0x0100\n      exp\n      swap1\n      div\n      0xffffffffffffffffffffffffffffffffffffffff\n      and\n        /* \"contracts/Market.sol\":3611:3628  usdt.transferFrom */\n      0xffffffffffffffffffffffffffffffffffffffff\n      and\n      0x23b872dd\n        /* \"contracts/Market.sol\":3629:3639  msg.sender */\n      caller\n        /* \"contracts/Market.sol\":3649:3653  this */\n      address\n        /* \"contracts/Market.sol\":3656:3661  _cost */\n      dup6\n        /* \"contracts/Market.sol\":3611:3662  usdt.transferFrom(msg.sender, address(this), _cost) */\n      mload(0x40)\n      dup5\n      0xffffffff\n      and\n      0xe0\n      shl\n      dup2\n      mstore\n      0x04\n      add\n      tag_160\n      swap4\n      swap3\n      swap2\n      swap1\n      tag_161\n      jump\t// in\n    tag_160:\n      0x20\n      mload(0x40)\n      dup1\n      dup4\n      sub\n      dup2\n      0x00\n      dup8\n      gas\n      call\n      iszero\n      dup1\n      iszero\n      tag_163\n      jumpi\n      returndatacopy(0x00, 0x00, returndatasize)\n      revert(0x00, returndatasize)\n    tag_163:\n      pop\n      pop\n      pop\n      pop\n      mload(0x40)\n      returndatasize\n      not(0x1f)\n      0x1f\n      dup3\n      add\n      and\n      dup3\n      add\n      dup1\n      0x40\n      mstore\n      pop\n      dup2\n      add\n      swap1\n      tag_164\n      swap2\n      swap1\n      tag_111\n      jump\t// in\n    tag_164:\n        /* \"contracts/Market.sol\":3595:3662  bool transfer = usdt.transferFrom(msg.sender, address(this), _cost) */\n      swap1\n      pop\n        /* \"contracts/Market.sol\":3680:3688  transfer */\n      dup1\n        /* \"contracts/Market.sol\":3672:3713  require(transfer, \"USDT transfer failed\") */\n      tag_165\n      jumpi\n      mload(0x40)\n      0x08c379a000000000000000000000000000000000000000000000000000000000\n      dup2\n      mstore\n      0x04\n      add\n      tag_166\n      swap1\n      tag_167\n      jump\t// in\n    tag_166:\n      mload(0x40)\n      dup1\n      swap2\n      sub\n      swap1\n      revert\n    tag_165:\n        /* \"contracts/Market.sol\":3782:3793  sendToOwner */\n      0x02\n      0x00\n      swap1\n      sload\n      swap1\n      0x0100\n      exp\n      swap1\n      div\n      0xff\n      and\n        /* \"contracts/Market.sol\":3778:3847  if (sendToOwner) {... */\n      iszero\n      tag_168\n      jumpi\n        /* \"contracts/Market.sol\":3809:3813  usdt */\n      0x0a\n      0x00\n      swap1\n      sload\n      swap1\n      0x0100\n      exp\n      swap1\n      div\n      0xffffffffffffffffffffffffffffffffffffffff\n      and\n        /* \"contracts/Market.sol\":3809:3822  usdt.transfer */\n      0xffffffffffffffffffffffffffffffffffffffff\n      and\n      0xa9059cbb\n        /* \"contracts/Market.sol\":3823:3828  owner */\n      0x02\n      0x01\n      swap1\n      sload\n      swap1\n      0x0100\n      exp\n      swap1\n      div\n      0xffffffffffffffffffffffffffffffffffffffff\n      and\n        /* \"contracts/Market.sol\":3830:3835  _cost */\n      dup5\n        /* \"contracts/Market.sol\":3809:3836  usdt.transfer(owner, _cost) */\n      mload(0x40)\n      dup4\n      0xffffffff\n      and\n      0xe0\n      shl\n      dup2\n      mstore\n      0x04\n      add\n      tag_169\n      swap3\n      swap2\n      swap1\n      tag_107\n      jump\t// in\n    tag_169:\n      0x20\n      mload(0x40)\n      dup1\n      dup4\n      sub\n      dup2\n      0x00\n      dup8\n      gas\n      call\n      iszero\n      dup1\n      iszero\n      tag_171\n      jumpi\n      returndatacopy(0x00, 0x00, returndatasize)\n      revert(0x00, returndatasize)\n    tag_171:\n      pop\n      pop\n      pop\n      pop\n      mload(0x40)\n      returndatasize\n      not(0x1f)\n      0x1f\n      dup3\n      add\n      and\n      dup3\n      add\n      dup1\n      0x40\n      mstore\n      pop\n      dup2\n      add\n      swap1\n      tag_172\n      swap2\n      swap1\n      tag_111\n      jump\t// in\n    tag_172:\n      pop\n        /* \"contracts/Market.sol\":3778:3847  if (sendToOwner) {... */\n    tag_168:\n        /* \"contracts/Market.sol\":3561:3853  {... */\n      pop\n        /* \"contracts/Market.sol\":3519:3853  function usdtReceive(uint _cost) external {... */\n      pop\n      jump\t// out\n        /* \"contracts/Market.sol\":2608:2705  function getSendSwitch() public OnlyAdmin view returns (bool) {... */\n    tag_62:\n        /* \"contracts/Market.sol\":2664:2668  bool */\n      0x00\n        /* \"contracts/Market.sol\":914:929  isAdministrator */\n      0x05\n        /* \"contracts/Market.sol\":914:941  isAdministrator[msg.sender] */\n      0x00\n        /* \"contracts/Market.sol\":930:940  msg.sender */\n      caller\n        /* \"contracts/Market.sol\":914:941  isAdministrator[msg.sender] */\n      0xffffffffffffffffffffffffffffffffffffffff\n      and\n      0xffffffffffffffffffffffffffffffffffffffff\n      and\n      dup2\n      mstore\n      0x20\n      add\n      swap1\n      dup2\n      mstore\n      0x20\n      add\n      0x00\n      keccak256\n      0x00\n      swap1\n      sload\n      swap1\n      0x0100\n      exp\n      swap1\n      div\n      0xff\n      and\n        /* \"contracts/Market.sol\":906:976  require(isAdministrator[msg.sender], \"Only the administrator can use\") */\n      tag_174\n      jumpi\n      mload(0x40)\n      0x08c379a000000000000000000000000000000000000000000000000000000000\n      dup2\n      mstore\n      0x04\n      add\n      tag_175\n      swap1\n      tag_73\n      jump\t// in\n    tag_175:\n      mload(0x40)\n      dup1\n      swap2\n      sub\n      swap1\n      revert\n    tag_174:\n        /* \"contracts/Market.sol\":2687:2698  sendToOwner */\n      0x02\n      0x00\n      swap1\n      sload\n      swap1\n      0x0100\n      exp\n      swap1\n      div\n      0xff\n      and\n        /* \"contracts/Market.sol\":2680:2698  return sendToOwner */\n      swap1\n      pop\n        /* \"contracts/Market.sol\":2608:2705  function getSendSwitch() public OnlyAdmin view returns (bool) {... */\n      swap1\n      jump\t// out\n        /* \"contracts/Market.sol\":5555:5701  function usdtWithdraw() external OnlyAdmin {... */\n    tag_66:\n        /* \"contracts/Market.sol\":914:929  isAdministrator */\n      0x05\n        /* \"contracts/Market.sol\":914:941  isAdministrator[msg.sender] */\n      0x00\n        /* \"contracts/Market.sol\":930:940  msg.sender */\n      caller\n        /* \"contracts/Market.sol\":914:941  isAdministrator[msg.sender] */\n      0xffffffffffffffffffffffffffffffffffffffff\n      and\n      0xffffffffffffffffffffffffffffffffffffffff\n      and\n      dup2\n      mstore\n      0x20\n      add\n      swap1\n      dup2\n      mstore\n      0x20\n      add\n      0x00\n      keccak256\n      0x00\n      swap1\n      sload\n      swap1\n      0x0100\n      exp\n      swap1\n      div\n      0xff\n      and\n        /* \"contracts/Market.sol\":906:976  require(isAdministrator[msg.sender], \"Only the administrator can use\") */\n      tag_178\n      jumpi\n      mload(0x40)\n      0x08c379a000000000000000000000000000000000000000000000000000000000\n      dup2\n      mstore\n      0x04\n      add\n      tag_179\n      swap1\n      tag_73\n      jump\t// in\n    tag_179:\n      mload(0x40)\n      dup1\n      swap2\n      sub\n      swap1\n      revert\n    tag_178:\n        /* \"contracts/Market.sol\":5608:5623  uint256 balance */\n      0x00\n        /* \"contracts/Market.sol\":5626:5630  usdt */\n      0x0a\n      0x00\n      swap1\n      sload\n      swap1\n      0x0100\n      exp\n      swap1\n      div\n      0xffffffffffffffffffffffffffffffffffffffff\n      and\n        /* \"contracts/Market.sol\":5626:5640  usdt.balanceOf */\n      0xffffffffffffffffffffffffffffffffffffffff\n      and\n      0x70a08231\n        /* \"contracts/Market.sol\":5649:5653  this */\n      address\n        /* \"contracts/Market.sol\":5626:5655  usdt.balanceOf(address(this)) */\n      mload(0x40)\n      dup3\n      0xffffffff\n      and\n      0xe0\n      shl\n      dup2\n      mstore\n      0x04\n      add\n      tag_181\n      swap2\n      swap1\n      tag_57\n      jump\t// in\n    tag_181:\n      0x20\n      mload(0x40)\n      dup1\n      dup4\n      sub\n      dup2\n      dup7\n      gas\n      staticcall\n      iszero\n      dup1\n      iszero\n      tag_183\n      jumpi\n      returndatacopy(0x00, 0x00, returndatasize)\n      revert(0x00, returndatasize)\n    tag_183:\n      pop\n      pop\n      pop\n      pop\n      mload(0x40)\n      returndatasize\n      not(0x1f)\n      0x1f\n      dup3\n      add\n      and\n      dup3\n      add\n      dup1\n      0x40\n      mstore\n      pop\n      dup2\n      add\n      swap1\n      tag_184\n      swap2\n      swap1\n      tag_127\n      jump\t// in\n    tag_184:\n        /* \"contracts/Market.sol\":5608:5655  uint256 balance = usdt.balanceOf(address(this)) */\n      swap1\n      pop\n        /* \"contracts/Market.sol\":5665:5669  usdt */\n      0x0a\n      0x00\n      swap1\n      sload\n      swap1\n      0x0100\n      exp\n      swap1\n      div\n      0xffffffffffffffffffffffffffffffffffffffff\n      and\n        /* \"contracts/Market.sol\":5665:5678  usdt.transfer */\n      0xffffffffffffffffffffffffffffffffffffffff\n      and\n      0xa9059cbb\n        /* \"contracts/Market.sol\":5679:5684  owner */\n      0x02\n      0x01\n      swap1\n      sload\n      swap1\n      0x0100\n      exp\n      swap1\n      div\n      0xffffffffffffffffffffffffffffffffffffffff\n      and\n        /* \"contracts/Market.sol\":5686:5693  balance */\n      dup4\n        /* \"contracts/Market.sol\":5665:5694  usdt.transfer(owner, balance) */\n      mload(0x40)\n      dup4\n      0xffffffff\n      and\n      0xe0\n      shl\n      dup2\n      mstore\n      0x04\n      add\n      tag_185\n      swap3\n      swap2\n      swap1\n      tag_107\n      jump\t// in\n    tag_185:\n      0x20\n      mload(0x40)\n      dup1\n      dup4\n      sub\n      dup2\n      0x00\n      dup8\n      gas\n      call\n      iszero\n      dup1\n      iszero\n      tag_187\n      jumpi\n      returndatacopy(0x00, 0x00, returndatasize)\n      revert(0x00, returndatasize)\n    tag_187:\n      pop\n      pop\n      pop\n      pop\n      mload(0x40)\n      returndatasize\n      not(0x1f)\n      0x1f\n      dup3\n      add\n      and\n      dup3\n      add\n      dup1\n      0x40\n      mstore\n      pop\n      dup2\n      add\n      swap1\n      tag_188\n      swap2\n      swap1\n      tag_111\n      jump\t// in\n    tag_188:\n      pop\n        /* \"contracts/Market.sol\":5598:5701  {... */\n      pop\n        /* \"contracts/Market.sol\":5555:5701  function usdtWithdraw() external OnlyAdmin {... */\n      jump\t// out\n        /* \"contracts/Market.sol\":5039:5290  function confirmTransaction(uint _txIndex) external OnlyAdmin {... */\n    tag_69:\n        /* \"contracts/Market.sol\":914:929  isAdministrator */\n      0x05\n        /* \"contracts/Market.sol\":914:941  isAdministrator[msg.sender] */\n      0x00\n        /* \"contracts/Market.sol\":930:940  msg.sender */\n      caller\n        /* \"contracts/Market.sol\":914:941  isAdministrator[msg.sender] */\n      0xffffffffffffffffffffffffffffffffffffffff\n      and\n      0xffffffffffffffffffffffffffffffffffffffff\n      and\n      dup2\n      mstore\n      0x20\n      add\n      swap1\n      dup2\n      mstore\n      0x20\n      add\n      0x00\n      keccak256\n      0x00\n      swap1\n      sload\n      swap1\n      0x0100\n      exp\n      swap1\n      div\n      0xff\n      and\n        /* \"contracts/Market.sol\":906:976  require(isAdministrator[msg.sender], \"Only the administrator can use\") */\n      tag_190\n      jumpi\n      mload(0x40)\n      0x08c379a000000000000000000000000000000000000000000000000000000000\n      dup2\n      mstore\n      0x04\n      add\n      tag_191\n      swap1\n      tag_73\n      jump\t// in\n    tag_191:\n      mload(0x40)\n      dup1\n      swap2\n      sub\n      swap1\n      revert\n    tag_190:\n        /* \"contracts/Market.sol\":5111:5283  confirmTransaction(... */\n      tag_193\n        /* \"contracts/Market.sol\":5143:5155  transactions */\n      0x04\n        /* \"contracts/Market.sol\":5170:5181  isConfirmed */\n      0x07\n        /* \"contracts/Market.sol\":5196:5212  numConfirmations */\n      0x06\n        /* \"contracts/Market.sol\":5227:5251  numConfirmationsRequired */\n      sload(0x00)\n        /* \"contracts/Market.sol\":5265:5273  _txIndex */\n      dup6\n        /* \"contracts/Market.sol\":5111:5129  confirmTransaction */\n      tag_194\n        /* \"contracts/Market.sol\":5111:5283  confirmTransaction(... */\n      jump\t// in\n    tag_193:\n        /* \"contracts/Market.sol\":5039:5290  function confirmTransaction(uint _txIndex) external OnlyAdmin {... */\n      pop\n      jump\t// out\n        /* \"contracts/Market.sol\":7533:8169  function revokeConfirmation(... */\n    tag_82:\n        /* \"contracts/Market.sol\":7802:7815  _transactions */\n      dup4\n        /* \"contracts/Market.sol\":7802:7822  _transactions.length */\n      dup1\n      sload\n      swap1\n      pop\n        /* \"contracts/Market.sol\":7791:7799  _txIndex */\n      dup2\n        /* \"contracts/Market.sol\":7791:7822  _txIndex < _transactions.length */\n      lt\n        /* \"contracts/Market.sol\":7783:7852  require(_txIndex < _transactions.length, \"Invalid transaction index\") */\n      tag_196\n      jumpi\n      mload(0x40)\n      0x08c379a000000000000000000000000000000000000000000000000000000000\n      dup2\n      mstore\n      0x04\n      add\n      tag_197\n      swap1\n      tag_198\n      jump\t// in\n    tag_197:\n      mload(0x40)\n      dup1\n      swap2\n      sub\n      swap1\n      revert\n    tag_196:\n        /* \"contracts/Market.sol\":7870:7883  _transactions */\n      dup4\n        /* \"contracts/Market.sol\":7884:7892  _txIndex */\n      dup2\n        /* \"contracts/Market.sol\":7870:7893  _transactions[_txIndex] */\n      dup2\n      sload\n      dup2\n      lt\n      tag_199\n      jumpi\n      tag_200\n      tag_201\n      jump\t// in\n    tag_200:\n    tag_199:\n      swap1\n      0x00\n      mstore\n      keccak256(0x00, 0x20)\n      swap1\n      0x02\n      mul\n      add\n        /* \"contracts/Market.sol\":7870:7902  _transactions[_txIndex].executed */\n      0x01\n      add\n      0x00\n      swap1\n      sload\n      swap1\n      0x0100\n      exp\n      swap1\n      div\n      0xff\n      and\n        /* \"contracts/Market.sol\":7862:7931  require(_transactions[_txIndex].executed, \"Transaction not executed\") */\n      tag_203\n      jumpi\n      mload(0x40)\n      0x08c379a000000000000000000000000000000000000000000000000000000000\n      dup2\n      mstore\n      0x04\n      add\n      tag_204\n      swap1\n      tag_205\n      jump\t// in\n    tag_204:\n      mload(0x40)\n      dup1\n      swap2\n      sub\n      swap1\n      revert\n    tag_203:\n        /* \"contracts/Market.sol\":7950:7962  _isConfirmed */\n      dup3\n        /* \"contracts/Market.sol\":7950:7972  _isConfirmed[_txIndex] */\n      0x00\n        /* \"contracts/Market.sol\":7963:7971  _txIndex */\n      dup3\n        /* \"contracts/Market.sol\":7950:7972  _isConfirmed[_txIndex] */\n      dup2\n      mstore\n      0x20\n      add\n      swap1\n      dup2\n      mstore\n      0x20\n      add\n      0x00\n      keccak256\n        /* \"contracts/Market.sol\":7950:7984  _isConfirmed[_txIndex][msg.sender] */\n      0x00\n        /* \"contracts/Market.sol\":7973:7983  msg.sender */\n      caller\n        /* \"contracts/Market.sol\":7950:7984  _isConfirmed[_txIndex][msg.sender] */\n      0xffffffffffffffffffffffffffffffffffffffff\n      and\n      0xffffffffffffffffffffffffffffffffffffffff\n      and\n      dup2\n      mstore\n      0x20\n      add\n      swap1\n      dup2\n      mstore\n      0x20\n      add\n      0x00\n      keccak256\n      0x00\n      swap1\n      sload\n      swap1\n      0x0100\n      exp\n      swap1\n      div\n      0xff\n      and\n        /* \"contracts/Market.sol\":7942:8014  require(_isConfirmed[_txIndex][msg.sender], \"Transaction not confirmed\") */\n      tag_206\n      jumpi\n      mload(0x40)\n      0x08c379a000000000000000000000000000000000000000000000000000000000\n      dup2\n      mstore\n      0x04\n      add\n      tag_207\n      swap1\n      tag_208\n      jump\t// in\n    tag_207:\n      mload(0x40)\n      dup1\n      swap2\n      sub\n      swap1\n      revert\n    tag_206:\n        /* \"contracts/Market.sol\":8062:8067  false */\n      0x00\n        /* \"contracts/Market.sol\":8025:8037  _isConfirmed */\n      dup4\n        /* \"contracts/Market.sol\":8025:8047  _isConfirmed[_txIndex] */\n      0x00\n        /* \"contracts/Market.sol\":8038:8046  _txIndex */\n      dup4\n        /* \"contracts/Market.sol\":8025:8047  _isConfirmed[_txIndex] */\n      dup2\n      mstore\n      0x20\n      add\n      swap1\n      dup2\n      mstore\n      0x20\n      add\n      0x00\n      keccak256\n        /* \"contracts/Market.sol\":8025:8059  _isConfirmed[_txIndex][msg.sender] */\n      0x00\n        /* \"contracts/Market.sol\":8048:8058  msg.sender */\n      caller\n        /* \"contracts/Market.sol\":8025:8059  _isConfirmed[_txIndex][msg.sender] */\n      0xffffffffffffffffffffffffffffffffffffffff\n      and\n      0xffffffffffffffffffffffffffffffffffffffff\n      and\n      dup2\n      mstore\n      0x20\n      add\n      swap1\n      dup2\n      mstore\n      0x20\n      add\n      0x00\n      keccak256\n      0x00\n        /* \"contracts/Market.sol\":8025:8067  _isConfirmed[_txIndex][msg.sender] = false */\n      0x0100\n      exp\n      dup2\n      sload\n      dup2\n      0xff\n      mul\n      not\n      and\n      swap1\n      dup4\n      iszero\n      iszero\n      mul\n      or\n      swap1\n      sstore\n      pop\n        /* \"contracts/Market.sol\":8077:8094  _numConfirmations */\n      dup2\n        /* \"contracts/Market.sol\":8077:8104  _numConfirmations[_txIndex] */\n      0x00\n        /* \"contracts/Market.sol\":8095:8103  _txIndex */\n      dup3\n        /* \"contracts/Market.sol\":8077:8104  _numConfirmations[_txIndex] */\n      dup2\n      mstore\n      0x20\n      add\n      swap1\n      dup2\n      mstore\n      0x20\n      add\n      0x00\n      keccak256\n      0x00\n        /* \"contracts/Market.sol\":8077:8106  _numConfirmations[_txIndex]-- */\n      dup2\n      sload\n      dup1\n      swap3\n      swap2\n      swap1\n      tag_209\n      swap1\n      tag_210\n      jump\t// in\n    tag_209:\n      swap2\n      swap1\n      pop\n      sstore\n      pop\n        /* \"contracts/Market.sol\":8153:8161  _txIndex */\n      dup1\n        /* \"contracts/Market.sol\":8141:8151  msg.sender */\n      caller\n        /* \"contracts/Market.sol\":8122:8162  RevokeConfirmation(msg.sender, _txIndex) */\n      0xffffffffffffffffffffffffffffffffffffffff\n      and\n      0xf0dca620e2e81f7841d07bcc105e1704fb01475b278a9d4c236e1c62945edd55\n      mload(0x40)\n      mload(0x40)\n      dup1\n      swap2\n      sub\n      swap1\n      log3\n        /* \"contracts/Market.sol\":7533:8169  function revokeConfirmation(... */\n      pop\n      pop\n      pop\n      pop\n      jump\t// out\n        /* \"contracts/Market.sol\":5861:6182  function submitTransaction(Transaction[] storage _transactions, bytes memory _data, bool _mulit) internal {... */\n    tag_121:\n        /* \"contracts/Market.sol\":5977:5990  _transactions */\n      dup3\n        /* \"contracts/Market.sol\":5996:6100  Transaction({... */\n      mload(0x40)\n      dup1\n      0x60\n      add\n      0x40\n      mstore\n      dup1\n        /* \"contracts/Market.sol\":6028:6033  _data */\n      dup5\n        /* \"contracts/Market.sol\":5996:6100  Transaction({... */\n      dup2\n      mstore\n      0x20\n      add\n        /* \"contracts/Market.sol\":6057:6062  false */\n      0x00\n        /* \"contracts/Market.sol\":5996:6100  Transaction({... */\n      iszero\n      iszero\n      dup2\n      mstore\n      0x20\n      add\n        /* \"contracts/Market.sol\":6083:6089  _mulit */\n      dup4\n        /* \"contracts/Market.sol\":5996:6100  Transaction({... */\n      iszero\n      iszero\n      dup2\n      mstore\n      pop\n        /* \"contracts/Market.sol\":5977:6101  _transactions.push(Transaction({... */\n      swap1\n      dup1\n      0x01\n      dup2\n      sload\n      add\n      dup1\n      dup3\n      sstore\n      dup1\n      swap2\n      pop\n      pop\n      0x01\n      swap1\n      sub\n      swap1\n      0x00\n      mstore\n      keccak256(0x00, 0x20)\n      swap1\n      0x02\n      mul\n      add\n      0x00\n      swap1\n      swap2\n      swap1\n      swap2\n      swap1\n      swap2\n      pop\n      0x00\n      dup3\n      add\n      mload\n      dup2\n      0x00\n      add\n      swap1\n      dup2\n      tag_213\n      swap2\n      swap1\n      tag_214\n      jump\t// in\n    tag_213:\n      pop\n      0x20\n      dup3\n      add\n      mload\n      dup2\n      0x01\n      add\n      exp(0x0100, 0x00)\n      dup2\n      sload\n      dup2\n      0xff\n      mul\n      not\n      and\n      swap1\n      dup4\n      iszero\n      iszero\n      mul\n      or\n      swap1\n      sstore\n      pop\n      0x40\n      dup3\n      add\n      mload\n      dup2\n      0x01\n      add\n      exp(0x0100, 0x01)\n      dup2\n      sload\n      dup2\n      0xff\n      mul\n      not\n      and\n      swap1\n      dup4\n      iszero\n      iszero\n      mul\n      or\n      swap1\n      sstore\n      pop\n      pop\n      pop\n        /* \"contracts/Market.sol\":6147:6160  _transactions */\n      dup3\n        /* \"contracts/Market.sol\":6147:6167  _transactions.length */\n      dup1\n      sload\n      swap1\n      pop\n        /* \"contracts/Market.sol\":6135:6145  msg.sender */\n      caller\n        /* \"contracts/Market.sol\":6117:6175  SubmitTransaction(msg.sender, _transactions.length, _data) */\n      0xffffffffffffffffffffffffffffffffffffffff\n      and\n      0xeb45f38ad35cf41b4f9be8cfcca269ef78ea04216dbc8b8a38f28491c84d005a\n        /* \"contracts/Market.sol\":6169:6174  _data */\n      dup5\n        /* \"contracts/Market.sol\":6117:6175  SubmitTransaction(msg.sender, _transactions.length, _data) */\n      mload(0x40)\n      tag_215\n      swap2\n      swap1\n      tag_216\n      jump\t// in\n    tag_215:\n      mload(0x40)\n      dup1\n      swap2\n      sub\n      swap1\n      log3\n        /* \"contracts/Market.sol\":5861:6182  function submitTransaction(Transaction[] storage _transactions, bytes memory _data, bool _mulit) internal {... */\n      pop\n      pop\n      pop\n      jump\t// out\n        /* \"contracts/Market.sol\":6208:6869  function confirmTransaction(... */\n    tag_194:\n        /* \"contracts/Market.sol\":6507:6519  _isConfirmed */\n      dup4\n        /* \"contracts/Market.sol\":6507:6529  _isConfirmed[_txIndex] */\n      0x00\n        /* \"contracts/Market.sol\":6520:6528  _txIndex */\n      dup3\n        /* \"contracts/Market.sol\":6507:6529  _isConfirmed[_txIndex] */\n      dup2\n      mstore\n      0x20\n      add\n      swap1\n      dup2\n      mstore\n      0x20\n      add\n      0x00\n      keccak256\n        /* \"contracts/Market.sol\":6507:6541  _isConfirmed[_txIndex][msg.sender] */\n      0x00\n        /* \"contracts/Market.sol\":6530:6540  msg.sender */\n      caller\n        /* \"contracts/Market.sol\":6507:6541  _isConfirmed[_txIndex][msg.sender] */\n      0xffffffffffffffffffffffffffffffffffffffff\n      and\n      0xffffffffffffffffffffffffffffffffffffffff\n      and\n      dup2\n      mstore\n      0x20\n      add\n      swap1\n      dup2\n      mstore\n      0x20\n      add\n      0x00\n      keccak256\n      0x00\n      swap1\n      sload\n      swap1\n      0x0100\n      exp\n      swap1\n      div\n      0xff\n      and\n        /* \"contracts/Market.sol\":6506:6541  !_isConfirmed[_txIndex][msg.sender] */\n      iszero\n        /* \"contracts/Market.sol\":6498:6575  require(!_isConfirmed[_txIndex][msg.sender], \"Transaction already confirmed\") */\n      tag_218\n      jumpi\n      mload(0x40)\n      0x08c379a000000000000000000000000000000000000000000000000000000000\n      dup2\n      mstore\n      0x04\n      add\n      tag_219\n      swap1\n      tag_220\n      jump\t// in\n    tag_219:\n      mload(0x40)\n      dup1\n      swap2\n      sub\n      swap1\n      revert\n    tag_218:\n        /* \"contracts/Market.sol\":6623:6627  true */\n      0x01\n        /* \"contracts/Market.sol\":6586:6598  _isConfirmed */\n      dup5\n        /* \"contracts/Market.sol\":6586:6608  _isConfirmed[_txIndex] */\n      0x00\n        /* \"contracts/Market.sol\":6599:6607  _txIndex */\n      dup4\n        /* \"contracts/Market.sol\":6586:6608  _isConfirmed[_txIndex] */\n      dup2\n      mstore\n      0x20\n      add\n      swap1\n      dup2\n      mstore\n      0x20\n      add\n      0x00\n      keccak256\n        /* \"contracts/Market.sol\":6586:6620  _isConfirmed[_txIndex][msg.sender] */\n      0x00\n        /* \"contracts/Market.sol\":6609:6619  msg.sender */\n      caller\n        /* \"contracts/Market.sol\":6586:6620  _isConfirmed[_txIndex][msg.sender] */\n      0xffffffffffffffffffffffffffffffffffffffff\n      and\n      0xffffffffffffffffffffffffffffffffffffffff\n      and\n      dup2\n      mstore\n      0x20\n      add\n      swap1\n      dup2\n      mstore\n      0x20\n      add\n      0x00\n      keccak256\n      0x00\n        /* \"contracts/Market.sol\":6586:6627  _isConfirmed[_txIndex][msg.sender] = true */\n      0x0100\n      exp\n      dup2\n      sload\n      dup2\n      0xff\n      mul\n      not\n      and\n      swap1\n      dup4\n      iszero\n      iszero\n      mul\n      or\n      swap1\n      sstore\n      pop\n        /* \"contracts/Market.sol\":6637:6654  _numConfirmations */\n      dup3\n        /* \"contracts/Market.sol\":6637:6664  _numConfirmations[_txIndex] */\n      0x00\n        /* \"contracts/Market.sol\":6655:6663  _txIndex */\n      dup3\n        /* \"contracts/Market.sol\":6637:6664  _numConfirmations[_txIndex] */\n      dup2\n      mstore\n      0x20\n      add\n      swap1\n      dup2\n      mstore\n      0x20\n      add\n      0x00\n      keccak256\n      0x00\n        /* \"contracts/Market.sol\":6637:6666  _numConfirmations[_txIndex]++ */\n      dup2\n      sload\n      dup1\n      swap3\n      swap2\n      swap1\n      tag_221\n      swap1\n      tag_222\n      jump\t// in\n    tag_221:\n      swap2\n      swap1\n      pop\n      sstore\n      pop\n        /* \"contracts/Market.sol\":6713:6721  _txIndex */\n      dup1\n        /* \"contracts/Market.sol\":6701:6711  msg.sender */\n      caller\n        /* \"contracts/Market.sol\":6682:6722  ConfirmTransaction(msg.sender, _txIndex) */\n      0xffffffffffffffffffffffffffffffffffffffff\n      and\n      0x5cbe105e36805f7820e291f799d5794ff948af2a5f664e580382defb63390041\n      mload(0x40)\n      mload(0x40)\n      dup1\n      swap2\n      sub\n      swap1\n      log3\n        /* \"contracts/Market.sol\":6768:6793  _numConfirmationsRequired */\n      dup2\n        /* \"contracts/Market.sol\":6737:6754  _numConfirmations */\n      dup4\n        /* \"contracts/Market.sol\":6737:6764  _numConfirmations[_txIndex] */\n      0x00\n        /* \"contracts/Market.sol\":6755:6763  _txIndex */\n      dup4\n        /* \"contracts/Market.sol\":6737:6764  _numConfirmations[_txIndex] */\n      dup2\n      mstore\n      0x20\n      add\n      swap1\n      dup2\n      mstore\n      0x20\n      add\n      0x00\n      keccak256\n      sload\n        /* \"contracts/Market.sol\":6737:6793  _numConfirmations[_txIndex] >= _numConfirmationsRequired */\n      lt\n        /* \"contracts/Market.sol\":6733:6863  if (_numConfirmations[_txIndex] >= _numConfirmationsRequired) {... */\n      tag_223\n      jumpi\n        /* \"contracts/Market.sol\":6809:6852  executeTransaction(_transactions, _txIndex) */\n      tag_224\n        /* \"contracts/Market.sol\":6828:6841  _transactions */\n      dup6\n        /* \"contracts/Market.sol\":6843:6851  _txIndex */\n      dup3\n        /* \"contracts/Market.sol\":6809:6827  executeTransaction */\n      tag_225\n        /* \"contracts/Market.sol\":6809:6852  executeTransaction(_transactions, _txIndex) */\n      jump\t// in\n    tag_224:\n        /* \"contracts/Market.sol\":6733:6863  if (_numConfirmations[_txIndex] >= _numConfirmationsRequired) {... */\n    tag_223:\n        /* \"contracts/Market.sol\":6208:6869  function confirmTransaction(... */\n      pop\n      pop\n      pop\n      pop\n      pop\n      jump\t// out\n        /* \"contracts/Market.sol\":6895:7507  function executeTransaction(Transaction[] storage _transactions, uint _txIndex) internal {... */\n    tag_225:\n        /* \"contracts/Market.sol\":7013:7026  _transactions */\n      dup2\n        /* \"contracts/Market.sol\":7013:7033  _transactions.length */\n      dup1\n      sload\n      swap1\n      pop\n        /* \"contracts/Market.sol\":7002:7010  _txIndex */\n      dup2\n        /* \"contracts/Market.sol\":7002:7033  _txIndex < _transactions.length */\n      lt\n        /* \"contracts/Market.sol\":6994:7063  require(_txIndex < _transactions.length, \"Invalid transaction index\") */\n      tag_227\n      jumpi\n      mload(0x40)\n      0x08c379a000000000000000000000000000000000000000000000000000000000\n      dup2\n      mstore\n      0x04\n      add\n      tag_228\n      swap1\n      tag_198\n      jump\t// in\n    tag_228:\n      mload(0x40)\n      dup1\n      swap2\n      sub\n      swap1\n      revert\n    tag_227:\n        /* \"contracts/Market.sol\":7082:7095  _transactions */\n      dup2\n        /* \"contracts/Market.sol\":7096:7104  _txIndex */\n      dup2\n        /* \"contracts/Market.sol\":7082:7105  _transactions[_txIndex] */\n      dup2\n      sload\n      dup2\n      lt\n      tag_229\n      jumpi\n      tag_230\n      tag_201\n      jump\t// in\n    tag_230:\n    tag_229:\n      swap1\n      0x00\n      mstore\n      keccak256(0x00, 0x20)\n      swap1\n      0x02\n      mul\n      add\n        /* \"contracts/Market.sol\":7082:7114  _transactions[_txIndex].executed */\n      0x01\n      add\n      0x00\n      swap1\n      sload\n      swap1\n      0x0100\n      exp\n      swap1\n      div\n      0xff\n      and\n        /* \"contracts/Market.sol\":7081:7114  !_transactions[_txIndex].executed */\n      iszero\n        /* \"contracts/Market.sol\":7073:7147  require(!_transactions[_txIndex].executed, \"Transaction already executed\") */\n      tag_232\n      jumpi\n      mload(0x40)\n      0x08c379a000000000000000000000000000000000000000000000000000000000\n      dup2\n      mstore\n      0x04\n      add\n      tag_233\n      swap1\n      tag_234\n      jump\t// in\n    tag_233:\n      mload(0x40)\n      dup1\n      swap2\n      sub\n      swap1\n      revert\n    tag_232:\n        /* \"contracts/Market.sol\":7158:7189  Transaction storage transaction */\n      0x00\n        /* \"contracts/Market.sol\":7192:7205  _transactions */\n      dup3\n        /* \"contracts/Market.sol\":7206:7214  _txIndex */\n      dup3\n        /* \"contracts/Market.sol\":7192:7215  _transactions[_txIndex] */\n      dup2\n      sload\n      dup2\n      lt\n      tag_235\n      jumpi\n      tag_236\n      tag_201\n      jump\t// in\n    tag_236:\n    tag_235:\n      swap1\n      0x00\n      mstore\n      keccak256(0x00, 0x20)\n      swap1\n      0x02\n      mul\n      add\n        /* \"contracts/Market.sol\":7158:7215  Transaction storage transaction = _transactions[_txIndex] */\n      swap1\n      pop\n        /* \"contracts/Market.sol\":7248:7252  true */\n      0x01\n        /* \"contracts/Market.sol\":7225:7236  transaction */\n      dup2\n        /* \"contracts/Market.sol\":7225:7245  transaction.executed */\n      0x01\n      add\n      0x00\n        /* \"contracts/Market.sol\":7225:7252  transaction.executed = true */\n      0x0100\n      exp\n      dup2\n      sload\n      dup2\n      0xff\n      mul\n      not\n      and\n      swap1\n      dup4\n      iszero\n      iszero\n      mul\n      or\n      swap1\n      sstore\n      pop\n        /* \"contracts/Market.sol\":7333:7345  bool success */\n      0x00\n        /* \"contracts/Market.sol\":7359:7363  this */\n      address\n        /* \"contracts/Market.sol\":7351:7369  address(this).call */\n      0xffffffffffffffffffffffffffffffffffffffff\n      and\n        /* \"contracts/Market.sol\":7370:7381  transaction */\n      dup3\n        /* \"contracts/Market.sol\":7370:7386  transaction.data */\n      0x00\n      add\n        /* \"contracts/Market.sol\":7351:7387  address(this).call(transaction.data) */\n      mload(0x40)\n      tag_238\n      swap2\n      swap1\n      tag_239\n      jump\t// in\n    tag_238:\n      0x00\n      mload(0x40)\n      dup1\n      dup4\n      sub\n      dup2\n      0x00\n      dup7\n      gas\n      call\n      swap2\n      pop\n      pop\n      returndatasize\n      dup1\n      0x00\n      dup2\n      eq\n      tag_242\n      jumpi\n      mload(0x40)\n      swap2\n      pop\n      and(add(returndatasize, 0x3f), not(0x1f))\n      dup3\n      add\n      0x40\n      mstore\n      returndatasize\n      dup3\n      mstore\n      returndatasize\n      0x00\n      0x20\n      dup5\n      add\n      returndatacopy\n      jump(tag_241)\n    tag_242:\n      0x60\n      swap2\n      pop\n    tag_241:\n      pop\n        /* \"contracts/Market.sol\":7332:7387  (bool success, ) = address(this).call(transaction.data) */\n      pop\n      swap1\n      pop\n        /* \"contracts/Market.sol\":7405:7412  success */\n      dup1\n        /* \"contracts/Market.sol\":7397:7445  require(success, \"Transaction execution failed\") */\n      tag_243\n      jumpi\n      mload(0x40)\n      0x08c379a000000000000000000000000000000000000000000000000000000000\n      dup2\n      mstore\n      0x04\n      add\n      tag_244\n      swap1\n      tag_245\n      jump\t// in\n    tag_244:\n      mload(0x40)\n      dup1\n      swap2\n      sub\n      swap1\n      revert\n    tag_243:\n        /* \"contracts/Market.sol\":7491:7499  _txIndex */\n      dup3\n        /* \"contracts/Market.sol\":7479:7489  msg.sender */\n      caller\n        /* \"contracts/Market.sol\":7460:7500  ExecuteTransaction(msg.sender, _txIndex) */\n      0xffffffffffffffffffffffffffffffffffffffff\n      and\n      0x5445f318f4f5fcfb66592e68e0cc5822aa15664039bd5f0ffde24c5a8142b1ac\n      mload(0x40)\n      mload(0x40)\n      dup1\n      swap2\n      sub\n      swap1\n      log3\n        /* \"contracts/Market.sol\":6984:7507  {... */\n      pop\n      pop\n        /* \"contracts/Market.sol\":6895:7507  function executeTransaction(Transaction[] storage _transactions, uint _txIndex) internal {... */\n      pop\n      pop\n      jump\t// out\n        /* \"#utility.yul\":7:121   */\n    tag_246:\n        /* \"#utility.yul\":74:80   */\n      0x00\n        /* \"#utility.yul\":108:113   */\n      dup2\n        /* \"#utility.yul\":102:114   */\n      mload\n        /* \"#utility.yul\":92:114   */\n      swap1\n      pop\n        /* \"#utility.yul\":7:121   */\n      swap2\n      swap1\n      pop\n      jump\t// out\n        /* \"#utility.yul\":127:311   */\n    tag_247:\n        /* \"#utility.yul\":226:237   */\n      0x00\n        /* \"#utility.yul\":260:266   */\n      dup3\n        /* \"#utility.yul\":255:258   */\n      dup3\n        /* \"#utility.yul\":248:267   */\n      mstore\n        /* \"#utility.yul\":300:304   */\n      0x20\n        /* \"#utility.yul\":295:298   */\n      dup3\n        /* \"#utility.yul\":291:305   */\n      add\n        /* \"#utility.yul\":276:305   */\n      swap1\n      pop\n        /* \"#utility.yul\":127:311   */\n      swap3\n      swap2\n      pop\n      pop\n      jump\t// out\n        /* \"#utility.yul\":317:449   */\n    tag_248:\n        /* \"#utility.yul\":384:388   */\n      0x00\n        /* \"#utility.yul\":407:410   */\n      dup2\n        /* \"#utility.yul\":399:410   */\n      swap1\n      pop\n        /* \"#utility.yul\":437:441   */\n      0x20\n        /* \"#utility.yul\":432:435   */\n      dup3\n        /* \"#utility.yul\":428:442   */\n      add\n        /* \"#utility.yul\":420:442   */\n      swap1\n      pop\n        /* \"#utility.yul\":317:449   */\n      swap2\n      swap1\n      pop\n      jump\t// out\n        /* \"#utility.yul\":455:581   */\n    tag_249:\n        /* \"#utility.yul\":492:499   */\n      0x00\n        /* \"#utility.yul\":532:574   */\n      0xffffffffffffffffffffffffffffffffffffffff\n        /* \"#utility.yul\":525:530   */\n      dup3\n        /* \"#utility.yul\":521:575   */\n      and\n        /* \"#utility.yul\":510:575   */\n      swap1\n      pop\n        /* \"#utility.yul\":455:581   */\n      swap2\n      swap1\n      pop\n      jump\t// out\n        /* \"#utility.yul\":587:683   */\n    tag_250:\n        /* \"#utility.yul\":624:631   */\n      0x00\n        /* \"#utility.yul\":653:677   */\n      tag_332\n        /* \"#utility.yul\":671:676   */\n      dup3\n        /* \"#utility.yul\":653:677   */\n      tag_249\n      jump\t// in\n    tag_332:\n        /* \"#utility.yul\":642:677   */\n      swap1\n      pop\n        /* \"#utility.yul\":587:683   */\n      swap2\n      swap1\n      pop\n      jump\t// out\n        /* \"#utility.yul\":689:797   */\n    tag_251:\n        /* \"#utility.yul\":766:790   */\n      tag_334\n        /* \"#utility.yul\":784:789   */\n      dup2\n        /* \"#utility.yul\":766:790   */\n      tag_250\n      jump\t// in\n    tag_334:\n        /* \"#utility.yul\":761:764   */\n      dup3\n        /* \"#utility.yul\":754:791   */\n      mstore\n        /* \"#utility.yul\":689:797   */\n      pop\n      pop\n      jump\t// out\n        /* \"#utility.yul\":803:982   */\n    tag_252:\n        /* \"#utility.yul\":872:882   */\n      0x00\n        /* \"#utility.yul\":893:939   */\n      tag_336\n        /* \"#utility.yul\":935:938   */\n      dup4\n        /* \"#utility.yul\":927:933   */\n      dup4\n        /* \"#utility.yul\":893:939   */\n      tag_251\n      jump\t// in\n    tag_336:\n        /* \"#utility.yul\":971:975   */\n      0x20\n        /* \"#utility.yul\":966:969   */\n      dup4\n        /* \"#utility.yul\":962:976   */\n      add\n        /* \"#utility.yul\":948:976   */\n      swap1\n      pop\n        /* \"#utility.yul\":803:982   */\n      swap3\n      swap2\n      pop\n      pop\n      jump\t// out\n        /* \"#utility.yul\":988:1101   */\n    tag_253:\n        /* \"#utility.yul\":1058:1062   */\n      0x00\n        /* \"#utility.yul\":1090:1094   */\n      0x20\n        /* \"#utility.yul\":1085:1088   */\n      dup3\n        /* \"#utility.yul\":1081:1095   */\n      add\n        /* \"#utility.yul\":1073:1095   */\n      swap1\n      pop\n        /* \"#utility.yul\":988:1101   */\n      swap2\n      swap1\n      pop\n      jump\t// out\n        /* \"#utility.yul\":1137:1869   */\n    tag_254:\n        /* \"#utility.yul\":1256:1259   */\n      0x00\n        /* \"#utility.yul\":1285:1339   */\n      tag_339\n        /* \"#utility.yul\":1333:1338   */\n      dup3\n        /* \"#utility.yul\":1285:1339   */\n      tag_246\n      jump\t// in\n    tag_339:\n        /* \"#utility.yul\":1355:1441   */\n      tag_340\n        /* \"#utility.yul\":1434:1440   */\n      dup2\n        /* \"#utility.yul\":1429:1432   */\n      dup6\n        /* \"#utility.yul\":1355:1441   */\n      tag_247\n      jump\t// in\n    tag_340:\n        /* \"#utility.yul\":1348:1441   */\n      swap4\n      pop\n        /* \"#utility.yul\":1465:1521   */\n      tag_341\n        /* \"#utility.yul\":1515:1520   */\n      dup4\n        /* \"#utility.yul\":1465:1521   */\n      tag_248\n      jump\t// in\n    tag_341:\n        /* \"#utility.yul\":1544:1551   */\n      dup1\n        /* \"#utility.yul\":1575:1576   */\n      0x00\n        /* \"#utility.yul\":1560:1844   */\n    tag_342:\n        /* \"#utility.yul\":1585:1591   */\n      dup4\n        /* \"#utility.yul\":1582:1583   */\n      dup2\n        /* \"#utility.yul\":1579:1592   */\n      lt\n        /* \"#utility.yul\":1560:1844   */\n      iszero\n      tag_344\n      jumpi\n        /* \"#utility.yul\":1661:1667   */\n      dup2\n        /* \"#utility.yul\":1655:1668   */\n      mload\n        /* \"#utility.yul\":1688:1751   */\n      tag_345\n        /* \"#utility.yul\":1747:1750   */\n      dup9\n        /* \"#utility.yul\":1732:1745   */\n      dup3\n        /* \"#utility.yul\":1688:1751   */\n      tag_252\n      jump\t// in\n    tag_345:\n        /* \"#utility.yul\":1681:1751   */\n      swap8\n      pop\n        /* \"#utility.yul\":1774:1834   */\n      tag_346\n        /* \"#utility.yul\":1827:1833   */\n      dup4\n        /* \"#utility.yul\":1774:1834   */\n      tag_253\n      jump\t// in\n    tag_346:\n        /* \"#utility.yul\":1764:1834   */\n      swap3\n      pop\n        /* \"#utility.yul\":1620:1844   */\n      pop\n        /* \"#utility.yul\":1607:1608   */\n      0x01\n        /* \"#utility.yul\":1604:1605   */\n      dup2\n        /* \"#utility.yul\":1600:1609   */\n      add\n        /* \"#utility.yul\":1595:1609   */\n      swap1\n      pop\n        /* \"#utility.yul\":1560:1844   */\n      jump(tag_342)\n    tag_344:\n        /* \"#utility.yul\":1564:1578   */\n      pop\n        /* \"#utility.yul\":1860:1863   */\n      dup6\n        /* \"#utility.yul\":1853:1863   */\n      swap4\n      pop\n        /* \"#utility.yul\":1261:1869   */\n      pop\n      pop\n      pop\n        /* \"#utility.yul\":1137:1869   */\n      swap3\n      swap2\n      pop\n      pop\n      jump\t// out\n        /* \"#utility.yul\":1875:2248   */\n    tag_23:\n        /* \"#utility.yul\":2018:2022   */\n      0x00\n        /* \"#utility.yul\":2056:2058   */\n      0x20\n        /* \"#utility.yul\":2045:2054   */\n      dup3\n        /* \"#utility.yul\":2041:2059   */\n      add\n        /* \"#utility.yul\":2033:2059   */\n      swap1\n      pop\n        /* \"#utility.yul\":2105:2114   */\n      dup2\n        /* \"#utility.yul\":2099:2103   */\n      dup2\n        /* \"#utility.yul\":2095:2115   */\n      sub\n        /* \"#utility.yul\":2091:2092   */\n      0x00\n        /* \"#utility.yul\":2080:2089   */\n      dup4\n        /* \"#utility.yul\":2076:2093   */\n      add\n        /* \"#utility.yul\":2069:2116   */\n      mstore\n        /* \"#utility.yul\":2133:2241   */\n      tag_348\n        /* \"#utility.yul\":2236:2240   */\n      dup2\n        /* \"#utility.yul\":2227:2233   */\n      dup5\n        /* \"#utility.yul\":2133:2241   */\n      tag_254\n      jump\t// in\n    tag_348:\n        /* \"#utility.yul\":2125:2241   */\n      swap1\n      pop\n        /* \"#utility.yul\":1875:2248   */\n      swap3\n      swap2\n      pop\n      pop\n      jump\t// out\n        /* \"#utility.yul\":2335:2452   */\n    tag_256:\n        /* \"#utility.yul\":2444:2445   */\n      0x00\n        /* \"#utility.yul\":2441:2442   */\n      0x00\n        /* \"#utility.yul\":2434:2446   */\n      revert\n        /* \"#utility.yul\":2581:2658   */\n    tag_258:\n        /* \"#utility.yul\":2618:2625   */\n      0x00\n        /* \"#utility.yul\":2647:2652   */\n      dup2\n        /* \"#utility.yul\":2636:2652   */\n      swap1\n      pop\n        /* \"#utility.yul\":2581:2658   */\n      swap2\n      swap1\n      pop\n      jump\t// out\n        /* \"#utility.yul\":2664:2786   */\n    tag_259:\n        /* \"#utility.yul\":2737:2761   */\n      tag_354\n        /* \"#utility.yul\":2755:2760   */\n      dup2\n        /* \"#utility.yul\":2737:2761   */\n      tag_258\n      jump\t// in\n    tag_354:\n        /* \"#utility.yul\":2730:2735   */\n      dup2\n        /* \"#utility.yul\":2727:2762   */\n      eq\n        /* \"#utility.yul\":2717:2780   */\n      tag_355\n      jumpi\n        /* \"#utility.yul\":2776:2777   */\n      0x00\n        /* \"#utility.yul\":2773:2774   */\n      0x00\n        /* \"#utility.yul\":2766:2778   */\n      revert\n        /* \"#utility.yul\":2717:2780   */\n    tag_355:\n        /* \"#utility.yul\":2664:2786   */\n      pop\n      jump\t// out\n        /* \"#utility.yul\":2792:2931   */\n    tag_260:\n        /* \"#utility.yul\":2838:2843   */\n      0x00\n        /* \"#utility.yul\":2876:2882   */\n      dup2\n        /* \"#utility.yul\":2863:2883   */\n      calldataload\n        /* \"#utility.yul\":2854:2883   */\n      swap1\n      pop\n        /* \"#utility.yul\":2892:2925   */\n      tag_357\n        /* \"#utility.yul\":2919:2924   */\n      dup2\n        /* \"#utility.yul\":2892:2925   */\n      tag_259\n      jump\t// in\n    tag_357:\n        /* \"#utility.yul\":2792:2931   */\n      swap3\n      swap2\n      pop\n      pop\n      jump\t// out\n        /* \"#utility.yul\":2937:3266   */\n    tag_26:\n        /* \"#utility.yul\":2996:3002   */\n      0x00\n        /* \"#utility.yul\":3045:3047   */\n      0x20\n        /* \"#utility.yul\":3033:3042   */\n      dup3\n        /* \"#utility.yul\":3024:3031   */\n      dup5\n        /* \"#utility.yul\":3020:3043   */\n      sub\n        /* \"#utility.yul\":3016:3048   */\n      slt\n        /* \"#utility.yul\":3013:3132   */\n      iszero\n      tag_359\n      jumpi\n        /* \"#utility.yul\":3051:3130   */\n      tag_360\n      tag_256\n      jump\t// in\n    tag_360:\n        /* \"#utility.yul\":3013:3132   */\n    tag_359:\n        /* \"#utility.yul\":3171:3172   */\n      0x00\n        /* \"#utility.yul\":3196:3249   */\n      tag_361\n        /* \"#utility.yul\":3241:3248   */\n      dup5\n        /* \"#utility.yul\":3232:3238   */\n      dup3\n        /* \"#utility.yul\":3221:3230   */\n      dup6\n        /* \"#utility.yul\":3217:3239   */\n      add\n        /* \"#utility.yul\":3196:3249   */\n      tag_260\n      jump\t// in\n    tag_361:\n        /* \"#utility.yul\":3186:3249   */\n      swap2\n      pop\n        /* \"#utility.yul\":3142:3259   */\n      pop\n        /* \"#utility.yul\":2937:3266   */\n      swap3\n      swap2\n      pop\n      pop\n      jump\t// out\n        /* \"#utility.yul\":3272:3746   */\n    tag_30:\n        /* \"#utility.yul\":3340:3346   */\n      0x00\n        /* \"#utility.yul\":3348:3354   */\n      0x00\n        /* \"#utility.yul\":3397:3399   */\n      0x40\n        /* \"#utility.yul\":3385:3394   */\n      dup4\n        /* \"#utility.yul\":3376:3383   */\n      dup6\n        /* \"#utility.yul\":3372:3395   */\n      sub\n        /* \"#utility.yul\":3368:3400   */\n      slt\n        /* \"#utility.yul\":3365:3484   */\n      iszero\n      tag_363\n      jumpi\n        /* \"#utility.yul\":3403:3482   */\n      tag_364\n      tag_256\n      jump\t// in\n    tag_364:\n        /* \"#utility.yul\":3365:3484   */\n    tag_363:\n        /* \"#utility.yul\":3523:3524   */\n      0x00\n        /* \"#utility.yul\":3548:3601   */\n      tag_365\n        /* \"#utility.yul\":3593:3600   */\n      dup6\n        /* \"#utility.yul\":3584:3590   */\n      dup3\n        /* \"#utility.yul\":3573:3582   */\n      dup7\n        /* \"#utility.yul\":3569:3591   */\n      add\n        /* \"#utility.yul\":3548:3601   */\n      tag_260\n      jump\t// in\n    tag_365:\n        /* \"#utility.yul\":3538:3601   */\n      swap3\n      pop\n        /* \"#utility.yul\":3494:3611   */\n      pop\n        /* \"#utility.yul\":3650:3652   */\n      0x20\n        /* \"#utility.yul\":3676:3729   */\n      tag_366\n        /* \"#utility.yul\":3721:3728   */\n      dup6\n        /* \"#utility.yul\":3712:3718   */\n      dup3\n        /* \"#utility.yul\":3701:3710   */\n      dup7\n        /* \"#utility.yul\":3697:3719   */\n      add\n        /* \"#utility.yul\":3676:3729   */\n      tag_260\n      jump\t// in\n    tag_366:\n        /* \"#utility.yul\":3666:3729   */\n      swap2\n      pop\n        /* \"#utility.yul\":3621:3739   */\n      pop\n        /* \"#utility.yul\":3272:3746   */\n      swap3\n      pop\n      swap3\n      swap1\n      pop\n      jump\t// out\n        /* \"#utility.yul\":3752:3870   */\n    tag_261:\n        /* \"#utility.yul\":3839:3863   */\n      tag_368\n        /* \"#utility.yul\":3857:3862   */\n      dup2\n        /* \"#utility.yul\":3839:3863   */\n      tag_258\n      jump\t// in\n    tag_368:\n        /* \"#utility.yul\":3834:3837   */\n      dup3\n        /* \"#utility.yul\":3827:3864   */\n      mstore\n        /* \"#utility.yul\":3752:3870   */\n      pop\n      pop\n      jump\t// out\n        /* \"#utility.yul\":3876:4098   */\n    tag_33:\n        /* \"#utility.yul\":3969:3973   */\n      0x00\n        /* \"#utility.yul\":4007:4009   */\n      0x20\n        /* \"#utility.yul\":3996:4005   */\n      dup3\n        /* \"#utility.yul\":3992:4010   */\n      add\n        /* \"#utility.yul\":3984:4010   */\n      swap1\n      pop\n        /* \"#utility.yul\":4020:4091   */\n      tag_370\n        /* \"#utility.yul\":4088:4089   */\n      0x00\n        /* \"#utility.yul\":4077:4086   */\n      dup4\n        /* \"#utility.yul\":4073:4090   */\n      add\n        /* \"#utility.yul\":4064:4070   */\n      dup5\n        /* \"#utility.yul\":4020:4091   */\n      tag_261\n      jump\t// in\n    tag_370:\n        /* \"#utility.yul\":3876:4098   */\n      swap3\n      swap2\n      pop\n      pop\n      jump\t// out\n        /* \"#utility.yul\":4104:4226   */\n    tag_262:\n        /* \"#utility.yul\":4177:4201   */\n      tag_372\n        /* \"#utility.yul\":4195:4200   */\n      dup2\n        /* \"#utility.yul\":4177:4201   */\n      tag_250\n      jump\t// in\n    tag_372:\n        /* \"#utility.yul\":4170:4175   */\n      dup2\n        /* \"#utility.yul\":4167:4202   */\n      eq\n        /* \"#utility.yul\":4157:4220   */\n      tag_373\n      jumpi\n        /* \"#utility.yul\":4216:4217   */\n      0x00\n        /* \"#utility.yul\":4213:4214   */\n      0x00\n        /* \"#utility.yul\":4206:4218   */\n      revert\n        /* \"#utility.yul\":4157:4220   */\n    tag_373:\n        /* \"#utility.yul\":4104:4226   */\n      pop\n      jump\t// out\n        /* \"#utility.yul\":4232:4371   */\n    tag_263:\n        /* \"#utility.yul\":4278:4283   */\n      0x00\n        /* \"#utility.yul\":4316:4322   */\n      dup2\n        /* \"#utility.yul\":4303:4323   */\n      calldataload\n        /* \"#utility.yul\":4294:4323   */\n      swap1\n      pop\n        /* \"#utility.yul\":4332:4365   */\n      tag_375\n        /* \"#utility.yul\":4359:4364   */\n      dup2\n        /* \"#utility.yul\":4332:4365   */\n      tag_262\n      jump\t// in\n    tag_375:\n        /* \"#utility.yul\":4232:4371   */\n      swap3\n      swap2\n      pop\n      pop\n      jump\t// out\n        /* \"#utility.yul\":4377:4706   */\n    tag_45:\n        /* \"#utility.yul\":4436:4442   */\n      0x00\n        /* \"#utility.yul\":4485:4487   */\n      0x20\n        /* \"#utility.yul\":4473:4482   */\n      dup3\n        /* \"#utility.yul\":4464:4471   */\n      dup5\n        /* \"#utility.yul\":4460:4483   */\n      sub\n        /* \"#utility.yul\":4456:4488   */\n      slt\n        /* \"#utility.yul\":4453:4572   */\n      iszero\n      tag_377\n      jumpi\n        /* \"#utility.yul\":4491:4570   */\n      tag_378\n      tag_256\n      jump\t// in\n    tag_378:\n        /* \"#utility.yul\":4453:4572   */\n    tag_377:\n        /* \"#utility.yul\":4611:4612   */\n      0x00\n        /* \"#utility.yul\":4636:4689   */\n      tag_379\n        /* \"#utility.yul\":4681:4688   */\n      dup5\n        /* \"#utility.yul\":4672:4678   */\n      dup3\n        /* \"#utility.yul\":4661:4670   */\n      dup6\n        /* \"#utility.yul\":4657:4679   */\n      add\n        /* \"#utility.yul\":4636:4689   */\n      tag_263\n      jump\t// in\n    tag_379:\n        /* \"#utility.yul\":4626:4689   */\n      swap2\n      pop\n        /* \"#utility.yul\":4582:4699   */\n      pop\n        /* \"#utility.yul\":4377:4706   */\n      swap3\n      swap2\n      pop\n      pop\n      jump\t// out\n        /* \"#utility.yul\":4712:4853   */\n    tag_264:\n        /* \"#utility.yul\":4806:4812   */\n      0x00\n        /* \"#utility.yul\":4840:4845   */\n      dup2\n        /* \"#utility.yul\":4834:4846   */\n      mload\n        /* \"#utility.yul\":4824:4846   */\n      swap1\n      pop\n        /* \"#utility.yul\":4712:4853   */\n      swap2\n      swap1\n      pop\n      jump\t// out\n        /* \"#utility.yul\":4859:5070   */\n    tag_265:\n        /* \"#utility.yul\":4985:4996   */\n      0x00\n        /* \"#utility.yul\":5019:5025   */\n      dup3\n        /* \"#utility.yul\":5014:5017   */\n      dup3\n        /* \"#utility.yul\":5007:5026   */\n      mstore\n        /* \"#utility.yul\":5059:5063   */\n      0x20\n        /* \"#utility.yul\":5054:5057   */\n      dup3\n        /* \"#utility.yul\":5050:5064   */\n      add\n        /* \"#utility.yul\":5035:5064   */\n      swap1\n      pop\n        /* \"#utility.yul\":4859:5070   */\n      swap3\n      swap2\n      pop\n      pop\n      jump\t// out\n        /* \"#utility.yul\":5076:5235   */\n    tag_266:\n        /* \"#utility.yul\":5170:5174   */\n      0x00\n        /* \"#utility.yul\":5193:5196   */\n      dup2\n        /* \"#utility.yul\":5185:5196   */\n      swap1\n      pop\n        /* \"#utility.yul\":5223:5227   */\n      0x20\n        /* \"#utility.yul\":5218:5221   */\n      dup3\n        /* \"#utility.yul\":5214:5228   */\n      add\n        /* \"#utility.yul\":5206:5228   */\n      swap1\n      pop\n        /* \"#utility.yul\":5076:5235   */\n      swap2\n      swap1\n      pop\n      jump\t// out\n        /* \"#utility.yul\":5241:5339   */\n    tag_267:\n        /* \"#utility.yul\":5292:5298   */\n      0x00\n        /* \"#utility.yul\":5326:5331   */\n      dup2\n        /* \"#utility.yul\":5320:5332   */\n      mload\n        /* \"#utility.yul\":5310:5332   */\n      swap1\n      pop\n        /* \"#utility.yul\":5241:5339   */\n      swap2\n      swap1\n      pop\n      jump\t// out\n        /* \"#utility.yul\":5345:5503   */\n    tag_268:\n        /* \"#utility.yul\":5418:5429   */\n      0x00\n        /* \"#utility.yul\":5452:5458   */\n      dup3\n        /* \"#utility.yul\":5447:5450   */\n      dup3\n        /* \"#utility.yul\":5440:5459   */\n      mstore\n        /* \"#utility.yul\":5492:5496   */\n      0x20\n        /* \"#utility.yul\":5487:5490   */\n      dup3\n        /* \"#utility.yul\":5483:5497   */\n      add\n        /* \"#utility.yul\":5468:5497   */\n      swap1\n      pop\n        /* \"#utility.yul\":5345:5503   */\n      swap3\n      swap2\n      pop\n      pop\n      jump\t// out\n        /* \"#utility.yul\":5509:5648   */\n    tag_269:\n        /* \"#utility.yul\":5598:5604   */\n      dup3\n        /* \"#utility.yul\":5593:5596   */\n      dup2\n        /* \"#utility.yul\":5588:5591   */\n      dup4\n        /* \"#utility.yul\":5582:5605   */\n      mcopy\n        /* \"#utility.yul\":5639:5640   */\n      0x00\n        /* \"#utility.yul\":5630:5636   */\n      dup4\n        /* \"#utility.yul\":5625:5628   */\n      dup4\n        /* \"#utility.yul\":5621:5637   */\n      add\n        /* \"#utility.yul\":5614:5641   */\n      mstore\n        /* \"#utility.yul\":5509:5648   */\n      pop\n      pop\n      pop\n      jump\t// out\n        /* \"#utility.yul\":5654:5756   */\n    tag_270:\n        /* \"#utility.yul\":5695:5701   */\n      0x00\n        /* \"#utility.yul\":5746:5748   */\n      0x1f\n        /* \"#utility.yul\":5742:5749   */\n      not\n        /* \"#utility.yul\":5737:5739   */\n      0x1f\n        /* \"#utility.yul\":5730:5735   */\n      dup4\n        /* \"#utility.yul\":5726:5740   */\n      add\n        /* \"#utility.yul\":5722:5750   */\n      and\n        /* \"#utility.yul\":5712:5750   */\n      swap1\n      pop\n        /* \"#utility.yul\":5654:5756   */\n      swap2\n      swap1\n      pop\n      jump\t// out\n        /* \"#utility.yul\":5762:6115   */\n    tag_271:\n        /* \"#utility.yul\":5838:5841   */\n      0x00\n        /* \"#utility.yul\":5866:5904   */\n      tag_388\n        /* \"#utility.yul\":5898:5903   */\n      dup3\n        /* \"#utility.yul\":5866:5904   */\n      tag_267\n      jump\t// in\n    tag_388:\n        /* \"#utility.yul\":5920:5980   */\n      tag_389\n        /* \"#utility.yul\":5973:5979   */\n      dup2\n        /* \"#utility.yul\":5968:5971   */\n      dup6\n        /* \"#utility.yul\":5920:5980   */\n      tag_268\n      jump\t// in\n    tag_389:\n        /* \"#utility.yul\":5913:5980   */\n      swap4\n      pop\n        /* \"#utility.yul\":5989:6054   */\n      tag_390\n        /* \"#utility.yul\":6047:6053   */\n      dup2\n        /* \"#utility.yul\":6042:6045   */\n      dup6\n        /* \"#utility.yul\":6035:6039   */\n      0x20\n        /* \"#utility.yul\":6028:6033   */\n      dup7\n        /* \"#utility.yul\":6024:6040   */\n      add\n        /* \"#utility.yul\":5989:6054   */\n      tag_269\n      jump\t// in\n    tag_390:\n        /* \"#utility.yul\":6079:6108   */\n      tag_391\n        /* \"#utility.yul\":6101:6107   */\n      dup2\n        /* \"#utility.yul\":6079:6108   */\n      tag_270\n      jump\t// in\n    tag_391:\n        /* \"#utility.yul\":6074:6077   */\n      dup5\n        /* \"#utility.yul\":6070:6109   */\n      add\n        /* \"#utility.yul\":6063:6109   */\n      swap2\n      pop\n        /* \"#utility.yul\":5842:6115   */\n      pop\n        /* \"#utility.yul\":5762:6115   */\n      swap3\n      swap2\n      pop\n      pop\n      jump\t// out\n        /* \"#utility.yul\":6121:6211   */\n    tag_272:\n        /* \"#utility.yul\":6155:6162   */\n      0x00\n        /* \"#utility.yul\":6198:6203   */\n      dup2\n        /* \"#utility.yul\":6191:6204   */\n      iszero\n        /* \"#utility.yul\":6184:6205   */\n      iszero\n        /* \"#utility.yul\":6173:6205   */\n      swap1\n      pop\n        /* \"#utility.yul\":6121:6211   */\n      swap2\n      swap1\n      pop\n      jump\t// out\n        /* \"#utility.yul\":6217:6316   */\n    tag_273:\n        /* \"#utility.yul\":6288:6309   */\n      tag_394\n        /* \"#utility.yul\":6303:6308   */\n      dup2\n        /* \"#utility.yul\":6288:6309   */\n      tag_272\n      jump\t// in\n    tag_394:\n        /* \"#utility.yul\":6283:6286   */\n      dup3\n        /* \"#utility.yul\":6276:6310   */\n      mstore\n        /* \"#utility.yul\":6217:6316   */\n      pop\n      pop\n      jump\t// out\n        /* \"#utility.yul\":6384:7149   */\n    tag_274:\n        /* \"#utility.yul\":6497:6500   */\n      0x00\n        /* \"#utility.yul\":6533:6537   */\n      0x60\n        /* \"#utility.yul\":6528:6531   */\n      dup4\n        /* \"#utility.yul\":6524:6538   */\n      add\n        /* \"#utility.yul\":6620:6624   */\n      0x00\n        /* \"#utility.yul\":6613:6618   */\n      dup4\n        /* \"#utility.yul\":6609:6625   */\n      add\n        /* \"#utility.yul\":6603:6626   */\n      mload\n        /* \"#utility.yul\":6673:6676   */\n      dup5\n        /* \"#utility.yul\":6667:6671   */\n      dup3\n        /* \"#utility.yul\":6663:6677   */\n      sub\n        /* \"#utility.yul\":6656:6660   */\n      0x00\n        /* \"#utility.yul\":6651:6654   */\n      dup7\n        /* \"#utility.yul\":6647:6661   */\n      add\n        /* \"#utility.yul\":6640:6678   */\n      mstore\n        /* \"#utility.yul\":6699:6770   */\n      tag_396\n        /* \"#utility.yul\":6765:6769   */\n      dup3\n        /* \"#utility.yul\":6751:6763   */\n      dup3\n        /* \"#utility.yul\":6699:6770   */\n      tag_271\n      jump\t// in\n    tag_396:\n        /* \"#utility.yul\":6691:6770   */\n      swap2\n      pop\n        /* \"#utility.yul\":6548:6781   */\n      pop\n        /* \"#utility.yul\":6867:6871   */\n      0x20\n        /* \"#utility.yul\":6860:6865   */\n      dup4\n        /* \"#utility.yul\":6856:6872   */\n      add\n        /* \"#utility.yul\":6850:6873   */\n      mload\n        /* \"#utility.yul\":6886:6943   */\n      tag_397\n        /* \"#utility.yul\":6937:6941   */\n      0x20\n        /* \"#utility.yul\":6932:6935   */\n      dup7\n        /* \"#utility.yul\":6928:6942   */\n      add\n        /* \"#utility.yul\":6914:6926   */\n      dup3\n        /* \"#utility.yul\":6886:6943   */\n      tag_273\n      jump\t// in\n    tag_397:\n        /* \"#utility.yul\":6791:6953   */\n      pop\n        /* \"#utility.yul\":7036:7040   */\n      0x40\n        /* \"#utility.yul\":7029:7034   */\n      dup4\n        /* \"#utility.yul\":7025:7041   */\n      add\n        /* \"#utility.yul\":7019:7042   */\n      mload\n        /* \"#utility.yul\":7055:7112   */\n      tag_398\n        /* \"#utility.yul\":7106:7110   */\n      0x40\n        /* \"#utility.yul\":7101:7104   */\n      dup7\n        /* \"#utility.yul\":7097:7111   */\n      add\n        /* \"#utility.yul\":7083:7095   */\n      dup3\n        /* \"#utility.yul\":7055:7112   */\n      tag_273\n      jump\t// in\n    tag_398:\n        /* \"#utility.yul\":6963:7122   */\n      pop\n        /* \"#utility.yul\":7139:7143   */\n      dup1\n        /* \"#utility.yul\":7132:7143   */\n      swap2\n      pop\n        /* \"#utility.yul\":6502:7149   */\n      pop\n        /* \"#utility.yul\":6384:7149   */\n      swap3\n      swap2\n      pop\n      pop\n      jump\t// out\n        /* \"#utility.yul\":7155:7419   */\n    tag_275:\n        /* \"#utility.yul\":7278:7288   */\n      0x00\n        /* \"#utility.yul\":7313:7413   */\n      tag_400\n        /* \"#utility.yul\":7409:7412   */\n      dup4\n        /* \"#utility.yul\":7401:7407   */\n      dup4\n        /* \"#utility.yul\":7313:7413   */\n      tag_274\n      jump\t// in\n    tag_400:\n        /* \"#utility.yul\":7299:7413   */\n      swap1\n      pop\n        /* \"#utility.yul\":7155:7419   */\n      swap3\n      swap2\n      pop\n      pop\n      jump\t// out\n        /* \"#utility.yul\":7425:7565   */\n    tag_276:\n        /* \"#utility.yul\":7522:7526   */\n      0x00\n        /* \"#utility.yul\":7554:7558   */\n      0x20\n        /* \"#utility.yul\":7549:7552   */\n      dup3\n        /* \"#utility.yul\":7545:7559   */\n      add\n        /* \"#utility.yul\":7537:7559   */\n      swap1\n      pop\n        /* \"#utility.yul\":7425:7565   */\n      swap2\n      swap1\n      pop\n      jump\t// out\n        /* \"#utility.yul\":7637:8764   */\n    tag_277:\n        /* \"#utility.yul\":7810:7813   */\n      0x00\n        /* \"#utility.yul\":7839:7920   */\n      tag_403\n        /* \"#utility.yul\":7914:7919   */\n      dup3\n        /* \"#utility.yul\":7839:7920   */\n      tag_264\n      jump\t// in\n    tag_403:\n        /* \"#utility.yul\":7936:8049   */\n      tag_404\n        /* \"#utility.yul\":8042:8048   */\n      dup2\n        /* \"#utility.yul\":8037:8040   */\n      dup6\n        /* \"#utility.yul\":7936:8049   */\n      tag_265\n      jump\t// in\n    tag_404:\n        /* \"#utility.yul\":7929:8049   */\n      swap4\n      pop\n        /* \"#utility.yul\":8075:8078   */\n      dup4\n        /* \"#utility.yul\":8120:8124   */\n      0x20\n        /* \"#utility.yul\":8112:8118   */\n      dup3\n        /* \"#utility.yul\":8108:8125   */\n      mul\n        /* \"#utility.yul\":8103:8106   */\n      dup6\n        /* \"#utility.yul\":8099:8126   */\n      add\n        /* \"#utility.yul\":8150:8233   */\n      tag_405\n        /* \"#utility.yul\":8227:8232   */\n      dup6\n        /* \"#utility.yul\":8150:8233   */\n      tag_266\n      jump\t// in\n    tag_405:\n        /* \"#utility.yul\":8256:8263   */\n      dup1\n        /* \"#utility.yul\":8287:8288   */\n      0x00\n        /* \"#utility.yul\":8272:8719   */\n    tag_406:\n        /* \"#utility.yul\":8297:8303   */\n      dup6\n        /* \"#utility.yul\":8294:8295   */\n      dup2\n        /* \"#utility.yul\":8291:8304   */\n      lt\n        /* \"#utility.yul\":8272:8719   */\n      iszero\n      tag_408\n      jumpi\n        /* \"#utility.yul\":8368:8377   */\n      dup5\n        /* \"#utility.yul\":8362:8366   */\n      dup5\n        /* \"#utility.yul\":8358:8378   */\n      sub\n        /* \"#utility.yul\":8353:8356   */\n      dup10\n        /* \"#utility.yul\":8346:8379   */\n      mstore\n        /* \"#utility.yul\":8419:8425   */\n      dup2\n        /* \"#utility.yul\":8413:8426   */\n      mload\n        /* \"#utility.yul\":8447:8565   */\n      tag_409\n        /* \"#utility.yul\":8560:8564   */\n      dup6\n        /* \"#utility.yul\":8545:8558   */\n      dup3\n        /* \"#utility.yul\":8447:8565   */\n      tag_275\n      jump\t// in\n    tag_409:\n        /* \"#utility.yul\":8439:8565   */\n      swap5\n      pop\n        /* \"#utility.yul\":8588:8675   */\n      tag_410\n        /* \"#utility.yul\":8668:8674   */\n      dup4\n        /* \"#utility.yul\":8588:8675   */\n      tag_276\n      jump\t// in\n    tag_410:\n        /* \"#utility.yul\":8578:8675   */\n      swap3\n      pop\n        /* \"#utility.yul\":8704:8708   */\n      0x20\n        /* \"#utility.yul\":8699:8702   */\n      dup11\n        /* \"#utility.yul\":8695:8709   */\n      add\n        /* \"#utility.yul\":8688:8709   */\n      swap10\n      pop\n        /* \"#utility.yul\":8332:8719   */\n      pop\n        /* \"#utility.yul\":8319:8320   */\n      0x01\n        /* \"#utility.yul\":8316:8317   */\n      dup2\n        /* \"#utility.yul\":8312:8321   */\n      add\n        /* \"#utility.yul\":8307:8321   */\n      swap1\n      pop\n        /* \"#utility.yul\":8272:8719   */\n      jump(tag_406)\n    tag_408:\n        /* \"#utility.yul\":8276:8290   */\n      pop\n        /* \"#utility.yul\":8735:8739   */\n      dup3\n        /* \"#utility.yul\":8728:8739   */\n      swap8\n      pop\n        /* \"#utility.yul\":8755:8758   */\n      dup8\n        /* \"#utility.yul\":8748:8758   */\n      swap6\n      pop\n        /* \"#utility.yul\":7815:8764   */\n      pop\n      pop\n      pop\n      pop\n      pop\n        /* \"#utility.yul\":7637:8764   */\n      swap3\n      swap2\n      pop\n      pop\n      jump\t// out\n        /* \"#utility.yul\":8770:9251   */\n    tag_51:\n        /* \"#utility.yul\":8967:8971   */\n      0x00\n        /* \"#utility.yul\":9005:9007   */\n      0x20\n        /* \"#utility.yul\":8994:9003   */\n      dup3\n        /* \"#utility.yul\":8990:9008   */\n      add\n        /* \"#utility.yul\":8982:9008   */\n      swap1\n      pop\n        /* \"#utility.yul\":9054:9063   */\n      dup2\n        /* \"#utility.yul\":9048:9052   */\n      dup2\n        /* \"#utility.yul\":9044:9064   */\n      sub\n        /* \"#utility.yul\":9040:9041   */\n      0x00\n        /* \"#utility.yul\":9029:9038   */\n      dup4\n        /* \"#utility.yul\":9025:9042   */\n      add\n        /* \"#utility.yul\":9018:9065   */\n      mstore\n        /* \"#utility.yul\":9082:9244   */\n      tag_412\n        /* \"#utility.yul\":9239:9243   */\n      dup2\n        /* \"#utility.yul\":9230:9236   */\n      dup5\n        /* \"#utility.yul\":9082:9244   */\n      tag_277\n      jump\t// in\n    tag_412:\n        /* \"#utility.yul\":9074:9244   */\n      swap1\n      pop\n        /* \"#utility.yul\":8770:9251   */\n      swap3\n      swap2\n      pop\n      pop\n      jump\t// out\n        /* \"#utility.yul\":9257:9375   */\n    tag_278:\n        /* \"#utility.yul\":9344:9368   */\n      tag_414\n        /* \"#utility.yul\":9362:9367   */\n      dup2\n        /* \"#utility.yul\":9344:9368   */\n      tag_250\n      jump\t// in\n    tag_414:\n        /* \"#utility.yul\":9339:9342   */\n      dup3\n        /* \"#utility.yul\":9332:9369   */\n      mstore\n        /* \"#utility.yul\":9257:9375   */\n      pop\n      pop\n      jump\t// out\n        /* \"#utility.yul\":9381:9603   */\n    tag_57:\n        /* \"#utility.yul\":9474:9478   */\n      0x00\n        /* \"#utility.yul\":9512:9514   */\n      0x20\n        /* \"#utility.yul\":9501:9510   */\n      dup3\n        /* \"#utility.yul\":9497:9515   */\n      add\n        /* \"#utility.yul\":9489:9515   */\n      swap1\n      pop\n        /* \"#utility.yul\":9525:9596   */\n      tag_416\n        /* \"#utility.yul\":9593:9594   */\n      0x00\n        /* \"#utility.yul\":9582:9591   */\n      dup4\n        /* \"#utility.yul\":9578:9595   */\n      add\n        /* \"#utility.yul\":9569:9575   */\n      dup5\n        /* \"#utility.yul\":9525:9596   */\n      tag_278\n      jump\t// in\n    tag_416:\n        /* \"#utility.yul\":9381:9603   */\n      swap3\n      swap2\n      pop\n      pop\n      jump\t// out\n        /* \"#utility.yul\":9609:9718   */\n    tag_279:\n        /* \"#utility.yul\":9690:9711   */\n      tag_418\n        /* \"#utility.yul\":9705:9710   */\n      dup2\n        /* \"#utility.yul\":9690:9711   */\n      tag_272\n      jump\t// in\n    tag_418:\n        /* \"#utility.yul\":9685:9688   */\n      dup3\n        /* \"#utility.yul\":9678:9712   */\n      mstore\n        /* \"#utility.yul\":9609:9718   */\n      pop\n      pop\n      jump\t// out\n        /* \"#utility.yul\":9724:9934   */\n    tag_64:\n        /* \"#utility.yul\":9811:9815   */\n      0x00\n        /* \"#utility.yul\":9849:9851   */\n      0x20\n        /* \"#utility.yul\":9838:9847   */\n      dup3\n        /* \"#utility.yul\":9834:9852   */\n      add\n        /* \"#utility.yul\":9826:9852   */\n      swap1\n      pop\n        /* \"#utility.yul\":9862:9927   */\n      tag_420\n        /* \"#utility.yul\":9924:9925   */\n      0x00\n        /* \"#utility.yul\":9913:9922   */\n      dup4\n        /* \"#utility.yul\":9909:9926   */\n      add\n        /* \"#utility.yul\":9900:9906   */\n      dup5\n        /* \"#utility.yul\":9862:9927   */\n      tag_279\n      jump\t// in\n    tag_420:\n        /* \"#utility.yul\":9724:9934   */\n      swap3\n      swap2\n      pop\n      pop\n      jump\t// out\n        /* \"#utility.yul\":9940:10109   */\n    tag_280:\n        /* \"#utility.yul\":10024:10035   */\n      0x00\n        /* \"#utility.yul\":10058:10064   */\n      dup3\n        /* \"#utility.yul\":10053:10056   */\n      dup3\n        /* \"#utility.yul\":10046:10065   */\n      mstore\n        /* \"#utility.yul\":10098:10102   */\n      0x20\n        /* \"#utility.yul\":10093:10096   */\n      dup3\n        /* \"#utility.yul\":10089:10103   */\n      add\n        /* \"#utility.yul\":10074:10103   */\n      swap1\n      pop\n        /* \"#utility.yul\":9940:10109   */\n      swap3\n      swap2\n      pop\n      pop\n      jump\t// out\n        /* \"#utility.yul\":10115:10295   */\n    tag_281:\n        /* \"#utility.yul\":10255:10287   */\n      0x4f6e6c79207468652061646d696e6973747261746f722063616e207573650000\n        /* \"#utility.yul\":10251:10252   */\n      0x00\n        /* \"#utility.yul\":10243:10249   */\n      dup3\n        /* \"#utility.yul\":10239:10253   */\n      add\n        /* \"#utility.yul\":10232:10288   */\n      mstore\n        /* \"#utility.yul\":10115:10295   */\n      pop\n      jump\t// out\n        /* \"#utility.yul\":10301:10667   */\n    tag_282:\n        /* \"#utility.yul\":10443:10446   */\n      0x00\n        /* \"#utility.yul\":10464:10531   */\n      tag_424\n        /* \"#utility.yul\":10528:10530   */\n      0x1e\n        /* \"#utility.yul\":10523:10526   */\n      dup4\n        /* \"#utility.yul\":10464:10531   */\n      tag_280\n      jump\t// in\n    tag_424:\n        /* \"#utility.yul\":10457:10531   */\n      swap2\n      pop\n        /* \"#utility.yul\":10540:10633   */\n      tag_425\n        /* \"#utility.yul\":10629:10632   */\n      dup3\n        /* \"#utility.yul\":10540:10633   */\n      tag_281\n      jump\t// in\n    tag_425:\n        /* \"#utility.yul\":10658:10660   */\n      0x20\n        /* \"#utility.yul\":10653:10656   */\n      dup3\n        /* \"#utility.yul\":10649:10661   */\n      add\n        /* \"#utility.yul\":10642:10661   */\n      swap1\n      pop\n        /* \"#utility.yul\":10301:10667   */\n      swap2\n      swap1\n      pop\n      jump\t// out\n        /* \"#utility.yul\":10673:11092   */\n    tag_73:\n        /* \"#utility.yul\":10839:10843   */\n      0x00\n        /* \"#utility.yul\":10877:10879   */\n      0x20\n        /* \"#utility.yul\":10866:10875   */\n      dup3\n        /* \"#utility.yul\":10862:10880   */\n      add\n        /* \"#utility.yul\":10854:10880   */\n      swap1\n      pop\n        /* \"#utility.yul\":10926:10935   */\n      dup2\n        /* \"#utility.yul\":10920:10924   */\n      dup2\n        /* \"#utility.yul\":10916:10936   */\n      sub\n        /* \"#utility.yul\":10912:10913   */\n      0x00\n        /* \"#utility.yul\":10901:10910   */\n      dup4\n        /* \"#utility.yul\":10897:10914   */\n      add\n        /* \"#utility.yul\":10890:10937   */\n      mstore\n        /* \"#utility.yul\":10954:11085   */\n      tag_427\n        /* \"#utility.yul\":11080:11084   */\n      dup2\n        /* \"#utility.yul\":10954:11085   */\n      tag_282\n      jump\t// in\n    tag_427:\n        /* \"#utility.yul\":10946:11085   */\n      swap1\n      pop\n        /* \"#utility.yul\":10673:11092   */\n      swap2\n      swap1\n      pop\n      jump\t// out\n        /* \"#utility.yul\":11098:11278   */\n    tag_283:\n        /* \"#utility.yul\":11146:11223   */\n      0x4e487b7100000000000000000000000000000000000000000000000000000000\n        /* \"#utility.yul\":11143:11144   */\n      0x00\n        /* \"#utility.yul\":11136:11224   */\n      mstore\n        /* \"#utility.yul\":11243:11247   */\n      0x11\n        /* \"#utility.yul\":11240:11241   */\n      0x04\n        /* \"#utility.yul\":11233:11248   */\n      mstore\n        /* \"#utility.yul\":11267:11271   */\n      0x24\n        /* \"#utility.yul\":11264:11265   */\n      0x00\n        /* \"#utility.yul\":11257:11272   */\n      revert\n        /* \"#utility.yul\":11284:11694   */\n    tag_86:\n        /* \"#utility.yul\":11324:11331   */\n      0x00\n        /* \"#utility.yul\":11347:11367   */\n      tag_430\n        /* \"#utility.yul\":11365:11366   */\n      dup3\n        /* \"#utility.yul\":11347:11367   */\n      tag_258\n      jump\t// in\n    tag_430:\n        /* \"#utility.yul\":11342:11367   */\n      swap2\n      pop\n        /* \"#utility.yul\":11381:11401   */\n      tag_431\n        /* \"#utility.yul\":11399:11400   */\n      dup4\n        /* \"#utility.yul\":11381:11401   */\n      tag_258\n      jump\t// in\n    tag_431:\n        /* \"#utility.yul\":11376:11401   */\n      swap3\n      pop\n        /* \"#utility.yul\":11436:11437   */\n      dup3\n        /* \"#utility.yul\":11433:11434   */\n      dup3\n        /* \"#utility.yul\":11429:11438   */\n      mul\n        /* \"#utility.yul\":11458:11488   */\n      tag_432\n        /* \"#utility.yul\":11476:11487   */\n      dup2\n        /* \"#utility.yul\":11458:11488   */\n      tag_258\n      jump\t// in\n    tag_432:\n        /* \"#utility.yul\":11447:11488   */\n      swap2\n      pop\n        /* \"#utility.yul\":11637:11638   */\n      dup3\n        /* \"#utility.yul\":11628:11635   */\n      dup3\n        /* \"#utility.yul\":11624:11639   */\n      div\n        /* \"#utility.yul\":11621:11622   */\n      dup5\n        /* \"#utility.yul\":11618:11640   */\n      eq\n        /* \"#utility.yul\":11598:11599   */\n      dup4\n        /* \"#utility.yul\":11591:11600   */\n      iszero\n        /* \"#utility.yul\":11571:11654   */\n      or\n        /* \"#utility.yul\":11548:11687   */\n      tag_433\n      jumpi\n        /* \"#utility.yul\":11667:11685   */\n      tag_434\n      tag_283\n      jump\t// in\n    tag_434:\n        /* \"#utility.yul\":11548:11687   */\n    tag_433:\n        /* \"#utility.yul\":11332:11694   */\n      pop\n        /* \"#utility.yul\":11284:11694   */\n      swap3\n      swap2\n      pop\n      pop\n      jump\t// out\n        /* \"#utility.yul\":11700:11921   */\n    tag_284:\n        /* \"#utility.yul\":11840:11874   */\n      0x496e76616c696420646179732c206d7573742062652033302c203630206f7220\n        /* \"#utility.yul\":11836:11837   */\n      0x00\n        /* \"#utility.yul\":11828:11834   */\n      dup3\n        /* \"#utility.yul\":11824:11838   */\n      add\n        /* \"#utility.yul\":11817:11875   */\n      mstore\n        /* \"#utility.yul\":11909:11913   */\n      0x3930000000000000000000000000000000000000000000000000000000000000\n        /* \"#utility.yul\":11904:11906   */\n      0x20\n        /* \"#utility.yul\":11896:11902   */\n      dup3\n        /* \"#utility.yul\":11892:11907   */\n      add\n        /* \"#utility.yul\":11885:11914   */\n      mstore\n        /* \"#utility.yul\":11700:11921   */\n      pop\n      jump\t// out\n        /* \"#utility.yul\":11927:12293   */\n    tag_285:\n        /* \"#utility.yul\":12069:12072   */\n      0x00\n        /* \"#utility.yul\":12090:12157   */\n      tag_437\n        /* \"#utility.yul\":12154:12156   */\n      0x22\n        /* \"#utility.yul\":12149:12152   */\n      dup4\n        /* \"#utility.yul\":12090:12157   */\n      tag_280\n      jump\t// in\n    tag_437:\n        /* \"#utility.yul\":12083:12157   */\n      swap2\n      pop\n        /* \"#utility.yul\":12166:12259   */\n      tag_438\n        /* \"#utility.yul\":12255:12258   */\n      dup3\n        /* \"#utility.yul\":12166:12259   */\n      tag_284\n      jump\t// in\n    tag_438:\n        /* \"#utility.yul\":12284:12286   */\n      0x40\n        /* \"#utility.yul\":12279:12282   */\n      dup3\n        /* \"#utility.yul\":12275:12287   */\n      add\n        /* \"#utility.yul\":12268:12287   */\n      swap1\n      pop\n        /* \"#utility.yul\":11927:12293   */\n      swap2\n      swap1\n      pop\n      jump\t// out\n        /* \"#utility.yul\":12299:12718   */\n    tag_105:\n        /* \"#utility.yul\":12465:12469   */\n      0x00\n        /* \"#utility.yul\":12503:12505   */\n      0x20\n        /* \"#utility.yul\":12492:12501   */\n      dup3\n        /* \"#utility.yul\":12488:12506   */\n      add\n        /* \"#utility.yul\":12480:12506   */\n      swap1\n      pop\n        /* \"#utility.yul\":12552:12561   */\n      dup2\n        /* \"#utility.yul\":12546:12550   */\n      dup2\n        /* \"#utility.yul\":12542:12562   */\n      sub\n        /* \"#utility.yul\":12538:12539   */\n      0x00\n        /* \"#utility.yul\":12527:12536   */\n      dup4\n        /* \"#utility.yul\":12523:12540   */\n      add\n        /* \"#utility.yul\":12516:12563   */\n      mstore\n        /* \"#utility.yul\":12580:12711   */\n      tag_440\n        /* \"#utility.yul\":12706:12710   */\n      dup2\n        /* \"#utility.yul\":12580:12711   */\n      tag_285\n      jump\t// in\n    tag_440:\n        /* \"#utility.yul\":12572:12711   */\n      swap1\n      pop\n        /* \"#utility.yul\":12299:12718   */\n      swap2\n      swap1\n      pop\n      jump\t// out\n        /* \"#utility.yul\":12724:13056   */\n    tag_107:\n        /* \"#utility.yul\":12845:12849   */\n      0x00\n        /* \"#utility.yul\":12883:12885   */\n      0x40\n        /* \"#utility.yul\":12872:12881   */\n      dup3\n        /* \"#utility.yul\":12868:12886   */\n      add\n        /* \"#utility.yul\":12860:12886   */\n      swap1\n      pop\n        /* \"#utility.yul\":12896:12967   */\n      tag_442\n        /* \"#utility.yul\":12964:12965   */\n      0x00\n        /* \"#utility.yul\":12953:12962   */\n      dup4\n        /* \"#utility.yul\":12949:12966   */\n      add\n        /* \"#utility.yul\":12940:12946   */\n      dup6\n        /* \"#utility.yul\":12896:12967   */\n      tag_278\n      jump\t// in\n    tag_442:\n        /* \"#utility.yul\":12977:13049   */\n      tag_443\n        /* \"#utility.yul\":13045:13047   */\n      0x20\n        /* \"#utility.yul\":13034:13043   */\n      dup4\n        /* \"#utility.yul\":13030:13048   */\n      add\n        /* \"#utility.yul\":13021:13027   */\n      dup5\n        /* \"#utility.yul\":12977:13049   */\n      tag_261\n      jump\t// in\n    tag_443:\n        /* \"#utility.yul\":12724:13056   */\n      swap4\n      swap3\n      pop\n      pop\n      pop\n      jump\t// out\n        /* \"#utility.yul\":13062:13178   */\n    tag_286:\n        /* \"#utility.yul\":13132:13153   */\n      tag_445\n        /* \"#utility.yul\":13147:13152   */\n      dup2\n        /* \"#utility.yul\":13132:13153   */\n      tag_272\n      jump\t// in\n    tag_445:\n        /* \"#utility.yul\":13125:13130   */\n      dup2\n        /* \"#utility.yul\":13122:13154   */\n      eq\n        /* \"#utility.yul\":13112:13172   */\n      tag_446\n      jumpi\n        /* \"#utility.yul\":13168:13169   */\n      0x00\n        /* \"#utility.yul\":13165:13166   */\n      0x00\n        /* \"#utility.yul\":13158:13170   */\n      revert\n        /* \"#utility.yul\":13112:13172   */\n    tag_446:\n        /* \"#utility.yul\":13062:13178   */\n      pop\n      jump\t// out\n        /* \"#utility.yul\":13184:13321   */\n    tag_287:\n        /* \"#utility.yul\":13238:13243   */\n      0x00\n        /* \"#utility.yul\":13269:13275   */\n      dup2\n        /* \"#utility.yul\":13263:13276   */\n      mload\n        /* \"#utility.yul\":13254:13276   */\n      swap1\n      pop\n        /* \"#utility.yul\":13285:13315   */\n      tag_448\n        /* \"#utility.yul\":13309:13314   */\n      dup2\n        /* \"#utility.yul\":13285:13315   */\n      tag_286\n      jump\t// in\n    tag_448:\n        /* \"#utility.yul\":13184:13321   */\n      swap3\n      swap2\n      pop\n      pop\n      jump\t// out\n        /* \"#utility.yul\":13327:13672   */\n    tag_111:\n        /* \"#utility.yul\":13394:13400   */\n      0x00\n        /* \"#utility.yul\":13443:13445   */\n      0x20\n        /* \"#utility.yul\":13431:13440   */\n      dup3\n        /* \"#utility.yul\":13422:13429   */\n      dup5\n        /* \"#utility.yul\":13418:13441   */\n      sub\n        /* \"#utility.yul\":13414:13446   */\n      slt\n        /* \"#utility.yul\":13411:13530   */\n      iszero\n      tag_450\n      jumpi\n        /* \"#utility.yul\":13449:13528   */\n      tag_451\n      tag_256\n      jump\t// in\n    tag_451:\n        /* \"#utility.yul\":13411:13530   */\n    tag_450:\n        /* \"#utility.yul\":13569:13570   */\n      0x00\n        /* \"#utility.yul\":13594:13655   */\n      tag_452\n        /* \"#utility.yul\":13647:13654   */\n      dup5\n        /* \"#utility.yul\":13638:13644   */\n      dup3\n        /* \"#utility.yul\":13627:13636   */\n      dup6\n        /* \"#utility.yul\":13623:13645   */\n      add\n        /* \"#utility.yul\":13594:13655   */\n      tag_287\n      jump\t// in\n    tag_452:\n        /* \"#utility.yul\":13584:13655   */\n      swap2\n      pop\n        /* \"#utility.yul\":13540:13665   */\n      pop\n        /* \"#utility.yul\":13327:13672   */\n      swap3\n      swap2\n      pop\n      pop\n      jump\t// out\n        /* \"#utility.yul\":13678:13847   */\n    tag_288:\n        /* \"#utility.yul\":13818:13839   */\n      0x5553445420617070726f7665206661696c656400000000000000000000000000\n        /* \"#utility.yul\":13814:13815   */\n      0x00\n        /* \"#utility.yul\":13806:13812   */\n      dup3\n        /* \"#utility.yul\":13802:13816   */\n      add\n        /* \"#utility.yul\":13795:13840   */\n      mstore\n        /* \"#utility.yul\":13678:13847   */\n      pop\n      jump\t// out\n        /* \"#utility.yul\":13853:14219   */\n    tag_289:\n        /* \"#utility.yul\":13995:13998   */\n      0x00\n        /* \"#utility.yul\":14016:14083   */\n      tag_455\n        /* \"#utility.yul\":14080:14082   */\n      0x13\n        /* \"#utility.yul\":14075:14078   */\n      dup4\n        /* \"#utility.yul\":14016:14083   */\n      tag_280\n      jump\t// in\n    tag_455:\n        /* \"#utility.yul\":14009:14083   */\n      swap2\n      pop\n        /* \"#utility.yul\":14092:14185   */\n      tag_456\n        /* \"#utility.yul\":14181:14184   */\n      dup3\n        /* \"#utility.yul\":14092:14185   */\n      tag_288\n      jump\t// in\n    tag_456:\n        /* \"#utility.yul\":14210:14212   */\n      0x20\n        /* \"#utility.yul\":14205:14208   */\n      dup3\n        /* \"#utility.yul\":14201:14213   */\n      add\n        /* \"#utility.yul\":14194:14213   */\n      swap1\n      pop\n        /* \"#utility.yul\":13853:14219   */\n      swap2\n      swap1\n      pop\n      jump\t// out\n        /* \"#utility.yul\":14225:14644   */\n    tag_114:\n        /* \"#utility.yul\":14391:14395   */\n      0x00\n        /* \"#utility.yul\":14429:14431   */\n      0x20\n        /* \"#utility.yul\":14418:14427   */\n      dup3\n        /* \"#utility.yul\":14414:14432   */\n      add\n        /* \"#utility.yul\":14406:14432   */\n      swap1\n      pop\n        /* \"#utility.yul\":14478:14487   */\n      dup2\n        /* \"#utility.yul\":14472:14476   */\n      dup2\n        /* \"#utility.yul\":14468:14488   */\n      sub\n        /* \"#utility.yul\":14464:14465   */\n      0x00\n        /* \"#utility.yul\":14453:14462   */\n      dup4\n        /* \"#utility.yul\":14449:14466   */\n      add\n        /* \"#utility.yul\":14442:14489   */\n      mstore\n        /* \"#utility.yul\":14506:14637   */\n      tag_458\n        /* \"#utility.yul\":14632:14636   */\n      dup2\n        /* \"#utility.yul\":14506:14637   */\n      tag_289\n      jump\t// in\n    tag_458:\n        /* \"#utility.yul\":14498:14637   */\n      swap1\n      pop\n        /* \"#utility.yul\":14225:14644   */\n      swap2\n      swap1\n      pop\n      jump\t// out\n        /* \"#utility.yul\":14650:14793   */\n    tag_290:\n        /* \"#utility.yul\":14707:14712   */\n      0x00\n        /* \"#utility.yul\":14738:14744   */\n      dup2\n        /* \"#utility.yul\":14732:14745   */\n      mload\n        /* \"#utility.yul\":14723:14745   */\n      swap1\n      pop\n        /* \"#utility.yul\":14754:14787   */\n      tag_460\n        /* \"#utility.yul\":14781:14786   */\n      dup2\n        /* \"#utility.yul\":14754:14787   */\n      tag_259\n      jump\t// in\n    tag_460:\n        /* \"#utility.yul\":14650:14793   */\n      swap3\n      swap2\n      pop\n      pop\n      jump\t// out\n        /* \"#utility.yul\":14799:15150   */\n    tag_127:\n        /* \"#utility.yul\":14869:14875   */\n      0x00\n        /* \"#utility.yul\":14918:14920   */\n      0x20\n        /* \"#utility.yul\":14906:14915   */\n      dup3\n        /* \"#utility.yul\":14897:14904   */\n      dup5\n        /* \"#utility.yul\":14893:14916   */\n      sub\n        /* \"#utility.yul\":14889:14921   */\n      slt\n        /* \"#utility.yul\":14886:15005   */\n      iszero\n      tag_462\n      jumpi\n        /* \"#utility.yul\":14924:15003   */\n      tag_463\n      tag_256\n      jump\t// in\n    tag_463:\n        /* \"#utility.yul\":14886:15005   */\n    tag_462:\n        /* \"#utility.yul\":15044:15045   */\n      0x00\n        /* \"#utility.yul\":15069:15133   */\n      tag_464\n        /* \"#utility.yul\":15125:15132   */\n      dup5\n        /* \"#utility.yul\":15116:15122   */\n      dup3\n        /* \"#utility.yul\":15105:15114   */\n      dup6\n        /* \"#utility.yul\":15101:15123   */\n      add\n        /* \"#utility.yul\":15069:15133   */\n      tag_290\n      jump\t// in\n    tag_464:\n        /* \"#utility.yul\":15059:15133   */\n      swap2\n      pop\n        /* \"#utility.yul\":15015:15143   */\n      pop\n        /* \"#utility.yul\":14799:15150   */\n      swap3\n      swap2\n      pop\n      pop\n      jump\t// out\n        /* \"#utility.yul\":15156:15336   */\n    tag_291:\n        /* \"#utility.yul\":15204:15281   */\n      0x4e487b7100000000000000000000000000000000000000000000000000000000\n        /* \"#utility.yul\":15201:15202   */\n      0x00\n        /* \"#utility.yul\":15194:15282   */\n      mstore\n        /* \"#utility.yul\":15301:15305   */\n      0x22\n        /* \"#utility.yul\":15298:15299   */\n      0x04\n        /* \"#utility.yul\":15291:15306   */\n      mstore\n        /* \"#utility.yul\":15325:15329   */\n      0x24\n        /* \"#utility.yul\":15322:15323   */\n      0x00\n        /* \"#utility.yul\":15315:15330   */\n      revert\n        /* \"#utility.yul\":15342:15662   */\n    tag_146:\n        /* \"#utility.yul\":15386:15392   */\n      0x00\n        /* \"#utility.yul\":15423:15424   */\n      0x02\n        /* \"#utility.yul\":15417:15421   */\n      dup3\n        /* \"#utility.yul\":15413:15425   */\n      div\n        /* \"#utility.yul\":15403:15425   */\n      swap1\n      pop\n        /* \"#utility.yul\":15470:15471   */\n      0x01\n        /* \"#utility.yul\":15464:15468   */\n      dup3\n        /* \"#utility.yul\":15460:15472   */\n      and\n        /* \"#utility.yul\":15491:15509   */\n      dup1\n        /* \"#utility.yul\":15481:15562   */\n      tag_467\n      jumpi\n        /* \"#utility.yul\":15547:15551   */\n      0x7f\n        /* \"#utility.yul\":15539:15545   */\n      dup3\n        /* \"#utility.yul\":15535:15552   */\n      and\n        /* \"#utility.yul\":15525:15552   */\n      swap2\n      pop\n        /* \"#utility.yul\":15481:15562   */\n    tag_467:\n        /* \"#utility.yul\":15609:15611   */\n      0x20\n        /* \"#utility.yul\":15601:15607   */\n      dup3\n        /* \"#utility.yul\":15598:15612   */\n      lt\n        /* \"#utility.yul\":15578:15596   */\n      dup2\n        /* \"#utility.yul\":15575:15613   */\n      sub\n        /* \"#utility.yul\":15572:15656   */\n      tag_468\n      jumpi\n        /* \"#utility.yul\":15628:15646   */\n      tag_469\n      tag_291\n      jump\t// in\n    tag_469:\n        /* \"#utility.yul\":15572:15656   */\n    tag_468:\n        /* \"#utility.yul\":15393:15662   */\n      pop\n        /* \"#utility.yul\":15342:15662   */\n      swap2\n      swap1\n      pop\n      jump\t// out\n        /* \"#utility.yul\":15668:16110   */\n    tag_161:\n        /* \"#utility.yul\":15817:15821   */\n      0x00\n        /* \"#utility.yul\":15855:15857   */\n      0x60\n        /* \"#utility.yul\":15844:15853   */\n      dup3\n        /* \"#utility.yul\":15840:15858   */\n      add\n        /* \"#utility.yul\":15832:15858   */\n      swap1\n      pop\n        /* \"#utility.yul\":15868:15939   */\n      tag_471\n        /* \"#utility.yul\":15936:15937   */\n      0x00\n        /* \"#utility.yul\":15925:15934   */\n      dup4\n        /* \"#utility.yul\":15921:15938   */\n      add\n        /* \"#utility.yul\":15912:15918   */\n      dup7\n        /* \"#utility.yul\":15868:15939   */\n      tag_278\n      jump\t// in\n    tag_471:\n        /* \"#utility.yul\":15949:16021   */\n      tag_472\n        /* \"#utility.yul\":16017:16019   */\n      0x20\n        /* \"#utility.yul\":16006:16015   */\n      dup4\n        /* \"#utility.yul\":16002:16020   */\n      add\n        /* \"#utility.yul\":15993:15999   */\n      dup6\n        /* \"#utility.yul\":15949:16021   */\n      tag_278\n      jump\t// in\n    tag_472:\n        /* \"#utility.yul\":16031:16103   */\n      tag_473\n        /* \"#utility.yul\":16099:16101   */\n      0x40\n        /* \"#utility.yul\":16088:16097   */\n      dup4\n        /* \"#utility.yul\":16084:16102   */\n      add\n        /* \"#utility.yul\":16075:16081   */\n      dup5\n        /* \"#utility.yul\":16031:16103   */\n      tag_261\n      jump\t// in\n    tag_473:\n        /* \"#utility.yul\":15668:16110   */\n      swap5\n      swap4\n      pop\n      pop\n      pop\n      pop\n      jump\t// out\n        /* \"#utility.yul\":16116:16286   */\n    tag_292:\n        /* \"#utility.yul\":16256:16278   */\n      0x55534454207472616e73666572206661696c6564000000000000000000000000\n        /* \"#utility.yul\":16252:16253   */\n      0x00\n        /* \"#utility.yul\":16244:16250   */\n      dup3\n        /* \"#utility.yul\":16240:16254   */\n      add\n        /* \"#utility.yul\":16233:16279   */\n      mstore\n        /* \"#utility.yul\":16116:16286   */\n      pop\n      jump\t// out\n        /* \"#utility.yul\":16292:16658   */\n    tag_293:\n        /* \"#utility.yul\":16434:16437   */\n      0x00\n        /* \"#utility.yul\":16455:16522   */\n      tag_476\n        /* \"#utility.yul\":16519:16521   */\n      0x14\n        /* \"#utility.yul\":16514:16517   */\n      dup4\n        /* \"#utility.yul\":16455:16522   */\n      tag_280\n      jump\t// in\n    tag_476:\n        /* \"#utility.yul\":16448:16522   */\n      swap2\n      pop\n        /* \"#utility.yul\":16531:16624   */\n      tag_477\n        /* \"#utility.yul\":16620:16623   */\n      dup3\n        /* \"#utility.yul\":16531:16624   */\n      tag_292\n      jump\t// in\n    tag_477:\n        /* \"#utility.yul\":16649:16651   */\n      0x20\n        /* \"#utility.yul\":16644:16647   */\n      dup3\n        /* \"#utility.yul\":16640:16652   */\n      add\n        /* \"#utility.yul\":16633:16652   */\n      swap1\n      pop\n        /* \"#utility.yul\":16292:16658   */\n      swap2\n      swap1\n      pop\n      jump\t// out\n        /* \"#utility.yul\":16664:17083   */\n    tag_167:\n        /* \"#utility.yul\":16830:16834   */\n      0x00\n        /* \"#utility.yul\":16868:16870   */\n      0x20\n        /* \"#utility.yul\":16857:16866   */\n      dup3\n        /* \"#utility.yul\":16853:16871   */\n      add\n        /* \"#utility.yul\":16845:16871   */\n      swap1\n      pop\n        /* \"#utility.yul\":16917:16926   */\n      dup2\n        /* \"#utility.yul\":16911:16915   */\n      dup2\n        /* \"#utility.yul\":16907:16927   */\n      sub\n        /* \"#utility.yul\":16903:16904   */\n      0x00\n        /* \"#utility.yul\":16892:16901   */\n      dup4\n        /* \"#utility.yul\":16888:16905   */\n      add\n        /* \"#utility.yul\":16881:16928   */\n      mstore\n        /* \"#utility.yul\":16945:17076   */\n      tag_479\n        /* \"#utility.yul\":17071:17075   */\n      dup2\n        /* \"#utility.yul\":16945:17076   */\n      tag_293\n      jump\t// in\n    tag_479:\n        /* \"#utility.yul\":16937:17076   */\n      swap1\n      pop\n        /* \"#utility.yul\":16664:17083   */\n      swap2\n      swap1\n      pop\n      jump\t// out\n        /* \"#utility.yul\":17089:17264   */\n    tag_294:\n        /* \"#utility.yul\":17229:17256   */\n      0x496e76616c6964207472616e73616374696f6e20696e64657800000000000000\n        /* \"#utility.yul\":17225:17226   */\n      0x00\n        /* \"#utility.yul\":17217:17223   */\n      dup3\n        /* \"#utility.yul\":17213:17227   */\n      add\n        /* \"#utility.yul\":17206:17257   */\n      mstore\n        /* \"#utility.yul\":17089:17264   */\n      pop\n      jump\t// out\n        /* \"#utility.yul\":17270:17636   */\n    tag_295:\n        /* \"#utility.yul\":17412:17415   */\n      0x00\n        /* \"#utility.yul\":17433:17500   */\n      tag_482\n        /* \"#utility.yul\":17497:17499   */\n      0x19\n        /* \"#utility.yul\":17492:17495   */\n      dup4\n        /* \"#utility.yul\":17433:17500   */\n      tag_280\n      jump\t// in\n    tag_482:\n        /* \"#utility.yul\":17426:17500   */\n      swap2\n      pop\n        /* \"#utility.yul\":17509:17602   */\n      tag_483\n        /* \"#utility.yul\":17598:17601   */\n      dup3\n        /* \"#utility.yul\":17509:17602   */\n      tag_294\n      jump\t// in\n    tag_483:\n        /* \"#utility.yul\":17627:17629   */\n      0x20\n        /* \"#utility.yul\":17622:17625   */\n      dup3\n        /* \"#utility.yul\":17618:17630   */\n      add\n        /* \"#utility.yul\":17611:17630   */\n      swap1\n      pop\n        /* \"#utility.yul\":17270:17636   */\n      swap2\n      swap1\n      pop\n      jump\t// out\n        /* \"#utility.yul\":17642:18061   */\n    tag_198:\n        /* \"#utility.yul\":17808:17812   */\n      0x00\n        /* \"#utility.yul\":17846:17848   */\n      0x20\n        /* \"#utility.yul\":17835:17844   */\n      dup3\n        /* \"#utility.yul\":17831:17849   */\n      add\n        /* \"#utility.yul\":17823:17849   */\n      swap1\n      pop\n        /* \"#utility.yul\":17895:17904   */\n      dup2\n        /* \"#utility.yul\":17889:17893   */\n      dup2\n        /* \"#utility.yul\":17885:17905   */\n      sub\n        /* \"#utility.yul\":17881:17882   */\n      0x00\n        /* \"#utility.yul\":17870:17879   */\n      dup4\n        /* \"#utility.yul\":17866:17883   */\n      add\n        /* \"#utility.yul\":17859:17906   */\n      mstore\n        /* \"#utility.yul\":17923:18054   */\n      tag_485\n        /* \"#utility.yul\":18049:18053   */\n      dup2\n        /* \"#utility.yul\":17923:18054   */\n      tag_295\n      jump\t// in\n    tag_485:\n        /* \"#utility.yul\":17915:18054   */\n      swap1\n      pop\n        /* \"#utility.yul\":17642:18061   */\n      swap2\n      swap1\n      pop\n      jump\t// out\n        /* \"#utility.yul\":18067:18247   */\n    tag_201:\n        /* \"#utility.yul\":18115:18192   */\n      0x4e487b7100000000000000000000000000000000000000000000000000000000\n        /* \"#utility.yul\":18112:18113   */\n      0x00\n        /* \"#utility.yul\":18105:18193   */\n      mstore\n        /* \"#utility.yul\":18212:18216   */\n      0x32\n        /* \"#utility.yul\":18209:18210   */\n      0x04\n        /* \"#utility.yul\":18202:18217   */\n      mstore\n        /* \"#utility.yul\":18236:18240   */\n      0x24\n        /* \"#utility.yul\":18233:18234   */\n      0x00\n        /* \"#utility.yul\":18226:18241   */\n      revert\n        /* \"#utility.yul\":18253:18427   */\n    tag_296:\n        /* \"#utility.yul\":18393:18419   */\n      0x5472616e73616374696f6e206e6f742065786563757465640000000000000000\n        /* \"#utility.yul\":18389:18390   */\n      0x00\n        /* \"#utility.yul\":18381:18387   */\n      dup3\n        /* \"#utility.yul\":18377:18391   */\n      add\n        /* \"#utility.yul\":18370:18420   */\n      mstore\n        /* \"#utility.yul\":18253:18427   */\n      pop\n      jump\t// out\n        /* \"#utility.yul\":18433:18799   */\n    tag_297:\n        /* \"#utility.yul\":18575:18578   */\n      0x00\n        /* \"#utility.yul\":18596:18663   */\n      tag_489\n        /* \"#utility.yul\":18660:18662   */\n      0x18\n        /* \"#utility.yul\":18655:18658   */\n      dup4\n        /* \"#utility.yul\":18596:18663   */\n      tag_280\n      jump\t// in\n    tag_489:\n        /* \"#utility.yul\":18589:18663   */\n      swap2\n      pop\n        /* \"#utility.yul\":18672:18765   */\n      tag_490\n        /* \"#utility.yul\":18761:18764   */\n      dup3\n        /* \"#utility.yul\":18672:18765   */\n      tag_296\n      jump\t// in\n    tag_490:\n        /* \"#utility.yul\":18790:18792   */\n      0x20\n        /* \"#utility.yul\":18785:18788   */\n      dup3\n        /* \"#utility.yul\":18781:18793   */\n      add\n        /* \"#utility.yul\":18774:18793   */\n      swap1\n      pop\n        /* \"#utility.yul\":18433:18799   */\n      swap2\n      swap1\n      pop\n      jump\t// out\n        /* \"#utility.yul\":18805:19224   */\n    tag_205:\n        /* \"#utility.yul\":18971:18975   */\n      0x00\n        /* \"#utility.yul\":19009:19011   */\n      0x20\n        /* \"#utility.yul\":18998:19007   */\n      dup3\n        /* \"#utility.yul\":18994:19012   */\n      add\n        /* \"#utility.yul\":18986:19012   */\n      swap1\n      pop\n        /* \"#utility.yul\":19058:19067   */\n      dup2\n        /* \"#utility.yul\":19052:19056   */\n      dup2\n        /* \"#utility.yul\":19048:19068   */\n      sub\n        /* \"#utility.yul\":19044:19045   */\n      0x00\n        /* \"#utility.yul\":19033:19042   */\n      dup4\n        /* \"#utility.yul\":19029:19046   */\n      add\n        /* \"#utility.yul\":19022:19069   */\n      mstore\n        /* \"#utility.yul\":19086:19217   */\n      tag_492\n        /* \"#utility.yul\":19212:19216   */\n      dup2\n        /* \"#utility.yul\":19086:19217   */\n      tag_297\n      jump\t// in\n    tag_492:\n        /* \"#utility.yul\":19078:19217   */\n      swap1\n      pop\n        /* \"#utility.yul\":18805:19224   */\n      swap2\n      swap1\n      pop\n      jump\t// out\n        /* \"#utility.yul\":19230:19405   */\n    tag_298:\n        /* \"#utility.yul\":19370:19397   */\n      0x5472616e73616374696f6e206e6f7420636f6e6669726d656400000000000000\n        /* \"#utility.yul\":19366:19367   */\n      0x00\n        /* \"#utility.yul\":19358:19364   */\n      dup3\n        /* \"#utility.yul\":19354:19368   */\n      add\n        /* \"#utility.yul\":19347:19398   */\n      mstore\n        /* \"#utility.yul\":19230:19405   */\n      pop\n      jump\t// out\n        /* \"#utility.yul\":19411:19777   */\n    tag_299:\n        /* \"#utility.yul\":19553:19556   */\n      0x00\n        /* \"#utility.yul\":19574:19641   */\n      tag_495\n        /* \"#utility.yul\":19638:19640   */\n      0x19\n        /* \"#utility.yul\":19633:19636   */\n      dup4\n        /* \"#utility.yul\":19574:19641   */\n      tag_280\n      jump\t// in\n    tag_495:\n        /* \"#utility.yul\":19567:19641   */\n      swap2\n      pop\n        /* \"#utility.yul\":19650:19743   */\n      tag_496\n        /* \"#utility.yul\":19739:19742   */\n      dup3\n        /* \"#utility.yul\":19650:19743   */\n      tag_298\n      jump\t// in\n    tag_496:\n        /* \"#utility.yul\":19768:19770   */\n      0x20\n        /* \"#utility.yul\":19763:19766   */\n      dup3\n        /* \"#utility.yul\":19759:19771   */\n      add\n        /* \"#utility.yul\":19752:19771   */\n      swap1\n      pop\n        /* \"#utility.yul\":19411:19777   */\n      swap2\n      swap1\n      pop\n      jump\t// out\n        /* \"#utility.yul\":19783:20202   */\n    tag_208:\n        /* \"#utility.yul\":19949:19953   */\n      0x00\n        /* \"#utility.yul\":19987:19989   */\n      0x20\n        /* \"#utility.yul\":19976:19985   */\n      dup3\n        /* \"#utility.yul\":19972:19990   */\n      add\n        /* \"#utility.yul\":19964:19990   */\n      swap1\n      pop\n        /* \"#utility.yul\":20036:20045   */\n      dup2\n        /* \"#utility.yul\":20030:20034   */\n      dup2\n        /* \"#utility.yul\":20026:20046   */\n      sub\n        /* \"#utility.yul\":20022:20023   */\n      0x00\n        /* \"#utility.yul\":20011:20020   */\n      dup4\n        /* \"#utility.yul\":20007:20024   */\n      add\n        /* \"#utility.yul\":20000:20047   */\n      mstore\n        /* \"#utility.yul\":20064:20195   */\n      tag_498\n        /* \"#utility.yul\":20190:20194   */\n      dup2\n        /* \"#utility.yul\":20064:20195   */\n      tag_299\n      jump\t// in\n    tag_498:\n        /* \"#utility.yul\":20056:20195   */\n      swap1\n      pop\n        /* \"#utility.yul\":19783:20202   */\n      swap2\n      swap1\n      pop\n      jump\t// out\n        /* \"#utility.yul\":20208:20379   */\n    tag_210:\n        /* \"#utility.yul\":20247:20250   */\n      0x00\n        /* \"#utility.yul\":20270:20294   */\n      tag_500\n        /* \"#utility.yul\":20288:20293   */\n      dup3\n        /* \"#utility.yul\":20270:20294   */\n      tag_258\n      jump\t// in\n    tag_500:\n        /* \"#utility.yul\":20261:20294   */\n      swap2\n      pop\n        /* \"#utility.yul\":20316:20320   */\n      0x00\n        /* \"#utility.yul\":20309:20314   */\n      dup3\n        /* \"#utility.yul\":20306:20321   */\n      sub\n        /* \"#utility.yul\":20303:20344   */\n      tag_501\n      jumpi\n        /* \"#utility.yul\":20324:20342   */\n      tag_502\n      tag_283\n      jump\t// in\n    tag_502:\n        /* \"#utility.yul\":20303:20344   */\n    tag_501:\n        /* \"#utility.yul\":20371:20372   */\n      0x01\n        /* \"#utility.yul\":20364:20369   */\n      dup3\n        /* \"#utility.yul\":20360:20373   */\n      sub\n        /* \"#utility.yul\":20353:20373   */\n      swap1\n      pop\n        /* \"#utility.yul\":20208:20379   */\n      swap2\n      swap1\n      pop\n      jump\t// out\n        /* \"#utility.yul\":20385:20565   */\n    tag_300:\n        /* \"#utility.yul\":20433:20510   */\n      0x4e487b7100000000000000000000000000000000000000000000000000000000\n        /* \"#utility.yul\":20430:20431   */\n      0x00\n        /* \"#utility.yul\":20423:20511   */\n      mstore\n        /* \"#utility.yul\":20530:20534   */\n      0x41\n        /* \"#utility.yul\":20527:20528   */\n      0x04\n        /* \"#utility.yul\":20520:20535   */\n      mstore\n        /* \"#utility.yul\":20554:20558   */\n      0x24\n        /* \"#utility.yul\":20551:20552   */\n      0x00\n        /* \"#utility.yul\":20544:20559   */\n      revert\n        /* \"#utility.yul\":20571:20711   */\n    tag_301:\n        /* \"#utility.yul\":20619:20623   */\n      0x00\n        /* \"#utility.yul\":20642:20645   */\n      dup2\n        /* \"#utility.yul\":20634:20645   */\n      swap1\n      pop\n        /* \"#utility.yul\":20665:20668   */\n      dup2\n        /* \"#utility.yul\":20662:20663   */\n      0x00\n        /* \"#utility.yul\":20655:20669   */\n      mstore\n        /* \"#utility.yul\":20699:20703   */\n      0x20\n        /* \"#utility.yul\":20696:20697   */\n      0x00\n        /* \"#utility.yul\":20686:20704   */\n      keccak256\n        /* \"#utility.yul\":20678:20704   */\n      swap1\n      pop\n        /* \"#utility.yul\":20571:20711   */\n      swap2\n      swap1\n      pop\n      jump\t// out\n        /* \"#utility.yul\":20717:20810   */\n    tag_302:\n        /* \"#utility.yul\":20754:20760   */\n      0x00\n        /* \"#utility.yul\":20801:20803   */\n      0x20\n        /* \"#utility.yul\":20796:20798   */\n      0x1f\n        /* \"#utility.yul\":20789:20794   */\n      dup4\n        /* \"#utility.yul\":20785:20799   */\n      add\n        /* \"#utility.yul\":20781:20804   */\n      div\n        /* \"#utility.yul\":20771:20804   */\n      swap1\n      pop\n        /* \"#utility.yul\":20717:20810   */\n      swap2\n      swap1\n      pop\n      jump\t// out\n        /* \"#utility.yul\":20816:20923   */\n    tag_303:\n        /* \"#utility.yul\":20860:20868   */\n      0x00\n        /* \"#utility.yul\":20910:20915   */\n      dup3\n        /* \"#utility.yul\":20904:20908   */\n      dup3\n        /* \"#utility.yul\":20900:20916   */\n      shl\n        /* \"#utility.yul\":20879:20916   */\n      swap1\n      pop\n        /* \"#utility.yul\":20816:20923   */\n      swap3\n      swap2\n      pop\n      pop\n      jump\t// out\n        /* \"#utility.yul\":20929:21322   */\n    tag_304:\n        /* \"#utility.yul\":20998:21004   */\n      0x00\n        /* \"#utility.yul\":21048:21049   */\n      0x08\n        /* \"#utility.yul\":21036:21046   */\n      dup4\n        /* \"#utility.yul\":21032:21050   */\n      mul\n        /* \"#utility.yul\":21071:21168   */\n      tag_508\n        /* \"#utility.yul\":21101:21167   */\n      0xffffffffffffffffffffffffffffffffffffffffffffffffffffffffffffffff\n        /* \"#utility.yul\":21090:21099   */\n      dup3\n        /* \"#utility.yul\":21071:21168   */\n      tag_303\n      jump\t// in\n    tag_508:\n        /* \"#utility.yul\":21189:21228   */\n      tag_509\n        /* \"#utility.yul\":21219:21227   */\n      dup7\n        /* \"#utility.yul\":21208:21217   */\n      dup4\n        /* \"#utility.yul\":21189:21228   */\n      tag_303\n      jump\t// in\n    tag_509:\n        /* \"#utility.yul\":21177:21228   */\n      swap6\n      pop\n        /* \"#utility.yul\":21261:21265   */\n      dup1\n        /* \"#utility.yul\":21257:21266   */\n      not\n        /* \"#utility.yul\":21250:21255   */\n      dup5\n        /* \"#utility.yul\":21246:21267   */\n      and\n        /* \"#utility.yul\":21237:21267   */\n      swap4\n      pop\n        /* \"#utility.yul\":21310:21314   */\n      dup1\n        /* \"#utility.yul\":21300:21308   */\n      dup7\n        /* \"#utility.yul\":21296:21315   */\n      and\n        /* \"#utility.yul\":21289:21294   */\n      dup5\n        /* \"#utility.yul\":21286:21316   */\n      or\n        /* \"#utility.yul\":21276:21316   */\n      swap3\n      pop\n        /* \"#utility.yul\":21005:21322   */\n      pop\n      pop\n        /* \"#utility.yul\":20929:21322   */\n      swap4\n      swap3\n      pop\n      pop\n      pop\n      jump\t// out\n        /* \"#utility.yul\":21328:21388   */\n    tag_305:\n        /* \"#utility.yul\":21356:21359   */\n      0x00\n        /* \"#utility.yul\":21377:21382   */\n      dup2\n        /* \"#utility.yul\":21370:21382   */\n      swap1\n      pop\n        /* \"#utility.yul\":21328:21388   */\n      swap2\n      swap1\n      pop\n      jump\t// out\n        /* \"#utility.yul\":21394:21536   */\n    tag_306:\n        /* \"#utility.yul\":21444:21453   */\n      0x00\n        /* \"#utility.yul\":21477:21530   */\n      tag_512\n        /* \"#utility.yul\":21495:21529   */\n      tag_513\n        /* \"#utility.yul\":21504:21528   */\n      tag_514\n        /* \"#utility.yul\":21522:21527   */\n      dup5\n        /* \"#utility.yul\":21504:21528   */\n      tag_258\n      jump\t// in\n    tag_514:\n        /* \"#utility.yul\":21495:21529   */\n      tag_305\n      jump\t// in\n    tag_513:\n        /* \"#utility.yul\":21477:21530   */\n      tag_258\n      jump\t// in\n    tag_512:\n        /* \"#utility.yul\":21464:21530   */\n      swap1\n      pop\n        /* \"#utility.yul\":21394:21536   */\n      swap2\n      swap1\n      pop\n      jump\t// out\n        /* \"#utility.yul\":21542:21617   */\n    tag_307:\n        /* \"#utility.yul\":21585:21588   */\n      0x00\n        /* \"#utility.yul\":21606:21611   */\n      dup2\n        /* \"#utility.yul\":21599:21611   */\n      swap1\n      pop\n        /* \"#utility.yul\":21542:21617   */\n      swap2\n      swap1\n      pop\n      jump\t// out\n        /* \"#utility.yul\":21623:21892   */\n    tag_308:\n        /* \"#utility.yul\":21733:21772   */\n      tag_517\n        /* \"#utility.yul\":21764:21771   */\n      dup4\n        /* \"#utility.yul\":21733:21772   */\n      tag_306\n      jump\t// in\n    tag_517:\n        /* \"#utility.yul\":21794:21885   */\n      tag_518\n        /* \"#utility.yul\":21843:21884   */\n      tag_519\n        /* \"#utility.yul\":21867:21883   */\n      dup3\n        /* \"#utility.yul\":21843:21884   */\n      tag_307\n      jump\t// in\n    tag_519:\n        /* \"#utility.yul\":21835:21841   */\n      dup5\n        /* \"#utility.yul\":21828:21832   */\n      dup5\n        /* \"#utility.yul\":21822:21833   */\n      sload\n        /* \"#utility.yul\":21794:21885   */\n      tag_304\n      jump\t// in\n    tag_518:\n        /* \"#utility.yul\":21788:21792   */\n      dup3\n        /* \"#utility.yul\":21781:21886   */\n      sstore\n        /* \"#utility.yul\":21699:21892   */\n      pop\n        /* \"#utility.yul\":21623:21892   */\n      pop\n      pop\n      pop\n      jump\t// out\n        /* \"#utility.yul\":21898:21971   */\n    tag_309:\n        /* \"#utility.yul\":21943:21946   */\n      0x00\n        /* \"#utility.yul\":21964:21965   */\n      0x00\n        /* \"#utility.yul\":21957:21965   */\n      swap1\n      pop\n        /* \"#utility.yul\":21898:21971   */\n      swap1\n      jump\t// out\n        /* \"#utility.yul\":21977:22166   */\n    tag_310:\n        /* \"#utility.yul\":22054:22086   */\n      tag_522\n      tag_309\n      jump\t// in\n    tag_522:\n        /* \"#utility.yul\":22095:22160   */\n      tag_523\n        /* \"#utility.yul\":22153:22159   */\n      dup2\n        /* \"#utility.yul\":22145:22151   */\n      dup5\n        /* \"#utility.yul\":22139:22143   */\n      dup5\n        /* \"#utility.yul\":22095:22160   */\n      tag_308\n      jump\t// in\n    tag_523:\n        /* \"#utility.yul\":22030:22166   */\n      pop\n        /* \"#utility.yul\":21977:22166   */\n      pop\n      pop\n      jump\t// out\n        /* \"#utility.yul\":22172:22358   */\n    tag_311:\n        /* \"#utility.yul\":22232:22352   */\n    tag_525:\n        /* \"#utility.yul\":22249:22252   */\n      dup2\n        /* \"#utility.yul\":22242:22247   */\n      dup2\n        /* \"#utility.yul\":22239:22253   */\n      lt\n        /* \"#utility.yul\":22232:22352   */\n      iszero\n      tag_527\n      jumpi\n        /* \"#utility.yul\":22303:22342   */\n      tag_528\n        /* \"#utility.yul\":22340:22341   */\n      0x00\n        /* \"#utility.yul\":22333:22338   */\n      dup3\n        /* \"#utility.yul\":22303:22342   */\n      tag_310\n      jump\t// in\n    tag_528:\n        /* \"#utility.yul\":22276:22277   */\n      0x01\n        /* \"#utility.yul\":22269:22274   */\n      dup2\n        /* \"#utility.yul\":22265:22278   */\n      add\n        /* \"#utility.yul\":22256:22278   */\n      swap1\n      pop\n        /* \"#utility.yul\":22232:22352   */\n      jump(tag_525)\n    tag_527:\n        /* \"#utility.yul\":22172:22358   */\n      pop\n      pop\n      jump\t// out\n        /* \"#utility.yul\":22364:22905   */\n    tag_312:\n        /* \"#utility.yul\":22464:22466   */\n      0x1f\n        /* \"#utility.yul\":22459:22462   */\n      dup3\n        /* \"#utility.yul\":22456:22467   */\n      gt\n        /* \"#utility.yul\":22453:22898   */\n      iszero\n      tag_530\n      jumpi\n        /* \"#utility.yul\":22498:22535   */\n      tag_531\n        /* \"#utility.yul\":22529:22534   */\n      dup2\n        /* \"#utility.yul\":22498:22535   */\n      tag_301\n      jump\t// in\n    tag_531:\n        /* \"#utility.yul\":22581:22610   */\n      tag_532\n        /* \"#utility.yul\":22599:22609   */\n      dup5\n        /* \"#utility.yul\":22581:22610   */\n      tag_302\n      jump\t// in\n    tag_532:\n        /* \"#utility.yul\":22571:22579   */\n      dup2\n        /* \"#utility.yul\":22567:22611   */\n      add\n        /* \"#utility.yul\":22764:22766   */\n      0x20\n        /* \"#utility.yul\":22752:22762   */\n      dup6\n        /* \"#utility.yul\":22749:22767   */\n      lt\n        /* \"#utility.yul\":22746:22795   */\n      iszero\n      tag_533\n      jumpi\n        /* \"#utility.yul\":22785:22793   */\n      dup2\n        /* \"#utility.yul\":22770:22793   */\n      swap1\n      pop\n        /* \"#utility.yul\":22746:22795   */\n    tag_533:\n        /* \"#utility.yul\":22808:22888   */\n      tag_534\n        /* \"#utility.yul\":22864:22886   */\n      tag_535\n        /* \"#utility.yul\":22882:22885   */\n      dup6\n        /* \"#utility.yul\":22864:22886   */\n      tag_302\n      jump\t// in\n    tag_535:\n        /* \"#utility.yul\":22854:22862   */\n      dup4\n        /* \"#utility.yul\":22850:22887   */\n      add\n        /* \"#utility.yul\":22837:22848   */\n      dup3\n        /* \"#utility.yul\":22808:22888   */\n      tag_311\n      jump\t// in\n    tag_534:\n        /* \"#utility.yul\":22468:22898   */\n      pop\n      pop\n        /* \"#utility.yul\":22453:22898   */\n    tag_530:\n        /* \"#utility.yul\":22364:22905   */\n      pop\n      pop\n      pop\n      jump\t// out\n        /* \"#utility.yul\":22911:23028   */\n    tag_313:\n        /* \"#utility.yul\":22965:22973   */\n      0x00\n        /* \"#utility.yul\":23015:23020   */\n      dup3\n        /* \"#utility.yul\":23009:23013   */\n      dup3\n        /* \"#utility.yul\":23005:23021   */\n      shr\n        /* \"#utility.yul\":22984:23021   */\n      swap1\n      pop\n        /* \"#utility.yul\":22911:23028   */\n      swap3\n      swap2\n      pop\n      pop\n      jump\t// out\n        /* \"#utility.yul\":23034:23203   */\n    tag_314:\n        /* \"#utility.yul\":23078:23084   */\n      0x00\n        /* \"#utility.yul\":23111:23162   */\n      tag_538\n        /* \"#utility.yul\":23159:23160   */\n      0x00\n        /* \"#utility.yul\":23155:23161   */\n      not\n        /* \"#utility.yul\":23147:23152   */\n      dup5\n        /* \"#utility.yul\":23144:23145   */\n      0x08\n        /* \"#utility.yul\":23140:23153   */\n      mul\n        /* \"#utility.yul\":23111:23162   */\n      tag_313\n      jump\t// in\n    tag_538:\n        /* \"#utility.yul\":23107:23163   */\n      not\n        /* \"#utility.yul\":23192:23196   */\n      dup1\n        /* \"#utility.yul\":23186:23190   */\n      dup4\n        /* \"#utility.yul\":23182:23197   */\n      and\n        /* \"#utility.yul\":23172:23197   */\n      swap2\n      pop\n        /* \"#utility.yul\":23085:23203   */\n      pop\n        /* \"#utility.yul\":23034:23203   */\n      swap3\n      swap2\n      pop\n      pop\n      jump\t// out\n        /* \"#utility.yul\":23208:23503   */\n    tag_315:\n        /* \"#utility.yul\":23284:23288   */\n      0x00\n        /* \"#utility.yul\":23430:23459   */\n      tag_540\n        /* \"#utility.yul\":23455:23458   */\n      dup4\n        /* \"#utility.yul\":23449:23453   */\n      dup4\n        /* \"#utility.yul\":23430:23459   */\n      tag_314\n      jump\t// in\n    tag_540:\n        /* \"#utility.yul\":23422:23459   */\n      swap2\n      pop\n        /* \"#utility.yul\":23492:23495   */\n      dup3\n        /* \"#utility.yul\":23489:23490   */\n      0x02\n        /* \"#utility.yul\":23485:23496   */\n      mul\n        /* \"#utility.yul\":23479:23483   */\n      dup3\n        /* \"#utility.yul\":23476:23497   */\n      or\n        /* \"#utility.yul\":23468:23497   */\n      swap1\n      pop\n        /* \"#utility.yul\":23208:23503   */\n      swap3\n      swap2\n      pop\n      pop\n      jump\t// out\n        /* \"#utility.yul\":23508:24898   */\n    tag_214:\n        /* \"#utility.yul\":23623:23659   */\n      tag_542\n        /* \"#utility.yul\":23655:23658   */\n      dup3\n        /* \"#utility.yul\":23623:23659   */\n      tag_267\n      jump\t// in\n    tag_542:\n        /* \"#utility.yul\":23724:23742   */\n      0xffffffffffffffff\n        /* \"#utility.yul\":23716:23722   */\n      dup2\n        /* \"#utility.yul\":23713:23743   */\n      gt\n        /* \"#utility.yul\":23710:23766   */\n      iszero\n      tag_543\n      jumpi\n        /* \"#utility.yul\":23746:23764   */\n      tag_544\n      tag_300\n      jump\t// in\n    tag_544:\n        /* \"#utility.yul\":23710:23766   */\n    tag_543:\n        /* \"#utility.yul\":23790:23828   */\n      tag_545\n        /* \"#utility.yul\":23822:23826   */\n      dup3\n        /* \"#utility.yul\":23816:23827   */\n      sload\n        /* \"#utility.yul\":23790:23828   */\n      tag_146\n      jump\t// in\n    tag_545:\n        /* \"#utility.yul\":23875:23941   */\n      tag_546\n        /* \"#utility.yul\":23934:23940   */\n      dup3\n        /* \"#utility.yul\":23926:23932   */\n      dup3\n        /* \"#utility.yul\":23920:23924   */\n      dup6\n        /* \"#utility.yul\":23875:23941   */\n      tag_312\n      jump\t// in\n    tag_546:\n        /* \"#utility.yul\":23968:23969   */\n      0x00\n        /* \"#utility.yul\":23992:23996   */\n      0x20\n        /* \"#utility.yul\":23979:23996   */\n      swap1\n      pop\n        /* \"#utility.yul\":24024:24026   */\n      0x1f\n        /* \"#utility.yul\":24016:24022   */\n      dup4\n        /* \"#utility.yul\":24013:24027   */\n      gt\n        /* \"#utility.yul\":24041:24042   */\n      0x01\n        /* \"#utility.yul\":24036:24653   */\n      dup2\n      eq\n      tag_548\n      jumpi\n        /* \"#utility.yul\":24697:24698   */\n      0x00\n        /* \"#utility.yul\":24714:24720   */\n      dup5\n        /* \"#utility.yul\":24711:24788   */\n      iszero\n      tag_549\n      jumpi\n        /* \"#utility.yul\":24763:24772   */\n      dup3\n        /* \"#utility.yul\":24758:24761   */\n      dup8\n        /* \"#utility.yul\":24754:24773   */\n      add\n        /* \"#utility.yul\":24748:24774   */\n      mload\n        /* \"#utility.yul\":24739:24774   */\n      swap1\n      pop\n        /* \"#utility.yul\":24711:24788   */\n    tag_549:\n        /* \"#utility.yul\":24814:24881   */\n      tag_550\n        /* \"#utility.yul\":24874:24880   */\n      dup6\n        /* \"#utility.yul\":24867:24872   */\n      dup3\n        /* \"#utility.yul\":24814:24881   */\n      tag_315\n      jump\t// in\n    tag_550:\n        /* \"#utility.yul\":24808:24812   */\n      dup7\n        /* \"#utility.yul\":24801:24882   */\n      sstore\n        /* \"#utility.yul\":24670:24892   */\n      pop\n        /* \"#utility.yul\":24006:24892   */\n      jump(tag_547)\n        /* \"#utility.yul\":24036:24653   */\n    tag_548:\n        /* \"#utility.yul\":24088:24092   */\n      0x1f\n        /* \"#utility.yul\":24084:24093   */\n      not\n        /* \"#utility.yul\":24076:24082   */\n      dup5\n        /* \"#utility.yul\":24072:24094   */\n      and\n        /* \"#utility.yul\":24122:24158   */\n      tag_551\n        /* \"#utility.yul\":24153:24157   */\n      dup7\n        /* \"#utility.yul\":24122:24158   */\n      tag_301\n      jump\t// in\n    tag_551:\n        /* \"#utility.yul\":24180:24181   */\n      0x00\n        /* \"#utility.yul\":24194:24402   */\n    tag_552:\n        /* \"#utility.yul\":24208:24215   */\n      dup3\n        /* \"#utility.yul\":24205:24206   */\n      dup2\n        /* \"#utility.yul\":24202:24216   */\n      lt\n        /* \"#utility.yul\":24194:24402   */\n      iszero\n      tag_554\n      jumpi\n        /* \"#utility.yul\":24287:24296   */\n      dup5\n        /* \"#utility.yul\":24282:24285   */\n      dup10\n        /* \"#utility.yul\":24278:24297   */\n      add\n        /* \"#utility.yul\":24272:24298   */\n      mload\n        /* \"#utility.yul\":24264:24270   */\n      dup3\n        /* \"#utility.yul\":24257:24299   */\n      sstore\n        /* \"#utility.yul\":24338:24339   */\n      0x01\n        /* \"#utility.yul\":24330:24336   */\n      dup3\n        /* \"#utility.yul\":24326:24340   */\n      add\n        /* \"#utility.yul\":24316:24340   */\n      swap2\n      pop\n        /* \"#utility.yul\":24385:24387   */\n      0x20\n        /* \"#utility.yul\":24374:24383   */\n      dup6\n        /* \"#utility.yul\":24370:24388   */\n      add\n        /* \"#utility.yul\":24357:24388   */\n      swap5\n      pop\n        /* \"#utility.yul\":24231:24235   */\n      0x20\n        /* \"#utility.yul\":24228:24229   */\n      dup2\n        /* \"#utility.yul\":24224:24236   */\n      add\n        /* \"#utility.yul\":24219:24236   */\n      swap1\n      pop\n        /* \"#utility.yul\":24194:24402   */\n      jump(tag_552)\n    tag_554:\n        /* \"#utility.yul\":24430:24436   */\n      dup7\n        /* \"#utility.yul\":24421:24428   */\n      dup4\n        /* \"#utility.yul\":24418:24437   */\n      lt\n        /* \"#utility.yul\":24415:24594   */\n      iszero\n      tag_555\n      jumpi\n        /* \"#utility.yul\":24488:24497   */\n      dup5\n        /* \"#utility.yul\":24483:24486   */\n      dup10\n        /* \"#utility.yul\":24479:24498   */\n      add\n        /* \"#utility.yul\":24473:24499   */\n      mload\n        /* \"#utility.yul\":24531:24579   */\n      tag_556\n        /* \"#utility.yul\":24573:24577   */\n      0x1f\n        /* \"#utility.yul\":24565:24571   */\n      dup10\n        /* \"#utility.yul\":24561:24578   */\n      and\n        /* \"#utility.yul\":24550:24559   */\n      dup3\n        /* \"#utility.yul\":24531:24579   */\n      tag_314\n      jump\t// in\n    tag_556:\n        /* \"#utility.yul\":24523:24529   */\n      dup4\n        /* \"#utility.yul\":24516:24580   */\n      sstore\n        /* \"#utility.yul\":24438:24594   */\n      pop\n        /* \"#utility.yul\":24415:24594   */\n    tag_555:\n        /* \"#utility.yul\":24640:24641   */\n      0x01\n        /* \"#utility.yul\":24636:24637   */\n      0x02\n        /* \"#utility.yul\":24628:24634   */\n      dup9\n        /* \"#utility.yul\":24624:24638   */\n      mul\n        /* \"#utility.yul\":24620:24642   */\n      add\n        /* \"#utility.yul\":24614:24618   */\n      dup9\n        /* \"#utility.yul\":24607:24643   */\n      sstore\n        /* \"#utility.yul\":24043:24653   */\n      pop\n      pop\n      pop\n        /* \"#utility.yul\":24006:24892   */\n    tag_547:\n      pop\n        /* \"#utility.yul\":23598:24898   */\n      pop\n      pop\n      pop\n        /* \"#utility.yul\":23508:24898   */\n      pop\n      pop\n      jump\t// out\n        /* \"#utility.yul\":24904:25072   */\n    tag_316:\n        /* \"#utility.yul\":24987:24998   */\n      0x00\n        /* \"#utility.yul\":25021:25027   */\n      dup3\n        /* \"#utility.yul\":25016:25019   */\n      dup3\n        /* \"#utility.yul\":25009:25028   */\n      mstore\n        /* \"#utility.yul\":25061:25065   */\n      0x20\n        /* \"#utility.yul\":25056:25059   */\n      dup3\n        /* \"#utility.yul\":25052:25066   */\n      add\n        /* \"#utility.yul\":25037:25066   */\n      swap1\n      pop\n        /* \"#utility.yul\":24904:25072   */\n      swap3\n      swap2\n      pop\n      pop\n      jump\t// out\n        /* \"#utility.yul\":25078:25451   */\n    tag_317:\n        /* \"#utility.yul\":25164:25167   */\n      0x00\n        /* \"#utility.yul\":25192:25230   */\n      tag_559\n        /* \"#utility.yul\":25224:25229   */\n      dup3\n        /* \"#utility.yul\":25192:25230   */\n      tag_267\n      jump\t// in\n    tag_559:\n        /* \"#utility.yul\":25246:25316   */\n      tag_560\n        /* \"#utility.yul\":25309:25315   */\n      dup2\n        /* \"#utility.yul\":25304:25307   */\n      dup6\n        /* \"#utility.yul\":25246:25316   */\n      tag_316\n      jump\t// in\n    tag_560:\n        /* \"#utility.yul\":25239:25316   */\n      swap4\n      pop\n        /* \"#utility.yul\":25325:25390   */\n      tag_561\n        /* \"#utility.yul\":25383:25389   */\n      dup2\n        /* \"#utility.yul\":25378:25381   */\n      dup6\n        /* \"#utility.yul\":25371:25375   */\n      0x20\n        /* \"#utility.yul\":25364:25369   */\n      dup7\n        /* \"#utility.yul\":25360:25376   */\n      add\n        /* \"#utility.yul\":25325:25390   */\n      tag_269\n      jump\t// in\n    tag_561:\n        /* \"#utility.yul\":25415:25444   */\n      tag_562\n        /* \"#utility.yul\":25437:25443   */\n      dup2\n        /* \"#utility.yul\":25415:25444   */\n      tag_270\n      jump\t// in\n    tag_562:\n        /* \"#utility.yul\":25410:25413   */\n      dup5\n        /* \"#utility.yul\":25406:25445   */\n      add\n        /* \"#utility.yul\":25399:25445   */\n      swap2\n      pop\n        /* \"#utility.yul\":25168:25451   */\n      pop\n        /* \"#utility.yul\":25078:25451   */\n      swap3\n      swap2\n      pop\n      pop\n      jump\t// out\n        /* \"#utility.yul\":25457:25766   */\n    tag_216:\n        /* \"#utility.yul\":25568:25572   */\n      0x00\n        /* \"#utility.yul\":25606:25608   */\n      0x20\n        /* \"#utility.yul\":25595:25604   */\n      dup3\n        /* \"#utility.yul\":25591:25609   */\n      add\n        /* \"#utility.yul\":25583:25609   */\n      swap1\n      pop\n        /* \"#utility.yul\":25655:25664   */\n      dup2\n        /* \"#utility.yul\":25649:25653   */\n      dup2\n        /* \"#utility.yul\":25645:25665   */\n      sub\n        /* \"#utility.yul\":25641:25642   */\n      0x00\n        /* \"#utility.yul\":25630:25639   */\n      dup4\n        /* \"#utility.yul\":25626:25643   */\n      add\n        /* \"#utility.yul\":25619:25666   */\n      mstore\n        /* \"#utility.yul\":25683:25759   */\n      tag_564\n        /* \"#utility.yul\":25754:25758   */\n      dup2\n        /* \"#utility.yul\":25745:25751   */\n      dup5\n        /* \"#utility.yul\":25683:25759   */\n      tag_317\n      jump\t// in\n    tag_564:\n        /* \"#utility.yul\":25675:25759   */\n      swap1\n      pop\n        /* \"#utility.yul\":25457:25766   */\n      swap3\n      swap2\n      pop\n      pop\n      jump\t// out\n        /* \"#utility.yul\":25772:25951   */\n    tag_318:\n        /* \"#utility.yul\":25912:25943   */\n      0x5472616e73616374696f6e20616c726561647920636f6e6669726d6564000000\n        /* \"#utility.yul\":25908:25909   */\n      0x00\n        /* \"#utility.yul\":25900:25906   */\n      dup3\n        /* \"#utility.yul\":25896:25910   */\n      add\n        /* \"#utility.yul\":25889:25944   */\n      mstore\n        /* \"#utility.yul\":25772:25951   */\n      pop\n      jump\t// out\n        /* \"#utility.yul\":25957:26323   */\n    tag_319:\n        /* \"#utility.yul\":26099:26102   */\n      0x00\n        /* \"#utility.yul\":26120:26187   */\n      tag_567\n        /* \"#utility.yul\":26184:26186   */\n      0x1d\n        /* \"#utility.yul\":26179:26182   */\n      dup4\n        /* \"#utility.yul\":26120:26187   */\n      tag_280\n      jump\t// in\n    tag_567:\n        /* \"#utility.yul\":26113:26187   */\n      swap2\n      pop\n        /* \"#utility.yul\":26196:26289   */\n      tag_568\n        /* \"#utility.yul\":26285:26288   */\n      dup3\n        /* \"#utility.yul\":26196:26289   */\n      tag_318\n      jump\t// in\n    tag_568:\n        /* \"#utility.yul\":26314:26316   */\n      0x20\n        /* \"#utility.yul\":26309:26312   */\n      dup3\n        /* \"#utility.yul\":26305:26317   */\n      add\n        /* \"#utility.yul\":26298:26317   */\n      swap1\n      pop\n        /* \"#utility.yul\":25957:26323   */\n      swap2\n      swap1\n      pop\n      jump\t// out\n        /* \"#utility.yul\":26329:26748   */\n    tag_220:\n        /* \"#utility.yul\":26495:26499   */\n      0x00\n        /* \"#utility.yul\":26533:26535   */\n      0x20\n        /* \"#utility.yul\":26522:26531   */\n      dup3\n        /* \"#utility.yul\":26518:26536   */\n      add\n        /* \"#utility.yul\":26510:26536   */\n      swap1\n      pop\n        /* \"#utility.yul\":26582:26591   */\n      dup2\n        /* \"#utility.yul\":26576:26580   */\n      dup2\n        /* \"#utility.yul\":26572:26592   */\n      sub\n        /* \"#utility.yul\":26568:26569   */\n      0x00\n        /* \"#utility.yul\":26557:26566   */\n      dup4\n        /* \"#utility.yul\":26553:26570   */\n      add\n        /* \"#utility.yul\":26546:26593   */\n      mstore\n        /* \"#utility.yul\":26610:26741   */\n      tag_570\n        /* \"#utility.yul\":26736:26740   */\n      dup2\n        /* \"#utility.yul\":26610:26741   */\n      tag_319\n      jump\t// in\n    tag_570:\n        /* \"#utility.yul\":26602:26741   */\n      swap1\n      pop\n        /* \"#utility.yul\":26329:26748   */\n      swap2\n      swap1\n      pop\n      jump\t// out\n        /* \"#utility.yul\":26754:26987   */\n    tag_222:\n        /* \"#utility.yul\":26793:26796   */\n      0x00\n        /* \"#utility.yul\":26816:26840   */\n      tag_572\n        /* \"#utility.yul\":26834:26839   */\n      dup3\n        /* \"#utility.yul\":26816:26840   */\n      tag_258\n      jump\t// in\n    tag_572:\n        /* \"#utility.yul\":26807:26840   */\n      swap2\n      pop\n        /* \"#utility.yul\":26862:26928   */\n      0xffffffffffffffffffffffffffffffffffffffffffffffffffffffffffffffff\n        /* \"#utility.yul\":26855:26860   */\n      dup3\n        /* \"#utility.yul\":26852:26929   */\n      sub\n        /* \"#utility.yul\":26849:26952   */\n      tag_573\n      jumpi\n        /* \"#utility.yul\":26932:26950   */\n      tag_574\n      tag_283\n      jump\t// in\n    tag_574:\n        /* \"#utility.yul\":26849:26952   */\n    tag_573:\n        /* \"#utility.yul\":26979:26980   */\n      0x01\n        /* \"#utility.yul\":26972:26977   */\n      dup3\n        /* \"#utility.yul\":26968:26981   */\n      add\n        /* \"#utility.yul\":26961:26981   */\n      swap1\n      pop\n        /* \"#utility.yul\":26754:26987   */\n      swap2\n      swap1\n      pop\n      jump\t// out\n        /* \"#utility.yul\":26993:27171   */\n    tag_320:\n        /* \"#utility.yul\":27133:27163   */\n      0x5472616e73616374696f6e20616c726561647920657865637574656400000000\n        /* \"#utility.yul\":27129:27130   */\n      0x00\n        /* \"#utility.yul\":27121:27127   */\n      dup3\n        /* \"#utility.yul\":27117:27131   */\n      add\n        /* \"#utility.yul\":27110:27164   */\n      mstore\n        /* \"#utility.yul\":26993:27171   */\n      pop\n      jump\t// out\n        /* \"#utility.yul\":27177:27543   */\n    tag_321:\n        /* \"#utility.yul\":27319:27322   */\n      0x00\n        /* \"#utility.yul\":27340:27407   */\n      tag_577\n        /* \"#utility.yul\":27404:27406   */\n      0x1c\n        /* \"#utility.yul\":27399:27402   */\n      dup4\n        /* \"#utility.yul\":27340:27407   */\n      tag_280\n      jump\t// in\n    tag_577:\n        /* \"#utility.yul\":27333:27407   */\n      swap2\n      pop\n        /* \"#utility.yul\":27416:27509   */\n      tag_578\n        /* \"#utility.yul\":27505:27508   */\n      dup3\n        /* \"#utility.yul\":27416:27509   */\n      tag_320\n      jump\t// in\n    tag_578:\n        /* \"#utility.yul\":27534:27536   */\n      0x20\n        /* \"#utility.yul\":27529:27532   */\n      dup3\n        /* \"#utility.yul\":27525:27537   */\n      add\n        /* \"#utility.yul\":27518:27537   */\n      swap1\n      pop\n        /* \"#utility.yul\":27177:27543   */\n      swap2\n      swap1\n      pop\n      jump\t// out\n        /* \"#utility.yul\":27549:27968   */\n    tag_234:\n        /* \"#utility.yul\":27715:27719   */\n      0x00\n        /* \"#utility.yul\":27753:27755   */\n      0x20\n        /* \"#utility.yul\":27742:27751   */\n      dup3\n        /* \"#utility.yul\":27738:27756   */\n      add\n        /* \"#utility.yul\":27730:27756   */\n      swap1\n      pop\n        /* \"#utility.yul\":27802:27811   */\n      dup2\n        /* \"#utility.yul\":27796:27800   */\n      dup2\n        /* \"#utility.yul\":27792:27812   */\n      sub\n        /* \"#utility.yul\":27788:27789   */\n      0x00\n        /* \"#utility.yul\":27777:27786   */\n      dup4\n        /* \"#utility.yul\":27773:27790   */\n      add\n        /* \"#utility.yul\":27766:27813   */\n      mstore\n        /* \"#utility.yul\":27830:27961   */\n      tag_580\n        /* \"#utility.yul\":27956:27960   */\n      dup2\n        /* \"#utility.yul\":27830:27961   */\n      tag_321\n      jump\t// in\n    tag_580:\n        /* \"#utility.yul\":27822:27961   */\n      swap1\n      pop\n        /* \"#utility.yul\":27549:27968   */\n      swap2\n      swap1\n      pop\n      jump\t// out\n        /* \"#utility.yul\":27974:28121   */\n    tag_322:\n        /* \"#utility.yul\":28075:28086   */\n      0x00\n        /* \"#utility.yul\":28112:28115   */\n      dup2\n        /* \"#utility.yul\":28097:28115   */\n      swap1\n      pop\n        /* \"#utility.yul\":27974:28121   */\n      swap3\n      swap2\n      pop\n      pop\n      jump\t// out\n        /* \"#utility.yul\":28149:29019   */\n    tag_323:\n        /* \"#utility.yul\":28250:28253   */\n      0x00\n        /* \"#utility.yul\":28287:28292   */\n      dup2\n        /* \"#utility.yul\":28281:28293   */\n      sload\n        /* \"#utility.yul\":28316:28352   */\n      tag_583\n        /* \"#utility.yul\":28342:28351   */\n      dup2\n        /* \"#utility.yul\":28316:28352   */\n      tag_146\n      jump\t// in\n    tag_583:\n        /* \"#utility.yul\":28368:28456   */\n      tag_584\n        /* \"#utility.yul\":28449:28455   */\n      dup2\n        /* \"#utility.yul\":28444:28447   */\n      dup7\n        /* \"#utility.yul\":28368:28456   */\n      tag_322\n      jump\t// in\n    tag_584:\n        /* \"#utility.yul\":28361:28456   */\n      swap5\n      pop\n        /* \"#utility.yul\":28487:28488   */\n      0x01\n        /* \"#utility.yul\":28476:28485   */\n      dup3\n        /* \"#utility.yul\":28472:28489   */\n      and\n        /* \"#utility.yul\":28503:28504   */\n      0x00\n        /* \"#utility.yul\":28498:28664   */\n      dup2\n      eq\n      tag_586\n      jumpi\n        /* \"#utility.yul\":28678:28679   */\n      0x01\n        /* \"#utility.yul\":28673:29013   */\n      dup2\n      eq\n      tag_587\n      jumpi\n        /* \"#utility.yul\":28465:29013   */\n      jump(tag_585)\n        /* \"#utility.yul\":28498:28664   */\n    tag_586:\n        /* \"#utility.yul\":28582:28586   */\n      0xff\n        /* \"#utility.yul\":28578:28587   */\n      not\n        /* \"#utility.yul\":28567:28576   */\n      dup4\n        /* \"#utility.yul\":28563:28588   */\n      and\n        /* \"#utility.yul\":28558:28561   */\n      dup7\n        /* \"#utility.yul\":28551:28589   */\n      mstore\n        /* \"#utility.yul\":28644:28650   */\n      dup2\n        /* \"#utility.yul\":28637:28651   */\n      iszero\n        /* \"#utility.yul\":28630:28652   */\n      iszero\n        /* \"#utility.yul\":28622:28628   */\n      dup3\n        /* \"#utility.yul\":28618:28653   */\n      mul\n        /* \"#utility.yul\":28613:28616   */\n      dup7\n        /* \"#utility.yul\":28609:28654   */\n      add\n        /* \"#utility.yul\":28602:28654   */\n      swap4\n      pop\n        /* \"#utility.yul\":28498:28664   */\n      jump(tag_585)\n        /* \"#utility.yul\":28673:29013   */\n    tag_587:\n        /* \"#utility.yul\":28740:28777   */\n      tag_588\n        /* \"#utility.yul\":28771:28776   */\n      dup6\n        /* \"#utility.yul\":28740:28777   */\n      tag_301\n      jump\t// in\n    tag_588:\n        /* \"#utility.yul\":28799:28800   */\n      0x00\n        /* \"#utility.yul\":28813:28967   */\n    tag_589:\n        /* \"#utility.yul\":28827:28833   */\n      dup4\n        /* \"#utility.yul\":28824:28825   */\n      dup2\n        /* \"#utility.yul\":28821:28834   */\n      lt\n        /* \"#utility.yul\":28813:28967   */\n      iszero\n      tag_591\n      jumpi\n        /* \"#utility.yul\":28901:28908   */\n      dup2\n        /* \"#utility.yul\":28895:28909   */\n      sload\n        /* \"#utility.yul\":28891:28892   */\n      dup2\n        /* \"#utility.yul\":28886:28889   */\n      dup10\n        /* \"#utility.yul\":28882:28893   */\n      add\n        /* \"#utility.yul\":28875:28910   */\n      mstore\n        /* \"#utility.yul\":28951:28952   */\n      0x01\n        /* \"#utility.yul\":28942:28949   */\n      dup3\n        /* \"#utility.yul\":28938:28953   */\n      add\n        /* \"#utility.yul\":28927:28953   */\n      swap2\n      pop\n        /* \"#utility.yul\":28849:28853   */\n      0x20\n        /* \"#utility.yul\":28846:28847   */\n      dup2\n        /* \"#utility.yul\":28842:28854   */\n      add\n        /* \"#utility.yul\":28837:28854   */\n      swap1\n      pop\n        /* \"#utility.yul\":28813:28967   */\n      jump(tag_589)\n    tag_591:\n        /* \"#utility.yul\":28996:29002   */\n      dup4\n        /* \"#utility.yul\":28991:28994   */\n      dup9\n        /* \"#utility.yul\":28987:29003   */\n      add\n        /* \"#utility.yul\":28980:29003   */\n      swap6\n      pop\n        /* \"#utility.yul\":28680:29013   */\n      pop\n      pop\n        /* \"#utility.yul\":28465:29013   */\n    tag_585:\n      pop\n        /* \"#utility.yul\":28254:29019   */\n      pop\n      pop\n        /* \"#utility.yul\":28149:29019   */\n      swap3\n      swap2\n      pop\n      pop\n      jump\t// out\n        /* \"#utility.yul\":29025:29290   */\n    tag_239:\n        /* \"#utility.yul\":29152:29155   */\n      0x00\n        /* \"#utility.yul\":29174:29264   */\n      tag_593\n        /* \"#utility.yul\":29260:29263   */\n      dup3\n        /* \"#utility.yul\":29251:29257   */\n      dup5\n        /* \"#utility.yul\":29174:29264   */\n      tag_323\n      jump\t// in\n    tag_593:\n        /* \"#utility.yul\":29167:29264   */\n      swap2\n      pop\n        /* \"#utility.yul\":29281:29284   */\n      dup2\n        /* \"#utility.yul\":29274:29284   */\n      swap1\n      pop\n        /* \"#utility.yul\":29025:29290   */\n      swap3\n      swap2\n      pop\n      pop\n      jump\t// out\n        /* \"#utility.yul\":29296:29474   */\n    tag_324:\n        /* \"#utility.yul\":29436:29466   */\n      0x5472616e73616374696f6e20657865637574696f6e206661696c656400000000\n        /* \"#utility.yul\":29432:29433   */\n      0x00\n        /* \"#utility.yul\":29424:29430   */\n      dup3\n        /* \"#utility.yul\":29420:29434   */\n      add\n        /* \"#utility.yul\":29413:29467   */\n      mstore\n        /* \"#utility.yul\":29296:29474   */\n      pop\n      jump\t// out\n        /* \"#utility.yul\":29480:29846   */\n    tag_325:\n        /* \"#utility.yul\":29622:29625   */\n      0x00\n        /* \"#utility.yul\":29643:29710   */\n      tag_596\n        /* \"#utility.yul\":29707:29709   */\n      0x1c\n        /* \"#utility.yul\":29702:29705   */\n      dup4\n        /* \"#utility.yul\":29643:29710   */\n      tag_280\n      jump\t// in\n    tag_596:\n        /* \"#utility.yul\":29636:29710   */\n      swap2\n      pop\n        /* \"#utility.yul\":29719:29812   */\n      tag_597\n        /* \"#utility.yul\":29808:29811   */\n      dup3\n        /* \"#utility.yul\":29719:29812   */\n      tag_324\n      jump\t// in\n    tag_597:\n        /* \"#utility.yul\":29837:29839   */\n      0x20\n        /* \"#utility.yul\":29832:29835   */\n      dup3\n        /* \"#utility.yul\":29828:29840   */\n      add\n        /* \"#utility.yul\":29821:29840   */\n      swap1\n      pop\n        /* \"#utility.yul\":29480:29846   */\n      swap2\n      swap1\n      pop\n      jump\t// out\n        /* \"#utility.yul\":29852:30271   */\n    tag_245:\n        /* \"#utility.yul\":30018:30022   */\n      0x00\n        /* \"#utility.yul\":30056:30058   */\n      0x20\n        /* \"#utility.yul\":30045:30054   */\n      dup3\n        /* \"#utility.yul\":30041:30059   */\n      add\n        /* \"#utility.yul\":30033:30059   */\n      swap1\n      pop\n        /* \"#utility.yul\":30105:30114   */\n      dup2\n        /* \"#utility.yul\":30099:30103   */\n      dup2\n        /* \"#utility.yul\":30095:30115   */\n      sub\n        /* \"#utility.yul\":30091:30092   */\n      0x00\n        /* \"#utility.yul\":30080:30089   */\n      dup4\n        /* \"#utility.yul\":30076:30093   */\n      add\n        /* \"#utility.yul\":30069:30116   */\n      mstore\n        /* \"#utility.yul\":30133:30264   */\n      tag_599\n        /* \"#utility.yul\":30259:30263   */\n      dup2\n        /* \"#utility.yul\":30133:30264   */\n      tag_325\n      jump\t// in\n    tag_599:\n        /* \"#utility.yul\":30125:30264   */\n      swap1\n      pop\n        /* \"#utility.yul\":29852:30271   */\n      swap2\n      swap1\n      pop\n      jump\t// out\n\n    auxdata: 0xa2646970667358221220fdc56ad2380b66a5f8e81a05c82d32dc379ab9377b7951a7b4f525a338a6a89f64736f6c634300081b0033\n}\n",
				"bytecode": {
					"linkReferences": {},
					"object": "60806040525f6001555f60025f6101000a81548160ff02191690831515021790555034801561002c575f5ffd5b50604051612bc2380380612bc2833981810160405281019061004e919061042b565b33600260016101000a81548173ffffffffffffffffffffffffffffffffffffffff021916908373ffffffffffffffffffffffffffffffffffffffff160217905550738b801270f3e02ea2aaccf134333d5e5a019eff42600a5f6101000a81548173ffffffffffffffffffffffffffffffffffffffff021916908373ffffffffffffffffffffffffffffffffffffffff16021790555080515f819055505f5f90505b5f548160ff1610156102695760055f838360ff168151811061011457610113610472565b5b602002602001015173ffffffffffffffffffffffffffffffffffffffff1673ffffffffffffffffffffffffffffffffffffffff1681526020019081526020015f205f9054906101000a900460ff16610256576003828260ff168151811061017e5761017d610472565b5b6020026020010151908060018154018082558091505060019003905f5260205f20015f9091909190916101000a81548173ffffffffffffffffffffffffffffffffffffffff021916908373ffffffffffffffffffffffffffffffffffffffff160217905550600160055f848460ff16815181106101fe576101fd610472565b5b602002602001015173ffffffffffffffffffffffffffffffffffffffff1673ffffffffffffffffffffffffffffffffffffffff1681526020019081526020015f205f6101000a81548160ff0219169083151502179055505b8080610261906104d8565b9150506100ef565b5050610500565b5f604051905090565b5f5ffd5b5f5ffd5b5f5ffd5b5f601f19601f8301169050919050565b7f4e487b71000000000000000000000000000000000000000000000000000000005f52604160045260245ffd5b6102cb82610285565b810181811067ffffffffffffffff821117156102ea576102e9610295565b5b80604052505050565b5f6102fc610270565b905061030882826102c2565b919050565b5f67ffffffffffffffff82111561032757610326610295565b5b602082029050602081019050919050565b5f5ffd5b5f73ffffffffffffffffffffffffffffffffffffffff82169050919050565b5f6103658261033c565b9050919050565b6103758161035b565b811461037f575f5ffd5b50565b5f815190506103908161036c565b92915050565b5f6103a86103a38461030d565b6102f3565b905080838252602082019050602084028301858111156103cb576103ca610338565b5b835b818110156103f457806103e08882610382565b8452602084019350506020810190506103cd565b5050509392505050565b5f82601f83011261041257610411610281565b5b8151610422848260208601610396565b91505092915050565b5f602082840312156104405761043f610279565b5b5f82015167ffffffffffffffff81111561045d5761045c61027d565b5b610469848285016103fe565b91505092915050565b7f4e487b71000000000000000000000000000000000000000000000000000000005f52603260045260245ffd5b7f4e487b71000000000000000000000000000000000000000000000000000000005f52601160045260245ffd5b5f60ff82169050919050565b5f6104e2826104cc565b915060ff82036104f5576104f461049f565b5b600182019050919050565b6126b58061050d5f395ff3fe608060405234801561000f575f5ffd5b50600436106100e8575f3560e01c806383920e901161008a578063a6c41b4d11610064578063a6c41b4d14610224578063a75e1ecf14610240578063aad0e6eb1461025e578063c01a8c8414610268576100e8565b806383920e90146101de57806384c02ba9146101fc578063893d20e814610206576100e8565b80634ecf43a0116100c65780634ecf43a014610156578063581592f1146101725780636052344014610190578063838cbe52146101ae576100e8565b806316967407146100ec57806320ea8d861461010a5780633b211c4c14610126575b5f5ffd5b6100f4610284565b6040516101019190611900565b60405180910390f35b610124600480360381019061011f9190611957565b610398565b005b610140600480360381019061013b9190611982565b610433565b60405161014d91906119cf565b60405180910390f35b610170600480360381019061016b9190611957565b610621565b005b61017a610747565b60405161018791906119cf565b60405180910390f35b6101986107eb565b6040516101a591906119cf565b60405180910390f35b6101c860048036038101906101c39190611a12565b61087c565b6040516101d591906119cf565b60405180910390f35b6101e66109ad565b6040516101f39190611bcf565b60405180910390f35b610204610b56565b005b61020e610c09565b60405161021b9190611bfe565b60405180910390f35b61023e60048036038101906102399190611957565b610cbb565b005b610248610e74565b6040516102559190611c26565b60405180910390f35b610266610f12565b005b610282600480360381019061027d9190611957565b6110f9565b005b606060055f3373ffffffffffffffffffffffffffffffffffffffff1673ffffffffffffffffffffffffffffffffffffffff1681526020019081526020015f205f9054906101000a900460ff1661030f576040517f08c379a000000000000000000000000000000000000000000000000000000000815260040161030690611c99565b60405180910390fd5b600380548060200260200160405190810160405280929190818152602001828054801561038e57602002820191905f5260205f20905b815f9054906101000a900473ffffffffffffffffffffffffffffffffffffffff1673ffffffffffffffffffffffffffffffffffffffff1681526020019060010190808311610345575b5050505050905090565b60055f3373ffffffffffffffffffffffffffffffffffffffff1673ffffffffffffffffffffffffffffffffffffffff1681526020019081526020015f205f9054906101000a900460ff16610421576040517f08c379a000000000000000000000000000000000000000000000000000000000815260040161041890611c99565b60405180910390fd5b61043060046007600684611196565b50565b5f5f601e8303610475576103e8600f600685876104509190611ce4565b61045a9190611ce4565b6104649190611ce4565b61046e9190611ce4565b9050610537565b603c83036104b5576103e8600d600685876104909190611ce4565b61049a9190611ce4565b6104a49190611ce4565b6104ae9190611ce4565b9050610536565b605a83036104f4576064607d600685876104cf9190611ce4565b6104d99190611ce4565b6104e39190611ce4565b6104ed9190611ce4565b9050610535565b5f610534576040517f08c379a000000000000000000000000000000000000000000000000000000000815260040161052b90611d95565b60405180910390fd5b5b5b5b5f600a5f9054906101000a900473ffffffffffffffffffffffffffffffffffffffff1673ffffffffffffffffffffffffffffffffffffffff1663095ea7b333846040518363ffffffff1660e01b8152600401610594929190611db3565b6020604051808303815f875af11580156105b0573d5f5f3e3d5ffd5b505050506040513d601f19601f820116820180604052508101906105d49190611e04565b905080610616576040517f08c379a000000000000000000000000000000000000000000000000000000000815260040161060d90611e79565b60405180910390fd5b819250505092915050565b60055f3373ffffffffffffffffffffffffffffffffffffffff1673ffffffffffffffffffffffffffffffffffffffff1681526020019081526020015f205f9054906101000a900460ff166106aa576040517f08c379a00000000000000000000000000000000000000000000000000000000081526004016106a190611c99565b60405180910390fd5b6107446004826040516024016106c091906119cf565b6040516020818303038152906040527f0a57dfb8000000000000000000000000000000000000000000000000000000007bffffffffffffffffffffffffffffffffffffffffffffffffffffffff19166020820180517bffffffffffffffffffffffffffffffffffffffffffffffffffffffff838183161783525050505060016113b2565b50565b5f5f600a5f9054906101000a900473ffffffffffffffffffffffffffffffffffffffff1673ffffffffffffffffffffffffffffffffffffffff166370a08231336040518263ffffffff1660e01b81526004016107a39190611bfe565b602060405180830381865afa1580156107be573d5f5f3e3d5ffd5b505050506040513d601f19601f820116820180604052508101906107e29190611eab565b90508091505090565b5f60055f3373ffffffffffffffffffffffffffffffffffffffff1673ffffffffffffffffffffffffffffffffffffffff1681526020019081526020015f205f9054906101000a900460ff16610875576040517f08c379a000000000000000000000000000000000000000000000000000000000815260040161086c90611c99565b60405180910390fd5b5f54905090565b5f60055f3373ffffffffffffffffffffffffffffffffffffffff1673ffffffffffffffffffffffffffffffffffffffff1681526020019081526020015f205f9054906101000a900460ff16610906576040517f08c379a00000000000000000000000000000000000000000000000000000000081526004016108fd90611c99565b60405180910390fd5b6109a060048360405160240161091c9190611bfe565b6040516020818303038152906040527f13af4035000000000000000000000000000000000000000000000000000000007bffffffffffffffffffffffffffffffffffffffffffffffffffffffff19166020820180517bffffffffffffffffffffffffffffffffffffffffffffffffffffffff838183161783525050505060016113b2565b6004805490509050919050565b606060055f3373ffffffffffffffffffffffffffffffffffffffff1673ffffffffffffffffffffffffffffffffffffffff1681526020019081526020015f205f9054906101000a900460ff16610a38576040517f08c379a0000000000000000000000000000000000000000000000000000000008152600401610a2f90611c99565b60405180910390fd5b6004805480602002602001604051908101604052809291908181526020015f905b82821015610b4d578382905f5260205f2090600202016040518060600160405290815f82018054610a8990611f03565b80601f0160208091040260200160405190810160405280929190818152602001828054610ab590611f03565b8015610b005780601f10610ad757610100808354040283529160200191610b00565b820191905f5260205f20905b815481529060010190602001808311610ae357829003601f168201915b50505050508152602001600182015f9054906101000a900460ff161515151581526020016001820160019054906101000a900460ff16151515158152505081526020019060010190610a59565b50505050905090565b60055f3373ffffffffffffffffffffffffffffffffffffffff1673ffffffffffffffffffffffffffffffffffffffff1681526020019081526020015f205f9054906101000a900460ff16610bdf576040517f08c379a0000000000000000000000000000000000000000000000000000000008152600401610bd690611c99565b60405180910390fd5b60025f9054906101000a900460ff161560025f6101000a81548160ff021916908315150217905550565b5f60055f3373ffffffffffffffffffffffffffffffffffffffff1673ffffffffffffffffffffffffffffffffffffffff1681526020019081526020015f205f9054906101000a900460ff16610c93576040517f08c379a0000000000000000000000000000000000000000000000000000000008152600401610c8a90611c99565b60405180910390fd5b600260019054906101000a900473ffffffffffffffffffffffffffffffffffffffff16905090565b5f600a5f9054906101000a900473ffffffffffffffffffffffffffffffffffffffff1673ffffffffffffffffffffffffffffffffffffffff166323b872dd3330856040518463ffffffff1660e01b8152600401610d1a93929190611f33565b6020604051808303815f875af1158015610d36573d5f5f3e3d5ffd5b505050506040513d601f19601f82011682018060405250810190610d5a9190611e04565b905080610d9c576040517f08c379a0000000000000000000000000000000000000000000000000000000008152600401610d9390611fb2565b60405180910390fd5b60025f9054906101000a900460ff1615610e7057600a5f9054906101000a900473ffffffffffffffffffffffffffffffffffffffff1673ffffffffffffffffffffffffffffffffffffffff1663a9059cbb600260019054906101000a900473ffffffffffffffffffffffffffffffffffffffff16846040518363ffffffff1660e01b8152600401610e2e929190611db3565b6020604051808303815f875af1158015610e4a573d5f5f3e3d5ffd5b505050506040513d601f19601f82011682018060405250810190610e6e9190611e04565b505b5050565b5f60055f3373ffffffffffffffffffffffffffffffffffffffff1673ffffffffffffffffffffffffffffffffffffffff1681526020019081526020015f205f9054906101000a900460ff16610efe576040517f08c379a0000000000000000000000000000000000000000000000000000000008152600401610ef590611c99565b60405180910390fd5b60025f9054906101000a900460ff16905090565b60055f3373ffffffffffffffffffffffffffffffffffffffff1673ffffffffffffffffffffffffffffffffffffffff1681526020019081526020015f205f9054906101000a900460ff16610f9b576040517f08c379a0000000000000000000000000000000000000000000000000000000008152600401610f9290611c99565b60405180910390fd5b5f600a5f9054906101000a900473ffffffffffffffffffffffffffffffffffffffff1673ffffffffffffffffffffffffffffffffffffffff166370a08231306040518263ffffffff1660e01b8152600401610ff69190611bfe565b602060405180830381865afa158015611011573d5f5f3e3d5ffd5b505050506040513d601f19601f820116820180604052508101906110359190611eab565b9050600a5f9054906101000a900473ffffffffffffffffffffffffffffffffffffffff1673ffffffffffffffffffffffffffffffffffffffff1663a9059cbb600260019054906101000a900473ffffffffffffffffffffffffffffffffffffffff16836040518363ffffffff1660e01b81526004016110b5929190611db3565b6020604051808303815f875af11580156110d1573d5f5f3e3d5ffd5b505050506040513d601f19601f820116820180604052508101906110f59190611e04565b5050565b60055f3373ffffffffffffffffffffffffffffffffffffffff1673ffffffffffffffffffffffffffffffffffffffff1681526020019081526020015f205f9054906101000a900460ff16611182576040517f08c379a000000000000000000000000000000000000000000000000000000000815260040161117990611c99565b60405180910390fd5b6111936004600760065f54856114a5565b50565b838054905081106111dc576040517f08c379a00000000000000000000000000000000000000000000000000000000081526004016111d39061201a565b60405180910390fd5b8381815481106111ef576111ee612038565b5b905f5260205f2090600202016001015f9054906101000a900460ff1661124a576040517f08c379a0000000000000000000000000000000000000000000000000000000008152600401611241906120af565b60405180910390fd5b825f8281526020019081526020015f205f3373ffffffffffffffffffffffffffffffffffffffff1673ffffffffffffffffffffffffffffffffffffffff1681526020019081526020015f205f9054906101000a900460ff166112e1576040517f08c379a00000000000000000000000000000000000000000000000000000000081526004016112d890612117565b60405180910390fd5b5f835f8381526020019081526020015f205f3373ffffffffffffffffffffffffffffffffffffffff1673ffffffffffffffffffffffffffffffffffffffff1681526020019081526020015f205f6101000a81548160ff021916908315150217905550815f8281526020019081526020015f205f81548092919061136390612135565b9190505550803373ffffffffffffffffffffffffffffffffffffffff167ff0dca620e2e81f7841d07bcc105e1704fb01475b278a9d4c236e1c62945edd5560405160405180910390a350505050565b8260405180606001604052808481526020015f15158152602001831515815250908060018154018082558091505060019003905f5260205f2090600202015f909190919091505f820151815f01908161140b9190612329565b506020820151816001015f6101000a81548160ff02191690831515021790555060408201518160010160016101000a81548160ff021916908315150217905550505082805490503373ffffffffffffffffffffffffffffffffffffffff167feb45f38ad35cf41b4f9be8cfcca269ef78ea04216dbc8b8a38f28491c84d005a846040516114989190612440565b60405180910390a3505050565b835f8281526020019081526020015f205f3373ffffffffffffffffffffffffffffffffffffffff1673ffffffffffffffffffffffffffffffffffffffff1681526020019081526020015f205f9054906101000a900460ff161561153d576040517f08c379a0000000000000000000000000000000000000000000000000000000008152600401611534906124aa565b60405180910390fd5b6001845f8381526020019081526020015f205f3373ffffffffffffffffffffffffffffffffffffffff1673ffffffffffffffffffffffffffffffffffffffff1681526020019081526020015f205f6101000a81548160ff021916908315150217905550825f8281526020019081526020015f205f8154809291906115c0906124c8565b9190505550803373ffffffffffffffffffffffffffffffffffffffff167f5cbe105e36805f7820e291f799d5794ff948af2a5f664e580382defb6339004160405160405180910390a381835f8381526020019081526020015f20541061162b5761162a8582611632565b5b5050505050565b81805490508110611678576040517f08c379a000000000000000000000000000000000000000000000000000000000815260040161166f9061201a565b60405180910390fd5b81818154811061168b5761168a612038565b5b905f5260205f2090600202016001015f9054906101000a900460ff16156116e7576040517f08c379a00000000000000000000000000000000000000000000000000000000081526004016116de90612559565b60405180910390fd5b5f8282815481106116fb576116fa612038565b5b905f5260205f20906002020190506001816001015f6101000a81548160ff0219169083151502179055505f3073ffffffffffffffffffffffffffffffffffffffff16825f0160405161174d9190612601565b5f604051808303815f865af19150503d805f8114611786576040519150601f19603f3d011682016040523d82523d5f602084013e61178b565b606091505b50509050806117cf576040517f08c379a00000000000000000000000000000000000000000000000000000000081526004016117c690612661565b60405180910390fd5b823373ffffffffffffffffffffffffffffffffffffffff167f5445f318f4f5fcfb66592e68e0cc5822aa15664039bd5f0ffde24c5a8142b1ac60405160405180910390a350505050565b5f81519050919050565b5f82825260208201905092915050565b5f819050602082019050919050565b5f73ffffffffffffffffffffffffffffffffffffffff82169050919050565b5f61186b82611842565b9050919050565b61187b81611861565b82525050565b5f61188c8383611872565b60208301905092915050565b5f602082019050919050565b5f6118ae82611819565b6118b88185611823565b93506118c383611833565b805f5b838110156118f35781516118da8882611881565b97506118e583611898565b9250506001810190506118c6565b5085935050505092915050565b5f6020820190508181035f83015261191881846118a4565b905092915050565b5f5ffd5b5f819050919050565b61193681611924565b8114611940575f5ffd5b50565b5f813590506119518161192d565b92915050565b5f6020828403121561196c5761196b611920565b5b5f61197984828501611943565b91505092915050565b5f5f6040838503121561199857611997611920565b5b5f6119a585828601611943565b92505060206119b685828601611943565b9150509250929050565b6119c981611924565b82525050565b5f6020820190506119e25f8301846119c0565b92915050565b6119f181611861565b81146119fb575f5ffd5b50565b5f81359050611a0c816119e8565b92915050565b5f60208284031215611a2757611a26611920565b5b5f611a34848285016119fe565b91505092915050565b5f81519050919050565b5f82825260208201905092915050565b5f819050602082019050919050565b5f81519050919050565b5f82825260208201905092915050565b8281835e5f83830152505050565b5f601f19601f8301169050919050565b5f611aa882611a66565b611ab28185611a70565b9350611ac2818560208601611a80565b611acb81611a8e565b840191505092915050565b5f8115159050919050565b611aea81611ad6565b82525050565b5f606083015f8301518482035f860152611b0a8282611a9e565b9150506020830151611b1f6020860182611ae1565b506040830151611b326040860182611ae1565b508091505092915050565b5f611b488383611af0565b905092915050565b5f602082019050919050565b5f611b6682611a3d565b611b708185611a47565b935083602082028501611b8285611a57565b805f5b85811015611bbd5784840389528151611b9e8582611b3d565b9450611ba983611b50565b925060208a01995050600181019050611b85565b50829750879550505050505092915050565b5f6020820190508181035f830152611be78184611b5c565b905092915050565b611bf881611861565b82525050565b5f602082019050611c115f830184611bef565b92915050565b611c2081611ad6565b82525050565b5f602082019050611c395f830184611c17565b92915050565b5f82825260208201905092915050565b7f4f6e6c79207468652061646d696e6973747261746f722063616e2075736500005f82015250565b5f611c83601e83611c3f565b9150611c8e82611c4f565b602082019050919050565b5f6020820190508181035f830152611cb081611c77565b9050919050565b7f4e487b71000000000000000000000000000000000000000000000000000000005f52601160045260245ffd5b5f611cee82611924565b9150611cf983611924565b9250828202611d0781611924565b91508282048414831517611d1e57611d1d611cb7565b5b5092915050565b7f496e76616c696420646179732c206d7573742062652033302c203630206f72205f8201527f3930000000000000000000000000000000000000000000000000000000000000602082015250565b5f611d7f602283611c3f565b9150611d8a82611d25565b604082019050919050565b5f6020820190508181035f830152611dac81611d73565b9050919050565b5f604082019050611dc65f830185611bef565b611dd360208301846119c0565b9392505050565b611de381611ad6565b8114611ded575f5ffd5b50565b5f81519050611dfe81611dda565b92915050565b5f60208284031215611e1957611e18611920565b5b5f611e2684828501611df0565b91505092915050565b7f5553445420617070726f7665206661696c6564000000000000000000000000005f82015250565b5f611e63601383611c3f565b9150611e6e82611e2f565b602082019050919050565b5f6020820190508181035f830152611e9081611e57565b9050919050565b5f81519050611ea58161192d565b92915050565b5f60208284031215611ec057611ebf611920565b5b5f611ecd84828501611e97565b91505092915050565b7f4e487b71000000000000000000000000000000000000000000000000000000005f52602260045260245ffd5b5f6002820490506001821680611f1a57607f821691505b602082108103611f2d57611f2c611ed6565b5b50919050565b5f606082019050611f465f830186611bef565b611f536020830185611bef565b611f6060408301846119c0565b949350505050565b7f55534454207472616e73666572206661696c65640000000000000000000000005f82015250565b5f611f9c601483611c3f565b9150611fa782611f68565b602082019050919050565b5f6020820190508181035f830152611fc981611f90565b9050919050565b7f496e76616c6964207472616e73616374696f6e20696e646578000000000000005f82015250565b5f612004601983611c3f565b915061200f82611fd0565b602082019050919050565b5f6020820190508181035f83015261203181611ff8565b9050919050565b7f4e487b71000000000000000000000000000000000000000000000000000000005f52603260045260245ffd5b7f5472616e73616374696f6e206e6f7420657865637574656400000000000000005f82015250565b5f612099601883611c3f565b91506120a482612065565b602082019050919050565b5f6020820190508181035f8301526120c68161208d565b9050919050565b7f5472616e73616374696f6e206e6f7420636f6e6669726d6564000000000000005f82015250565b5f612101601983611c3f565b915061210c826120cd565b602082019050919050565b5f6020820190508181035f83015261212e816120f5565b9050919050565b5f61213f82611924565b91505f820361215157612150611cb7565b5b600182039050919050565b7f4e487b71000000000000000000000000000000000000000000000000000000005f52604160045260245ffd5b5f819050815f5260205f209050919050565b5f6020601f8301049050919050565b5f82821b905092915050565b5f600883026121e57fffffffffffffffffffffffffffffffffffffffffffffffffffffffffffffffff826121aa565b6121ef86836121aa565b95508019841693508086168417925050509392505050565b5f819050919050565b5f61222a61222561222084611924565b612207565b611924565b9050919050565b5f819050919050565b61224383612210565b61225761224f82612231565b8484546121b6565b825550505050565b5f5f905090565b61226e61225f565b61227981848461223a565b505050565b5b8181101561229c576122915f82612266565b60018101905061227f565b5050565b601f8211156122e1576122b281612189565b6122bb8461219b565b810160208510156122ca578190505b6122de6122d68561219b565b83018261227e565b50505b505050565b5f82821c905092915050565b5f6123015f19846008026122e6565b1980831691505092915050565b5f61231983836122f2565b9150826002028217905092915050565b61233282611a66565b67ffffffffffffffff81111561234b5761234a61215c565b5b6123558254611f03565b6123608282856122a0565b5f60209050601f831160018114612391575f841561237f578287015190505b612389858261230e565b8655506123f0565b601f19841661239f86612189565b5f5b828110156123c6578489015182556001820191506020850194506020810190506123a1565b868310156123e357848901516123df601f8916826122f2565b8355505b6001600288020188555050505b505050505050565b5f82825260208201905092915050565b5f61241282611a66565b61241c81856123f8565b935061242c818560208601611a80565b61243581611a8e565b840191505092915050565b5f6020820190508181035f8301526124588184612408565b905092915050565b7f5472616e73616374696f6e20616c726561647920636f6e6669726d65640000005f82015250565b5f612494601d83611c3f565b915061249f82612460565b602082019050919050565b5f6020820190508181035f8301526124c181612488565b9050919050565b5f6124d282611924565b91507fffffffffffffffffffffffffffffffffffffffffffffffffffffffffffffffff820361250457612503611cb7565b5b600182019050919050565b7f5472616e73616374696f6e20616c7265616479206578656375746564000000005f82015250565b5f612543601c83611c3f565b915061254e8261250f565b602082019050919050565b5f6020820190508181035f83015261257081612537565b9050919050565b5f81905092915050565b5f815461258d81611f03565b6125978186612577565b9450600182165f81146125b157600181146125c6576125f8565b60ff19831686528115158202860193506125f8565b6125cf85612189565b5f5b838110156125f0578154818901526001820191506020810190506125d1565b838801955050505b50505092915050565b5f61260c8284612581565b915081905092915050565b7f5472616e73616374696f6e20657865637574696f6e206661696c6564000000005f82015250565b5f61264b601c83611c3f565b915061265682612617565b602082019050919050565b5f6020820190508181035f8301526126788161263f565b905091905056fea2646970667358221220fdc56ad2380b66a5f8e81a05c82d32dc379ab9377b7951a7b4f525a338a6a89f64736f6c634300081b0033",
					"opcodes": "PUSH1 0x80 PUSH1 0x40 MSTORE PUSH0 PUSH1 0x1 SSTORE PUSH0 PUSH1 0x2 PUSH0 PUSH2 0x100 EXP DUP2 SLOAD DUP2 PUSH1 0xFF MUL NOT AND SWAP1 DUP4 ISZERO ISZERO MUL OR SWAP1 SSTORE POP CALLVALUE DUP1 ISZERO PUSH2 0x2C JUMPI PUSH0 PUSH0 REVERT JUMPDEST POP PUSH1 0x40 MLOAD PUSH2 0x2BC2 CODESIZE SUB DUP1 PUSH2 0x2BC2 DUP4 CODECOPY DUP2 DUP2 ADD PUSH1 0x40 MSTORE DUP2 ADD SWAP1 PUSH2 0x4E SWAP2 SWAP1 PUSH2 0x42B JUMP JUMPDEST CALLER PUSH1 0x2 PUSH1 0x1 PUSH2 0x100 EXP DUP2 SLOAD DUP2 PUSH20 0xFFFFFFFFFFFFFFFFFFFFFFFFFFFFFFFFFFFFFFFF MUL NOT AND SWAP1 DUP4 PUSH20 0xFFFFFFFFFFFFFFFFFFFFFFFFFFFFFFFFFFFFFFFF AND MUL OR SWAP1 SSTORE POP PUSH20 0x8B801270F3E02EA2AACCF134333D5E5A019EFF42 PUSH1 0xA PUSH0 PUSH2 0x100 EXP DUP2 SLOAD DUP2 PUSH20 0xFFFFFFFFFFFFFFFFFFFFFFFFFFFFFFFFFFFFFFFF MUL NOT AND SWAP1 DUP4 PUSH20 0xFFFFFFFFFFFFFFFFFFFFFFFFFFFFFFFFFFFFFFFF AND MUL OR SWAP1 SSTORE POP DUP1 MLOAD PUSH0 DUP2 SWAP1 SSTORE POP PUSH0 PUSH0 SWAP1 POP JUMPDEST PUSH0 SLOAD DUP2 PUSH1 0xFF AND LT ISZERO PUSH2 0x269 JUMPI PUSH1 0x5 PUSH0 DUP4 DUP4 PUSH1 0xFF AND DUP2 MLOAD DUP2 LT PUSH2 0x114 JUMPI PUSH2 0x113 PUSH2 0x472 JUMP JUMPDEST JUMPDEST PUSH1 0x20 MUL PUSH1 0x20 ADD ADD MLOAD PUSH20 0xFFFFFFFFFFFFFFFFFFFFFFFFFFFFFFFFFFFFFFFF AND PUSH20 0xFFFFFFFFFFFFFFFFFFFFFFFFFFFFFFFFFFFFFFFF AND DUP2 MSTORE PUSH1 0x20 ADD SWAP1 DUP2 MSTORE PUSH1 0x20 ADD PUSH0 KECCAK256 PUSH0 SWAP1 SLOAD SWAP1 PUSH2 0x100 EXP SWAP1 DIV PUSH1 0xFF AND PUSH2 0x256 JUMPI PUSH1 0x3 DUP3 DUP3 PUSH1 0xFF AND DUP2 MLOAD DUP2 LT PUSH2 0x17E JUMPI PUSH2 0x17D PUSH2 0x472 JUMP JUMPDEST JUMPDEST PUSH1 0x20 MUL PUSH1 0x20 ADD ADD MLOAD SWAP1 DUP1 PUSH1 0x1 DUP2 SLOAD ADD DUP1 DUP3 SSTORE DUP1 SWAP2 POP POP PUSH1 0x1 SWAP1 SUB SWAP1 PUSH0 MSTORE PUSH1 0x20 PUSH0 KECCAK256 ADD PUSH0 SWAP1 SWAP2 SWAP1 SWAP2 SWAP1 SWAP2 PUSH2 0x100 EXP DUP2 SLOAD DUP2 PUSH20 0xFFFFFFFFFFFFFFFFFFFFFFFFFFFFFFFFFFFFFFFF MUL NOT AND SWAP1 DUP4 PUSH20 0xFFFFFFFFFFFFFFFFFFFFFFFFFFFFFFFFFFFFFFFF AND MUL OR SWAP1 SSTORE POP PUSH1 0x1 PUSH1 0x5 PUSH0 DUP5 DUP5 PUSH1 0xFF AND DUP2 MLOAD DUP2 LT PUSH2 0x1FE JUMPI PUSH2 0x1FD PUSH2 0x472 JUMP JUMPDEST JUMPDEST PUSH1 0x20 MUL PUSH1 0x20 ADD ADD MLOAD PUSH20 0xFFFFFFFFFFFFFFFFFFFFFFFFFFFFFFFFFFFFFFFF AND PUSH20 0xFFFFFFFFFFFFFFFFFFFFFFFFFFFFFFFFFFFFFFFF AND DUP2 MSTORE PUSH1 0x20 ADD SWAP1 DUP2 MSTORE PUSH1 0x20 ADD PUSH0 KECCAK256 PUSH0 PUSH2 0x100 EXP DUP2 SLOAD DUP2 PUSH1 0xFF MUL NOT AND SWAP1 DUP4 ISZERO ISZERO MUL OR SWAP1 SSTORE POP JUMPDEST DUP1 DUP1 PUSH2 0x261 SWAP1 PUSH2 0x4D8 JUMP JUMPDEST SWAP2 POP POP PUSH2 0xEF JUMP JUMPDEST POP POP PUSH2 0x500 JUMP JUMPDEST PUSH0 PUSH1 0x40 MLOAD SWAP1 POP SWAP1 JUMP JUMPDEST PUSH0 PUSH0 REVERT JUMPDEST PUSH0 PUSH0 REVERT JUMPDEST PUSH0 PUSH0 REVERT JUMPDEST PUSH0 PUSH1 0x1F NOT PUSH1 0x1F DUP4 ADD AND SWAP1 POP SWAP2 SWAP1 POP JUMP JUMPDEST PUSH32 0x4E487B7100000000000000000000000000000000000000000000000000000000 PUSH0 MSTORE PUSH1 0x41 PUSH1 0x4 MSTORE PUSH1 0x24 PUSH0 REVERT JUMPDEST PUSH2 0x2CB DUP3 PUSH2 0x285 JUMP JUMPDEST DUP2 ADD DUP2 DUP2 LT PUSH8 0xFFFFFFFFFFFFFFFF DUP3 GT OR ISZERO PUSH2 0x2EA JUMPI PUSH2 0x2E9 PUSH2 0x295 JUMP JUMPDEST JUMPDEST DUP1 PUSH1 0x40 MSTORE POP POP POP JUMP JUMPDEST PUSH0 PUSH2 0x2FC PUSH2 0x270 JUMP JUMPDEST SWAP1 POP PUSH2 0x308 DUP3 DUP3 PUSH2 0x2C2 JUMP JUMPDEST SWAP2 SWAP1 POP JUMP JUMPDEST PUSH0 PUSH8 0xFFFFFFFFFFFFFFFF DUP3 GT ISZERO PUSH2 0x327 JUMPI PUSH2 0x326 PUSH2 0x295 JUMP JUMPDEST JUMPDEST PUSH1 0x20 DUP3 MUL SWAP1 POP PUSH1 0x20 DUP2 ADD SWAP1 POP SWAP2 SWAP1 POP JUMP JUMPDEST PUSH0 PUSH0 REVERT JUMPDEST PUSH0 PUSH20 0xFFFFFFFFFFFFFFFFFFFFFFFFFFFFFFFFFFFFFFFF DUP3 AND SWAP1 POP SWAP2 SWAP1 POP JUMP JUMPDEST PUSH0 PUSH2 0x365 DUP3 PUSH2 0x33C JUMP JUMPDEST SWAP1 POP SWAP2 SWAP1 POP JUMP JUMPDEST PUSH2 0x375 DUP2 PUSH2 0x35B JUMP JUMPDEST DUP2 EQ PUSH2 0x37F JUMPI PUSH0 PUSH0 REVERT JUMPDEST POP JUMP JUMPDEST PUSH0 DUP2 MLOAD SWAP1 POP PUSH2 0x390 DUP2 PUSH2 0x36C JUMP JUMPDEST SWAP3 SWAP2 POP POP JUMP JUMPDEST PUSH0 PUSH2 0x3A8 PUSH2 0x3A3 DUP5 PUSH2 0x30D JUMP JUMPDEST PUSH2 0x2F3 JUMP JUMPDEST SWAP1 POP DUP1 DUP4 DUP3 MSTORE PUSH1 0x20 DUP3 ADD SWAP1 POP PUSH1 0x20 DUP5 MUL DUP4 ADD DUP6 DUP2 GT ISZERO PUSH2 0x3CB JUMPI PUSH2 0x3CA PUSH2 0x338 JUMP JUMPDEST JUMPDEST DUP4 JUMPDEST DUP2 DUP2 LT ISZERO PUSH2 0x3F4 JUMPI DUP1 PUSH2 0x3E0 DUP9 DUP3 PUSH2 0x382 JUMP JUMPDEST DUP5 MSTORE PUSH1 0x20 DUP5 ADD SWAP4 POP POP PUSH1 0x20 DUP2 ADD SWAP1 POP PUSH2 0x3CD JUMP JUMPDEST POP POP POP SWAP4 SWAP3 POP POP POP JUMP JUMPDEST PUSH0 DUP3 PUSH1 0x1F DUP4 ADD SLT PUSH2 0x412 JUMPI PUSH2 0x411 PUSH2 0x281 JUMP JUMPDEST JUMPDEST DUP2 MLOAD PUSH2 0x422 DUP5 DUP3 PUSH1 0x20 DUP7 ADD PUSH2 0x396 JUMP JUMPDEST SWAP2 POP POP SWAP3 SWAP2 POP POP JUMP JUMPDEST PUSH0 PUSH1 0x20 DUP3 DUP5 SUB SLT ISZERO PUSH2 0x440 JUMPI PUSH2 0x43F PUSH2 0x279 JUMP JUMPDEST JUMPDEST PUSH0 DUP3 ADD MLOAD PUSH8 0xFFFFFFFFFFFFFFFF DUP2 GT ISZERO PUSH2 0x45D JUMPI PUSH2 0x45C PUSH2 0x27D JUMP JUMPDEST JUMPDEST PUSH2 0x469 DUP5 DUP3 DUP6 ADD PUSH2 0x3FE JUMP JUMPDEST SWAP2 POP POP SWAP3 SWAP2 POP POP JUMP JUMPDEST PUSH32 0x4E487B7100000000000000000000000000000000000000000000000000000000 PUSH0 MSTORE PUSH1 0x32 PUSH1 0x4 MSTORE PUSH1 0x24 PUSH0 REVERT JUMPDEST PUSH32 0x4E487B7100000000000000000000000000000000000000000000000000000000 PUSH0 MSTORE PUSH1 0x11 PUSH1 0x4 MSTORE PUSH1 0x24 PUSH0 REVERT JUMPDEST PUSH0 PUSH1 0xFF DUP3 AND SWAP1 POP SWAP2 SWAP1 POP JUMP JUMPDEST PUSH0 PUSH2 0x4E2 DUP3 PUSH2 0x4CC JUMP JUMPDEST SWAP2 POP PUSH1 0xFF DUP3 SUB PUSH2 0x4F5 JUMPI PUSH2 0x4F4 PUSH2 0x49F JUMP JUMPDEST JUMPDEST PUSH1 0x1 DUP3 ADD SWAP1 POP SWAP2 SWAP1 POP JUMP JUMPDEST PUSH2 0x26B5 DUP1 PUSH2 0x50D PUSH0 CODECOPY PUSH0 RETURN INVALID PUSH1 0x80 PUSH1 0x40 MSTORE CALLVALUE DUP1 ISZERO PUSH2 0xF JUMPI PUSH0 PUSH0 REVERT JUMPDEST POP PUSH1 0x4 CALLDATASIZE LT PUSH2 0xE8 JUMPI PUSH0 CALLDATALOAD PUSH1 0xE0 SHR DUP1 PUSH4 0x83920E90 GT PUSH2 0x8A JUMPI DUP1 PUSH4 0xA6C41B4D GT PUSH2 0x64 JUMPI DUP1 PUSH4 0xA6C41B4D EQ PUSH2 0x224 JUMPI DUP1 PUSH4 0xA75E1ECF EQ PUSH2 0x240 JUMPI DUP1 PUSH4 0xAAD0E6EB EQ PUSH2 0x25E JUMPI DUP1 PUSH4 0xC01A8C84 EQ PUSH2 0x268 JUMPI PUSH2 0xE8 JUMP JUMPDEST DUP1 PUSH4 0x83920E90 EQ PUSH2 0x1DE JUMPI DUP1 PUSH4 0x84C02BA9 EQ PUSH2 0x1FC JUMPI DUP1 PUSH4 0x893D20E8 EQ PUSH2 0x206 JUMPI PUSH2 0xE8 JUMP JUMPDEST DUP1 PUSH4 0x4ECF43A0 GT PUSH2 0xC6 JUMPI DUP1 PUSH4 0x4ECF43A0 EQ PUSH2 0x156 JUMPI DUP1 PUSH4 0x581592F1 EQ PUSH2 0x172 JUMPI DUP1 PUSH4 0x60523440 EQ PUSH2 0x190 JUMPI DUP1 PUSH4 0x838CBE52 EQ PUSH2 0x1AE JUMPI PUSH2 0xE8 JUMP JUMPDEST DUP1 PUSH4 0x16967407 EQ PUSH2 0xEC JUMPI DUP1 PUSH4 0x20EA8D86 EQ PUSH2 0x10A JUMPI DUP1 PUSH4 0x3B211C4C EQ PUSH2 0x126 JUMPI JUMPDEST PUSH0 PUSH0 REVERT JUMPDEST PUSH2 0xF4 PUSH2 0x284 JUMP JUMPDEST PUSH1 0x40 MLOAD PUSH2 0x101 SWAP2 SWAP1 PUSH2 0x1900 JUMP JUMPDEST PUSH1 0x40 MLOAD DUP1 SWAP2 SUB SWAP1 RETURN JUMPDEST PUSH2 0x124 PUSH1 0x4 DUP1 CALLDATASIZE SUB DUP2 ADD SWAP1 PUSH2 0x11F SWAP2 SWAP1 PUSH2 0x1957 JUMP JUMPDEST PUSH2 0x398 JUMP JUMPDEST STOP JUMPDEST PUSH2 0x140 PUSH1 0x4 DUP1 CALLDATASIZE SUB DUP2 ADD SWAP1 PUSH2 0x13B SWAP2 SWAP1 PUSH2 0x1982 JUMP JUMPDEST PUSH2 0x433 JUMP JUMPDEST PUSH1 0x40 MLOAD PUSH2 0x14D SWAP2 SWAP1 PUSH2 0x19CF JUMP JUMPDEST PUSH1 0x40 MLOAD DUP1 SWAP2 SUB SWAP1 RETURN JUMPDEST PUSH2 0x170 PUSH1 0x4 DUP1 CALLDATASIZE SUB DUP2 ADD SWAP1 PUSH2 0x16B SWAP2 SWAP1 PUSH2 0x1957 JUMP JUMPDEST PUSH2 0x621 JUMP JUMPDEST STOP JUMPDEST PUSH2 0x17A PUSH2 0x747 JUMP JUMPDEST PUSH1 0x40 MLOAD PUSH2 0x187 SWAP2 SWAP1 PUSH2 0x19CF JUMP JUMPDEST PUSH1 0x40 MLOAD DUP1 SWAP2 SUB SWAP1 RETURN JUMPDEST PUSH2 0x198 PUSH2 0x7EB JUMP JUMPDEST PUSH1 0x40 MLOAD PUSH2 0x1A5 SWAP2 SWAP1 PUSH2 0x19CF JUMP JUMPDEST PUSH1 0x40 MLOAD DUP1 SWAP2 SUB SWAP1 RETURN JUMPDEST PUSH2 0x1C8 PUSH1 0x4 DUP1 CALLDATASIZE SUB DUP2 ADD SWAP1 PUSH2 0x1C3 SWAP2 SWAP1 PUSH2 0x1A12 JUMP JUMPDEST PUSH2 0x87C JUMP JUMPDEST PUSH1 0x40 MLOAD PUSH2 0x1D5 SWAP2 SWAP1 PUSH2 0x19CF JUMP JUMPDEST PUSH1 0x40 MLOAD DUP1 SWAP2 SUB SWAP1 RETURN JUMPDEST PUSH2 0x1E6 PUSH2 0x9AD JUMP JUMPDEST PUSH1 0x40 MLOAD PUSH2 0x1F3 SWAP2 SWAP1 PUSH2 0x1BCF JUMP JUMPDEST PUSH1 0x40 MLOAD DUP1 SWAP2 SUB SWAP1 RETURN JUMPDEST PUSH2 0x204 PUSH2 0xB56 JUMP JUMPDEST STOP JUMPDEST PUSH2 0x20E PUSH2 0xC09 JUMP JUMPDEST PUSH1 0x40 MLOAD PUSH2 0x21B SWAP2 SWAP1 PUSH2 0x1BFE JUMP JUMPDEST PUSH1 0x40 MLOAD DUP1 SWAP2 SUB SWAP1 RETURN JUMPDEST PUSH2 0x23E PUSH1 0x4 DUP1 CALLDATASIZE SUB DUP2 ADD SWAP1 PUSH2 0x239 SWAP2 SWAP1 PUSH2 0x1957 JUMP JUMPDEST PUSH2 0xCBB JUMP JUMPDEST STOP JUMPDEST PUSH2 0x248 PUSH2 0xE74 JUMP JUMPDEST PUSH1 0x40 MLOAD PUSH2 0x255 SWAP2 SWAP1 PUSH2 0x1C26 JUMP JUMPDEST PUSH1 0x40 MLOAD DUP1 SWAP2 SUB SWAP1 RETURN JUMPDEST PUSH2 0x266 PUSH2 0xF12 JUMP JUMPDEST STOP JUMPDEST PUSH2 0x282 PUSH1 0x4 DUP1 CALLDATASIZE SUB DUP2 ADD SWAP1 PUSH2 0x27D SWAP2 SWAP1 PUSH2 0x1957 JUMP JUMPDEST PUSH2 0x10F9 JUMP JUMPDEST STOP JUMPDEST PUSH1 0x60 PUSH1 0x5 PUSH0 CALLER PUSH20 0xFFFFFFFFFFFFFFFFFFFFFFFFFFFFFFFFFFFFFFFF AND PUSH20 0xFFFFFFFFFFFFFFFFFFFFFFFFFFFFFFFFFFFFFFFF AND DUP2 MSTORE PUSH1 0x20 ADD SWAP1 DUP2 MSTORE PUSH1 0x20 ADD PUSH0 KECCAK256 PUSH0 SWAP1 SLOAD SWAP1 PUSH2 0x100 EXP SWAP1 DIV PUSH1 0xFF AND PUSH2 0x30F JUMPI PUSH1 0x40 MLOAD PUSH32 0x8C379A000000000000000000000000000000000000000000000000000000000 DUP2 MSTORE PUSH1 0x4 ADD PUSH2 0x306 SWAP1 PUSH2 0x1C99 JUMP JUMPDEST PUSH1 0x40 MLOAD DUP1 SWAP2 SUB SWAP1 REVERT JUMPDEST PUSH1 0x3 DUP1 SLOAD DUP1 PUSH1 0x20 MUL PUSH1 0x20 ADD PUSH1 0x40 MLOAD SWAP1 DUP2 ADD PUSH1 0x40 MSTORE DUP1 SWAP3 SWAP2 SWAP1 DUP2 DUP2 MSTORE PUSH1 0x20 ADD DUP3 DUP1 SLOAD DUP1 ISZERO PUSH2 0x38E JUMPI PUSH1 0x20 MUL DUP3 ADD SWAP2 SWAP1 PUSH0 MSTORE PUSH1 0x20 PUSH0 KECCAK256 SWAP1 JUMPDEST DUP2 PUSH0 SWAP1 SLOAD SWAP1 PUSH2 0x100 EXP SWAP1 DIV PUSH20 0xFFFFFFFFFFFFFFFFFFFFFFFFFFFFFFFFFFFFFFFF AND PUSH20 0xFFFFFFFFFFFFFFFFFFFFFFFFFFFFFFFFFFFFFFFF AND DUP2 MSTORE PUSH1 0x20 ADD SWAP1 PUSH1 0x1 ADD SWAP1 DUP1 DUP4 GT PUSH2 0x345 JUMPI JUMPDEST POP POP POP POP POP SWAP1 POP SWAP1 JUMP JUMPDEST PUSH1 0x5 PUSH0 CALLER PUSH20 0xFFFFFFFFFFFFFFFFFFFFFFFFFFFFFFFFFFFFFFFF AND PUSH20 0xFFFFFFFFFFFFFFFFFFFFFFFFFFFFFFFFFFFFFFFF AND DUP2 MSTORE PUSH1 0x20 ADD SWAP1 DUP2 MSTORE PUSH1 0x20 ADD PUSH0 KECCAK256 PUSH0 SWAP1 SLOAD SWAP1 PUSH2 0x100 EXP SWAP1 DIV PUSH1 0xFF AND PUSH2 0x421 JUMPI PUSH1 0x40 MLOAD PUSH32 0x8C379A000000000000000000000000000000000000000000000000000000000 DUP2 MSTORE PUSH1 0x4 ADD PUSH2 0x418 SWAP1 PUSH2 0x1C99 JUMP JUMPDEST PUSH1 0x40 MLOAD DUP1 SWAP2 SUB SWAP1 REVERT JUMPDEST PUSH2 0x430 PUSH1 0x4 PUSH1 0x7 PUSH1 0x6 DUP5 PUSH2 0x1196 JUMP JUMPDEST POP JUMP JUMPDEST PUSH0 PUSH0 PUSH1 0x1E DUP4 SUB PUSH2 0x475 JUMPI PUSH2 0x3E8 PUSH1 0xF PUSH1 0x6 DUP6 DUP8 PUSH2 0x450 SWAP2 SWAP1 PUSH2 0x1CE4 JUMP JUMPDEST PUSH2 0x45A SWAP2 SWAP1 PUSH2 0x1CE4 JUMP JUMPDEST PUSH2 0x464 SWAP2 SWAP1 PUSH2 0x1CE4 JUMP JUMPDEST PUSH2 0x46E SWAP2 SWAP1 PUSH2 0x1CE4 JUMP JUMPDEST SWAP1 POP PUSH2 0x537 JUMP JUMPDEST PUSH1 0x3C DUP4 SUB PUSH2 0x4B5 JUMPI PUSH2 0x3E8 PUSH1 0xD PUSH1 0x6 DUP6 DUP8 PUSH2 0x490 SWAP2 SWAP1 PUSH2 0x1CE4 JUMP JUMPDEST PUSH2 0x49A SWAP2 SWAP1 PUSH2 0x1CE4 JUMP JUMPDEST PUSH2 0x4A4 SWAP2 SWAP1 PUSH2 0x1CE4 JUMP JUMPDEST PUSH2 0x4AE SWAP2 SWAP1 PUSH2 0x1CE4 JUMP JUMPDEST SWAP1 POP PUSH2 0x536 JUMP JUMPDEST PUSH1 0x5A DUP4 SUB PUSH2 0x4F4 JUMPI PUSH1 0x64 PUSH1 0x7D PUSH1 0x6 DUP6 DUP8 PUSH2 0x4CF SWAP2 SWAP1 PUSH2 0x1CE4 JUMP JUMPDEST PUSH2 0x4D9 SWAP2 SWAP1 PUSH2 0x1CE4 JUMP JUMPDEST PUSH2 0x4E3 SWAP2 SWAP1 PUSH2 0x1CE4 JUMP JUMPDEST PUSH2 0x4ED SWAP2 SWAP1 PUSH2 0x1CE4 JUMP JUMPDEST SWAP1 POP PUSH2 0x535 JUMP JUMPDEST PUSH0 PUSH2 0x534 JUMPI PUSH1 0x40 MLOAD PUSH32 0x8C379A000000000000000000000000000000000000000000000000000000000 DUP2 MSTORE PUSH1 0x4 ADD PUSH2 0x52B SWAP1 PUSH2 0x1D95 JUMP JUMPDEST PUSH1 0x40 MLOAD DUP1 SWAP2 SUB SWAP1 REVERT JUMPDEST JUMPDEST JUMPDEST JUMPDEST PUSH0 PUSH1 0xA PUSH0 SWAP1 SLOAD SWAP1 PUSH2 0x100 EXP SWAP1 DIV PUSH20 0xFFFFFFFFFFFFFFFFFFFFFFFFFFFFFFFFFFFFFFFF AND PUSH20 0xFFFFFFFFFFFFFFFFFFFFFFFFFFFFFFFFFFFFFFFF AND PUSH4 0x95EA7B3 CALLER DUP5 PUSH1 0x40 MLOAD DUP4 PUSH4 0xFFFFFFFF AND PUSH1 0xE0 SHL DUP2 MSTORE PUSH1 0x4 ADD PUSH2 0x594 SWAP3 SWAP2 SWAP1 PUSH2 0x1DB3 JUMP JUMPDEST PUSH1 0x20 PUSH1 0x40 MLOAD DUP1 DUP4 SUB DUP2 PUSH0 DUP8 GAS CALL ISZERO DUP1 ISZERO PUSH2 0x5B0 JUMPI RETURNDATASIZE PUSH0 PUSH0 RETURNDATACOPY RETURNDATASIZE PUSH0 REVERT JUMPDEST POP POP POP POP PUSH1 0x40 MLOAD RETURNDATASIZE PUSH1 0x1F NOT PUSH1 0x1F DUP3 ADD AND DUP3 ADD DUP1 PUSH1 0x40 MSTORE POP DUP2 ADD SWAP1 PUSH2 0x5D4 SWAP2 SWAP1 PUSH2 0x1E04 JUMP JUMPDEST SWAP1 POP DUP1 PUSH2 0x616 JUMPI PUSH1 0x40 MLOAD PUSH32 0x8C379A000000000000000000000000000000000000000000000000000000000 DUP2 MSTORE PUSH1 0x4 ADD PUSH2 0x60D SWAP1 PUSH2 0x1E79 JUMP JUMPDEST PUSH1 0x40 MLOAD DUP1 SWAP2 SUB SWAP1 REVERT JUMPDEST DUP2 SWAP3 POP POP POP SWAP3 SWAP2 POP POP JUMP JUMPDEST PUSH1 0x5 PUSH0 CALLER PUSH20 0xFFFFFFFFFFFFFFFFFFFFFFFFFFFFFFFFFFFFFFFF AND PUSH20 0xFFFFFFFFFFFFFFFFFFFFFFFFFFFFFFFFFFFFFFFF AND DUP2 MSTORE PUSH1 0x20 ADD SWAP1 DUP2 MSTORE PUSH1 0x20 ADD PUSH0 KECCAK256 PUSH0 SWAP1 SLOAD SWAP1 PUSH2 0x100 EXP SWAP1 DIV PUSH1 0xFF AND PUSH2 0x6AA JUMPI PUSH1 0x40 MLOAD PUSH32 0x8C379A000000000000000000000000000000000000000000000000000000000 DUP2 MSTORE PUSH1 0x4 ADD PUSH2 0x6A1 SWAP1 PUSH2 0x1C99 JUMP JUMPDEST PUSH1 0x40 MLOAD DUP1 SWAP2 SUB SWAP1 REVERT JUMPDEST PUSH2 0x744 PUSH1 0x4 DUP3 PUSH1 0x40 MLOAD PUSH1 0x24 ADD PUSH2 0x6C0 SWAP2 SWAP1 PUSH2 0x19CF JUMP JUMPDEST PUSH1 0x40 MLOAD PUSH1 0x20 DUP2 DUP4 SUB SUB DUP2 MSTORE SWAP1 PUSH1 0x40 MSTORE PUSH32 0xA57DFB800000000000000000000000000000000000000000000000000000000 PUSH28 0xFFFFFFFFFFFFFFFFFFFFFFFFFFFFFFFFFFFFFFFFFFFFFFFFFFFFFFFF NOT AND PUSH1 0x20 DUP3 ADD DUP1 MLOAD PUSH28 0xFFFFFFFFFFFFFFFFFFFFFFFFFFFFFFFFFFFFFFFFFFFFFFFFFFFFFFFF DUP4 DUP2 DUP4 AND OR DUP4 MSTORE POP POP POP POP PUSH1 0x1 PUSH2 0x13B2 JUMP JUMPDEST POP JUMP JUMPDEST PUSH0 PUSH0 PUSH1 0xA PUSH0 SWAP1 SLOAD SWAP1 PUSH2 0x100 EXP SWAP1 DIV PUSH20 0xFFFFFFFFFFFFFFFFFFFFFFFFFFFFFFFFFFFFFFFF AND PUSH20 0xFFFFFFFFFFFFFFFFFFFFFFFFFFFFFFFFFFFFFFFF AND PUSH4 0x70A08231 CALLER PUSH1 0x40 MLOAD DUP3 PUSH4 0xFFFFFFFF AND PUSH1 0xE0 SHL DUP2 MSTORE PUSH1 0x4 ADD PUSH2 0x7A3 SWAP2 SWAP1 PUSH2 0x1BFE JUMP JUMPDEST PUSH1 0x20 PUSH1 0x40 MLOAD DUP1 DUP4 SUB DUP2 DUP7 GAS STATICCALL ISZERO DUP1 ISZERO PUSH2 0x7BE JUMPI RETURNDATASIZE PUSH0 PUSH0 RETURNDATACOPY RETURNDATASIZE PUSH0 REVERT JUMPDEST POP POP POP POP PUSH1 0x40 MLOAD RETURNDATASIZE PUSH1 0x1F NOT PUSH1 0x1F DUP3 ADD AND DUP3 ADD DUP1 PUSH1 0x40 MSTORE POP DUP2 ADD SWAP1 PUSH2 0x7E2 SWAP2 SWAP1 PUSH2 0x1EAB JUMP JUMPDEST SWAP1 POP DUP1 SWAP2 POP POP SWAP1 JUMP JUMPDEST PUSH0 PUSH1 0x5 PUSH0 CALLER PUSH20 0xFFFFFFFFFFFFFFFFFFFFFFFFFFFFFFFFFFFFFFFF AND PUSH20 0xFFFFFFFFFFFFFFFFFFFFFFFFFFFFFFFFFFFFFFFF AND DUP2 MSTORE PUSH1 0x20 ADD SWAP1 DUP2 MSTORE PUSH1 0x20 ADD PUSH0 KECCAK256 PUSH0 SWAP1 SLOAD SWAP1 PUSH2 0x100 EXP SWAP1 DIV PUSH1 0xFF AND PUSH2 0x875 JUMPI PUSH1 0x40 MLOAD PUSH32 0x8C379A000000000000000000000000000000000000000000000000000000000 DUP2 MSTORE PUSH1 0x4 ADD PUSH2 0x86C SWAP1 PUSH2 0x1C99 JUMP JUMPDEST PUSH1 0x40 MLOAD DUP1 SWAP2 SUB SWAP1 REVERT JUMPDEST PUSH0 SLOAD SWAP1 POP SWAP1 JUMP JUMPDEST PUSH0 PUSH1 0x5 PUSH0 CALLER PUSH20 0xFFFFFFFFFFFFFFFFFFFFFFFFFFFFFFFFFFFFFFFF AND PUSH20 0xFFFFFFFFFFFFFFFFFFFFFFFFFFFFFFFFFFFFFFFF AND DUP2 MSTORE PUSH1 0x20 ADD SWAP1 DUP2 MSTORE PUSH1 0x20 ADD PUSH0 KECCAK256 PUSH0 SWAP1 SLOAD SWAP1 PUSH2 0x100 EXP SWAP1 DIV PUSH1 0xFF AND PUSH2 0x906 JUMPI PUSH1 0x40 MLOAD PUSH32 0x8C379A000000000000000000000000000000000000000000000000000000000 DUP2 MSTORE PUSH1 0x4 ADD PUSH2 0x8FD SWAP1 PUSH2 0x1C99 JUMP JUMPDEST PUSH1 0x40 MLOAD DUP1 SWAP2 SUB SWAP1 REVERT JUMPDEST PUSH2 0x9A0 PUSH1 0x4 DUP4 PUSH1 0x40 MLOAD PUSH1 0x24 ADD PUSH2 0x91C SWAP2 SWAP1 PUSH2 0x1BFE JUMP JUMPDEST PUSH1 0x40 MLOAD PUSH1 0x20 DUP2 DUP4 SUB SUB DUP2 MSTORE SWAP1 PUSH1 0x40 MSTORE PUSH32 0x13AF403500000000000000000000000000000000000000000000000000000000 PUSH28 0xFFFFFFFFFFFFFFFFFFFFFFFFFFFFFFFFFFFFFFFFFFFFFFFFFFFFFFFF NOT AND PUSH1 0x20 DUP3 ADD DUP1 MLOAD PUSH28 0xFFFFFFFFFFFFFFFFFFFFFFFFFFFFFFFFFFFFFFFFFFFFFFFFFFFFFFFF DUP4 DUP2 DUP4 AND OR DUP4 MSTORE POP POP POP POP PUSH1 0x1 PUSH2 0x13B2 JUMP JUMPDEST PUSH1 0x4 DUP1 SLOAD SWAP1 POP SWAP1 POP SWAP2 SWAP1 POP JUMP JUMPDEST PUSH1 0x60 PUSH1 0x5 PUSH0 CALLER PUSH20 0xFFFFFFFFFFFFFFFFFFFFFFFFFFFFFFFFFFFFFFFF AND PUSH20 0xFFFFFFFFFFFFFFFFFFFFFFFFFFFFFFFFFFFFFFFF AND DUP2 MSTORE PUSH1 0x20 ADD SWAP1 DUP2 MSTORE PUSH1 0x20 ADD PUSH0 KECCAK256 PUSH0 SWAP1 SLOAD SWAP1 PUSH2 0x100 EXP SWAP1 DIV PUSH1 0xFF AND PUSH2 0xA38 JUMPI PUSH1 0x40 MLOAD PUSH32 0x8C379A000000000000000000000000000000000000000000000000000000000 DUP2 MSTORE PUSH1 0x4 ADD PUSH2 0xA2F SWAP1 PUSH2 0x1C99 JUMP JUMPDEST PUSH1 0x40 MLOAD DUP1 SWAP2 SUB SWAP1 REVERT JUMPDEST PUSH1 0x4 DUP1 SLOAD DUP1 PUSH1 0x20 MUL PUSH1 0x20 ADD PUSH1 0x40 MLOAD SWAP1 DUP2 ADD PUSH1 0x40 MSTORE DUP1 SWAP3 SWAP2 SWAP1 DUP2 DUP2 MSTORE PUSH1 0x20 ADD PUSH0 SWAP1 JUMPDEST DUP3 DUP3 LT ISZERO PUSH2 0xB4D JUMPI DUP4 DUP3 SWAP1 PUSH0 MSTORE PUSH1 0x20 PUSH0 KECCAK256 SWAP1 PUSH1 0x2 MUL ADD PUSH1 0x40 MLOAD DUP1 PUSH1 0x60 ADD PUSH1 0x40 MSTORE SWAP1 DUP2 PUSH0 DUP3 ADD DUP1 SLOAD PUSH2 0xA89 SWAP1 PUSH2 0x1F03 JUMP JUMPDEST DUP1 PUSH1 0x1F ADD PUSH1 0x20 DUP1 SWAP2 DIV MUL PUSH1 0x20 ADD PUSH1 0x40 MLOAD SWAP1 DUP2 ADD PUSH1 0x40 MSTORE DUP1 SWAP3 SWAP2 SWAP1 DUP2 DUP2 MSTORE PUSH1 0x20 ADD DUP3 DUP1 SLOAD PUSH2 0xAB5 SWAP1 PUSH2 0x1F03 JUMP JUMPDEST DUP1 ISZERO PUSH2 0xB00 JUMPI DUP1 PUSH1 0x1F LT PUSH2 0xAD7 JUMPI PUSH2 0x100 DUP1 DUP4 SLOAD DIV MUL DUP4 MSTORE SWAP2 PUSH1 0x20 ADD SWAP2 PUSH2 0xB00 JUMP JUMPDEST DUP3 ADD SWAP2 SWAP1 PUSH0 MSTORE PUSH1 0x20 PUSH0 KECCAK256 SWAP1 JUMPDEST DUP2 SLOAD DUP2 MSTORE SWAP1 PUSH1 0x1 ADD SWAP1 PUSH1 0x20 ADD DUP1 DUP4 GT PUSH2 0xAE3 JUMPI DUP3 SWAP1 SUB PUSH1 0x1F AND DUP3 ADD SWAP2 JUMPDEST POP POP POP POP POP DUP2 MSTORE PUSH1 0x20 ADD PUSH1 0x1 DUP3 ADD PUSH0 SWAP1 SLOAD SWAP1 PUSH2 0x100 EXP SWAP1 DIV PUSH1 0xFF AND ISZERO ISZERO ISZERO ISZERO DUP2 MSTORE PUSH1 0x20 ADD PUSH1 0x1 DUP3 ADD PUSH1 0x1 SWAP1 SLOAD SWAP1 PUSH2 0x100 EXP SWAP1 DIV PUSH1 0xFF AND ISZERO ISZERO ISZERO ISZERO DUP2 MSTORE POP POP DUP2 MSTORE PUSH1 0x20 ADD SWAP1 PUSH1 0x1 ADD SWAP1 PUSH2 0xA59 JUMP JUMPDEST POP POP POP POP SWAP1 POP SWAP1 JUMP JUMPDEST PUSH1 0x5 PUSH0 CALLER PUSH20 0xFFFFFFFFFFFFFFFFFFFFFFFFFFFFFFFFFFFFFFFF AND PUSH20 0xFFFFFFFFFFFFFFFFFFFFFFFFFFFFFFFFFFFFFFFF AND DUP2 MSTORE PUSH1 0x20 ADD SWAP1 DUP2 MSTORE PUSH1 0x20 ADD PUSH0 KECCAK256 PUSH0 SWAP1 SLOAD SWAP1 PUSH2 0x100 EXP SWAP1 DIV PUSH1 0xFF AND PUSH2 0xBDF JUMPI PUSH1 0x40 MLOAD PUSH32 0x8C379A000000000000000000000000000000000000000000000000000000000 DUP2 MSTORE PUSH1 0x4 ADD PUSH2 0xBD6 SWAP1 PUSH2 0x1C99 JUMP JUMPDEST PUSH1 0x40 MLOAD DUP1 SWAP2 SUB SWAP1 REVERT JUMPDEST PUSH1 0x2 PUSH0 SWAP1 SLOAD SWAP1 PUSH2 0x100 EXP SWAP1 DIV PUSH1 0xFF AND ISZERO PUSH1 0x2 PUSH0 PUSH2 0x100 EXP DUP2 SLOAD DUP2 PUSH1 0xFF MUL NOT AND SWAP1 DUP4 ISZERO ISZERO MUL OR SWAP1 SSTORE POP JUMP JUMPDEST PUSH0 PUSH1 0x5 PUSH0 CALLER PUSH20 0xFFFFFFFFFFFFFFFFFFFFFFFFFFFFFFFFFFFFFFFF AND PUSH20 0xFFFFFFFFFFFFFFFFFFFFFFFFFFFFFFFFFFFFFFFF AND DUP2 MSTORE PUSH1 0x20 ADD SWAP1 DUP2 MSTORE PUSH1 0x20 ADD PUSH0 KECCAK256 PUSH0 SWAP1 SLOAD SWAP1 PUSH2 0x100 EXP SWAP1 DIV PUSH1 0xFF AND PUSH2 0xC93 JUMPI PUSH1 0x40 MLOAD PUSH32 0x8C379A000000000000000000000000000000000000000000000000000000000 DUP2 MSTORE PUSH1 0x4 ADD PUSH2 0xC8A SWAP1 PUSH2 0x1C99 JUMP JUMPDEST PUSH1 0x40 MLOAD DUP1 SWAP2 SUB SWAP1 REVERT JUMPDEST PUSH1 0x2 PUSH1 0x1 SWAP1 SLOAD SWAP1 PUSH2 0x100 EXP SWAP1 DIV PUSH20 0xFFFFFFFFFFFFFFFFFFFFFFFFFFFFFFFFFFFFFFFF AND SWAP1 POP SWAP1 JUMP JUMPDEST PUSH0 PUSH1 0xA PUSH0 SWAP1 SLOAD SWAP1 PUSH2 0x100 EXP SWAP1 DIV PUSH20 0xFFFFFFFFFFFFFFFFFFFFFFFFFFFFFFFFFFFFFFFF AND PUSH20 0xFFFFFFFFFFFFFFFFFFFFFFFFFFFFFFFFFFFFFFFF AND PUSH4 0x23B872DD CALLER ADDRESS DUP6 PUSH1 0x40 MLOAD DUP5 PUSH4 0xFFFFFFFF AND PUSH1 0xE0 SHL DUP2 MSTORE PUSH1 0x4 ADD PUSH2 0xD1A SWAP4 SWAP3 SWAP2 SWAP1 PUSH2 0x1F33 JUMP JUMPDEST PUSH1 0x20 PUSH1 0x40 MLOAD DUP1 DUP4 SUB DUP2 PUSH0 DUP8 GAS CALL ISZERO DUP1 ISZERO PUSH2 0xD36 JUMPI RETURNDATASIZE PUSH0 PUSH0 RETURNDATACOPY RETURNDATASIZE PUSH0 REVERT JUMPDEST POP POP POP POP PUSH1 0x40 MLOAD RETURNDATASIZE PUSH1 0x1F NOT PUSH1 0x1F DUP3 ADD AND DUP3 ADD DUP1 PUSH1 0x40 MSTORE POP DUP2 ADD SWAP1 PUSH2 0xD5A SWAP2 SWAP1 PUSH2 0x1E04 JUMP JUMPDEST SWAP1 POP DUP1 PUSH2 0xD9C JUMPI PUSH1 0x40 MLOAD PUSH32 0x8C379A000000000000000000000000000000000000000000000000000000000 DUP2 MSTORE PUSH1 0x4 ADD PUSH2 0xD93 SWAP1 PUSH2 0x1FB2 JUMP JUMPDEST PUSH1 0x40 MLOAD DUP1 SWAP2 SUB SWAP1 REVERT JUMPDEST PUSH1 0x2 PUSH0 SWAP1 SLOAD SWAP1 PUSH2 0x100 EXP SWAP1 DIV PUSH1 0xFF AND ISZERO PUSH2 0xE70 JUMPI PUSH1 0xA PUSH0 SWAP1 SLOAD SWAP1 PUSH2 0x100 EXP SWAP1 DIV PUSH20 0xFFFFFFFFFFFFFFFFFFFFFFFFFFFFFFFFFFFFFFFF AND PUSH20 0xFFFFFFFFFFFFFFFFFFFFFFFFFFFFFFFFFFFFFFFF AND PUSH4 0xA9059CBB PUSH1 0x2 PUSH1 0x1 SWAP1 SLOAD SWAP1 PUSH2 0x100 EXP SWAP1 DIV PUSH20 0xFFFFFFFFFFFFFFFFFFFFFFFFFFFFFFFFFFFFFFFF AND DUP5 PUSH1 0x40 MLOAD DUP4 PUSH4 0xFFFFFFFF AND PUSH1 0xE0 SHL DUP2 MSTORE PUSH1 0x4 ADD PUSH2 0xE2E SWAP3 SWAP2 SWAP1 PUSH2 0x1DB3 JUMP JUMPDEST PUSH1 0x20 PUSH1 0x40 MLOAD DUP1 DUP4 SUB DUP2 PUSH0 DUP8 GAS CALL ISZERO DUP1 ISZERO PUSH2 0xE4A JUMPI RETURNDATASIZE PUSH0 PUSH0 RETURNDATACOPY RETURNDATASIZE PUSH0 REVERT JUMPDEST POP POP POP POP PUSH1 0x40 MLOAD RETURNDATASIZE PUSH1 0x1F NOT PUSH1 0x1F DUP3 ADD AND DUP3 ADD DUP1 PUSH1 0x40 MSTORE POP DUP2 ADD SWAP1 PUSH2 0xE6E SWAP2 SWAP1 PUSH2 0x1E04 JUMP JUMPDEST POP JUMPDEST POP POP JUMP JUMPDEST PUSH0 PUSH1 0x5 PUSH0 CALLER PUSH20 0xFFFFFFFFFFFFFFFFFFFFFFFFFFFFFFFFFFFFFFFF AND PUSH20 0xFFFFFFFFFFFFFFFFFFFFFFFFFFFFFFFFFFFFFFFF AND DUP2 MSTORE PUSH1 0x20 ADD SWAP1 DUP2 MSTORE PUSH1 0x20 ADD PUSH0 KECCAK256 PUSH0 SWAP1 SLOAD SWAP1 PUSH2 0x100 EXP SWAP1 DIV PUSH1 0xFF AND PUSH2 0xEFE JUMPI PUSH1 0x40 MLOAD PUSH32 0x8C379A000000000000000000000000000000000000000000000000000000000 DUP2 MSTORE PUSH1 0x4 ADD PUSH2 0xEF5 SWAP1 PUSH2 0x1C99 JUMP JUMPDEST PUSH1 0x40 MLOAD DUP1 SWAP2 SUB SWAP1 REVERT JUMPDEST PUSH1 0x2 PUSH0 SWAP1 SLOAD SWAP1 PUSH2 0x100 EXP SWAP1 DIV PUSH1 0xFF AND SWAP1 POP SWAP1 JUMP JUMPDEST PUSH1 0x5 PUSH0 CALLER PUSH20 0xFFFFFFFFFFFFFFFFFFFFFFFFFFFFFFFFFFFFFFFF AND PUSH20 0xFFFFFFFFFFFFFFFFFFFFFFFFFFFFFFFFFFFFFFFF AND DUP2 MSTORE PUSH1 0x20 ADD SWAP1 DUP2 MSTORE PUSH1 0x20 ADD PUSH0 KECCAK256 PUSH0 SWAP1 SLOAD SWAP1 PUSH2 0x100 EXP SWAP1 DIV PUSH1 0xFF AND PUSH2 0xF9B JUMPI PUSH1 0x40 MLOAD PUSH32 0x8C379A000000000000000000000000000000000000000000000000000000000 DUP2 MSTORE PUSH1 0x4 ADD PUSH2 0xF92 SWAP1 PUSH2 0x1C99 JUMP JUMPDEST PUSH1 0x40 MLOAD DUP1 SWAP2 SUB SWAP1 REVERT JUMPDEST PUSH0 PUSH1 0xA PUSH0 SWAP1 SLOAD SWAP1 PUSH2 0x100 EXP SWAP1 DIV PUSH20 0xFFFFFFFFFFFFFFFFFFFFFFFFFFFFFFFFFFFFFFFF AND PUSH20 0xFFFFFFFFFFFFFFFFFFFFFFFFFFFFFFFFFFFFFFFF AND PUSH4 0x70A08231 ADDRESS PUSH1 0x40 MLOAD DUP3 PUSH4 0xFFFFFFFF AND PUSH1 0xE0 SHL DUP2 MSTORE PUSH1 0x4 ADD PUSH2 0xFF6 SWAP2 SWAP1 PUSH2 0x1BFE JUMP JUMPDEST PUSH1 0x20 PUSH1 0x40 MLOAD DUP1 DUP4 SUB DUP2 DUP7 GAS STATICCALL ISZERO DUP1 ISZERO PUSH2 0x1011 JUMPI RETURNDATASIZE PUSH0 PUSH0 RETURNDATACOPY RETURNDATASIZE PUSH0 REVERT JUMPDEST POP POP POP POP PUSH1 0x40 MLOAD RETURNDATASIZE PUSH1 0x1F NOT PUSH1 0x1F DUP3 ADD AND DUP3 ADD DUP1 PUSH1 0x40 MSTORE POP DUP2 ADD SWAP1 PUSH2 0x1035 SWAP2 SWAP1 PUSH2 0x1EAB JUMP JUMPDEST SWAP1 POP PUSH1 0xA PUSH0 SWAP1 SLOAD SWAP1 PUSH2 0x100 EXP SWAP1 DIV PUSH20 0xFFFFFFFFFFFFFFFFFFFFFFFFFFFFFFFFFFFFFFFF AND PUSH20 0xFFFFFFFFFFFFFFFFFFFFFFFFFFFFFFFFFFFFFFFF AND PUSH4 0xA9059CBB PUSH1 0x2 PUSH1 0x1 SWAP1 SLOAD SWAP1 PUSH2 0x100 EXP SWAP1 DIV PUSH20 0xFFFFFFFFFFFFFFFFFFFFFFFFFFFFFFFFFFFFFFFF AND DUP4 PUSH1 0x40 MLOAD DUP4 PUSH4 0xFFFFFFFF AND PUSH1 0xE0 SHL DUP2 MSTORE PUSH1 0x4 ADD PUSH2 0x10B5 SWAP3 SWAP2 SWAP1 PUSH2 0x1DB3 JUMP JUMPDEST PUSH1 0x20 PUSH1 0x40 MLOAD DUP1 DUP4 SUB DUP2 PUSH0 DUP8 GAS CALL ISZERO DUP1 ISZERO PUSH2 0x10D1 JUMPI RETURNDATASIZE PUSH0 PUSH0 RETURNDATACOPY RETURNDATASIZE PUSH0 REVERT JUMPDEST POP POP POP POP PUSH1 0x40 MLOAD RETURNDATASIZE PUSH1 0x1F NOT PUSH1 0x1F DUP3 ADD AND DUP3 ADD DUP1 PUSH1 0x40 MSTORE POP DUP2 ADD SWAP1 PUSH2 0x10F5 SWAP2 SWAP1 PUSH2 0x1E04 JUMP JUMPDEST POP POP JUMP JUMPDEST PUSH1 0x5 PUSH0 CALLER PUSH20 0xFFFFFFFFFFFFFFFFFFFFFFFFFFFFFFFFFFFFFFFF AND PUSH20 0xFFFFFFFFFFFFFFFFFFFFFFFFFFFFFFFFFFFFFFFF AND DUP2 MSTORE PUSH1 0x20 ADD SWAP1 DUP2 MSTORE PUSH1 0x20 ADD PUSH0 KECCAK256 PUSH0 SWAP1 SLOAD SWAP1 PUSH2 0x100 EXP SWAP1 DIV PUSH1 0xFF AND PUSH2 0x1182 JUMPI PUSH1 0x40 MLOAD PUSH32 0x8C379A000000000000000000000000000000000000000000000000000000000 DUP2 MSTORE PUSH1 0x4 ADD PUSH2 0x1179 SWAP1 PUSH2 0x1C99 JUMP JUMPDEST PUSH1 0x40 MLOAD DUP1 SWAP2 SUB SWAP1 REVERT JUMPDEST PUSH2 0x1193 PUSH1 0x4 PUSH1 0x7 PUSH1 0x6 PUSH0 SLOAD DUP6 PUSH2 0x14A5 JUMP JUMPDEST POP JUMP JUMPDEST DUP4 DUP1 SLOAD SWAP1 POP DUP2 LT PUSH2 0x11DC JUMPI PUSH1 0x40 MLOAD PUSH32 0x8C379A000000000000000000000000000000000000000000000000000000000 DUP2 MSTORE PUSH1 0x4 ADD PUSH2 0x11D3 SWAP1 PUSH2 0x201A JUMP JUMPDEST PUSH1 0x40 MLOAD DUP1 SWAP2 SUB SWAP1 REVERT JUMPDEST DUP4 DUP2 DUP2 SLOAD DUP2 LT PUSH2 0x11EF JUMPI PUSH2 0x11EE PUSH2 0x2038 JUMP JUMPDEST JUMPDEST SWAP1 PUSH0 MSTORE PUSH1 0x20 PUSH0 KECCAK256 SWAP1 PUSH1 0x2 MUL ADD PUSH1 0x1 ADD PUSH0 SWAP1 SLOAD SWAP1 PUSH2 0x100 EXP SWAP1 DIV PUSH1 0xFF AND PUSH2 0x124A JUMPI PUSH1 0x40 MLOAD PUSH32 0x8C379A000000000000000000000000000000000000000000000000000000000 DUP2 MSTORE PUSH1 0x4 ADD PUSH2 0x1241 SWAP1 PUSH2 0x20AF JUMP JUMPDEST PUSH1 0x40 MLOAD DUP1 SWAP2 SUB SWAP1 REVERT JUMPDEST DUP3 PUSH0 DUP3 DUP2 MSTORE PUSH1 0x20 ADD SWAP1 DUP2 MSTORE PUSH1 0x20 ADD PUSH0 KECCAK256 PUSH0 CALLER PUSH20 0xFFFFFFFFFFFFFFFFFFFFFFFFFFFFFFFFFFFFFFFF AND PUSH20 0xFFFFFFFFFFFFFFFFFFFFFFFFFFFFFFFFFFFFFFFF AND DUP2 MSTORE PUSH1 0x20 ADD SWAP1 DUP2 MSTORE PUSH1 0x20 ADD PUSH0 KECCAK256 PUSH0 SWAP1 SLOAD SWAP1 PUSH2 0x100 EXP SWAP1 DIV PUSH1 0xFF AND PUSH2 0x12E1 JUMPI PUSH1 0x40 MLOAD PUSH32 0x8C379A000000000000000000000000000000000000000000000000000000000 DUP2 MSTORE PUSH1 0x4 ADD PUSH2 0x12D8 SWAP1 PUSH2 0x2117 JUMP JUMPDEST PUSH1 0x40 MLOAD DUP1 SWAP2 SUB SWAP1 REVERT JUMPDEST PUSH0 DUP4 PUSH0 DUP4 DUP2 MSTORE PUSH1 0x20 ADD SWAP1 DUP2 MSTORE PUSH1 0x20 ADD PUSH0 KECCAK256 PUSH0 CALLER PUSH20 0xFFFFFFFFFFFFFFFFFFFFFFFFFFFFFFFFFFFFFFFF AND PUSH20 0xFFFFFFFFFFFFFFFFFFFFFFFFFFFFFFFFFFFFFFFF AND DUP2 MSTORE PUSH1 0x20 ADD SWAP1 DUP2 MSTORE PUSH1 0x20 ADD PUSH0 KECCAK256 PUSH0 PUSH2 0x100 EXP DUP2 SLOAD DUP2 PUSH1 0xFF MUL NOT AND SWAP1 DUP4 ISZERO ISZERO MUL OR SWAP1 SSTORE POP DUP2 PUSH0 DUP3 DUP2 MSTORE PUSH1 0x20 ADD SWAP1 DUP2 MSTORE PUSH1 0x20 ADD PUSH0 KECCAK256 PUSH0 DUP2 SLOAD DUP1 SWAP3 SWAP2 SWAP1 PUSH2 0x1363 SWAP1 PUSH2 0x2135 JUMP JUMPDEST SWAP2 SWAP1 POP SSTORE POP DUP1 CALLER PUSH20 0xFFFFFFFFFFFFFFFFFFFFFFFFFFFFFFFFFFFFFFFF AND PUSH32 0xF0DCA620E2E81F7841D07BCC105E1704FB01475B278A9D4C236E1C62945EDD55 PUSH1 0x40 MLOAD PUSH1 0x40 MLOAD DUP1 SWAP2 SUB SWAP1 LOG3 POP POP POP POP JUMP JUMPDEST DUP3 PUSH1 0x40 MLOAD DUP1 PUSH1 0x60 ADD PUSH1 0x40 MSTORE DUP1 DUP5 DUP2 MSTORE PUSH1 0x20 ADD PUSH0 ISZERO ISZERO DUP2 MSTORE PUSH1 0x20 ADD DUP4 ISZERO ISZERO DUP2 MSTORE POP SWAP1 DUP1 PUSH1 0x1 DUP2 SLOAD ADD DUP1 DUP3 SSTORE DUP1 SWAP2 POP POP PUSH1 0x1 SWAP1 SUB SWAP1 PUSH0 MSTORE PUSH1 0x20 PUSH0 KECCAK256 SWAP1 PUSH1 0x2 MUL ADD PUSH0 SWAP1 SWAP2 SWAP1 SWAP2 SWAP1 SWAP2 POP PUSH0 DUP3 ADD MLOAD DUP2 PUSH0 ADD SWAP1 DUP2 PUSH2 0x140B SWAP2 SWAP1 PUSH2 0x2329 JUMP JUMPDEST POP PUSH1 0x20 DUP3 ADD MLOAD DUP2 PUSH1 0x1 ADD PUSH0 PUSH2 0x100 EXP DUP2 SLOAD DUP2 PUSH1 0xFF MUL NOT AND SWAP1 DUP4 ISZERO ISZERO MUL OR SWAP1 SSTORE POP PUSH1 0x40 DUP3 ADD MLOAD DUP2 PUSH1 0x1 ADD PUSH1 0x1 PUSH2 0x100 EXP DUP2 SLOAD DUP2 PUSH1 0xFF MUL NOT AND SWAP1 DUP4 ISZERO ISZERO MUL OR SWAP1 SSTORE POP POP POP DUP3 DUP1 SLOAD SWAP1 POP CALLER PUSH20 0xFFFFFFFFFFFFFFFFFFFFFFFFFFFFFFFFFFFFFFFF AND PUSH32 0xEB45F38AD35CF41B4F9BE8CFCCA269EF78EA04216DBC8B8A38F28491C84D005A DUP5 PUSH1 0x40 MLOAD PUSH2 0x1498 SWAP2 SWAP1 PUSH2 0x2440 JUMP JUMPDEST PUSH1 0x40 MLOAD DUP1 SWAP2 SUB SWAP1 LOG3 POP POP POP JUMP JUMPDEST DUP4 PUSH0 DUP3 DUP2 MSTORE PUSH1 0x20 ADD SWAP1 DUP2 MSTORE PUSH1 0x20 ADD PUSH0 KECCAK256 PUSH0 CALLER PUSH20 0xFFFFFFFFFFFFFFFFFFFFFFFFFFFFFFFFFFFFFFFF AND PUSH20 0xFFFFFFFFFFFFFFFFFFFFFFFFFFFFFFFFFFFFFFFF AND DUP2 MSTORE PUSH1 0x20 ADD SWAP1 DUP2 MSTORE PUSH1 0x20 ADD PUSH0 KECCAK256 PUSH0 SWAP1 SLOAD SWAP1 PUSH2 0x100 EXP SWAP1 DIV PUSH1 0xFF AND ISZERO PUSH2 0x153D JUMPI PUSH1 0x40 MLOAD PUSH32 0x8C379A000000000000000000000000000000000000000000000000000000000 DUP2 MSTORE PUSH1 0x4 ADD PUSH2 0x1534 SWAP1 PUSH2 0x24AA JUMP JUMPDEST PUSH1 0x40 MLOAD DUP1 SWAP2 SUB SWAP1 REVERT JUMPDEST PUSH1 0x1 DUP5 PUSH0 DUP4 DUP2 MSTORE PUSH1 0x20 ADD SWAP1 DUP2 MSTORE PUSH1 0x20 ADD PUSH0 KECCAK256 PUSH0 CALLER PUSH20 0xFFFFFFFFFFFFFFFFFFFFFFFFFFFFFFFFFFFFFFFF AND PUSH20 0xFFFFFFFFFFFFFFFFFFFFFFFFFFFFFFFFFFFFFFFF AND DUP2 MSTORE PUSH1 0x20 ADD SWAP1 DUP2 MSTORE PUSH1 0x20 ADD PUSH0 KECCAK256 PUSH0 PUSH2 0x100 EXP DUP2 SLOAD DUP2 PUSH1 0xFF MUL NOT AND SWAP1 DUP4 ISZERO ISZERO MUL OR SWAP1 SSTORE POP DUP3 PUSH0 DUP3 DUP2 MSTORE PUSH1 0x20 ADD SWAP1 DUP2 MSTORE PUSH1 0x20 ADD PUSH0 KECCAK256 PUSH0 DUP2 SLOAD DUP1 SWAP3 SWAP2 SWAP1 PUSH2 0x15C0 SWAP1 PUSH2 0x24C8 JUMP JUMPDEST SWAP2 SWAP1 POP SSTORE POP DUP1 CALLER PUSH20 0xFFFFFFFFFFFFFFFFFFFFFFFFFFFFFFFFFFFFFFFF AND PUSH32 0x5CBE105E36805F7820E291F799D5794FF948AF2A5F664E580382DEFB63390041 PUSH1 0x40 MLOAD PUSH1 0x40 MLOAD DUP1 SWAP2 SUB SWAP1 LOG3 DUP2 DUP4 PUSH0 DUP4 DUP2 MSTORE PUSH1 0x20 ADD SWAP1 DUP2 MSTORE PUSH1 0x20 ADD PUSH0 KECCAK256 SLOAD LT PUSH2 0x162B JUMPI PUSH2 0x162A DUP6 DUP3 PUSH2 0x1632 JUMP JUMPDEST JUMPDEST POP POP POP POP POP JUMP JUMPDEST DUP2 DUP1 SLOAD SWAP1 POP DUP2 LT PUSH2 0x1678 JUMPI PUSH1 0x40 MLOAD PUSH32 0x8C379A000000000000000000000000000000000000000000000000000000000 DUP2 MSTORE PUSH1 0x4 ADD PUSH2 0x166F SWAP1 PUSH2 0x201A JUMP JUMPDEST PUSH1 0x40 MLOAD DUP1 SWAP2 SUB SWAP1 REVERT JUMPDEST DUP2 DUP2 DUP2 SLOAD DUP2 LT PUSH2 0x168B JUMPI PUSH2 0x168A PUSH2 0x2038 JUMP JUMPDEST JUMPDEST SWAP1 PUSH0 MSTORE PUSH1 0x20 PUSH0 KECCAK256 SWAP1 PUSH1 0x2 MUL ADD PUSH1 0x1 ADD PUSH0 SWAP1 SLOAD SWAP1 PUSH2 0x100 EXP SWAP1 DIV PUSH1 0xFF AND ISZERO PUSH2 0x16E7 JUMPI PUSH1 0x40 MLOAD PUSH32 0x8C379A000000000000000000000000000000000000000000000000000000000 DUP2 MSTORE PUSH1 0x4 ADD PUSH2 0x16DE SWAP1 PUSH2 0x2559 JUMP JUMPDEST PUSH1 0x40 MLOAD DUP1 SWAP2 SUB SWAP1 REVERT JUMPDEST PUSH0 DUP3 DUP3 DUP2 SLOAD DUP2 LT PUSH2 0x16FB JUMPI PUSH2 0x16FA PUSH2 0x2038 JUMP JUMPDEST JUMPDEST SWAP1 PUSH0 MSTORE PUSH1 0x20 PUSH0 KECCAK256 SWAP1 PUSH1 0x2 MUL ADD SWAP1 POP PUSH1 0x1 DUP2 PUSH1 0x1 ADD PUSH0 PUSH2 0x100 EXP DUP2 SLOAD DUP2 PUSH1 0xFF MUL NOT AND SWAP1 DUP4 ISZERO ISZERO MUL OR SWAP1 SSTORE POP PUSH0 ADDRESS PUSH20 0xFFFFFFFFFFFFFFFFFFFFFFFFFFFFFFFFFFFFFFFF AND DUP3 PUSH0 ADD PUSH1 0x40 MLOAD PUSH2 0x174D SWAP2 SWAP1 PUSH2 0x2601 JUMP JUMPDEST PUSH0 PUSH1 0x40 MLOAD DUP1 DUP4 SUB DUP2 PUSH0 DUP7 GAS CALL SWAP2 POP POP RETURNDATASIZE DUP1 PUSH0 DUP2 EQ PUSH2 0x1786 JUMPI PUSH1 0x40 MLOAD SWAP2 POP PUSH1 0x1F NOT PUSH1 0x3F RETURNDATASIZE ADD AND DUP3 ADD PUSH1 0x40 MSTORE RETURNDATASIZE DUP3 MSTORE RETURNDATASIZE PUSH0 PUSH1 0x20 DUP5 ADD RETURNDATACOPY PUSH2 0x178B JUMP JUMPDEST PUSH1 0x60 SWAP2 POP JUMPDEST POP POP SWAP1 POP DUP1 PUSH2 0x17CF JUMPI PUSH1 0x40 MLOAD PUSH32 0x8C379A000000000000000000000000000000000000000000000000000000000 DUP2 MSTORE PUSH1 0x4 ADD PUSH2 0x17C6 SWAP1 PUSH2 0x2661 JUMP JUMPDEST PUSH1 0x40 MLOAD DUP1 SWAP2 SUB SWAP1 REVERT JUMPDEST DUP3 CALLER PUSH20 0xFFFFFFFFFFFFFFFFFFFFFFFFFFFFFFFFFFFFFFFF AND PUSH32 0x5445F318F4F5FCFB66592E68E0CC5822AA15664039BD5F0FFDE24C5A8142B1AC PUSH1 0x40 MLOAD PUSH1 0x40 MLOAD DUP1 SWAP2 SUB SWAP1 LOG3 POP POP POP POP JUMP JUMPDEST PUSH0 DUP2 MLOAD SWAP1 POP SWAP2 SWAP1 POP JUMP JUMPDEST PUSH0 DUP3 DUP3 MSTORE PUSH1 0x20 DUP3 ADD SWAP1 POP SWAP3 SWAP2 POP POP JUMP JUMPDEST PUSH0 DUP2 SWAP1 POP PUSH1 0x20 DUP3 ADD SWAP1 POP SWAP2 SWAP1 POP JUMP JUMPDEST PUSH0 PUSH20 0xFFFFFFFFFFFFFFFFFFFFFFFFFFFFFFFFFFFFFFFF DUP3 AND SWAP1 POP SWAP2 SWAP1 POP JUMP JUMPDEST PUSH0 PUSH2 0x186B DUP3 PUSH2 0x1842 JUMP JUMPDEST SWAP1 POP SWAP2 SWAP1 POP JUMP JUMPDEST PUSH2 0x187B DUP2 PUSH2 0x1861 JUMP JUMPDEST DUP3 MSTORE POP POP JUMP JUMPDEST PUSH0 PUSH2 0x188C DUP4 DUP4 PUSH2 0x1872 JUMP JUMPDEST PUSH1 0x20 DUP4 ADD SWAP1 POP SWAP3 SWAP2 POP POP JUMP JUMPDEST PUSH0 PUSH1 0x20 DUP3 ADD SWAP1 POP SWAP2 SWAP1 POP JUMP JUMPDEST PUSH0 PUSH2 0x18AE DUP3 PUSH2 0x1819 JUMP JUMPDEST PUSH2 0x18B8 DUP2 DUP6 PUSH2 0x1823 JUMP JUMPDEST SWAP4 POP PUSH2 0x18C3 DUP4 PUSH2 0x1833 JUMP JUMPDEST DUP1 PUSH0 JUMPDEST DUP4 DUP2 LT ISZERO PUSH2 0x18F3 JUMPI DUP2 MLOAD PUSH2 0x18DA DUP9 DUP3 PUSH2 0x1881 JUMP JUMPDEST SWAP8 POP PUSH2 0x18E5 DUP4 PUSH2 0x1898 JUMP JUMPDEST SWAP3 POP POP PUSH1 0x1 DUP2 ADD SWAP1 POP PUSH2 0x18C6 JUMP JUMPDEST POP DUP6 SWAP4 POP POP POP POP SWAP3 SWAP2 POP POP JUMP JUMPDEST PUSH0 PUSH1 0x20 DUP3 ADD SWAP1 POP DUP2 DUP2 SUB PUSH0 DUP4 ADD MSTORE PUSH2 0x1918 DUP2 DUP5 PUSH2 0x18A4 JUMP JUMPDEST SWAP1 POP SWAP3 SWAP2 POP POP JUMP JUMPDEST PUSH0 PUSH0 REVERT JUMPDEST PUSH0 DUP2 SWAP1 POP SWAP2 SWAP1 POP JUMP JUMPDEST PUSH2 0x1936 DUP2 PUSH2 0x1924 JUMP JUMPDEST DUP2 EQ PUSH2 0x1940 JUMPI PUSH0 PUSH0 REVERT JUMPDEST POP JUMP JUMPDEST PUSH0 DUP2 CALLDATALOAD SWAP1 POP PUSH2 0x1951 DUP2 PUSH2 0x192D JUMP JUMPDEST SWAP3 SWAP2 POP POP JUMP JUMPDEST PUSH0 PUSH1 0x20 DUP3 DUP5 SUB SLT ISZERO PUSH2 0x196C JUMPI PUSH2 0x196B PUSH2 0x1920 JUMP JUMPDEST JUMPDEST PUSH0 PUSH2 0x1979 DUP5 DUP3 DUP6 ADD PUSH2 0x1943 JUMP JUMPDEST SWAP2 POP POP SWAP3 SWAP2 POP POP JUMP JUMPDEST PUSH0 PUSH0 PUSH1 0x40 DUP4 DUP6 SUB SLT ISZERO PUSH2 0x1998 JUMPI PUSH2 0x1997 PUSH2 0x1920 JUMP JUMPDEST JUMPDEST PUSH0 PUSH2 0x19A5 DUP6 DUP3 DUP7 ADD PUSH2 0x1943 JUMP JUMPDEST SWAP3 POP POP PUSH1 0x20 PUSH2 0x19B6 DUP6 DUP3 DUP7 ADD PUSH2 0x1943 JUMP JUMPDEST SWAP2 POP POP SWAP3 POP SWAP3 SWAP1 POP JUMP JUMPDEST PUSH2 0x19C9 DUP2 PUSH2 0x1924 JUMP JUMPDEST DUP3 MSTORE POP POP JUMP JUMPDEST PUSH0 PUSH1 0x20 DUP3 ADD SWAP1 POP PUSH2 0x19E2 PUSH0 DUP4 ADD DUP5 PUSH2 0x19C0 JUMP JUMPDEST SWAP3 SWAP2 POP POP JUMP JUMPDEST PUSH2 0x19F1 DUP2 PUSH2 0x1861 JUMP JUMPDEST DUP2 EQ PUSH2 0x19FB JUMPI PUSH0 PUSH0 REVERT JUMPDEST POP JUMP JUMPDEST PUSH0 DUP2 CALLDATALOAD SWAP1 POP PUSH2 0x1A0C DUP2 PUSH2 0x19E8 JUMP JUMPDEST SWAP3 SWAP2 POP POP JUMP JUMPDEST PUSH0 PUSH1 0x20 DUP3 DUP5 SUB SLT ISZERO PUSH2 0x1A27 JUMPI PUSH2 0x1A26 PUSH2 0x1920 JUMP JUMPDEST JUMPDEST PUSH0 PUSH2 0x1A34 DUP5 DUP3 DUP6 ADD PUSH2 0x19FE JUMP JUMPDEST SWAP2 POP POP SWAP3 SWAP2 POP POP JUMP JUMPDEST PUSH0 DUP2 MLOAD SWAP1 POP SWAP2 SWAP1 POP JUMP JUMPDEST PUSH0 DUP3 DUP3 MSTORE PUSH1 0x20 DUP3 ADD SWAP1 POP SWAP3 SWAP2 POP POP JUMP JUMPDEST PUSH0 DUP2 SWAP1 POP PUSH1 0x20 DUP3 ADD SWAP1 POP SWAP2 SWAP1 POP JUMP JUMPDEST PUSH0 DUP2 MLOAD SWAP1 POP SWAP2 SWAP1 POP JUMP JUMPDEST PUSH0 DUP3 DUP3 MSTORE PUSH1 0x20 DUP3 ADD SWAP1 POP SWAP3 SWAP2 POP POP JUMP JUMPDEST DUP3 DUP2 DUP4 MCOPY PUSH0 DUP4 DUP4 ADD MSTORE POP POP POP JUMP JUMPDEST PUSH0 PUSH1 0x1F NOT PUSH1 0x1F DUP4 ADD AND SWAP1 POP SWAP2 SWAP1 POP JUMP JUMPDEST PUSH0 PUSH2 0x1AA8 DUP3 PUSH2 0x1A66 JUMP JUMPDEST PUSH2 0x1AB2 DUP2 DUP6 PUSH2 0x1A70 JUMP JUMPDEST SWAP4 POP PUSH2 0x1AC2 DUP2 DUP6 PUSH1 0x20 DUP7 ADD PUSH2 0x1A80 JUMP JUMPDEST PUSH2 0x1ACB DUP2 PUSH2 0x1A8E JUMP JUMPDEST DUP5 ADD SWAP2 POP POP SWAP3 SWAP2 POP POP JUMP JUMPDEST PUSH0 DUP2 ISZERO ISZERO SWAP1 POP SWAP2 SWAP1 POP JUMP JUMPDEST PUSH2 0x1AEA DUP2 PUSH2 0x1AD6 JUMP JUMPDEST DUP3 MSTORE POP POP JUMP JUMPDEST PUSH0 PUSH1 0x60 DUP4 ADD PUSH0 DUP4 ADD MLOAD DUP5 DUP3 SUB PUSH0 DUP7 ADD MSTORE PUSH2 0x1B0A DUP3 DUP3 PUSH2 0x1A9E JUMP JUMPDEST SWAP2 POP POP PUSH1 0x20 DUP4 ADD MLOAD PUSH2 0x1B1F PUSH1 0x20 DUP7 ADD DUP3 PUSH2 0x1AE1 JUMP JUMPDEST POP PUSH1 0x40 DUP4 ADD MLOAD PUSH2 0x1B32 PUSH1 0x40 DUP7 ADD DUP3 PUSH2 0x1AE1 JUMP JUMPDEST POP DUP1 SWAP2 POP POP SWAP3 SWAP2 POP POP JUMP JUMPDEST PUSH0 PUSH2 0x1B48 DUP4 DUP4 PUSH2 0x1AF0 JUMP JUMPDEST SWAP1 POP SWAP3 SWAP2 POP POP JUMP JUMPDEST PUSH0 PUSH1 0x20 DUP3 ADD SWAP1 POP SWAP2 SWAP1 POP JUMP JUMPDEST PUSH0 PUSH2 0x1B66 DUP3 PUSH2 0x1A3D JUMP JUMPDEST PUSH2 0x1B70 DUP2 DUP6 PUSH2 0x1A47 JUMP JUMPDEST SWAP4 POP DUP4 PUSH1 0x20 DUP3 MUL DUP6 ADD PUSH2 0x1B82 DUP6 PUSH2 0x1A57 JUMP JUMPDEST DUP1 PUSH0 JUMPDEST DUP6 DUP2 LT ISZERO PUSH2 0x1BBD JUMPI DUP5 DUP5 SUB DUP10 MSTORE DUP2 MLOAD PUSH2 0x1B9E DUP6 DUP3 PUSH2 0x1B3D JUMP JUMPDEST SWAP5 POP PUSH2 0x1BA9 DUP4 PUSH2 0x1B50 JUMP JUMPDEST SWAP3 POP PUSH1 0x20 DUP11 ADD SWAP10 POP POP PUSH1 0x1 DUP2 ADD SWAP1 POP PUSH2 0x1B85 JUMP JUMPDEST POP DUP3 SWAP8 POP DUP8 SWAP6 POP POP POP POP POP POP SWAP3 SWAP2 POP POP JUMP JUMPDEST PUSH0 PUSH1 0x20 DUP3 ADD SWAP1 POP DUP2 DUP2 SUB PUSH0 DUP4 ADD MSTORE PUSH2 0x1BE7 DUP2 DUP5 PUSH2 0x1B5C JUMP JUMPDEST SWAP1 POP SWAP3 SWAP2 POP POP JUMP JUMPDEST PUSH2 0x1BF8 DUP2 PUSH2 0x1861 JUMP JUMPDEST DUP3 MSTORE POP POP JUMP JUMPDEST PUSH0 PUSH1 0x20 DUP3 ADD SWAP1 POP PUSH2 0x1C11 PUSH0 DUP4 ADD DUP5 PUSH2 0x1BEF JUMP JUMPDEST SWAP3 SWAP2 POP POP JUMP JUMPDEST PUSH2 0x1C20 DUP2 PUSH2 0x1AD6 JUMP JUMPDEST DUP3 MSTORE POP POP JUMP JUMPDEST PUSH0 PUSH1 0x20 DUP3 ADD SWAP1 POP PUSH2 0x1C39 PUSH0 DUP4 ADD DUP5 PUSH2 0x1C17 JUMP JUMPDEST SWAP3 SWAP2 POP POP JUMP JUMPDEST PUSH0 DUP3 DUP3 MSTORE PUSH1 0x20 DUP3 ADD SWAP1 POP SWAP3 SWAP2 POP POP JUMP JUMPDEST PUSH32 0x4F6E6C79207468652061646D696E6973747261746F722063616E207573650000 PUSH0 DUP3 ADD MSTORE POP JUMP JUMPDEST PUSH0 PUSH2 0x1C83 PUSH1 0x1E DUP4 PUSH2 0x1C3F JUMP JUMPDEST SWAP2 POP PUSH2 0x1C8E DUP3 PUSH2 0x1C4F JUMP JUMPDEST PUSH1 0x20 DUP3 ADD SWAP1 POP SWAP2 SWAP1 POP JUMP JUMPDEST PUSH0 PUSH1 0x20 DUP3 ADD SWAP1 POP DUP2 DUP2 SUB PUSH0 DUP4 ADD MSTORE PUSH2 0x1CB0 DUP2 PUSH2 0x1C77 JUMP JUMPDEST SWAP1 POP SWAP2 SWAP1 POP JUMP JUMPDEST PUSH32 0x4E487B7100000000000000000000000000000000000000000000000000000000 PUSH0 MSTORE PUSH1 0x11 PUSH1 0x4 MSTORE PUSH1 0x24 PUSH0 REVERT JUMPDEST PUSH0 PUSH2 0x1CEE DUP3 PUSH2 0x1924 JUMP JUMPDEST SWAP2 POP PUSH2 0x1CF9 DUP4 PUSH2 0x1924 JUMP JUMPDEST SWAP3 POP DUP3 DUP3 MUL PUSH2 0x1D07 DUP2 PUSH2 0x1924 JUMP JUMPDEST SWAP2 POP DUP3 DUP3 DIV DUP5 EQ DUP4 ISZERO OR PUSH2 0x1D1E JUMPI PUSH2 0x1D1D PUSH2 0x1CB7 JUMP JUMPDEST JUMPDEST POP SWAP3 SWAP2 POP POP JUMP JUMPDEST PUSH32 0x496E76616C696420646179732C206D7573742062652033302C203630206F7220 PUSH0 DUP3 ADD MSTORE PUSH32 0x3930000000000000000000000000000000000000000000000000000000000000 PUSH1 0x20 DUP3 ADD MSTORE POP JUMP JUMPDEST PUSH0 PUSH2 0x1D7F PUSH1 0x22 DUP4 PUSH2 0x1C3F JUMP JUMPDEST SWAP2 POP PUSH2 0x1D8A DUP3 PUSH2 0x1D25 JUMP JUMPDEST PUSH1 0x40 DUP3 ADD SWAP1 POP SWAP2 SWAP1 POP JUMP JUMPDEST PUSH0 PUSH1 0x20 DUP3 ADD SWAP1 POP DUP2 DUP2 SUB PUSH0 DUP4 ADD MSTORE PUSH2 0x1DAC DUP2 PUSH2 0x1D73 JUMP JUMPDEST SWAP1 POP SWAP2 SWAP1 POP JUMP JUMPDEST PUSH0 PUSH1 0x40 DUP3 ADD SWAP1 POP PUSH2 0x1DC6 PUSH0 DUP4 ADD DUP6 PUSH2 0x1BEF JUMP JUMPDEST PUSH2 0x1DD3 PUSH1 0x20 DUP4 ADD DUP5 PUSH2 0x19C0 JUMP JUMPDEST SWAP4 SWAP3 POP POP POP JUMP JUMPDEST PUSH2 0x1DE3 DUP2 PUSH2 0x1AD6 JUMP JUMPDEST DUP2 EQ PUSH2 0x1DED JUMPI PUSH0 PUSH0 REVERT JUMPDEST POP JUMP JUMPDEST PUSH0 DUP2 MLOAD SWAP1 POP PUSH2 0x1DFE DUP2 PUSH2 0x1DDA JUMP JUMPDEST SWAP3 SWAP2 POP POP JUMP JUMPDEST PUSH0 PUSH1 0x20 DUP3 DUP5 SUB SLT ISZERO PUSH2 0x1E19 JUMPI PUSH2 0x1E18 PUSH2 0x1920 JUMP JUMPDEST JUMPDEST PUSH0 PUSH2 0x1E26 DUP5 DUP3 DUP6 ADD PUSH2 0x1DF0 JUMP JUMPDEST SWAP2 POP POP SWAP3 SWAP2 POP POP JUMP JUMPDEST PUSH32 0x5553445420617070726F7665206661696C656400000000000000000000000000 PUSH0 DUP3 ADD MSTORE POP JUMP JUMPDEST PUSH0 PUSH2 0x1E63 PUSH1 0x13 DUP4 PUSH2 0x1C3F JUMP JUMPDEST SWAP2 POP PUSH2 0x1E6E DUP3 PUSH2 0x1E2F JUMP JUMPDEST PUSH1 0x20 DUP3 ADD SWAP1 POP SWAP2 SWAP1 POP JUMP JUMPDEST PUSH0 PUSH1 0x20 DUP3 ADD SWAP1 POP DUP2 DUP2 SUB PUSH0 DUP4 ADD MSTORE PUSH2 0x1E90 DUP2 PUSH2 0x1E57 JUMP JUMPDEST SWAP1 POP SWAP2 SWAP1 POP JUMP JUMPDEST PUSH0 DUP2 MLOAD SWAP1 POP PUSH2 0x1EA5 DUP2 PUSH2 0x192D JUMP JUMPDEST SWAP3 SWAP2 POP POP JUMP JUMPDEST PUSH0 PUSH1 0x20 DUP3 DUP5 SUB SLT ISZERO PUSH2 0x1EC0 JUMPI PUSH2 0x1EBF PUSH2 0x1920 JUMP JUMPDEST JUMPDEST PUSH0 PUSH2 0x1ECD DUP5 DUP3 DUP6 ADD PUSH2 0x1E97 JUMP JUMPDEST SWAP2 POP POP SWAP3 SWAP2 POP POP JUMP JUMPDEST PUSH32 0x4E487B7100000000000000000000000000000000000000000000000000000000 PUSH0 MSTORE PUSH1 0x22 PUSH1 0x4 MSTORE PUSH1 0x24 PUSH0 REVERT JUMPDEST PUSH0 PUSH1 0x2 DUP3 DIV SWAP1 POP PUSH1 0x1 DUP3 AND DUP1 PUSH2 0x1F1A JUMPI PUSH1 0x7F DUP3 AND SWAP2 POP JUMPDEST PUSH1 0x20 DUP3 LT DUP2 SUB PUSH2 0x1F2D JUMPI PUSH2 0x1F2C PUSH2 0x1ED6 JUMP JUMPDEST JUMPDEST POP SWAP2 SWAP1 POP JUMP JUMPDEST PUSH0 PUSH1 0x60 DUP3 ADD SWAP1 POP PUSH2 0x1F46 PUSH0 DUP4 ADD DUP7 PUSH2 0x1BEF JUMP JUMPDEST PUSH2 0x1F53 PUSH1 0x20 DUP4 ADD DUP6 PUSH2 0x1BEF JUMP JUMPDEST PUSH2 0x1F60 PUSH1 0x40 DUP4 ADD DUP5 PUSH2 0x19C0 JUMP JUMPDEST SWAP5 SWAP4 POP POP POP POP JUMP JUMPDEST PUSH32 0x55534454207472616E73666572206661696C6564000000000000000000000000 PUSH0 DUP3 ADD MSTORE POP JUMP JUMPDEST PUSH0 PUSH2 0x1F9C PUSH1 0x14 DUP4 PUSH2 0x1C3F JUMP JUMPDEST SWAP2 POP PUSH2 0x1FA7 DUP3 PUSH2 0x1F68 JUMP JUMPDEST PUSH1 0x20 DUP3 ADD SWAP1 POP SWAP2 SWAP1 POP JUMP JUMPDEST PUSH0 PUSH1 0x20 DUP3 ADD SWAP1 POP DUP2 DUP2 SUB PUSH0 DUP4 ADD MSTORE PUSH2 0x1FC9 DUP2 PUSH2 0x1F90 JUMP JUMPDEST SWAP1 POP SWAP2 SWAP1 POP JUMP JUMPDEST PUSH32 0x496E76616C6964207472616E73616374696F6E20696E64657800000000000000 PUSH0 DUP3 ADD MSTORE POP JUMP JUMPDEST PUSH0 PUSH2 0x2004 PUSH1 0x19 DUP4 PUSH2 0x1C3F JUMP JUMPDEST SWAP2 POP PUSH2 0x200F DUP3 PUSH2 0x1FD0 JUMP JUMPDEST PUSH1 0x20 DUP3 ADD SWAP1 POP SWAP2 SWAP1 POP JUMP JUMPDEST PUSH0 PUSH1 0x20 DUP3 ADD SWAP1 POP DUP2 DUP2 SUB PUSH0 DUP4 ADD MSTORE PUSH2 0x2031 DUP2 PUSH2 0x1FF8 JUMP JUMPDEST SWAP1 POP SWAP2 SWAP1 POP JUMP JUMPDEST PUSH32 0x4E487B7100000000000000000000000000000000000000000000000000000000 PUSH0 MSTORE PUSH1 0x32 PUSH1 0x4 MSTORE PUSH1 0x24 PUSH0 REVERT JUMPDEST PUSH32 0x5472616E73616374696F6E206E6F742065786563757465640000000000000000 PUSH0 DUP3 ADD MSTORE POP JUMP JUMPDEST PUSH0 PUSH2 0x2099 PUSH1 0x18 DUP4 PUSH2 0x1C3F JUMP JUMPDEST SWAP2 POP PUSH2 0x20A4 DUP3 PUSH2 0x2065 JUMP JUMPDEST PUSH1 0x20 DUP3 ADD SWAP1 POP SWAP2 SWAP1 POP JUMP JUMPDEST PUSH0 PUSH1 0x20 DUP3 ADD SWAP1 POP DUP2 DUP2 SUB PUSH0 DUP4 ADD MSTORE PUSH2 0x20C6 DUP2 PUSH2 0x208D JUMP JUMPDEST SWAP1 POP SWAP2 SWAP1 POP JUMP JUMPDEST PUSH32 0x5472616E73616374696F6E206E6F7420636F6E6669726D656400000000000000 PUSH0 DUP3 ADD MSTORE POP JUMP JUMPDEST PUSH0 PUSH2 0x2101 PUSH1 0x19 DUP4 PUSH2 0x1C3F JUMP JUMPDEST SWAP2 POP PUSH2 0x210C DUP3 PUSH2 0x20CD JUMP JUMPDEST PUSH1 0x20 DUP3 ADD SWAP1 POP SWAP2 SWAP1 POP JUMP JUMPDEST PUSH0 PUSH1 0x20 DUP3 ADD SWAP1 POP DUP2 DUP2 SUB PUSH0 DUP4 ADD MSTORE PUSH2 0x212E DUP2 PUSH2 0x20F5 JUMP JUMPDEST SWAP1 POP SWAP2 SWAP1 POP JUMP JUMPDEST PUSH0 PUSH2 0x213F DUP3 PUSH2 0x1924 JUMP JUMPDEST SWAP2 POP PUSH0 DUP3 SUB PUSH2 0x2151 JUMPI PUSH2 0x2150 PUSH2 0x1CB7 JUMP JUMPDEST JUMPDEST PUSH1 0x1 DUP3 SUB SWAP1 POP SWAP2 SWAP1 POP JUMP JUMPDEST PUSH32 0x4E487B7100000000000000000000000000000000000000000000000000000000 PUSH0 MSTORE PUSH1 0x41 PUSH1 0x4 MSTORE PUSH1 0x24 PUSH0 REVERT JUMPDEST PUSH0 DUP2 SWAP1 POP DUP2 PUSH0 MSTORE PUSH1 0x20 PUSH0 KECCAK256 SWAP1 POP SWAP2 SWAP1 POP JUMP JUMPDEST PUSH0 PUSH1 0x20 PUSH1 0x1F DUP4 ADD DIV SWAP1 POP SWAP2 SWAP1 POP JUMP JUMPDEST PUSH0 DUP3 DUP3 SHL SWAP1 POP SWAP3 SWAP2 POP POP JUMP JUMPDEST PUSH0 PUSH1 0x8 DUP4 MUL PUSH2 0x21E5 PUSH32 0xFFFFFFFFFFFFFFFFFFFFFFFFFFFFFFFFFFFFFFFFFFFFFFFFFFFFFFFFFFFFFFFF DUP3 PUSH2 0x21AA JUMP JUMPDEST PUSH2 0x21EF DUP7 DUP4 PUSH2 0x21AA JUMP JUMPDEST SWAP6 POP DUP1 NOT DUP5 AND SWAP4 POP DUP1 DUP7 AND DUP5 OR SWAP3 POP POP POP SWAP4 SWAP3 POP POP POP JUMP JUMPDEST PUSH0 DUP2 SWAP1 POP SWAP2 SWAP1 POP JUMP JUMPDEST PUSH0 PUSH2 0x222A PUSH2 0x2225 PUSH2 0x2220 DUP5 PUSH2 0x1924 JUMP JUMPDEST PUSH2 0x2207 JUMP JUMPDEST PUSH2 0x1924 JUMP JUMPDEST SWAP1 POP SWAP2 SWAP1 POP JUMP JUMPDEST PUSH0 DUP2 SWAP1 POP SWAP2 SWAP1 POP JUMP JUMPDEST PUSH2 0x2243 DUP4 PUSH2 0x2210 JUMP JUMPDEST PUSH2 0x2257 PUSH2 0x224F DUP3 PUSH2 0x2231 JUMP JUMPDEST DUP5 DUP5 SLOAD PUSH2 0x21B6 JUMP JUMPDEST DUP3 SSTORE POP POP POP POP JUMP JUMPDEST PUSH0 PUSH0 SWAP1 POP SWAP1 JUMP JUMPDEST PUSH2 0x226E PUSH2 0x225F JUMP JUMPDEST PUSH2 0x2279 DUP2 DUP5 DUP5 PUSH2 0x223A JUMP JUMPDEST POP POP POP JUMP JUMPDEST JUMPDEST DUP2 DUP2 LT ISZERO PUSH2 0x229C JUMPI PUSH2 0x2291 PUSH0 DUP3 PUSH2 0x2266 JUMP JUMPDEST PUSH1 0x1 DUP2 ADD SWAP1 POP PUSH2 0x227F JUMP JUMPDEST POP POP JUMP JUMPDEST PUSH1 0x1F DUP3 GT ISZERO PUSH2 0x22E1 JUMPI PUSH2 0x22B2 DUP2 PUSH2 0x2189 JUMP JUMPDEST PUSH2 0x22BB DUP5 PUSH2 0x219B JUMP JUMPDEST DUP2 ADD PUSH1 0x20 DUP6 LT ISZERO PUSH2 0x22CA JUMPI DUP2 SWAP1 POP JUMPDEST PUSH2 0x22DE PUSH2 0x22D6 DUP6 PUSH2 0x219B JUMP JUMPDEST DUP4 ADD DUP3 PUSH2 0x227E JUMP JUMPDEST POP POP JUMPDEST POP POP POP JUMP JUMPDEST PUSH0 DUP3 DUP3 SHR SWAP1 POP SWAP3 SWAP2 POP POP JUMP JUMPDEST PUSH0 PUSH2 0x2301 PUSH0 NOT DUP5 PUSH1 0x8 MUL PUSH2 0x22E6 JUMP JUMPDEST NOT DUP1 DUP4 AND SWAP2 POP POP SWAP3 SWAP2 POP POP JUMP JUMPDEST PUSH0 PUSH2 0x2319 DUP4 DUP4 PUSH2 0x22F2 JUMP JUMPDEST SWAP2 POP DUP3 PUSH1 0x2 MUL DUP3 OR SWAP1 POP SWAP3 SWAP2 POP POP JUMP JUMPDEST PUSH2 0x2332 DUP3 PUSH2 0x1A66 JUMP JUMPDEST PUSH8 0xFFFFFFFFFFFFFFFF DUP2 GT ISZERO PUSH2 0x234B JUMPI PUSH2 0x234A PUSH2 0x215C JUMP JUMPDEST JUMPDEST PUSH2 0x2355 DUP3 SLOAD PUSH2 0x1F03 JUMP JUMPDEST PUSH2 0x2360 DUP3 DUP3 DUP6 PUSH2 0x22A0 JUMP JUMPDEST PUSH0 PUSH1 0x20 SWAP1 POP PUSH1 0x1F DUP4 GT PUSH1 0x1 DUP2 EQ PUSH2 0x2391 JUMPI PUSH0 DUP5 ISZERO PUSH2 0x237F JUMPI DUP3 DUP8 ADD MLOAD SWAP1 POP JUMPDEST PUSH2 0x2389 DUP6 DUP3 PUSH2 0x230E JUMP JUMPDEST DUP7 SSTORE POP PUSH2 0x23F0 JUMP JUMPDEST PUSH1 0x1F NOT DUP5 AND PUSH2 0x239F DUP7 PUSH2 0x2189 JUMP JUMPDEST PUSH0 JUMPDEST DUP3 DUP2 LT ISZERO PUSH2 0x23C6 JUMPI DUP5 DUP10 ADD MLOAD DUP3 SSTORE PUSH1 0x1 DUP3 ADD SWAP2 POP PUSH1 0x20 DUP6 ADD SWAP5 POP PUSH1 0x20 DUP2 ADD SWAP1 POP PUSH2 0x23A1 JUMP JUMPDEST DUP7 DUP4 LT ISZERO PUSH2 0x23E3 JUMPI DUP5 DUP10 ADD MLOAD PUSH2 0x23DF PUSH1 0x1F DUP10 AND DUP3 PUSH2 0x22F2 JUMP JUMPDEST DUP4 SSTORE POP JUMPDEST PUSH1 0x1 PUSH1 0x2 DUP9 MUL ADD DUP9 SSTORE POP POP POP JUMPDEST POP POP POP POP POP POP JUMP JUMPDEST PUSH0 DUP3 DUP3 MSTORE PUSH1 0x20 DUP3 ADD SWAP1 POP SWAP3 SWAP2 POP POP JUMP JUMPDEST PUSH0 PUSH2 0x2412 DUP3 PUSH2 0x1A66 JUMP JUMPDEST PUSH2 0x241C DUP2 DUP6 PUSH2 0x23F8 JUMP JUMPDEST SWAP4 POP PUSH2 0x242C DUP2 DUP6 PUSH1 0x20 DUP7 ADD PUSH2 0x1A80 JUMP JUMPDEST PUSH2 0x2435 DUP2 PUSH2 0x1A8E JUMP JUMPDEST DUP5 ADD SWAP2 POP POP SWAP3 SWAP2 POP POP JUMP JUMPDEST PUSH0 PUSH1 0x20 DUP3 ADD SWAP1 POP DUP2 DUP2 SUB PUSH0 DUP4 ADD MSTORE PUSH2 0x2458 DUP2 DUP5 PUSH2 0x2408 JUMP JUMPDEST SWAP1 POP SWAP3 SWAP2 POP POP JUMP JUMPDEST PUSH32 0x5472616E73616374696F6E20616C726561647920636F6E6669726D6564000000 PUSH0 DUP3 ADD MSTORE POP JUMP JUMPDEST PUSH0 PUSH2 0x2494 PUSH1 0x1D DUP4 PUSH2 0x1C3F JUMP JUMPDEST SWAP2 POP PUSH2 0x249F DUP3 PUSH2 0x2460 JUMP JUMPDEST PUSH1 0x20 DUP3 ADD SWAP1 POP SWAP2 SWAP1 POP JUMP JUMPDEST PUSH0 PUSH1 0x20 DUP3 ADD SWAP1 POP DUP2 DUP2 SUB PUSH0 DUP4 ADD MSTORE PUSH2 0x24C1 DUP2 PUSH2 0x2488 JUMP JUMPDEST SWAP1 POP SWAP2 SWAP1 POP JUMP JUMPDEST PUSH0 PUSH2 0x24D2 DUP3 PUSH2 0x1924 JUMP JUMPDEST SWAP2 POP PUSH32 0xFFFFFFFFFFFFFFFFFFFFFFFFFFFFFFFFFFFFFFFFFFFFFFFFFFFFFFFFFFFFFFFF DUP3 SUB PUSH2 0x2504 JUMPI PUSH2 0x2503 PUSH2 0x1CB7 JUMP JUMPDEST JUMPDEST PUSH1 0x1 DUP3 ADD SWAP1 POP SWAP2 SWAP1 POP JUMP JUMPDEST PUSH32 0x5472616E73616374696F6E20616C726561647920657865637574656400000000 PUSH0 DUP3 ADD MSTORE POP JUMP JUMPDEST PUSH0 PUSH2 0x2543 PUSH1 0x1C DUP4 PUSH2 0x1C3F JUMP JUMPDEST SWAP2 POP PUSH2 0x254E DUP3 PUSH2 0x250F JUMP JUMPDEST PUSH1 0x20 DUP3 ADD SWAP1 POP SWAP2 SWAP1 POP JUMP JUMPDEST PUSH0 PUSH1 0x20 DUP3 ADD SWAP1 POP DUP2 DUP2 SUB PUSH0 DUP4 ADD MSTORE PUSH2 0x2570 DUP2 PUSH2 0x2537 JUMP JUMPDEST SWAP1 POP SWAP2 SWAP1 POP JUMP JUMPDEST PUSH0 DUP2 SWAP1 POP SWAP3 SWAP2 POP POP JUMP JUMPDEST PUSH0 DUP2 SLOAD PUSH2 0x258D DUP2 PUSH2 0x1F03 JUMP JUMPDEST PUSH2 0x2597 DUP2 DUP7 PUSH2 0x2577 JUMP JUMPDEST SWAP5 POP PUSH1 0x1 DUP3 AND PUSH0 DUP2 EQ PUSH2 0x25B1 JUMPI PUSH1 0x1 DUP2 EQ PUSH2 0x25C6 JUMPI PUSH2 0x25F8 JUMP JUMPDEST PUSH1 0xFF NOT DUP4 AND DUP7 MSTORE DUP2 ISZERO ISZERO DUP3 MUL DUP7 ADD SWAP4 POP PUSH2 0x25F8 JUMP JUMPDEST PUSH2 0x25CF DUP6 PUSH2 0x2189 JUMP JUMPDEST PUSH0 JUMPDEST DUP4 DUP2 LT ISZERO PUSH2 0x25F0 JUMPI DUP2 SLOAD DUP2 DUP10 ADD MSTORE PUSH1 0x1 DUP3 ADD SWAP2 POP PUSH1 0x20 DUP2 ADD SWAP1 POP PUSH2 0x25D1 JUMP JUMPDEST DUP4 DUP9 ADD SWAP6 POP POP POP JUMPDEST POP POP POP SWAP3 SWAP2 POP POP JUMP JUMPDEST PUSH0 PUSH2 0x260C DUP3 DUP5 PUSH2 0x2581 JUMP JUMPDEST SWAP2 POP DUP2 SWAP1 POP SWAP3 SWAP2 POP POP JUMP JUMPDEST PUSH32 0x5472616E73616374696F6E20657865637574696F6E206661696C656400000000 PUSH0 DUP3 ADD MSTORE POP JUMP JUMPDEST PUSH0 PUSH2 0x264B PUSH1 0x1C DUP4 PUSH2 0x1C3F JUMP JUMPDEST SWAP2 POP PUSH2 0x2656 DUP3 PUSH2 0x2617 JUMP JUMPDEST PUSH1 0x20 DUP3 ADD SWAP1 POP SWAP2 SWAP1 POP JUMP JUMPDEST PUSH0 PUSH1 0x20 DUP3 ADD SWAP1 POP DUP2 DUP2 SUB PUSH0 DUP4 ADD MSTORE PUSH2 0x2678 DUP2 PUSH2 0x263F JUMP JUMPDEST SWAP1 POP SWAP2 SWAP1 POP JUMP INVALID LOG2 PUSH5 0x6970667358 0x22 SLT KECCAK256 REVERT 0xC5 PUSH11 0xD2380B66A5F8E81A05C82D ORIGIN 0xDC CALLDATACOPY SWAP11 0xB9 CALLDATACOPY PUSH28 0x7951A7B4F525A338A6A89F64736F6C634300081B0033000000000000 "
				},
				"gasEstimates": {
					"creation": {
						"codeDepositCost": "1981800",
						"executionCost": "infinite",
						"totalCost": "infinite"
					},
					"external": {
						"commitSetConfirmationsRequired(uint256)": "infinite",
						"commitSetOwner(address)": "infinite",
						"confirmTransaction(uint256)": "infinite",
						"getAdministrator()": "infinite",
						"getNumConfirmationsRequired()": "4737",
						"getOwner()": "4872",
						"getSendSwitch()": "4756",
						"getTransactions()": "infinite",
						"getUSDT()": "infinite",
						"revokeConfirmation(uint256)": "infinite",
						"sendSwitch()": "28831",
						"usdtApprove(uint256,uint256)": "infinite",
						"usdtReceive(uint256)": "infinite",
						"usdtWithdraw()": "infinite"
					},
					"internal": {
						"confirmTransaction(struct Market.Transaction storage ref[] storage pointer,mapping(uint256 => mapping(address => bool)),mapping(uint256 => uint256),uint256,uint256)": "infinite",
						"executeTransaction(struct Market.Transaction storage ref[] storage pointer,uint256)": "infinite",
						"revokeConfirmation(struct Market.Transaction storage ref[] storage pointer,mapping(uint256 => mapping(address => bool)),mapping(uint256 => uint256),uint256)": "infinite",
						"setConfirmationsRequired(uint256)": "infinite",
						"setOwner(address)": "infinite",
						"submitTransaction(struct Market.Transaction storage ref[] storage pointer,bytes memory,bool)": "infinite"
					}
				},
				"methodIdentifiers": {
					"commitSetConfirmationsRequired(uint256)": "4ecf43a0",
					"commitSetOwner(address)": "838cbe52",
					"confirmTransaction(uint256)": "c01a8c84",
					"getAdministrator()": "16967407",
					"getNumConfirmationsRequired()": "60523440",
					"getOwner()": "893d20e8",
					"getSendSwitch()": "a75e1ecf",
					"getTransactions()": "83920e90",
					"getUSDT()": "581592f1",
					"revokeConfirmation(uint256)": "20ea8d86",
					"sendSwitch()": "84c02ba9",
					"usdtApprove(uint256,uint256)": "3b211c4c",
					"usdtReceive(uint256)": "a6c41b4d",
					"usdtWithdraw()": "aad0e6eb"
				}
			},
			"storageLayout": {
				"storage": [
					{
						"astId": 92,
						"contract": "contracts/Market.sol:Market",
						"label": "numConfirmationsRequired",
						"offset": 0,
						"slot": "0",
						"type": "t_uint256"
					},
					{
						"astId": 95,
						"contract": "contracts/Market.sol:Market",
						"label": "productID",
						"offset": 0,
						"slot": "1",
						"type": "t_uint256"
					},
					{
						"astId": 98,
						"contract": "contracts/Market.sol:Market",
						"label": "sendToOwner",
						"offset": 0,
						"slot": "2",
						"type": "t_bool"
					},
					{
						"astId": 100,
						"contract": "contracts/Market.sol:Market",
						"label": "owner",
						"offset": 1,
						"slot": "2",
						"type": "t_address"
					},
					{
						"astId": 103,
						"contract": "contracts/Market.sol:Market",
						"label": "administrators",
						"offset": 0,
						"slot": "3",
						"type": "t_array(t_address)dyn_storage"
					},
					{
						"astId": 107,
						"contract": "contracts/Market.sol:Market",
						"label": "transactions",
						"offset": 0,
						"slot": "4",
						"type": "t_array(t_struct(Transaction)71_storage)dyn_storage"
					},
					{
						"astId": 111,
						"contract": "contracts/Market.sol:Market",
						"label": "isAdministrator",
						"offset": 0,
						"slot": "5",
						"type": "t_mapping(t_address,t_bool)"
					},
					{
						"astId": 115,
						"contract": "contracts/Market.sol:Market",
						"label": "numConfirmations",
						"offset": 0,
						"slot": "6",
						"type": "t_mapping(t_uint256,t_uint256)"
					},
					{
						"astId": 121,
						"contract": "contracts/Market.sol:Market",
						"label": "isConfirmed",
						"offset": 0,
						"slot": "7",
						"type": "t_mapping(t_uint256,t_mapping(t_address,t_bool))"
					},
					{
						"astId": 127,
						"contract": "contracts/Market.sol:Market",
						"label": "products",
						"offset": 0,
						"slot": "8",
						"type": "t_mapping(t_uint256,t_mapping(t_uint256,t_bool))"
					},
					{
						"astId": 131,
						"contract": "contracts/Market.sol:Market",
						"label": "myProducts",
						"offset": 0,
						"slot": "9",
						"type": "t_array(t_struct(MyProduct)90_storage)dyn_storage"
					},
					{
						"astId": 134,
						"contract": "contracts/Market.sol:Market",
						"label": "usdt",
						"offset": 0,
						"slot": "10",
						"type": "t_contract(IERC20)38"
					}
				],
				"types": {
					"t_address": {
						"encoding": "inplace",
						"label": "address",
						"numberOfBytes": "20"
					},
					"t_array(t_address)dyn_storage": {
						"base": "t_address",
						"encoding": "dynamic_array",
						"label": "address[]",
						"numberOfBytes": "32"
					},
					"t_array(t_struct(MyProduct)90_storage)dyn_storage": {
						"base": "t_struct(MyProduct)90_storage",
						"encoding": "dynamic_array",
						"label": "struct Market.MyProduct[]",
						"numberOfBytes": "32"
					},
					"t_array(t_struct(Transaction)71_storage)dyn_storage": {
						"base": "t_struct(Transaction)71_storage",
						"encoding": "dynamic_array",
						"label": "struct Market.Transaction[]",
						"numberOfBytes": "32"
					},
					"t_bool": {
						"encoding": "inplace",
						"label": "bool",
						"numberOfBytes": "1"
					},
					"t_bytes_storage": {
						"encoding": "bytes",
						"label": "bytes",
						"numberOfBytes": "32"
					},
					"t_contract(IERC20)38": {
						"encoding": "inplace",
						"label": "contract IERC20",
						"numberOfBytes": "20"
					},
					"t_mapping(t_address,t_bool)": {
						"encoding": "mapping",
						"key": "t_address",
						"label": "mapping(address => bool)",
						"numberOfBytes": "32",
						"value": "t_bool"
					},
					"t_mapping(t_uint256,t_bool)": {
						"encoding": "mapping",
						"key": "t_uint256",
						"label": "mapping(uint256 => bool)",
						"numberOfBytes": "32",
						"value": "t_bool"
					},
					"t_mapping(t_uint256,t_mapping(t_address,t_bool))": {
						"encoding": "mapping",
						"key": "t_uint256",
						"label": "mapping(uint256 => mapping(address => bool))",
						"numberOfBytes": "32",
						"value": "t_mapping(t_address,t_bool)"
					},
					"t_mapping(t_uint256,t_mapping(t_uint256,t_bool))": {
						"encoding": "mapping",
						"key": "t_uint256",
						"label": "mapping(uint256 => mapping(uint256 => bool))",
						"numberOfBytes": "32",
						"value": "t_mapping(t_uint256,t_bool)"
					},
					"t_mapping(t_uint256,t_uint256)": {
						"encoding": "mapping",
						"key": "t_uint256",
						"label": "mapping(uint256 => uint256)",
						"numberOfBytes": "32",
						"value": "t_uint256"
					},
					"t_struct(MyProduct)90_storage": {
						"encoding": "inplace",
						"label": "struct Market.MyProduct",
						"members": [
							{
								"astId": 85,
								"contract": "contracts/Market.sol:Market",
								"label": "id",
								"offset": 0,
								"slot": "0",
								"type": "t_uint256"
							},
							{
								"astId": 87,
								"contract": "contracts/Market.sol:Market",
								"label": "price",
								"offset": 0,
								"slot": "1",
								"type": "t_uint256"
							},
							{
								"astId": 89,
								"contract": "contracts/Market.sol:Market",
								"label": "status",
								"offset": 0,
								"slot": "2",
								"type": "t_bool"
							}
						],
						"numberOfBytes": "96"
					},
					"t_struct(Transaction)71_storage": {
						"encoding": "inplace",
						"label": "struct Market.Transaction",
						"members": [
							{
								"astId": 66,
								"contract": "contracts/Market.sol:Market",
								"label": "data",
								"offset": 0,
								"slot": "0",
								"type": "t_bytes_storage"
							},
							{
								"astId": 68,
								"contract": "contracts/Market.sol:Market",
								"label": "executed",
								"offset": 0,
								"slot": "1",
								"type": "t_bool"
							},
							{
								"astId": 70,
								"contract": "contracts/Market.sol:Market",
								"label": "mulit",
								"offset": 1,
								"slot": "1",
								"type": "t_bool"
							}
						],
						"numberOfBytes": "64"
					},
					"t_uint256": {
						"encoding": "inplace",
						"label": "uint256",
						"numberOfBytes": "32"
					}
				}
			},
			"userdoc": {
				"kind": "user",
				"methods": {},
				"version": 1
			}
		}
	}
}